{
  "contractName": "Aggre",
  "abi": [
    {
      "inputs": [
        {
          "internalType": "address",
          "name": "a",
          "type": "address"
        }
      ],
      "name": "getThePrice",
      "outputs": [
        {
          "internalType": "int256",
          "name": "",
          "type": "int256"
        }
      ],
      "stateMutability": "view",
      "type": "function",
      "constant": true
    },
    {
      "inputs": [
        {
          "internalType": "address",
          "name": "a",
          "type": "address"
        }
      ],
      "name": "getTheRoundId",
      "outputs": [
        {
          "internalType": "uint80",
          "name": "",
          "type": "uint80"
        }
      ],
      "stateMutability": "view",
      "type": "function",
      "constant": true
    },
    {
      "inputs": [
        {
          "internalType": "address",
          "name": "a",
          "type": "address"
        },
        {
          "internalType": "uint80",
          "name": "roundId",
          "type": "uint80"
        }
      ],
      "name": "getHistoricalPrice",
      "outputs": [
        {
          "internalType": "uint256",
          "name": "",
          "type": "uint256"
        }
      ],
      "stateMutability": "view",
      "type": "function",
      "constant": true
    }
  ],
  "bytecode": "0x608060405234801561001057600080fd5b50610611806100206000396000f3fe608060405234801561001057600080fd5b50600436106100415760003560e01c806344a11f65146100465780636c7e874c146100765780638ff7b235146100a6575b600080fd5b610060600480360381019061005b919061034c565b6100d6565b60405161006d9190610478565b60405180910390f35b610090600480360381019061008b9190610375565b610166565b60405161009d91906104b3565b60405180910390f35b6100c060048036038101906100bb919061034c565b610253565b6040516100cd91906104ce565b60405180910390f35b6000808273ffffffffffffffffffffffffffffffffffffffff1663feaf968c6040518163ffffffff1660e01b815260040160a06040518083038186803b15801561011f57600080fd5b505afa158015610133573d6000803e3d6000fd5b505050506040513d601f19601f8201168201806040525081019061015791906103b1565b50505091505080915050919050565b6000806000806000808773ffffffffffffffffffffffffffffffffffffffff16639a6fc8f5886040518263ffffffff1660e01b81526004016101a891906104ce565b60a06040518083038186803b1580156101c057600080fd5b505afa1580156101d4573d6000803e3d6000fd5b505050506040513d601f19601f820116820180604052508101906101f891906103b1565b9450945094509450945060008211610245576040517f08c379a000000000000000000000000000000000000000000000000000000000815260040161023c90610493565b60405180910390fd5b819550505050505092915050565b6000808273ffffffffffffffffffffffffffffffffffffffff1663feaf968c6040518163ffffffff1660e01b815260040160a06040518083038186803b15801561029c57600080fd5b505afa1580156102b0573d6000803e3d6000fd5b505050506040513d601f19601f820116820180604052508101906102d491906103b1565b50505050905080915050919050565b6000813590506102f28161057f565b92915050565b60008151905061030781610596565b92915050565b60008151905061031c816105ad565b92915050565b600081359050610331816105c4565b92915050565b600081519050610346816105c4565b92915050565b60006020828403121561035e57600080fd5b600061036c848285016102e3565b91505092915050565b6000806040838503121561038857600080fd5b6000610396858286016102e3565b92505060206103a785828601610322565b9150509250929050565b600080600080600060a086880312156103c957600080fd5b60006103d788828901610337565b95505060206103e8888289016102f8565b94505060406103f98882890161030d565b935050606061040a8882890161030d565b925050608061041b88828901610337565b9150509295509295909350565b6104318161050c565b82525050565b60006104446012836104e9565b915061044f82610556565b602082019050919050565b61046381610536565b82525050565b61047281610540565b82525050565b600060208201905061048d6000830184610428565b92915050565b600060208201905081810360008301526104ac81610437565b9050919050565b60006020820190506104c8600083018461045a565b92915050565b60006020820190506104e36000830184610469565b92915050565b600082825260208201905092915050565b600061050582610516565b9050919050565b6000819050919050565b600073ffffffffffffffffffffffffffffffffffffffff82169050919050565b6000819050919050565b600069ffffffffffffffffffff82169050919050565b7f526f756e64206e6f7420636f6d706c6574650000000000000000000000000000600082015250565b610588816104fa565b811461059357600080fd5b50565b61059f8161050c565b81146105aa57600080fd5b50565b6105b681610536565b81146105c157600080fd5b50565b6105cd81610540565b81146105d857600080fd5b5056fea2646970667358221220ca4670123900f140bdc6499d9974b418238f16766f0e7cbc390af4b276679f1e64736f6c63430008030033",
  "immutableReferences": {},
  "source": "// SPDX-License-Identifier: MIT\r\npragma solidity ^0.8.3;\r\n\r\n// TODO: implement the code from: https://docs.chain.link/docs/get-the-latest-price/. Works on Remix only.\r\nimport \"@chainlink/contracts/src/v0.8/interfaces/AggregatorV3Interface.sol\";\r\n\r\n\r\ncontract Aggre{\r\n\r\n    function getThePrice(address a) public view returns (int) {\r\n        (,int price,,,) = AggregatorV3Interface(a).latestRoundData();\r\n        return price;\r\n    }\r\n    function getTheRoundId(address a) public view returns (uint80) {\r\n        (uint80 roundId,,,,) = AggregatorV3Interface(a).latestRoundData();\r\n        return roundId;\r\n    }\r\n\r\n    function getHistoricalPrice(address a,uint80 roundId) public view returns (uint) {\r\n            (\r\n                uint80 id,\r\n                int price,\r\n                uint startedAt,\r\n                uint timeStamp,\r\n                uint80 answeredInRound\r\n            ) = AggregatorV3Interface(a).getRoundData(roundId);\r\n            require(timeStamp > 0, \"Round not complete\");\r\n            return timeStamp;\r\n        }\r\n\r\n    /*function priceIncrementalSearch(address a) public view returns (int) {\r\n        (,int price,,,) = AggregatorV3Interface(a).latestRoundData();\r\n        return price;\r\n    }\r\n\r\n    function priceBinarySearch(address a) public view returns (int) {\r\n        (,int price,,,) = AggregatorV3Interface(a).latestRoundData();\r\n        return price;\r\n    }*/\r\n\r\n\r\n}",
  "sourcePath": "/mnt/c/users/admin/ideaprojects/tau_smart_contract/src/solidity/contracts/Aggre.sol",
  "compiler": {
    "name": "solc",
    "version": "0.8.3+commit.8d00100c.Emscripten.clang"
  },
  "schemaVersion": "3.4.1",
  "updatedAt": "2021-07-20T18:26:56.104Z",
  "networkType": "ethereum",
  "devdoc": {
    "kind": "dev",
    "methods": {},
    "version": 1
  },
  "userdoc": {
    "kind": "user",
    "methods": {},
    "version": 1
  }
}