{
  "contractName": "Aggre",
  "abi": [
    {
      "inputs": [
        {
          "internalType": "address",
          "name": "a",
          "type": "address"
        }
      ],
      "name": "getThePrice",
      "outputs": [
        {
          "internalType": "int256",
          "name": "",
          "type": "int256"
        }
      ],
      "stateMutability": "view",
      "type": "function"
    },
    {
      "inputs": [
        {
          "internalType": "address",
          "name": "a",
          "type": "address"
        }
      ],
      "name": "getTheRoundId",
      "outputs": [
        {
          "internalType": "uint80",
          "name": "",
          "type": "uint80"
        }
      ],
      "stateMutability": "view",
      "type": "function"
    },
    {
      "inputs": [
        {
          "internalType": "address",
          "name": "a",
          "type": "address"
        },
        {
          "internalType": "uint80",
          "name": "roundId",
          "type": "uint80"
        }
      ],
      "name": "getHistoricalPrice",
      "outputs": [
        {
          "internalType": "int256",
          "name": "",
          "type": "int256"
        }
      ],
      "stateMutability": "view",
      "type": "function"
    }
  ],
  "bytecode": "0x608060405234801561001057600080fd5b506105e7806100206000396000f3fe608060405234801561001057600080fd5b50600436106100415760003560e01c806344a11f65146100465780636c7e874c146100765780638ff7b235146100a6575b600080fd5b610060600480360381019061005b919061034c565b6100d6565b60405161006d9190610469565b60405180910390f35b610090600480360381019061008b9190610375565b610166565b60405161009d9190610469565b60405180910390f35b6100c060048036038101906100bb919061034c565b610253565b6040516100cd91906104a4565b60405180910390f35b6000808273ffffffffffffffffffffffffffffffffffffffff1663feaf968c6040518163ffffffff1660e01b815260040160a06040518083038186803b15801561011f57600080fd5b505afa158015610133573d6000803e3d6000fd5b505050506040513d601f19601f8201168201806040525081019061015791906103b1565b50505091505080915050919050565b6000806000806000808773ffffffffffffffffffffffffffffffffffffffff16639a6fc8f5886040518263ffffffff1660e01b81526004016101a891906104a4565b60a06040518083038186803b1580156101c057600080fd5b505afa1580156101d4573d6000803e3d6000fd5b505050506040513d601f19601f820116820180604052508101906101f891906103b1565b9450945094509450945060008211610245576040517f08c379a000000000000000000000000000000000000000000000000000000000815260040161023c90610484565b60405180910390fd5b839550505050505092915050565b6000808273ffffffffffffffffffffffffffffffffffffffff1663feaf968c6040518163ffffffff1660e01b815260040160a06040518083038186803b15801561029c57600080fd5b505afa1580156102b0573d6000803e3d6000fd5b505050506040513d601f19601f820116820180604052508101906102d491906103b1565b50505050905080915050919050565b6000813590506102f281610555565b92915050565b6000815190506103078161056c565b92915050565b60008151905061031c81610583565b92915050565b6000813590506103318161059a565b92915050565b6000815190506103468161059a565b92915050565b60006020828403121561035e57600080fd5b600061036c848285016102e3565b91505092915050565b6000806040838503121561038857600080fd5b6000610396858286016102e3565b92505060206103a785828601610322565b9150509250929050565b600080600080600060a086880312156103c957600080fd5b60006103d788828901610337565b95505060206103e8888289016102f8565b94505060406103f98882890161030d565b935050606061040a8882890161030d565b925050608061041b88828901610337565b9150509295509295909350565b610431816104e2565b82525050565b60006104446012836104bf565b915061044f8261052c565b602082019050919050565b61046381610516565b82525050565b600060208201905061047e6000830184610428565b92915050565b6000602082019050818103600083015261049d81610437565b9050919050565b60006020820190506104b9600083018461045a565b92915050565b600082825260208201905092915050565b60006104db826104ec565b9050919050565b6000819050919050565b600073ffffffffffffffffffffffffffffffffffffffff82169050919050565b6000819050919050565b600069ffffffffffffffffffff82169050919050565b7f526f756e64206e6f7420636f6d706c6574650000000000000000000000000000600082015250565b61055e816104d0565b811461056957600080fd5b50565b610575816104e2565b811461058057600080fd5b50565b61058c8161050c565b811461059757600080fd5b50565b6105a381610516565b81146105ae57600080fd5b5056fea264697066735822122093c49aca98f88589dcd231c709060200f260a4f3f4cd2b17528d57bc692a970d64736f6c63430008030033",
  "immutableReferences": {},
  "source": "// SPDX-License-Identifier: MIT\r\npragma solidity ^0.8.3;\r\n\r\n// TODO: implement the code from: https://docs.chain.link/docs/get-the-latest-price/. Works on Remix only.\r\nimport \"@chainlink/contracts/src/v0.8/interfaces/AggregatorV3Interface.sol\";\r\n\r\n\r\ncontract Aggre{\r\n\r\n    function getThePrice(address a) public view returns (int) {\r\n        (,int price,,,) = AggregatorV3Interface(a).latestRoundData();\r\n        return price;\r\n    }\r\n    function getTheRoundId(address a) public view returns (uint80) {\r\n        (uint80 roundId,,,,) = AggregatorV3Interface(a).latestRoundData();\r\n        return roundId;\r\n    }\r\n\r\n    function getHistoricalPrice(address a,uint80 roundId) public view returns (int) {\r\n            (\r\n                uint80 id,\r\n                int price,\r\n                uint startedAt,\r\n                uint timeStamp,\r\n                uint80 answeredInRound\r\n            ) = AggregatorV3Interface(a).getRoundData(roundId);\r\n            require(timeStamp > 0, \"Round not complete\");\r\n            return price;\r\n        }\r\n\r\n    /*function priceIncrementalSearch(address a) public view returns (int) {\r\n        (,int price,,,) = AggregatorV3Interface(a).latestRoundData();\r\n        return price;\r\n    }\r\n\r\n    function priceBinarySearch(address a) public view returns (int) {\r\n        (,int price,,,) = AggregatorV3Interface(a).latestRoundData();\r\n        return price;\r\n    }*/\r\n\r\n\r\n}",
  "sourcePath": "/mnt/c/users/admin/ideaprojects/tau_smart_contract/src/solidity/contracts/Aggre.sol",
  "compiler": {
    "name": "solc",
    "version": "0.8.3+commit.8d00100c.Emscripten.clang"
  },
  "schemaVersion": "3.4.1",
  "updatedAt": "2021-07-19T20:29:27.166Z",
  "devdoc": {
    "kind": "dev",
    "methods": {},
    "version": 1
  },
  "userdoc": {
    "kind": "user",
    "methods": {},
    "version": 1
  }
}