{
  "contractName": "Aggre",
  "abi": [
    {
      "inputs": [
        {
          "internalType": "address",
          "name": "a",
          "type": "address"
        }
      ],
      "name": "getThePrice",
      "outputs": [
        {
          "internalType": "int256",
          "name": "",
          "type": "int256"
        }
      ],
      "stateMutability": "view",
      "type": "function"
    }
  ],
  "bytecode": "0x608060405234801561001057600080fd5b506102fc806100206000396000f3fe608060405234801561001057600080fd5b506004361061002b5760003560e01c806344a11f6514610030575b600080fd5b61004a60048036038101906100459190610144565b610060565b60405161005791906101f3565b60405180910390f35b6000808273ffffffffffffffffffffffffffffffffffffffff1663feaf968c6040518163ffffffff1660e01b815260040160a06040518083038186803b1580156100a957600080fd5b505afa1580156100bd573d6000803e3d6000fd5b505050506040513d601f19601f820116820180604052508101906100e1919061016d565b50505091505080915050919050565b6000813590506100ff8161026a565b92915050565b60008151905061011481610281565b92915050565b60008151905061012981610298565b92915050565b60008151905061013e816102af565b92915050565b60006020828403121561015657600080fd5b6000610164848285016100f0565b91505092915050565b600080600080600060a0868803121561018557600080fd5b60006101938882890161012f565b95505060206101a488828901610105565b94505060406101b58882890161011a565b93505060606101c68882890161011a565b92505060806101d78882890161012f565b9150509295509295909350565b6101ed81610220565b82525050565b600060208201905061020860008301846101e4565b92915050565b60006102198261022a565b9050919050565b6000819050919050565b600073ffffffffffffffffffffffffffffffffffffffff82169050919050565b6000819050919050565b600069ffffffffffffffffffff82169050919050565b6102738161020e565b811461027e57600080fd5b50565b61028a81610220565b811461029557600080fd5b50565b6102a18161024a565b81146102ac57600080fd5b50565b6102b881610254565b81146102c357600080fd5b5056fea2646970667358221220d1fdd3ad8c93e43d8a37c14c886a8850dd4c90760c269bdd89edcb07add758af64736f6c63430008030033",
  "immutableReferences": {},
  "source": "// SPDX-License-Identifier: MIT\npragma solidity ^0.8.3;\n\n// TODO: implement the code from: https://docs.chain.link/docs/get-the-latest-price/. Works on Remix only.\nimport \"@chainlink/contracts/src/v0.8/interfaces/AggregatorV3Interface.sol\";\n\n\ncontract Aggre{\n\n    function getThePrice(address a) public view returns (int) {\n        (\n        ,\n        int price,\n        ,\n        ,\n        ) = AggregatorV3Interface(a).latestRoundData();\n        return price;\n    }\n\n}",
  "sourcePath": "/home/eran/WebstormProjects/tau_Smart_contract/src/solidity/contracts/Aggre.sol",
  "compiler": {
    "name": "solc",
    "version": "0.8.3+commit.8d00100c.Emscripten.clang"
  },
  "schemaVersion": "3.3.4",
  "updatedAt": "2021-07-30T20:27:46.059Z",
  "devdoc": {
    "kind": "dev",
    "methods": {},
    "version": 1
  },
  "userdoc": {
    "kind": "user",
    "methods": {},
    "version": 1
  }
}