{
  "contractName": "BinaryOption",
  "abi": [
    {
      "inputs": [],
      "stateMutability": "nonpayable",
      "type": "constructor"
    },
    {
      "anonymous": false,
      "inputs": [
        {
          "indexed": true,
          "internalType": "uint256",
          "name": "id",
          "type": "uint256"
        },
        {
          "indexed": false,
          "internalType": "address",
          "name": "address_field",
          "type": "address"
        }
      ],
      "name": "AddEvent",
      "type": "event"
    },
    {
      "inputs": [],
      "name": "battleId",
      "outputs": [
        {
          "internalType": "uint256",
          "name": "",
          "type": "uint256"
        }
      ],
      "stateMutability": "view",
      "type": "function",
      "constant": true
    },
    {
      "inputs": [
        {
          "internalType": "uint256",
          "name": "",
          "type": "uint256"
        }
      ],
      "name": "battleInfo",
      "outputs": [
        {
          "internalType": "address",
          "name": "creator",
          "type": "address"
        },
        {
          "internalType": "address",
          "name": "opponent",
          "type": "address"
        },
        {
          "internalType": "uint256",
          "name": "amountBet",
          "type": "uint256"
        },
        {
          "internalType": "string",
          "name": "betType",
          "type": "string"
        },
        {
          "internalType": "uint256",
          "name": "betDate",
          "type": "uint256"
        },
        {
          "internalType": "bool",
          "name": "isUp",
          "type": "bool"
        },
        {
          "internalType": "int256",
          "name": "currVal",
          "type": "int256"
        },
        {
          "internalType": "enum BinaryOption.Status",
          "name": "whoWin",
          "type": "uint8"
        }
      ],
      "stateMutability": "view",
      "type": "function",
      "constant": true
    },
    {
      "inputs": [
        {
          "internalType": "string",
          "name": "",
          "type": "string"
        }
      ],
      "name": "feedAddress",
      "outputs": [
        {
          "internalType": "address",
          "name": "",
          "type": "address"
        }
      ],
      "stateMutability": "view",
      "type": "function",
      "constant": true
    },
    {
      "inputs": [],
      "name": "priceFeed",
      "outputs": [
        {
          "internalType": "contract PriceFeed",
          "name": "",
          "type": "address"
        }
      ],
      "stateMutability": "view",
      "type": "function",
      "constant": true
    },
    {
      "inputs": [],
      "name": "getNotOver",
      "outputs": [
        {
          "internalType": "enum BinaryOption.Status",
          "name": "",
          "type": "uint8"
        }
      ],
      "stateMutability": "view",
      "type": "function",
      "constant": true
    },
    {
      "inputs": [
        {
          "internalType": "string",
          "name": "betType",
          "type": "string"
        },
        {
          "internalType": "uint256",
          "name": "betDate",
          "type": "uint256"
        },
        {
          "internalType": "bool",
          "name": "direction",
          "type": "bool"
        }
      ],
      "name": "addBattle",
      "outputs": [],
      "stateMutability": "payable",
      "type": "function",
      "payable": true
    },
    {
      "inputs": [
        {
          "internalType": "uint256",
          "name": "battle_id",
          "type": "uint256"
        }
      ],
      "name": "getBattleInfo",
      "outputs": [
        {
          "components": [
            {
              "internalType": "address",
              "name": "creator",
              "type": "address"
            },
            {
              "internalType": "address",
              "name": "opponent",
              "type": "address"
            },
            {
              "internalType": "uint256",
              "name": "amountBet",
              "type": "uint256"
            },
            {
              "internalType": "string",
              "name": "betType",
              "type": "string"
            },
            {
              "internalType": "uint256",
              "name": "betDate",
              "type": "uint256"
            },
            {
              "internalType": "bool",
              "name": "isUp",
              "type": "bool"
            },
            {
              "internalType": "int256",
              "name": "currVal",
              "type": "int256"
            },
            {
              "internalType": "enum BinaryOption.Status",
              "name": "whoWin",
              "type": "uint8"
            }
          ],
          "internalType": "struct BinaryOption.Battle",
          "name": "",
          "type": "tuple"
        }
      ],
      "stateMutability": "nonpayable",
      "type": "function"
    },
    {
      "inputs": [],
      "name": "getAll",
      "outputs": [
        {
          "components": [
            {
              "internalType": "address",
              "name": "creator",
              "type": "address"
            },
            {
              "internalType": "address",
              "name": "opponent",
              "type": "address"
            },
            {
              "internalType": "uint256",
              "name": "amountBet",
              "type": "uint256"
            },
            {
              "internalType": "string",
              "name": "betType",
              "type": "string"
            },
            {
              "internalType": "uint256",
              "name": "betDate",
              "type": "uint256"
            },
            {
              "internalType": "bool",
              "name": "isUp",
              "type": "bool"
            },
            {
              "internalType": "int256",
              "name": "currVal",
              "type": "int256"
            },
            {
              "internalType": "enum BinaryOption.Status",
              "name": "whoWin",
              "type": "uint8"
            }
          ],
          "internalType": "struct BinaryOption.Battle[]",
          "name": "",
          "type": "tuple[]"
        }
      ],
      "stateMutability": "view",
      "type": "function",
      "constant": true
    },
    {
      "inputs": [
        {
          "internalType": "uint256",
          "name": "battle_id",
          "type": "uint256"
        }
      ],
      "name": "acceptBattle",
      "outputs": [],
      "stateMutability": "payable",
      "type": "function",
      "payable": true
    },
    {
      "inputs": [
        {
          "internalType": "uint256",
          "name": "battle_id",
          "type": "uint256"
        }
      ],
      "name": "cancelBattle",
      "outputs": [],
      "stateMutability": "nonpayable",
      "type": "function"
    },
    {
      "inputs": [
        {
          "internalType": "uint256",
          "name": "battle_id",
          "type": "uint256"
        }
      ],
      "name": "withdraw",
      "outputs": [],
      "stateMutability": "nonpayable",
      "type": "function"
    }
  ],
  "bytecode": "0x60806040523480156200001157600080fd5b5060405162000020906200048e565b604051809103906000f0801580156200003d573d6000803e3d6000fd5b50600360006101000a81548173ffffffffffffffffffffffffffffffffffffffff021916908373ffffffffffffffffffffffffffffffffffffffff16021790555060008015620000fe57739326bfa02add2366b30bacb125260af6410313316002604051620000ac9062000612565b908152602001604051809103902060006101000a81548173ffffffffffffffffffffffffffffffffffffffff021916908373ffffffffffffffffffffffffffffffffffffffff16021790555062000487565b738a753747a1fa494ec906ce90e9f37563a8af630e600260405162000123906200066e565b908152602001604051809103902060006101000a81548173ffffffffffffffffffffffffffffffffffffffff021916908373ffffffffffffffffffffffffffffffffffffffff16021790555073ece365b379e1dd183b20fc5f022230c044d514046002604051620001949062000685565b908152602001604051809103902060006101000a81548173ffffffffffffffffffffffffffffffffffffffff021916908373ffffffffffffffffffffffffffffffffffffffff1602179055507378f9e60608bf48a1155b4b2a5e31f32318a1d85f60026040516200020590620005fb565b908152602001604051809103902060006101000a81548173ffffffffffffffffffffffffffffffffffffffff021916908373ffffffffffffffffffffffffffffffffffffffff16021790555073dca36f27cbc4e38ae16c4e9f99d39b42337f6dcf6002604051620002769062000657565b908152602001604051809103902060006101000a81548173ffffffffffffffffffffffffffffffffffffffff021916908373ffffffffffffffffffffffffffffffffffffffff160217905550732ba49aaa16e6afd2a993473cfb70fa8559b523cf6002604051620002e79062000640565b908152602001604051809103902060006101000a81548173ffffffffffffffffffffffffffffffffffffffff021916908373ffffffffffffffffffffffffffffffffffffffff1602179055507374825dbc8bf76cc4e9494d0ecb210f676efa001d60026040516200035890620006b3565b908152602001604051809103902060006101000a81548173ffffffffffffffffffffffffffffffffffffffff021916908373ffffffffffffffffffffffffffffffffffffffff160217905550730630521ac362bc7a19a4ee44b57ce72ea34ad01c6002604051620003c9906200069c565b908152602001604051809103902060006101000a81548173ffffffffffffffffffffffffffffffffffffffff021916908373ffffffffffffffffffffffffffffffffffffffff16021790555073e96c4407597cd507002df88ff6e0008ab41266ee60026040516200043a9062000629565b908152602001604051809103902060006101000a81548173ffffffffffffffffffffffffffffffffffffffff021916908373ffffffffffffffffffffffffffffffffffffffff1602179055505b5062000846565b61031c80620036ee83390190565b6000620004ab600a83620006ca565b9150620004b882620006d5565b600a82019050919050565b6000620004d2600883620006ca565b9150620004df82620006fe565b600882019050919050565b6000620004f9600a83620006ca565b9150620005068262000727565b600a82019050919050565b600062000520600a83620006ca565b91506200052d8262000750565b600a82019050919050565b600062000547600b83620006ca565b9150620005548262000779565b600b82019050919050565b60006200056e600a83620006ca565b91506200057b82620007a2565b600a82019050919050565b600062000595600a83620006ca565b9150620005a282620007cb565b600a82019050919050565b6000620005bc600c83620006ca565b9150620005c982620007f4565b600c82019050919050565b6000620005e3600a83620006ca565b9150620005f0826200081d565b600a82019050919050565b600062000608826200049c565b9150819050919050565b60006200061f82620004c3565b9150819050919050565b60006200063682620004ea565b9150819050919050565b60006200064d8262000511565b9150819050919050565b6000620006648262000538565b9150819050919050565b60006200067b826200055f565b9150819050919050565b6000620006928262000586565b9150819050919050565b6000620006a982620005ad565b9150819050919050565b6000620006c082620005d4565b9150819050919050565b600081905092915050565b7f6575725f76735f75736400000000000000000000000000000000000000000000600082015250565b7f4574685673557364000000000000000000000000000000000000000000000000600082015250565b7f736e785f76735f75736400000000000000000000000000000000000000000000600082015250565b7f6461695f76735f75736400000000000000000000000000000000000000000000600082015250565b7f757364635f76735f657468000000000000000000000000000000000000000000600082015250565b7f6574685f76735f75736400000000000000000000000000000000000000000000600082015250565b7f6274635f76735f75736400000000000000000000000000000000000000000000600082015250565b7f73646566695f76735f7573640000000000000000000000000000000000000000600082015250565b7f6461695f76735f65746800000000000000000000000000000000000000000000600082015250565b612e9880620008566000396000f3fe60806040526004361061009c5760003560e01c80637feb867c116100645780637feb867c1461017457806381ec30f21461019f578063bfc8b8c6146101bb578063c0a6e9d7146101d7578063db71dcdc14610214578063e4bb7a1e146102585761009c565b806301a1b778146100a15780632e1a7d4d146100cc5780634c4c447e146100f557806353ed51431461011e578063741bef1a14610149575b600080fd5b3480156100ad57600080fd5b506100b6610295565b6040516100c391906126e3565b60405180910390f35b3480156100d857600080fd5b506100f360048036038101906100ee9190611e5b565b61029b565b005b34801561010157600080fd5b5061011c60048036038101906101179190611e5b565b610a1c565b005b34801561012a57600080fd5b50610133610e73565b60405161014091906124c9565b60405180910390f35b34801561015557600080fd5b5061015e61117d565b60405161016b91906124eb565b60405180910390f35b34801561018057600080fd5b506101896111a3565b6040516101969190612506565b60405180910390f35b6101b960048036038101906101b49190611e5b565b6111ac565b005b6101d560048036038101906101d09190611df4565b6113e0565b005b3480156101e357600080fd5b506101fe60048036038101906101f99190611e5b565b611757565b60405161020b91906126c1565b60405180910390f35b34801561022057600080fd5b5061023b60048036038101906102369190611e5b565b6119e2565b60405161024f989796959493929190612444565b60405180910390f35b34801561026457600080fd5b5061027f600480360381019061027a9190611db3565b611b0c565b60405161028c9190612429565b60405180910390f35b60005481565b60008060008060016000868152602001908152602001600020905060006103e882600401546102ca91906127da565b90506001600087815260200190815260200160002060010160009054906101000a900473ffffffffffffffffffffffffffffffffffffffff1673ffffffffffffffffffffffffffffffffffffffff166001600088815260200190815260200160002060000160009054906101000a900473ffffffffffffffffffffffffffffffffffffffff1673ffffffffffffffffffffffffffffffffffffffff1614156103a7576040517f08c379a000000000000000000000000000000000000000000000000000000000815260040161039e90612581565b60405180910390fd5b3373ffffffffffffffffffffffffffffffffffffffff168260000160009054906101000a900473ffffffffffffffffffffffffffffffffffffffff1673ffffffffffffffffffffffffffffffffffffffff16148061045457503373ffffffffffffffffffffffffffffffffffffffff168260010160009054906101000a900473ffffffffffffffffffffffffffffffffffffffff1673ffffffffffffffffffffffffffffffffffffffff16145b610493576040517f08c379a000000000000000000000000000000000000000000000000000000000815260040161048a906125e1565b60405180910390fd5b804210156104d6576040517f08c379a00000000000000000000000000000000000000000000000000000000081526004016104cd90612661565b60405180910390fd5b60038081111561050f577f4e487b7100000000000000000000000000000000000000000000000000000000600052602160045260246000fd5b8260070160009054906101000a900460ff166003811115610559577f4e487b7100000000000000000000000000000000000000000000000000000000600052602160045260246000fd5b14610599576040517f08c379a000000000000000000000000000000000000000000000000000000000815260040161059090612601565b60405180910390fd5b81600601549350600360009054906101000a900473ffffffffffffffffffffffffffffffffffffffff1673ffffffffffffffffffffffffffffffffffffffff166344a11f656002846003016040516105f19190612412565b908152602001604051809103902060009054906101000a900473ffffffffffffffffffffffffffffffffffffffff166040518263ffffffff1660e01b815260040161063c9190612429565b60206040518083038186803b15801561065457600080fd5b505afa158015610668573d6000803e3d6000fd5b505050506040513d601f19601f8201168201806040525081019061068c9190611d8a565b9250828412156107b6578160050160009054906101000a900460ff161561073157600194508160000160009054906101000a900473ffffffffffffffffffffffffffffffffffffffff1673ffffffffffffffffffffffffffffffffffffffff166108fc83600201546002610700919061280b565b9081150290604051600060405180830381858888f1935050505015801561072b573d6000803e3d6000fd5b506107b1565b600094508160010160009054906101000a900473ffffffffffffffffffffffffffffffffffffffff1673ffffffffffffffffffffffffffffffffffffffff166108fc83600201546002610784919061280b565b9081150290604051600060405180830381858888f193505050501580156107af573d6000803e3d6000fd5b505b6109c2565b828413156108de578160050160009054906101000a900460ff161561085957600094508160010160009054906101000a900473ffffffffffffffffffffffffffffffffffffffff1673ffffffffffffffffffffffffffffffffffffffff166108fc83600201546002610828919061280b565b9081150290604051600060405180830381858888f19350505050158015610853573d6000803e3d6000fd5b506108d9565b600194508160000160009054906101000a900473ffffffffffffffffffffffffffffffffffffffff1673ffffffffffffffffffffffffffffffffffffffff166108fc836002015460026108ac919061280b565b9081150290604051600060405180830381858888f193505050501580156108d7573d6000803e3d6000fd5b505b6109c1565b600294508160010160009054906101000a900473ffffffffffffffffffffffffffffffffffffffff1673ffffffffffffffffffffffffffffffffffffffff166108fc83600201549081150290604051600060405180830381858888f19350505050158015610950573d6000803e3d6000fd5b508160000160009054906101000a900473ffffffffffffffffffffffffffffffffffffffff1673ffffffffffffffffffffffffffffffffffffffff166108fc83600201549081150290604051600060405180830381858888f193505050501580156109bf573d6000803e3d6000fd5b505b5b848260070160006101000a81548160ff02191690836003811115610a0f577f4e487b7100000000000000000000000000000000000000000000000000000000600052602160045260246000fd5b0217905550505050505050565b600060016000838152602001908152602001600020604051806101000160405290816000820160009054906101000a900473ffffffffffffffffffffffffffffffffffffffff1673ffffffffffffffffffffffffffffffffffffffff1673ffffffffffffffffffffffffffffffffffffffff1681526020016001820160009054906101000a900473ffffffffffffffffffffffffffffffffffffffff1673ffffffffffffffffffffffffffffffffffffffff1673ffffffffffffffffffffffffffffffffffffffff16815260200160028201548152602001600382018054610b0390612942565b80601f0160208091040260200160405190810160405280929190818152602001828054610b2f90612942565b8015610b7c5780601f10610b5157610100808354040283529160200191610b7c565b820191906000526020600020905b815481529060010190602001808311610b5f57829003601f168201915b50505050508152602001600482015481526020016005820160009054906101000a900460ff16151515158152602001600682015481526020016007820160009054906101000a900460ff166003811115610bff577f4e487b7100000000000000000000000000000000000000000000000000000000600052602160045260246000fd5b6003811115610c37577f4e487b7100000000000000000000000000000000000000000000000000000000600052602160045260246000fd5b8152505090506000816040015111610c84576040517f08c379a0000000000000000000000000000000000000000000000000000000008152600401610c7b906125c1565b60405180910390fd5b3373ffffffffffffffffffffffffffffffffffffffff16816000015173ffffffffffffffffffffffffffffffffffffffff1614610cf6576040517f08c379a0000000000000000000000000000000000000000000000000000000008152600401610ced90612681565b60405180910390fd5b806020015173ffffffffffffffffffffffffffffffffffffffff16816000015173ffffffffffffffffffffffffffffffffffffffff1614610d6c576040517f08c379a0000000000000000000000000000000000000000000000000000000008152600401610d6390612561565b60405180910390fd5b806000015173ffffffffffffffffffffffffffffffffffffffff166108fc82604001519081150290604051600060405180830381858888f19350505050158015610dba573d6000803e3d6000fd5b5060016000838152602001908152602001600020600080820160006101000a81549073ffffffffffffffffffffffffffffffffffffffff02191690556001820160006101000a81549073ffffffffffffffffffffffffffffffffffffffff02191690556002820160009055600382016000610e359190611b55565b60048201600090556005820160006101000a81549060ff021916905560068201600090556007820160006101000a81549060ff021916905550505050565b60606000805467ffffffffffffffff811115610eb8577f4e487b7100000000000000000000000000000000000000000000000000000000600052604160045260246000fd5b604051908082528060200260200182016040528015610ef157816020015b610ede611b95565b815260200190600190039081610ed65790505b50905060005b6000548110156111755760016000828152602001908152602001600020604051806101000160405290816000820160009054906101000a900473ffffffffffffffffffffffffffffffffffffffff1673ffffffffffffffffffffffffffffffffffffffff1673ffffffffffffffffffffffffffffffffffffffff1681526020016001820160009054906101000a900473ffffffffffffffffffffffffffffffffffffffff1673ffffffffffffffffffffffffffffffffffffffff1673ffffffffffffffffffffffffffffffffffffffff16815260200160028201548152602001600382018054610fe690612942565b80601f016020809104026020016040519081016040528092919081815260200182805461101290612942565b801561105f5780601f106110345761010080835404028352916020019161105f565b820191906000526020600020905b81548152906001019060200180831161104257829003601f168201915b50505050508152602001600482015481526020016005820160009054906101000a900460ff16151515158152602001600682015481526020016007820160009054906101000a900460ff1660038111156110e2577f4e487b7100000000000000000000000000000000000000000000000000000000600052602160045260246000fd5b600381111561111a577f4e487b7100000000000000000000000000000000000000000000000000000000600052602160045260246000fd5b81525050828281518110611157577f4e487b7100000000000000000000000000000000000000000000000000000000600052603260045260246000fd5b6020026020010181905250808061116d906129a5565b915050610ef7565b508091505090565b600360009054906101000a900473ffffffffffffffffffffffffffffffffffffffff1681565b60006003905090565b6000600160008381526020019081526020016000209050600081600201541161120a576040517f08c379a000000000000000000000000000000000000000000000000000000000815260040161120190612641565b60405180910390fd5b3373ffffffffffffffffffffffffffffffffffffffff168160000160009054906101000a900473ffffffffffffffffffffffffffffffffffffffff1673ffffffffffffffffffffffffffffffffffffffff16141561129d576040517f08c379a000000000000000000000000000000000000000000000000000000000815260040161129490612521565b60405180910390fd5b8060010160009054906101000a900473ffffffffffffffffffffffffffffffffffffffff1673ffffffffffffffffffffffffffffffffffffffff168160000160009054906101000a900473ffffffffffffffffffffffffffffffffffffffff1673ffffffffffffffffffffffffffffffffffffffff1614611353576040517f08c379a000000000000000000000000000000000000000000000000000000000815260040161134a90612621565b60405180910390fd5b80600201543414611399576040517f08c379a0000000000000000000000000000000000000000000000000000000008152600401611390906126a1565b60405180910390fd5b338160010160006101000a81548173ffffffffffffffffffffffffffffffffffffffff021916908373ffffffffffffffffffffffffffffffffffffffff1602179055505050565b60003411611423576040517f08c379a000000000000000000000000000000000000000000000000000000000815260040161141a906125a1565b60405180910390fd5b6040518061010001604052803373ffffffffffffffffffffffffffffffffffffffff1681526020013373ffffffffffffffffffffffffffffffffffffffff1681526020013481526020018481526020018381526020018215158152602001600360009054906101000a900473ffffffffffffffffffffffffffffffffffffffff1673ffffffffffffffffffffffffffffffffffffffff166344a11f656002876040516114cf91906123fb565b908152602001604051809103902060009054906101000a900473ffffffffffffffffffffffffffffffffffffffff166040518263ffffffff1660e01b815260040161151a9190612429565b60206040518083038186803b15801561153257600080fd5b505afa158015611546573d6000803e3d6000fd5b505050506040513d601f19601f8201168201806040525081019061156a9190611d8a565b81526020016003808111156115a8577f4e487b7100000000000000000000000000000000000000000000000000000000600052602160045260246000fd5b815250600160008054815260200190815260200160002060008201518160000160006101000a81548173ffffffffffffffffffffffffffffffffffffffff021916908373ffffffffffffffffffffffffffffffffffffffff16021790555060208201518160010160006101000a81548173ffffffffffffffffffffffffffffffffffffffff021916908373ffffffffffffffffffffffffffffffffffffffff160217905550604082015181600201556060820151816003019080519060200190611673929190611c40565b506080820151816004015560a08201518160050160006101000a81548160ff02191690831515021790555060c0820151816006015560e08201518160070160006101000a81548160ff021916908360038111156116f9577f4e487b7100000000000000000000000000000000000000000000000000000000600052602160045260246000fd5b02179055509050506000547fa85f9845510d83562eaa9e779b6973f58826879a69d5613807f0415e1ce692c4336040516117339190612429565b60405180910390a260008081548092919061174d906129a5565b9190505550505050565b61175f611b95565b600060016000848152602001908152602001600020905060008160020154116117bd576040517f08c379a00000000000000000000000000000000000000000000000000000000081526004016117b490612541565b60405180910390fd5b60016000848152602001908152602001600020604051806101000160405290816000820160009054906101000a900473ffffffffffffffffffffffffffffffffffffffff1673ffffffffffffffffffffffffffffffffffffffff1673ffffffffffffffffffffffffffffffffffffffff1681526020016001820160009054906101000a900473ffffffffffffffffffffffffffffffffffffffff1673ffffffffffffffffffffffffffffffffffffffff1673ffffffffffffffffffffffffffffffffffffffff168152602001600282015481526020016003820180546118a290612942565b80601f01602080910402602001604051908101604052809291908181526020018280546118ce90612942565b801561191b5780601f106118f05761010080835404028352916020019161191b565b820191906000526020600020905b8154815290600101906020018083116118fe57829003601f168201915b50505050508152602001600482015481526020016005820160009054906101000a900460ff16151515158152602001600682015481526020016007820160009054906101000a900460ff16600381111561199e577f4e487b7100000000000000000000000000000000000000000000000000000000600052602160045260246000fd5b60038111156119d6577f4e487b7100000000000000000000000000000000000000000000000000000000600052602160045260246000fd5b81525050915050919050565b60016020528060005260406000206000915090508060000160009054906101000a900473ffffffffffffffffffffffffffffffffffffffff16908060010160009054906101000a900473ffffffffffffffffffffffffffffffffffffffff1690806002015490806003018054611a5790612942565b80601f0160208091040260200160405190810160405280929190818152602001828054611a8390612942565b8015611ad05780601f10611aa557610100808354040283529160200191611ad0565b820191906000526020600020905b815481529060010190602001808311611ab357829003601f168201915b5050505050908060040154908060050160009054906101000a900460ff16908060060154908060070160009054906101000a900460ff16905088565b6002818051602081018201805184825260208301602085012081835280955050505050506000915054906101000a900473ffffffffffffffffffffffffffffffffffffffff1681565b508054611b6190612942565b6000825580601f10611b735750611b92565b601f016020900490600052602060002090810190611b919190611cc6565b5b50565b604051806101000160405280600073ffffffffffffffffffffffffffffffffffffffff168152602001600073ffffffffffffffffffffffffffffffffffffffff1681526020016000815260200160608152602001600081526020016000151581526020016000815260200160006003811115611c3a577f4e487b7100000000000000000000000000000000000000000000000000000000600052602160045260246000fd5b81525090565b828054611c4c90612942565b90600052602060002090601f016020900481019282611c6e5760008555611cb5565b82601f10611c8757805160ff1916838001178555611cb5565b82800160010185558215611cb5579182015b82811115611cb4578251825591602001919060010190611c99565b5b509050611cc29190611cc6565b5090565b5b80821115611cdf576000816000905550600101611cc7565b5090565b6000611cf6611cf184612723565b6126fe565b905082815260208101848484011115611d0e57600080fd5b611d19848285612900565b509392505050565b600081359050611d3081612e1d565b92915050565b600081519050611d4581612e34565b92915050565b600082601f830112611d5c57600080fd5b8135611d6c848260208601611ce3565b91505092915050565b600081359050611d8481612e4b565b92915050565b600060208284031215611d9c57600080fd5b6000611daa84828501611d36565b91505092915050565b600060208284031215611dc557600080fd5b600082013567ffffffffffffffff811115611ddf57600080fd5b611deb84828501611d4b565b91505092915050565b600080600060608486031215611e0957600080fd5b600084013567ffffffffffffffff811115611e2357600080fd5b611e2f86828701611d4b565b9350506020611e4086828701611d75565b9250506040611e5186828701611d21565b9150509250925092565b600060208284031215611e6d57600080fd5b6000611e7b84828501611d75565b91505092915050565b6000611e90838361227d565b905092915050565b611ea181612865565b82525050565b611eb081612865565b82525050565b6000611ec182612779565b611ecb818561279c565b935083602082028501611edd85612754565b8060005b85811015611f195784840389528151611efa8582611e84565b9450611f058361278f565b925060208a01995050600181019050611ee1565b50829750879550505050505092915050565b611f3481612877565b82525050565b611f4381612877565b82525050565b611f52816128ca565b82525050565b611f61816128ee565b82525050565b611f70816128ee565b82525050565b611f7f81612896565b82525050565b611f8e81612896565b82525050565b6000611f9f82612784565b611fa981856127ad565b9350611fb981856020860161290f565b611fc281612ad9565b840191505092915050565b6000611fd882612784565b611fe281856127be565b9350611ff281856020860161290f565b611ffb81612ad9565b840191505092915050565b600061201182612784565b61201b81856127cf565b935061202b81856020860161290f565b80840191505092915050565b6000815461204481612942565b61204e81866127cf565b94506001821660008114612069576001811461207a576120ad565b60ff198316865281860193506120ad565b61208385612764565b60005b838110156120a557815481890152600182019150602081019050612086565b838801955050505b50505092915050565b60006120c36025836127be565b91506120ce82612aea565b604082019050919050565b60006120e66019836127be565b91506120f182612b39565b602082019050919050565b60006121096039836127be565b915061211482612b62565b604082019050919050565b600061212c6019836127be565b915061213782612bb1565b602082019050919050565b600061214f6022836127be565b915061215a82612bda565b604082019050919050565b60006121726018836127be565b915061217d82612c29565b602082019050919050565b60006121956020836127be565b91506121a082612c52565b602082019050919050565b60006121b86011836127be565b91506121c382612c7b565b602082019050919050565b60006121db602e836127be565b91506121e682612ca4565b604082019050919050565b60006121fe601b836127be565b915061220982612cf3565b602082019050919050565b60006122216025836127be565b915061222c82612d1c565b604082019050919050565b6000612244602b836127be565b915061224f82612d6b565b604082019050919050565b60006122676031836127be565b915061227282612dba565b604082019050919050565b6000610100830160008301516122966000860182611e98565b5060208301516122a96020860182611e98565b5060408301516122bc60408601826123dd565b50606083015184820360608601526122d48282611f94565b91505060808301516122e960808601826123dd565b5060a08301516122fc60a0860182611f2b565b5060c083015161230f60c0860182611f76565b5060e083015161232260e0860182611f58565b508091505092915050565b6000610100830160008301516123466000860182611e98565b5060208301516123596020860182611e98565b50604083015161236c60408601826123dd565b50606083015184820360608601526123848282611f94565b915050608083015161239960808601826123dd565b5060a08301516123ac60a0860182611f2b565b5060c08301516123bf60c0860182611f76565b5060e08301516123d260e0860182611f58565b508091505092915050565b6123e6816128c0565b82525050565b6123f5816128c0565b82525050565b60006124078284612006565b915081905092915050565b600061241e8284612037565b915081905092915050565b600060208201905061243e6000830184611ea7565b92915050565b60006101008201905061245a600083018b611ea7565b612467602083018a611ea7565b61247460408301896123ec565b81810360608301526124868188611fcd565b905061249560808301876123ec565b6124a260a0830186611f3a565b6124af60c0830185611f85565b6124bc60e0830184611f67565b9998505050505050505050565b600060208201905081810360008301526124e38184611eb6565b905092915050565b60006020820190506125006000830184611f49565b92915050565b600060208201905061251b6000830184611f67565b92915050565b6000602082019050818103600083015261253a816120b6565b9050919050565b6000602082019050818103600083015261255a816120d9565b9050919050565b6000602082019050818103600083015261257a816120fc565b9050919050565b6000602082019050818103600083015261259a8161211f565b9050919050565b600060208201905081810360008301526125ba81612142565b9050919050565b600060208201905081810360008301526125da81612165565b9050919050565b600060208201905081810360008301526125fa81612188565b9050919050565b6000602082019050818103600083015261261a816121ab565b9050919050565b6000602082019050818103600083015261263a816121ce565b9050919050565b6000602082019050818103600083015261265a816121f1565b9050919050565b6000602082019050818103600083015261267a81612214565b9050919050565b6000602082019050818103600083015261269a81612237565b9050919050565b600060208201905081810360008301526126ba8161225a565b9050919050565b600060208201905081810360008301526126db818461232d565b905092915050565b60006020820190506126f860008301846123ec565b92915050565b6000612708612719565b90506127148282612974565b919050565b6000604051905090565b600067ffffffffffffffff82111561273e5761273d612aaa565b5b61274782612ad9565b9050602081019050919050565b6000819050602082019050919050565b60008190508160005260206000209050919050565b600081519050919050565b600081519050919050565b6000602082019050919050565b600082825260208201905092915050565b600082825260208201905092915050565b600082825260208201905092915050565b600081905092915050565b60006127e5826128c0565b91506127f0836128c0565b925082612800576127ff612a1d565b5b828204905092915050565b6000612816826128c0565b9150612821836128c0565b9250817fffffffffffffffffffffffffffffffffffffffffffffffffffffffffffffffff048311821515161561285a576128596129ee565b5b828202905092915050565b6000612870826128a0565b9050919050565b60008115159050919050565b600081905061289182612e09565b919050565b6000819050919050565b600073ffffffffffffffffffffffffffffffffffffffff82169050919050565b6000819050919050565b60006128d5826128dc565b9050919050565b60006128e7826128a0565b9050919050565b60006128f982612883565b9050919050565b82818337600083830152505050565b60005b8381101561292d578082015181840152602081019050612912565b8381111561293c576000848401525b50505050565b6000600282049050600182168061295a57607f821691505b6020821081141561296e5761296d612a7b565b5b50919050565b61297d82612ad9565b810181811067ffffffffffffffff8211171561299c5761299b612aaa565b5b80604052505050565b60006129b0826128c0565b91507fffffffffffffffffffffffffffffffffffffffffffffffffffffffffffffffff8214156129e3576129e26129ee565b5b600182019050919050565b7f4e487b7100000000000000000000000000000000000000000000000000000000600052601160045260246000fd5b7f4e487b7100000000000000000000000000000000000000000000000000000000600052601260045260246000fd5b7f4e487b7100000000000000000000000000000000000000000000000000000000600052602160045260246000fd5b7f4e487b7100000000000000000000000000000000000000000000000000000000600052602260045260246000fd5b7f4e487b7100000000000000000000000000000000000000000000000000000000600052604160045260246000fd5b6000601f19601f8301169050919050565b7f496d706f737369626c6520746f20666967687420616761696e737420796f757260008201527f73656c662e000000000000000000000000000000000000000000000000000000602082015250565b7f5468697320626174746c652069736e27742065786973742e0a00000000000000600082015250565b7f546865726520697320616c7265616479206f70706f6e656e742c20746869732060008201527f626174746c652063616e27742062652063616e63656c65642e00000000000000602082015250565b7f5468697320626174746c65206469646e27742073746172742e00000000000000600082015250565b7f596f75206861766520746f20626574206f6e20706f7369746976652076616c7560008201527f6521000000000000000000000000000000000000000000000000000000000000602082015250565b7f5468697320626174746c652069736e27742065786973742e0000000000000000600082015250565b7f596f7520617265206e6f742070617274206f66207468697320626174746c652e600082015250565b7f576974686472617720616c72656164792e000000000000000000000000000000600082015250565b7f5468697320626174746c6520697320636c6f7365642c206f70706f6e656e742060008201527f616c72656164792065786973742e000000000000000000000000000000000000602082015250565b7f426174746c65206e756d6265722069736e27742065786973742e0a0000000000600082015250565b7f546f6f206561726c7920746f20636865636b2077686f2069732074686520776960008201527f6e6e65722e000000000000000000000000000000000000000000000000000000602082015250565b7f4f6e6c79207468652063726561746f72206d61792063616e63656c206869732060008201527f6f776e20626174746c652e000000000000000000000000000000000000000000602082015250565b7f42657474696e672076616c75652069736e27742061732073706563696669656460008201527f20666f72207468697320626174746c652e000000000000000000000000000000602082015250565b60048110612e1a57612e19612a4c565b5b50565b612e2681612877565b8114612e3157600080fd5b50565b612e3d81612896565b8114612e4857600080fd5b50565b612e54816128c0565b8114612e5f57600080fd5b5056fea264697066735822122029fdd4539694bfdd262c5e55c9eed4fb20aad73c2a9bf34f02be2f2fa2ba817c64736f6c63430008030033608060405234801561001057600080fd5b506102fc806100206000396000f3fe608060405234801561001057600080fd5b506004361061002b5760003560e01c806344a11f6514610030575b600080fd5b61004a60048036038101906100459190610144565b610060565b60405161005791906101f3565b60405180910390f35b6000808273ffffffffffffffffffffffffffffffffffffffff1663feaf968c6040518163ffffffff1660e01b815260040160a06040518083038186803b1580156100a957600080fd5b505afa1580156100bd573d6000803e3d6000fd5b505050506040513d601f19601f820116820180604052508101906100e1919061016d565b50505091505080915050919050565b6000813590506100ff8161026a565b92915050565b60008151905061011481610281565b92915050565b60008151905061012981610298565b92915050565b60008151905061013e816102af565b92915050565b60006020828403121561015657600080fd5b6000610164848285016100f0565b91505092915050565b600080600080600060a0868803121561018557600080fd5b60006101938882890161012f565b95505060206101a488828901610105565b94505060406101b58882890161011a565b93505060606101c68882890161011a565b92505060806101d78882890161012f565b9150509295509295909350565b6101ed81610220565b82525050565b600060208201905061020860008301846101e4565b92915050565b60006102198261022a565b9050919050565b6000819050919050565b600073ffffffffffffffffffffffffffffffffffffffff82169050919050565b6000819050919050565b600069ffffffffffffffffffff82169050919050565b6102738161020e565b811461027e57600080fd5b50565b61028a81610220565b811461029557600080fd5b50565b6102a18161024a565b81146102ac57600080fd5b50565b6102b881610254565b81146102c357600080fd5b5056fea264697066735822122067f529d65b74f0da7ea76c2dc1c15817e84e269b54410f629a0a377abd43a16d64736f6c63430008030033",
  "immutableReferences": {},
  "source": "// SPDX-License-Identifier: MIT\r\npragma solidity ^0.8.3;\r\nimport \"./PriceFeed.sol\";\r\n\r\ncontract BinaryOption{\r\n\r\n    uint256 public battleId; // unique id for each battle\r\n    mapping(uint256 => Battle) public battleInfo; // map of the existing battles\r\n    mapping(string=>address) public feedAddress; // map of addresses for the price feeds\r\n    PriceFeed public priceFeed;\r\n\r\n    event AddEvent(\r\n    uint256 indexed id,\r\n    address address_field\r\n    );\r\n\r\n    enum Status {\r\n            Opponent,\r\n            Creator,\r\n            Draw,\r\n            NotOver\r\n        }\r\n\r\n    struct Battle {\r\n        address creator;\r\n        address opponent;\r\n        uint256 amountBet;\r\n        string betType;\r\n        uint betDate;\r\n        bool isUp;\r\n        int currVal;\r\n        Status whoWin; // 0 for opponent, 1 for creator, 2 for draw, 3 if not over\r\n    }\r\n\r\n\r\n    constructor()  {\r\n        priceFeed = new PriceFeed();\r\n        bool isKovan = false; // true if kovan, otherwise rinkeby\r\n\r\n        if (isKovan){\r\n        feedAddress[\"EthVsUsd\"] = 0x9326BFA02ADD2366b30bacB125260Af641031331;\r\n        }\r\n        else {\r\n        // those addresses (of rinkbey test network) can be found at: https://docs.chain.link/docs/ethereum-addresses/\r\n        feedAddress[\"eth_vs_usd\"] = 0x8A753747A1Fa494EC906cE90E9f37563A8AF630e;\r\n        feedAddress[\"btc_vs_usd\"] = 0xECe365B379E1dD183B20fc5f022230C044d51404;\r\n        feedAddress[\"eur_vs_usd\"] = 0x78F9e60608bF48a1155b4B2A5e31F32318a1d85F;\r\n        feedAddress[\"usdc_vs_eth\"] = 0xdCA36F27cbC4E38aE16C4E9f99D39b42337F6dcf;\r\n        feedAddress[\"dai_vs_usd\"] = 0x2bA49Aaa16E6afD2a993473cfB70Fa8559B523cF;\r\n        feedAddress[\"dai_vs_eth\"] = 0x74825DbC8BF76CC4e9494d0ecB210f676Efa001D;\r\n        feedAddress[\"sdefi_vs_usd\"] = 0x0630521aC362bc7A19a4eE44b57cE72Ea34AD01c;\r\n        feedAddress[\"snx_vs_usd\"] = 0xE96C4407597CD507002dF88ff6E0008AB41266Ee;\r\n        }\r\n\r\n    }\r\n\r\n    function getNotOver() public view returns (Status){\r\n                return Status.NotOver;\r\n            }\r\n\r\n\r\n    // a creator create a new battle\r\n    function addBattle(string memory betType,uint betDate,bool direction) public payable {\r\n        require(msg.value > 0, \"You have to bet on positive value!\");\r\n        battleInfo[battleId] = Battle(msg.sender,msg.sender,msg.value,betType,betDate,direction,\r\n        priceFeed.getThePrice(feedAddress[betType]), Status.NotOver);\r\n        emit AddEvent(battleId, msg.sender);\r\n        battleId++;\r\n    }\r\n\r\n\r\n    function getBattleInfo(uint256 battle_id) public returns(Battle memory) {\r\n        Battle storage bate = battleInfo[battle_id];\r\n        require(bate.amountBet > 0, \"This battle isn't exist.\\n\");\r\n        return battleInfo[battle_id];\r\n    }\r\n\r\n    function getAll() public view returns (Battle[] memory){\r\n            Battle[] memory ret = new Battle[](battleId);\r\n            for (uint i = 0; i < battleId; i++) {\r\n                ret[i] = battleInfo[i];\r\n            }\r\n            return ret;\r\n        }\r\n\r\n    // an opponent is signed to battle number: battle_id\r\n    function acceptBattle(uint256 battle_id) public payable{\r\n\r\n        Battle storage bate = battleInfo[battle_id];\r\n        require(bate.amountBet > 0, \"Battle number isn't exist.\\n\");\r\n        require(bate.creator != msg.sender, \"Impossible to fight against yourself.\");\r\n        require(bate.creator == bate.opponent, \"This battle is closed, opponent already exist.\");\r\n        require(msg.value == bate.amountBet, \"Betting value isn't as specified for this battle.\");\r\n        bate.opponent = msg.sender;\r\n    }\r\n\r\n    // a creator cancels his battle\r\n    function cancelBattle(uint256 battle_id) public {\r\n        Battle memory bate = battleInfo[battle_id];\r\n        require(bate.amountBet > 0, \"This battle isn't exist.\");\r\n        require(bate.creator == msg.sender, \"Only the creator may cancel his own battle.\");\r\n\r\n        require(bate.creator == bate.opponent, \"There is already opponent, this battle can't be canceled.\");\r\n        payable(bate.creator).transfer(bate.amountBet); // return the amount which was invested\r\n        delete battleInfo[battle_id]; // battle is canceled\r\n    }\r\n\r\n    // the winner may draw his money\r\n    function withdraw(uint256 battle_id) public {\r\n        Status winner; // 0 = lose 1 = win 2 = draw\r\n        int oldPrice;\r\n        int newPrice;\r\n        Battle storage bate=battleInfo[battle_id];\r\n        uint betDateSecond = bate.betDate / 1000; // divide by 1000 to convert milliseconds to seconds\r\n        require(battleInfo[battle_id].creator != battleInfo[battle_id].opponent, \"This battle didn't start.\"); // in case the creator try to withdraw before having opponent. He may cancel battle if he wants.\r\n        require((bate.creator == msg.sender || bate.opponent == msg.sender), \"You are not part of this battle.\");\r\n        require(block.timestamp >= betDateSecond, \"Too early to check who is the winner.\");\r\n        require(bate.whoWin == Status.NotOver, \"Withdraw already.\");\r\n        oldPrice = bate.currVal;\r\n        newPrice = priceFeed.getThePrice(feedAddress[bate.betType]);\r\n        // deliver the money to the winner\r\n        if(oldPrice < newPrice){\r\n\r\n            if (bate.isUp){\r\n                winner = Status.Creator;\r\n                payable(bate.creator).transfer(2 * bate.amountBet); // multiply by 2 since we deliver the money of both the creator and his opponent\r\n            }\r\n            else{\r\n                winner = Status.Opponent;\r\n                payable(bate.opponent).transfer(2*bate.amountBet);\r\n            }\r\n\r\n        }\r\n        else if (oldPrice > newPrice){\r\n\r\n            if (bate.isUp){\r\n                winner = Status.Opponent;\r\n                payable(bate.opponent).transfer(2 * bate.amountBet);\r\n            }\r\n            else {\r\n                winner = Status.Creator;\r\n                payable(bate.creator).transfer(2*bate.amountBet);\r\n            }\r\n        }\r\n\r\n        else {\r\n            winner = Status.Draw;\r\n            payable(bate.opponent).transfer(bate.amountBet);\r\n            payable(bate.creator).transfer(bate.amountBet);\r\n        }\r\n        bate.whoWin = winner;\r\n    }\r\n\r\n}",
  "sourcePath": "C:/Users/Admin/IdeaProjects/tau_Smart_contract/src/solidity/contracts/BinaryOption.sol",
  "compiler": {
    "name": "solc",
    "version": "0.8.3+commit.8d00100c.Emscripten.clang"
  },
  "schemaVersion": "3.3.4",
  "updatedAt": "2021-08-22T11:25:54.068Z",
  "networkType": "ethereum",
  "devdoc": {
    "kind": "dev",
    "methods": {},
    "version": 1
  },
  "userdoc": {
    "kind": "user",
    "methods": {},
    "version": 1
  }
}