{
  "contractName": "BinaryOption",
  "abi": [
    {
      "inputs": [],
      "stateMutability": "nonpayable",
      "type": "constructor"
    },
    {
      "anonymous": false,
      "inputs": [
        {
          "indexed": true,
          "internalType": "uint256",
          "name": "id",
          "type": "uint256"
        },
        {
          "indexed": true,
          "internalType": "uint256",
          "name": "amount",
          "type": "uint256"
        }
      ],
      "name": "MyEvent",
      "type": "event"
    },
    {
      "inputs": [],
      "name": "age",
      "outputs": [
        {
          "internalType": "contract Aggre",
          "name": "",
          "type": "address"
        }
      ],
      "stateMutability": "view",
      "type": "function"
    },
    {
      "inputs": [],
      "name": "battleId",
      "outputs": [
        {
          "internalType": "uint256",
          "name": "",
          "type": "uint256"
        }
      ],
      "stateMutability": "view",
      "type": "function"
    },
    {
      "inputs": [
        {
          "internalType": "uint256",
          "name": "",
          "type": "uint256"
        }
      ],
      "name": "battleInfo",
      "outputs": [
        {
          "internalType": "address",
          "name": "creator",
          "type": "address"
        },
        {
          "internalType": "address",
          "name": "opponent",
          "type": "address"
        },
        {
          "internalType": "uint256",
          "name": "amountBet",
          "type": "uint256"
        },
        {
          "internalType": "string",
          "name": "betType",
          "type": "string"
        },
        {
          "internalType": "uint256",
          "name": "betDate",
          "type": "uint256"
        },
        {
          "internalType": "bool",
          "name": "isUp",
          "type": "bool"
        },
        {
          "internalType": "int256",
          "name": "currVal",
          "type": "int256"
        }
      ],
      "stateMutability": "view",
      "type": "function"
    },
    {
      "inputs": [
        {
          "internalType": "string",
          "name": "",
          "type": "string"
        }
      ],
      "name": "feedAddress",
      "outputs": [
        {
          "internalType": "address",
          "name": "",
          "type": "address"
        }
      ],
      "stateMutability": "view",
      "type": "function"
    },
    {
      "inputs": [],
      "name": "owner",
      "outputs": [
        {
          "internalType": "address",
          "name": "",
          "type": "address"
        }
      ],
      "stateMutability": "view",
      "type": "function"
    },
    {
      "inputs": [],
      "name": "tempVal",
      "outputs": [
        {
          "internalType": "uint256",
          "name": "",
          "type": "uint256"
        }
      ],
      "stateMutability": "view",
      "type": "function"
    },
    {
      "inputs": [
        {
          "internalType": "string",
          "name": "betType",
          "type": "string"
        },
        {
          "internalType": "uint256",
          "name": "betDate",
          "type": "uint256"
        },
        {
          "internalType": "bool",
          "name": "direction",
          "type": "bool"
        }
      ],
      "name": "addBattle",
      "outputs": [],
      "stateMutability": "payable",
      "type": "function"
    }
  ],
  "bytecode": "0x60806040523480156200001157600080fd5b50604051620000209062000218565b604051809103906000f0801580156200003d573d6000803e3d6000fd5b50600660006101000a81548173ffffffffffffffffffffffffffffffffffffffff021916908373ffffffffffffffffffffffffffffffffffffffff16021790555033600260006101000a81548173ffffffffffffffffffffffffffffffffffffffff021916908373ffffffffffffffffffffffffffffffffffffffff160217905550739326bfa02add2366b30bacb125260af6410313316005604051620000e490620002c9565b908152602001604051809103902060006101000a81548173ffffffffffffffffffffffffffffffffffffffff021916908373ffffffffffffffffffffffffffffffffffffffff160217905550736135b13325bfc4b00278b4abc5e20bbce2d6580e60056040516200015590620002b2565b908152602001604051809103902060006101000a81548173ffffffffffffffffffffffffffffffffffffffff021916908373ffffffffffffffffffffffffffffffffffffffff160217905550730c15ab9a0db086e062194c273cc79f41597bbf136005604051620001c6906200029b565b908152602001604051809103902060006101000a81548173ffffffffffffffffffffffffffffffffffffffff021916908373ffffffffffffffffffffffffffffffffffffffff16021790555062000366565b61032a806200115783390190565b600062000235600883620002e0565b91506200024282620002eb565b600882019050919050565b60006200025c600883620002e0565b9150620002698262000314565b600882019050919050565b600062000283600883620002e0565b915062000290826200033d565b600882019050919050565b6000620002a88262000226565b9150819050919050565b6000620002bf826200024d565b9150819050919050565b6000620002d68262000274565b9150819050919050565b600081905092915050565b7f4575725673557364000000000000000000000000000000000000000000000000600082015250565b7f4274635673557364000000000000000000000000000000000000000000000000600082015250565b7f4574685673557364000000000000000000000000000000000000000000000000600082015250565b610de180620003766000396000f3fe6080604052600436106100705760003560e01c8063a9e23bea1161004e578063a9e23bea146100f6578063bfc8b8c614610121578063db71dcdc1461013d578063e4bb7a1e1461018057610070565b806301a1b77814610075578063262a9dff146100a05780638da5cb5b146100cb575b600080fd5b34801561008157600080fd5b5061008a6101bd565b6040516100979190610a27565b60405180910390f35b3480156100ac57600080fd5b506100b56101c3565b6040516100c291906109ec565b60405180910390f35b3480156100d757600080fd5b506100e06101e9565b6040516100ed919061095b565b60405180910390f35b34801561010257600080fd5b5061010b61020f565b6040516101189190610a27565b60405180910390f35b61013b600480360381019061013691906107dc565b610215565b005b34801561014957600080fd5b50610164600480360381019061015f9190610843565b6104c8565b6040516101779796959493929190610976565b60405180910390f35b34801561018c57600080fd5b506101a760048036038101906101a2919061079b565b6105df565b6040516101b4919061095b565b60405180910390f35b60005481565b600660009054906101000a900473ffffffffffffffffffffffffffffffffffffffff1681565b600260009054906101000a900473ffffffffffffffffffffffffffffffffffffffff1681565b60035481565b60003411610258576040517f08c379a000000000000000000000000000000000000000000000000000000000815260040161024f90610a07565b60405180910390fd5b6040518060e001604052803373ffffffffffffffffffffffffffffffffffffffff1681526020013373ffffffffffffffffffffffffffffffffffffffff16815260200134815260200184815260200183426102b39190610abf565b81526020018215158152602001600660009054906101000a900473ffffffffffffffffffffffffffffffffffffffff1673ffffffffffffffffffffffffffffffffffffffff166344a11f6560058760405161030e9190610944565b908152602001604051809103902060009054906101000a900473ffffffffffffffffffffffffffffffffffffffff166040518263ffffffff1660e01b8152600401610359919061095b565b60206040518083038186803b15801561037157600080fd5b505afa158015610385573d6000803e3d6000fd5b505050506040513d601f19601f820116820180604052508101906103a99190610772565b815250600160008054815260200190815260200160002060008201518160000160006101000a81548173ffffffffffffffffffffffffffffffffffffffff021916908373ffffffffffffffffffffffffffffffffffffffff16021790555060208201518160010160006101000a81548173ffffffffffffffffffffffffffffffffffffffff021916908373ffffffffffffffffffffffffffffffffffffffff160217905550604082015181600201556060820151816003019080519060200190610474929190610628565b506080820151816004015560a08201518160050160006101000a81548160ff02191690831515021790555060c082015181600601559050506000808154809291906104be90610c30565b9190505550505050565b60016020528060005260406000206000915090508060000160009054906101000a900473ffffffffffffffffffffffffffffffffffffffff16908060010160009054906101000a900473ffffffffffffffffffffffffffffffffffffffff169080600201549080600301805461053d90610bcd565b80601f016020809104026020016040519081016040528092919081815260200182805461056990610bcd565b80156105b65780601f1061058b576101008083540402835291602001916105b6565b820191906000526020600020905b81548152906001019060200180831161059957829003601f168201915b5050505050908060040154908060050160009054906101000a900460ff16908060060154905087565b6005818051602081018201805184825260208301602085012081835280955050505050506000915054906101000a900473ffffffffffffffffffffffffffffffffffffffff1681565b82805461063490610bcd565b90600052602060002090601f016020900481019282610656576000855561069d565b82601f1061066f57805160ff191683800117855561069d565b8280016001018555821561069d579182015b8281111561069c578251825591602001919060010190610681565b5b5090506106aa91906106ae565b5090565b5b808211156106c75760008160009055506001016106af565b5090565b60006106de6106d984610a67565b610a42565b9050828152602081018484840111156106f657600080fd5b610701848285610b8b565b509392505050565b60008135905061071881610d66565b92915050565b60008151905061072d81610d7d565b92915050565b600082601f83011261074457600080fd5b81356107548482602086016106cb565b91505092915050565b60008135905061076c81610d94565b92915050565b60006020828403121561078457600080fd5b60006107928482850161071e565b91505092915050565b6000602082840312156107ad57600080fd5b600082013567ffffffffffffffff8111156107c757600080fd5b6107d384828501610733565b91505092915050565b6000806000606084860312156107f157600080fd5b600084013567ffffffffffffffff81111561080b57600080fd5b61081786828701610733565b93505060206108288682870161075d565b925050604061083986828701610709565b9150509250925092565b60006020828403121561085557600080fd5b60006108638482850161075d565b91505092915050565b61087581610b15565b82525050565b61088481610b27565b82525050565b61089381610b67565b82525050565b6108a281610b33565b82525050565b60006108b382610a98565b6108bd8185610aa3565b93506108cd818560208601610b9a565b6108d681610d06565b840191505092915050565b60006108ec82610a98565b6108f68185610ab4565b9350610906818560208601610b9a565b80840191505092915050565b600061091f602383610aa3565b915061092a82610d17565b604082019050919050565b61093e81610b5d565b82525050565b600061095082846108e1565b915081905092915050565b6000602082019050610970600083018461086c565b92915050565b600060e08201905061098b600083018a61086c565b610998602083018961086c565b6109a56040830188610935565b81810360608301526109b781876108a8565b90506109c66080830186610935565b6109d360a083018561087b565b6109e060c0830184610899565b98975050505050505050565b6000602082019050610a01600083018461088a565b92915050565b60006020820190508181036000830152610a2081610912565b9050919050565b6000602082019050610a3c6000830184610935565b92915050565b6000610a4c610a5d565b9050610a588282610bff565b919050565b6000604051905090565b600067ffffffffffffffff821115610a8257610a81610cd7565b5b610a8b82610d06565b9050602081019050919050565b600081519050919050565b600082825260208201905092915050565b600081905092915050565b6000610aca82610b5d565b9150610ad583610b5d565b9250827fffffffffffffffffffffffffffffffffffffffffffffffffffffffffffffffff03821115610b0a57610b09610c79565b5b828201905092915050565b6000610b2082610b3d565b9050919050565b60008115159050919050565b6000819050919050565b600073ffffffffffffffffffffffffffffffffffffffff82169050919050565b6000819050919050565b6000610b7282610b79565b9050919050565b6000610b8482610b3d565b9050919050565b82818337600083830152505050565b60005b83811015610bb8578082015181840152602081019050610b9d565b83811115610bc7576000848401525b50505050565b60006002820490506001821680610be557607f821691505b60208210811415610bf957610bf8610ca8565b5b50919050565b610c0882610d06565b810181811067ffffffffffffffff82111715610c2757610c26610cd7565b5b80604052505050565b6000610c3b82610b5d565b91507fffffffffffffffffffffffffffffffffffffffffffffffffffffffffffffffff821415610c6e57610c6d610c79565b5b600182019050919050565b7f4e487b7100000000000000000000000000000000000000000000000000000000600052601160045260246000fd5b7f4e487b7100000000000000000000000000000000000000000000000000000000600052602260045260246000fd5b7f4e487b7100000000000000000000000000000000000000000000000000000000600052604160045260246000fd5b6000601f19601f8301169050919050565b7f596f75206861766520746f20626574206f6e20706f7369746976652076616c7560008201527f65210a0000000000000000000000000000000000000000000000000000000000602082015250565b610d6f81610b27565b8114610d7a57600080fd5b50565b610d8681610b33565b8114610d9157600080fd5b50565b610d9d81610b5d565b8114610da857600080fd5b5056fea2646970667358221220b7797390c9a532af2dd1cb84a454f2ccb1e77a9fd19107e81791bb614cf72c0f64736f6c63430008030033608060405234801561001057600080fd5b5061030a806100206000396000f3fe608060405234801561001057600080fd5b506004361061002b5760003560e01c806344a11f6514610030575b600080fd5b61004a60048036038101906100459190610152565b610060565b6040516100579190610201565b60405180910390f35b6000806000806000808673ffffffffffffffffffffffffffffffffffffffff1663feaf968c6040518163ffffffff1660e01b815260040160a06040518083038186803b1580156100af57600080fd5b505afa1580156100c3573d6000803e3d6000fd5b505050506040513d601f19601f820116820180604052508101906100e7919061017b565b945094509450945094508395505050505050919050565b60008135905061010d81610278565b92915050565b6000815190506101228161028f565b92915050565b600081519050610137816102a6565b92915050565b60008151905061014c816102bd565b92915050565b60006020828403121561016457600080fd5b6000610172848285016100fe565b91505092915050565b600080600080600060a0868803121561019357600080fd5b60006101a18882890161013d565b95505060206101b288828901610113565b94505060406101c388828901610128565b93505060606101d488828901610128565b92505060806101e58882890161013d565b9150509295509295909350565b6101fb8161022e565b82525050565b600060208201905061021660008301846101f2565b92915050565b600061022782610238565b9050919050565b6000819050919050565b600073ffffffffffffffffffffffffffffffffffffffff82169050919050565b6000819050919050565b600069ffffffffffffffffffff82169050919050565b6102818161021c565b811461028c57600080fd5b50565b6102988161022e565b81146102a357600080fd5b50565b6102af81610258565b81146102ba57600080fd5b50565b6102c681610262565b81146102d157600080fd5b5056fea2646970667358221220fe7a329abf102b920acaf471f7dde054e079def23102a09c5127ccaf2e984a8c64736f6c63430008030033",
  "immutableReferences": {},
  "source": "// SPDX-License-Identifier: MIT\r\npragma solidity ^0.8.3;\r\nimport \"./Aggre.sol\";\r\n\r\ncontract BinaryOption{\r\n\r\n\r\n    uint256  public battleId; // unique id for each battle\r\n    mapping(uint256 => Battle) public battleInfo; // map of the existing battles\r\n    address public owner; // the creator of the contract (we)\r\n    uint  public tempVal;\r\n    int feed;\r\n    mapping(string=>address) public feedAddress;\r\n    Aggre public age;\r\n\r\n    event MyEvent(\r\n    uint256 indexed id,\r\n    uint256 indexed amount\r\n    );\r\n\r\n    struct Battle {\r\n        address creator;\r\n        address opponent;\r\n        uint256 amountBet;\r\n        string betType;\r\n        uint betDate;\r\n        bool isUp;\r\n        int currVal;\r\n    }\r\n\r\n    constructor() public {\r\n        age=new Aggre();\r\n        owner = msg.sender;\r\n\r\n        // those addresses (of Kovan test network) can be found at: https://docs.chain.link/docs/ethereum-addresses/\r\n        feedAddress[\"EthVsUsd\"]=0x9326BFA02ADD2366b30bacB125260Af641031331;\r\n        feedAddress[\"BtcVsUsd\"]=0x6135b13325bfC4B00278B4abC5e20bbce2D6580e;\r\n        feedAddress[\"EurVsUsd\"]=0x0c15Ab9A0DB086e062194c273CC79f41597Bbf13;\r\n    }\r\n\r\n    // a creator create a new battle\r\n    function addBattle(string memory betType,uint betDate,bool direction) public payable {\r\n        require(msg.value>0, \"You have to bet on positive value!\\n\");\r\n        battleInfo[battleId]=Battle(msg.sender,msg.sender,msg.value,betType,block.timestamp+betDate,direction,age.getThePrice(feedAddress[betType]));\r\n        battleId++;\r\n    }\r\n\r\n    /*function setIndex() public payable {\r\n        tempVal= msg.value;\r\n    }\r\n\r\n    function getIndex(uint256 battle_id) public view returns (uint){\r\n        return battleInfo[battle_id].betDate;\r\n    }\r\n\r\n    function setPrice() public {\r\n        feed= age.getThePrice(0x9326BFA02ADD2366b30bacB125260Af641031331);\r\n    }\r\n    function getPrice() public view returns (int){\r\n        return feed;\r\n    }\r\n\r\n\r\n    function getId() public view returns (uint256){\r\n        return battleId;\r\n    }*/\r\n\r\n    /*function getEvent() public {\r\n        emit MyEvent(battleId,battleId);\r\n    }*/\r\n\r\n    /*function settempVal(uint num) public {\r\n        tempVal=num;\r\n    }*/\r\n\r\n    // we call it before the withdraw method, in the index_1.js (the reason for this is there)\r\n    /*function gettempVal() public view returns (uint) {\r\n        return tempVal;\r\n    }*/\r\n\r\n\r\n    // an opponent is signed to battle number: battleid\r\n    /*function acceptBattle(uint256 battle_id) public payable{\r\n        Battle storage bate=battleInfo[battle_id];\r\n        require(bate.amountBet>0, \"Battle number isn't exist.\\n\");\r\n        require(bate.creator!=msg.sender, \"Impossible to fight against yourself.\\n\");\r\n        require(bate.creator==bate.opponent, \"This battle is closed, opponent already exist.\\n\");\r\n        require(msg.value==bate.amountBet, \"Betting value isn't as specified for this battle.\\n\");\r\n        bate.opponent=msg.sender;\r\n        tempVal=9;\r\n\r\n    }*/\r\n\r\n    // a creator cancel his battle\r\n    /*function cancelBattle(uint256 battle_id) public payable{\r\n        Battle memory bate=battleInfo[battle_id];\r\n        require(bate.creator==msg.sender, \"Only the creator may cancel his own battle.\\n\");\r\n        require(bate.amountBet>0, \"Battle number isn't exist.\\n\"); // needed?\r\n\r\n        require(bate.creator==bate.opponent, \"There is already opponent, this battle can't be canceled.\\n\");\r\n        //temp=address(battleInfo[battle_id].creator);\r\n        //temp.transfer(2*battleInfo[battle_id].amountBet);\r\n        payable(bate.creator).transfer(bate.amountBet); // return the amount invested\r\n        delete battleInfo[battle_id]; // battle is canceled\r\n    }*/\r\n\r\n\r\n    /*function getcurrVal(uint256 battle_id) public view returns (uint256){\r\n        require(msg.sender==battleInfo[battle_id].creator||msg.sender==battleInfo[battle_id].opponent, \"You are not part of this battle.\\n\");\r\n        return battleInfo[battle_id].amountBet;\r\n    }*/\r\n\r\n    // the winner may draw his money\r\n    /*function withdraw(uint256 battle_id) public {\r\n        tempVal=7;\r\n        int oldPrice;\r\n        int newPrice;\r\n        Battle memory bate=battleInfo[battle_id];\r\n        //require((bate.creator==msg.sender||bate.opponent==msg.sender), \"You are not part of this battle.\\n\"); // can be deleted if comes with getcurrval\r\n        require(bate.amountBet>0, \"Battle number isn't exist.\\n\"); // needed?\r\n        require(block.timestamp>=bate.betDate, \"Too early to check who is the winner.\\n\");\r\n        oldPrice=bate.currVal;\r\n        newPrice=age.getThePrice(feedAddress[bate.betType]);\r\n        // deliver the money to the winner\r\n        if(oldPrice<newPrice){\r\n            tempVal=5;\r\n            if(bate.isUp){\r\n                //temp=address(battleInfo[battle_id].creator);\r\n                //temp.transfer(2*battleInfo[battle_id].amountBet);\r\n                payable(bate.creator).transfer(2*bate.amountBet); // multiply by 2 since we deliever the money of both the creator and his opponent\r\n            }\r\n            else{\r\n                //temp=address(battleInfo[battle_id].opponent);\r\n                //temp.transfer(2*battleInfo[battle_id].amountBet);\r\n                payable(bate.opponent).transfer(2*bate.amountBet);\r\n            }\r\n\r\n        }\r\n        else if(oldPrice>newPrice){\r\n            tempVal=4;\r\n            if(bate.isUp){\r\n                //temp=address(battleInfo[battle_id].opponent);\r\n                //temp.transfer(2*battleInfo[battle_id].amountBet);\r\n                payable(bate.opponent).transfer(2*bate.amountBet);\r\n            }\r\n            else{\r\n                //temp=address(battleInfo[battle_id].creator);\r\n                //temp.transfer(2*battleInfo[battle_id].amountBet);\r\n                payable(bate.creator).transfer(2*bate.amountBet);\r\n            }\r\n        }\r\n        // if nothing has changed, the creator lose his money\r\n        else {\r\n            tempVal=3;\r\n            //temp=address(battleInfo[battle_id].opponent);\r\n            //temp.transfer(2*battleInfo[battle_id].amountBet);\r\n            payable(bate.opponent).transfer(2*bate.amountBet);\r\n        }\r\n        // sign the event\r\n        emit MyEvent(battle_id,bate.amountBet);\r\n        delete battleInfo[battle_id]; // battle is finished\r\n    }*/\r\n\r\n    //just for testing\r\n    /*function removeBattle(uint256 battle_id) public {\r\n        require(battleInfo[battle_id].amountBet>0, \"Battle number isn't exist.\\n\");\r\n        delete battleInfo[battle_id]; // battle is canceled\r\n    }*/\r\n\r\n\r\n\r\n}",
  "sourcePath": "C:/Users/Admin/IdeaProjects/A/src/solidity/contracts/BinaryOption.sol",
  "compiler": {
    "name": "solc",
    "version": "0.8.3+commit.8d00100c.Emscripten.clang"
  },
  "schemaVersion": "3.3.4",
  "updatedAt": "2021-05-22T13:50:30.646Z",
  "devdoc": {
    "kind": "dev",
    "methods": {},
    "version": 1
  },
  "userdoc": {
    "kind": "user",
    "methods": {},
    "version": 1
  }
}