{
  "contractName": "BinaryOption",
  "abi": [
    {
      "inputs": [],
      "stateMutability": "nonpayable",
      "type": "constructor"
    },
    {
      "anonymous": false,
      "inputs": [
        {
          "indexed": true,
          "internalType": "uint256",
          "name": "id",
          "type": "uint256"
        },
        {
          "indexed": true,
          "internalType": "uint256",
          "name": "amount",
          "type": "uint256"
        },
        {
          "indexed": false,
          "internalType": "int256",
          "name": "win",
          "type": "int256"
        }
      ],
      "name": "MyEvent",
      "type": "event"
    },
    {
      "inputs": [],
      "name": "age",
      "outputs": [
        {
          "internalType": "contract Aggre",
          "name": "",
          "type": "address"
        }
      ],
      "stateMutability": "view",
      "type": "function",
      "constant": true
    },
    {
      "inputs": [],
      "name": "battleId",
      "outputs": [
        {
          "internalType": "uint256",
          "name": "",
          "type": "uint256"
        }
      ],
      "stateMutability": "view",
      "type": "function",
      "constant": true
    },
    {
      "inputs": [
        {
          "internalType": "uint256",
          "name": "",
          "type": "uint256"
        }
      ],
      "name": "battleInfo",
      "outputs": [
        {
          "internalType": "address",
          "name": "creator",
          "type": "address"
        },
        {
          "internalType": "address",
          "name": "opponent",
          "type": "address"
        },
        {
          "internalType": "uint256",
          "name": "amountBet",
          "type": "uint256"
        },
        {
          "internalType": "string",
          "name": "betType",
          "type": "string"
        },
        {
          "internalType": "uint256",
          "name": "betDate",
          "type": "uint256"
        },
        {
          "internalType": "bool",
          "name": "isUp",
          "type": "bool"
        },
        {
          "internalType": "int256",
          "name": "currVal",
          "type": "int256"
        }
      ],
      "stateMutability": "view",
      "type": "function",
      "constant": true
    },
    {
      "inputs": [
        {
          "internalType": "string",
          "name": "",
          "type": "string"
        }
      ],
      "name": "feedAddress",
      "outputs": [
        {
          "internalType": "address",
          "name": "",
          "type": "address"
        }
      ],
      "stateMutability": "view",
      "type": "function",
      "constant": true
    },
    {
      "inputs": [],
      "name": "owner",
      "outputs": [
        {
          "internalType": "address",
          "name": "",
          "type": "address"
        }
      ],
      "stateMutability": "view",
      "type": "function",
      "constant": true
    },
    {
      "inputs": [],
      "name": "tempVal",
      "outputs": [
        {
          "internalType": "uint256",
          "name": "",
          "type": "uint256"
        }
      ],
      "stateMutability": "view",
      "type": "function",
      "constant": true
    },
    {
      "inputs": [
        {
          "internalType": "string",
          "name": "betType",
          "type": "string"
        },
        {
          "internalType": "uint256",
          "name": "betDate",
          "type": "uint256"
        },
        {
          "internalType": "bool",
          "name": "direction",
          "type": "bool"
        }
      ],
      "name": "addBattle",
      "outputs": [],
      "stateMutability": "payable",
      "type": "function",
      "payable": true
    },
    {
      "inputs": [
        {
          "internalType": "uint256",
          "name": "battle_id",
          "type": "uint256"
        }
      ],
      "name": "getAmount",
      "outputs": [
        {
          "internalType": "uint256",
          "name": "",
          "type": "uint256"
        }
      ],
      "stateMutability": "view",
      "type": "function",
      "constant": true
    },
    {
      "inputs": [],
      "name": "getId",
      "outputs": [
        {
          "internalType": "uint256",
          "name": "",
          "type": "uint256"
        }
      ],
      "stateMutability": "view",
      "type": "function",
      "constant": true
    },
    {
      "inputs": [
        {
          "internalType": "uint256",
          "name": "battle_id",
          "type": "uint256"
        }
      ],
      "name": "acceptBattle",
      "outputs": [],
      "stateMutability": "payable",
      "type": "function",
      "payable": true
    },
    {
      "inputs": [
        {
          "internalType": "uint256",
          "name": "battle_id",
          "type": "uint256"
        }
      ],
      "name": "cancelBattle",
      "outputs": [],
      "stateMutability": "payable",
      "type": "function",
      "payable": true
    },
    {
      "inputs": [
        {
          "internalType": "uint256",
          "name": "battle_id",
          "type": "uint256"
        }
      ],
      "name": "withdraw",
      "outputs": [],
      "stateMutability": "nonpayable",
      "type": "function"
    }
  ],
  "bytecode": "0x60806040523480156200001157600080fd5b506040516200002090620000f5565b604051809103906000f0801580156200003d573d6000803e3d6000fd5b50600660006101000a81548173ffffffffffffffffffffffffffffffffffffffff021916908373ffffffffffffffffffffffffffffffffffffffff160217905550738a753747a1fa494ec906ce90e9f37563a8af630e6005604051620000a3906200012a565b908152602001604051809103902060006101000a81548173ffffffffffffffffffffffffffffffffffffffff021916908373ffffffffffffffffffffffffffffffffffffffff16021790555062000175565b61032a80620020ee83390190565b60006200011260088362000141565b91506200011f826200014c565b600882019050919050565b6000620001378262000103565b9150819050919050565b600081905092915050565b7f4574685673557364000000000000000000000000000000000000000000000000600082015250565b611f6980620001856000396000f3fe6080604052600436106100a75760003560e01c80638da5cb5b116100645780638da5cb5b1461018e5780639980ec86146101b9578063a9e23bea146101f6578063bfc8b8c614610221578063db71dcdc1461023d578063e4bb7a1e14610280576100a7565b806301a1b778146100ac578063262a9dff146100d75780632e1a7d4d146101025780634c4c447e1461012b5780635d1ca6311461014757806381ec30f214610172575b600080fd5b3480156100b857600080fd5b506100c16102bd565b6040516100ce919061194f565b60405180910390f35b3480156100e357600080fd5b506100ec6102c3565b6040516100f991906117f9565b60405180910390f35b34801561010e57600080fd5b5061012960048036038101906101249190611538565b6102e9565b005b61014560048036038101906101409190611538565b610919565b005b34801561015357600080fd5b5061015c610cd4565b604051610169919061194f565b60405180910390f35b61018c60048036038101906101879190611538565b610cdd565b005b34801561019a57600080fd5b506101a3610e7e565b6040516101b09190611768565b60405180910390f35b3480156101c557600080fd5b506101e060048036038101906101db9190611538565b610ea4565b6040516101ed919061194f565b60405180910390f35b34801561020257600080fd5b5061020b610ec4565b604051610218919061194f565b60405180910390f35b61023b600480360381019061023691906114d1565b610eca565b005b34801561024957600080fd5b50610264600480360381019061025f9190611538565b61117d565b6040516102779796959493929190611783565b60405180910390f35b34801561028c57600080fd5b506102a760048036038101906102a29190611490565b611294565b6040516102b49190611768565b60405180910390f35b60005481565b600660009054906101000a900473ffffffffffffffffffffffffffffffffffffffff1681565b600080600080600160008681526020019081526020016000206040518060e00160405290816000820160009054906101000a900473ffffffffffffffffffffffffffffffffffffffff1673ffffffffffffffffffffffffffffffffffffffff1673ffffffffffffffffffffffffffffffffffffffff1681526020016001820160009054906101000a900473ffffffffffffffffffffffffffffffffffffffff1673ffffffffffffffffffffffffffffffffffffffff1673ffffffffffffffffffffffffffffffffffffffff168152602001600282015481526020016003820180546103d390611b4f565b80601f01602080910402602001604051908101604052809291908181526020018280546103ff90611b4f565b801561044c5780601f106104215761010080835404028352916020019161044c565b820191906000526020600020905b81548152906001019060200180831161042f57829003601f168201915b50505050508152602001600482015481526020016005820160009054906101000a900460ff1615151515815260200160068201548152505090503373ffffffffffffffffffffffffffffffffffffffff16816000015173ffffffffffffffffffffffffffffffffffffffff1614806104f357503373ffffffffffffffffffffffffffffffffffffffff16816020015173ffffffffffffffffffffffffffffffffffffffff16145b610532576040517f08c379a00000000000000000000000000000000000000000000000000000000081526004016105299061186f565b60405180910390fd5b8060800151421015610579576040517f08c379a0000000000000000000000000000000000000000000000000000000008152600401610570906118ef565b60405180910390fd5b8060c001519250600660009054906101000a900473ffffffffffffffffffffffffffffffffffffffff1673ffffffffffffffffffffffffffffffffffffffff166344a11f65600583606001516040516105d29190611751565b908152602001604051809103902060009054906101000a900473ffffffffffffffffffffffffffffffffffffffff166040518263ffffffff1660e01b815260040161061d9190611768565b60206040518083038186803b15801561063557600080fd5b505afa158015610649573d6000803e3d6000fd5b505050506040513d601f19601f8201168201806040525081019061066d9190611467565b91508183121561074a578060a00151156106e55760019350806000015173ffffffffffffffffffffffffffffffffffffffff166108fc826040015160026106b49190611a3d565b9081150290604051600060405180830381858888f193505050501580156106df573d6000803e3d6000fd5b50610745565b60009350806020015173ffffffffffffffffffffffffffffffffffffffff166108fc826040015160026107189190611a3d565b9081150290604051600060405180830381858888f19350505050158015610743573d6000803e3d6000fd5b505b6108c9565b81831315610825578060a00151156107c05760009350806020015173ffffffffffffffffffffffffffffffffffffffff166108fc8260400151600261078f9190611a3d565b9081150290604051600060405180830381858888f193505050501580156107ba573d6000803e3d6000fd5b50610820565b60019350806000015173ffffffffffffffffffffffffffffffffffffffff166108fc826040015160026107f39190611a3d565b9081150290604051600060405180830381858888f1935050505015801561081e573d6000803e3d6000fd5b505b6108c8565b60029350806020015173ffffffffffffffffffffffffffffffffffffffff166108fc82604001519081150290604051600060405180830381858888f19350505050158015610877573d6000803e3d6000fd5b50806000015173ffffffffffffffffffffffffffffffffffffffff166108fc82604001519081150290604051600060405180830381858888f193505050501580156108c6573d6000803e3d6000fd5b505b5b600281604001516108da9190611a3d565b857f7fffe08228477bce61f9ca2eef1f0b161d994daea4389d58ebde865513661c168660405161090a9190611814565b60405180910390a35050505050565b6000600160008381526020019081526020016000206040518060e00160405290816000820160009054906101000a900473ffffffffffffffffffffffffffffffffffffffff1673ffffffffffffffffffffffffffffffffffffffff1673ffffffffffffffffffffffffffffffffffffffff1681526020016001820160009054906101000a900473ffffffffffffffffffffffffffffffffffffffff1673ffffffffffffffffffffffffffffffffffffffff1673ffffffffffffffffffffffffffffffffffffffff168152602001600282015481526020016003820180546109ff90611b4f565b80601f0160208091040260200160405190810160405280929190818152602001828054610a2b90611b4f565b8015610a785780601f10610a4d57610100808354040283529160200191610a78565b820191906000526020600020905b815481529060010190602001808311610a5b57829003601f168201915b50505050508152602001600482015481526020016005820160009054906101000a900460ff1615151515815260200160068201548152505090506000816040015111610af9576040517f08c379a0000000000000000000000000000000000000000000000000000000008152600401610af0906118af565b60405180910390fd5b3373ffffffffffffffffffffffffffffffffffffffff16816000015173ffffffffffffffffffffffffffffffffffffffff1614610b6b576040517f08c379a0000000000000000000000000000000000000000000000000000000008152600401610b629061190f565b60405180910390fd5b806020015173ffffffffffffffffffffffffffffffffffffffff16816000015173ffffffffffffffffffffffffffffffffffffffff1614610be1576040517f08c379a0000000000000000000000000000000000000000000000000000000008152600401610bd89061182f565b60405180910390fd5b806000015173ffffffffffffffffffffffffffffffffffffffff166108fc82604001519081150290604051600060405180830381858888f19350505050158015610c2f573d6000803e3d6000fd5b5060016000838152602001908152602001600020600080820160006101000a81549073ffffffffffffffffffffffffffffffffffffffff02191690556001820160006101000a81549073ffffffffffffffffffffffffffffffffffffffff02191690556002820160009055600382016000610caa91906112dd565b60048201600090556005820160006101000a81549060ff0219169055600682016000905550505050565b60008054905090565b60006001600083815260200190815260200160002090506000816002015411610d3b576040517f08c379a0000000000000000000000000000000000000000000000000000000008152600401610d32906118cf565b60405180910390fd5b8060010160009054906101000a900473ffffffffffffffffffffffffffffffffffffffff1673ffffffffffffffffffffffffffffffffffffffff168160000160009054906101000a900473ffffffffffffffffffffffffffffffffffffffff1673ffffffffffffffffffffffffffffffffffffffff1614610df1576040517f08c379a0000000000000000000000000000000000000000000000000000000008152600401610de89061188f565b60405180910390fd5b80600201543414610e37576040517f08c379a0000000000000000000000000000000000000000000000000000000008152600401610e2e9061192f565b60405180910390fd5b338160010160006101000a81548173ffffffffffffffffffffffffffffffffffffffff021916908373ffffffffffffffffffffffffffffffffffffffff1602179055505050565b600260009054906101000a900473ffffffffffffffffffffffffffffffffffffffff1681565b600060016000838152602001908152602001600020600201549050919050565b60035481565b60003411610f0d576040517f08c379a0000000000000000000000000000000000000000000000000000000008152600401610f049061184f565b60405180910390fd5b6040518060e001604052803373ffffffffffffffffffffffffffffffffffffffff1681526020013373ffffffffffffffffffffffffffffffffffffffff1681526020013481526020018481526020018342610f6891906119e7565b81526020018215158152602001600660009054906101000a900473ffffffffffffffffffffffffffffffffffffffff1673ffffffffffffffffffffffffffffffffffffffff166344a11f65600587604051610fc39190611751565b908152602001604051809103902060009054906101000a900473ffffffffffffffffffffffffffffffffffffffff166040518263ffffffff1660e01b815260040161100e9190611768565b60206040518083038186803b15801561102657600080fd5b505afa15801561103a573d6000803e3d6000fd5b505050506040513d601f19601f8201168201806040525081019061105e9190611467565b815250600160008054815260200190815260200160002060008201518160000160006101000a81548173ffffffffffffffffffffffffffffffffffffffff021916908373ffffffffffffffffffffffffffffffffffffffff16021790555060208201518160010160006101000a81548173ffffffffffffffffffffffffffffffffffffffff021916908373ffffffffffffffffffffffffffffffffffffffff16021790555060408201518160020155606082015181600301908051906020019061112992919061131d565b506080820151816004015560a08201518160050160006101000a81548160ff02191690831515021790555060c0820151816006015590505060008081548092919061117390611bb2565b9190505550505050565b60016020528060005260406000206000915090508060000160009054906101000a900473ffffffffffffffffffffffffffffffffffffffff16908060010160009054906101000a900473ffffffffffffffffffffffffffffffffffffffff16908060020154908060030180546111f290611b4f565b80601f016020809104026020016040519081016040528092919081815260200182805461121e90611b4f565b801561126b5780601f106112405761010080835404028352916020019161126b565b820191906000526020600020905b81548152906001019060200180831161124e57829003601f168201915b5050505050908060040154908060050160009054906101000a900460ff16908060060154905087565b6005818051602081018201805184825260208301602085012081835280955050505050506000915054906101000a900473ffffffffffffffffffffffffffffffffffffffff1681565b5080546112e990611b4f565b6000825580601f106112fb575061131a565b601f01602090049060005260206000209081019061131991906113a3565b5b50565b82805461132990611b4f565b90600052602060002090601f01602090048101928261134b5760008555611392565b82601f1061136457805160ff1916838001178555611392565b82800160010185558215611392579182015b82811115611391578251825591602001919060010190611376565b5b50905061139f91906113a3565b5090565b5b808211156113bc5760008160009055506001016113a4565b5090565b60006113d36113ce8461198f565b61196a565b9050828152602081018484840111156113eb57600080fd5b6113f6848285611b0d565b509392505050565b60008135905061140d81611eee565b92915050565b60008151905061142281611f05565b92915050565b600082601f83011261143957600080fd5b81356114498482602086016113c0565b91505092915050565b60008135905061146181611f1c565b92915050565b60006020828403121561147957600080fd5b600061148784828501611413565b91505092915050565b6000602082840312156114a257600080fd5b600082013567ffffffffffffffff8111156114bc57600080fd5b6114c884828501611428565b91505092915050565b6000806000606084860312156114e657600080fd5b600084013567ffffffffffffffff81111561150057600080fd5b61150c86828701611428565b935050602061151d86828701611452565b925050604061152e868287016113fe565b9150509250925092565b60006020828403121561154a57600080fd5b600061155884828501611452565b91505092915050565b61156a81611a97565b82525050565b61157981611aa9565b82525050565b61158881611ae9565b82525050565b61159781611ab5565b82525050565b60006115a8826119c0565b6115b281856119cb565b93506115c2818560208601611b1c565b6115cb81611c88565b840191505092915050565b60006115e1826119c0565b6115eb81856119dc565b93506115fb818560208601611b1c565b80840191505092915050565b60006116146039836119cb565b915061161f82611c99565b604082019050919050565b60006116376022836119cb565b915061164282611ce8565b604082019050919050565b600061165a6020836119cb565b915061166582611d37565b602082019050919050565b600061167d602e836119cb565b915061168882611d60565b604082019050919050565b60006116a0601a836119cb565b91506116ab82611daf565b602082019050919050565b60006116c3601b836119cb565b91506116ce82611dd8565b602082019050919050565b60006116e66025836119cb565b91506116f182611e01565b604082019050919050565b6000611709602b836119cb565b915061171482611e50565b604082019050919050565b600061172c6031836119cb565b915061173782611e9f565b604082019050919050565b61174b81611adf565b82525050565b600061175d82846115d6565b915081905092915050565b600060208201905061177d6000830184611561565b92915050565b600060e082019050611798600083018a611561565b6117a56020830189611561565b6117b26040830188611742565b81810360608301526117c4818761159d565b90506117d36080830186611742565b6117e060a0830185611570565b6117ed60c083018461158e565b98975050505050505050565b600060208201905061180e600083018461157f565b92915050565b6000602082019050611829600083018461158e565b92915050565b6000602082019050818103600083015261184881611607565b9050919050565b600060208201905081810360008301526118688161162a565b9050919050565b600060208201905081810360008301526118888161164d565b9050919050565b600060208201905081810360008301526118a881611670565b9050919050565b600060208201905081810360008301526118c881611693565b9050919050565b600060208201905081810360008301526118e8816116b6565b9050919050565b60006020820190508181036000830152611908816116d9565b9050919050565b60006020820190508181036000830152611928816116fc565b9050919050565b600060208201905081810360008301526119488161171f565b9050919050565b60006020820190506119646000830184611742565b92915050565b6000611974611985565b90506119808282611b81565b919050565b6000604051905090565b600067ffffffffffffffff8211156119aa576119a9611c59565b5b6119b382611c88565b9050602081019050919050565b600081519050919050565b600082825260208201905092915050565b600081905092915050565b60006119f282611adf565b91506119fd83611adf565b9250827fffffffffffffffffffffffffffffffffffffffffffffffffffffffffffffffff03821115611a3257611a31611bfb565b5b828201905092915050565b6000611a4882611adf565b9150611a5383611adf565b9250817fffffffffffffffffffffffffffffffffffffffffffffffffffffffffffffffff0483118215151615611a8c57611a8b611bfb565b5b828202905092915050565b6000611aa282611abf565b9050919050565b60008115159050919050565b6000819050919050565b600073ffffffffffffffffffffffffffffffffffffffff82169050919050565b6000819050919050565b6000611af482611afb565b9050919050565b6000611b0682611abf565b9050919050565b82818337600083830152505050565b60005b83811015611b3a578082015181840152602081019050611b1f565b83811115611b49576000848401525b50505050565b60006002820490506001821680611b6757607f821691505b60208210811415611b7b57611b7a611c2a565b5b50919050565b611b8a82611c88565b810181811067ffffffffffffffff82111715611ba957611ba8611c59565b5b80604052505050565b6000611bbd82611adf565b91507fffffffffffffffffffffffffffffffffffffffffffffffffffffffffffffffff821415611bf057611bef611bfb565b5b600182019050919050565b7f4e487b7100000000000000000000000000000000000000000000000000000000600052601160045260246000fd5b7f4e487b7100000000000000000000000000000000000000000000000000000000600052602260045260246000fd5b7f4e487b7100000000000000000000000000000000000000000000000000000000600052604160045260246000fd5b6000601f19601f8301169050919050565b7f546865726520697320616c7265616479206f70706f6e656e742c20746869732060008201527f626174746c652063616e27742062652063616e63656c65642e00000000000000602082015250565b7f596f75206861766520746f20626574206f6e20706f7369746976652076616c7560008201527f6521000000000000000000000000000000000000000000000000000000000000602082015250565b7f596f7520617265206e6f742070617274206f66207468697320626174746c652e600082015250565b7f5468697320626174746c6520697320636c6f7365642c206f70706f6e656e742060008201527f616c72656164792065786973742e000000000000000000000000000000000000602082015250565b7f426174746c65206e756d6265722069736e27742065786973742e000000000000600082015250565b7f426174746c65206e756d6265722069736e27742065786973742e0a0000000000600082015250565b7f546f6f206561726c7920746f20636865636b2077686f2069732074686520776960008201527f6e6e65722e000000000000000000000000000000000000000000000000000000602082015250565b7f4f6e6c79207468652063726561746f72206d61792063616e63656c206869732060008201527f6f776e20626174746c652e000000000000000000000000000000000000000000602082015250565b7f42657474696e672076616c75652069736e27742061732073706563696669656460008201527f20666f72207468697320626174746c652e000000000000000000000000000000602082015250565b611ef781611aa9565b8114611f0257600080fd5b50565b611f0e81611ab5565b8114611f1957600080fd5b50565b611f2581611adf565b8114611f3057600080fd5b5056fea2646970667358221220ab336833a7340814d04b0b650be8906b0f075df82245d114af7308d428fbbfec64736f6c63430008030033608060405234801561001057600080fd5b5061030a806100206000396000f3fe608060405234801561001057600080fd5b506004361061002b5760003560e01c806344a11f6514610030575b600080fd5b61004a60048036038101906100459190610152565b610060565b6040516100579190610201565b60405180910390f35b6000806000806000808673ffffffffffffffffffffffffffffffffffffffff1663feaf968c6040518163ffffffff1660e01b815260040160a06040518083038186803b1580156100af57600080fd5b505afa1580156100c3573d6000803e3d6000fd5b505050506040513d601f19601f820116820180604052508101906100e7919061017b565b945094509450945094508395505050505050919050565b60008135905061010d81610278565b92915050565b6000815190506101228161028f565b92915050565b600081519050610137816102a6565b92915050565b60008151905061014c816102bd565b92915050565b60006020828403121561016457600080fd5b6000610172848285016100fe565b91505092915050565b600080600080600060a0868803121561019357600080fd5b60006101a18882890161013d565b95505060206101b288828901610113565b94505060406101c388828901610128565b93505060606101d488828901610128565b92505060806101e58882890161013d565b9150509295509295909350565b6101fb8161022e565b82525050565b600060208201905061021660008301846101f2565b92915050565b600061022782610238565b9050919050565b6000819050919050565b600073ffffffffffffffffffffffffffffffffffffffff82169050919050565b6000819050919050565b600069ffffffffffffffffffff82169050919050565b6102818161021c565b811461028c57600080fd5b50565b6102988161022e565b81146102a357600080fd5b50565b6102af81610258565b81146102ba57600080fd5b50565b6102c681610262565b81146102d157600080fd5b5056fea2646970667358221220113a278fe303388eb9bd98b9f7e803b64b2347ec6e12c834a8765a55ac6ba94564736f6c63430008030033",
  "immutableReferences": {},
  "source": "// SPDX-License-Identifier: MIT\r\npragma solidity ^0.8.3;\r\nimport \"./Aggre.sol\";\r\n\r\ncontract BinaryOption{\r\n\r\n\r\n    uint256  public battleId; // unique id for each battle\r\n    mapping(uint256 => Battle) public battleInfo; // map of the existing battles\r\n    address public owner; // the creator of the contract (we)\r\n    uint  public tempVal;\r\n    int feed;\r\n    mapping(string=>address) public feedAddress;\r\n    Aggre public age;\r\n\r\n    event MyEvent(\r\n    uint256 indexed id,\r\n    uint256 indexed amount,\r\n    int win\r\n    );\r\n\r\n    struct Battle {\r\n        address creator;\r\n        address opponent;\r\n        uint256 amountBet;\r\n        string betType;\r\n        uint betDate;\r\n        bool isUp;\r\n        int currVal;\r\n    }\r\n\r\n    constructor() public {\r\n        age=new Aggre();\r\n        //owner = msg.sender;\r\n\r\n        // those addresses (of rinkbey test network) can be found at: https://docs.chain.link/docs/ethereum-addresses/\r\n        feedAddress[\"EthVsUsd\"]=0x8A753747A1Fa494EC906cE90E9f37563A8AF630e;\r\n        //feedAddress[\"BtcVsUsd\"]=0x6135b13325bfC4B00278B4abC5e20bbce2D6580e;\r\n        //feedAddress[\"EurVsUsd\"]=0x0c15Ab9A0DB086e062194c273CC79f41597Bbf13;\r\n    }\r\n\r\n    // a creator create a new battle\r\n    function addBattle(string memory betType,uint betDate,bool direction) public payable {\r\n        require(msg.value>0, \"You have to bet on positive value!\");\r\n        battleInfo[battleId]=Battle(msg.sender,msg.sender,msg.value,betType,block.timestamp+betDate,direction,age.getThePrice(feedAddress[betType]));\r\n        battleId++;\r\n    }\r\n    function getAmount(uint256 battle_id) public view returns (uint){\r\n            return battleInfo[battle_id].amountBet;\r\n        }\r\n\r\n    /*function setIndex() public payable {\r\n        tempVal= msg.value;\r\n    }*/\r\n\r\n    /*\r\n\r\n    function setPrice() public {\r\n        feed= age.getThePrice(0x9326BFA02ADD2366b30bacB125260Af641031331);\r\n    }\r\n    function getPrice() public view returns (int){\r\n        return feed;\r\n    }\r\n\r\n    */\r\n    function getId() public view returns (uint256){\r\n        return battleId;\r\n    }\r\n\r\n    /*function getEvent() public {\r\n        emit MyEvent(battleId,battleId);\r\n    }*/\r\n\r\n    /*function settempVal(uint num) public {\r\n        tempVal=num;\r\n    }*/\r\n\r\n    // we call it before the withdraw method, in the index_1.js (the reason for this is there)\r\n    /*function gettempVal() public view returns (uint) {\r\n        return tempVal;\r\n    }*/\r\n\r\n\r\n    // an opponent is signed to battle number: battleid\r\n    function acceptBattle(uint256 battle_id) public payable{\r\n\r\n        Battle storage bate=battleInfo[battle_id];\r\n        require(bate.amountBet>0, \"Battle number isn't exist.\\n\");\r\n        //require(bate.creator!=msg.sender, \"Impossible to fight against yourself.\");\r\n        require(bate.creator==bate.opponent, \"This battle is closed, opponent already exist.\");\r\n        require(msg.value==bate.amountBet, \"Betting value isn't as specified for this battle.\");\r\n        bate.opponent=msg.sender;\r\n    }\r\n\r\n    // a creator cancel his battle\r\n    function cancelBattle(uint256 battle_id) public payable{\r\n        Battle memory bate=battleInfo[battle_id];\r\n        require(bate.amountBet>0, \"Battle number isn't exist.\");\r\n        require(bate.creator==msg.sender, \"Only the creator may cancel his own battle.\");\r\n\r\n        require(bate.creator==bate.opponent, \"There is already opponent, this battle can't be canceled.\");\r\n        //temp=address(battleInfo[battle_id].creator);\r\n        //temp.transfer(2*battleInfo[battle_id].amountBet);\r\n        payable(bate.creator).transfer(bate.amountBet); // return the amount invested\r\n        delete battleInfo[battle_id]; // battle is canceled\r\n    }\r\n\r\n\r\n    /*function getcurrVal(uint256 battle_id) public view returns (uint256){\r\n        require(msg.sender==battleInfo[battle_id].creator||msg.sender==battleInfo[battle_id].opponent, \"You are not part of this battle.\");\r\n        return battleInfo[battle_id].amountBet;\r\n    }*/\r\n\r\n    // the winner may draw his money\r\n    function withdraw(uint256 battle_id) public {\r\n        int winner; // 0=lose 1=win 2=draw\r\n        int oldPrice;\r\n        int newPrice;\r\n        Battle memory bate=battleInfo[battle_id];\r\n        //require(battleInfo[battle_id].creator!=battleInfo[battle_id].opponent, \"This battle didn't start.\"); // in case the creator try to withdraw before having opponent. He may cancel battle if he wants.\r\n        require((bate.creator==msg.sender||bate.opponent==msg.sender), \"You are not part of this battle.\"); // can be deleted if comes with getcurrval\r\n        require(block.timestamp>=bate.betDate, \"Too early to check who is the winner.\");\r\n        oldPrice=bate.currVal;\r\n        newPrice=age.getThePrice(feedAddress[bate.betType]);\r\n        // deliver the money to the winner\r\n        if(oldPrice<newPrice){\r\n\r\n            if(bate.isUp){\r\n                //temp=address(battleInfo[battle_id].creator);\r\n                //temp.transfer(2*battleInfo[battle_id].amountBet);\r\n                winner=1;\r\n                payable(bate.creator).transfer(2*bate.amountBet); // multiply by 2 since we deliver the money of both the creator and his opponent\r\n            }\r\n            else{\r\n                //temp=address(battleInfo[battle_id].opponent);\r\n                //temp.transfer(2*battleInfo[battle_id].amountBet);\r\n                winner=0;\r\n                payable(bate.opponent).transfer(2*bate.amountBet);\r\n            }\r\n\r\n        }\r\n        else if(oldPrice>newPrice){\r\n\r\n            if(bate.isUp){\r\n                //temp=address(battleInfo[battle_id].opponent);\r\n                //temp.transfer(2*battleInfo[battle_id].amountBet);\r\n                winner=0;\r\n                payable(bate.opponent).transfer(2*bate.amountBet);\r\n            }\r\n            else{\r\n                //temp=address(battleInfo[battle_id].creator);\r\n                //temp.transfer(2*battleInfo[battle_id].amountBet);\r\n                winner=1;\r\n                payable(bate.creator).transfer(2*bate.amountBet);\r\n            }\r\n        }\r\n        // if nothing has changed, the creator lose his money\r\n        else {\r\n\r\n            //temp=address(battleInfo[battle_id].opponent);\r\n            //temp.transfer(2*battleInfo[battle_id].amountBet);\r\n            winner=2;\r\n            payable(bate.opponent).transfer(bate.amountBet);\r\n            payable(bate.creator).transfer(bate.amountBet);\r\n        }\r\n        // sign the event\r\n        emit MyEvent(battle_id,bate.amountBet*2,winner);\r\n        //delete battleInfo[battle_id]; // battle is finished\r\n    }\r\n\r\n    //just for testing\r\n    /*function removeBattle(uint256 battle_id) public {\r\n        require(battleInfo[battle_id].amountBet>0, \"Battle number isn't exist.\\n\");\r\n        //delete battleInfo[battle_id]; // battle is canceled\r\n    }*/\r\n\r\n\r\n\r\n}",
  "sourcePath": "/mnt/c/users/admin/ideaprojects/tau_smart_contract/src/solidity/contracts/BinaryOption.sol",
  "compiler": {
    "name": "solc",
    "version": "0.8.3+commit.8d00100c.Emscripten.clang"
  },
  "schemaVersion": "3.4.1",
  "updatedAt": "2021-07-17T05:12:39.051Z",
  "networkType": "ethereum",
  "devdoc": {
    "kind": "dev",
    "methods": {},
    "version": 1
  },
  "userdoc": {
    "kind": "user",
    "methods": {},
    "version": 1
  }
}