{
  "contractName": "BinaryOption",
  "abi": [
    {
      "inputs": [],
      "stateMutability": "nonpayable",
      "type": "constructor"
    },
    {
      "anonymous": false,
      "inputs": [
        {
          "indexed": true,
          "internalType": "uint256",
          "name": "id",
          "type": "uint256"
        },
        {
          "indexed": false,
          "internalType": "address",
          "name": "address_field",
          "type": "address"
        }
      ],
      "name": "AddEvent",
      "type": "event"
    },
    {
      "inputs": [],
      "name": "age",
      "outputs": [
        {
          "internalType": "contract Aggre",
          "name": "",
          "type": "address"
        }
      ],
      "stateMutability": "view",
      "type": "function",
      "constant": true
    },
    {
      "inputs": [],
      "name": "battleId",
      "outputs": [
        {
          "internalType": "uint256",
          "name": "",
          "type": "uint256"
        }
      ],
      "stateMutability": "view",
      "type": "function",
      "constant": true
    },
    {
      "inputs": [
        {
          "internalType": "uint256",
          "name": "",
          "type": "uint256"
        }
      ],
      "name": "battleInfo",
      "outputs": [
        {
          "internalType": "address",
          "name": "creator",
          "type": "address"
        },
        {
          "internalType": "address",
          "name": "opponent",
          "type": "address"
        },
        {
          "internalType": "uint256",
          "name": "amountBet",
          "type": "uint256"
        },
        {
          "internalType": "string",
          "name": "betType",
          "type": "string"
        },
        {
          "internalType": "uint256",
          "name": "betDate",
          "type": "uint256"
        },
        {
          "internalType": "bool",
          "name": "isUp",
          "type": "bool"
        },
        {
          "internalType": "int256",
          "name": "currVal",
          "type": "int256"
        },
        {
          "internalType": "int256",
          "name": "whoWin",
          "type": "int256"
        }
      ],
      "stateMutability": "view",
      "type": "function",
      "constant": true
    },
    {
      "inputs": [
        {
          "internalType": "string",
          "name": "",
          "type": "string"
        }
      ],
      "name": "feedAddress",
      "outputs": [
        {
          "internalType": "address",
          "name": "",
          "type": "address"
        }
      ],
      "stateMutability": "view",
      "type": "function",
      "constant": true
    },
    {
      "inputs": [],
      "name": "owner",
      "outputs": [
        {
          "internalType": "address",
          "name": "",
          "type": "address"
        }
      ],
      "stateMutability": "view",
      "type": "function",
      "constant": true
    },
    {
      "inputs": [],
      "name": "tempVal",
      "outputs": [
        {
          "internalType": "uint256",
          "name": "",
          "type": "uint256"
        }
      ],
      "stateMutability": "view",
      "type": "function",
      "constant": true
    },
    {
      "inputs": [
        {
          "internalType": "string",
          "name": "betType",
          "type": "string"
        },
        {
          "internalType": "uint256",
          "name": "betDate",
          "type": "uint256"
        },
        {
          "internalType": "bool",
          "name": "direction",
          "type": "bool"
        }
      ],
      "name": "addBattle",
      "outputs": [],
      "stateMutability": "payable",
      "type": "function",
      "payable": true
    },
    {
      "inputs": [
        {
          "internalType": "uint256",
          "name": "battle_id",
          "type": "uint256"
        }
      ],
      "name": "getBattleInfo",
      "outputs": [
        {
          "components": [
            {
              "internalType": "address",
              "name": "creator",
              "type": "address"
            },
            {
              "internalType": "address",
              "name": "opponent",
              "type": "address"
            },
            {
              "internalType": "uint256",
              "name": "amountBet",
              "type": "uint256"
            },
            {
              "internalType": "string",
              "name": "betType",
              "type": "string"
            },
            {
              "internalType": "uint256",
              "name": "betDate",
              "type": "uint256"
            },
            {
              "internalType": "bool",
              "name": "isUp",
              "type": "bool"
            },
            {
              "internalType": "int256",
              "name": "currVal",
              "type": "int256"
            },
            {
              "internalType": "int256",
              "name": "whoWin",
              "type": "int256"
            }
          ],
          "internalType": "struct BinaryOption.Battle",
          "name": "",
          "type": "tuple"
        }
      ],
      "stateMutability": "payable",
      "type": "function",
      "payable": true
    },
    {
      "inputs": [],
      "name": "getAll",
      "outputs": [
        {
          "components": [
            {
              "internalType": "address",
              "name": "creator",
              "type": "address"
            },
            {
              "internalType": "address",
              "name": "opponent",
              "type": "address"
            },
            {
              "internalType": "uint256",
              "name": "amountBet",
              "type": "uint256"
            },
            {
              "internalType": "string",
              "name": "betType",
              "type": "string"
            },
            {
              "internalType": "uint256",
              "name": "betDate",
              "type": "uint256"
            },
            {
              "internalType": "bool",
              "name": "isUp",
              "type": "bool"
            },
            {
              "internalType": "int256",
              "name": "currVal",
              "type": "int256"
            },
            {
              "internalType": "int256",
              "name": "whoWin",
              "type": "int256"
            }
          ],
          "internalType": "struct BinaryOption.Battle[]",
          "name": "",
          "type": "tuple[]"
        }
      ],
      "stateMutability": "view",
      "type": "function",
      "constant": true
    },
    {
      "inputs": [
        {
          "internalType": "uint256",
          "name": "battle_id",
          "type": "uint256"
        }
      ],
      "name": "acceptBattle",
      "outputs": [],
      "stateMutability": "payable",
      "type": "function",
      "payable": true
    },
    {
      "inputs": [
        {
          "internalType": "uint256",
          "name": "battle_id",
          "type": "uint256"
        }
      ],
      "name": "cancelBattle",
      "outputs": [],
      "stateMutability": "payable",
      "type": "function",
      "payable": true
    },
    {
      "inputs": [
        {
          "internalType": "uint256",
          "name": "battle_id",
          "type": "uint256"
        }
      ],
      "name": "withdraw",
      "outputs": [],
      "stateMutability": "nonpayable",
      "type": "function"
    }
  ],
  "bytecode": "0x60806040523480156200001157600080fd5b5060405162000020906200048e565b604051809103906000f0801580156200003d573d6000803e3d6000fd5b50600660006101000a81548173ffffffffffffffffffffffffffffffffffffffff021916908373ffffffffffffffffffffffffffffffffffffffff16021790555060008015620000fe57739326bfa02add2366b30bacb125260af6410313316005604051620000ac9062000612565b908152602001604051809103902060006101000a81548173ffffffffffffffffffffffffffffffffffffffff021916908373ffffffffffffffffffffffffffffffffffffffff16021790555062000487565b738a753747a1fa494ec906ce90e9f37563a8af630e600560405162000123906200066e565b908152602001604051809103902060006101000a81548173ffffffffffffffffffffffffffffffffffffffff021916908373ffffffffffffffffffffffffffffffffffffffff16021790555073ece365b379e1dd183b20fc5f022230c044d514046005604051620001949062000685565b908152602001604051809103902060006101000a81548173ffffffffffffffffffffffffffffffffffffffff021916908373ffffffffffffffffffffffffffffffffffffffff1602179055507378f9e60608bf48a1155b4b2a5e31f32318a1d85f60056040516200020590620005fb565b908152602001604051809103902060006101000a81548173ffffffffffffffffffffffffffffffffffffffff021916908373ffffffffffffffffffffffffffffffffffffffff16021790555073dca36f27cbc4e38ae16c4e9f99d39b42337f6dcf6005604051620002769062000657565b908152602001604051809103902060006101000a81548173ffffffffffffffffffffffffffffffffffffffff021916908373ffffffffffffffffffffffffffffffffffffffff160217905550732ba49aaa16e6afd2a993473cfb70fa8559b523cf6005604051620002e79062000640565b908152602001604051809103902060006101000a81548173ffffffffffffffffffffffffffffffffffffffff021916908373ffffffffffffffffffffffffffffffffffffffff1602179055507374825dbc8bf76cc4e9494d0ecb210f676efa001d60056040516200035890620006b3565b908152602001604051809103902060006101000a81548173ffffffffffffffffffffffffffffffffffffffff021916908373ffffffffffffffffffffffffffffffffffffffff160217905550730630521ac362bc7a19a4ee44b57ce72ea34ad01c6005604051620003c9906200069c565b908152602001604051809103902060006101000a81548173ffffffffffffffffffffffffffffffffffffffff021916908373ffffffffffffffffffffffffffffffffffffffff16021790555073e96c4407597cd507002df88ff6e0008ab41266ee60056040516200043a9062000629565b908152602001604051809103902060006101000a81548173ffffffffffffffffffffffffffffffffffffffff021916908373ffffffffffffffffffffffffffffffffffffffff1602179055505b5062000846565b61031c80620031c483390190565b6000620004ab600a83620006ca565b9150620004b882620006d5565b600a82019050919050565b6000620004d2600883620006ca565b9150620004df82620006fe565b600882019050919050565b6000620004f9600a83620006ca565b9150620005068262000727565b600a82019050919050565b600062000520600a83620006ca565b91506200052d8262000750565b600a82019050919050565b600062000547600b83620006ca565b9150620005548262000779565b600b82019050919050565b60006200056e600a83620006ca565b91506200057b82620007a2565b600a82019050919050565b600062000595600a83620006ca565b9150620005a282620007cb565b600a82019050919050565b6000620005bc600c83620006ca565b9150620005c982620007f4565b600c82019050919050565b6000620005e3600a83620006ca565b9150620005f0826200081d565b600a82019050919050565b600062000608826200049c565b9150819050919050565b60006200061f82620004c3565b9150819050919050565b60006200063682620004ea565b9150819050919050565b60006200064d8262000511565b9150819050919050565b6000620006648262000538565b9150819050919050565b60006200067b826200055f565b9150819050919050565b6000620006928262000586565b9150819050919050565b6000620006a982620005ad565b9150819050919050565b6000620006c082620005d4565b9150819050919050565b600081905092915050565b7f6575725f76735f75736400000000000000000000000000000000000000000000600082015250565b7f4574685673557364000000000000000000000000000000000000000000000000600082015250565b7f736e785f76735f75736400000000000000000000000000000000000000000000600082015250565b7f6461695f76735f75736400000000000000000000000000000000000000000000600082015250565b7f757364635f76735f657468000000000000000000000000000000000000000000600082015250565b7f6574685f76735f75736400000000000000000000000000000000000000000000600082015250565b7f6274635f76735f75736400000000000000000000000000000000000000000000600082015250565b7f73646566695f76735f7573640000000000000000000000000000000000000000600082015250565b7f6461695f76735f65746800000000000000000000000000000000000000000000600082015250565b61296e80620008566000396000f3fe6080604052600436106100a75760003560e01c80638da5cb5b116100645780638da5cb5b1461018e578063a9e23bea146101b9578063bfc8b8c6146101e4578063c0a6e9d714610200578063db71dcdc14610230578063e4bb7a1e14610274576100a7565b806301a1b778146100ac578063262a9dff146100d75780632e1a7d4d146101025780634c4c447e1461012b57806353ed51431461014757806381ec30f214610172575b600080fd5b3480156100b857600080fd5b506100c16102b1565b6040516100ce91906122f9565b60405180910390f35b3480156100e357600080fd5b506100ec6102b7565b6040516100f9919061215c565b60405180910390f35b34801561010e57600080fd5b5061012960048036038101906101249190611b30565b6102dd565b005b61014560048036038101906101409190611b30565b61093f565b005b34801561015357600080fd5b5061015c610d0d565b604051610169919061213a565b60405180910390f35b61018c60048036038101906101879190611b30565b610f9a565b005b34801561019a57600080fd5b506101a36111ce565b6040516101b0919061209a565b60405180910390f35b3480156101c557600080fd5b506101ce6111f4565b6040516101db91906122f9565b60405180910390f35b6101fe60048036038101906101f99190611ac9565b6111fa565b005b61021a60048036038101906102159190611b30565b6114ee565b60405161022791906122d7565b60405180910390f35b34801561023c57600080fd5b5061025760048036038101906102529190611b30565b6116fc565b60405161026b9897969594939291906120b5565b60405180910390f35b34801561028057600080fd5b5061029b60048036038101906102969190611a88565b611819565b6040516102a8919061209a565b60405180910390f35b60005481565b600660009054906101000a900473ffffffffffffffffffffffffffffffffffffffff1681565b6000806000806001600086815260200190815260200160002090506001600086815260200190815260200160002060010160009054906101000a900473ffffffffffffffffffffffffffffffffffffffff1673ffffffffffffffffffffffffffffffffffffffff166001600087815260200190815260200160002060000160009054906101000a900473ffffffffffffffffffffffffffffffffffffffff1673ffffffffffffffffffffffffffffffffffffffff1614156103d3576040517f08c379a00000000000000000000000000000000000000000000000000000000081526004016103ca906121b7565b60405180910390fd5b3373ffffffffffffffffffffffffffffffffffffffff168160000160009054906101000a900473ffffffffffffffffffffffffffffffffffffffff1673ffffffffffffffffffffffffffffffffffffffff16148061048057503373ffffffffffffffffffffffffffffffffffffffff168160010160009054906101000a900473ffffffffffffffffffffffffffffffffffffffff1673ffffffffffffffffffffffffffffffffffffffff16145b6104bf576040517f08c379a00000000000000000000000000000000000000000000000000000000081526004016104b6906121f7565b60405180910390fd5b6003816007015414610506576040517f08c379a00000000000000000000000000000000000000000000000000000000081526004016104fd90612217565b60405180910390fd5b80600601549250600660009054906101000a900473ffffffffffffffffffffffffffffffffffffffff1673ffffffffffffffffffffffffffffffffffffffff166344a11f6560058360030160405161055e9190612083565b908152602001604051809103902060009054906101000a900473ffffffffffffffffffffffffffffffffffffffff166040518263ffffffff1660e01b81526004016105a9919061209a565b60206040518083038186803b1580156105c157600080fd5b505afa1580156105d5573d6000803e3d6000fd5b505050506040513d601f19601f820116820180604052508101906105f99190611a5f565b915081831215610723578060050160009054906101000a900460ff161561069e57600193508060000160009054906101000a900473ffffffffffffffffffffffffffffffffffffffff1673ffffffffffffffffffffffffffffffffffffffff166108fc8260020154600261066d91906123f0565b9081150290604051600060405180830381858888f19350505050158015610698573d6000803e3d6000fd5b5061071e565b600093508060010160009054906101000a900473ffffffffffffffffffffffffffffffffffffffff1673ffffffffffffffffffffffffffffffffffffffff166108fc826002015460026106f191906123f0565b9081150290604051600060405180830381858888f1935050505015801561071c573d6000803e3d6000fd5b505b61092f565b8183131561084b578060050160009054906101000a900460ff16156107c657600093508060010160009054906101000a900473ffffffffffffffffffffffffffffffffffffffff1673ffffffffffffffffffffffffffffffffffffffff166108fc8260020154600261079591906123f0565b9081150290604051600060405180830381858888f193505050501580156107c0573d6000803e3d6000fd5b50610846565b600193508060000160009054906101000a900473ffffffffffffffffffffffffffffffffffffffff1673ffffffffffffffffffffffffffffffffffffffff166108fc8260020154600261081991906123f0565b9081150290604051600060405180830381858888f19350505050158015610844573d6000803e3d6000fd5b505b61092e565b600293508060010160009054906101000a900473ffffffffffffffffffffffffffffffffffffffff1673ffffffffffffffffffffffffffffffffffffffff166108fc82600201549081150290604051600060405180830381858888f193505050501580156108bd573d6000803e3d6000fd5b508060000160009054906101000a900473ffffffffffffffffffffffffffffffffffffffff1673ffffffffffffffffffffffffffffffffffffffff166108fc82600201549081150290604051600060405180830381858888f1935050505015801561092c573d6000803e3d6000fd5b505b5b8381600701819055505050505050565b600060016000838152602001908152602001600020604051806101000160405290816000820160009054906101000a900473ffffffffffffffffffffffffffffffffffffffff1673ffffffffffffffffffffffffffffffffffffffff1673ffffffffffffffffffffffffffffffffffffffff1681526020016001820160009054906101000a900473ffffffffffffffffffffffffffffffffffffffff1673ffffffffffffffffffffffffffffffffffffffff1673ffffffffffffffffffffffffffffffffffffffff16815260200160028201548152602001600382018054610a2690612502565b80601f0160208091040260200160405190810160405280929190818152602001828054610a5290612502565b8015610a9f5780601f10610a7457610100808354040283529160200191610a9f565b820191906000526020600020905b815481529060010190602001808311610a8257829003601f168201915b50505050508152602001600482015481526020016005820160009054906101000a900460ff161515151581526020016006820154815260200160078201548152505090506000816040015111610b2a576040517f08c379a0000000000000000000000000000000000000000000000000000000008152600401610b2190612257565b60405180910390fd5b3373ffffffffffffffffffffffffffffffffffffffff16816000015173ffffffffffffffffffffffffffffffffffffffff1614610b9c576040517f08c379a0000000000000000000000000000000000000000000000000000000008152600401610b9390612297565b60405180910390fd5b806020015173ffffffffffffffffffffffffffffffffffffffff16816000015173ffffffffffffffffffffffffffffffffffffffff1614610c12576040517f08c379a0000000000000000000000000000000000000000000000000000000008152600401610c0990612197565b60405180910390fd5b806000015173ffffffffffffffffffffffffffffffffffffffff166108fc82604001519081150290604051600060405180830381858888f19350505050158015610c60573d6000803e3d6000fd5b5060016000838152602001908152602001600020600080820160006101000a81549073ffffffffffffffffffffffffffffffffffffffff02191690556001820160006101000a81549073ffffffffffffffffffffffffffffffffffffffff02191690556002820160009055600382016000610cdb9190611862565b60048201600090556005820160006101000a81549060ff02191690556006820160009055600782016000905550505050565b60606000805467ffffffffffffffff811115610d52577f4e487b7100000000000000000000000000000000000000000000000000000000600052604160045260246000fd5b604051908082528060200260200182016040528015610d8b57816020015b610d786118a2565b815260200190600190039081610d705790505b50905060005b600054811015610f925760016000828152602001908152602001600020604051806101000160405290816000820160009054906101000a900473ffffffffffffffffffffffffffffffffffffffff1673ffffffffffffffffffffffffffffffffffffffff1673ffffffffffffffffffffffffffffffffffffffff1681526020016001820160009054906101000a900473ffffffffffffffffffffffffffffffffffffffff1673ffffffffffffffffffffffffffffffffffffffff1673ffffffffffffffffffffffffffffffffffffffff16815260200160028201548152602001600382018054610e8090612502565b80601f0160208091040260200160405190810160405280929190818152602001828054610eac90612502565b8015610ef95780601f10610ece57610100808354040283529160200191610ef9565b820191906000526020600020905b815481529060010190602001808311610edc57829003601f168201915b50505050508152602001600482015481526020016005820160009054906101000a900460ff1615151515815260200160068201548152602001600782015481525050828281518110610f74577f4e487b7100000000000000000000000000000000000000000000000000000000600052603260045260246000fd5b60200260200101819052508080610f8a90612565565b915050610d91565b508091505090565b60006001600083815260200190815260200160002090506000816002015411610ff8576040517f08c379a0000000000000000000000000000000000000000000000000000000008152600401610fef90612277565b60405180910390fd5b3373ffffffffffffffffffffffffffffffffffffffff168160000160009054906101000a900473ffffffffffffffffffffffffffffffffffffffff1673ffffffffffffffffffffffffffffffffffffffff16141561108b576040517f08c379a000000000000000000000000000000000000000000000000000000000815260040161108290612177565b60405180910390fd5b8060010160009054906101000a900473ffffffffffffffffffffffffffffffffffffffff1673ffffffffffffffffffffffffffffffffffffffff168160000160009054906101000a900473ffffffffffffffffffffffffffffffffffffffff1673ffffffffffffffffffffffffffffffffffffffff1614611141576040517f08c379a000000000000000000000000000000000000000000000000000000000815260040161113890612237565b60405180910390fd5b80600201543414611187576040517f08c379a000000000000000000000000000000000000000000000000000000000815260040161117e906122b7565b60405180910390fd5b338160010160006101000a81548173ffffffffffffffffffffffffffffffffffffffff021916908373ffffffffffffffffffffffffffffffffffffffff1602179055505050565b600260009054906101000a900473ffffffffffffffffffffffffffffffffffffffff1681565b60035481565b6000341161123d576040517f08c379a0000000000000000000000000000000000000000000000000000000008152600401611234906121d7565b60405180910390fd5b6040518061010001604052803373ffffffffffffffffffffffffffffffffffffffff1681526020013373ffffffffffffffffffffffffffffffffffffffff1681526020013481526020018481526020018381526020018215158152602001600660009054906101000a900473ffffffffffffffffffffffffffffffffffffffff1673ffffffffffffffffffffffffffffffffffffffff166344a11f656005876040516112e9919061206c565b908152602001604051809103902060009054906101000a900473ffffffffffffffffffffffffffffffffffffffff166040518263ffffffff1660e01b8152600401611334919061209a565b60206040518083038186803b15801561134c57600080fd5b505afa158015611360573d6000803e3d6000fd5b505050506040513d601f19601f820116820180604052508101906113849190611a5f565b81526020016003815250600160008054815260200190815260200160002060008201518160000160006101000a81548173ffffffffffffffffffffffffffffffffffffffff021916908373ffffffffffffffffffffffffffffffffffffffff16021790555060208201518160010160006101000a81548173ffffffffffffffffffffffffffffffffffffffff021916908373ffffffffffffffffffffffffffffffffffffffff160217905550604082015181600201556060820151816003019080519060200190611456929190611915565b506080820151816004015560a08201518160050160006101000a81548160ff02191690831515021790555060c0820151816006015560e082015181600701559050506000547fa85f9845510d83562eaa9e779b6973f58826879a69d5613807f0415e1ce692c4336040516114ca919061209a565b60405180910390a26000808154809291906114e490612565565b9190505550505050565b6114f66118a2565b60006001600084815260200190815260200160002090506000816002015411611554576040517f08c379a000000000000000000000000000000000000000000000000000000000815260040161154b90612277565b60405180910390fd5b60016000848152602001908152602001600020604051806101000160405290816000820160009054906101000a900473ffffffffffffffffffffffffffffffffffffffff1673ffffffffffffffffffffffffffffffffffffffff1673ffffffffffffffffffffffffffffffffffffffff1681526020016001820160009054906101000a900473ffffffffffffffffffffffffffffffffffffffff1673ffffffffffffffffffffffffffffffffffffffff1673ffffffffffffffffffffffffffffffffffffffff1681526020016002820154815260200160038201805461163990612502565b80601f016020809104026020016040519081016040528092919081815260200182805461166590612502565b80156116b25780601f10611687576101008083540402835291602001916116b2565b820191906000526020600020905b81548152906001019060200180831161169557829003601f168201915b50505050508152602001600482015481526020016005820160009054906101000a900460ff1615151515815260200160068201548152602001600782015481525050915050919050565b60016020528060005260406000206000915090508060000160009054906101000a900473ffffffffffffffffffffffffffffffffffffffff16908060010160009054906101000a900473ffffffffffffffffffffffffffffffffffffffff169080600201549080600301805461177190612502565b80601f016020809104026020016040519081016040528092919081815260200182805461179d90612502565b80156117ea5780601f106117bf576101008083540402835291602001916117ea565b820191906000526020600020905b8154815290600101906020018083116117cd57829003601f168201915b5050505050908060040154908060050160009054906101000a900460ff16908060060154908060070154905088565b6005818051602081018201805184825260208301602085012081835280955050505050506000915054906101000a900473ffffffffffffffffffffffffffffffffffffffff1681565b50805461186e90612502565b6000825580601f10611880575061189f565b601f01602090049060005260206000209081019061189e919061199b565b5b50565b604051806101000160405280600073ffffffffffffffffffffffffffffffffffffffff168152602001600073ffffffffffffffffffffffffffffffffffffffff16815260200160008152602001606081526020016000815260200160001515815260200160008152602001600081525090565b82805461192190612502565b90600052602060002090601f016020900481019282611943576000855561198a565b82601f1061195c57805160ff191683800117855561198a565b8280016001018555821561198a579182015b8281111561198957825182559160200191906001019061196e565b5b509050611997919061199b565b5090565b5b808211156119b457600081600090555060010161199c565b5090565b60006119cb6119c684612339565b612314565b9050828152602081018484840111156119e357600080fd5b6119ee8482856124c0565b509392505050565b600081359050611a05816128f3565b92915050565b600081519050611a1a8161290a565b92915050565b600082601f830112611a3157600080fd5b8135611a418482602086016119b8565b91505092915050565b600081359050611a5981612921565b92915050565b600060208284031215611a7157600080fd5b6000611a7f84828501611a0b565b91505092915050565b600060208284031215611a9a57600080fd5b600082013567ffffffffffffffff811115611ab457600080fd5b611ac084828501611a20565b91505092915050565b600080600060608486031215611ade57600080fd5b600084013567ffffffffffffffff811115611af857600080fd5b611b0486828701611a20565b9350506020611b1586828701611a4a565b9250506040611b26868287016119f6565b9150509250925092565b600060208284031215611b4257600080fd5b6000611b5084828501611a4a565b91505092915050565b6000611b658383611eee565b905092915050565b611b768161244a565b82525050565b611b858161244a565b82525050565b6000611b968261238f565b611ba081856123b2565b935083602082028501611bb28561236a565b8060005b85811015611bee5784840389528151611bcf8582611b59565b9450611bda836123a5565b925060208a01995050600181019050611bb6565b50829750879550505050505092915050565b611c098161245c565b82525050565b611c188161245c565b82525050565b611c278161249c565b82525050565b611c3681612468565b82525050565b611c4581612468565b82525050565b6000611c568261239a565b611c6081856123c3565b9350611c708185602086016124cf565b611c798161263b565b840191505092915050565b6000611c8f8261239a565b611c9981856123d4565b9350611ca98185602086016124cf565b611cb28161263b565b840191505092915050565b6000611cc88261239a565b611cd281856123e5565b9350611ce28185602086016124cf565b80840191505092915050565b60008154611cfb81612502565b611d0581866123e5565b94506001821660008114611d205760018114611d3157611d64565b60ff19831686528186019350611d64565b611d3a8561237a565b60005b83811015611d5c57815481890152600182019150602081019050611d3d565b838801955050505b50505092915050565b6000611d7a6025836123d4565b9150611d858261264c565b604082019050919050565b6000611d9d6039836123d4565b9150611da88261269b565b604082019050919050565b6000611dc06019836123d4565b9150611dcb826126ea565b602082019050919050565b6000611de36022836123d4565b9150611dee82612713565b604082019050919050565b6000611e066020836123d4565b9150611e1182612762565b602082019050919050565b6000611e296011836123d4565b9150611e348261278b565b602082019050919050565b6000611e4c602e836123d4565b9150611e57826127b4565b604082019050919050565b6000611e6f601a836123d4565b9150611e7a82612803565b602082019050919050565b6000611e92601b836123d4565b9150611e9d8261282c565b602082019050919050565b6000611eb5602b836123d4565b9150611ec082612855565b604082019050919050565b6000611ed86031836123d4565b9150611ee3826128a4565b604082019050919050565b600061010083016000830151611f076000860182611b6d565b506020830151611f1a6020860182611b6d565b506040830151611f2d604086018261204e565b5060608301518482036060860152611f458282611c4b565b9150506080830151611f5a608086018261204e565b5060a0830151611f6d60a0860182611c00565b5060c0830151611f8060c0860182611c2d565b5060e0830151611f9360e0860182611c2d565b508091505092915050565b600061010083016000830151611fb76000860182611b6d565b506020830151611fca6020860182611b6d565b506040830151611fdd604086018261204e565b5060608301518482036060860152611ff58282611c4b565b915050608083015161200a608086018261204e565b5060a083015161201d60a0860182611c00565b5060c083015161203060c0860182611c2d565b5060e083015161204360e0860182611c2d565b508091505092915050565b61205781612492565b82525050565b61206681612492565b82525050565b60006120788284611cbd565b915081905092915050565b600061208f8284611cee565b915081905092915050565b60006020820190506120af6000830184611b7c565b92915050565b6000610100820190506120cb600083018b611b7c565b6120d8602083018a611b7c565b6120e5604083018961205d565b81810360608301526120f78188611c84565b9050612106608083018761205d565b61211360a0830186611c0f565b61212060c0830185611c3c565b61212d60e0830184611c3c565b9998505050505050505050565b600060208201905081810360008301526121548184611b8b565b905092915050565b60006020820190506121716000830184611c1e565b92915050565b6000602082019050818103600083015261219081611d6d565b9050919050565b600060208201905081810360008301526121b081611d90565b9050919050565b600060208201905081810360008301526121d081611db3565b9050919050565b600060208201905081810360008301526121f081611dd6565b9050919050565b6000602082019050818103600083015261221081611df9565b9050919050565b6000602082019050818103600083015261223081611e1c565b9050919050565b6000602082019050818103600083015261225081611e3f565b9050919050565b6000602082019050818103600083015261227081611e62565b9050919050565b6000602082019050818103600083015261229081611e85565b9050919050565b600060208201905081810360008301526122b081611ea8565b9050919050565b600060208201905081810360008301526122d081611ecb565b9050919050565b600060208201905081810360008301526122f18184611f9e565b905092915050565b600060208201905061230e600083018461205d565b92915050565b600061231e61232f565b905061232a8282612534565b919050565b6000604051905090565b600067ffffffffffffffff8211156123545761235361260c565b5b61235d8261263b565b9050602081019050919050565b6000819050602082019050919050565b60008190508160005260206000209050919050565b600081519050919050565b600081519050919050565b6000602082019050919050565b600082825260208201905092915050565b600082825260208201905092915050565b600082825260208201905092915050565b600081905092915050565b60006123fb82612492565b915061240683612492565b9250817fffffffffffffffffffffffffffffffffffffffffffffffffffffffffffffffff048311821515161561243f5761243e6125ae565b5b828202905092915050565b600061245582612472565b9050919050565b60008115159050919050565b6000819050919050565b600073ffffffffffffffffffffffffffffffffffffffff82169050919050565b6000819050919050565b60006124a7826124ae565b9050919050565b60006124b982612472565b9050919050565b82818337600083830152505050565b60005b838110156124ed5780820151818401526020810190506124d2565b838111156124fc576000848401525b50505050565b6000600282049050600182168061251a57607f821691505b6020821081141561252e5761252d6125dd565b5b50919050565b61253d8261263b565b810181811067ffffffffffffffff8211171561255c5761255b61260c565b5b80604052505050565b600061257082612492565b91507fffffffffffffffffffffffffffffffffffffffffffffffffffffffffffffffff8214156125a3576125a26125ae565b5b600182019050919050565b7f4e487b7100000000000000000000000000000000000000000000000000000000600052601160045260246000fd5b7f4e487b7100000000000000000000000000000000000000000000000000000000600052602260045260246000fd5b7f4e487b7100000000000000000000000000000000000000000000000000000000600052604160045260246000fd5b6000601f19601f8301169050919050565b7f496d706f737369626c6520746f20666967687420616761696e737420796f757260008201527f73656c662e000000000000000000000000000000000000000000000000000000602082015250565b7f546865726520697320616c7265616479206f70706f6e656e742c20746869732060008201527f626174746c652063616e27742062652063616e63656c65642e00000000000000602082015250565b7f5468697320626174746c65206469646e27742073746172742e00000000000000600082015250565b7f596f75206861766520746f20626574206f6e20706f7369746976652076616c7560008201527f6521000000000000000000000000000000000000000000000000000000000000602082015250565b7f596f7520617265206e6f742070617274206f66207468697320626174746c652e600082015250565b7f576974686472617720616c72656164792e000000000000000000000000000000600082015250565b7f5468697320626174746c6520697320636c6f7365642c206f70706f6e656e742060008201527f616c72656164792065786973742e000000000000000000000000000000000000602082015250565b7f426174746c65206e756d6265722069736e27742065786973742e000000000000600082015250565b7f426174746c65206e756d6265722069736e27742065786973742e0a0000000000600082015250565b7f4f6e6c79207468652063726561746f72206d61792063616e63656c206869732060008201527f6f776e20626174746c652e000000000000000000000000000000000000000000602082015250565b7f42657474696e672076616c75652069736e27742061732073706563696669656460008201527f20666f72207468697320626174746c652e000000000000000000000000000000602082015250565b6128fc8161245c565b811461290757600080fd5b50565b61291381612468565b811461291e57600080fd5b50565b61292a81612492565b811461293557600080fd5b5056fea2646970667358221220d6d8c80e998c0042be5cd39abac353da04b6e30353cb1fff1ebf5fe90b2a53e564736f6c63430008030033608060405234801561001057600080fd5b506102fc806100206000396000f3fe608060405234801561001057600080fd5b506004361061002b5760003560e01c806344a11f6514610030575b600080fd5b61004a60048036038101906100459190610144565b610060565b60405161005791906101f3565b60405180910390f35b6000808273ffffffffffffffffffffffffffffffffffffffff1663feaf968c6040518163ffffffff1660e01b815260040160a06040518083038186803b1580156100a957600080fd5b505afa1580156100bd573d6000803e3d6000fd5b505050506040513d601f19601f820116820180604052508101906100e1919061016d565b50505091505080915050919050565b6000813590506100ff8161026a565b92915050565b60008151905061011481610281565b92915050565b60008151905061012981610298565b92915050565b60008151905061013e816102af565b92915050565b60006020828403121561015657600080fd5b6000610164848285016100f0565b91505092915050565b600080600080600060a0868803121561018557600080fd5b60006101938882890161012f565b95505060206101a488828901610105565b94505060406101b58882890161011a565b93505060606101c68882890161011a565b92505060806101d78882890161012f565b9150509295509295909350565b6101ed81610220565b82525050565b600060208201905061020860008301846101e4565b92915050565b60006102198261022a565b9050919050565b6000819050919050565b600073ffffffffffffffffffffffffffffffffffffffff82169050919050565b6000819050919050565b600069ffffffffffffffffffff82169050919050565b6102738161020e565b811461027e57600080fd5b50565b61028a81610220565b811461029557600080fd5b50565b6102a18161024a565b81146102ac57600080fd5b50565b6102b881610254565b81146102c357600080fd5b5056fea2646970667358221220a72801b51f7ad111bdfe52c9e9b4f86962974e4d6b17b4983e290f327b606a4164736f6c63430008030033",
  "immutableReferences": {},
  "source": "// SPDX-License-Identifier: MIT\r\npragma solidity ^0.8.3;\r\nimport \"./Aggre.sol\";\r\n\r\ncontract BinaryOption{\r\n\r\n    uint256  public battleId; // unique id for each battle\r\n    mapping(uint256 => Battle) public battleInfo; // map of the existing battles\r\n    address public owner; // the creator of the contract (we)\r\n    uint  public tempVal;\r\n    int feed;\r\n    mapping(string=>address) public feedAddress;\r\n    Aggre public age;\r\n\r\n    /*event MyEvent(\r\n    uint256 indexed id,\r\n    uint256 indexed amount,\r\n    int win\r\n    );*/\r\n\r\n    event AddEvent(\r\n    uint256 indexed id,\r\n    address address_field\r\n    );\r\n\r\n    struct Battle {\r\n        address creator;\r\n        address opponent;\r\n        uint256 amountBet;\r\n        string betType;\r\n        uint betDate;\r\n        bool isUp;\r\n        int currVal;\r\n        int whoWin; // 0 for opponent, 1 for creator, 2 for draw, 3 if not over\r\n    }\r\n\r\n\r\n    constructor()  {\r\n        age=new Aggre();\r\n        bool isKovan=false; // true if kovan, otherwise rinkeby\r\n        //owner = msg.sender;\r\n        if(isKovan){\r\n        feedAddress[\"EthVsUsd\"]=0x9326BFA02ADD2366b30bacB125260Af641031331;\r\n        }\r\n        else{\r\n        // those addresses (of rinkbey test network) can be found at: https://docs.chain.link/docs/ethereum-addresses/\r\n        feedAddress[\"eth_vs_usd\"]=0x8A753747A1Fa494EC906cE90E9f37563A8AF630e;\r\n        feedAddress[\"btc_vs_usd\"]=0xECe365B379E1dD183B20fc5f022230C044d51404;\r\n        feedAddress[\"eur_vs_usd\"]=0x78F9e60608bF48a1155b4B2A5e31F32318a1d85F;\r\n        feedAddress[\"usdc_vs_eth\"]=0xdCA36F27cbC4E38aE16C4E9f99D39b42337F6dcf;\r\n        feedAddress[\"dai_vs_usd\"]=0x2bA49Aaa16E6afD2a993473cfB70Fa8559B523cF;\r\n        feedAddress[\"dai_vs_eth\"]=0x74825DbC8BF76CC4e9494d0ecB210f676Efa001D;\r\n        feedAddress[\"sdefi_vs_usd\"]=0x0630521aC362bc7A19a4eE44b57cE72Ea34AD01c;\r\n        feedAddress[\"snx_vs_usd\"]=0xE96C4407597CD507002dF88ff6E0008AB41266Ee;\r\n        }\r\n\r\n    }\r\n\r\n\r\n    // a creator create a new battle\r\n    function addBattle(string memory betType,uint betDate,bool direction) public payable {\r\n        require(msg.value>0, \"You have to bet on positive value!\");\r\n        battleInfo[battleId]=Battle(msg.sender,msg.sender,msg.value,betType,betDate,direction,age.getThePrice(feedAddress[betType]),3);\r\n        emit AddEvent(battleId,msg.sender);\r\n        battleId++;\r\n    }\r\n\r\n    /*function getAmount(uint256 battle_id) public view returns (uint){\r\n            return battleInfo[battle_id].amountBet;\r\n        }*/\r\n\r\n    function getBattleInfo(uint256 battle_id) public payable returns(Battle memory) {\r\n        Battle storage bate=battleInfo[battle_id];\r\n        require(bate.amountBet>0, \"Battle number isn't exist.\\n\");\r\n        //require(battleInfo[battle_id].creator!=battleInfo[battle_id].opponent, \"This battle didn't start.\");\r\n        return battleInfo[battle_id];\r\n    }\r\n\r\n    function getAll() public view returns (Battle[] memory){\r\n            Battle[] memory ret = new Battle[](battleId);\r\n            for (uint i = 0; i < battleId; i++) {\r\n                ret[i] = battleInfo[i];\r\n            }\r\n            return ret;\r\n        }\r\n\r\n    /*\r\n    function setPrice() public {\r\n        if(isKovan){\r\n        feed= age.getThePrice(0x9326BFA02ADD2366b30bacB125260Af641031331);\r\n        }\r\n        else{age.getThePrice(0x8A753747A1Fa494EC906cE90E9f37563A8AF630e);}\r\n    }\r\n    function getPrice() public view returns (int){\r\n        return feed;\r\n    }\r\n    */\r\n    /*function getId() public view returns (uint256){\r\n        return battleId;\r\n    }*/\r\n\r\n    /*function getEvent() public {\r\n        emit MyEvent(battleId,battleId);\r\n    }*/\r\n\r\n    // an opponent is signed to battle number: battleid\r\n    function acceptBattle(uint256 battle_id) public payable{\r\n\r\n        Battle storage bate=battleInfo[battle_id];\r\n        require(bate.amountBet>0, \"Battle number isn't exist.\\n\");\r\n        require(bate.creator!=msg.sender, \"Impossible to fight against yourself.\"); // in comment until we test with two different players\r\n        require(bate.creator==bate.opponent, \"This battle is closed, opponent already exist.\");\r\n        require(msg.value==bate.amountBet, \"Betting value isn't as specified for this battle.\");\r\n        bate.opponent=msg.sender;\r\n    }\r\n\r\n    // a creator cancel his battle\r\n    function cancelBattle(uint256 battle_id) public payable{\r\n        Battle memory bate=battleInfo[battle_id];\r\n        require(bate.amountBet>0, \"Battle number isn't exist.\");\r\n        require(bate.creator==msg.sender, \"Only the creator may cancel his own battle.\");\r\n\r\n        require(bate.creator==bate.opponent, \"There is already opponent, this battle can't be canceled.\");\r\n        payable(bate.creator).transfer(bate.amountBet); // return the amount invested\r\n        delete battleInfo[battle_id]; // battle is canceled\r\n    }\r\n\r\n\r\n    /*function getcurrVal(uint256 battle_id) public view returns (uint256){\r\n        require(msg.sender==battleInfo[battle_id].creator||msg.sender==battleInfo[battle_id].opponent, \"You are not part of this battle.\");\r\n        return battleInfo[battle_id].amountBet;\r\n    }*/\r\n\r\n    // the winner may draw his money\r\n    function withdraw(uint256 battle_id) public {\r\n        int winner; // 0=lose 1=win 2=draw\r\n        int oldPrice;\r\n        int newPrice;\r\n        Battle storage bate=battleInfo[battle_id];\r\n        require(battleInfo[battle_id].creator!=battleInfo[battle_id].opponent, \"This battle didn't start.\"); // in case the creator try to withdraw before having opponent. He may cancel battle if he wants.\r\n        require((bate.creator==msg.sender||bate.opponent==msg.sender), \"You are not part of this battle.\"); // can be deleted if comes with getcurrval\r\n        //require(block.timestamp>=bate.betDate, \"Too early to check who is the winner.\");\r\n        require(bate.whoWin==3, \"Withdraw already.\");\r\n        oldPrice=bate.currVal;\r\n        newPrice=age.getThePrice(feedAddress[bate.betType]);\r\n        // deliver the money to the winner\r\n        if(oldPrice<newPrice){\r\n\r\n            if(bate.isUp){\r\n                winner=1;\r\n                payable(bate.creator).transfer(2*bate.amountBet); // multiply by 2 since we deliver the money of both the creator and his opponent\r\n            }\r\n            else{\r\n                winner=0;\r\n                payable(bate.opponent).transfer(2*bate.amountBet);\r\n            }\r\n\r\n        }\r\n        else if(oldPrice>newPrice){\r\n\r\n            if(bate.isUp){\r\n                winner=0;\r\n                payable(bate.opponent).transfer(2*bate.amountBet);\r\n            }\r\n            else{\r\n                winner=1;\r\n                payable(bate.creator).transfer(2*bate.amountBet);\r\n            }\r\n        }\r\n        // if nothing has changed, the creator lose his money\r\n        else {\r\n            winner=2;\r\n            payable(bate.opponent).transfer(bate.amountBet);\r\n            payable(bate.creator).transfer(bate.amountBet);\r\n        }\r\n        bate.whoWin=winner;\r\n        // sign the event\r\n        //emit MyEvent(battle_id,bate.amountBet*2,winner);\r\n        //delete battleInfo[battle_id]; // battle is finished\r\n    }\r\n\r\n    //just for testing\r\n    /*function removeBattle(uint256 battle_id) public {\r\n        require(battleInfo[battle_id].amountBet>0, \"Battle number isn't exist.\\n\");\r\n        //delete battleInfo[battle_id]; // battle is canceled\r\n    }*/\r\n\r\n\r\n\r\n}",
  "sourcePath": "C:/Users/Admin/IdeaProjects/tau_Smart_contract/src/solidity/contracts/BinaryOption.sol",
  "compiler": {
    "name": "solc",
    "version": "0.8.3+commit.8d00100c.Emscripten.clang"
  },
  "schemaVersion": "3.3.4",
  "updatedAt": "2021-07-29T21:14:31.498Z",
  "networkType": "ethereum",
  "devdoc": {
    "kind": "dev",
    "methods": {},
    "version": 1
  },
  "userdoc": {
    "kind": "user",
    "methods": {},
    "version": 1
  }
}