{
  "contractName": "BinaryOption",
  "abi": [
    {
      "inputs": [],
      "stateMutability": "nonpayable",
      "type": "constructor"
    },
    {
      "anonymous": false,
      "inputs": [
        {
          "indexed": true,
          "internalType": "uint256",
          "name": "id",
          "type": "uint256"
        },
        {
          "indexed": false,
          "internalType": "address",
          "name": "address_field",
          "type": "address"
        }
      ],
      "name": "AddEvent",
      "type": "event"
    },
    {
      "inputs": [],
      "name": "age",
      "outputs": [
        {
          "internalType": "contract Aggre",
          "name": "",
          "type": "address"
        }
      ],
      "stateMutability": "view",
      "type": "function",
      "constant": true
    },
    {
      "inputs": [],
      "name": "battleId",
      "outputs": [
        {
          "internalType": "uint256",
          "name": "",
          "type": "uint256"
        }
      ],
      "stateMutability": "view",
      "type": "function",
      "constant": true
    },
    {
      "inputs": [
        {
          "internalType": "uint256",
          "name": "",
          "type": "uint256"
        }
      ],
      "name": "battleInfo",
      "outputs": [
        {
          "internalType": "address",
          "name": "creator",
          "type": "address"
        },
        {
          "internalType": "address",
          "name": "opponent",
          "type": "address"
        },
        {
          "internalType": "uint256",
          "name": "amountBet",
          "type": "uint256"
        },
        {
          "internalType": "string",
          "name": "betType",
          "type": "string"
        },
        {
          "internalType": "uint256",
          "name": "betDate",
          "type": "uint256"
        },
        {
          "internalType": "bool",
          "name": "isUp",
          "type": "bool"
        },
        {
          "internalType": "int256",
          "name": "currVal",
          "type": "int256"
        },
        {
          "internalType": "int256",
          "name": "whoWin",
          "type": "int256"
        }
      ],
      "stateMutability": "view",
      "type": "function",
      "constant": true
    },
    {
      "inputs": [
        {
          "internalType": "string",
          "name": "",
          "type": "string"
        }
      ],
      "name": "feedAddress",
      "outputs": [
        {
          "internalType": "address",
          "name": "",
          "type": "address"
        }
      ],
      "stateMutability": "view",
      "type": "function",
      "constant": true
    },
    {
      "inputs": [],
      "name": "owner",
      "outputs": [
        {
          "internalType": "address",
          "name": "",
          "type": "address"
        }
      ],
      "stateMutability": "view",
      "type": "function",
      "constant": true
    },
    {
      "inputs": [],
      "name": "tempVal",
      "outputs": [
        {
          "internalType": "uint256",
          "name": "",
          "type": "uint256"
        }
      ],
      "stateMutability": "view",
      "type": "function",
      "constant": true
    },
    {
      "inputs": [
        {
          "internalType": "string",
          "name": "betType",
          "type": "string"
        },
        {
          "internalType": "uint256",
          "name": "betDate",
          "type": "uint256"
        },
        {
          "internalType": "bool",
          "name": "direction",
          "type": "bool"
        }
      ],
      "name": "addBattle",
      "outputs": [],
      "stateMutability": "payable",
      "type": "function",
      "payable": true
    },
    {
      "inputs": [
        {
          "internalType": "uint256",
          "name": "battle_id",
          "type": "uint256"
        }
      ],
      "name": "getBattleInfo",
      "outputs": [
        {
          "components": [
            {
              "internalType": "address",
              "name": "creator",
              "type": "address"
            },
            {
              "internalType": "address",
              "name": "opponent",
              "type": "address"
            },
            {
              "internalType": "uint256",
              "name": "amountBet",
              "type": "uint256"
            },
            {
              "internalType": "string",
              "name": "betType",
              "type": "string"
            },
            {
              "internalType": "uint256",
              "name": "betDate",
              "type": "uint256"
            },
            {
              "internalType": "bool",
              "name": "isUp",
              "type": "bool"
            },
            {
              "internalType": "int256",
              "name": "currVal",
              "type": "int256"
            },
            {
              "internalType": "int256",
              "name": "whoWin",
              "type": "int256"
            }
          ],
          "internalType": "struct BinaryOption.Battle",
          "name": "",
          "type": "tuple"
        }
      ],
      "stateMutability": "view",
      "type": "function",
      "constant": true
    },
    {
      "inputs": [],
      "name": "getAll",
      "outputs": [
        {
          "components": [
            {
              "internalType": "address",
              "name": "creator",
              "type": "address"
            },
            {
              "internalType": "address",
              "name": "opponent",
              "type": "address"
            },
            {
              "internalType": "uint256",
              "name": "amountBet",
              "type": "uint256"
            },
            {
              "internalType": "string",
              "name": "betType",
              "type": "string"
            },
            {
              "internalType": "uint256",
              "name": "betDate",
              "type": "uint256"
            },
            {
              "internalType": "bool",
              "name": "isUp",
              "type": "bool"
            },
            {
              "internalType": "int256",
              "name": "currVal",
              "type": "int256"
            },
            {
              "internalType": "int256",
              "name": "whoWin",
              "type": "int256"
            }
          ],
          "internalType": "struct BinaryOption.Battle[]",
          "name": "",
          "type": "tuple[]"
        }
      ],
      "stateMutability": "view",
      "type": "function",
      "constant": true
    },
    {
      "inputs": [
        {
          "internalType": "uint256",
          "name": "battle_id",
          "type": "uint256"
        }
      ],
      "name": "acceptBattle",
      "outputs": [],
      "stateMutability": "payable",
      "type": "function",
      "payable": true
    },
    {
      "inputs": [
        {
          "internalType": "uint256",
          "name": "battle_id",
          "type": "uint256"
        }
      ],
      "name": "withdraw",
      "outputs": [],
      "stateMutability": "nonpayable",
      "type": "function"
    }
  ],
  "bytecode": "0x60806040523480156200001157600080fd5b50604051620000209062000177565b604051809103906000f0801580156200003d573d6000803e3d6000fd5b50600660006101000a81548173ffffffffffffffffffffffffffffffffffffffff021916908373ffffffffffffffffffffffffffffffffffffffff16021790555060008015620000fe57739326bfa02add2366b30bacb125260af6410313316005604051620000ac90620001ac565b908152602001604051809103902060006101000a81548173ffffffffffffffffffffffffffffffffffffffff021916908373ffffffffffffffffffffffffffffffffffffffff16021790555062000170565b738a753747a1fa494ec906ce90e9f37563a8af630e60056040516200012390620001ac565b908152602001604051809103902060006101000a81548173ffffffffffffffffffffffffffffffffffffffff021916908373ffffffffffffffffffffffffffffffffffffffff1602179055505b50620001f7565b61031c806200269683390190565b600062000194600883620001c3565b9150620001a182620001ce565b600882019050919050565b6000620001b98262000185565b9150819050919050565b600081905092915050565b7f4574685673557364000000000000000000000000000000000000000000000000600082015250565b61248f80620002076000396000f3fe60806040526004361061009c5760003560e01c80638da5cb5b116100645780638da5cb5b14610167578063a9e23bea14610192578063bfc8b8c6146101bd578063c0a6e9d7146101d9578063db71dcdc14610216578063e4bb7a1e1461025a5761009c565b806301a1b778146100a1578063262a9dff146100cc5780632e1a7d4d146100f757806353ed51431461012057806381ec30f21461014b575b600080fd5b3480156100ad57600080fd5b506100b6610297565b6040516100c39190611e92565b60405180910390f35b3480156100d857600080fd5b506100e161029d565b6040516100ee9190611d35565b60405180910390f35b34801561010357600080fd5b5061011e6004803603810190610119919061174f565b6102c3565b005b34801561012c57600080fd5b5061013561096c565b6040516101429190611d13565b60405180910390f35b6101656004803603810190610160919061174f565b610bf9565b005b34801561017357600080fd5b5061017c610e2d565b6040516101899190611c73565b60405180910390f35b34801561019e57600080fd5b506101a7610e53565b6040516101b49190611e92565b60405180910390f35b6101d760048036038101906101d291906116e8565b610e59565b005b3480156101e557600080fd5b5061020060048036038101906101fb919061174f565b61114d565b60405161020d9190611e70565b60405180910390f35b34801561022257600080fd5b5061023d6004803603810190610238919061174f565b61135b565b604051610251989796959493929190611c8e565b60405180910390f35b34801561026657600080fd5b50610281600480360381019061027c91906116a7565b611478565b60405161028e9190611c73565b60405180910390f35b60005481565b600660009054906101000a900473ffffffffffffffffffffffffffffffffffffffff1681565b6000806000806001600086815260200190815260200160002090506001600086815260200190815260200160002060010160009054906101000a900473ffffffffffffffffffffffffffffffffffffffff1673ffffffffffffffffffffffffffffffffffffffff166001600087815260200190815260200160002060000160009054906101000a900473ffffffffffffffffffffffffffffffffffffffff1673ffffffffffffffffffffffffffffffffffffffff1614156103b9576040517f08c379a00000000000000000000000000000000000000000000000000000000081526004016103b090611d70565b60405180910390fd5b3373ffffffffffffffffffffffffffffffffffffffff168160000160009054906101000a900473ffffffffffffffffffffffffffffffffffffffff1673ffffffffffffffffffffffffffffffffffffffff16148061046657503373ffffffffffffffffffffffffffffffffffffffff168160010160009054906101000a900473ffffffffffffffffffffffffffffffffffffffff1673ffffffffffffffffffffffffffffffffffffffff16145b6104a5576040517f08c379a000000000000000000000000000000000000000000000000000000000815260040161049c90611db0565b60405180910390fd5b80600401544210156104ec576040517f08c379a00000000000000000000000000000000000000000000000000000000081526004016104e390611e30565b60405180910390fd5b6003816007015414610533576040517f08c379a000000000000000000000000000000000000000000000000000000000815260040161052a90611dd0565b60405180910390fd5b80600601549250600660009054906101000a900473ffffffffffffffffffffffffffffffffffffffff1673ffffffffffffffffffffffffffffffffffffffff166344a11f6560058360030160405161058b9190611c5c565b908152602001604051809103902060009054906101000a900473ffffffffffffffffffffffffffffffffffffffff166040518263ffffffff1660e01b81526004016105d69190611c73565b60206040518083038186803b1580156105ee57600080fd5b505afa158015610602573d6000803e3d6000fd5b505050506040513d601f19601f82011682018060405250810190610626919061167e565b915081831215610750578060050160009054906101000a900460ff16156106cb57600193508060000160009054906101000a900473ffffffffffffffffffffffffffffffffffffffff1673ffffffffffffffffffffffffffffffffffffffff166108fc8260020154600261069a9190611f89565b9081150290604051600060405180830381858888f193505050501580156106c5573d6000803e3d6000fd5b5061074b565b600093508060010160009054906101000a900473ffffffffffffffffffffffffffffffffffffffff1673ffffffffffffffffffffffffffffffffffffffff166108fc8260020154600261071e9190611f89565b9081150290604051600060405180830381858888f19350505050158015610749573d6000803e3d6000fd5b505b61095c565b81831315610878578060050160009054906101000a900460ff16156107f357600093508060010160009054906101000a900473ffffffffffffffffffffffffffffffffffffffff1673ffffffffffffffffffffffffffffffffffffffff166108fc826002015460026107c29190611f89565b9081150290604051600060405180830381858888f193505050501580156107ed573d6000803e3d6000fd5b50610873565b600193508060000160009054906101000a900473ffffffffffffffffffffffffffffffffffffffff1673ffffffffffffffffffffffffffffffffffffffff166108fc826002015460026108469190611f89565b9081150290604051600060405180830381858888f19350505050158015610871573d6000803e3d6000fd5b505b61095b565b600293508060010160009054906101000a900473ffffffffffffffffffffffffffffffffffffffff1673ffffffffffffffffffffffffffffffffffffffff166108fc82600201549081150290604051600060405180830381858888f193505050501580156108ea573d6000803e3d6000fd5b508060000160009054906101000a900473ffffffffffffffffffffffffffffffffffffffff1673ffffffffffffffffffffffffffffffffffffffff166108fc82600201549081150290604051600060405180830381858888f19350505050158015610959573d6000803e3d6000fd5b505b5b8381600701819055505050505050565b60606000805467ffffffffffffffff8111156109b1577f4e487b7100000000000000000000000000000000000000000000000000000000600052604160045260246000fd5b6040519080825280602002602001820160405280156109ea57816020015b6109d76114c1565b8152602001906001900390816109cf5790505b50905060005b600054811015610bf15760016000828152602001908152602001600020604051806101000160405290816000820160009054906101000a900473ffffffffffffffffffffffffffffffffffffffff1673ffffffffffffffffffffffffffffffffffffffff1673ffffffffffffffffffffffffffffffffffffffff1681526020016001820160009054906101000a900473ffffffffffffffffffffffffffffffffffffffff1673ffffffffffffffffffffffffffffffffffffffff1673ffffffffffffffffffffffffffffffffffffffff16815260200160028201548152602001600382018054610adf9061209b565b80601f0160208091040260200160405190810160405280929190818152602001828054610b0b9061209b565b8015610b585780601f10610b2d57610100808354040283529160200191610b58565b820191906000526020600020905b815481529060010190602001808311610b3b57829003601f168201915b50505050508152602001600482015481526020016005820160009054906101000a900460ff1615151515815260200160068201548152602001600782015481525050828281518110610bd3577f4e487b7100000000000000000000000000000000000000000000000000000000600052603260045260246000fd5b60200260200101819052508080610be9906120fe565b9150506109f0565b508091505090565b60006001600083815260200190815260200160002090506000816002015411610c57576040517f08c379a0000000000000000000000000000000000000000000000000000000008152600401610c4e90611e10565b60405180910390fd5b3373ffffffffffffffffffffffffffffffffffffffff168160000160009054906101000a900473ffffffffffffffffffffffffffffffffffffffff1673ffffffffffffffffffffffffffffffffffffffff161415610cea576040517f08c379a0000000000000000000000000000000000000000000000000000000008152600401610ce190611d50565b60405180910390fd5b8060010160009054906101000a900473ffffffffffffffffffffffffffffffffffffffff1673ffffffffffffffffffffffffffffffffffffffff168160000160009054906101000a900473ffffffffffffffffffffffffffffffffffffffff1673ffffffffffffffffffffffffffffffffffffffff1614610da0576040517f08c379a0000000000000000000000000000000000000000000000000000000008152600401610d9790611df0565b60405180910390fd5b80600201543414610de6576040517f08c379a0000000000000000000000000000000000000000000000000000000008152600401610ddd90611e50565b60405180910390fd5b338160010160006101000a81548173ffffffffffffffffffffffffffffffffffffffff021916908373ffffffffffffffffffffffffffffffffffffffff1602179055505050565b600260009054906101000a900473ffffffffffffffffffffffffffffffffffffffff1681565b60035481565b60003411610e9c576040517f08c379a0000000000000000000000000000000000000000000000000000000008152600401610e9390611d90565b60405180910390fd5b6040518061010001604052803373ffffffffffffffffffffffffffffffffffffffff1681526020013373ffffffffffffffffffffffffffffffffffffffff1681526020013481526020018481526020018381526020018215158152602001600660009054906101000a900473ffffffffffffffffffffffffffffffffffffffff1673ffffffffffffffffffffffffffffffffffffffff166344a11f65600587604051610f489190611c45565b908152602001604051809103902060009054906101000a900473ffffffffffffffffffffffffffffffffffffffff166040518263ffffffff1660e01b8152600401610f939190611c73565b60206040518083038186803b158015610fab57600080fd5b505afa158015610fbf573d6000803e3d6000fd5b505050506040513d601f19601f82011682018060405250810190610fe3919061167e565b81526020016003815250600160008054815260200190815260200160002060008201518160000160006101000a81548173ffffffffffffffffffffffffffffffffffffffff021916908373ffffffffffffffffffffffffffffffffffffffff16021790555060208201518160010160006101000a81548173ffffffffffffffffffffffffffffffffffffffff021916908373ffffffffffffffffffffffffffffffffffffffff1602179055506040820151816002015560608201518160030190805190602001906110b5929190611534565b506080820151816004015560a08201518160050160006101000a81548160ff02191690831515021790555060c0820151816006015560e082015181600701559050506000547fa85f9845510d83562eaa9e779b6973f58826879a69d5613807f0415e1ce692c4336040516111299190611c73565b60405180910390a2600080815480929190611143906120fe565b9190505550505050565b6111556114c1565b600060016000848152602001908152602001600020905060008160020154116111b3576040517f08c379a00000000000000000000000000000000000000000000000000000000081526004016111aa90611e10565b60405180910390fd5b60016000848152602001908152602001600020604051806101000160405290816000820160009054906101000a900473ffffffffffffffffffffffffffffffffffffffff1673ffffffffffffffffffffffffffffffffffffffff1673ffffffffffffffffffffffffffffffffffffffff1681526020016001820160009054906101000a900473ffffffffffffffffffffffffffffffffffffffff1673ffffffffffffffffffffffffffffffffffffffff1673ffffffffffffffffffffffffffffffffffffffff168152602001600282015481526020016003820180546112989061209b565b80601f01602080910402602001604051908101604052809291908181526020018280546112c49061209b565b80156113115780601f106112e657610100808354040283529160200191611311565b820191906000526020600020905b8154815290600101906020018083116112f457829003601f168201915b50505050508152602001600482015481526020016005820160009054906101000a900460ff1615151515815260200160068201548152602001600782015481525050915050919050565b60016020528060005260406000206000915090508060000160009054906101000a900473ffffffffffffffffffffffffffffffffffffffff16908060010160009054906101000a900473ffffffffffffffffffffffffffffffffffffffff16908060020154908060030180546113d09061209b565b80601f01602080910402602001604051908101604052809291908181526020018280546113fc9061209b565b80156114495780601f1061141e57610100808354040283529160200191611449565b820191906000526020600020905b81548152906001019060200180831161142c57829003601f168201915b5050505050908060040154908060050160009054906101000a900460ff16908060060154908060070154905088565b6005818051602081018201805184825260208301602085012081835280955050505050506000915054906101000a900473ffffffffffffffffffffffffffffffffffffffff1681565b604051806101000160405280600073ffffffffffffffffffffffffffffffffffffffff168152602001600073ffffffffffffffffffffffffffffffffffffffff16815260200160008152602001606081526020016000815260200160001515815260200160008152602001600081525090565b8280546115409061209b565b90600052602060002090601f01602090048101928261156257600085556115a9565b82601f1061157b57805160ff19168380011785556115a9565b828001600101855582156115a9579182015b828111156115a857825182559160200191906001019061158d565b5b5090506115b691906115ba565b5090565b5b808211156115d35760008160009055506001016115bb565b5090565b60006115ea6115e584611ed2565b611ead565b90508281526020810184848401111561160257600080fd5b61160d848285612059565b509392505050565b60008135905061162481612414565b92915050565b6000815190506116398161242b565b92915050565b600082601f83011261165057600080fd5b81356116608482602086016115d7565b91505092915050565b60008135905061167881612442565b92915050565b60006020828403121561169057600080fd5b600061169e8482850161162a565b91505092915050565b6000602082840312156116b957600080fd5b600082013567ffffffffffffffff8111156116d357600080fd5b6116df8482850161163f565b91505092915050565b6000806000606084860312156116fd57600080fd5b600084013567ffffffffffffffff81111561171757600080fd5b6117238682870161163f565b935050602061173486828701611669565b925050604061174586828701611615565b9150509250925092565b60006020828403121561176157600080fd5b600061176f84828501611669565b91505092915050565b60006117848383611ac7565b905092915050565b61179581611fe3565b82525050565b6117a481611fe3565b82525050565b60006117b582611f28565b6117bf8185611f4b565b9350836020820285016117d185611f03565b8060005b8581101561180d57848403895281516117ee8582611778565b94506117f983611f3e565b925060208a019950506001810190506117d5565b50829750879550505050505092915050565b61182881611ff5565b82525050565b61183781611ff5565b82525050565b61184681612035565b82525050565b61185581612001565b82525050565b61186481612001565b82525050565b600061187582611f33565b61187f8185611f5c565b935061188f818560208601612068565b611898816121d4565b840191505092915050565b60006118ae82611f33565b6118b88185611f6d565b93506118c8818560208601612068565b6118d1816121d4565b840191505092915050565b60006118e782611f33565b6118f18185611f7e565b9350611901818560208601612068565b80840191505092915050565b6000815461191a8161209b565b6119248186611f7e565b9450600182166000811461193f576001811461195057611983565b60ff19831686528186019350611983565b61195985611f13565b60005b8381101561197b5781548189015260018201915060208101905061195c565b838801955050505b50505092915050565b6000611999602583611f6d565b91506119a4826121e5565b604082019050919050565b60006119bc601983611f6d565b91506119c782612234565b602082019050919050565b60006119df602283611f6d565b91506119ea8261225d565b604082019050919050565b6000611a02602083611f6d565b9150611a0d826122ac565b602082019050919050565b6000611a25601183611f6d565b9150611a30826122d5565b602082019050919050565b6000611a48602e83611f6d565b9150611a53826122fe565b604082019050919050565b6000611a6b601b83611f6d565b9150611a768261234d565b602082019050919050565b6000611a8e602583611f6d565b9150611a9982612376565b604082019050919050565b6000611ab1603183611f6d565b9150611abc826123c5565b604082019050919050565b600061010083016000830151611ae0600086018261178c565b506020830151611af3602086018261178c565b506040830151611b066040860182611c27565b5060608301518482036060860152611b1e828261186a565b9150506080830151611b336080860182611c27565b5060a0830151611b4660a086018261181f565b5060c0830151611b5960c086018261184c565b5060e0830151611b6c60e086018261184c565b508091505092915050565b600061010083016000830151611b90600086018261178c565b506020830151611ba3602086018261178c565b506040830151611bb66040860182611c27565b5060608301518482036060860152611bce828261186a565b9150506080830151611be36080860182611c27565b5060a0830151611bf660a086018261181f565b5060c0830151611c0960c086018261184c565b5060e0830151611c1c60e086018261184c565b508091505092915050565b611c308161202b565b82525050565b611c3f8161202b565b82525050565b6000611c5182846118dc565b915081905092915050565b6000611c68828461190d565b915081905092915050565b6000602082019050611c88600083018461179b565b92915050565b600061010082019050611ca4600083018b61179b565b611cb1602083018a61179b565b611cbe6040830189611c36565b8181036060830152611cd081886118a3565b9050611cdf6080830187611c36565b611cec60a083018661182e565b611cf960c083018561185b565b611d0660e083018461185b565b9998505050505050505050565b60006020820190508181036000830152611d2d81846117aa565b905092915050565b6000602082019050611d4a600083018461183d565b92915050565b60006020820190508181036000830152611d698161198c565b9050919050565b60006020820190508181036000830152611d89816119af565b9050919050565b60006020820190508181036000830152611da9816119d2565b9050919050565b60006020820190508181036000830152611dc9816119f5565b9050919050565b60006020820190508181036000830152611de981611a18565b9050919050565b60006020820190508181036000830152611e0981611a3b565b9050919050565b60006020820190508181036000830152611e2981611a5e565b9050919050565b60006020820190508181036000830152611e4981611a81565b9050919050565b60006020820190508181036000830152611e6981611aa4565b9050919050565b60006020820190508181036000830152611e8a8184611b77565b905092915050565b6000602082019050611ea76000830184611c36565b92915050565b6000611eb7611ec8565b9050611ec382826120cd565b919050565b6000604051905090565b600067ffffffffffffffff821115611eed57611eec6121a5565b5b611ef6826121d4565b9050602081019050919050565b6000819050602082019050919050565b60008190508160005260206000209050919050565b600081519050919050565b600081519050919050565b6000602082019050919050565b600082825260208201905092915050565b600082825260208201905092915050565b600082825260208201905092915050565b600081905092915050565b6000611f948261202b565b9150611f9f8361202b565b9250817fffffffffffffffffffffffffffffffffffffffffffffffffffffffffffffffff0483118215151615611fd857611fd7612147565b5b828202905092915050565b6000611fee8261200b565b9050919050565b60008115159050919050565b6000819050919050565b600073ffffffffffffffffffffffffffffffffffffffff82169050919050565b6000819050919050565b600061204082612047565b9050919050565b60006120528261200b565b9050919050565b82818337600083830152505050565b60005b8381101561208657808201518184015260208101905061206b565b83811115612095576000848401525b50505050565b600060028204905060018216806120b357607f821691505b602082108114156120c7576120c6612176565b5b50919050565b6120d6826121d4565b810181811067ffffffffffffffff821117156120f5576120f46121a5565b5b80604052505050565b60006121098261202b565b91507fffffffffffffffffffffffffffffffffffffffffffffffffffffffffffffffff82141561213c5761213b612147565b5b600182019050919050565b7f4e487b7100000000000000000000000000000000000000000000000000000000600052601160045260246000fd5b7f4e487b7100000000000000000000000000000000000000000000000000000000600052602260045260246000fd5b7f4e487b7100000000000000000000000000000000000000000000000000000000600052604160045260246000fd5b6000601f19601f8301169050919050565b7f496d706f737369626c6520746f20666967687420616761696e737420796f757260008201527f73656c662e000000000000000000000000000000000000000000000000000000602082015250565b7f5468697320626174746c65206469646e27742073746172742e00000000000000600082015250565b7f596f75206861766520746f20626574206f6e20706f7369746976652076616c7560008201527f6521000000000000000000000000000000000000000000000000000000000000602082015250565b7f596f7520617265206e6f742070617274206f66207468697320626174746c652e600082015250565b7f576974686472617720616c72656164792e000000000000000000000000000000600082015250565b7f5468697320626174746c6520697320636c6f7365642c206f70706f6e656e742060008201527f616c72656164792065786973742e000000000000000000000000000000000000602082015250565b7f426174746c65206e756d6265722069736e27742065786973742e0a0000000000600082015250565b7f546f6f206561726c7920746f20636865636b2077686f2069732074686520776960008201527f6e6e65722e000000000000000000000000000000000000000000000000000000602082015250565b7f42657474696e672076616c75652069736e27742061732073706563696669656460008201527f20666f72207468697320626174746c652e000000000000000000000000000000602082015250565b61241d81611ff5565b811461242857600080fd5b50565b61243481612001565b811461243f57600080fd5b50565b61244b8161202b565b811461245657600080fd5b5056fea26469706673582212204e7daf1ea2e46ae184464f4e0aecdf8259733e2d7e18571c3e96d6040557e89c64736f6c63430008030033608060405234801561001057600080fd5b506102fc806100206000396000f3fe608060405234801561001057600080fd5b506004361061002b5760003560e01c806344a11f6514610030575b600080fd5b61004a60048036038101906100459190610144565b610060565b60405161005791906101f3565b60405180910390f35b6000808273ffffffffffffffffffffffffffffffffffffffff1663feaf968c6040518163ffffffff1660e01b815260040160a06040518083038186803b1580156100a957600080fd5b505afa1580156100bd573d6000803e3d6000fd5b505050506040513d601f19601f820116820180604052508101906100e1919061016d565b50505091505080915050919050565b6000813590506100ff8161026a565b92915050565b60008151905061011481610281565b92915050565b60008151905061012981610298565b92915050565b60008151905061013e816102af565b92915050565b60006020828403121561015657600080fd5b6000610164848285016100f0565b91505092915050565b600080600080600060a0868803121561018557600080fd5b60006101938882890161012f565b95505060206101a488828901610105565b94505060406101b58882890161011a565b93505060606101c68882890161011a565b92505060806101d78882890161012f565b9150509295509295909350565b6101ed81610220565b82525050565b600060208201905061020860008301846101e4565b92915050565b60006102198261022a565b9050919050565b6000819050919050565b600073ffffffffffffffffffffffffffffffffffffffff82169050919050565b6000819050919050565b600069ffffffffffffffffffff82169050919050565b6102738161020e565b811461027e57600080fd5b50565b61028a81610220565b811461029557600080fd5b50565b6102a18161024a565b81146102ac57600080fd5b50565b6102b881610254565b81146102c357600080fd5b5056fea26469706673582212202a0a54a5eda5496a276a896b43c63245c53170adefc666f43e1644db5d5b3d3564736f6c63430008030033",
  "immutableReferences": {},
  "source": "// SPDX-License-Identifier: MIT\r\npragma solidity ^0.8.3;\r\nimport \"./Aggre.sol\";\r\n\r\ncontract BinaryOption{\r\n\r\n    uint256  public battleId; // unique id for each battle\r\n    mapping(uint256 => Battle) public battleInfo; // map of the existing battles\r\n    address public owner; // the creator of the contract (we)\r\n    uint  public tempVal;\r\n    int feed;\r\n    mapping(string=>address) public feedAddress;\r\n    Aggre public age;\r\n\r\n    /*event MyEvent(\r\n    uint256 indexed id,\r\n    uint256 indexed amount,\r\n    int win\r\n    );*/\r\n\r\n    event AddEvent(\r\n    uint256 indexed id,\r\n    address address_field\r\n    );\r\n\r\n    struct Battle {\r\n        address creator;\r\n        address opponent;\r\n        uint256 amountBet;\r\n        string betType;\r\n        uint betDate;\r\n        bool isUp;\r\n        int currVal;\r\n        int whoWin; // 0 for opponent, 1 for creator, 2 for draw, 3 if not over\r\n    }\r\n\r\n\r\n    constructor()  {\r\n        age=new Aggre();\r\n        bool isKovan=false; // true if kovan, otherwise rinkeby\r\n        //owner = msg.sender;\r\n        if(isKovan){\r\n        feedAddress[\"EthVsUsd\"]=0x9326BFA02ADD2366b30bacB125260Af641031331;\r\n        }\r\n        else{\r\n        // those addresses (of rinkbey test network) can be found at: https://docs.chain.link/docs/ethereum-addresses/\r\n        feedAddress[\"EthVsUsd\"]=0x8A753747A1Fa494EC906cE90E9f37563A8AF630e;\r\n        //feedAddress[\"BtcVsUsd\"]=0x6135b13325bfC4B00278B4abC5e20bbce2D6580e;\r\n        //feedAddress[\"EurVsUsd\"]=0x0c15Ab9A0DB086e062194c273CC79f41597Bbf13;\r\n        }\r\n\r\n    }\r\n\r\n\r\n    // a creator create a new battle\r\n    function addBattle(string memory betType,uint betDate,bool direction) public payable {\r\n        require(msg.value>0, \"You have to bet on positive value!\");\r\n        battleInfo[battleId]=Battle(msg.sender,msg.sender,msg.value,betType,betDate,direction,age.getThePrice(feedAddress[betType]),3);\r\n        emit AddEvent(battleId,msg.sender);\r\n        battleId++;\r\n    }\r\n\r\n\r\n\r\n    function getBattleInfo(uint256 battle_id) public view returns(Battle memory) {\r\n        Battle storage bate=battleInfo[battle_id];\r\n        require(bate.amountBet>0, \"Battle number isn't exist.\\n\");\r\n        //require(battleInfo[battle_id].creator!=battleInfo[battle_id].opponent, \"This battle didn't start.\");\r\n        return battleInfo[battle_id];\r\n    }\r\n\r\n    function getAll() public view returns (Battle[] memory){\r\n            Battle[] memory ret = new Battle[](battleId);\r\n            for (uint i = 0; i < battleId; i++) {\r\n                ret[i] = battleInfo[i];\r\n            }\r\n            return ret;\r\n        }\r\n\r\n\r\n\r\n    // an opponent is signed to battle number: battleid\r\n    function acceptBattle(uint256 battle_id) public payable{\r\n\r\n        Battle storage bate=battleInfo[battle_id];\r\n        require(bate.amountBet>0, \"Battle number isn't exist.\\n\");\r\n        require(bate.creator!=msg.sender, \"Impossible to fight against yourself.\"); // in comment until we test with two different players\r\n        require(bate.creator==bate.opponent, \"This battle is closed, opponent already exist.\");\r\n        require(msg.value==bate.amountBet, \"Betting value isn't as specified for this battle.\");\r\n        bate.opponent=msg.sender;\r\n    }\r\n\r\n\r\n\r\n    // the winner may draw his money\r\n    function withdraw(uint256 battle_id) public {\r\n\r\n        int winner; // 0=lose 1=win 2=draw\r\n        int oldPrice;\r\n        int newPrice;\r\n        Battle storage bate=battleInfo[battle_id];\r\n        require(battleInfo[battle_id].creator!=battleInfo[battle_id].opponent, \"This battle didn't start.\"); // in case the creator try to withdraw before having opponent. He may cancel battle if he wants.\r\n        require((bate.creator==msg.sender||bate.opponent==msg.sender), \"You are not part of this battle.\"); // can be deleted if comes with getcurrval\r\n        require(block.timestamp>=bate.betDate, \"Too early to check who is the winner.\");\r\n        require(bate.whoWin==3, \"Withdraw already.\");\r\n        oldPrice=bate.currVal;\r\n        newPrice=age.getThePrice(feedAddress[bate.betType]);\r\n        // deliver the money to the winner\r\n        if(oldPrice<newPrice){\r\n\r\n            if(bate.isUp){\r\n                winner=1;\r\n                payable(bate.creator).transfer(2*bate.amountBet); // multiply by 2 since we deliver the money of both the creator and his opponent\r\n\r\n            }\r\n            else{\r\n                winner=0;\r\n                payable(bate.opponent).transfer(2*bate.amountBet);\r\n\r\n            }\r\n\r\n        }\r\n        else if(oldPrice>newPrice){\r\n\r\n            if(bate.isUp){\r\n                winner=0;\r\n                payable(bate.opponent).transfer(2*bate.amountBet);\r\n\r\n\r\n            }\r\n            else{\r\n                winner=1;\r\n                payable(bate.creator).transfer(2*bate.amountBet);\r\n\r\n            }\r\n        }\r\n        // if nothing has changed, the creator lose his money\r\n        else {\r\n            winner=2;\r\n            payable(bate.opponent).transfer(bate.amountBet);\r\n            payable(bate.creator).transfer(bate.amountBet);\r\n\r\n        }\r\n        bate.whoWin=winner;\r\n        // sign the event\r\n        //emit MyEvent(battle_id,bate.amountBet*2,winner);\r\n        //delete battleInfo[battle_id]; // battle is finished\r\n    }\r\n\r\n    //just for testing\r\n    /*function removeBattle(uint256 battle_id) public {\r\n        require(battleInfo[battle_id].amountBet>0, \"Battle number isn't exist.\\n\");\r\n        //delete battleInfo[battle_id]; // battle is canceled\r\n    }*/\r\n\r\n\r\n\r\n\r\n\r\n\r\n\r\n}",
  "sourcePath": "/mnt/c/users/admin/ideaprojects/tau_smart_contract/src/solidity/contracts/BinaryOption.sol",
  "compiler": {
    "name": "solc",
    "version": "0.8.3+commit.8d00100c.Emscripten.clang"
  },
  "schemaVersion": "3.4.1",
  "updatedAt": "2021-07-29T05:58:46.687Z",
  "networkType": "ethereum",
  "devdoc": {
    "kind": "dev",
    "methods": {},
    "version": 1
  },
  "userdoc": {
    "kind": "user",
    "methods": {},
    "version": 1
  }
}