{
  "contractName": "BinaryOption",
  "abi": [
    {
      "inputs": [],
      "stateMutability": "nonpayable",
      "type": "constructor"
    },
    {
      "anonymous": false,
      "inputs": [
        {
          "indexed": true,
          "internalType": "uint256",
          "name": "id",
          "type": "uint256"
        },
        {
          "indexed": true,
          "internalType": "uint256",
          "name": "amount",
          "type": "uint256"
        }
      ],
      "name": "MyEvent",
      "type": "event"
    },
    {
      "inputs": [],
      "name": "age",
      "outputs": [
        {
          "internalType": "contract Aggre",
          "name": "",
          "type": "address"
        }
      ],
      "stateMutability": "view",
      "type": "function"
    },
    {
      "inputs": [],
      "name": "battleId",
      "outputs": [
        {
          "internalType": "uint256",
          "name": "",
          "type": "uint256"
        }
      ],
      "stateMutability": "view",
      "type": "function"
    },
    {
      "inputs": [
        {
          "internalType": "uint256",
          "name": "",
          "type": "uint256"
        }
      ],
      "name": "battleInfo",
      "outputs": [
        {
          "internalType": "address",
          "name": "creator",
          "type": "address"
        },
        {
          "internalType": "address",
          "name": "opponent",
          "type": "address"
        },
        {
          "internalType": "uint256",
          "name": "amountBet",
          "type": "uint256"
        },
        {
          "internalType": "string",
          "name": "betType",
          "type": "string"
        },
        {
          "internalType": "uint256",
          "name": "betDate",
          "type": "uint256"
        },
        {
          "internalType": "bool",
          "name": "isUp",
          "type": "bool"
        },
        {
          "internalType": "int256",
          "name": "currVal",
          "type": "int256"
        }
      ],
      "stateMutability": "view",
      "type": "function"
    },
    {
      "inputs": [
        {
          "internalType": "string",
          "name": "",
          "type": "string"
        }
      ],
      "name": "feedAddress",
      "outputs": [
        {
          "internalType": "address",
          "name": "",
          "type": "address"
        }
      ],
      "stateMutability": "view",
      "type": "function"
    },
    {
      "inputs": [],
      "name": "owner",
      "outputs": [
        {
          "internalType": "address",
          "name": "",
          "type": "address"
        }
      ],
      "stateMutability": "view",
      "type": "function"
    },
    {
      "inputs": [],
      "name": "tempVal",
      "outputs": [
        {
          "internalType": "uint256",
          "name": "",
          "type": "uint256"
        }
      ],
      "stateMutability": "view",
      "type": "function"
    },
    {
      "inputs": [
        {
          "internalType": "string",
          "name": "betType",
          "type": "string"
        },
        {
          "internalType": "uint256",
          "name": "betDate",
          "type": "uint256"
        },
        {
          "internalType": "bool",
          "name": "direction",
          "type": "bool"
        }
      ],
      "name": "addBattle",
      "outputs": [],
      "stateMutability": "payable",
      "type": "function"
    },
    {
      "inputs": [],
      "name": "setIndex",
      "outputs": [],
      "stateMutability": "payable",
      "type": "function"
    },
    {
      "inputs": [
        {
          "internalType": "uint256",
          "name": "battle_id",
          "type": "uint256"
        }
      ],
      "name": "getIndex",
      "outputs": [
        {
          "internalType": "uint256",
          "name": "",
          "type": "uint256"
        }
      ],
      "stateMutability": "view",
      "type": "function"
    },
    {
      "inputs": [],
      "name": "setPrice",
      "outputs": [],
      "stateMutability": "nonpayable",
      "type": "function"
    },
    {
      "inputs": [],
      "name": "getPrice",
      "outputs": [
        {
          "internalType": "int256",
          "name": "",
          "type": "int256"
        }
      ],
      "stateMutability": "view",
      "type": "function"
    },
    {
      "inputs": [],
      "name": "getId",
      "outputs": [
        {
          "internalType": "uint256",
          "name": "",
          "type": "uint256"
        }
      ],
      "stateMutability": "view",
      "type": "function"
    },
    {
      "inputs": [
        {
          "internalType": "uint256",
          "name": "num",
          "type": "uint256"
        }
      ],
      "name": "settempVal",
      "outputs": [],
      "stateMutability": "nonpayable",
      "type": "function"
    },
    {
      "inputs": [],
      "name": "gettempVal",
      "outputs": [
        {
          "internalType": "uint256",
          "name": "",
          "type": "uint256"
        }
      ],
      "stateMutability": "view",
      "type": "function"
    },
    {
      "inputs": [
        {
          "internalType": "uint256",
          "name": "battle_id",
          "type": "uint256"
        }
      ],
      "name": "acceptBattle",
      "outputs": [],
      "stateMutability": "payable",
      "type": "function"
    },
    {
      "inputs": [
        {
          "internalType": "uint256",
          "name": "battle_id",
          "type": "uint256"
        }
      ],
      "name": "cancelBattle",
      "outputs": [],
      "stateMutability": "payable",
      "type": "function"
    },
    {
      "inputs": [
        {
          "internalType": "uint256",
          "name": "battle_id",
          "type": "uint256"
        }
      ],
      "name": "getcurrVal",
      "outputs": [
        {
          "internalType": "uint256",
          "name": "",
          "type": "uint256"
        }
      ],
      "stateMutability": "view",
      "type": "function"
    },
    {
      "inputs": [
        {
          "internalType": "uint256",
          "name": "battle_id",
          "type": "uint256"
        }
      ],
      "name": "withdraw",
      "outputs": [],
      "stateMutability": "nonpayable",
      "type": "function"
    },
    {
      "inputs": [
        {
          "internalType": "uint256",
          "name": "battle_id",
          "type": "uint256"
        }
      ],
      "name": "removeBattle",
      "outputs": [],
      "stateMutability": "nonpayable",
      "type": "function"
    }
  ],
  "bytecode": "0x60806040523480156200001157600080fd5b50604051620000209062000218565b604051809103906000f0801580156200003d573d6000803e3d6000fd5b50600660006101000a81548173ffffffffffffffffffffffffffffffffffffffff021916908373ffffffffffffffffffffffffffffffffffffffff16021790555033600260006101000a81548173ffffffffffffffffffffffffffffffffffffffff021916908373ffffffffffffffffffffffffffffffffffffffff160217905550739326bfa02add2366b30bacb125260af6410313316005604051620000e490620002c9565b908152602001604051809103902060006101000a81548173ffffffffffffffffffffffffffffffffffffffff021916908373ffffffffffffffffffffffffffffffffffffffff160217905550736135b13325bfc4b00278b4abc5e20bbce2d6580e60056040516200015590620002b2565b908152602001604051809103902060006101000a81548173ffffffffffffffffffffffffffffffffffffffff021916908373ffffffffffffffffffffffffffffffffffffffff160217905550730c15ab9a0db086e062194c273cc79f41597bbf136005604051620001c6906200029b565b908152602001604051809103902060006101000a81548173ffffffffffffffffffffffffffffffffffffffff021916908373ffffffffffffffffffffffffffffffffffffffff16021790555062000366565b61032a806200283d83390190565b600062000235600883620002e0565b91506200024282620002eb565b600882019050919050565b60006200025c600883620002e0565b9150620002698262000314565b600882019050919050565b600062000283600883620002e0565b915062000290826200033d565b600882019050919050565b6000620002a88262000226565b9150819050919050565b6000620002bf826200024d565b9150819050919050565b6000620002d68262000274565b9150819050919050565b600081905092915050565b7f4575725673557364000000000000000000000000000000000000000000000000600082015250565b7f4274635673557364000000000000000000000000000000000000000000000000600082015250565b7f4574685673557364000000000000000000000000000000000000000000000000600082015250565b6124c780620003766000396000f3fe6080604052600436106101145760003560e01c80638e7cb6e1116100a0578063b49bbaa211610064578063b49bbaa214610373578063bfc8b8c61461037d578063da93d0d114610399578063db71dcdc146103b0578063e4bb7a1e146103f357610114565b80638e7cb6e11461028e57806395323b50146102cb57806398d5fdca146102f4578063a8cabe981461031f578063a9e23bea1461034857610114565b80634b755702116100e75780634b755702146101d55780634c4c447e146102005780635d1ca6311461021c57806381ec30f2146102475780638da5cb5b1461026357610114565b806301a1b77814610119578063262a9dff146101445780632e1a7d4d1461016f578063460e4cc314610198575b600080fd5b34801561012557600080fd5b5061012e610430565b60405161013b9190611e61565b60405180910390f35b34801561015057600080fd5b50610159610436565b6040516101669190611d0b565b60405180910390f35b34801561017b57600080fd5b5061019660048036038101906101919190611a4a565b61045c565b005b3480156101a457600080fd5b506101bf60048036038101906101ba9190611a4a565b610a76565b6040516101cc9190611e61565b60405180910390f35b3480156101e157600080fd5b506101ea610ba6565b6040516101f79190611e61565b60405180910390f35b61021a60048036038101906102159190611a4a565b610bb0565b005b34801561022857600080fd5b50610231610f6b565b60405161023e9190611e61565b60405180910390f35b610261600480360381019061025c9190611a4a565b610f74565b005b34801561026f57600080fd5b506102786111b0565b6040516102859190611c7a565b60405180910390f35b34801561029a57600080fd5b506102b560048036038101906102b09190611a4a565b6111d6565b6040516102c29190611e61565b60405180910390f35b3480156102d757600080fd5b506102f260048036038101906102ed9190611a4a565b6111f6565b005b34801561030057600080fd5b506103096112f2565b6040516103169190611d26565b60405180910390f35b34801561032b57600080fd5b5061034660048036038101906103419190611a4a565b6112fc565b005b34801561035457600080fd5b5061035d611306565b60405161036a9190611e61565b60405180910390f35b61037b61130c565b005b610397600480360381019061039291906119e3565b611315565b005b3480156103a557600080fd5b506103ae6115c8565b005b3480156103bc57600080fd5b506103d760048036038101906103d29190611a4a565b61168f565b6040516103ea9796959493929190611c95565b60405180910390f35b3480156103ff57600080fd5b5061041a600480360381019061041591906119a2565b6117a6565b6040516104279190611c7a565b60405180910390f35b60005481565b600660009054906101000a900473ffffffffffffffffffffffffffffffffffffffff1681565b60076003819055506000806000600160008581526020019081526020016000206040518060e00160405290816000820160009054906101000a900473ffffffffffffffffffffffffffffffffffffffff1673ffffffffffffffffffffffffffffffffffffffff1673ffffffffffffffffffffffffffffffffffffffff1681526020016001820160009054906101000a900473ffffffffffffffffffffffffffffffffffffffff1673ffffffffffffffffffffffffffffffffffffffff1673ffffffffffffffffffffffffffffffffffffffff1681526020016002820154815260200160038201805461054d90612061565b80601f016020809104026020016040519081016040528092919081815260200182805461057990612061565b80156105c65780601f1061059b576101008083540402835291602001916105c6565b820191906000526020600020905b8154815290600101906020018083116105a957829003601f168201915b50505050508152602001600482015481526020016005820160009054906101000a900460ff1615151515815260200160068201548152505090506000816040015111610647576040517f08c379a000000000000000000000000000000000000000000000000000000000815260040161063e90611e21565b60405180910390fd5b806080015142101561068e576040517f08c379a000000000000000000000000000000000000000000000000000000000815260040161068590611d81565b60405180910390fd5b8060c001519250600660009054906101000a900473ffffffffffffffffffffffffffffffffffffffff1673ffffffffffffffffffffffffffffffffffffffff166344a11f65600583606001516040516106e79190611c63565b908152602001604051809103902060009054906101000a900473ffffffffffffffffffffffffffffffffffffffff166040518263ffffffff1660e01b81526004016107329190611c7a565b60206040518083038186803b15801561074a57600080fd5b505afa15801561075e573d6000803e3d6000fd5b505050506040513d601f19601f820116820180604052508101906107829190611979565b91508183121561085f5760056003819055508060a00151156107fe57806000015173ffffffffffffffffffffffffffffffffffffffff166108fc826040015160026107cd9190611f4f565b9081150290604051600060405180830381858888f193505050501580156107f8573d6000803e3d6000fd5b5061085a565b806020015173ffffffffffffffffffffffffffffffffffffffff166108fc8260400151600261082d9190611f4f565b9081150290604051600060405180830381858888f19350505050158015610858573d6000803e3d6000fd5b505b61099e565b8183131561093a5760046003819055508060a00151156108d957806020015173ffffffffffffffffffffffffffffffffffffffff166108fc826040015160026108a89190611f4f565b9081150290604051600060405180830381858888f193505050501580156108d3573d6000803e3d6000fd5b50610935565b806000015173ffffffffffffffffffffffffffffffffffffffff166108fc826040015160026109089190611f4f565b9081150290604051600060405180830381858888f19350505050158015610933573d6000803e3d6000fd5b505b61099d565b60038081905550806020015173ffffffffffffffffffffffffffffffffffffffff166108fc826040015160026109709190611f4f565b9081150290604051600060405180830381858888f1935050505015801561099b573d6000803e3d6000fd5b505b5b8060400151847f06208c2a7c81ce0338f4e7c431f49476c450bad6ce52ef2b4e186db4a1fbcaf460405160405180910390a360016000858152602001908152602001600020600080820160006101000a81549073ffffffffffffffffffffffffffffffffffffffff02191690556001820160006101000a81549073ffffffffffffffffffffffffffffffffffffffff02191690556002820160009055600382016000610a4a91906117ef565b60048201600090556005820160006101000a81549060ff02191690556006820160009055505050505050565b60006001600083815260200190815260200160002060000160009054906101000a900473ffffffffffffffffffffffffffffffffffffffff1673ffffffffffffffffffffffffffffffffffffffff163373ffffffffffffffffffffffffffffffffffffffff161480610b4957506001600083815260200190815260200160002060010160009054906101000a900473ffffffffffffffffffffffffffffffffffffffff1673ffffffffffffffffffffffffffffffffffffffff163373ffffffffffffffffffffffffffffffffffffffff16145b610b88576040517f08c379a0000000000000000000000000000000000000000000000000000000008152600401610b7f90611da1565b60405180910390fd5b60016000838152602001908152602001600020600201549050919050565b6000600354905090565b6000600160008381526020019081526020016000206040518060e00160405290816000820160009054906101000a900473ffffffffffffffffffffffffffffffffffffffff1673ffffffffffffffffffffffffffffffffffffffff1673ffffffffffffffffffffffffffffffffffffffff1681526020016001820160009054906101000a900473ffffffffffffffffffffffffffffffffffffffff1673ffffffffffffffffffffffffffffffffffffffff1673ffffffffffffffffffffffffffffffffffffffff16815260200160028201548152602001600382018054610c9690612061565b80601f0160208091040260200160405190810160405280929190818152602001828054610cc290612061565b8015610d0f5780601f10610ce457610100808354040283529160200191610d0f565b820191906000526020600020905b815481529060010190602001808311610cf257829003601f168201915b50505050508152602001600482015481526020016005820160009054906101000a900460ff1615151515815260200160068201548152505090503373ffffffffffffffffffffffffffffffffffffffff16816000015173ffffffffffffffffffffffffffffffffffffffff1614610dbb576040517f08c379a0000000000000000000000000000000000000000000000000000000008152600401610db290611e01565b60405180910390fd5b6000816040015111610e02576040517f08c379a0000000000000000000000000000000000000000000000000000000008152600401610df990611e21565b60405180910390fd5b806020015173ffffffffffffffffffffffffffffffffffffffff16816000015173ffffffffffffffffffffffffffffffffffffffff1614610e78576040517f08c379a0000000000000000000000000000000000000000000000000000000008152600401610e6f90611d61565b60405180910390fd5b806000015173ffffffffffffffffffffffffffffffffffffffff166108fc82604001519081150290604051600060405180830381858888f19350505050158015610ec6573d6000803e3d6000fd5b5060016000838152602001908152602001600020600080820160006101000a81549073ffffffffffffffffffffffffffffffffffffffff02191690556001820160006101000a81549073ffffffffffffffffffffffffffffffffffffffff02191690556002820160009055600382016000610f4191906117ef565b60048201600090556005820160006101000a81549060ff0219169055600682016000905550505050565b60008054905090565b60006001600083815260200190815260200160002090506000816002015411610fd2576040517f08c379a0000000000000000000000000000000000000000000000000000000008152600401610fc990611e21565b60405180910390fd5b3373ffffffffffffffffffffffffffffffffffffffff168160000160009054906101000a900473ffffffffffffffffffffffffffffffffffffffff1673ffffffffffffffffffffffffffffffffffffffff161415611065576040517f08c379a000000000000000000000000000000000000000000000000000000000815260040161105c90611d41565b60405180910390fd5b8060010160009054906101000a900473ffffffffffffffffffffffffffffffffffffffff1673ffffffffffffffffffffffffffffffffffffffff168160000160009054906101000a900473ffffffffffffffffffffffffffffffffffffffff1673ffffffffffffffffffffffffffffffffffffffff161461111b576040517f08c379a000000000000000000000000000000000000000000000000000000000815260040161111290611de1565b60405180910390fd5b80600201543414611161576040517f08c379a000000000000000000000000000000000000000000000000000000000815260040161115890611e41565b60405180910390fd5b338160010160006101000a81548173ffffffffffffffffffffffffffffffffffffffff021916908373ffffffffffffffffffffffffffffffffffffffff16021790555060096003819055505050565b600260009054906101000a900473ffffffffffffffffffffffffffffffffffffffff1681565b600060016000838152602001908152602001600020600401549050919050565b600060016000838152602001908152602001600020600201541161124f576040517f08c379a000000000000000000000000000000000000000000000000000000000815260040161124690611e21565b60405180910390fd5b60016000828152602001908152602001600020600080820160006101000a81549073ffffffffffffffffffffffffffffffffffffffff02191690556001820160006101000a81549073ffffffffffffffffffffffffffffffffffffffff021916905560028201600090556003820160006112c991906117ef565b60048201600090556005820160006101000a81549060ff02191690556006820160009055505050565b6000600454905090565b8060038190555050565b60035481565b34600381905550565b60003411611358576040517f08c379a000000000000000000000000000000000000000000000000000000000815260040161134f90611dc1565b60405180910390fd5b6040518060e001604052803373ffffffffffffffffffffffffffffffffffffffff1681526020013373ffffffffffffffffffffffffffffffffffffffff16815260200134815260200184815260200183426113b39190611ef9565b81526020018215158152602001600660009054906101000a900473ffffffffffffffffffffffffffffffffffffffff1673ffffffffffffffffffffffffffffffffffffffff166344a11f6560058760405161140e9190611c63565b908152602001604051809103902060009054906101000a900473ffffffffffffffffffffffffffffffffffffffff166040518263ffffffff1660e01b81526004016114599190611c7a565b60206040518083038186803b15801561147157600080fd5b505afa158015611485573d6000803e3d6000fd5b505050506040513d601f19601f820116820180604052508101906114a99190611979565b815250600160008054815260200190815260200160002060008201518160000160006101000a81548173ffffffffffffffffffffffffffffffffffffffff021916908373ffffffffffffffffffffffffffffffffffffffff16021790555060208201518160010160006101000a81548173ffffffffffffffffffffffffffffffffffffffff021916908373ffffffffffffffffffffffffffffffffffffffff16021790555060408201518160020155606082015181600301908051906020019061157492919061182f565b506080820151816004015560a08201518160050160006101000a81548160ff02191690831515021790555060c082015181600601559050506000808154809291906115be906120c4565b9190505550505050565b600660009054906101000a900473ffffffffffffffffffffffffffffffffffffffff1673ffffffffffffffffffffffffffffffffffffffff166344a11f65739326bfa02add2366b30bacb125260af6410313316040518263ffffffff1660e01b81526004016116379190611c7a565b60206040518083038186803b15801561164f57600080fd5b505afa158015611663573d6000803e3d6000fd5b505050506040513d601f19601f820116820180604052508101906116879190611979565b600481905550565b60016020528060005260406000206000915090508060000160009054906101000a900473ffffffffffffffffffffffffffffffffffffffff16908060010160009054906101000a900473ffffffffffffffffffffffffffffffffffffffff169080600201549080600301805461170490612061565b80601f016020809104026020016040519081016040528092919081815260200182805461173090612061565b801561177d5780601f106117525761010080835404028352916020019161177d565b820191906000526020600020905b81548152906001019060200180831161176057829003601f168201915b5050505050908060040154908060050160009054906101000a900460ff16908060060154905087565b6005818051602081018201805184825260208301602085012081835280955050505050506000915054906101000a900473ffffffffffffffffffffffffffffffffffffffff1681565b5080546117fb90612061565b6000825580601f1061180d575061182c565b601f01602090049060005260206000209081019061182b91906118b5565b5b50565b82805461183b90612061565b90600052602060002090601f01602090048101928261185d57600085556118a4565b82601f1061187657805160ff19168380011785556118a4565b828001600101855582156118a4579182015b828111156118a3578251825591602001919060010190611888565b5b5090506118b191906118b5565b5090565b5b808211156118ce5760008160009055506001016118b6565b5090565b60006118e56118e084611ea1565b611e7c565b9050828152602081018484840111156118fd57600080fd5b61190884828561201f565b509392505050565b60008135905061191f8161244c565b92915050565b60008151905061193481612463565b92915050565b600082601f83011261194b57600080fd5b813561195b8482602086016118d2565b91505092915050565b6000813590506119738161247a565b92915050565b60006020828403121561198b57600080fd5b600061199984828501611925565b91505092915050565b6000602082840312156119b457600080fd5b600082013567ffffffffffffffff8111156119ce57600080fd5b6119da8482850161193a565b91505092915050565b6000806000606084860312156119f857600080fd5b600084013567ffffffffffffffff811115611a1257600080fd5b611a1e8682870161193a565b9350506020611a2f86828701611964565b9250506040611a4086828701611910565b9150509250925092565b600060208284031215611a5c57600080fd5b6000611a6a84828501611964565b91505092915050565b611a7c81611fa9565b82525050565b611a8b81611fbb565b82525050565b611a9a81611ffb565b82525050565b611aa981611fc7565b82525050565b6000611aba82611ed2565b611ac48185611edd565b9350611ad481856020860161202e565b611add8161219a565b840191505092915050565b6000611af382611ed2565b611afd8185611eee565b9350611b0d81856020860161202e565b80840191505092915050565b6000611b26602683611edd565b9150611b31826121ab565b604082019050919050565b6000611b49603a83611edd565b9150611b54826121fa565b604082019050919050565b6000611b6c602683611edd565b9150611b7782612249565b604082019050919050565b6000611b8f602183611edd565b9150611b9a82612298565b604082019050919050565b6000611bb2602383611edd565b9150611bbd826122e7565b604082019050919050565b6000611bd5602f83611edd565b9150611be082612336565b604082019050919050565b6000611bf8602c83611edd565b9150611c0382612385565b604082019050919050565b6000611c1b601b83611edd565b9150611c26826123d4565b602082019050919050565b6000611c3e603283611edd565b9150611c49826123fd565b604082019050919050565b611c5d81611ff1565b82525050565b6000611c6f8284611ae8565b915081905092915050565b6000602082019050611c8f6000830184611a73565b92915050565b600060e082019050611caa600083018a611a73565b611cb76020830189611a73565b611cc46040830188611c54565b8181036060830152611cd68187611aaf565b9050611ce56080830186611c54565b611cf260a0830185611a82565b611cff60c0830184611aa0565b98975050505050505050565b6000602082019050611d206000830184611a91565b92915050565b6000602082019050611d3b6000830184611aa0565b92915050565b60006020820190508181036000830152611d5a81611b19565b9050919050565b60006020820190508181036000830152611d7a81611b3c565b9050919050565b60006020820190508181036000830152611d9a81611b5f565b9050919050565b60006020820190508181036000830152611dba81611b82565b9050919050565b60006020820190508181036000830152611dda81611ba5565b9050919050565b60006020820190508181036000830152611dfa81611bc8565b9050919050565b60006020820190508181036000830152611e1a81611beb565b9050919050565b60006020820190508181036000830152611e3a81611c0e565b9050919050565b60006020820190508181036000830152611e5a81611c31565b9050919050565b6000602082019050611e766000830184611c54565b92915050565b6000611e86611e97565b9050611e928282612093565b919050565b6000604051905090565b600067ffffffffffffffff821115611ebc57611ebb61216b565b5b611ec58261219a565b9050602081019050919050565b600081519050919050565b600082825260208201905092915050565b600081905092915050565b6000611f0482611ff1565b9150611f0f83611ff1565b9250827fffffffffffffffffffffffffffffffffffffffffffffffffffffffffffffffff03821115611f4457611f4361210d565b5b828201905092915050565b6000611f5a82611ff1565b9150611f6583611ff1565b9250817fffffffffffffffffffffffffffffffffffffffffffffffffffffffffffffffff0483118215151615611f9e57611f9d61210d565b5b828202905092915050565b6000611fb482611fd1565b9050919050565b60008115159050919050565b6000819050919050565b600073ffffffffffffffffffffffffffffffffffffffff82169050919050565b6000819050919050565b60006120068261200d565b9050919050565b600061201882611fd1565b9050919050565b82818337600083830152505050565b60005b8381101561204c578082015181840152602081019050612031565b8381111561205b576000848401525b50505050565b6000600282049050600182168061207957607f821691505b6020821081141561208d5761208c61213c565b5b50919050565b61209c8261219a565b810181811067ffffffffffffffff821117156120bb576120ba61216b565b5b80604052505050565b60006120cf82611ff1565b91507fffffffffffffffffffffffffffffffffffffffffffffffffffffffffffffffff8214156121025761210161210d565b5b600182019050919050565b7f4e487b7100000000000000000000000000000000000000000000000000000000600052601160045260246000fd5b7f4e487b7100000000000000000000000000000000000000000000000000000000600052602260045260246000fd5b7f4e487b7100000000000000000000000000000000000000000000000000000000600052604160045260246000fd5b6000601f19601f8301169050919050565b7f496d706f737369626c6520746f20666967687420616761696e737420796f757260008201527f73656c662e0a0000000000000000000000000000000000000000000000000000602082015250565b7f546865726520697320616c7265616479206f70706f6e656e742c20746869732060008201527f626174746c652063616e27742062652063616e63656c65642e0a000000000000602082015250565b7f546f6f206561726c7920746f20636865636b2077686f2069732074686520776960008201527f6e6e65722e0a0000000000000000000000000000000000000000000000000000602082015250565b7f596f7520617265206e6f742070617274206f66207468697320626174746c652e60008201527f0a00000000000000000000000000000000000000000000000000000000000000602082015250565b7f596f75206861766520746f20626574206f6e20706f7369746976652076616c7560008201527f65210a0000000000000000000000000000000000000000000000000000000000602082015250565b7f5468697320626174746c6520697320636c6f7365642c206f70706f6e656e742060008201527f616c72656164792065786973742e0a0000000000000000000000000000000000602082015250565b7f4f6e6c79207468652063726561746f72206d61792063616e63656c206869732060008201527f6f776e20626174746c652e0a0000000000000000000000000000000000000000602082015250565b7f426174746c65206e756d6265722069736e27742065786973742e0a0000000000600082015250565b7f42657474696e672076616c75652069736e27742061732073706563696669656460008201527f20666f72207468697320626174746c652e0a0000000000000000000000000000602082015250565b61245581611fbb565b811461246057600080fd5b50565b61246c81611fc7565b811461247757600080fd5b50565b61248381611ff1565b811461248e57600080fd5b5056fea2646970667358221220f306e37b00336bc0d0022d47367704181cacfd72eb973ebd24d4fa8083e6e52b64736f6c63430008030033608060405234801561001057600080fd5b5061030a806100206000396000f3fe608060405234801561001057600080fd5b506004361061002b5760003560e01c806344a11f6514610030575b600080fd5b61004a60048036038101906100459190610152565b610060565b6040516100579190610201565b60405180910390f35b6000806000806000808673ffffffffffffffffffffffffffffffffffffffff1663feaf968c6040518163ffffffff1660e01b815260040160a06040518083038186803b1580156100af57600080fd5b505afa1580156100c3573d6000803e3d6000fd5b505050506040513d601f19601f820116820180604052508101906100e7919061017b565b945094509450945094508395505050505050919050565b60008135905061010d81610278565b92915050565b6000815190506101228161028f565b92915050565b600081519050610137816102a6565b92915050565b60008151905061014c816102bd565b92915050565b60006020828403121561016457600080fd5b6000610172848285016100fe565b91505092915050565b600080600080600060a0868803121561019357600080fd5b60006101a18882890161013d565b95505060206101b288828901610113565b94505060406101c388828901610128565b93505060606101d488828901610128565b92505060806101e58882890161013d565b9150509295509295909350565b6101fb8161022e565b82525050565b600060208201905061021660008301846101f2565b92915050565b600061022782610238565b9050919050565b6000819050919050565b600073ffffffffffffffffffffffffffffffffffffffff82169050919050565b6000819050919050565b600069ffffffffffffffffffff82169050919050565b6102818161021c565b811461028c57600080fd5b50565b6102988161022e565b81146102a357600080fd5b50565b6102af81610258565b81146102ba57600080fd5b50565b6102c681610262565b81146102d157600080fd5b5056fea2646970667358221220fe7a329abf102b920acaf471f7dde054e079def23102a09c5127ccaf2e984a8c64736f6c63430008030033",
  "immutableReferences": {},
  "source": "// SPDX-License-Identifier: MIT\r\npragma solidity ^0.8.3;\r\nimport \"./Aggre.sol\";\r\n\r\ncontract BinaryOption{\r\n\r\n\r\n    uint256  public battleId; // unique id for each battle\r\n    mapping(uint256 => Battle) public battleInfo; // map of the existing battles\r\n    address public owner; // the creator of the contract (we)\r\n    uint  public tempVal;\r\n    int feed;\r\n    mapping(string=>address) public feedAddress;\r\n    Aggre public age;\r\n\r\n    event MyEvent(\r\n    uint256 indexed id,\r\n    uint256 indexed amount\r\n    );\r\n\r\n    struct Battle {\r\n        address creator;\r\n        address opponent;\r\n        uint256 amountBet;\r\n        string betType;\r\n        uint betDate;\r\n        bool isUp;\r\n        int currVal;\r\n    }\r\n\r\n    constructor() public {\r\n        age=new Aggre();\r\n        owner = msg.sender;\r\n\r\n        // those addresses (of Kovan test network) can be found at: https://docs.chain.link/docs/ethereum-addresses/\r\n        feedAddress[\"EthVsUsd\"]=0x9326BFA02ADD2366b30bacB125260Af641031331;\r\n        feedAddress[\"BtcVsUsd\"]=0x6135b13325bfC4B00278B4abC5e20bbce2D6580e;\r\n        feedAddress[\"EurVsUsd\"]=0x0c15Ab9A0DB086e062194c273CC79f41597Bbf13;\r\n    }\r\n\r\n    // a creator create a new battle\r\n    function addBattle(string memory betType,uint betDate,bool direction) public payable {\r\n        require(msg.value>0, \"You have to bet on positive value!\\n\");\r\n        battleInfo[battleId]=Battle(msg.sender,msg.sender,msg.value,betType,block.timestamp+betDate,direction,age.getThePrice(feedAddress[betType]));\r\n        battleId++;\r\n    }\r\n\r\n    function setIndex() public payable {\r\n        tempVal= msg.value;\r\n    }\r\n\r\n    function getIndex(uint256 battle_id) public view returns (uint){\r\n        return battleInfo[battle_id].betDate;\r\n    }\r\n\r\n    function setPrice() public {\r\n        feed= age.getThePrice(0x9326BFA02ADD2366b30bacB125260Af641031331);\r\n    }\r\n    function getPrice() public view returns (int){\r\n        return feed;\r\n    }\r\n\r\n\r\n    function getId() public view returns (uint256){\r\n        return battleId;\r\n    }\r\n\r\n    /*function getEvent() public {\r\n        emit MyEvent(battleId,battleId);\r\n    }*/\r\n\r\n    function settempVal(uint num) public {\r\n        tempVal=num;\r\n    }\r\n\r\n    // we call it before the withdraw method, in the index_1.js (the reason for this is there)\r\n    function gettempVal() public view returns (uint) {\r\n        return tempVal;\r\n    }\r\n\r\n\r\n    // an opponent is signed to battle number: battleid\r\n    function acceptBattle(uint256 battle_id) public payable{\r\n        Battle storage bate=battleInfo[battle_id];\r\n        require(bate.amountBet>0, \"Battle number isn't exist.\\n\");\r\n        require(bate.creator!=msg.sender, \"Impossible to fight against yourself.\\n\");\r\n        require(bate.creator==bate.opponent, \"This battle is closed, opponent already exist.\\n\");\r\n        require(msg.value==bate.amountBet, \"Betting value isn't as specified for this battle.\\n\");\r\n        bate.opponent=msg.sender;\r\n        tempVal=9;\r\n\r\n    }\r\n\r\n    // a creator cancel his battle\r\n    function cancelBattle(uint256 battle_id) public payable{\r\n        Battle memory bate=battleInfo[battle_id];\r\n        require(bate.creator==msg.sender, \"Only the creator may cancel his own battle.\\n\");\r\n        require(bate.amountBet>0, \"Battle number isn't exist.\\n\"); // needed?\r\n\r\n        require(bate.creator==bate.opponent, \"There is already opponent, this battle can't be canceled.\\n\");\r\n        //temp=address(battleInfo[battle_id].creator);\r\n        //temp.transfer(2*battleInfo[battle_id].amountBet);\r\n        payable(bate.creator).transfer(bate.amountBet); // return the amount invested\r\n        delete battleInfo[battle_id]; // battle is canceled\r\n    }\r\n\r\n\r\n    function getcurrVal(uint256 battle_id) public view returns (uint256){\r\n        require(msg.sender==battleInfo[battle_id].creator||msg.sender==battleInfo[battle_id].opponent, \"You are not part of this battle.\\n\");\r\n        return battleInfo[battle_id].amountBet;\r\n    }\r\n\r\n    // the winner may draw his money\r\n    function withdraw(uint256 battle_id) public {\r\n        tempVal=7;\r\n        int oldPrice;\r\n        int newPrice;\r\n        Battle memory bate=battleInfo[battle_id];\r\n        //require((bate.creator==msg.sender||bate.opponent==msg.sender), \"You are not part of this battle.\\n\"); // can be deleted if comes with getcurrval\r\n        require(bate.amountBet>0, \"Battle number isn't exist.\\n\"); // needed?\r\n        require(block.timestamp>=bate.betDate, \"Too early to check who is the winner.\\n\");\r\n        oldPrice=bate.currVal;\r\n        newPrice=age.getThePrice(feedAddress[bate.betType]);\r\n        // deliver the money to the winner\r\n        if(oldPrice<newPrice){\r\n            tempVal=5;\r\n            if(bate.isUp){\r\n                //temp=address(battleInfo[battle_id].creator);\r\n                //temp.transfer(2*battleInfo[battle_id].amountBet);\r\n                payable(bate.creator).transfer(2*bate.amountBet); // multiply by 2 since we deliever the money of both the creator and his opponent\r\n            }\r\n            else{\r\n                //temp=address(battleInfo[battle_id].opponent);\r\n                //temp.transfer(2*battleInfo[battle_id].amountBet);\r\n                payable(bate.opponent).transfer(2*bate.amountBet);\r\n            }\r\n\r\n        }\r\n        else if(oldPrice>newPrice){\r\n            tempVal=4;\r\n            if(bate.isUp){\r\n                //temp=address(battleInfo[battle_id].opponent);\r\n                //temp.transfer(2*battleInfo[battle_id].amountBet);\r\n                payable(bate.opponent).transfer(2*bate.amountBet);\r\n            }\r\n            else{\r\n                //temp=address(battleInfo[battle_id].creator);\r\n                //temp.transfer(2*battleInfo[battle_id].amountBet);\r\n                payable(bate.creator).transfer(2*bate.amountBet);\r\n            }\r\n        }\r\n        // if nothing has changed, the creator lose his money\r\n        else {\r\n            tempVal=3;\r\n            //temp=address(battleInfo[battle_id].opponent);\r\n            //temp.transfer(2*battleInfo[battle_id].amountBet);\r\n            payable(bate.opponent).transfer(2*bate.amountBet);\r\n        }\r\n        // sign the event\r\n        emit MyEvent(battle_id,bate.amountBet);\r\n        delete battleInfo[battle_id]; // battle is finished\r\n    }\r\n\r\n    //just for testing\r\n    function removeBattle(uint256 battle_id) public {\r\n        require(battleInfo[battle_id].amountBet>0, \"Battle number isn't exist.\\n\");\r\n        delete battleInfo[battle_id]; // battle is canceled\r\n    }\r\n\r\n\r\n\r\n}",
  "sourcePath": "C:/Users/Admin/IdeaProjects/A/src/solidity/contracts/BinaryOption.sol",
  "compiler": {
    "name": "solc",
    "version": "0.8.3+commit.8d00100c.Emscripten.clang"
  },
  "schemaVersion": "3.3.4",
  "updatedAt": "2021-05-22T10:10:51.498Z",
  "devdoc": {
    "kind": "dev",
    "methods": {},
    "version": 1
  },
  "userdoc": {
    "kind": "user",
    "methods": {},
    "version": 1
  }
}