{
  "contractName": "BinaryOption",
  "abi": [
    {
      "inputs": [],
      "stateMutability": "nonpayable",
      "type": "constructor"
    },
    {
      "anonymous": false,
      "inputs": [
        {
          "indexed": true,
          "internalType": "uint256",
          "name": "id",
          "type": "uint256"
        },
        {
          "indexed": false,
          "internalType": "address",
          "name": "address_field",
          "type": "address"
        }
      ],
      "name": "AddEvent",
      "type": "event"
    },
    {
      "inputs": [
        {
          "internalType": "address",
          "name": "",
          "type": "address"
        },
        {
          "internalType": "uint256",
          "name": "",
          "type": "uint256"
        }
      ],
      "name": "addressToBattle",
      "outputs": [
        {
          "internalType": "uint256",
          "name": "",
          "type": "uint256"
        }
      ],
      "stateMutability": "view",
      "type": "function",
      "constant": true
    },
    {
      "inputs": [],
      "name": "battleId",
      "outputs": [
        {
          "internalType": "uint256",
          "name": "",
          "type": "uint256"
        }
      ],
      "stateMutability": "view",
      "type": "function",
      "constant": true
    },
    {
      "inputs": [
        {
          "internalType": "uint256",
          "name": "",
          "type": "uint256"
        }
      ],
      "name": "battleInfo",
      "outputs": [
        {
          "internalType": "address",
          "name": "creator",
          "type": "address"
        },
        {
          "internalType": "address",
          "name": "opponent",
          "type": "address"
        },
        {
          "internalType": "uint256",
          "name": "amountBet",
          "type": "uint256"
        },
        {
          "internalType": "string",
          "name": "betType",
          "type": "string"
        },
        {
          "internalType": "uint256",
          "name": "betDate",
          "type": "uint256"
        },
        {
          "internalType": "bool",
          "name": "isUp",
          "type": "bool"
        },
        {
          "internalType": "int256",
          "name": "currVal",
          "type": "int256"
        },
        {
          "internalType": "enum BinaryOption.Status",
          "name": "whoWin",
          "type": "uint8"
        }
      ],
      "stateMutability": "view",
      "type": "function",
      "constant": true
    },
    {
      "inputs": [
        {
          "internalType": "string",
          "name": "",
          "type": "string"
        }
      ],
      "name": "feedAddress",
      "outputs": [
        {
          "internalType": "address",
          "name": "",
          "type": "address"
        }
      ],
      "stateMutability": "view",
      "type": "function",
      "constant": true
    },
    {
      "inputs": [],
      "name": "priceFeed",
      "outputs": [
        {
          "internalType": "contract PriceFeed",
          "name": "",
          "type": "address"
        }
      ],
      "stateMutability": "view",
      "type": "function",
      "constant": true
    },
    {
      "inputs": [
        {
          "internalType": "uint256[]",
          "name": "battles",
          "type": "uint256[]"
        }
      ],
      "name": "hasFreeEntry",
      "outputs": [
        {
          "internalType": "bool",
          "name": "",
          "type": "bool"
        }
      ],
      "stateMutability": "view",
      "type": "function",
      "constant": true
    },
    {
      "inputs": [
        {
          "internalType": "string",
          "name": "betType",
          "type": "string"
        },
        {
          "internalType": "uint256",
          "name": "betDate",
          "type": "uint256"
        },
        {
          "internalType": "bool",
          "name": "direction",
          "type": "bool"
        }
      ],
      "name": "addBattle",
      "outputs": [],
      "stateMutability": "payable",
      "type": "function",
      "payable": true
    },
    {
      "inputs": [
        {
          "internalType": "address",
          "name": "a",
          "type": "address"
        }
      ],
      "name": "getaddressToBattle",
      "outputs": [
        {
          "internalType": "uint256[]",
          "name": "",
          "type": "uint256[]"
        }
      ],
      "stateMutability": "view",
      "type": "function",
      "constant": true
    },
    {
      "inputs": [
        {
          "internalType": "uint256",
          "name": "battle_id",
          "type": "uint256"
        }
      ],
      "name": "getBattleInfo",
      "outputs": [
        {
          "components": [
            {
              "internalType": "address",
              "name": "creator",
              "type": "address"
            },
            {
              "internalType": "address",
              "name": "opponent",
              "type": "address"
            },
            {
              "internalType": "uint256",
              "name": "amountBet",
              "type": "uint256"
            },
            {
              "internalType": "string",
              "name": "betType",
              "type": "string"
            },
            {
              "internalType": "uint256",
              "name": "betDate",
              "type": "uint256"
            },
            {
              "internalType": "bool",
              "name": "isUp",
              "type": "bool"
            },
            {
              "internalType": "int256",
              "name": "currVal",
              "type": "int256"
            },
            {
              "internalType": "enum BinaryOption.Status",
              "name": "whoWin",
              "type": "uint8"
            }
          ],
          "internalType": "struct BinaryOption.Battle",
          "name": "",
          "type": "tuple"
        }
      ],
      "stateMutability": "nonpayable",
      "type": "function"
    },
    {
      "inputs": [],
      "name": "getAll",
      "outputs": [
        {
          "components": [
            {
              "internalType": "address",
              "name": "creator",
              "type": "address"
            },
            {
              "internalType": "address",
              "name": "opponent",
              "type": "address"
            },
            {
              "internalType": "uint256",
              "name": "amountBet",
              "type": "uint256"
            },
            {
              "internalType": "string",
              "name": "betType",
              "type": "string"
            },
            {
              "internalType": "uint256",
              "name": "betDate",
              "type": "uint256"
            },
            {
              "internalType": "bool",
              "name": "isUp",
              "type": "bool"
            },
            {
              "internalType": "int256",
              "name": "currVal",
              "type": "int256"
            },
            {
              "internalType": "enum BinaryOption.Status",
              "name": "whoWin",
              "type": "uint8"
            }
          ],
          "internalType": "struct BinaryOption.Battle[]",
          "name": "",
          "type": "tuple[]"
        }
      ],
      "stateMutability": "view",
      "type": "function",
      "constant": true
    },
    {
      "inputs": [
        {
          "internalType": "uint256",
          "name": "battle_id",
          "type": "uint256"
        }
      ],
      "name": "acceptBattle",
      "outputs": [],
      "stateMutability": "payable",
      "type": "function",
      "payable": true
    },
    {
      "inputs": [
        {
          "internalType": "uint256",
          "name": "battle_id",
          "type": "uint256"
        }
      ],
      "name": "cancelBattle",
      "outputs": [],
      "stateMutability": "nonpayable",
      "type": "function"
    },
    {
      "inputs": [
        {
          "internalType": "uint256",
          "name": "battle_id",
          "type": "uint256"
        }
      ],
      "name": "withdraw",
      "outputs": [],
      "stateMutability": "nonpayable",
      "type": "function"
    }
  ],
  "bytecode": "0x60806040526003600555600260065560646007553480156200002057600080fd5b506040516200002f906200049d565b604051809103906000f0801580156200004c573d6000803e3d6000fd5b50600460006101000a81548173ffffffffffffffffffffffffffffffffffffffff021916908373ffffffffffffffffffffffffffffffffffffffff160217905550600080156200010d57739326bfa02add2366b30bacb125260af6410313316003604051620000bb9062000621565b908152602001604051809103902060006101000a81548173ffffffffffffffffffffffffffffffffffffffff021916908373ffffffffffffffffffffffffffffffffffffffff16021790555062000496565b738a753747a1fa494ec906ce90e9f37563a8af630e600360405162000132906200067d565b908152602001604051809103902060006101000a81548173ffffffffffffffffffffffffffffffffffffffff021916908373ffffffffffffffffffffffffffffffffffffffff16021790555073ece365b379e1dd183b20fc5f022230c044d514046003604051620001a39062000694565b908152602001604051809103902060006101000a81548173ffffffffffffffffffffffffffffffffffffffff021916908373ffffffffffffffffffffffffffffffffffffffff1602179055507378f9e60608bf48a1155b4b2a5e31f32318a1d85f600360405162000214906200060a565b908152602001604051809103902060006101000a81548173ffffffffffffffffffffffffffffffffffffffff021916908373ffffffffffffffffffffffffffffffffffffffff16021790555073dca36f27cbc4e38ae16c4e9f99d39b42337f6dcf6003604051620002859062000666565b908152602001604051809103902060006101000a81548173ffffffffffffffffffffffffffffffffffffffff021916908373ffffffffffffffffffffffffffffffffffffffff160217905550732ba49aaa16e6afd2a993473cfb70fa8559b523cf6003604051620002f6906200064f565b908152602001604051809103902060006101000a81548173ffffffffffffffffffffffffffffffffffffffff021916908373ffffffffffffffffffffffffffffffffffffffff1602179055507374825dbc8bf76cc4e9494d0ecb210f676efa001d60036040516200036790620006c2565b908152602001604051809103902060006101000a81548173ffffffffffffffffffffffffffffffffffffffff021916908373ffffffffffffffffffffffffffffffffffffffff160217905550730630521ac362bc7a19a4ee44b57ce72ea34ad01c6003604051620003d890620006ab565b908152602001604051809103902060006101000a81548173ffffffffffffffffffffffffffffffffffffffff021916908373ffffffffffffffffffffffffffffffffffffffff16021790555073e96c4407597cd507002df88ff6e0008ab41266ee6003604051620004499062000638565b908152602001604051809103902060006101000a81548173ffffffffffffffffffffffffffffffffffffffff021916908373ffffffffffffffffffffffffffffffffffffffff1602179055505b5062000855565b61031c806200458383390190565b6000620004ba600a83620006d9565b9150620004c782620006e4565b600a82019050919050565b6000620004e1600883620006d9565b9150620004ee826200070d565b600882019050919050565b600062000508600a83620006d9565b9150620005158262000736565b600a82019050919050565b60006200052f600a83620006d9565b91506200053c826200075f565b600a82019050919050565b600062000556600b83620006d9565b9150620005638262000788565b600b82019050919050565b60006200057d600a83620006d9565b91506200058a82620007b1565b600a82019050919050565b6000620005a4600a83620006d9565b9150620005b182620007da565b600a82019050919050565b6000620005cb600c83620006d9565b9150620005d88262000803565b600c82019050919050565b6000620005f2600a83620006d9565b9150620005ff826200082c565b600a82019050919050565b60006200061782620004ab565b9150819050919050565b60006200062e82620004d2565b9150819050919050565b60006200064582620004f9565b9150819050919050565b60006200065c8262000520565b9150819050919050565b6000620006738262000547565b9150819050919050565b60006200068a826200056e565b9150819050919050565b6000620006a18262000595565b9150819050919050565b6000620006b882620005bc565b9150819050919050565b6000620006cf82620005e3565b9150819050919050565b600081905092915050565b7f6575725f76735f75736400000000000000000000000000000000000000000000600082015250565b7f4574685673557364000000000000000000000000000000000000000000000000600082015250565b7f736e785f76735f75736400000000000000000000000000000000000000000000600082015250565b7f6461695f76735f75736400000000000000000000000000000000000000000000600082015250565b7f757364635f76735f657468000000000000000000000000000000000000000000600082015250565b7f6574685f76735f75736400000000000000000000000000000000000000000000600082015250565b7f6274635f76735f75736400000000000000000000000000000000000000000000600082015250565b7f73646566695f76735f7573640000000000000000000000000000000000000000600082015250565b7f6461695f76735f65746800000000000000000000000000000000000000000000600082015250565b613d1e80620008656000396000f3fe6080604052600436106100c25760003560e01c8063b7f4a8971161007f578063d3f5557b11610059578063d3f5557b1461024c578063db71dcdc14610289578063e4bb7a1e146102cd578063e84b5fda1461030a576100c2565b8063b7f4a897146101b6578063bfc8b8c6146101f3578063c0a6e9d71461020f576100c2565b806301a1b778146100c75780632e1a7d4d146100f25780634c4c447e1461011b57806353ed514314610144578063741bef1a1461016f57806381ec30f21461019a575b600080fd5b3480156100d357600080fd5b506100dc610347565b6040516100e99190613489565b60405180910390f35b3480156100fe57600080fd5b5061011960048036038101906101149190612b69565b61034d565b005b34801561012757600080fd5b50610142600480360381019061013d9190612b69565b610d90565b005b34801561015057600080fd5b506101596112b6565b604051610166919061324d565b60405180910390f35b34801561017b57600080fd5b50610184611606565b60405161019191906132ac565b60405180910390f35b6101b460048036038101906101af9190612b69565b61162c565b005b3480156101c257600080fd5b506101dd60048036038101906101d89190612a57565b611b29565b6040516101ea9190613291565b60405180910390f35b61020d60048036038101906102089190612b02565b611bbb565b005b34801561021b57600080fd5b5061023660048036038101906102319190612b69565b6121ff565b6040516102439190613467565b60405180910390f35b34801561025857600080fd5b50610273600480360381019061026e9190612a1b565b61248a565b6040516102809190613489565b60405180910390f35b34801561029557600080fd5b506102b060048036038101906102ab9190612b69565b6124bb565b6040516102c49897969594939291906131c8565b60405180910390f35b3480156102d957600080fd5b506102f460048036038101906102ef9190612ac1565b6125e5565b60405161030191906131ad565b60405180910390f35b34801561031657600080fd5b50610331600480360381019061032c91906129f2565b61262e565b60405161033e919061326f565b60405180910390f35b60005481565b60008060008060016000868152602001908152602001600020905060006103e8826004015461037c919061363b565b90508160010160009054906101000a900473ffffffffffffffffffffffffffffffffffffffff1673ffffffffffffffffffffffffffffffffffffffff168260000160009054906101000a900473ffffffffffffffffffffffffffffffffffffffff1673ffffffffffffffffffffffffffffffffffffffff161415610435576040517f08c379a000000000000000000000000000000000000000000000000000000000815260040161042c906133c7565b60405180910390fd5b3373ffffffffffffffffffffffffffffffffffffffff168260000160009054906101000a900473ffffffffffffffffffffffffffffffffffffffff1673ffffffffffffffffffffffffffffffffffffffff1614806104e257503373ffffffffffffffffffffffffffffffffffffffff168260010160009054906101000a900473ffffffffffffffffffffffffffffffffffffffff1673ffffffffffffffffffffffffffffffffffffffff16145b610521576040517f08c379a000000000000000000000000000000000000000000000000000000000815260040161051890613327565b60405180910390fd5b80421015610564576040517f08c379a000000000000000000000000000000000000000000000000000000000815260040161055b906132e7565b60405180910390fd5b60038081111561059d577f4e487b7100000000000000000000000000000000000000000000000000000000600052602160045260246000fd5b8260070160009054906101000a900460ff1660038111156105e7577f4e487b7100000000000000000000000000000000000000000000000000000000600052602160045260246000fd5b14610627576040517f08c379a000000000000000000000000000000000000000000000000000000000815260040161061e90613347565b60405180910390fd5b81600601549350600460009054906101000a900473ffffffffffffffffffffffffffffffffffffffff1673ffffffffffffffffffffffffffffffffffffffff166344a11f6560038460030160405161067f9190613196565b908152602001604051809103902060009054906101000a900473ffffffffffffffffffffffffffffffffffffffff166040518263ffffffff1660e01b81526004016106ca91906131ad565b60206040518083038186803b1580156106e257600080fd5b505afa1580156106f6573d6000803e3d6000fd5b505050506040513d601f19601f8201168201806040525081019061071a9190612a98565b925082841215610844578160050160009054906101000a900460ff16156107bf57600194508160000160009054906101000a900473ffffffffffffffffffffffffffffffffffffffff1673ffffffffffffffffffffffffffffffffffffffff166108fc8360020154600261078e919061366c565b9081150290604051600060405180830381858888f193505050501580156107b9573d6000803e3d6000fd5b5061083f565b600094508160010160009054906101000a900473ffffffffffffffffffffffffffffffffffffffff1673ffffffffffffffffffffffffffffffffffffffff166108fc83600201546002610812919061366c565b9081150290604051600060405180830381858888f1935050505015801561083d573d6000803e3d6000fd5b505b610a50565b8284131561096c578160050160009054906101000a900460ff16156108e757600094508160010160009054906101000a900473ffffffffffffffffffffffffffffffffffffffff1673ffffffffffffffffffffffffffffffffffffffff166108fc836002015460026108b6919061366c565b9081150290604051600060405180830381858888f193505050501580156108e1573d6000803e3d6000fd5b50610967565b600194508160000160009054906101000a900473ffffffffffffffffffffffffffffffffffffffff1673ffffffffffffffffffffffffffffffffffffffff166108fc8360020154600261093a919061366c565b9081150290604051600060405180830381858888f19350505050158015610965573d6000803e3d6000fd5b505b610a4f565b600294508160010160009054906101000a900473ffffffffffffffffffffffffffffffffffffffff1673ffffffffffffffffffffffffffffffffffffffff166108fc83600201549081150290604051600060405180830381858888f193505050501580156109de573d6000803e3d6000fd5b508160000160009054906101000a900473ffffffffffffffffffffffffffffffffffffffff1673ffffffffffffffffffffffffffffffffffffffff166108fc83600201549081150290604051600060405180830381858888f19350505050158015610a4d573d6000803e3d6000fd5b505b5b848260070160006101000a81548160ff02191690836003811115610a9d577f4e487b7100000000000000000000000000000000000000000000000000000000600052602160045260246000fd5b021790555060006001600088815260200190815260200160002060000160009054906101000a900473ffffffffffffffffffffffffffffffffffffffff16905060006001600089815260200190815260200160002060010160009054906101000a900473ffffffffffffffffffffffffffffffffffffffff16905060005b600554811015610c4e5788600260008573ffffffffffffffffffffffffffffffffffffffff1673ffffffffffffffffffffffffffffffffffffffff1681526020019081526020016000208281548110610b9d577f4e487b7100000000000000000000000000000000000000000000000000000000600052603260045260246000fd5b90600052602060002001541415610c3b57600754600260008573ffffffffffffffffffffffffffffffffffffffff1673ffffffffffffffffffffffffffffffffffffffff1681526020019081526020016000208281548110610c28577f4e487b7100000000000000000000000000000000000000000000000000000000600052603260045260246000fd5b9060005260206000200181905550610c4e565b8080610c469061383a565b915050610b1b565b5060005b600554811015610d855788600260008473ffffffffffffffffffffffffffffffffffffffff1673ffffffffffffffffffffffffffffffffffffffff1681526020019081526020016000208281548110610cd4577f4e487b7100000000000000000000000000000000000000000000000000000000600052603260045260246000fd5b90600052602060002001541415610d7257600754600260008473ffffffffffffffffffffffffffffffffffffffff1673ffffffffffffffffffffffffffffffffffffffff1681526020019081526020016000208281548110610d5f577f4e487b7100000000000000000000000000000000000000000000000000000000600052603260045260246000fd5b9060005260206000200181905550610d85565b8080610d7d9061383a565b915050610c52565b505050505050505050565b600060016000838152602001908152602001600020604051806101000160405290816000820160009054906101000a900473ffffffffffffffffffffffffffffffffffffffff1673ffffffffffffffffffffffffffffffffffffffff1673ffffffffffffffffffffffffffffffffffffffff1681526020016001820160009054906101000a900473ffffffffffffffffffffffffffffffffffffffff1673ffffffffffffffffffffffffffffffffffffffff1673ffffffffffffffffffffffffffffffffffffffff16815260200160028201548152602001600382018054610e77906137d7565b80601f0160208091040260200160405190810160405280929190818152602001828054610ea3906137d7565b8015610ef05780601f10610ec557610100808354040283529160200191610ef0565b820191906000526020600020905b815481529060010190602001808311610ed357829003601f168201915b50505050508152602001600482015481526020016005820160009054906101000a900460ff16151515158152602001600682015481526020016007820160009054906101000a900460ff166003811115610f73577f4e487b7100000000000000000000000000000000000000000000000000000000600052602160045260246000fd5b6003811115610fab577f4e487b7100000000000000000000000000000000000000000000000000000000600052602160045260246000fd5b8152505090506000816040015111610ff8576040517f08c379a0000000000000000000000000000000000000000000000000000000008152600401610fef90613387565b60405180910390fd5b806020015173ffffffffffffffffffffffffffffffffffffffff16816000015173ffffffffffffffffffffffffffffffffffffffff161461106e576040517f08c379a0000000000000000000000000000000000000000000000000000000008152600401611065906133e7565b60405180910390fd5b806000015173ffffffffffffffffffffffffffffffffffffffff166108fc82604001519081150290604051600060405180830381858888f193505050501580156110bc573d6000803e3d6000fd5b5060008160000151905060005b6005548110156111fc5783600260008473ffffffffffffffffffffffffffffffffffffffff1673ffffffffffffffffffffffffffffffffffffffff168152602001908152602001600020828154811061114b577f4e487b7100000000000000000000000000000000000000000000000000000000600052603260045260246000fd5b906000526020600020015414156111e957600754600260008473ffffffffffffffffffffffffffffffffffffffff1673ffffffffffffffffffffffffffffffffffffffff16815260200190815260200160002082815481106111d6577f4e487b7100000000000000000000000000000000000000000000000000000000600052603260045260246000fd5b90600052602060002001819055506111fc565b80806111f49061383a565b9150506110c9565b5060016000848152602001908152602001600020600080820160006101000a81549073ffffffffffffffffffffffffffffffffffffffff02191690556001820160006101000a81549073ffffffffffffffffffffffffffffffffffffffff0219169055600282016000905560038201600061127791906126c5565b60048201600090556005820160006101000a81549060ff021916905560068201600090556007820160006101000a81549060ff02191690555050505050565b6060600080549050600060065482106112da57600654826112d791906136c6565b90505b600081836112e891906136c6565b905060008167ffffffffffffffff81111561132c577f4e487b7100000000000000000000000000000000000000000000000000000000600052604160045260246000fd5b60405190808252806020026020018201604052801561136557816020015b611352612705565b81526020019060019003908161134a5790505b5090506000808490505b858110156115fa5760016000828152602001908152602001600020604051806101000160405290816000820160009054906101000a900473ffffffffffffffffffffffffffffffffffffffff1673ffffffffffffffffffffffffffffffffffffffff1673ffffffffffffffffffffffffffffffffffffffff1681526020016001820160009054906101000a900473ffffffffffffffffffffffffffffffffffffffff1673ffffffffffffffffffffffffffffffffffffffff1673ffffffffffffffffffffffffffffffffffffffff1681526020016002820154815260200160038201805461145c906137d7565b80601f0160208091040260200160405190810160405280929190818152602001828054611488906137d7565b80156114d55780601f106114aa576101008083540402835291602001916114d5565b820191906000526020600020905b8154815290600101906020018083116114b857829003601f168201915b50505050508152602001600482015481526020016005820160009054906101000a900460ff16151515158152602001600682015481526020016007820160009054906101000a900460ff166003811115611558577f4e487b7100000000000000000000000000000000000000000000000000000000600052602160045260246000fd5b6003811115611590577f4e487b7100000000000000000000000000000000000000000000000000000000600052602160045260246000fd5b815250508383815181106115cd577f4e487b7100000000000000000000000000000000000000000000000000000000600052603260045260246000fd5b60200260200101819052506001826115e591906135e5565b915080806115f29061383a565b91505061136f565b50819550505050505090565b600460009054906101000a900473ffffffffffffffffffffffffffffffffffffffff1681565b6000600160008381526020019081526020016000209050600081600201541161168a576040517f08c379a0000000000000000000000000000000000000000000000000000000008152600401611681906132c7565b60405180910390fd5b3373ffffffffffffffffffffffffffffffffffffffff168160000160009054906101000a900473ffffffffffffffffffffffffffffffffffffffff1673ffffffffffffffffffffffffffffffffffffffff16141561171d576040517f08c379a000000000000000000000000000000000000000000000000000000000815260040161171490613367565b60405180910390fd5b8060010160009054906101000a900473ffffffffffffffffffffffffffffffffffffffff1673ffffffffffffffffffffffffffffffffffffffff168160000160009054906101000a900473ffffffffffffffffffffffffffffffffffffffff1673ffffffffffffffffffffffffffffffffffffffff16146117d3576040517f08c379a00000000000000000000000000000000000000000000000000000000081526004016117ca90613307565b60405180910390fd5b80600201543414611819576040517f08c379a000000000000000000000000000000000000000000000000000000000815260040161181090613447565b60405180910390fd5b6118af600260003373ffffffffffffffffffffffffffffffffffffffff1673ffffffffffffffffffffffffffffffffffffffff1681526020019081526020016000208054806020026020016040519081016040528092919081815260200182805480156118a557602002820191906000526020600020905b815481526020019060010190808311611891575b5050505050611b29565b6118ee576040517f08c379a00000000000000000000000000000000000000000000000000000000081526004016118e5906133a7565b60405180910390fd5b338160010160006101000a81548173ffffffffffffffffffffffffffffffffffffffff021916908373ffffffffffffffffffffffffffffffffffffffff1602179055506000600260003373ffffffffffffffffffffffffffffffffffffffff1673ffffffffffffffffffffffffffffffffffffffff16815260200190815260200160002080549050116119ed5760405180606001604052808381526020016007548152602001600754815250600260003373ffffffffffffffffffffffffffffffffffffffff1673ffffffffffffffffffffffffffffffffffffffff1681526020019081526020016000209060036119e79291906127b0565b50611b25565b60005b600554811015611b2357600754600260003373ffffffffffffffffffffffffffffffffffffffff1673ffffffffffffffffffffffffffffffffffffffff1681526020019081526020016000208281548110611a74577f4e487b7100000000000000000000000000000000000000000000000000000000600052603260045260246000fd5b90600052602060002001541415611b105782600260003373ffffffffffffffffffffffffffffffffffffffff1673ffffffffffffffffffffffffffffffffffffffff1681526020019081526020016000208281548110611afd577f4e487b7100000000000000000000000000000000000000000000000000000000600052603260045260246000fd5b9060005260206000200181905550611b23565b8080611b1b9061383a565b9150506119f0565b505b5050565b600080825111611b3c5760019050611bb6565b60005b600554811015611bb057600754838281518110611b85577f4e487b7100000000000000000000000000000000000000000000000000000000600052603260045260246000fd5b60200260200101511415611b9d576001915050611bb6565b8080611ba89061383a565b915050611b3f565b50600090505b919050565b60003411611bfe576040517f08c379a0000000000000000000000000000000000000000000000000000000008152600401611bf590613407565b60405180910390fd5b611c94600260003373ffffffffffffffffffffffffffffffffffffffff1673ffffffffffffffffffffffffffffffffffffffff168152602001908152602001600020805480602002602001604051908101604052809291908181526020018280548015611c8a57602002820191906000526020600020905b815481526020019060010190808311611c76575b5050505050611b29565b611cd3576040517f08c379a0000000000000000000000000000000000000000000000000000000008152600401611cca906133a7565b60405180910390fd5b6040518061010001604052803373ffffffffffffffffffffffffffffffffffffffff1681526020013373ffffffffffffffffffffffffffffffffffffffff1681526020013481526020018481526020018381526020018215158152602001600460009054906101000a900473ffffffffffffffffffffffffffffffffffffffff1673ffffffffffffffffffffffffffffffffffffffff166344a11f65600387604051611d7f919061317f565b908152602001604051809103902060009054906101000a900473ffffffffffffffffffffffffffffffffffffffff166040518263ffffffff1660e01b8152600401611dca91906131ad565b60206040518083038186803b158015611de257600080fd5b505afa158015611df6573d6000803e3d6000fd5b505050506040513d601f19601f82011682018060405250810190611e1a9190612a98565b8152602001600380811115611e58577f4e487b7100000000000000000000000000000000000000000000000000000000600052602160045260246000fd5b815250600160008054815260200190815260200160002060008201518160000160006101000a81548173ffffffffffffffffffffffffffffffffffffffff021916908373ffffffffffffffffffffffffffffffffffffffff16021790555060208201518160010160006101000a81548173ffffffffffffffffffffffffffffffffffffffff021916908373ffffffffffffffffffffffffffffffffffffffff160217905550604082015181600201556060820151816003019080519060200190611f239291906127fd565b506080820151816004015560a08201518160050160006101000a81548160ff02191690831515021790555060c0820151816006015560e08201518160070160006101000a81548160ff02191690836003811115611fa9577f4e487b7100000000000000000000000000000000000000000000000000000000600052602160045260246000fd5b02179055509050506000547fa85f9845510d83562eaa9e779b6973f58826879a69d5613807f0415e1ce692c433604051611fe391906131ad565b60405180910390a26000600260003373ffffffffffffffffffffffffffffffffffffffff1673ffffffffffffffffffffffffffffffffffffffff16815260200190815260200160002080549050116120a957604051806060016040528060005481526020016007548152602001600754815250600260003373ffffffffffffffffffffffffffffffffffffffff1673ffffffffffffffffffffffffffffffffffffffff1681526020019081526020016000209060036120a39291906127b0565b506121e3565b60005b6005548110156121e157600754600260003373ffffffffffffffffffffffffffffffffffffffff1673ffffffffffffffffffffffffffffffffffffffff1681526020019081526020016000208281548110612130577f4e487b7100000000000000000000000000000000000000000000000000000000600052603260045260246000fd5b906000526020600020015414156121ce57600054600260003373ffffffffffffffffffffffffffffffffffffffff1673ffffffffffffffffffffffffffffffffffffffff16815260200190815260200160002082815481106121bb577f4e487b7100000000000000000000000000000000000000000000000000000000600052603260045260246000fd5b90600052602060002001819055506121e1565b80806121d99061383a565b9150506120ac565b505b6000808154809291906121f59061383a565b9190505550505050565b612207612705565b60006001600084815260200190815260200160002090506000816002015411612265576040517f08c379a000000000000000000000000000000000000000000000000000000000815260040161225c90613427565b60405180910390fd5b60016000848152602001908152602001600020604051806101000160405290816000820160009054906101000a900473ffffffffffffffffffffffffffffffffffffffff1673ffffffffffffffffffffffffffffffffffffffff1673ffffffffffffffffffffffffffffffffffffffff1681526020016001820160009054906101000a900473ffffffffffffffffffffffffffffffffffffffff1673ffffffffffffffffffffffffffffffffffffffff1673ffffffffffffffffffffffffffffffffffffffff1681526020016002820154815260200160038201805461234a906137d7565b80601f0160208091040260200160405190810160405280929190818152602001828054612376906137d7565b80156123c35780601f10612398576101008083540402835291602001916123c3565b820191906000526020600020905b8154815290600101906020018083116123a657829003601f168201915b50505050508152602001600482015481526020016005820160009054906101000a900460ff16151515158152602001600682015481526020016007820160009054906101000a900460ff166003811115612446577f4e487b7100000000000000000000000000000000000000000000000000000000600052602160045260246000fd5b600381111561247e577f4e487b7100000000000000000000000000000000000000000000000000000000600052602160045260246000fd5b81525050915050919050565b600260205281600052604060002081815481106124a657600080fd5b90600052602060002001600091509150505481565b60016020528060005260406000206000915090508060000160009054906101000a900473ffffffffffffffffffffffffffffffffffffffff16908060010160009054906101000a900473ffffffffffffffffffffffffffffffffffffffff1690806002015490806003018054612530906137d7565b80601f016020809104026020016040519081016040528092919081815260200182805461255c906137d7565b80156125a95780601f1061257e576101008083540402835291602001916125a9565b820191906000526020600020905b81548152906001019060200180831161258c57829003601f168201915b5050505050908060040154908060050160009054906101000a900460ff16908060060154908060070160009054906101000a900460ff16905088565b6003818051602081018201805184825260208301602085012081835280955050505050506000915054906101000a900473ffffffffffffffffffffffffffffffffffffffff1681565b6060600260008373ffffffffffffffffffffffffffffffffffffffff1673ffffffffffffffffffffffffffffffffffffffff1681526020019081526020016000208054806020026020016040519081016040528092919081815260200182805480156126b957602002820191906000526020600020905b8154815260200190600101908083116126a5575b50505050509050919050565b5080546126d1906137d7565b6000825580601f106126e35750612702565b601f0160209004906000526020600020908101906127019190612883565b5b50565b604051806101000160405280600073ffffffffffffffffffffffffffffffffffffffff168152602001600073ffffffffffffffffffffffffffffffffffffffff16815260200160008152602001606081526020016000815260200160001515815260200160008152602001600060038111156127aa577f4e487b7100000000000000000000000000000000000000000000000000000000600052602160045260246000fd5b81525090565b8280548282559060005260206000209081019282156127ec579160200282015b828111156127eb5782518255916020019190600101906127d0565b5b5090506127f99190612883565b5090565b828054612809906137d7565b90600052602060002090601f01602090048101928261282b5760008555612872565b82601f1061284457805160ff1916838001178555612872565b82800160010185558215612872579182015b82811115612871578251825591602001919060010190612856565b5b50905061287f9190612883565b5090565b5b8082111561289c576000816000905550600101612884565b5090565b60006128b36128ae846134c9565b6134a4565b905080838252602082019050828560208602820111156128d257600080fd5b60005b8581101561290257816128e888826129dd565b8452602084019350602083019250506001810190506128d5565b5050509392505050565b600061291f61291a846134f5565b6134a4565b90508281526020810184848401111561293757600080fd5b612942848285613795565b509392505050565b60008135905061295981613c8c565b92915050565b600082601f83011261297057600080fd5b81356129808482602086016128a0565b91505092915050565b60008135905061299881613ca3565b92915050565b6000815190506129ad81613cba565b92915050565b600082601f8301126129c457600080fd5b81356129d484826020860161290c565b91505092915050565b6000813590506129ec81613cd1565b92915050565b600060208284031215612a0457600080fd5b6000612a128482850161294a565b91505092915050565b60008060408385031215612a2e57600080fd5b6000612a3c8582860161294a565b9250506020612a4d858286016129dd565b9150509250929050565b600060208284031215612a6957600080fd5b600082013567ffffffffffffffff811115612a8357600080fd5b612a8f8482850161295f565b91505092915050565b600060208284031215612aaa57600080fd5b6000612ab88482850161299e565b91505092915050565b600060208284031215612ad357600080fd5b600082013567ffffffffffffffff811115612aed57600080fd5b612af9848285016129b3565b91505092915050565b600080600060608486031215612b1757600080fd5b600084013567ffffffffffffffff811115612b3157600080fd5b612b3d868287016129b3565b9350506020612b4e868287016129dd565b9250506040612b5f86828701612989565b9150509250925092565b600060208284031215612b7b57600080fd5b6000612b89848285016129dd565b91505092915050565b6000612b9e8383613001565b905092915050565b6000612bb28383613161565b60208301905092915050565b612bc7816136fa565b82525050565b612bd6816136fa565b82525050565b6000612be78261355b565b612bf18185613596565b935083602082028501612c0385613526565b8060005b85811015612c3f5784840389528151612c208582612b92565b9450612c2b8361357c565b925060208a01995050600181019050612c07565b50829750879550505050505092915050565b6000612c5c82613566565b612c6681856135a7565b9350612c7183613536565b8060005b83811015612ca2578151612c898882612ba6565b9750612c9483613589565b925050600181019050612c75565b5085935050505092915050565b612cb88161370c565b82525050565b612cc78161370c565b82525050565b612cd68161375f565b82525050565b612ce581613783565b82525050565b612cf481613783565b82525050565b612d038161372b565b82525050565b612d128161372b565b82525050565b6000612d2382613571565b612d2d81856135b8565b9350612d3d8185602086016137a4565b612d468161396e565b840191505092915050565b6000612d5c82613571565b612d6681856135c9565b9350612d768185602086016137a4565b612d7f8161396e565b840191505092915050565b6000612d9582613571565b612d9f81856135da565b9350612daf8185602086016137a4565b80840191505092915050565b60008154612dc8816137d7565b612dd281866135da565b94506001821660008114612ded5760018114612dfe57612e31565b60ff19831686528186019350612e31565b612e0785613546565b60005b83811015612e2957815481890152600182019150602081019050612e0a565b838801955050505b50505092915050565b6000612e47601b836135c9565b9150612e528261397f565b602082019050919050565b6000612e6a6025836135c9565b9150612e75826139a8565b604082019050919050565b6000612e8d602e836135c9565b9150612e98826139f7565b604082019050919050565b6000612eb06020836135c9565b9150612ebb82613a46565b602082019050919050565b6000612ed36011836135c9565b9150612ede82613a6f565b602082019050919050565b6000612ef66025836135c9565b9150612f0182613a98565b604082019050919050565b6000612f196018836135c9565b9150612f2482613ae7565b602082019050919050565b6000612f3c6010836135c9565b9150612f4782613b10565b602082019050919050565b6000612f5f6018836135c9565b9150612f6a82613b39565b602082019050919050565b6000612f826038836135c9565b9150612f8d82613b62565b604082019050919050565b6000612fa56022836135c9565b9150612fb082613bb1565b604082019050919050565b6000612fc86019836135c9565b9150612fd382613c00565b602082019050919050565b6000612feb6031836135c9565b9150612ff682613c29565b604082019050919050565b60006101008301600083015161301a6000860182612bbe565b50602083015161302d6020860182612bbe565b5060408301516130406040860182613161565b50606083015184820360608601526130588282612d18565b915050608083015161306d6080860182613161565b5060a083015161308060a0860182612caf565b5060c083015161309360c0860182612cfa565b5060e08301516130a660e0860182612cdc565b508091505092915050565b6000610100830160008301516130ca6000860182612bbe565b5060208301516130dd6020860182612bbe565b5060408301516130f06040860182613161565b50606083015184820360608601526131088282612d18565b915050608083015161311d6080860182613161565b5060a083015161313060a0860182612caf565b5060c083015161314360c0860182612cfa565b5060e083015161315660e0860182612cdc565b508091505092915050565b61316a81613755565b82525050565b61317981613755565b82525050565b600061318b8284612d8a565b915081905092915050565b60006131a28284612dbb565b915081905092915050565b60006020820190506131c26000830184612bcd565b92915050565b6000610100820190506131de600083018b612bcd565b6131eb602083018a612bcd565b6131f86040830189613170565b818103606083015261320a8188612d51565b90506132196080830187613170565b61322660a0830186612cbe565b61323360c0830185612d09565b61324060e0830184612ceb565b9998505050505050505050565b600060208201905081810360008301526132678184612bdc565b905092915050565b600060208201905081810360008301526132898184612c51565b905092915050565b60006020820190506132a66000830184612cbe565b92915050565b60006020820190506132c16000830184612ccd565b92915050565b600060208201905081810360008301526132e081612e3a565b9050919050565b6000602082019050818103600083015261330081612e5d565b9050919050565b6000602082019050818103600083015261332081612e80565b9050919050565b6000602082019050818103600083015261334081612ea3565b9050919050565b6000602082019050818103600083015261336081612ec6565b9050919050565b6000602082019050818103600083015261338081612ee9565b9050919050565b600060208201905081810360008301526133a081612f0c565b9050919050565b600060208201905081810360008301526133c081612f2f565b9050919050565b600060208201905081810360008301526133e081612f52565b9050919050565b6000602082019050818103600083015261340081612f75565b9050919050565b6000602082019050818103600083015261342081612f98565b9050919050565b6000602082019050818103600083015261344081612fbb565b9050919050565b6000602082019050818103600083015261346081612fde565b9050919050565b6000602082019050818103600083015261348181846130b1565b905092915050565b600060208201905061349e6000830184613170565b92915050565b60006134ae6134bf565b90506134ba8282613809565b919050565b6000604051905090565b600067ffffffffffffffff8211156134e4576134e361393f565b5b602082029050602081019050919050565b600067ffffffffffffffff8211156135105761350f61393f565b5b6135198261396e565b9050602081019050919050565b6000819050602082019050919050565b6000819050602082019050919050565b60008190508160005260206000209050919050565b600081519050919050565b600081519050919050565b600081519050919050565b6000602082019050919050565b6000602082019050919050565b600082825260208201905092915050565b600082825260208201905092915050565b600082825260208201905092915050565b600082825260208201905092915050565b600081905092915050565b60006135f082613755565b91506135fb83613755565b9250827fffffffffffffffffffffffffffffffffffffffffffffffffffffffffffffffff038211156136305761362f613883565b5b828201905092915050565b600061364682613755565b915061365183613755565b925082613661576136606138b2565b5b828204905092915050565b600061367782613755565b915061368283613755565b9250817fffffffffffffffffffffffffffffffffffffffffffffffffffffffffffffffff04831182151516156136bb576136ba613883565b5b828202905092915050565b60006136d182613755565b91506136dc83613755565b9250828210156136ef576136ee613883565b5b828203905092915050565b600061370582613735565b9050919050565b60008115159050919050565b600081905061372682613c78565b919050565b6000819050919050565b600073ffffffffffffffffffffffffffffffffffffffff82169050919050565b6000819050919050565b600061376a82613771565b9050919050565b600061377c82613735565b9050919050565b600061378e82613718565b9050919050565b82818337600083830152505050565b60005b838110156137c25780820151818401526020810190506137a7565b838111156137d1576000848401525b50505050565b600060028204905060018216806137ef57607f821691505b6020821081141561380357613802613910565b5b50919050565b6138128261396e565b810181811067ffffffffffffffff821117156138315761383061393f565b5b80604052505050565b600061384582613755565b91507fffffffffffffffffffffffffffffffffffffffffffffffffffffffffffffffff82141561387857613877613883565b5b600182019050919050565b7f4e487b7100000000000000000000000000000000000000000000000000000000600052601160045260246000fd5b7f4e487b7100000000000000000000000000000000000000000000000000000000600052601260045260246000fd5b7f4e487b7100000000000000000000000000000000000000000000000000000000600052602160045260246000fd5b7f4e487b7100000000000000000000000000000000000000000000000000000000600052602260045260246000fd5b7f4e487b7100000000000000000000000000000000000000000000000000000000600052604160045260246000fd5b6000601f19601f8301169050919050565b7f626174746c65206e756d6265722069736e27742065786973742e0a0000000000600082015250565b7f746f6f206561726c7920746f20636865636b2077686f2069732074686520776960008201527f6e6e65722e000000000000000000000000000000000000000000000000000000602082015250565b7f7468697320626174746c6520697320636c6f7365642c206f70706f6e656e742060008201527f616c72656164792065786973742e000000000000000000000000000000000000602082015250565b7f796f7520617265206e6f742070617274206f66207468697320626174746c652e600082015250565b7f776974686472617720616c72656164792e000000000000000000000000000000600082015250565b7f696d706f737369626c6520746f20666967687420616761696e737420796f757260008201527f73656c662e000000000000000000000000000000000000000000000000000000602082015250565b7f7468697320626174746c652069736e27742065786973742e0000000000000000600082015250565b7f746f6f206d616e7920626174746c657300000000000000000000000000000000600082015250565b7f7468697320626174746c65206469646e742073746172742e0000000000000000600082015250565b7f746865726520697320616c7265616479206f70706f6e656e742c20746869732060008201527f626174746c652063616e742062652063616e63656c65642e0000000000000000602082015250565b7f796f75206861766520746f20626574206f6e20706f7369746976652076616c7560008201527f6521000000000000000000000000000000000000000000000000000000000000602082015250565b7f7468697320626174746c652069736e27742065786973742e0a00000000000000600082015250565b7f62657474696e672076616c75652069736e27742061732073706563696669656460008201527f20666f72207468697320626174746c652e000000000000000000000000000000602082015250565b60048110613c8957613c886138e1565b5b50565b613c95816136fa565b8114613ca057600080fd5b50565b613cac8161370c565b8114613cb757600080fd5b50565b613cc38161372b565b8114613cce57600080fd5b50565b613cda81613755565b8114613ce557600080fd5b5056fea26469706673582212207943fc6bde581ce7289552c4bdeed40e87ff902ed2e5cc7ab788340d5c43119264736f6c63430008030033608060405234801561001057600080fd5b506102fc806100206000396000f3fe608060405234801561001057600080fd5b506004361061002b5760003560e01c806344a11f6514610030575b600080fd5b61004a60048036038101906100459190610144565b610060565b60405161005791906101f3565b60405180910390f35b6000808273ffffffffffffffffffffffffffffffffffffffff1663feaf968c6040518163ffffffff1660e01b815260040160a06040518083038186803b1580156100a957600080fd5b505afa1580156100bd573d6000803e3d6000fd5b505050506040513d601f19601f820116820180604052508101906100e1919061016d565b50505091505080915050919050565b6000813590506100ff8161026a565b92915050565b60008151905061011481610281565b92915050565b60008151905061012981610298565b92915050565b60008151905061013e816102af565b92915050565b60006020828403121561015657600080fd5b6000610164848285016100f0565b91505092915050565b600080600080600060a0868803121561018557600080fd5b60006101938882890161012f565b95505060206101a488828901610105565b94505060406101b58882890161011a565b93505060606101c68882890161011a565b92505060806101d78882890161012f565b9150509295509295909350565b6101ed81610220565b82525050565b600060208201905061020860008301846101e4565b92915050565b60006102198261022a565b9050919050565b6000819050919050565b600073ffffffffffffffffffffffffffffffffffffffff82169050919050565b6000819050919050565b600069ffffffffffffffffffff82169050919050565b6102738161020e565b811461027e57600080fd5b50565b61028a81610220565b811461029557600080fd5b50565b6102a18161024a565b81146102ac57600080fd5b50565b6102b881610254565b81146102c357600080fd5b5056fea264697066735822122067f529d65b74f0da7ea76c2dc1c15817e84e269b54410f629a0a377abd43a16d64736f6c63430008030033",
  "immutableReferences": {},
  "source": "// SPDX-License-Identifier: MIT\r\npragma solidity ^0.8.3;\r\nimport \"./PriceFeed.sol\";\r\n\r\ncontract BinaryOption{\r\n\r\n    uint256 public battleId; // unique id for each battle\r\n    mapping(uint256 => Battle) public battleInfo; // map of the existing battles\r\n    mapping(address => uint256[]) public addressToBattle; // map of relevant battles\r\n    mapping(string => address) public feedAddress; // map of addresses for the price feeds\r\n    PriceFeed public priceFeed;\r\n    uint256 maxNumOfBattles = 3;\r\n    uint256 historyWindow = 2;\r\n    uint256 battleFreeSpace = 100;\r\n    //address owner;\r\n\r\n    event AddEvent(\r\n    uint256 indexed id,\r\n    address address_field\r\n    );\r\n\r\n    enum Status {\r\n            Opponent,\r\n            Creator,\r\n            Draw,\r\n            NotOver\r\n        }\r\n\r\n    struct Battle {\r\n        address creator;\r\n        address opponent;\r\n        uint256 amountBet;\r\n        string betType;\r\n        uint betDate;\r\n        bool isUp;\r\n        int currVal;\r\n        Status whoWin;\r\n    }\r\n\r\n\r\n    constructor()  {\r\n        priceFeed = new PriceFeed();\r\n        bool isKovan = false; // true if kovan, otherwise rinkeby\r\n        //owner = msg.sender;\r\n        if (isKovan){\r\n        feedAddress[\"EthVsUsd\"] = 0x9326BFA02ADD2366b30bacB125260Af641031331;\r\n        }\r\n        else {\r\n        // those addresses (of rinkbey test network) can be found at: https://docs.chain.link/docs/ethereum-addresses/\r\n        feedAddress[\"eth_vs_usd\"] = 0x8A753747A1Fa494EC906cE90E9f37563A8AF630e;\r\n        feedAddress[\"btc_vs_usd\"] = 0xECe365B379E1dD183B20fc5f022230C044d51404;\r\n        feedAddress[\"eur_vs_usd\"] = 0x78F9e60608bF48a1155b4B2A5e31F32318a1d85F;\r\n        feedAddress[\"usdc_vs_eth\"] = 0xdCA36F27cbC4E38aE16C4E9f99D39b42337F6dcf;\r\n        feedAddress[\"dai_vs_usd\"] = 0x2bA49Aaa16E6afD2a993473cfB70Fa8559B523cF;\r\n        feedAddress[\"dai_vs_eth\"] = 0x74825DbC8BF76CC4e9494d0ecB210f676Efa001D;\r\n        feedAddress[\"sdefi_vs_usd\"] = 0x0630521aC362bc7A19a4eE44b57cE72Ea34AD01c;\r\n        feedAddress[\"snx_vs_usd\"] = 0xE96C4407597CD507002dF88ff6E0008AB41266Ee;\r\n        }\r\n\r\n    }\r\n\r\n    function hasFreeEntry(uint256[] memory battles) public view returns (bool){\r\n        if (!(battles.length > 0)){\r\n            return true;\r\n        }\r\n        for (uint i = 0; i < maxNumOfBattles; i++){\r\n            if (battles[i] == battleFreeSpace){\r\n                return true;\r\n            }\r\n        }\r\n        return false;\r\n    }\r\n\r\n    // a creator create a new battle\r\n    function addBattle(string memory betType,uint betDate,bool direction) public payable {\r\n        require(msg.value > 0, \"you have to bet on positive value!\");\r\n        // doesn't play more than maxNumOfBattles games simultaneously\r\n        require (hasFreeEntry(addressToBattle[msg.sender]), \"too many battles\" );\r\n        battleInfo[battleId] = Battle(msg.sender,msg.sender,msg.value,betType,betDate,direction,\r\n        priceFeed.getThePrice(feedAddress[betType]), Status.NotOver);\r\n        emit AddEvent(battleId, msg.sender);\r\n        if (!(addressToBattle[msg.sender].length > 0)){\r\n        //b = 1;\r\n        addressToBattle[msg.sender] = [battleId, battleFreeSpace, battleFreeSpace]; // battleFreeSpace signs empty entry. -1 doesn't work\r\n        } else {\r\n            //b = 0;\r\n            for(uint i = 0; i < maxNumOfBattles; i++){\r\n                if (addressToBattle[msg.sender][i] == battleFreeSpace){\r\n                    addressToBattle[msg.sender][i] = battleId;\r\n                    break;\r\n                }\r\n            }\r\n        }\r\n        battleId++;\r\n    }\r\n\r\n    function getaddressToBattle(address a) public view returns(uint256[] memory) {\r\n        return addressToBattle[a];\r\n    }\r\n\r\n    function getBattleInfo(uint256 battle_id) public returns(Battle memory) {\r\n        Battle storage bate = battleInfo[battle_id];\r\n        require(bate.amountBet > 0, \"this battle isn't exist.\\n\");\r\n        return battleInfo[battle_id];\r\n    }\r\n\r\n    function getAll() public view returns (Battle[] memory){\r\n            uint256 lastIndex = battleId;\r\n            uint256 firstIndex = 0;\r\n            if (lastIndex >= historyWindow){\r\n                firstIndex = lastIndex - historyWindow;\r\n            }\r\n            uint256 viewRange = lastIndex - firstIndex;\r\n            Battle[] memory ret = new Battle[](viewRange);\r\n            uint j = 0;\r\n            for (uint i = firstIndex; i < lastIndex; i++) {\r\n                ret[j] = battleInfo[i];\r\n                j += 1;\r\n            }\r\n            return ret;\r\n    }\r\n\r\n    // an opponent is signed to battle number: battle_id\r\n    function acceptBattle(uint256 battle_id) public payable{\r\n\r\n        Battle storage bate = battleInfo[battle_id];\r\n        require(bate.amountBet > 0, \"battle number isn't exist.\\n\");\r\n        require(bate.creator != msg.sender, \"impossible to fight against yourself.\");\r\n        require(bate.creator == bate.opponent, \"this battle is closed, opponent already exist.\");\r\n        require(msg.value == bate.amountBet, \"betting value isn't as specified for this battle.\");\r\n        // doesn't play more than maxNumOfBattles games simultaneously\r\n        require (hasFreeEntry(addressToBattle[msg.sender]), \"too many battles\" );\r\n        bate.opponent = msg.sender;\r\n        if (!(addressToBattle[msg.sender].length > 0)){\r\n            addressToBattle[msg.sender] = [battle_id, battleFreeSpace, battleFreeSpace];\r\n        } else {\r\n            for (uint i = 0; i < maxNumOfBattles; i++){\r\n                if (addressToBattle[msg.sender][i] == battleFreeSpace){\r\n                    addressToBattle[msg.sender][i] = battle_id;\r\n                    break;\r\n                }\r\n            }\r\n        }\r\n    }\r\n\r\n\r\n    // a creator cancels his battle\r\n    function cancelBattle(uint256 battle_id) public {\r\n        Battle memory bate = battleInfo[battle_id];\r\n        require(bate.amountBet > 0, \"this battle isn't exist.\");\r\n        require(bate.creator == bate.opponent, \"there is already opponent, this battle cant be canceled.\");\r\n        payable(bate.creator).transfer(bate.amountBet); // return the amount which was invested\r\n        address creator = bate.creator;\r\n        for (uint i = 0; i < maxNumOfBattles; i++){\r\n            if(addressToBattle[creator][i] == battle_id){\r\n                addressToBattle[creator][i] = battleFreeSpace;\r\n                break;\r\n            }\r\n        }\r\n        delete battleInfo[battle_id]; // battle is canceled\r\n    }\r\n\r\n    // the winner may draw his money\r\n    function withdraw(uint256 battle_id) public {\r\n        Status winner;\r\n        int oldPrice;\r\n        int newPrice;\r\n        Battle storage bate=battleInfo[battle_id];\r\n        uint betDateSecond = bate.betDate / 1000; // divide by 1000 to convert milliseconds to seconds\r\n        require(bate.creator != bate.opponent, \"this battle didnt start.\"); // in case the creator try to withdraw before having opponent. He may cancel battle if he wants.\r\n        require((bate.creator == msg.sender || bate.opponent == msg.sender), \"you are not part of this battle.\");\r\n        require(block.timestamp >= betDateSecond, \"too early to check who is the winner.\");\r\n        require(bate.whoWin == Status.NotOver, \"withdraw already.\");\r\n        oldPrice = bate.currVal;\r\n        newPrice = priceFeed.getThePrice(feedAddress[bate.betType]);\r\n        // deliver the money to the winner\r\n        if(oldPrice < newPrice){\r\n\r\n            if (bate.isUp){\r\n                winner = Status.Creator;\r\n                payable(bate.creator).transfer(2 * bate.amountBet); // multiply by 2 since we deliver the money of both the creator and his opponent\r\n            }\r\n            else{\r\n                winner = Status.Opponent;\r\n                payable(bate.opponent).transfer(2*bate.amountBet);\r\n            }\r\n\r\n        }\r\n        else if (oldPrice > newPrice){\r\n\r\n            if (bate.isUp){\r\n                winner = Status.Opponent;\r\n                payable(bate.opponent).transfer(2 * bate.amountBet);\r\n            }\r\n            else {\r\n                winner = Status.Creator;\r\n                payable(bate.creator).transfer(2*bate.amountBet);\r\n            }\r\n        }\r\n\r\n        else {\r\n            winner = Status.Draw;\r\n            payable(bate.opponent).transfer(bate.amountBet);\r\n            payable(bate.creator).transfer(bate.amountBet);\r\n        }\r\n\r\n        bate.whoWin = winner;\r\n        address creator = battleInfo[battle_id].creator;\r\n        address opponent = battleInfo[battle_id].opponent;\r\n        for (uint i = 0; i < maxNumOfBattles; i ++){\r\n            if(addressToBattle[creator][i] == battle_id){\r\n                addressToBattle[creator][i] = battleFreeSpace;\r\n                break;\r\n            }\r\n        }\r\n        for (uint i = 0; i < maxNumOfBattles; i ++){\r\n             if(addressToBattle[opponent][i] == battle_id){\r\n                addressToBattle[opponent][i] = battleFreeSpace;\r\n                break;\r\n             }\r\n        }\r\n    }\r\n\r\n    /*function cleanBattles() public{\r\n        require(msg.sender == owner, \"only the owner may delete battles\");\r\n        uint256 numOfBattles = battleId;\r\n        for (uint i = 0; i <numOfBattles; i++){\r\n            // delete battle only if is finished\r\n            if (battleInfo[i].currVal > 0 && battleInfo[i].whoWin != Status.NotOver){\r\n                delete battleInfo[i];\r\n            }\r\n        }\r\n    }*/\r\n}",
  "sourcePath": "C:/Users/Admin/IdeaProjects/tau_Smart_contract/src/solidity/contracts/BinaryOption.sol",
  "compiler": {
    "name": "solc",
    "version": "0.8.3+commit.8d00100c.Emscripten.clang"
  },
  "schemaVersion": "3.3.4",
  "updatedAt": "2021-08-27T10:56:22.612Z",
  "networkType": "ethereum",
  "devdoc": {
    "kind": "dev",
    "methods": {},
    "version": 1
  },
  "userdoc": {
    "kind": "user",
    "methods": {},
    "version": 1
  }
}