{
  "contractName": "BinaryOption",
  "abi": [
    {
      "inputs": [],
      "stateMutability": "nonpayable",
      "type": "constructor"
    },
    {
      "anonymous": false,
      "inputs": [
        {
          "indexed": true,
          "internalType": "uint256",
          "name": "id",
          "type": "uint256"
        },
        {
          "indexed": false,
          "internalType": "address",
          "name": "address_field",
          "type": "address"
        }
      ],
      "name": "AddEvent",
      "type": "event"
    },
    {
      "anonymous": false,
      "inputs": [
        {
          "indexed": true,
          "internalType": "uint256",
          "name": "id",
          "type": "uint256"
        },
        {
          "indexed": true,
          "internalType": "uint256",
          "name": "amount",
          "type": "uint256"
        },
        {
          "indexed": false,
          "internalType": "int256",
          "name": "win",
          "type": "int256"
        }
      ],
      "name": "MyEvent",
      "type": "event"
    },
    {
      "inputs": [],
      "name": "age",
      "outputs": [
        {
          "internalType": "contract Aggre",
          "name": "",
          "type": "address"
        }
      ],
      "stateMutability": "view",
      "type": "function"
    },
    {
      "inputs": [],
      "name": "battleId",
      "outputs": [
        {
          "internalType": "uint256",
          "name": "",
          "type": "uint256"
        }
      ],
      "stateMutability": "view",
      "type": "function"
    },
    {
      "inputs": [
        {
          "internalType": "uint256",
          "name": "",
          "type": "uint256"
        }
      ],
      "name": "battleInfo",
      "outputs": [
        {
          "internalType": "address",
          "name": "creator",
          "type": "address"
        },
        {
          "internalType": "address",
          "name": "opponent",
          "type": "address"
        },
        {
          "internalType": "uint256",
          "name": "amountBet",
          "type": "uint256"
        },
        {
          "internalType": "string",
          "name": "betType",
          "type": "string"
        },
        {
          "internalType": "uint256",
          "name": "betDate",
          "type": "uint256"
        },
        {
          "internalType": "bool",
          "name": "isUp",
          "type": "bool"
        },
        {
          "internalType": "int256",
          "name": "currVal",
          "type": "int256"
        },
        {
          "internalType": "int256",
          "name": "whoWin",
          "type": "int256"
        }
      ],
      "stateMutability": "view",
      "type": "function"
    },
    {
      "inputs": [
        {
          "internalType": "string",
          "name": "",
          "type": "string"
        }
      ],
      "name": "feedAddress",
      "outputs": [
        {
          "internalType": "address",
          "name": "",
          "type": "address"
        }
      ],
      "stateMutability": "view",
      "type": "function"
    },
    {
      "inputs": [],
      "name": "owner",
      "outputs": [
        {
          "internalType": "address",
          "name": "",
          "type": "address"
        }
      ],
      "stateMutability": "view",
      "type": "function"
    },
    {
      "inputs": [],
      "name": "tempVal",
      "outputs": [
        {
          "internalType": "uint256",
          "name": "",
          "type": "uint256"
        }
      ],
      "stateMutability": "view",
      "type": "function"
    },
    {
      "inputs": [
        {
          "internalType": "string",
          "name": "betType",
          "type": "string"
        },
        {
          "internalType": "uint256",
          "name": "betDate",
          "type": "uint256"
        },
        {
          "internalType": "bool",
          "name": "direction",
          "type": "bool"
        }
      ],
      "name": "addBattle",
      "outputs": [],
      "stateMutability": "payable",
      "type": "function"
    },
    {
      "inputs": [
        {
          "internalType": "uint256",
          "name": "battle_id",
          "type": "uint256"
        }
      ],
      "name": "getBattleDate",
      "outputs": [
        {
          "components": [
            {
              "internalType": "address",
              "name": "creator",
              "type": "address"
            },
            {
              "internalType": "address",
              "name": "opponent",
              "type": "address"
            },
            {
              "internalType": "uint256",
              "name": "amountBet",
              "type": "uint256"
            },
            {
              "internalType": "string",
              "name": "betType",
              "type": "string"
            },
            {
              "internalType": "uint256",
              "name": "betDate",
              "type": "uint256"
            },
            {
              "internalType": "bool",
              "name": "isUp",
              "type": "bool"
            },
            {
              "internalType": "int256",
              "name": "currVal",
              "type": "int256"
            },
            {
              "internalType": "int256",
              "name": "whoWin",
              "type": "int256"
            }
          ],
          "internalType": "struct BinaryOption.Battle",
          "name": "",
          "type": "tuple"
        }
      ],
      "stateMutability": "payable",
      "type": "function"
    },
    {
      "inputs": [],
      "name": "getAll",
      "outputs": [
        {
          "components": [
            {
              "internalType": "address",
              "name": "creator",
              "type": "address"
            },
            {
              "internalType": "address",
              "name": "opponent",
              "type": "address"
            },
            {
              "internalType": "uint256",
              "name": "amountBet",
              "type": "uint256"
            },
            {
              "internalType": "string",
              "name": "betType",
              "type": "string"
            },
            {
              "internalType": "uint256",
              "name": "betDate",
              "type": "uint256"
            },
            {
              "internalType": "bool",
              "name": "isUp",
              "type": "bool"
            },
            {
              "internalType": "int256",
              "name": "currVal",
              "type": "int256"
            },
            {
              "internalType": "int256",
              "name": "whoWin",
              "type": "int256"
            }
          ],
          "internalType": "struct BinaryOption.Battle[]",
          "name": "",
          "type": "tuple[]"
        }
      ],
      "stateMutability": "view",
      "type": "function"
    },
    {
      "inputs": [
        {
          "internalType": "uint256",
          "name": "battle_id",
          "type": "uint256"
        }
      ],
      "name": "acceptBattle",
      "outputs": [],
      "stateMutability": "payable",
      "type": "function"
    },
    {
      "inputs": [
        {
          "internalType": "uint256",
          "name": "battle_id",
          "type": "uint256"
        }
      ],
      "name": "cancelBattle",
      "outputs": [],
      "stateMutability": "payable",
      "type": "function"
    },
    {
      "inputs": [
        {
          "internalType": "uint256",
          "name": "battle_id",
          "type": "uint256"
        }
      ],
      "name": "withdraw",
      "outputs": [],
      "stateMutability": "nonpayable",
      "type": "function"
    }
  ],
  "bytecode": "0x60806040523480156200001157600080fd5b5060405162000020906200017b565b604051809103906000f0801580156200003d573d6000803e3d6000fd5b50600660006101000a81548173ffffffffffffffffffffffffffffffffffffffff021916908373ffffffffffffffffffffffffffffffffffffffff16021790555060006001905080156200010257739326bfa02add2366b30bacb125260af6410313316005604051620000b090620001b0565b908152602001604051809103902060006101000a81548173ffffffffffffffffffffffffffffffffffffffff021916908373ffffffffffffffffffffffffffffffffffffffff16021790555062000174565b738a753747a1fa494ec906ce90e9f37563a8af630e60056040516200012790620001b0565b908152602001604051809103902060006101000a81548173ffffffffffffffffffffffffffffffffffffffff021916908373ffffffffffffffffffffffffffffffffffffffff1602179055505b50620001fb565b61031c8062002b2483390190565b600062000198600883620001c7565b9150620001a582620001d2565b600882019050919050565b6000620001bd8262000189565b9150819050919050565b600081905092915050565b7f4574685673557364000000000000000000000000000000000000000000000000600082015250565b612919806200020b6000396000f3fe6080604052600436106100a75760003560e01c80638da5cb5b116100645780638da5cb5b1461018e578063a9e23bea146101b9578063bfc8b8c6146101e4578063c6e8b08014610200578063db71dcdc14610230578063e4bb7a1e14610274576100a7565b806301a1b778146100ac578063262a9dff146100d75780632e1a7d4d146101025780634c4c447e1461012b57806353ed51431461014757806381ec30f214610172575b600080fd5b3480156100b857600080fd5b506100c16102b1565b6040516100ce91906122f6565b60405180910390f35b3480156100e357600080fd5b506100ec6102b7565b6040516100f9919061217e565b60405180910390f35b34801561010e57600080fd5b5061012960048036038101906101249190611b98565b6102dd565b005b61014560048036038101906101409190611b98565b6108ad565b005b34801561015357600080fd5b5061015c610c7b565b604051610169919061215c565b60405180910390f35b61018c60048036038101906101879190611b98565b610f08565b005b34801561019a57600080fd5b506101a36110a9565b6040516101b091906120bc565b60405180910390f35b3480156101c557600080fd5b506101ce6110cf565b6040516101db91906122f6565b60405180910390f35b6101fe60048036038101906101f99190611b31565b6110d5565b005b61021a60048036038101906102159190611b98565b6113c9565b60405161022791906122d4565b60405180910390f35b34801561023c57600080fd5b5061025760048036038101906102529190611b98565b611764565b60405161026b9897969594939291906120d7565b60405180910390f35b34801561028057600080fd5b5061029b60048036038101906102969190611af0565b611881565b6040516102a891906120bc565b60405180910390f35b60005481565b600660009054906101000a900473ffffffffffffffffffffffffffffffffffffffff1681565b6000806000806001600086815260200190815260200160002090503373ffffffffffffffffffffffffffffffffffffffff168160000160009054906101000a900473ffffffffffffffffffffffffffffffffffffffff1673ffffffffffffffffffffffffffffffffffffffff1614806103a557503373ffffffffffffffffffffffffffffffffffffffff168160010160009054906101000a900473ffffffffffffffffffffffffffffffffffffffff1673ffffffffffffffffffffffffffffffffffffffff16145b6103e4576040517f08c379a00000000000000000000000000000000000000000000000000000000081526004016103db906121f4565b60405180910390fd5b806004015442101561042b576040517f08c379a000000000000000000000000000000000000000000000000000000000815260040161042290612274565b60405180910390fd5b80600601549250600660009054906101000a900473ffffffffffffffffffffffffffffffffffffffff1673ffffffffffffffffffffffffffffffffffffffff166344a11f6560058360030160405161048391906120a5565b908152602001604051809103902060009054906101000a900473ffffffffffffffffffffffffffffffffffffffff166040518263ffffffff1660e01b81526004016104ce91906120bc565b60206040518083038186803b1580156104e657600080fd5b505afa1580156104fa573d6000803e3d6000fd5b505050506040513d601f19601f8201168201806040525081019061051e9190611ac7565b915081831215610648578060050160009054906101000a900460ff16156105c357600193508060000160009054906101000a900473ffffffffffffffffffffffffffffffffffffffff1673ffffffffffffffffffffffffffffffffffffffff166108fc8260020154600261059291906123ed565b9081150290604051600060405180830381858888f193505050501580156105bd573d6000803e3d6000fd5b50610643565b600093508060010160009054906101000a900473ffffffffffffffffffffffffffffffffffffffff1673ffffffffffffffffffffffffffffffffffffffff166108fc8260020154600261061691906123ed565b9081150290604051600060405180830381858888f19350505050158015610641573d6000803e3d6000fd5b505b610854565b81831315610770578060050160009054906101000a900460ff16156106eb57600093508060010160009054906101000a900473ffffffffffffffffffffffffffffffffffffffff1673ffffffffffffffffffffffffffffffffffffffff166108fc826002015460026106ba91906123ed565b9081150290604051600060405180830381858888f193505050501580156106e5573d6000803e3d6000fd5b5061076b565b600193508060000160009054906101000a900473ffffffffffffffffffffffffffffffffffffffff1673ffffffffffffffffffffffffffffffffffffffff166108fc8260020154600261073e91906123ed565b9081150290604051600060405180830381858888f19350505050158015610769573d6000803e3d6000fd5b505b610853565b600293508060010160009054906101000a900473ffffffffffffffffffffffffffffffffffffffff1673ffffffffffffffffffffffffffffffffffffffff166108fc82600201549081150290604051600060405180830381858888f193505050501580156107e2573d6000803e3d6000fd5b508060000160009054906101000a900473ffffffffffffffffffffffffffffffffffffffff1673ffffffffffffffffffffffffffffffffffffffff166108fc82600201549081150290604051600060405180830381858888f19350505050158015610851573d6000803e3d6000fd5b505b5b8381600701819055506002816002015461086e91906123ed565b857f7fffe08228477bce61f9ca2eef1f0b161d994daea4389d58ebde865513661c168660405161089e9190612199565b60405180910390a35050505050565b600060016000838152602001908152602001600020604051806101000160405290816000820160009054906101000a900473ffffffffffffffffffffffffffffffffffffffff1673ffffffffffffffffffffffffffffffffffffffff1673ffffffffffffffffffffffffffffffffffffffff1681526020016001820160009054906101000a900473ffffffffffffffffffffffffffffffffffffffff1673ffffffffffffffffffffffffffffffffffffffff1673ffffffffffffffffffffffffffffffffffffffff16815260200160028201548152602001600382018054610994906124ff565b80601f01602080910402602001604051908101604052809291908181526020018280546109c0906124ff565b8015610a0d5780601f106109e257610100808354040283529160200191610a0d565b820191906000526020600020905b8154815290600101906020018083116109f057829003601f168201915b50505050508152602001600482015481526020016005820160009054906101000a900460ff161515151581526020016006820154815260200160078201548152505090506000816040015111610a98576040517f08c379a0000000000000000000000000000000000000000000000000000000008152600401610a8f90612234565b60405180910390fd5b3373ffffffffffffffffffffffffffffffffffffffff16816000015173ffffffffffffffffffffffffffffffffffffffff1614610b0a576040517f08c379a0000000000000000000000000000000000000000000000000000000008152600401610b0190612294565b60405180910390fd5b806020015173ffffffffffffffffffffffffffffffffffffffff16816000015173ffffffffffffffffffffffffffffffffffffffff1614610b80576040517f08c379a0000000000000000000000000000000000000000000000000000000008152600401610b77906121b4565b60405180910390fd5b806000015173ffffffffffffffffffffffffffffffffffffffff166108fc82604001519081150290604051600060405180830381858888f19350505050158015610bce573d6000803e3d6000fd5b5060016000838152602001908152602001600020600080820160006101000a81549073ffffffffffffffffffffffffffffffffffffffff02191690556001820160006101000a81549073ffffffffffffffffffffffffffffffffffffffff02191690556002820160009055600382016000610c4991906118ca565b60048201600090556005820160006101000a81549060ff02191690556006820160009055600782016000905550505050565b60606000805467ffffffffffffffff811115610cc0577f4e487b7100000000000000000000000000000000000000000000000000000000600052604160045260246000fd5b604051908082528060200260200182016040528015610cf957816020015b610ce661190a565b815260200190600190039081610cde5790505b50905060005b600054811015610f005760016000828152602001908152602001600020604051806101000160405290816000820160009054906101000a900473ffffffffffffffffffffffffffffffffffffffff1673ffffffffffffffffffffffffffffffffffffffff1673ffffffffffffffffffffffffffffffffffffffff1681526020016001820160009054906101000a900473ffffffffffffffffffffffffffffffffffffffff1673ffffffffffffffffffffffffffffffffffffffff1673ffffffffffffffffffffffffffffffffffffffff16815260200160028201548152602001600382018054610dee906124ff565b80601f0160208091040260200160405190810160405280929190818152602001828054610e1a906124ff565b8015610e675780601f10610e3c57610100808354040283529160200191610e67565b820191906000526020600020905b815481529060010190602001808311610e4a57829003601f168201915b50505050508152602001600482015481526020016005820160009054906101000a900460ff1615151515815260200160068201548152602001600782015481525050828281518110610ee2577f4e487b7100000000000000000000000000000000000000000000000000000000600052603260045260246000fd5b60200260200101819052508080610ef890612562565b915050610cff565b508091505090565b60006001600083815260200190815260200160002090506000816002015411610f66576040517f08c379a0000000000000000000000000000000000000000000000000000000008152600401610f5d90612254565b60405180910390fd5b8060010160009054906101000a900473ffffffffffffffffffffffffffffffffffffffff1673ffffffffffffffffffffffffffffffffffffffff168160000160009054906101000a900473ffffffffffffffffffffffffffffffffffffffff1673ffffffffffffffffffffffffffffffffffffffff161461101c576040517f08c379a000000000000000000000000000000000000000000000000000000000815260040161101390612214565b60405180910390fd5b80600201543414611062576040517f08c379a0000000000000000000000000000000000000000000000000000000008152600401611059906122b4565b60405180910390fd5b338160010160006101000a81548173ffffffffffffffffffffffffffffffffffffffff021916908373ffffffffffffffffffffffffffffffffffffffff1602179055505050565b600260009054906101000a900473ffffffffffffffffffffffffffffffffffffffff1681565b60035481565b60003411611118576040517f08c379a000000000000000000000000000000000000000000000000000000000815260040161110f906121d4565b60405180910390fd5b6040518061010001604052803373ffffffffffffffffffffffffffffffffffffffff1681526020013373ffffffffffffffffffffffffffffffffffffffff1681526020013481526020018481526020018381526020018215158152602001600660009054906101000a900473ffffffffffffffffffffffffffffffffffffffff1673ffffffffffffffffffffffffffffffffffffffff166344a11f656005876040516111c4919061208e565b908152602001604051809103902060009054906101000a900473ffffffffffffffffffffffffffffffffffffffff166040518263ffffffff1660e01b815260040161120f91906120bc565b60206040518083038186803b15801561122757600080fd5b505afa15801561123b573d6000803e3d6000fd5b505050506040513d601f19601f8201168201806040525081019061125f9190611ac7565b81526020016003815250600160008054815260200190815260200160002060008201518160000160006101000a81548173ffffffffffffffffffffffffffffffffffffffff021916908373ffffffffffffffffffffffffffffffffffffffff16021790555060208201518160010160006101000a81548173ffffffffffffffffffffffffffffffffffffffff021916908373ffffffffffffffffffffffffffffffffffffffff16021790555060408201518160020155606082015181600301908051906020019061133192919061197d565b506080820151816004015560a08201518160050160006101000a81548160ff02191690831515021790555060c0820151816006015560e082015181600701559050506000547fa85f9845510d83562eaa9e779b6973f58826879a69d5613807f0415e1ce692c4336040516113a591906120bc565b60405180910390a26000808154809291906113bf90612562565b9190505550505050565b6113d161190a565b600060016000848152602001908152602001600020604051806101000160405290816000820160009054906101000a900473ffffffffffffffffffffffffffffffffffffffff1673ffffffffffffffffffffffffffffffffffffffff1673ffffffffffffffffffffffffffffffffffffffff1681526020016001820160009054906101000a900473ffffffffffffffffffffffffffffffffffffffff1673ffffffffffffffffffffffffffffffffffffffff1673ffffffffffffffffffffffffffffffffffffffff168152602001600282015481526020016003820180546114b8906124ff565b80601f01602080910402602001604051908101604052809291908181526020018280546114e4906124ff565b80156115315780601f1061150657610100808354040283529160200191611531565b820191906000526020600020905b81548152906001019060200180831161151457829003601f168201915b50505050508152602001600482015481526020016005820160009054906101000a900460ff1615151515815260200160068201548152602001600782015481525050905060008160400151116115bc576040517f08c379a00000000000000000000000000000000000000000000000000000000081526004016115b390612254565b60405180910390fd5b60016000848152602001908152602001600020604051806101000160405290816000820160009054906101000a900473ffffffffffffffffffffffffffffffffffffffff1673ffffffffffffffffffffffffffffffffffffffff1673ffffffffffffffffffffffffffffffffffffffff1681526020016001820160009054906101000a900473ffffffffffffffffffffffffffffffffffffffff1673ffffffffffffffffffffffffffffffffffffffff1673ffffffffffffffffffffffffffffffffffffffff168152602001600282015481526020016003820180546116a1906124ff565b80601f01602080910402602001604051908101604052809291908181526020018280546116cd906124ff565b801561171a5780601f106116ef5761010080835404028352916020019161171a565b820191906000526020600020905b8154815290600101906020018083116116fd57829003601f168201915b50505050508152602001600482015481526020016005820160009054906101000a900460ff1615151515815260200160068201548152602001600782015481525050915050919050565b60016020528060005260406000206000915090508060000160009054906101000a900473ffffffffffffffffffffffffffffffffffffffff16908060010160009054906101000a900473ffffffffffffffffffffffffffffffffffffffff16908060020154908060030180546117d9906124ff565b80601f0160208091040260200160405190810160405280929190818152602001828054611805906124ff565b80156118525780601f1061182757610100808354040283529160200191611852565b820191906000526020600020905b81548152906001019060200180831161183557829003601f168201915b5050505050908060040154908060050160009054906101000a900460ff16908060060154908060070154905088565b6005818051602081018201805184825260208301602085012081835280955050505050506000915054906101000a900473ffffffffffffffffffffffffffffffffffffffff1681565b5080546118d6906124ff565b6000825580601f106118e85750611907565b601f0160209004906000526020600020908101906119069190611a03565b5b50565b604051806101000160405280600073ffffffffffffffffffffffffffffffffffffffff168152602001600073ffffffffffffffffffffffffffffffffffffffff16815260200160008152602001606081526020016000815260200160001515815260200160008152602001600081525090565b828054611989906124ff565b90600052602060002090601f0160209004810192826119ab57600085556119f2565b82601f106119c457805160ff19168380011785556119f2565b828001600101855582156119f2579182015b828111156119f15782518255916020019190600101906119d6565b5b5090506119ff9190611a03565b5090565b5b80821115611a1c576000816000905550600101611a04565b5090565b6000611a33611a2e84612336565b612311565b905082815260208101848484011115611a4b57600080fd5b611a568482856124bd565b509392505050565b600081359050611a6d8161289e565b92915050565b600081519050611a82816128b5565b92915050565b600082601f830112611a9957600080fd5b8135611aa9848260208601611a20565b91505092915050565b600081359050611ac1816128cc565b92915050565b600060208284031215611ad957600080fd5b6000611ae784828501611a73565b91505092915050565b600060208284031215611b0257600080fd5b600082013567ffffffffffffffff811115611b1c57600080fd5b611b2884828501611a88565b91505092915050565b600080600060608486031215611b4657600080fd5b600084013567ffffffffffffffff811115611b6057600080fd5b611b6c86828701611a88565b9350506020611b7d86828701611ab2565b9250506040611b8e86828701611a5e565b9150509250925092565b600060208284031215611baa57600080fd5b6000611bb884828501611ab2565b91505092915050565b6000611bcd8383611f10565b905092915050565b611bde81612447565b82525050565b611bed81612447565b82525050565b6000611bfe8261238c565b611c0881856123af565b935083602082028501611c1a85612367565b8060005b85811015611c565784840389528151611c378582611bc1565b9450611c42836123a2565b925060208a01995050600181019050611c1e565b50829750879550505050505092915050565b611c7181612459565b82525050565b611c8081612459565b82525050565b611c8f81612499565b82525050565b611c9e81612465565b82525050565b611cad81612465565b82525050565b6000611cbe82612397565b611cc881856123c0565b9350611cd88185602086016124cc565b611ce181612638565b840191505092915050565b6000611cf782612397565b611d0181856123d1565b9350611d118185602086016124cc565b611d1a81612638565b840191505092915050565b6000611d3082612397565b611d3a81856123e2565b9350611d4a8185602086016124cc565b80840191505092915050565b60008154611d63816124ff565b611d6d81866123e2565b94506001821660008114611d885760018114611d9957611dcc565b60ff19831686528186019350611dcc565b611da285612377565b60005b83811015611dc457815481890152600182019150602081019050611da5565b838801955050505b50505092915050565b6000611de26039836123d1565b9150611ded82612649565b604082019050919050565b6000611e056022836123d1565b9150611e1082612698565b604082019050919050565b6000611e286020836123d1565b9150611e33826126e7565b602082019050919050565b6000611e4b602e836123d1565b9150611e5682612710565b604082019050919050565b6000611e6e601a836123d1565b9150611e798261275f565b602082019050919050565b6000611e91601b836123d1565b9150611e9c82612788565b602082019050919050565b6000611eb46025836123d1565b9150611ebf826127b1565b604082019050919050565b6000611ed7602b836123d1565b9150611ee282612800565b604082019050919050565b6000611efa6031836123d1565b9150611f058261284f565b604082019050919050565b600061010083016000830151611f296000860182611bd5565b506020830151611f3c6020860182611bd5565b506040830151611f4f6040860182612070565b5060608301518482036060860152611f678282611cb3565b9150506080830151611f7c6080860182612070565b5060a0830151611f8f60a0860182611c68565b5060c0830151611fa260c0860182611c95565b5060e0830151611fb560e0860182611c95565b508091505092915050565b600061010083016000830151611fd96000860182611bd5565b506020830151611fec6020860182611bd5565b506040830151611fff6040860182612070565b50606083015184820360608601526120178282611cb3565b915050608083015161202c6080860182612070565b5060a083015161203f60a0860182611c68565b5060c083015161205260c0860182611c95565b5060e083015161206560e0860182611c95565b508091505092915050565b6120798161248f565b82525050565b6120888161248f565b82525050565b600061209a8284611d25565b915081905092915050565b60006120b18284611d56565b915081905092915050565b60006020820190506120d16000830184611be4565b92915050565b6000610100820190506120ed600083018b611be4565b6120fa602083018a611be4565b612107604083018961207f565b81810360608301526121198188611cec565b9050612128608083018761207f565b61213560a0830186611c77565b61214260c0830185611ca4565b61214f60e0830184611ca4565b9998505050505050505050565b600060208201905081810360008301526121768184611bf3565b905092915050565b60006020820190506121936000830184611c86565b92915050565b60006020820190506121ae6000830184611ca4565b92915050565b600060208201905081810360008301526121cd81611dd5565b9050919050565b600060208201905081810360008301526121ed81611df8565b9050919050565b6000602082019050818103600083015261220d81611e1b565b9050919050565b6000602082019050818103600083015261222d81611e3e565b9050919050565b6000602082019050818103600083015261224d81611e61565b9050919050565b6000602082019050818103600083015261226d81611e84565b9050919050565b6000602082019050818103600083015261228d81611ea7565b9050919050565b600060208201905081810360008301526122ad81611eca565b9050919050565b600060208201905081810360008301526122cd81611eed565b9050919050565b600060208201905081810360008301526122ee8184611fc0565b905092915050565b600060208201905061230b600083018461207f565b92915050565b600061231b61232c565b90506123278282612531565b919050565b6000604051905090565b600067ffffffffffffffff82111561235157612350612609565b5b61235a82612638565b9050602081019050919050565b6000819050602082019050919050565b60008190508160005260206000209050919050565b600081519050919050565b600081519050919050565b6000602082019050919050565b600082825260208201905092915050565b600082825260208201905092915050565b600082825260208201905092915050565b600081905092915050565b60006123f88261248f565b91506124038361248f565b9250817fffffffffffffffffffffffffffffffffffffffffffffffffffffffffffffffff048311821515161561243c5761243b6125ab565b5b828202905092915050565b60006124528261246f565b9050919050565b60008115159050919050565b6000819050919050565b600073ffffffffffffffffffffffffffffffffffffffff82169050919050565b6000819050919050565b60006124a4826124ab565b9050919050565b60006124b68261246f565b9050919050565b82818337600083830152505050565b60005b838110156124ea5780820151818401526020810190506124cf565b838111156124f9576000848401525b50505050565b6000600282049050600182168061251757607f821691505b6020821081141561252b5761252a6125da565b5b50919050565b61253a82612638565b810181811067ffffffffffffffff8211171561255957612558612609565b5b80604052505050565b600061256d8261248f565b91507fffffffffffffffffffffffffffffffffffffffffffffffffffffffffffffffff8214156125a05761259f6125ab565b5b600182019050919050565b7f4e487b7100000000000000000000000000000000000000000000000000000000600052601160045260246000fd5b7f4e487b7100000000000000000000000000000000000000000000000000000000600052602260045260246000fd5b7f4e487b7100000000000000000000000000000000000000000000000000000000600052604160045260246000fd5b6000601f19601f8301169050919050565b7f546865726520697320616c7265616479206f70706f6e656e742c20746869732060008201527f626174746c652063616e27742062652063616e63656c65642e00000000000000602082015250565b7f596f75206861766520746f20626574206f6e20706f7369746976652076616c7560008201527f6521000000000000000000000000000000000000000000000000000000000000602082015250565b7f596f7520617265206e6f742070617274206f66207468697320626174746c652e600082015250565b7f5468697320626174746c6520697320636c6f7365642c206f70706f6e656e742060008201527f616c72656164792065786973742e000000000000000000000000000000000000602082015250565b7f426174746c65206e756d6265722069736e27742065786973742e000000000000600082015250565b7f426174746c65206e756d6265722069736e27742065786973742e0a0000000000600082015250565b7f546f6f206561726c7920746f20636865636b2077686f2069732074686520776960008201527f6e6e65722e000000000000000000000000000000000000000000000000000000602082015250565b7f4f6e6c79207468652063726561746f72206d61792063616e63656c206869732060008201527f6f776e20626174746c652e000000000000000000000000000000000000000000602082015250565b7f42657474696e672076616c75652069736e27742061732073706563696669656460008201527f20666f72207468697320626174746c652e000000000000000000000000000000602082015250565b6128a781612459565b81146128b257600080fd5b50565b6128be81612465565b81146128c957600080fd5b50565b6128d58161248f565b81146128e057600080fd5b5056fea264697066735822122066a22a647aee875dbf3edba3567a13fcb0c3dcd746e5841a4f55c1832300efaf64736f6c63430008030033608060405234801561001057600080fd5b506102fc806100206000396000f3fe608060405234801561001057600080fd5b506004361061002b5760003560e01c806344a11f6514610030575b600080fd5b61004a60048036038101906100459190610144565b610060565b60405161005791906101f3565b60405180910390f35b6000808273ffffffffffffffffffffffffffffffffffffffff1663feaf968c6040518163ffffffff1660e01b815260040160a06040518083038186803b1580156100a957600080fd5b505afa1580156100bd573d6000803e3d6000fd5b505050506040513d601f19601f820116820180604052508101906100e1919061016d565b50505091505080915050919050565b6000813590506100ff8161026a565b92915050565b60008151905061011481610281565b92915050565b60008151905061012981610298565b92915050565b60008151905061013e816102af565b92915050565b60006020828403121561015657600080fd5b6000610164848285016100f0565b91505092915050565b600080600080600060a0868803121561018557600080fd5b60006101938882890161012f565b95505060206101a488828901610105565b94505060406101b58882890161011a565b93505060606101c68882890161011a565b92505060806101d78882890161012f565b9150509295509295909350565b6101ed81610220565b82525050565b600060208201905061020860008301846101e4565b92915050565b60006102198261022a565b9050919050565b6000819050919050565b600073ffffffffffffffffffffffffffffffffffffffff82169050919050565b6000819050919050565b600069ffffffffffffffffffff82169050919050565b6102738161020e565b811461027e57600080fd5b50565b61028a81610220565b811461029557600080fd5b50565b6102a18161024a565b81146102ac57600080fd5b50565b6102b881610254565b81146102c357600080fd5b5056fea2646970667358221220d1fdd3ad8c93e43d8a37c14c886a8850dd4c90760c269bdd89edcb07add758af64736f6c63430008030033",
  "immutableReferences": {},
  "source": "// SPDX-License-Identifier: MIT\npragma solidity ^0.8.3;\nimport \"./Aggre.sol\";\n\ncontract BinaryOption{\n\n    uint256  public battleId; // unique id for each battle\n    mapping(uint256 => Battle) public battleInfo; // map of the existing battles\n    address public owner; // the creator of the contract (we)\n    uint  public tempVal;\n    int feed;\n    mapping(string=>address) public feedAddress;\n    Aggre public age;\n\n    event MyEvent(\n    uint256 indexed id,\n    uint256 indexed amount,\n    int win\n    );\n\n    event AddEvent(\n    uint256 indexed id,\n    address address_field\n    );\n\n    struct Battle {\n        address creator;\n        address opponent;\n        uint256 amountBet;\n        string betType;\n        uint betDate;\n        bool isUp;\n        int currVal;\n        int whoWin; // 0 for opponent, 1 for creator, 2 for draw, 3 if not over\n    }\n\n\n    constructor()  {\n        age=new Aggre();\n        bool isKovan=true; // true if kovan, otherwise rinkeby\n        //owner = msg.sender;\n        if(isKovan){\n        feedAddress[\"EthVsUsd\"]=0x9326BFA02ADD2366b30bacB125260Af641031331;\n        }\n        else{\n        // those addresses (of rinkbey test network) can be found at: https://docs.chain.link/docs/ethereum-addresses/\n        feedAddress[\"EthVsUsd\"]=0x8A753747A1Fa494EC906cE90E9f37563A8AF630e;\n        //feedAddress[\"BtcVsUsd\"]=0x6135b13325bfC4B00278B4abC5e20bbce2D6580e;\n        //feedAddress[\"EurVsUsd\"]=0x0c15Ab9A0DB086e062194c273CC79f41597Bbf13;\n        }\n\n    }\n\n\n    // a creator create a new battle\n    function addBattle(string memory betType,uint betDate,bool direction) public payable {\n        require(msg.value>0, \"You have to bet on positive value!\");\n        battleInfo[battleId]=Battle(msg.sender,msg.sender,msg.value,betType,betDate,direction,age.getThePrice(feedAddress[betType]),3);\n        emit AddEvent(battleId,msg.sender);\n        battleId++;\n    }\n\n    /*function getAmount(uint256 battle_id) public view returns (uint){\n            return battleInfo[battle_id].amountBet;\n        }*/\n\n    function getBattleDate(uint256 battle_id) public payable returns(Battle memory) {\n            Battle memory bate=battleInfo[battle_id];\n            require(bate.amountBet>0, \"Battle number isn't exist.\\n\");\n            //require(battleInfo[battle_id].creator!=battleInfo[battle_id].opponent, \"This battle didn't start.\");\n            return battleInfo[battle_id];\n    }\n\n    function getAll() public view returns (Battle[] memory){\n            Battle[] memory ret = new Battle[](battleId);\n            for (uint i = 0; i < battleId; i++) {\n                ret[i] = battleInfo[i];\n            }\n            return ret;\n        }\n\n    /*\n\n    function setPrice() public {\n        if(isKovan){\n        feed= age.getThePrice(0x9326BFA02ADD2366b30bacB125260Af641031331);\n        }\n        else{age.getThePrice(0x8A753747A1Fa494EC906cE90E9f37563A8AF630e);}\n    }\n    function getPrice() public view returns (int){\n        return feed;\n    }\n\n    */\n    /*function getId() public view returns (uint256){\n        return battleId;\n    }*/\n\n    /*function getEvent() public {\n        emit MyEvent(battleId,battleId);\n    }*/\n\n    // an opponent is signed to battle number: battleid\n    function acceptBattle(uint256 battle_id) public payable{\n\n        Battle storage bate=battleInfo[battle_id];\n        require(bate.amountBet>0, \"Battle number isn't exist.\\n\");\n        //require(bate.creator!=msg.sender, \"Impossible to fight against yourself.\"); // in comment until we test with two different players\n        require(bate.creator==bate.opponent, \"This battle is closed, opponent already exist.\");\n        require(msg.value==bate.amountBet, \"Betting value isn't as specified for this battle.\");\n        // need to check that he doesnt accept several times\n        bate.opponent=msg.sender;\n    }\n\n    // a creator cancel his battle\n    function cancelBattle(uint256 battle_id) public payable{\n        Battle memory bate=battleInfo[battle_id];\n        require(bate.amountBet>0, \"Battle number isn't exist.\");\n        require(bate.creator==msg.sender, \"Only the creator may cancel his own battle.\");\n\n        require(bate.creator==bate.opponent, \"There is already opponent, this battle can't be canceled.\");\n        payable(bate.creator).transfer(bate.amountBet); // return the amount invested\n        delete battleInfo[battle_id]; // battle is canceled\n    }\n\n\n    /*function getcurrVal(uint256 battle_id) public view returns (uint256){\n        require(msg.sender==battleInfo[battle_id].creator||msg.sender==battleInfo[battle_id].opponent, \"You are not part of this battle.\");\n        return battleInfo[battle_id].amountBet;\n    }*/\n\n    // the winner may draw his money\n    function withdraw(uint256 battle_id) public {\n        int winner; // 0=lose 1=win 2=draw\n        int oldPrice;\n        int newPrice;\n        Battle storage bate=battleInfo[battle_id];\n        //require(battleInfo[battle_id].creator!=battleInfo[battle_id].opponent, \"This battle didn't start.\"); // in case the creator try to withdraw before having opponent. He may cancel battle if he wants.\n        require((bate.creator==msg.sender||bate.opponent==msg.sender), \"You are not part of this battle.\"); // can be deleted if comes with getcurrval\n        require(block.timestamp>=bate.betDate, \"Too early to check who is the winner.\");\n        oldPrice=bate.currVal;\n        newPrice=age.getThePrice(feedAddress[bate.betType]);\n        // deliver the money to the winner\n        if(oldPrice<newPrice){\n\n            if(bate.isUp){\n                winner=1;\n                payable(bate.creator).transfer(2*bate.amountBet); // multiply by 2 since we deliver the money of both the creator and his opponent\n            }\n            else{\n                winner=0;\n                payable(bate.opponent).transfer(2*bate.amountBet);\n            }\n\n        }\n        else if(oldPrice>newPrice){\n\n            if(bate.isUp){\n                winner=0;\n                payable(bate.opponent).transfer(2*bate.amountBet);\n            }\n            else{\n                winner=1;\n                payable(bate.creator).transfer(2*bate.amountBet);\n            }\n        }\n        // if nothing has changed, the creator lose his money\n        else {\n            winner=2;\n            payable(bate.opponent).transfer(bate.amountBet);\n            payable(bate.creator).transfer(bate.amountBet);\n        }\n        bate.whoWin=winner;\n        // sign the event\n        emit MyEvent(battle_id,bate.amountBet*2,winner);\n        //delete battleInfo[battle_id]; // battle is finished\n    }\n\n    //just for testing\n    /*function removeBattle(uint256 battle_id) public {\n        require(battleInfo[battle_id].amountBet>0, \"Battle number isn't exist.\\n\");\n        //delete battleInfo[battle_id]; // battle is canceled\n    }*/\n\n\n\n}",
  "sourcePath": "/home/eran/WebstormProjects/tau_Smart_contract/src/solidity/contracts/BinaryOption.sol",
  "compiler": {
    "name": "solc",
    "version": "0.8.3+commit.8d00100c.Emscripten.clang"
  },
  "schemaVersion": "3.3.4",
  "updatedAt": "2021-07-26T14:02:26.976Z",
  "devdoc": {
    "kind": "dev",
    "methods": {},
    "version": 1
  },
  "userdoc": {
    "kind": "user",
    "methods": {},
    "version": 1
  }
}