{
  "contractName": "BinaryOption",
  "abi": [
    {
      "inputs": [],
      "stateMutability": "nonpayable",
      "type": "constructor"
    },
    {
      "anonymous": false,
      "inputs": [
        {
          "indexed": true,
          "internalType": "uint256",
          "name": "id",
          "type": "uint256"
        },
        {
          "indexed": false,
          "internalType": "address",
          "name": "address_field",
          "type": "address"
        }
      ],
      "name": "AddEvent",
      "type": "event"
    },
    {
      "inputs": [
        {
          "internalType": "address",
          "name": "",
          "type": "address"
        },
        {
          "internalType": "uint256",
          "name": "",
          "type": "uint256"
        }
      ],
      "name": "addressToBattle",
      "outputs": [
        {
          "internalType": "uint256",
          "name": "",
          "type": "uint256"
        }
      ],
      "stateMutability": "view",
      "type": "function",
      "constant": true
    },
    {
      "inputs": [],
      "name": "b",
      "outputs": [
        {
          "internalType": "int256",
          "name": "",
          "type": "int256"
        }
      ],
      "stateMutability": "view",
      "type": "function",
      "constant": true
    },
    {
      "inputs": [],
      "name": "battleId",
      "outputs": [
        {
          "internalType": "uint256",
          "name": "",
          "type": "uint256"
        }
      ],
      "stateMutability": "view",
      "type": "function",
      "constant": true
    },
    {
      "inputs": [
        {
          "internalType": "uint256",
          "name": "",
          "type": "uint256"
        }
      ],
      "name": "battleInfo",
      "outputs": [
        {
          "internalType": "address",
          "name": "creator",
          "type": "address"
        },
        {
          "internalType": "address",
          "name": "opponent",
          "type": "address"
        },
        {
          "internalType": "uint256",
          "name": "amountBet",
          "type": "uint256"
        },
        {
          "internalType": "string",
          "name": "betType",
          "type": "string"
        },
        {
          "internalType": "uint256",
          "name": "betDate",
          "type": "uint256"
        },
        {
          "internalType": "bool",
          "name": "isUp",
          "type": "bool"
        },
        {
          "internalType": "int256",
          "name": "currVal",
          "type": "int256"
        },
        {
          "internalType": "enum BinaryOption.Status",
          "name": "whoWin",
          "type": "uint8"
        }
      ],
      "stateMutability": "view",
      "type": "function",
      "constant": true
    },
    {
      "inputs": [
        {
          "internalType": "string",
          "name": "",
          "type": "string"
        }
      ],
      "name": "feedAddress",
      "outputs": [
        {
          "internalType": "address",
          "name": "",
          "type": "address"
        }
      ],
      "stateMutability": "view",
      "type": "function",
      "constant": true
    },
    {
      "inputs": [],
      "name": "priceFeed",
      "outputs": [
        {
          "internalType": "contract PriceFeed",
          "name": "",
          "type": "address"
        }
      ],
      "stateMutability": "view",
      "type": "function",
      "constant": true
    },
    {
      "inputs": [
        {
          "internalType": "string",
          "name": "betType",
          "type": "string"
        },
        {
          "internalType": "uint256",
          "name": "betDate",
          "type": "uint256"
        },
        {
          "internalType": "bool",
          "name": "direction",
          "type": "bool"
        }
      ],
      "name": "addBattle",
      "outputs": [],
      "stateMutability": "payable",
      "type": "function",
      "payable": true
    },
    {
      "inputs": [
        {
          "internalType": "address",
          "name": "a",
          "type": "address"
        }
      ],
      "name": "getaddressToBattle",
      "outputs": [
        {
          "internalType": "uint256[]",
          "name": "",
          "type": "uint256[]"
        }
      ],
      "stateMutability": "view",
      "type": "function",
      "constant": true
    },
    {
      "inputs": [
        {
          "internalType": "uint256",
          "name": "battle_id",
          "type": "uint256"
        }
      ],
      "name": "getBattleInfo",
      "outputs": [
        {
          "components": [
            {
              "internalType": "address",
              "name": "creator",
              "type": "address"
            },
            {
              "internalType": "address",
              "name": "opponent",
              "type": "address"
            },
            {
              "internalType": "uint256",
              "name": "amountBet",
              "type": "uint256"
            },
            {
              "internalType": "string",
              "name": "betType",
              "type": "string"
            },
            {
              "internalType": "uint256",
              "name": "betDate",
              "type": "uint256"
            },
            {
              "internalType": "bool",
              "name": "isUp",
              "type": "bool"
            },
            {
              "internalType": "int256",
              "name": "currVal",
              "type": "int256"
            },
            {
              "internalType": "enum BinaryOption.Status",
              "name": "whoWin",
              "type": "uint8"
            }
          ],
          "internalType": "struct BinaryOption.Battle",
          "name": "",
          "type": "tuple"
        }
      ],
      "stateMutability": "nonpayable",
      "type": "function"
    },
    {
      "inputs": [],
      "name": "getAll",
      "outputs": [
        {
          "components": [
            {
              "internalType": "address",
              "name": "creator",
              "type": "address"
            },
            {
              "internalType": "address",
              "name": "opponent",
              "type": "address"
            },
            {
              "internalType": "uint256",
              "name": "amountBet",
              "type": "uint256"
            },
            {
              "internalType": "string",
              "name": "betType",
              "type": "string"
            },
            {
              "internalType": "uint256",
              "name": "betDate",
              "type": "uint256"
            },
            {
              "internalType": "bool",
              "name": "isUp",
              "type": "bool"
            },
            {
              "internalType": "int256",
              "name": "currVal",
              "type": "int256"
            },
            {
              "internalType": "enum BinaryOption.Status",
              "name": "whoWin",
              "type": "uint8"
            }
          ],
          "internalType": "struct BinaryOption.Battle[]",
          "name": "",
          "type": "tuple[]"
        }
      ],
      "stateMutability": "view",
      "type": "function",
      "constant": true
    },
    {
      "inputs": [
        {
          "internalType": "uint256",
          "name": "battle_id",
          "type": "uint256"
        }
      ],
      "name": "acceptBattle",
      "outputs": [],
      "stateMutability": "payable",
      "type": "function",
      "payable": true
    },
    {
      "inputs": [
        {
          "internalType": "uint256",
          "name": "battle_id",
          "type": "uint256"
        }
      ],
      "name": "cancelBattle",
      "outputs": [],
      "stateMutability": "nonpayable",
      "type": "function"
    },
    {
      "inputs": [
        {
          "internalType": "uint256",
          "name": "battle_id",
          "type": "uint256"
        }
      ],
      "name": "withdraw",
      "outputs": [],
      "stateMutability": "nonpayable",
      "type": "function"
    }
  ],
  "bytecode": "0x608060405260026005553480156200001657600080fd5b50604051620000259062000493565b604051809103906000f08015801562000042573d6000803e3d6000fd5b50600460006101000a81548173ffffffffffffffffffffffffffffffffffffffff021916908373ffffffffffffffffffffffffffffffffffffffff160217905550600080156200010357739326bfa02add2366b30bacb125260af6410313316003604051620000b19062000617565b908152602001604051809103902060006101000a81548173ffffffffffffffffffffffffffffffffffffffff021916908373ffffffffffffffffffffffffffffffffffffffff1602179055506200048c565b738a753747a1fa494ec906ce90e9f37563a8af630e6003604051620001289062000673565b908152602001604051809103902060006101000a81548173ffffffffffffffffffffffffffffffffffffffff021916908373ffffffffffffffffffffffffffffffffffffffff16021790555073ece365b379e1dd183b20fc5f022230c044d51404600360405162000199906200068a565b908152602001604051809103902060006101000a81548173ffffffffffffffffffffffffffffffffffffffff021916908373ffffffffffffffffffffffffffffffffffffffff1602179055507378f9e60608bf48a1155b4b2a5e31f32318a1d85f60036040516200020a9062000600565b908152602001604051809103902060006101000a81548173ffffffffffffffffffffffffffffffffffffffff021916908373ffffffffffffffffffffffffffffffffffffffff16021790555073dca36f27cbc4e38ae16c4e9f99d39b42337f6dcf60036040516200027b906200065c565b908152602001604051809103902060006101000a81548173ffffffffffffffffffffffffffffffffffffffff021916908373ffffffffffffffffffffffffffffffffffffffff160217905550732ba49aaa16e6afd2a993473cfb70fa8559b523cf6003604051620002ec9062000645565b908152602001604051809103902060006101000a81548173ffffffffffffffffffffffffffffffffffffffff021916908373ffffffffffffffffffffffffffffffffffffffff1602179055507374825dbc8bf76cc4e9494d0ecb210f676efa001d60036040516200035d90620006b8565b908152602001604051809103902060006101000a81548173ffffffffffffffffffffffffffffffffffffffff021916908373ffffffffffffffffffffffffffffffffffffffff160217905550730630521ac362bc7a19a4ee44b57ce72ea34ad01c6003604051620003ce90620006a1565b908152602001604051809103902060006101000a81548173ffffffffffffffffffffffffffffffffffffffff021916908373ffffffffffffffffffffffffffffffffffffffff16021790555073e96c4407597cd507002df88ff6e0008ab41266ee60036040516200043f906200062e565b908152602001604051809103902060006101000a81548173ffffffffffffffffffffffffffffffffffffffff021916908373ffffffffffffffffffffffffffffffffffffffff1602179055505b506200084b565b61031c806200472483390190565b6000620004b0600a83620006cf565b9150620004bd82620006da565b600a82019050919050565b6000620004d7600883620006cf565b9150620004e48262000703565b600882019050919050565b6000620004fe600a83620006cf565b91506200050b826200072c565b600a82019050919050565b600062000525600a83620006cf565b9150620005328262000755565b600a82019050919050565b60006200054c600b83620006cf565b915062000559826200077e565b600b82019050919050565b600062000573600a83620006cf565b91506200058082620007a7565b600a82019050919050565b60006200059a600a83620006cf565b9150620005a782620007d0565b600a82019050919050565b6000620005c1600c83620006cf565b9150620005ce82620007f9565b600c82019050919050565b6000620005e8600a83620006cf565b9150620005f58262000822565b600a82019050919050565b60006200060d82620004a1565b9150819050919050565b60006200062482620004c8565b9150819050919050565b60006200063b82620004ef565b9150819050919050565b6000620006528262000516565b9150819050919050565b600062000669826200053d565b9150819050919050565b6000620006808262000564565b9150819050919050565b600062000697826200058b565b9150819050919050565b6000620006ae82620005b2565b9150819050919050565b6000620006c582620005d9565b9150819050919050565b600081905092915050565b7f6575725f76735f75736400000000000000000000000000000000000000000000600082015250565b7f4574685673557364000000000000000000000000000000000000000000000000600082015250565b7f736e785f76735f75736400000000000000000000000000000000000000000000600082015250565b7f6461695f76735f75736400000000000000000000000000000000000000000000600082015250565b7f757364635f76735f657468000000000000000000000000000000000000000000600082015250565b7f6574685f76735f75736400000000000000000000000000000000000000000000600082015250565b7f6274635f76735f75736400000000000000000000000000000000000000000000600082015250565b7f73646566695f76735f7573640000000000000000000000000000000000000000600082015250565b7f6461695f76735f65746800000000000000000000000000000000000000000000600082015250565b613ec9806200085b6000396000f3fe6080604052600436106100c25760003560e01c806381ec30f21161007f578063d3f5557b11610059578063d3f5557b1461023a578063db71dcdc14610277578063e4bb7a1e146102bb578063e84b5fda146102f8576100c2565b806381ec30f2146101c5578063bfc8b8c6146101e1578063c0a6e9d7146101fd576100c2565b806301a1b778146100c75780632e1a7d4d146100f25780634c4c447e1461011b5780634df7e3d01461014457806353ed51431461016f578063741bef1a1461019a575b600080fd5b3480156100d357600080fd5b506100dc610335565b6040516100e99190613660565b60405180910390f35b3480156100fe57600080fd5b5061011960048036038101906101149190612d40565b61033b565b005b34801561012757600080fd5b50610142600480360381019061013d9190612d40565b610d7a565b005b34801561015057600080fd5b5061015961129e565b6040516101669190613483565b60405180910390f35b34801561017b57600080fd5b506101846112a4565b6040516101919190613424565b60405180910390f35b3480156101a657600080fd5b506101af6115f2565b6040516101bc9190613468565b60405180910390f35b6101df60048036038101906101da9190612d40565b611618565b005b6101fb60048036038101906101f69190612cd9565b611cc7565b005b34801561020957600080fd5b50610224600480360381019061021f9190612d40565b6124ad565b604051610231919061363e565b60405180910390f35b34801561024657600080fd5b50610261600480360381019061025c9190612c33565b612738565b60405161026e9190613660565b60405180910390f35b34801561028357600080fd5b5061029e60048036038101906102999190612d40565b612769565b6040516102b298979695949392919061339f565b60405180910390f35b3480156102c757600080fd5b506102e260048036038101906102dd9190612c98565b612893565b6040516102ef9190613384565b60405180910390f35b34801561030457600080fd5b5061031f600480360381019061031a9190612c0a565b6128dc565b60405161032c9190613446565b60405180910390f35b60005481565b60008060008060016000868152602001908152602001600020905060006103e8826004015461036a91906137e6565b90508160010160009054906101000a900473ffffffffffffffffffffffffffffffffffffffff1673ffffffffffffffffffffffffffffffffffffffff168260000160009054906101000a900473ffffffffffffffffffffffffffffffffffffffff1673ffffffffffffffffffffffffffffffffffffffff161415610423576040517f08c379a000000000000000000000000000000000000000000000000000000000815260040161041a9061359e565b60405180910390fd5b3373ffffffffffffffffffffffffffffffffffffffff168260000160009054906101000a900473ffffffffffffffffffffffffffffffffffffffff1673ffffffffffffffffffffffffffffffffffffffff1614806104d057503373ffffffffffffffffffffffffffffffffffffffff168260010160009054906101000a900473ffffffffffffffffffffffffffffffffffffffff1673ffffffffffffffffffffffffffffffffffffffff16145b61050f576040517f08c379a0000000000000000000000000000000000000000000000000000000008152600401610506906134fe565b60405180910390fd5b80421015610552576040517f08c379a0000000000000000000000000000000000000000000000000000000008152600401610549906134be565b60405180910390fd5b60038081111561058b577f4e487b7100000000000000000000000000000000000000000000000000000000600052602160045260246000fd5b8260070160009054906101000a900460ff1660038111156105d5577f4e487b7100000000000000000000000000000000000000000000000000000000600052602160045260246000fd5b14610615576040517f08c379a000000000000000000000000000000000000000000000000000000000815260040161060c9061351e565b60405180910390fd5b81600601549350600460009054906101000a900473ffffffffffffffffffffffffffffffffffffffff1673ffffffffffffffffffffffffffffffffffffffff166344a11f6560038460030160405161066d919061336d565b908152602001604051809103902060009054906101000a900473ffffffffffffffffffffffffffffffffffffffff166040518263ffffffff1660e01b81526004016106b89190613384565b60206040518083038186803b1580156106d057600080fd5b505afa1580156106e4573d6000803e3d6000fd5b505050506040513d601f19601f820116820180604052508101906107089190612c6f565b925082841215610832578160050160009054906101000a900460ff16156107ad57600194508160000160009054906101000a900473ffffffffffffffffffffffffffffffffffffffff1673ffffffffffffffffffffffffffffffffffffffff166108fc8360020154600261077c9190613817565b9081150290604051600060405180830381858888f193505050501580156107a7573d6000803e3d6000fd5b5061082d565b600094508160010160009054906101000a900473ffffffffffffffffffffffffffffffffffffffff1673ffffffffffffffffffffffffffffffffffffffff166108fc836002015460026108009190613817565b9081150290604051600060405180830381858888f1935050505015801561082b573d6000803e3d6000fd5b505b610a3e565b8284131561095a578160050160009054906101000a900460ff16156108d557600094508160010160009054906101000a900473ffffffffffffffffffffffffffffffffffffffff1673ffffffffffffffffffffffffffffffffffffffff166108fc836002015460026108a49190613817565b9081150290604051600060405180830381858888f193505050501580156108cf573d6000803e3d6000fd5b50610955565b600194508160000160009054906101000a900473ffffffffffffffffffffffffffffffffffffffff1673ffffffffffffffffffffffffffffffffffffffff166108fc836002015460026109289190613817565b9081150290604051600060405180830381858888f19350505050158015610953573d6000803e3d6000fd5b505b610a3d565b600294508160010160009054906101000a900473ffffffffffffffffffffffffffffffffffffffff1673ffffffffffffffffffffffffffffffffffffffff166108fc83600201549081150290604051600060405180830381858888f193505050501580156109cc573d6000803e3d6000fd5b508160000160009054906101000a900473ffffffffffffffffffffffffffffffffffffffff1673ffffffffffffffffffffffffffffffffffffffff166108fc83600201549081150290604051600060405180830381858888f19350505050158015610a3b573d6000803e3d6000fd5b505b5b848260070160006101000a81548160ff02191690836003811115610a8b577f4e487b7100000000000000000000000000000000000000000000000000000000600052602160045260246000fd5b021790555060006001600088815260200190815260200160002060000160009054906101000a900473ffffffffffffffffffffffffffffffffffffffff16905060006001600089815260200190815260200160002060010160009054906101000a900473ffffffffffffffffffffffffffffffffffffffff16905060005b6003811015610c3a5788600260008573ffffffffffffffffffffffffffffffffffffffff1673ffffffffffffffffffffffffffffffffffffffff1681526020019081526020016000208281548110610b8a577f4e487b7100000000000000000000000000000000000000000000000000000000600052603260045260246000fd5b90600052602060002001541415610c27576064600260008573ffffffffffffffffffffffffffffffffffffffff1673ffffffffffffffffffffffffffffffffffffffff1681526020019081526020016000208281548110610c14577f4e487b7100000000000000000000000000000000000000000000000000000000600052603260045260246000fd5b9060005260206000200181905550610c3a565b8080610c32906139e5565b915050610b09565b5060005b6003811015610d6f5788600260008473ffffffffffffffffffffffffffffffffffffffff1673ffffffffffffffffffffffffffffffffffffffff1681526020019081526020016000208281548110610cbf577f4e487b7100000000000000000000000000000000000000000000000000000000600052603260045260246000fd5b90600052602060002001541415610d5c576064600260008473ffffffffffffffffffffffffffffffffffffffff1673ffffffffffffffffffffffffffffffffffffffff1681526020019081526020016000208281548110610d49577f4e487b7100000000000000000000000000000000000000000000000000000000600052603260045260246000fd5b9060005260206000200181905550610d6f565b8080610d67906139e5565b915050610c3e565b505050505050505050565b600060016000838152602001908152602001600020604051806101000160405290816000820160009054906101000a900473ffffffffffffffffffffffffffffffffffffffff1673ffffffffffffffffffffffffffffffffffffffff1673ffffffffffffffffffffffffffffffffffffffff1681526020016001820160009054906101000a900473ffffffffffffffffffffffffffffffffffffffff1673ffffffffffffffffffffffffffffffffffffffff1673ffffffffffffffffffffffffffffffffffffffff16815260200160028201548152602001600382018054610e6190613982565b80601f0160208091040260200160405190810160405280929190818152602001828054610e8d90613982565b8015610eda5780601f10610eaf57610100808354040283529160200191610eda565b820191906000526020600020905b815481529060010190602001808311610ebd57829003601f168201915b50505050508152602001600482015481526020016005820160009054906101000a900460ff16151515158152602001600682015481526020016007820160009054906101000a900460ff166003811115610f5d577f4e487b7100000000000000000000000000000000000000000000000000000000600052602160045260246000fd5b6003811115610f95577f4e487b7100000000000000000000000000000000000000000000000000000000600052602160045260246000fd5b8152505090506000816040015111610fe2576040517f08c379a0000000000000000000000000000000000000000000000000000000008152600401610fd99061355e565b60405180910390fd5b806020015173ffffffffffffffffffffffffffffffffffffffff16816000015173ffffffffffffffffffffffffffffffffffffffff1614611058576040517f08c379a000000000000000000000000000000000000000000000000000000000815260040161104f906135be565b60405180910390fd5b806000015173ffffffffffffffffffffffffffffffffffffffff166108fc82604001519081150290604051600060405180830381858888f193505050501580156110a6573d6000803e3d6000fd5b5060008160000151905060005b60038110156111e45783600260008473ffffffffffffffffffffffffffffffffffffffff1673ffffffffffffffffffffffffffffffffffffffff1681526020019081526020016000208281548110611134577f4e487b7100000000000000000000000000000000000000000000000000000000600052603260045260246000fd5b906000526020600020015414156111d1576064600260008473ffffffffffffffffffffffffffffffffffffffff1673ffffffffffffffffffffffffffffffffffffffff16815260200190815260200160002082815481106111be577f4e487b7100000000000000000000000000000000000000000000000000000000600052603260045260246000fd5b90600052602060002001819055506111e4565b80806111dc906139e5565b9150506110b3565b5060016000848152602001908152602001600020600080820160006101000a81549073ffffffffffffffffffffffffffffffffffffffff02191690556001820160006101000a81549073ffffffffffffffffffffffffffffffffffffffff0219169055600282016000905560038201600061125f9190612973565b60048201600090556005820160006101000a81549060ff021916905560068201600090556007820160006101000a81549060ff02191690555050505050565b60055481565b60606000805490506000600282106112c6576002826112c39190613871565b90505b600081836112d49190613871565b905060008167ffffffffffffffff811115611318577f4e487b7100000000000000000000000000000000000000000000000000000000600052604160045260246000fd5b60405190808252806020026020018201604052801561135157816020015b61133e6129b3565b8152602001906001900390816113365790505b5090506000808490505b858110156115e65760016000828152602001908152602001600020604051806101000160405290816000820160009054906101000a900473ffffffffffffffffffffffffffffffffffffffff1673ffffffffffffffffffffffffffffffffffffffff1673ffffffffffffffffffffffffffffffffffffffff1681526020016001820160009054906101000a900473ffffffffffffffffffffffffffffffffffffffff1673ffffffffffffffffffffffffffffffffffffffff1673ffffffffffffffffffffffffffffffffffffffff1681526020016002820154815260200160038201805461144890613982565b80601f016020809104026020016040519081016040528092919081815260200182805461147490613982565b80156114c15780601f10611496576101008083540402835291602001916114c1565b820191906000526020600020905b8154815290600101906020018083116114a457829003601f168201915b50505050508152602001600482015481526020016005820160009054906101000a900460ff16151515158152602001600682015481526020016007820160009054906101000a900460ff166003811115611544577f4e487b7100000000000000000000000000000000000000000000000000000000600052602160045260246000fd5b600381111561157c577f4e487b7100000000000000000000000000000000000000000000000000000000600052602160045260246000fd5b815250508383815181106115b9577f4e487b7100000000000000000000000000000000000000000000000000000000600052603260045260246000fd5b60200260200101819052506001826115d19190613790565b915080806115de906139e5565b91505061135b565b50819550505050505090565b600460009054906101000a900473ffffffffffffffffffffffffffffffffffffffff1681565b60006001600083815260200190815260200160002090506000816002015411611676576040517f08c379a000000000000000000000000000000000000000000000000000000000815260040161166d9061349e565b60405180910390fd5b3373ffffffffffffffffffffffffffffffffffffffff168160000160009054906101000a900473ffffffffffffffffffffffffffffffffffffffff1673ffffffffffffffffffffffffffffffffffffffff161415611709576040517f08c379a00000000000000000000000000000000000000000000000000000000081526004016117009061353e565b60405180910390fd5b8060010160009054906101000a900473ffffffffffffffffffffffffffffffffffffffff1673ffffffffffffffffffffffffffffffffffffffff168160000160009054906101000a900473ffffffffffffffffffffffffffffffffffffffff1673ffffffffffffffffffffffffffffffffffffffff16146117bf576040517f08c379a00000000000000000000000000000000000000000000000000000000081526004016117b6906134de565b60405180910390fd5b80600201543414611805576040517f08c379a00000000000000000000000000000000000000000000000000000000081526004016117fc9061361e565b60405180910390fd5b6000600260003373ffffffffffffffffffffffffffffffffffffffff1673ffffffffffffffffffffffffffffffffffffffff16815260200190815260200160002080549050111580611a4157506000600260003373ffffffffffffffffffffffffffffffffffffffff1673ffffffffffffffffffffffffffffffffffffffff16815260200190815260200160002080549050118015611a4057506064600260003373ffffffffffffffffffffffffffffffffffffffff1673ffffffffffffffffffffffffffffffffffffffff168152602001908152602001600020600081548110611919577f4e487b7100000000000000000000000000000000000000000000000000000000600052603260045260246000fd5b906000526020600020015414806119b257506064600260003373ffffffffffffffffffffffffffffffffffffffff1673ffffffffffffffffffffffffffffffffffffffff1681526020019081526020016000206001815481106119a5577f4e487b7100000000000000000000000000000000000000000000000000000000600052603260045260246000fd5b9060005260206000200154145b80611a3f57506064600260003373ffffffffffffffffffffffffffffffffffffffff1673ffffffffffffffffffffffffffffffffffffffff168152602001908152602001600020600281548110611a32577f4e487b7100000000000000000000000000000000000000000000000000000000600052603260045260246000fd5b9060005260206000200154145b5b5b611a80576040517f08c379a0000000000000000000000000000000000000000000000000000000008152600401611a779061357e565b60405180910390fd5b338160010160006101000a81548173ffffffffffffffffffffffffffffffffffffffff021916908373ffffffffffffffffffffffffffffffffffffffff1602179055506000600260003373ffffffffffffffffffffffffffffffffffffffff1673ffffffffffffffffffffffffffffffffffffffff1681526020019081526020016000208054905011611b855760006005819055506040518060600160405280838152602001606481526020016064815250600260003373ffffffffffffffffffffffffffffffffffffffff1673ffffffffffffffffffffffffffffffffffffffff168152602001908152602001600020906003611b7f929190612a5e565b50611cc3565b600160058190555060005b6003811015611cc1576064600260003373ffffffffffffffffffffffffffffffffffffffff1673ffffffffffffffffffffffffffffffffffffffff1681526020019081526020016000208281548110611c12577f4e487b7100000000000000000000000000000000000000000000000000000000600052603260045260246000fd5b90600052602060002001541415611cae5782600260003373ffffffffffffffffffffffffffffffffffffffff1673ffffffffffffffffffffffffffffffffffffffff1681526020019081526020016000208281548110611c9b577f4e487b7100000000000000000000000000000000000000000000000000000000600052603260045260246000fd5b9060005260206000200181905550611cc1565b8080611cb9906139e5565b915050611b90565b505b5050565b60003411611d0a576040517f08c379a0000000000000000000000000000000000000000000000000000000008152600401611d01906135de565b60405180910390fd5b6000600260003373ffffffffffffffffffffffffffffffffffffffff1673ffffffffffffffffffffffffffffffffffffffff16815260200190815260200160002080549050111580611f4657506000600260003373ffffffffffffffffffffffffffffffffffffffff1673ffffffffffffffffffffffffffffffffffffffff16815260200190815260200160002080549050118015611f4557506064600260003373ffffffffffffffffffffffffffffffffffffffff1673ffffffffffffffffffffffffffffffffffffffff168152602001908152602001600020600081548110611e1e577f4e487b7100000000000000000000000000000000000000000000000000000000600052603260045260246000fd5b90600052602060002001541480611eb757506064600260003373ffffffffffffffffffffffffffffffffffffffff1673ffffffffffffffffffffffffffffffffffffffff168152602001908152602001600020600181548110611eaa577f4e487b7100000000000000000000000000000000000000000000000000000000600052603260045260246000fd5b9060005260206000200154145b80611f4457506064600260003373ffffffffffffffffffffffffffffffffffffffff1673ffffffffffffffffffffffffffffffffffffffff168152602001908152602001600020600281548110611f37577f4e487b7100000000000000000000000000000000000000000000000000000000600052603260045260246000fd5b9060005260206000200154145b5b5b611f85576040517f08c379a0000000000000000000000000000000000000000000000000000000008152600401611f7c9061357e565b60405180910390fd5b6040518061010001604052803373ffffffffffffffffffffffffffffffffffffffff1681526020013373ffffffffffffffffffffffffffffffffffffffff1681526020013481526020018481526020018381526020018215158152602001600460009054906101000a900473ffffffffffffffffffffffffffffffffffffffff1673ffffffffffffffffffffffffffffffffffffffff166344a11f656003876040516120319190613356565b908152602001604051809103902060009054906101000a900473ffffffffffffffffffffffffffffffffffffffff166040518263ffffffff1660e01b815260040161207c9190613384565b60206040518083038186803b15801561209457600080fd5b505afa1580156120a8573d6000803e3d6000fd5b505050506040513d601f19601f820116820180604052508101906120cc9190612c6f565b815260200160038081111561210a577f4e487b7100000000000000000000000000000000000000000000000000000000600052602160045260246000fd5b815250600160008054815260200190815260200160002060008201518160000160006101000a81548173ffffffffffffffffffffffffffffffffffffffff021916908373ffffffffffffffffffffffffffffffffffffffff16021790555060208201518160010160006101000a81548173ffffffffffffffffffffffffffffffffffffffff021916908373ffffffffffffffffffffffffffffffffffffffff1602179055506040820151816002015560608201518160030190805190602001906121d5929190612aab565b506080820151816004015560a08201518160050160006101000a81548160ff02191690831515021790555060c0820151816006015560e08201518160070160006101000a81548160ff0219169083600381111561225b577f4e487b7100000000000000000000000000000000000000000000000000000000600052602160045260246000fd5b02179055509050506000547fa85f9845510d83562eaa9e779b6973f58826879a69d5613807f0415e1ce692c4336040516122959190613384565b60405180910390a26000600260003373ffffffffffffffffffffffffffffffffffffffff1673ffffffffffffffffffffffffffffffffffffffff16815260200190815260200160002080549050116123595760405180606001604052806000548152602001606481526020016064815250600260003373ffffffffffffffffffffffffffffffffffffffff1673ffffffffffffffffffffffffffffffffffffffff168152602001908152602001600020906003612353929190612a5e565b50612491565b60005b600381101561248f576064600260003373ffffffffffffffffffffffffffffffffffffffff1673ffffffffffffffffffffffffffffffffffffffff16815260200190815260200160002082815481106123de577f4e487b7100000000000000000000000000000000000000000000000000000000600052603260045260246000fd5b9060005260206000200154141561247c57600054600260003373ffffffffffffffffffffffffffffffffffffffff1673ffffffffffffffffffffffffffffffffffffffff1681526020019081526020016000208281548110612469577f4e487b7100000000000000000000000000000000000000000000000000000000600052603260045260246000fd5b906000526020600020018190555061248f565b8080612487906139e5565b91505061235c565b505b6000808154809291906124a3906139e5565b9190505550505050565b6124b56129b3565b60006001600084815260200190815260200160002090506000816002015411612513576040517f08c379a000000000000000000000000000000000000000000000000000000000815260040161250a906135fe565b60405180910390fd5b60016000848152602001908152602001600020604051806101000160405290816000820160009054906101000a900473ffffffffffffffffffffffffffffffffffffffff1673ffffffffffffffffffffffffffffffffffffffff1673ffffffffffffffffffffffffffffffffffffffff1681526020016001820160009054906101000a900473ffffffffffffffffffffffffffffffffffffffff1673ffffffffffffffffffffffffffffffffffffffff1673ffffffffffffffffffffffffffffffffffffffff168152602001600282015481526020016003820180546125f890613982565b80601f016020809104026020016040519081016040528092919081815260200182805461262490613982565b80156126715780601f1061264657610100808354040283529160200191612671565b820191906000526020600020905b81548152906001019060200180831161265457829003601f168201915b50505050508152602001600482015481526020016005820160009054906101000a900460ff16151515158152602001600682015481526020016007820160009054906101000a900460ff1660038111156126f4577f4e487b7100000000000000000000000000000000000000000000000000000000600052602160045260246000fd5b600381111561272c577f4e487b7100000000000000000000000000000000000000000000000000000000600052602160045260246000fd5b81525050915050919050565b6002602052816000526040600020818154811061275457600080fd5b90600052602060002001600091509150505481565b60016020528060005260406000206000915090508060000160009054906101000a900473ffffffffffffffffffffffffffffffffffffffff16908060010160009054906101000a900473ffffffffffffffffffffffffffffffffffffffff16908060020154908060030180546127de90613982565b80601f016020809104026020016040519081016040528092919081815260200182805461280a90613982565b80156128575780601f1061282c57610100808354040283529160200191612857565b820191906000526020600020905b81548152906001019060200180831161283a57829003601f168201915b5050505050908060040154908060050160009054906101000a900460ff16908060060154908060070160009054906101000a900460ff16905088565b6003818051602081018201805184825260208301602085012081835280955050505050506000915054906101000a900473ffffffffffffffffffffffffffffffffffffffff1681565b6060600260008373ffffffffffffffffffffffffffffffffffffffff1673ffffffffffffffffffffffffffffffffffffffff16815260200190815260200160002080548060200260200160405190810160405280929190818152602001828054801561296757602002820191906000526020600020905b815481526020019060010190808311612953575b50505050509050919050565b50805461297f90613982565b6000825580601f1061299157506129b0565b601f0160209004906000526020600020908101906129af9190612b31565b5b50565b604051806101000160405280600073ffffffffffffffffffffffffffffffffffffffff168152602001600073ffffffffffffffffffffffffffffffffffffffff1681526020016000815260200160608152602001600081526020016000151581526020016000815260200160006003811115612a58577f4e487b7100000000000000000000000000000000000000000000000000000000600052602160045260246000fd5b81525090565b828054828255906000526020600020908101928215612a9a579160200282015b82811115612a99578251825591602001919060010190612a7e565b5b509050612aa79190612b31565b5090565b828054612ab790613982565b90600052602060002090601f016020900481019282612ad95760008555612b20565b82601f10612af257805160ff1916838001178555612b20565b82800160010185558215612b20579182015b82811115612b1f578251825591602001919060010190612b04565b5b509050612b2d9190612b31565b5090565b5b80821115612b4a576000816000905550600101612b32565b5090565b6000612b61612b5c846136a0565b61367b565b905082815260208101848484011115612b7957600080fd5b612b84848285613940565b509392505050565b600081359050612b9b81613e37565b92915050565b600081359050612bb081613e4e565b92915050565b600081519050612bc581613e65565b92915050565b600082601f830112612bdc57600080fd5b8135612bec848260208601612b4e565b91505092915050565b600081359050612c0481613e7c565b92915050565b600060208284031215612c1c57600080fd5b6000612c2a84828501612b8c565b91505092915050565b60008060408385031215612c4657600080fd5b6000612c5485828601612b8c565b9250506020612c6585828601612bf5565b9150509250929050565b600060208284031215612c8157600080fd5b6000612c8f84828501612bb6565b91505092915050565b600060208284031215612caa57600080fd5b600082013567ffffffffffffffff811115612cc457600080fd5b612cd084828501612bcb565b91505092915050565b600080600060608486031215612cee57600080fd5b600084013567ffffffffffffffff811115612d0857600080fd5b612d1486828701612bcb565b9350506020612d2586828701612bf5565b9250506040612d3686828701612ba1565b9150509250925092565b600060208284031215612d5257600080fd5b6000612d6084828501612bf5565b91505092915050565b6000612d7583836131d8565b905092915050565b6000612d898383613338565b60208301905092915050565b612d9e816138a5565b82525050565b612dad816138a5565b82525050565b6000612dbe82613706565b612dc88185613741565b935083602082028501612dda856136d1565b8060005b85811015612e165784840389528151612df78582612d69565b9450612e0283613727565b925060208a01995050600181019050612dde565b50829750879550505050505092915050565b6000612e3382613711565b612e3d8185613752565b9350612e48836136e1565b8060005b83811015612e79578151612e608882612d7d565b9750612e6b83613734565b925050600181019050612e4c565b5085935050505092915050565b612e8f816138b7565b82525050565b612e9e816138b7565b82525050565b612ead8161390a565b82525050565b612ebc8161392e565b82525050565b612ecb8161392e565b82525050565b612eda816138d6565b82525050565b612ee9816138d6565b82525050565b6000612efa8261371c565b612f048185613763565b9350612f1481856020860161394f565b612f1d81613b19565b840191505092915050565b6000612f338261371c565b612f3d8185613774565b9350612f4d81856020860161394f565b612f5681613b19565b840191505092915050565b6000612f6c8261371c565b612f768185613785565b9350612f8681856020860161394f565b80840191505092915050565b60008154612f9f81613982565b612fa98186613785565b94506001821660008114612fc45760018114612fd557613008565b60ff19831686528186019350613008565b612fde856136f1565b60005b8381101561300057815481890152600182019150602081019050612fe1565b838801955050505b50505092915050565b600061301e601b83613774565b915061302982613b2a565b602082019050919050565b6000613041602583613774565b915061304c82613b53565b604082019050919050565b6000613064602e83613774565b915061306f82613ba2565b604082019050919050565b6000613087602083613774565b915061309282613bf1565b602082019050919050565b60006130aa601183613774565b91506130b582613c1a565b602082019050919050565b60006130cd602583613774565b91506130d882613c43565b604082019050919050565b60006130f0601883613774565b91506130fb82613c92565b602082019050919050565b6000613113601083613774565b915061311e82613cbb565b602082019050919050565b6000613136601883613774565b915061314182613ce4565b602082019050919050565b6000613159603883613774565b915061316482613d0d565b604082019050919050565b600061317c602283613774565b915061318782613d5c565b604082019050919050565b600061319f601983613774565b91506131aa82613dab565b602082019050919050565b60006131c2603183613774565b91506131cd82613dd4565b604082019050919050565b6000610100830160008301516131f16000860182612d95565b5060208301516132046020860182612d95565b5060408301516132176040860182613338565b506060830151848203606086015261322f8282612eef565b91505060808301516132446080860182613338565b5060a083015161325760a0860182612e86565b5060c083015161326a60c0860182612ed1565b5060e083015161327d60e0860182612eb3565b508091505092915050565b6000610100830160008301516132a16000860182612d95565b5060208301516132b46020860182612d95565b5060408301516132c76040860182613338565b50606083015184820360608601526132df8282612eef565b91505060808301516132f46080860182613338565b5060a083015161330760a0860182612e86565b5060c083015161331a60c0860182612ed1565b5060e083015161332d60e0860182612eb3565b508091505092915050565b61334181613900565b82525050565b61335081613900565b82525050565b60006133628284612f61565b915081905092915050565b60006133798284612f92565b915081905092915050565b60006020820190506133996000830184612da4565b92915050565b6000610100820190506133b5600083018b612da4565b6133c2602083018a612da4565b6133cf6040830189613347565b81810360608301526133e18188612f28565b90506133f06080830187613347565b6133fd60a0830186612e95565b61340a60c0830185612ee0565b61341760e0830184612ec2565b9998505050505050505050565b6000602082019050818103600083015261343e8184612db3565b905092915050565b600060208201905081810360008301526134608184612e28565b905092915050565b600060208201905061347d6000830184612ea4565b92915050565b60006020820190506134986000830184612ee0565b92915050565b600060208201905081810360008301526134b781613011565b9050919050565b600060208201905081810360008301526134d781613034565b9050919050565b600060208201905081810360008301526134f781613057565b9050919050565b600060208201905081810360008301526135178161307a565b9050919050565b600060208201905081810360008301526135378161309d565b9050919050565b60006020820190508181036000830152613557816130c0565b9050919050565b60006020820190508181036000830152613577816130e3565b9050919050565b6000602082019050818103600083015261359781613106565b9050919050565b600060208201905081810360008301526135b781613129565b9050919050565b600060208201905081810360008301526135d78161314c565b9050919050565b600060208201905081810360008301526135f78161316f565b9050919050565b6000602082019050818103600083015261361781613192565b9050919050565b60006020820190508181036000830152613637816131b5565b9050919050565b600060208201905081810360008301526136588184613288565b905092915050565b60006020820190506136756000830184613347565b92915050565b6000613685613696565b905061369182826139b4565b919050565b6000604051905090565b600067ffffffffffffffff8211156136bb576136ba613aea565b5b6136c482613b19565b9050602081019050919050565b6000819050602082019050919050565b6000819050602082019050919050565b60008190508160005260206000209050919050565b600081519050919050565b600081519050919050565b600081519050919050565b6000602082019050919050565b6000602082019050919050565b600082825260208201905092915050565b600082825260208201905092915050565b600082825260208201905092915050565b600082825260208201905092915050565b600081905092915050565b600061379b82613900565b91506137a683613900565b9250827fffffffffffffffffffffffffffffffffffffffffffffffffffffffffffffffff038211156137db576137da613a2e565b5b828201905092915050565b60006137f182613900565b91506137fc83613900565b92508261380c5761380b613a5d565b5b828204905092915050565b600061382282613900565b915061382d83613900565b9250817fffffffffffffffffffffffffffffffffffffffffffffffffffffffffffffffff048311821515161561386657613865613a2e565b5b828202905092915050565b600061387c82613900565b915061388783613900565b92508282101561389a57613899613a2e565b5b828203905092915050565b60006138b0826138e0565b9050919050565b60008115159050919050565b60008190506138d182613e23565b919050565b6000819050919050565b600073ffffffffffffffffffffffffffffffffffffffff82169050919050565b6000819050919050565b60006139158261391c565b9050919050565b6000613927826138e0565b9050919050565b6000613939826138c3565b9050919050565b82818337600083830152505050565b60005b8381101561396d578082015181840152602081019050613952565b8381111561397c576000848401525b50505050565b6000600282049050600182168061399a57607f821691505b602082108114156139ae576139ad613abb565b5b50919050565b6139bd82613b19565b810181811067ffffffffffffffff821117156139dc576139db613aea565b5b80604052505050565b60006139f082613900565b91507fffffffffffffffffffffffffffffffffffffffffffffffffffffffffffffffff821415613a2357613a22613a2e565b5b600182019050919050565b7f4e487b7100000000000000000000000000000000000000000000000000000000600052601160045260246000fd5b7f4e487b7100000000000000000000000000000000000000000000000000000000600052601260045260246000fd5b7f4e487b7100000000000000000000000000000000000000000000000000000000600052602160045260246000fd5b7f4e487b7100000000000000000000000000000000000000000000000000000000600052602260045260246000fd5b7f4e487b7100000000000000000000000000000000000000000000000000000000600052604160045260246000fd5b6000601f19601f8301169050919050565b7f626174746c65206e756d6265722069736e27742065786973742e0a0000000000600082015250565b7f746f6f206561726c7920746f20636865636b2077686f2069732074686520776960008201527f6e6e65722e000000000000000000000000000000000000000000000000000000602082015250565b7f7468697320626174746c6520697320636c6f7365642c206f70706f6e656e742060008201527f616c72656164792065786973742e000000000000000000000000000000000000602082015250565b7f796f7520617265206e6f742070617274206f66207468697320626174746c652e600082015250565b7f776974686472617720616c72656164792e000000000000000000000000000000600082015250565b7f696d706f737369626c6520746f20666967687420616761696e737420796f757260008201527f73656c662e000000000000000000000000000000000000000000000000000000602082015250565b7f7468697320626174746c652069736e27742065786973742e0000000000000000600082015250565b7f746f6f206d616e7920626174746c657300000000000000000000000000000000600082015250565b7f7468697320626174746c65206469646e742073746172742e0000000000000000600082015250565b7f746865726520697320616c7265616479206f70706f6e656e742c20746869732060008201527f626174746c652063616e742062652063616e63656c65642e0000000000000000602082015250565b7f796f75206861766520746f20626574206f6e20706f7369746976652076616c7560008201527f6521000000000000000000000000000000000000000000000000000000000000602082015250565b7f7468697320626174746c652069736e27742065786973742e0a00000000000000600082015250565b7f62657474696e672076616c75652069736e27742061732073706563696669656460008201527f20666f72207468697320626174746c652e000000000000000000000000000000602082015250565b60048110613e3457613e33613a8c565b5b50565b613e40816138a5565b8114613e4b57600080fd5b50565b613e57816138b7565b8114613e6257600080fd5b50565b613e6e816138d6565b8114613e7957600080fd5b50565b613e8581613900565b8114613e9057600080fd5b5056fea2646970667358221220be26184fafe755e71faf3711571b8cce1aaefff13979914ed6e19d51a69a6aa964736f6c63430008030033608060405234801561001057600080fd5b506102fc806100206000396000f3fe608060405234801561001057600080fd5b506004361061002b5760003560e01c806344a11f6514610030575b600080fd5b61004a60048036038101906100459190610144565b610060565b60405161005791906101f3565b60405180910390f35b6000808273ffffffffffffffffffffffffffffffffffffffff1663feaf968c6040518163ffffffff1660e01b815260040160a06040518083038186803b1580156100a957600080fd5b505afa1580156100bd573d6000803e3d6000fd5b505050506040513d601f19601f820116820180604052508101906100e1919061016d565b50505091505080915050919050565b6000813590506100ff8161026a565b92915050565b60008151905061011481610281565b92915050565b60008151905061012981610298565b92915050565b60008151905061013e816102af565b92915050565b60006020828403121561015657600080fd5b6000610164848285016100f0565b91505092915050565b600080600080600060a0868803121561018557600080fd5b60006101938882890161012f565b95505060206101a488828901610105565b94505060406101b58882890161011a565b93505060606101c68882890161011a565b92505060806101d78882890161012f565b9150509295509295909350565b6101ed81610220565b82525050565b600060208201905061020860008301846101e4565b92915050565b60006102198261022a565b9050919050565b6000819050919050565b600073ffffffffffffffffffffffffffffffffffffffff82169050919050565b6000819050919050565b600069ffffffffffffffffffff82169050919050565b6102738161020e565b811461027e57600080fd5b50565b61028a81610220565b811461029557600080fd5b50565b6102a18161024a565b81146102ac57600080fd5b50565b6102b881610254565b81146102c357600080fd5b5056fea264697066735822122067f529d65b74f0da7ea76c2dc1c15817e84e269b54410f629a0a377abd43a16d64736f6c63430008030033",
  "immutableReferences": {},
  "source": "// SPDX-License-Identifier: MIT\r\npragma solidity ^0.8.3;\r\nimport \"./PriceFeed.sol\";\r\n\r\ncontract BinaryOption{\r\n\r\n    uint256 public battleId; // unique id for each battle\r\n    mapping(uint256 => Battle) public battleInfo; // map of the existing battles\r\n    mapping(address => uint256[]) public addressToBattle; // map of relevant battles\r\n    mapping(string => address) public feedAddress; // map of addresses for the price feeds\r\n    PriceFeed public priceFeed;\r\n    int public b = 2;\r\n    event AddEvent(\r\n    uint256 indexed id,\r\n    address address_field//\r\n    );\r\n\r\n    enum Status {\r\n            Opponent,\r\n            Creator,\r\n            Draw,\r\n            NotOver\r\n        }\r\n\r\n    struct Battle {\r\n        address creator;\r\n        address opponent;\r\n        uint256 amountBet;\r\n        string betType;\r\n        uint betDate;\r\n        bool isUp;\r\n        int currVal;\r\n        Status whoWin; // 0 for opponent, 1 for creator, 2 for draw, 3 if not over\r\n    }\r\n\r\n\r\n    constructor()  {\r\n        priceFeed = new PriceFeed();\r\n        bool isKovan = false; // true if kovan, otherwise rinkeby\r\n\r\n        if (isKovan){\r\n        feedAddress[\"EthVsUsd\"] = 0x9326BFA02ADD2366b30bacB125260Af641031331;\r\n        }\r\n        else {\r\n        // those addresses (of rinkbey test network) can be found at: https://docs.chain.link/docs/ethereum-addresses/\r\n        feedAddress[\"eth_vs_usd\"] = 0x8A753747A1Fa494EC906cE90E9f37563A8AF630e;\r\n        feedAddress[\"btc_vs_usd\"] = 0xECe365B379E1dD183B20fc5f022230C044d51404;\r\n        feedAddress[\"eur_vs_usd\"] = 0x78F9e60608bF48a1155b4B2A5e31F32318a1d85F;\r\n        feedAddress[\"usdc_vs_eth\"] = 0xdCA36F27cbC4E38aE16C4E9f99D39b42337F6dcf;\r\n        feedAddress[\"dai_vs_usd\"] = 0x2bA49Aaa16E6afD2a993473cfB70Fa8559B523cF;\r\n        feedAddress[\"dai_vs_eth\"] = 0x74825DbC8BF76CC4e9494d0ecB210f676Efa001D;\r\n        feedAddress[\"sdefi_vs_usd\"] = 0x0630521aC362bc7A19a4eE44b57cE72Ea34AD01c;\r\n        feedAddress[\"snx_vs_usd\"] = 0xE96C4407597CD507002dF88ff6E0008AB41266Ee;\r\n        }\r\n\r\n    }\r\n       /*function getB() public view returns (int){\r\n          return b;\r\n       }\r\n\r\n       function getList(address a) public view returns (uint256[] memory){\r\n          return addressToBattle[a];\r\n       }*/\r\n\r\n\r\n    // a creator create a new battle\r\n    function addBattle(string memory betType,uint betDate,bool direction) public payable {\r\n        require(msg.value > 0, \"you have to bet on positive value!\");\r\n        // doesn't play more than 3 games simultaneously\r\n        require(!(addressToBattle[msg.sender].length > 0) || (addressToBattle[msg.sender].length > 0\r\n        && (addressToBattle[msg.sender][0]==100 || addressToBattle[msg.sender][1]==100 || addressToBattle[msg.sender][2]==100)), \"too many battles\" );\r\n        battleInfo[battleId] = Battle(msg.sender,msg.sender,msg.value,betType,betDate,direction,\r\n        priceFeed.getThePrice(feedAddress[betType]), Status.NotOver);\r\n        emit AddEvent(battleId, msg.sender);\r\n        if (!(addressToBattle[msg.sender].length > 0)){\r\n        //b = 1;\r\n        addressToBattle[msg.sender] = [battleId, 100, 100]; // 100 signs empty entry. -1 doesn't work\r\n        } else {\r\n            //b = 0;\r\n            for(uint i = 0; i < 3; i++){\r\n                if (addressToBattle[msg.sender][i] == 100){\r\n                    addressToBattle[msg.sender][i] = battleId;\r\n                    break;\r\n                }\r\n            }\r\n        }\r\n        battleId++;\r\n    }\r\n\r\n    function getaddressToBattle(address a) public view returns(uint256[] memory) {\r\n        return addressToBattle[a];\r\n    }\r\n\r\n    function getBattleInfo(uint256 battle_id) public returns(Battle memory) {\r\n        Battle storage bate = battleInfo[battle_id];\r\n        require(bate.amountBet > 0, \"this battle isn't exist.\\n\");\r\n        return battleInfo[battle_id];\r\n    }\r\n\r\n    function getAll() public view returns (Battle[] memory){\r\n            uint256 lastIndex = battleId;\r\n            uint256 firstIndex = 0;\r\n            if (lastIndex >= 2){\r\n                firstIndex = lastIndex - 2;\r\n            }\r\n            uint256 viewRange = lastIndex - firstIndex;\r\n            //b = 1;\r\n            Battle[] memory ret = new Battle[](viewRange);\r\n            //b = 0;\r\n            uint j = 0;\r\n            for (uint i = firstIndex; i < lastIndex; i++) {\r\n                ret[j] = battleInfo[i];\r\n                j += 1;\r\n            }\r\n            return ret;\r\n    }\r\n\r\n    // an opponent is signed to battle number: battle_id\r\n    function acceptBattle(uint256 battle_id) public payable{\r\n\r\n        Battle storage bate = battleInfo[battle_id];\r\n        require(bate.amountBet > 0, \"battle number isn't exist.\\n\");\r\n        require(bate.creator != msg.sender, \"impossible to fight against yourself.\");\r\n        require(bate.creator == bate.opponent, \"this battle is closed, opponent already exist.\");\r\n        require(msg.value == bate.amountBet, \"betting value isn't as specified for this battle.\");\r\n        // doesn't play more than 3 games simultaneously\r\n        require(!(addressToBattle[msg.sender].length > 0) || (addressToBattle[msg.sender].length > 0\r\n        && (addressToBattle[msg.sender][0]==100 || addressToBattle[msg.sender][1]==100 || addressToBattle[msg.sender][2]==100)), \"too many battles\" );\r\n        bate.opponent = msg.sender;\r\n        if (!(addressToBattle[msg.sender].length > 0)){\r\n            b = 0;\r\n            addressToBattle[msg.sender] = [battle_id, 100, 100];\r\n        } else {\r\n            b = 1;\r\n            for(uint i = 0; i < 3; i++){\r\n                if (addressToBattle[msg.sender][i] == 100){\r\n                    addressToBattle[msg.sender][i] = battle_id;\r\n                    break;\r\n                }\r\n            }\r\n        }\r\n    }\r\n\r\n\r\n    // a creator cancels his battle\r\n    function cancelBattle(uint256 battle_id) public {\r\n        Battle memory bate = battleInfo[battle_id];\r\n        require(bate.amountBet > 0, \"this battle isn't exist.\");\r\n        //require(bate.creator == msg.sender, \"only the creator may cancel his own battle.\");\r\n        require(bate.creator == bate.opponent, \"there is already opponent, this battle cant be canceled.\");\r\n        payable(bate.creator).transfer(bate.amountBet); // return the amount which was invested\r\n        address creator = bate.creator;\r\n        for (uint i = 0; i < 3; i++){\r\n            if(addressToBattle[creator][i] == battle_id){\r\n                addressToBattle[creator][i] = 100;\r\n                break;\r\n            }\r\n        }\r\n        delete battleInfo[battle_id]; // battle is canceled\r\n    }\r\n\r\n    // the winner may draw his money\r\n    function withdraw(uint256 battle_id) public {\r\n        Status winner; // 0 = lose 1 = win 2 = draw\r\n        int oldPrice;\r\n        int newPrice;\r\n        Battle storage bate=battleInfo[battle_id];\r\n        uint betDateSecond = bate.betDate / 1000; // divide by 1000 to convert milliseconds to seconds\r\n        require(bate.creator != bate.opponent, \"this battle didnt start.\"); // in case the creator try to withdraw before having opponent. He may cancel battle if he wants.\r\n        require((bate.creator == msg.sender || bate.opponent == msg.sender), \"you are not part of this battle.\");\r\n        require(block.timestamp >= betDateSecond, \"too early to check who is the winner.\");\r\n        require(bate.whoWin == Status.NotOver, \"withdraw already.\");\r\n        oldPrice = bate.currVal;\r\n        newPrice = priceFeed.getThePrice(feedAddress[bate.betType]);\r\n        // deliver the money to the winner\r\n        if(oldPrice < newPrice){\r\n\r\n            if (bate.isUp){\r\n                winner = Status.Creator;\r\n                payable(bate.creator).transfer(2 * bate.amountBet); // multiply by 2 since we deliver the money of both the creator and his opponent\r\n            }\r\n            else{\r\n                winner = Status.Opponent;\r\n                payable(bate.opponent).transfer(2*bate.amountBet);\r\n            }\r\n\r\n        }\r\n        else if (oldPrice > newPrice){\r\n\r\n            if (bate.isUp){\r\n                winner = Status.Opponent;\r\n                payable(bate.opponent).transfer(2 * bate.amountBet);\r\n            }\r\n            else {\r\n                winner = Status.Creator;\r\n                payable(bate.creator).transfer(2*bate.amountBet);\r\n            }\r\n        }\r\n\r\n        else {\r\n            winner = Status.Draw;\r\n            payable(bate.opponent).transfer(bate.amountBet);\r\n            payable(bate.creator).transfer(bate.amountBet);\r\n        }\r\n\r\n        bate.whoWin = winner;\r\n        address creator = battleInfo[battle_id].creator;\r\n        address opponent = battleInfo[battle_id].opponent;\r\n        for (uint i = 0; i < 3; i ++){\r\n            if(addressToBattle[creator][i] == battle_id){\r\n                addressToBattle[creator][i] = 100;\r\n                break;\r\n            }\r\n        }\r\n        for (uint i = 0; i < 3; i ++){\r\n             if(addressToBattle[opponent][i] == battle_id){\r\n                addressToBattle[opponent][i] = 100;\r\n                break;\r\n             }\r\n        }\r\n    }\r\n}",
  "sourcePath": "C:/Users/Admin/IdeaProjects/tau_Smart_contract/src/solidity/contracts/BinaryOption.sol",
  "compiler": {
    "name": "solc",
    "version": "0.8.3+commit.8d00100c.Emscripten.clang"
  },
  "schemaVersion": "3.3.4",
  "updatedAt": "2021-08-27T04:50:29.137Z",
  "networkType": "ethereum",
  "devdoc": {
    "kind": "dev",
    "methods": {},
    "version": 1
  },
  "userdoc": {
    "kind": "user",
    "methods": {},
    "version": 1
  }
}