{
  "contractName": "BinaryOption",
  "abi": [
    {
      "inputs": [],
      "stateMutability": "nonpayable",
      "type": "constructor"
    },
    {
      "anonymous": false,
      "inputs": [
        {
          "indexed": true,
          "internalType": "uint256",
          "name": "id",
          "type": "uint256"
        },
        {
          "indexed": false,
          "internalType": "address",
          "name": "address_field",
          "type": "address"
        }
      ],
      "name": "AddEvent",
      "type": "event"
    },
    {
      "inputs": [],
      "name": "battleId",
      "outputs": [
        {
          "internalType": "uint256",
          "name": "",
          "type": "uint256"
        }
      ],
      "stateMutability": "view",
      "type": "function",
      "constant": true
    },
    {
      "inputs": [
        {
          "internalType": "uint256",
          "name": "",
          "type": "uint256"
        }
      ],
      "name": "battleInfo",
      "outputs": [
        {
          "internalType": "address",
          "name": "creator",
          "type": "address"
        },
        {
          "internalType": "address",
          "name": "opponent",
          "type": "address"
        },
        {
          "internalType": "uint256",
          "name": "amountBet",
          "type": "uint256"
        },
        {
          "internalType": "string",
          "name": "betType",
          "type": "string"
        },
        {
          "internalType": "uint256",
          "name": "betDate",
          "type": "uint256"
        },
        {
          "internalType": "bool",
          "name": "isUp",
          "type": "bool"
        },
        {
          "internalType": "int256",
          "name": "currVal",
          "type": "int256"
        },
        {
          "internalType": "int256",
          "name": "whoWin",
          "type": "int256"
        }
      ],
      "stateMutability": "view",
      "type": "function",
      "constant": true
    },
    {
      "inputs": [
        {
          "internalType": "string",
          "name": "",
          "type": "string"
        }
      ],
      "name": "feedAddress",
      "outputs": [
        {
          "internalType": "address",
          "name": "",
          "type": "address"
        }
      ],
      "stateMutability": "view",
      "type": "function",
      "constant": true
    },
    {
      "inputs": [],
      "name": "priceFeed",
      "outputs": [
        {
          "internalType": "contract PriceFeed",
          "name": "",
          "type": "address"
        }
      ],
      "stateMutability": "view",
      "type": "function",
      "constant": true
    },
    {
      "inputs": [
        {
          "internalType": "string",
          "name": "betType",
          "type": "string"
        },
        {
          "internalType": "uint256",
          "name": "betDate",
          "type": "uint256"
        },
        {
          "internalType": "bool",
          "name": "direction",
          "type": "bool"
        }
      ],
      "name": "addBattle",
      "outputs": [],
      "stateMutability": "payable",
      "type": "function",
      "payable": true
    },
    {
      "inputs": [
        {
          "internalType": "uint256",
          "name": "battle_id",
          "type": "uint256"
        }
      ],
      "name": "getBattleInfo",
      "outputs": [
        {
          "components": [
            {
              "internalType": "address",
              "name": "creator",
              "type": "address"
            },
            {
              "internalType": "address",
              "name": "opponent",
              "type": "address"
            },
            {
              "internalType": "uint256",
              "name": "amountBet",
              "type": "uint256"
            },
            {
              "internalType": "string",
              "name": "betType",
              "type": "string"
            },
            {
              "internalType": "uint256",
              "name": "betDate",
              "type": "uint256"
            },
            {
              "internalType": "bool",
              "name": "isUp",
              "type": "bool"
            },
            {
              "internalType": "int256",
              "name": "currVal",
              "type": "int256"
            },
            {
              "internalType": "int256",
              "name": "whoWin",
              "type": "int256"
            }
          ],
          "internalType": "struct BinaryOption.Battle",
          "name": "",
          "type": "tuple"
        }
      ],
      "stateMutability": "payable",
      "type": "function",
      "payable": true
    },
    {
      "inputs": [],
      "name": "getAll",
      "outputs": [
        {
          "components": [
            {
              "internalType": "address",
              "name": "creator",
              "type": "address"
            },
            {
              "internalType": "address",
              "name": "opponent",
              "type": "address"
            },
            {
              "internalType": "uint256",
              "name": "amountBet",
              "type": "uint256"
            },
            {
              "internalType": "string",
              "name": "betType",
              "type": "string"
            },
            {
              "internalType": "uint256",
              "name": "betDate",
              "type": "uint256"
            },
            {
              "internalType": "bool",
              "name": "isUp",
              "type": "bool"
            },
            {
              "internalType": "int256",
              "name": "currVal",
              "type": "int256"
            },
            {
              "internalType": "int256",
              "name": "whoWin",
              "type": "int256"
            }
          ],
          "internalType": "struct BinaryOption.Battle[]",
          "name": "",
          "type": "tuple[]"
        }
      ],
      "stateMutability": "view",
      "type": "function",
      "constant": true
    },
    {
      "inputs": [
        {
          "internalType": "uint256",
          "name": "battle_id",
          "type": "uint256"
        }
      ],
      "name": "acceptBattle",
      "outputs": [],
      "stateMutability": "payable",
      "type": "function",
      "payable": true
    },
    {
      "inputs": [
        {
          "internalType": "uint256",
          "name": "battle_id",
          "type": "uint256"
        }
      ],
      "name": "cancelBattle",
      "outputs": [],
      "stateMutability": "payable",
      "type": "function",
      "payable": true
    },
    {
      "inputs": [],
      "name": "getOldPrice",
      "outputs": [
        {
          "internalType": "int256",
          "name": "",
          "type": "int256"
        }
      ],
      "stateMutability": "view",
      "type": "function",
      "constant": true
    },
    {
      "inputs": [],
      "name": "getNewPrice",
      "outputs": [
        {
          "internalType": "int256",
          "name": "",
          "type": "int256"
        }
      ],
      "stateMutability": "view",
      "type": "function",
      "constant": true
    },
    {
      "inputs": [
        {
          "internalType": "uint256",
          "name": "battle_id",
          "type": "uint256"
        }
      ],
      "name": "withdraw",
      "outputs": [],
      "stateMutability": "nonpayable",
      "type": "function"
    }
  ],
  "bytecode": "0x6080604052600060045560006005553480156200001b57600080fd5b506040516200002a9062000498565b604051809103906000f08015801562000047573d6000803e3d6000fd5b50600360006101000a81548173ffffffffffffffffffffffffffffffffffffffff021916908373ffffffffffffffffffffffffffffffffffffffff160217905550600080156200010857739326bfa02add2366b30bacb125260af6410313316002604051620000b6906200061c565b908152602001604051809103902060006101000a81548173ffffffffffffffffffffffffffffffffffffffff021916908373ffffffffffffffffffffffffffffffffffffffff16021790555062000491565b738a753747a1fa494ec906ce90e9f37563a8af630e60026040516200012d9062000678565b908152602001604051809103902060006101000a81548173ffffffffffffffffffffffffffffffffffffffff021916908373ffffffffffffffffffffffffffffffffffffffff16021790555073ece365b379e1dd183b20fc5f022230c044d5140460026040516200019e906200068f565b908152602001604051809103902060006101000a81548173ffffffffffffffffffffffffffffffffffffffff021916908373ffffffffffffffffffffffffffffffffffffffff1602179055507378f9e60608bf48a1155b4b2a5e31f32318a1d85f60026040516200020f9062000605565b908152602001604051809103902060006101000a81548173ffffffffffffffffffffffffffffffffffffffff021916908373ffffffffffffffffffffffffffffffffffffffff16021790555073dca36f27cbc4e38ae16c4e9f99d39b42337f6dcf6002604051620002809062000661565b908152602001604051809103902060006101000a81548173ffffffffffffffffffffffffffffffffffffffff021916908373ffffffffffffffffffffffffffffffffffffffff160217905550732ba49aaa16e6afd2a993473cfb70fa8559b523cf6002604051620002f1906200064a565b908152602001604051809103902060006101000a81548173ffffffffffffffffffffffffffffffffffffffff021916908373ffffffffffffffffffffffffffffffffffffffff1602179055507374825dbc8bf76cc4e9494d0ecb210f676efa001d60026040516200036290620006bd565b908152602001604051809103902060006101000a81548173ffffffffffffffffffffffffffffffffffffffff021916908373ffffffffffffffffffffffffffffffffffffffff160217905550730630521ac362bc7a19a4ee44b57ce72ea34ad01c6002604051620003d390620006a6565b908152602001604051809103902060006101000a81548173ffffffffffffffffffffffffffffffffffffffff021916908373ffffffffffffffffffffffffffffffffffffffff16021790555073e96c4407597cd507002df88ff6e0008ab41266ee6002604051620004449062000633565b908152602001604051809103902060006101000a81548173ffffffffffffffffffffffffffffffffffffffff021916908373ffffffffffffffffffffffffffffffffffffffff1602179055505b5062000850565b61031c806200339183390190565b6000620004b5600a83620006d4565b9150620004c282620006df565b600a82019050919050565b6000620004dc600883620006d4565b9150620004e98262000708565b600882019050919050565b600062000503600a83620006d4565b9150620005108262000731565b600a82019050919050565b60006200052a600a83620006d4565b915062000537826200075a565b600a82019050919050565b600062000551600b83620006d4565b91506200055e8262000783565b600b82019050919050565b600062000578600a83620006d4565b91506200058582620007ac565b600a82019050919050565b60006200059f600a83620006d4565b9150620005ac82620007d5565b600a82019050919050565b6000620005c6600c83620006d4565b9150620005d382620007fe565b600c82019050919050565b6000620005ed600a83620006d4565b9150620005fa8262000827565b600a82019050919050565b60006200061282620004a6565b9150819050919050565b60006200062982620004cd565b9150819050919050565b60006200064082620004f4565b9150819050919050565b600062000657826200051b565b9150819050919050565b60006200066e8262000542565b9150819050919050565b6000620006858262000569565b9150819050919050565b60006200069c8262000590565b9150819050919050565b6000620006b382620005b7565b9150819050919050565b6000620006ca82620005de565b9150819050919050565b600081905092915050565b7f6575725f76735f75736400000000000000000000000000000000000000000000600082015250565b7f4574685673557364000000000000000000000000000000000000000000000000600082015250565b7f736e785f76735f75736400000000000000000000000000000000000000000000600082015250565b7f6461695f76735f75736400000000000000000000000000000000000000000000600082015250565b7f757364635f76735f657468000000000000000000000000000000000000000000600082015250565b7f6574685f76735f75736400000000000000000000000000000000000000000000600082015250565b7f6274635f76735f75736400000000000000000000000000000000000000000000600082015250565b7f73646566695f76735f7573640000000000000000000000000000000000000000600082015250565b7f6461695f76735f65746800000000000000000000000000000000000000000000600082015250565b612b3180620008606000396000f3fe6080604052600436106100a75760003560e01c806381ec30f21161006457806381ec30f21461019d578063a7b08aec146101b9578063bfc8b8c6146101e4578063c0a6e9d714610200578063db71dcdc14610230578063e4bb7a1e14610274576100a7565b806301a1b778146100ac5780632e1a7d4d146100d7578063397e183d146101005780634c4c447e1461012b57806353ed514314610147578063741bef1a14610172575b600080fd5b3480156100b857600080fd5b506100c16102b1565b6040516100ce91906123e4565b60405180910390f35b3480156100e357600080fd5b506100fe60048036038101906100f99190611b7a565b6102b7565b005b34801561010c57600080fd5b5061011561097b565b6040516101229190612207565b60405180910390f35b61014560048036038101906101409190611b7a565b610985565b005b34801561015357600080fd5b5061015c610d53565b60405161016991906121ca565b60405180910390f35b34801561017e57600080fd5b50610187610fe0565b60405161019491906121ec565b60405180910390f35b6101b760048036038101906101b29190611b7a565b611006565b005b3480156101c557600080fd5b506101ce61123a565b6040516101db9190612207565b60405180910390f35b6101fe60048036038101906101f99190611b13565b611244565b005b61021a60048036038101906102159190611b7a565b611538565b60405161022791906123c2565b60405180910390f35b34801561023c57600080fd5b5061025760048036038101906102529190611b7a565b611746565b60405161026b989796959493929190612145565b60405180910390f35b34801561028057600080fd5b5061029b60048036038101906102969190611ad2565b611863565b6040516102a8919061212a565b60405180910390f35b60005481565b6000806000806001600086815260200190815260200160002090506001600086815260200190815260200160002060010160009054906101000a900473ffffffffffffffffffffffffffffffffffffffff1673ffffffffffffffffffffffffffffffffffffffff166001600087815260200190815260200160002060000160009054906101000a900473ffffffffffffffffffffffffffffffffffffffff1673ffffffffffffffffffffffffffffffffffffffff1614156103ad576040517f08c379a00000000000000000000000000000000000000000000000000000000081526004016103a490612282565b60405180910390fd5b3373ffffffffffffffffffffffffffffffffffffffff168160000160009054906101000a900473ffffffffffffffffffffffffffffffffffffffff1673ffffffffffffffffffffffffffffffffffffffff16148061045a57503373ffffffffffffffffffffffffffffffffffffffff168160010160009054906101000a900473ffffffffffffffffffffffffffffffffffffffff1673ffffffffffffffffffffffffffffffffffffffff16145b610499576040517f08c379a0000000000000000000000000000000000000000000000000000000008152600401610490906122e2565b60405180910390fd5b6103e881600401546104ab91906124db565b4210156104ed576040517f08c379a00000000000000000000000000000000000000000000000000000000081526004016104e490612362565b60405180910390fd5b6003816007015414610534576040517f08c379a000000000000000000000000000000000000000000000000000000000815260040161052b90612302565b60405180910390fd5b8060060154925082600581905550600360009054906101000a900473ffffffffffffffffffffffffffffffffffffffff1673ffffffffffffffffffffffffffffffffffffffff166344a11f656002836003016040516105939190612113565b908152602001604051809103902060009054906101000a900473ffffffffffffffffffffffffffffffffffffffff166040518263ffffffff1660e01b81526004016105de919061212a565b60206040518083038186803b1580156105f657600080fd5b505afa15801561060a573d6000803e3d6000fd5b505050506040513d601f19601f8201168201806040525081019061062e9190611aa9565b9150816004819055508183121561075f578060050160009054906101000a900460ff16156106da57600193508060000160009054906101000a900473ffffffffffffffffffffffffffffffffffffffff1673ffffffffffffffffffffffffffffffffffffffff166108fc826002015460026106a9919061250c565b9081150290604051600060405180830381858888f193505050501580156106d4573d6000803e3d6000fd5b5061075a565b600093508060010160009054906101000a900473ffffffffffffffffffffffffffffffffffffffff1673ffffffffffffffffffffffffffffffffffffffff166108fc8260020154600261072d919061250c565b9081150290604051600060405180830381858888f19350505050158015610758573d6000803e3d6000fd5b505b61096b565b81831315610887578060050160009054906101000a900460ff161561080257600093508060010160009054906101000a900473ffffffffffffffffffffffffffffffffffffffff1673ffffffffffffffffffffffffffffffffffffffff166108fc826002015460026107d1919061250c565b9081150290604051600060405180830381858888f193505050501580156107fc573d6000803e3d6000fd5b50610882565b600193508060000160009054906101000a900473ffffffffffffffffffffffffffffffffffffffff1673ffffffffffffffffffffffffffffffffffffffff166108fc82600201546002610855919061250c565b9081150290604051600060405180830381858888f19350505050158015610880573d6000803e3d6000fd5b505b61096a565b600293508060010160009054906101000a900473ffffffffffffffffffffffffffffffffffffffff1673ffffffffffffffffffffffffffffffffffffffff166108fc82600201549081150290604051600060405180830381858888f193505050501580156108f9573d6000803e3d6000fd5b508060000160009054906101000a900473ffffffffffffffffffffffffffffffffffffffff1673ffffffffffffffffffffffffffffffffffffffff166108fc82600201549081150290604051600060405180830381858888f19350505050158015610968573d6000803e3d6000fd5b505b5b8381600701819055505050505050565b6000600554905090565b600060016000838152602001908152602001600020604051806101000160405290816000820160009054906101000a900473ffffffffffffffffffffffffffffffffffffffff1673ffffffffffffffffffffffffffffffffffffffff1673ffffffffffffffffffffffffffffffffffffffff1681526020016001820160009054906101000a900473ffffffffffffffffffffffffffffffffffffffff1673ffffffffffffffffffffffffffffffffffffffff1673ffffffffffffffffffffffffffffffffffffffff16815260200160028201548152602001600382018054610a6c9061261e565b80601f0160208091040260200160405190810160405280929190818152602001828054610a989061261e565b8015610ae55780601f10610aba57610100808354040283529160200191610ae5565b820191906000526020600020905b815481529060010190602001808311610ac857829003601f168201915b50505050508152602001600482015481526020016005820160009054906101000a900460ff161515151581526020016006820154815260200160078201548152505090506000816040015111610b70576040517f08c379a0000000000000000000000000000000000000000000000000000000008152600401610b67906122c2565b60405180910390fd5b3373ffffffffffffffffffffffffffffffffffffffff16816000015173ffffffffffffffffffffffffffffffffffffffff1614610be2576040517f08c379a0000000000000000000000000000000000000000000000000000000008152600401610bd990612382565b60405180910390fd5b806020015173ffffffffffffffffffffffffffffffffffffffff16816000015173ffffffffffffffffffffffffffffffffffffffff1614610c58576040517f08c379a0000000000000000000000000000000000000000000000000000000008152600401610c4f90612262565b60405180910390fd5b806000015173ffffffffffffffffffffffffffffffffffffffff166108fc82604001519081150290604051600060405180830381858888f19350505050158015610ca6573d6000803e3d6000fd5b5060016000838152602001908152602001600020600080820160006101000a81549073ffffffffffffffffffffffffffffffffffffffff02191690556001820160006101000a81549073ffffffffffffffffffffffffffffffffffffffff02191690556002820160009055600382016000610d2191906118ac565b60048201600090556005820160006101000a81549060ff02191690556006820160009055600782016000905550505050565b60606000805467ffffffffffffffff811115610d98577f4e487b7100000000000000000000000000000000000000000000000000000000600052604160045260246000fd5b604051908082528060200260200182016040528015610dd157816020015b610dbe6118ec565b815260200190600190039081610db65790505b50905060005b600054811015610fd85760016000828152602001908152602001600020604051806101000160405290816000820160009054906101000a900473ffffffffffffffffffffffffffffffffffffffff1673ffffffffffffffffffffffffffffffffffffffff1673ffffffffffffffffffffffffffffffffffffffff1681526020016001820160009054906101000a900473ffffffffffffffffffffffffffffffffffffffff1673ffffffffffffffffffffffffffffffffffffffff1673ffffffffffffffffffffffffffffffffffffffff16815260200160028201548152602001600382018054610ec69061261e565b80601f0160208091040260200160405190810160405280929190818152602001828054610ef29061261e565b8015610f3f5780601f10610f1457610100808354040283529160200191610f3f565b820191906000526020600020905b815481529060010190602001808311610f2257829003601f168201915b50505050508152602001600482015481526020016005820160009054906101000a900460ff1615151515815260200160068201548152602001600782015481525050828281518110610fba577f4e487b7100000000000000000000000000000000000000000000000000000000600052603260045260246000fd5b60200260200101819052508080610fd090612681565b915050610dd7565b508091505090565b600360009054906101000a900473ffffffffffffffffffffffffffffffffffffffff1681565b60006001600083815260200190815260200160002090506000816002015411611064576040517f08c379a000000000000000000000000000000000000000000000000000000000815260040161105b90612342565b60405180910390fd5b3373ffffffffffffffffffffffffffffffffffffffff168160000160009054906101000a900473ffffffffffffffffffffffffffffffffffffffff1673ffffffffffffffffffffffffffffffffffffffff1614156110f7576040517f08c379a00000000000000000000000000000000000000000000000000000000081526004016110ee90612222565b60405180910390fd5b8060010160009054906101000a900473ffffffffffffffffffffffffffffffffffffffff1673ffffffffffffffffffffffffffffffffffffffff168160000160009054906101000a900473ffffffffffffffffffffffffffffffffffffffff1673ffffffffffffffffffffffffffffffffffffffff16146111ad576040517f08c379a00000000000000000000000000000000000000000000000000000000081526004016111a490612322565b60405180910390fd5b806002015434146111f3576040517f08c379a00000000000000000000000000000000000000000000000000000000081526004016111ea906123a2565b60405180910390fd5b338160010160006101000a81548173ffffffffffffffffffffffffffffffffffffffff021916908373ffffffffffffffffffffffffffffffffffffffff1602179055505050565b6000600454905090565b60003411611287576040517f08c379a000000000000000000000000000000000000000000000000000000000815260040161127e906122a2565b60405180910390fd5b6040518061010001604052803373ffffffffffffffffffffffffffffffffffffffff1681526020013373ffffffffffffffffffffffffffffffffffffffff1681526020013481526020018481526020018381526020018215158152602001600360009054906101000a900473ffffffffffffffffffffffffffffffffffffffff1673ffffffffffffffffffffffffffffffffffffffff166344a11f6560028760405161133391906120fc565b908152602001604051809103902060009054906101000a900473ffffffffffffffffffffffffffffffffffffffff166040518263ffffffff1660e01b815260040161137e919061212a565b60206040518083038186803b15801561139657600080fd5b505afa1580156113aa573d6000803e3d6000fd5b505050506040513d601f19601f820116820180604052508101906113ce9190611aa9565b81526020016003815250600160008054815260200190815260200160002060008201518160000160006101000a81548173ffffffffffffffffffffffffffffffffffffffff021916908373ffffffffffffffffffffffffffffffffffffffff16021790555060208201518160010160006101000a81548173ffffffffffffffffffffffffffffffffffffffff021916908373ffffffffffffffffffffffffffffffffffffffff1602179055506040820151816002015560608201518160030190805190602001906114a092919061195f565b506080820151816004015560a08201518160050160006101000a81548160ff02191690831515021790555060c0820151816006015560e082015181600701559050506000547fa85f9845510d83562eaa9e779b6973f58826879a69d5613807f0415e1ce692c433604051611514919061212a565b60405180910390a260008081548092919061152e90612681565b9190505550505050565b6115406118ec565b6000600160008481526020019081526020016000209050600081600201541161159e576040517f08c379a000000000000000000000000000000000000000000000000000000000815260040161159590612242565b60405180910390fd5b60016000848152602001908152602001600020604051806101000160405290816000820160009054906101000a900473ffffffffffffffffffffffffffffffffffffffff1673ffffffffffffffffffffffffffffffffffffffff1673ffffffffffffffffffffffffffffffffffffffff1681526020016001820160009054906101000a900473ffffffffffffffffffffffffffffffffffffffff1673ffffffffffffffffffffffffffffffffffffffff1673ffffffffffffffffffffffffffffffffffffffff168152602001600282015481526020016003820180546116839061261e565b80601f01602080910402602001604051908101604052809291908181526020018280546116af9061261e565b80156116fc5780601f106116d1576101008083540402835291602001916116fc565b820191906000526020600020905b8154815290600101906020018083116116df57829003601f168201915b50505050508152602001600482015481526020016005820160009054906101000a900460ff1615151515815260200160068201548152602001600782015481525050915050919050565b60016020528060005260406000206000915090508060000160009054906101000a900473ffffffffffffffffffffffffffffffffffffffff16908060010160009054906101000a900473ffffffffffffffffffffffffffffffffffffffff16908060020154908060030180546117bb9061261e565b80601f01602080910402602001604051908101604052809291908181526020018280546117e79061261e565b80156118345780601f1061180957610100808354040283529160200191611834565b820191906000526020600020905b81548152906001019060200180831161181757829003601f168201915b5050505050908060040154908060050160009054906101000a900460ff16908060060154908060070154905088565b6002818051602081018201805184825260208301602085012081835280955050505050506000915054906101000a900473ffffffffffffffffffffffffffffffffffffffff1681565b5080546118b89061261e565b6000825580601f106118ca57506118e9565b601f0160209004906000526020600020908101906118e891906119e5565b5b50565b604051806101000160405280600073ffffffffffffffffffffffffffffffffffffffff168152602001600073ffffffffffffffffffffffffffffffffffffffff16815260200160008152602001606081526020016000815260200160001515815260200160008152602001600081525090565b82805461196b9061261e565b90600052602060002090601f01602090048101928261198d57600085556119d4565b82601f106119a657805160ff19168380011785556119d4565b828001600101855582156119d4579182015b828111156119d35782518255916020019190600101906119b8565b5b5090506119e191906119e5565b5090565b5b808211156119fe5760008160009055506001016119e6565b5090565b6000611a15611a1084612424565b6123ff565b905082815260208101848484011115611a2d57600080fd5b611a388482856125dc565b509392505050565b600081359050611a4f81612ab6565b92915050565b600081519050611a6481612acd565b92915050565b600082601f830112611a7b57600080fd5b8135611a8b848260208601611a02565b91505092915050565b600081359050611aa381612ae4565b92915050565b600060208284031215611abb57600080fd5b6000611ac984828501611a55565b91505092915050565b600060208284031215611ae457600080fd5b600082013567ffffffffffffffff811115611afe57600080fd5b611b0a84828501611a6a565b91505092915050565b600080600060608486031215611b2857600080fd5b600084013567ffffffffffffffff811115611b4257600080fd5b611b4e86828701611a6a565b9350506020611b5f86828701611a94565b9250506040611b7086828701611a40565b9150509250925092565b600060208284031215611b8c57600080fd5b6000611b9a84828501611a94565b91505092915050565b6000611baf8383611f7e565b905092915050565b611bc081612566565b82525050565b611bcf81612566565b82525050565b6000611be08261247a565b611bea818561249d565b935083602082028501611bfc85612455565b8060005b85811015611c385784840389528151611c198582611ba3565b9450611c2483612490565b925060208a01995050600181019050611c00565b50829750879550505050505092915050565b611c5381612578565b82525050565b611c6281612578565b82525050565b611c71816125b8565b82525050565b611c8081612584565b82525050565b611c8f81612584565b82525050565b6000611ca082612485565b611caa81856124ae565b9350611cba8185602086016125eb565b611cc381612786565b840191505092915050565b6000611cd982612485565b611ce381856124bf565b9350611cf38185602086016125eb565b611cfc81612786565b840191505092915050565b6000611d1282612485565b611d1c81856124d0565b9350611d2c8185602086016125eb565b80840191505092915050565b60008154611d458161261e565b611d4f81866124d0565b94506001821660008114611d6a5760018114611d7b57611dae565b60ff19831686528186019350611dae565b611d8485612465565b60005b83811015611da657815481890152600182019150602081019050611d87565b838801955050505b50505092915050565b6000611dc46025836124bf565b9150611dcf82612797565b604082019050919050565b6000611de76019836124bf565b9150611df2826127e6565b602082019050919050565b6000611e0a6039836124bf565b9150611e158261280f565b604082019050919050565b6000611e2d6019836124bf565b9150611e388261285e565b602082019050919050565b6000611e506022836124bf565b9150611e5b82612887565b604082019050919050565b6000611e736018836124bf565b9150611e7e826128d6565b602082019050919050565b6000611e966020836124bf565b9150611ea1826128ff565b602082019050919050565b6000611eb96011836124bf565b9150611ec482612928565b602082019050919050565b6000611edc602e836124bf565b9150611ee782612951565b604082019050919050565b6000611eff601b836124bf565b9150611f0a826129a0565b602082019050919050565b6000611f226025836124bf565b9150611f2d826129c9565b604082019050919050565b6000611f45602b836124bf565b9150611f5082612a18565b604082019050919050565b6000611f686031836124bf565b9150611f7382612a67565b604082019050919050565b600061010083016000830151611f976000860182611bb7565b506020830151611faa6020860182611bb7565b506040830151611fbd60408601826120de565b5060608301518482036060860152611fd58282611c95565b9150506080830151611fea60808601826120de565b5060a0830151611ffd60a0860182611c4a565b5060c083015161201060c0860182611c77565b5060e083015161202360e0860182611c77565b508091505092915050565b6000610100830160008301516120476000860182611bb7565b50602083015161205a6020860182611bb7565b50604083015161206d60408601826120de565b50606083015184820360608601526120858282611c95565b915050608083015161209a60808601826120de565b5060a08301516120ad60a0860182611c4a565b5060c08301516120c060c0860182611c77565b5060e08301516120d360e0860182611c77565b508091505092915050565b6120e7816125ae565b82525050565b6120f6816125ae565b82525050565b60006121088284611d07565b915081905092915050565b600061211f8284611d38565b915081905092915050565b600060208201905061213f6000830184611bc6565b92915050565b60006101008201905061215b600083018b611bc6565b612168602083018a611bc6565b61217560408301896120ed565b81810360608301526121878188611cce565b905061219660808301876120ed565b6121a360a0830186611c59565b6121b060c0830185611c86565b6121bd60e0830184611c86565b9998505050505050505050565b600060208201905081810360008301526121e48184611bd5565b905092915050565b60006020820190506122016000830184611c68565b92915050565b600060208201905061221c6000830184611c86565b92915050565b6000602082019050818103600083015261223b81611db7565b9050919050565b6000602082019050818103600083015261225b81611dda565b9050919050565b6000602082019050818103600083015261227b81611dfd565b9050919050565b6000602082019050818103600083015261229b81611e20565b9050919050565b600060208201905081810360008301526122bb81611e43565b9050919050565b600060208201905081810360008301526122db81611e66565b9050919050565b600060208201905081810360008301526122fb81611e89565b9050919050565b6000602082019050818103600083015261231b81611eac565b9050919050565b6000602082019050818103600083015261233b81611ecf565b9050919050565b6000602082019050818103600083015261235b81611ef2565b9050919050565b6000602082019050818103600083015261237b81611f15565b9050919050565b6000602082019050818103600083015261239b81611f38565b9050919050565b600060208201905081810360008301526123bb81611f5b565b9050919050565b600060208201905081810360008301526123dc818461202e565b905092915050565b60006020820190506123f960008301846120ed565b92915050565b600061240961241a565b90506124158282612650565b919050565b6000604051905090565b600067ffffffffffffffff82111561243f5761243e612757565b5b61244882612786565b9050602081019050919050565b6000819050602082019050919050565b60008190508160005260206000209050919050565b600081519050919050565b600081519050919050565b6000602082019050919050565b600082825260208201905092915050565b600082825260208201905092915050565b600082825260208201905092915050565b600081905092915050565b60006124e6826125ae565b91506124f1836125ae565b925082612501576125006126f9565b5b828204905092915050565b6000612517826125ae565b9150612522836125ae565b9250817fffffffffffffffffffffffffffffffffffffffffffffffffffffffffffffffff048311821515161561255b5761255a6126ca565b5b828202905092915050565b60006125718261258e565b9050919050565b60008115159050919050565b6000819050919050565b600073ffffffffffffffffffffffffffffffffffffffff82169050919050565b6000819050919050565b60006125c3826125ca565b9050919050565b60006125d58261258e565b9050919050565b82818337600083830152505050565b60005b838110156126095780820151818401526020810190506125ee565b83811115612618576000848401525b50505050565b6000600282049050600182168061263657607f821691505b6020821081141561264a57612649612728565b5b50919050565b61265982612786565b810181811067ffffffffffffffff8211171561267857612677612757565b5b80604052505050565b600061268c826125ae565b91507fffffffffffffffffffffffffffffffffffffffffffffffffffffffffffffffff8214156126bf576126be6126ca565b5b600182019050919050565b7f4e487b7100000000000000000000000000000000000000000000000000000000600052601160045260246000fd5b7f4e487b7100000000000000000000000000000000000000000000000000000000600052601260045260246000fd5b7f4e487b7100000000000000000000000000000000000000000000000000000000600052602260045260246000fd5b7f4e487b7100000000000000000000000000000000000000000000000000000000600052604160045260246000fd5b6000601f19601f8301169050919050565b7f496d706f737369626c6520746f20666967687420616761696e737420796f757260008201527f73656c662e000000000000000000000000000000000000000000000000000000602082015250565b7f5468697320626174746c652069736e27742065786973742e0a00000000000000600082015250565b7f546865726520697320616c7265616479206f70706f6e656e742c20746869732060008201527f626174746c652063616e27742062652063616e63656c65642e00000000000000602082015250565b7f5468697320626174746c65206469646e27742073746172742e00000000000000600082015250565b7f596f75206861766520746f20626574206f6e20706f7369746976652076616c7560008201527f6521000000000000000000000000000000000000000000000000000000000000602082015250565b7f5468697320626174746c652069736e27742065786973742e0000000000000000600082015250565b7f596f7520617265206e6f742070617274206f66207468697320626174746c652e600082015250565b7f576974686472617720616c72656164792e000000000000000000000000000000600082015250565b7f5468697320626174746c6520697320636c6f7365642c206f70706f6e656e742060008201527f616c72656164792065786973742e000000000000000000000000000000000000602082015250565b7f426174746c65206e756d6265722069736e27742065786973742e0a0000000000600082015250565b7f546f6f206561726c7920746f20636865636b2077686f2069732074686520776960008201527f6e6e65722e000000000000000000000000000000000000000000000000000000602082015250565b7f4f6e6c79207468652063726561746f72206d61792063616e63656c206869732060008201527f6f776e20626174746c652e000000000000000000000000000000000000000000602082015250565b7f42657474696e672076616c75652069736e27742061732073706563696669656460008201527f20666f72207468697320626174746c652e000000000000000000000000000000602082015250565b612abf81612578565b8114612aca57600080fd5b50565b612ad681612584565b8114612ae157600080fd5b50565b612aed816125ae565b8114612af857600080fd5b5056fea2646970667358221220d126407d72145ab0258d5aeb2970eb19a7f95287b24891e1a458f82bb424247f64736f6c63430008030033608060405234801561001057600080fd5b506102fc806100206000396000f3fe608060405234801561001057600080fd5b506004361061002b5760003560e01c806344a11f6514610030575b600080fd5b61004a60048036038101906100459190610144565b610060565b60405161005791906101f3565b60405180910390f35b6000808273ffffffffffffffffffffffffffffffffffffffff1663feaf968c6040518163ffffffff1660e01b815260040160a06040518083038186803b1580156100a957600080fd5b505afa1580156100bd573d6000803e3d6000fd5b505050506040513d601f19601f820116820180604052508101906100e1919061016d565b50505091505080915050919050565b6000813590506100ff8161026a565b92915050565b60008151905061011481610281565b92915050565b60008151905061012981610298565b92915050565b60008151905061013e816102af565b92915050565b60006020828403121561015657600080fd5b6000610164848285016100f0565b91505092915050565b600080600080600060a0868803121561018557600080fd5b60006101938882890161012f565b95505060206101a488828901610105565b94505060406101b58882890161011a565b93505060606101c68882890161011a565b92505060806101d78882890161012f565b9150509295509295909350565b6101ed81610220565b82525050565b600060208201905061020860008301846101e4565b92915050565b60006102198261022a565b9050919050565b6000819050919050565b600073ffffffffffffffffffffffffffffffffffffffff82169050919050565b6000819050919050565b600069ffffffffffffffffffff82169050919050565b6102738161020e565b811461027e57600080fd5b50565b61028a81610220565b811461029557600080fd5b50565b6102a18161024a565b81146102ac57600080fd5b50565b6102b881610254565b81146102c357600080fd5b5056fea264697066735822122067f529d65b74f0da7ea76c2dc1c15817e84e269b54410f629a0a377abd43a16d64736f6c63430008030033",
  "immutableReferences": {},
  "source": "// SPDX-License-Identifier: MIT\r\npragma solidity ^0.8.3;\r\nimport \"./PriceFeed.sol\";\r\n\r\ncontract BinaryOption{\r\n\r\n    uint256  public battleId; // unique id for each battle\r\n    mapping(uint256 => Battle) public battleInfo; // map of the existing battles\r\n    mapping(string=>address) public feedAddress; // map of addresses for the price feeds\r\n    PriceFeed public priceFeed;\r\n    int newP=0;\r\n    int oldP=0;\r\n\r\n    event AddEvent(\r\n    uint256 indexed id,\r\n    address address_field\r\n    );\r\n\r\n    struct Battle {\r\n        address creator;\r\n        address opponent;\r\n        uint256 amountBet;\r\n        string betType;\r\n        uint betDate;\r\n        bool isUp;\r\n        int currVal;\r\n        int whoWin; // 0 for opponent, 1 for creator, 2 for draw, 3 if not over\r\n    }\r\n\r\n\r\n    constructor()  {\r\n        priceFeed=new PriceFeed();\r\n        bool isKovan=false; // true if kovan, otherwise rinkeby\r\n\r\n        if(isKovan){\r\n        feedAddress[\"EthVsUsd\"]=0x9326BFA02ADD2366b30bacB125260Af641031331;\r\n        }\r\n        else{\r\n        // those addresses (of rinkbey test network) can be found at: https://docs.chain.link/docs/ethereum-addresses/\r\n        feedAddress[\"eth_vs_usd\"]=0x8A753747A1Fa494EC906cE90E9f37563A8AF630e;\r\n        feedAddress[\"btc_vs_usd\"]=0xECe365B379E1dD183B20fc5f022230C044d51404;\r\n        feedAddress[\"eur_vs_usd\"]=0x78F9e60608bF48a1155b4B2A5e31F32318a1d85F;\r\n        feedAddress[\"usdc_vs_eth\"]=0xdCA36F27cbC4E38aE16C4E9f99D39b42337F6dcf;\r\n        feedAddress[\"dai_vs_usd\"]=0x2bA49Aaa16E6afD2a993473cfB70Fa8559B523cF;\r\n        feedAddress[\"dai_vs_eth\"]=0x74825DbC8BF76CC4e9494d0ecB210f676Efa001D;\r\n        feedAddress[\"sdefi_vs_usd\"]=0x0630521aC362bc7A19a4eE44b57cE72Ea34AD01c;\r\n        feedAddress[\"snx_vs_usd\"]=0xE96C4407597CD507002dF88ff6E0008AB41266Ee;\r\n        }\r\n\r\n    }\r\n\r\n\r\n    // a creator create a new battle\r\n    function addBattle(string memory betType,uint betDate,bool direction) public payable {\r\n        require(msg.value>0, \"You have to bet on positive value!\");\r\n        battleInfo[battleId]=Battle(msg.sender,msg.sender,msg.value,betType,betDate,direction,priceFeed.getThePrice(feedAddress[betType]),3);\r\n        emit AddEvent(battleId,msg.sender);\r\n        battleId++;\r\n    }\r\n\r\n\r\n    function getBattleInfo(uint256 battle_id) public payable returns(Battle memory) {\r\n        Battle storage bate=battleInfo[battle_id];\r\n        require(bate.amountBet>0, \"This battle isn't exist.\\n\");\r\n        return battleInfo[battle_id];\r\n    }\r\n\r\n    function getAll() public view returns (Battle[] memory){\r\n            Battle[] memory ret = new Battle[](battleId);\r\n            for (uint i = 0; i < battleId; i++) {\r\n                ret[i] = battleInfo[i];\r\n            }\r\n            return ret;\r\n        }\r\n\r\n    // an opponent is signed to battle number: battle_id\r\n    function acceptBattle(uint256 battle_id) public payable{\r\n\r\n        Battle storage bate=battleInfo[battle_id];\r\n        require(bate.amountBet>0, \"Battle number isn't exist.\\n\");\r\n        require(bate.creator!=msg.sender, \"Impossible to fight against yourself.\");\r\n        require(bate.creator==bate.opponent, \"This battle is closed, opponent already exist.\");\r\n        require(msg.value==bate.amountBet, \"Betting value isn't as specified for this battle.\");\r\n        bate.opponent=msg.sender;\r\n    }\r\n\r\n    // a creator cancels his battle\r\n    function cancelBattle(uint256 battle_id) public payable{\r\n        Battle memory bate=battleInfo[battle_id];\r\n        require(bate.amountBet>0, \"This battle isn't exist.\");\r\n        require(bate.creator==msg.sender, \"Only the creator may cancel his own battle.\");\r\n\r\n        require(bate.creator==bate.opponent, \"There is already opponent, this battle can't be canceled.\");\r\n        payable(bate.creator).transfer(bate.amountBet); // return the amount which was invested\r\n        delete battleInfo[battle_id]; // battle is canceled\r\n    }\r\n\r\n    function getOldPrice() public view returns(int){\r\n    return oldP;\r\n    }\r\n\r\n    function getNewPrice() public view returns(int){\r\n        return newP;\r\n    }\r\n\r\n    // the winner may draw his money\r\n    function withdraw(uint256 battle_id) public {\r\n        int winner; // 0=lose 1=win 2=draw\r\n        int oldPrice;\r\n        int newPrice;\r\n        Battle storage bate=battleInfo[battle_id];\r\n        require(battleInfo[battle_id].creator!=battleInfo[battle_id].opponent, \"This battle didn't start.\"); // in case the creator try to withdraw before having opponent. He may cancel battle if he wants.\r\n        require((bate.creator==msg.sender||bate.opponent==msg.sender), \"You are not part of this battle.\");\r\n        require(block.timestamp>=bate.betDate/1000, \"Too early to check who is the winner.\");\r\n        require(bate.whoWin==3, \"Withdraw already.\");\r\n        oldPrice=bate.currVal;\r\n        oldP=oldPrice;\r\n        newPrice=priceFeed.getThePrice(feedAddress[bate.betType]);\r\n        newP=newPrice;\r\n        // deliver the money to the winner\r\n        if(oldPrice<newPrice){\r\n\r\n            if(bate.isUp){\r\n                winner=1;\r\n                payable(bate.creator).transfer(2*bate.amountBet); // multiply by 2 since we deliver the money of both the creator and his opponent\r\n            }\r\n            else{\r\n                winner=0;\r\n                payable(bate.opponent).transfer(2*bate.amountBet);\r\n            }\r\n\r\n        }\r\n        else if(oldPrice>newPrice){\r\n\r\n            if(bate.isUp){\r\n                winner=0;\r\n                payable(bate.opponent).transfer(2*bate.amountBet);\r\n            }\r\n            else{\r\n                winner=1;\r\n                payable(bate.creator).transfer(2*bate.amountBet);\r\n            }\r\n        }\r\n\r\n        else {\r\n            winner=2;\r\n            payable(bate.opponent).transfer(bate.amountBet);\r\n            payable(bate.creator).transfer(bate.amountBet);\r\n        }\r\n        bate.whoWin=winner;\r\n    }\r\n\r\n}",
  "sourcePath": "C:/Users/Admin/IdeaProjects/tau_Smart_contract/src/solidity/contracts/BinaryOption.sol",
  "compiler": {
    "name": "solc",
    "version": "0.8.3+commit.8d00100c.Emscripten.clang"
  },
  "schemaVersion": "3.3.4",
  "updatedAt": "2021-08-04T14:46:40.225Z",
  "networkType": "ethereum",
  "devdoc": {
    "kind": "dev",
    "methods": {},
    "version": 1
  },
  "userdoc": {
    "kind": "user",
    "methods": {},
    "version": 1
  }
}