{
  "contractName": "BinaryOption",
  "abi": [
    {
      "inputs": [],
      "stateMutability": "nonpayable",
      "type": "constructor"
    },
    {
      "anonymous": false,
      "inputs": [
        {
          "indexed": true,
          "internalType": "uint256",
          "name": "id",
          "type": "uint256"
        },
        {
          "indexed": false,
          "internalType": "address",
          "name": "address_field",
          "type": "address"
        }
      ],
      "name": "AddEvent",
      "type": "event"
    },
    {
      "anonymous": false,
      "inputs": [
        {
          "indexed": true,
          "internalType": "uint256",
          "name": "id",
          "type": "uint256"
        },
        {
          "indexed": true,
          "internalType": "uint256",
          "name": "amount",
          "type": "uint256"
        },
        {
          "indexed": false,
          "internalType": "int256",
          "name": "win",
          "type": "int256"
        }
      ],
      "name": "MyEvent",
      "type": "event"
    },
    {
      "inputs": [],
      "name": "age",
      "outputs": [
        {
          "internalType": "contract Aggre",
          "name": "",
          "type": "address"
        }
      ],
      "stateMutability": "view",
      "type": "function",
      "constant": true
    },
    {
      "inputs": [],
      "name": "battleId",
      "outputs": [
        {
          "internalType": "uint256",
          "name": "",
          "type": "uint256"
        }
      ],
      "stateMutability": "view",
      "type": "function",
      "constant": true
    },
    {
      "inputs": [
        {
          "internalType": "uint256",
          "name": "",
          "type": "uint256"
        }
      ],
      "name": "battleInfo",
      "outputs": [
        {
          "internalType": "address",
          "name": "creator",
          "type": "address"
        },
        {
          "internalType": "address",
          "name": "opponent",
          "type": "address"
        },
        {
          "internalType": "uint256",
          "name": "amountBet",
          "type": "uint256"
        },
        {
          "internalType": "string",
          "name": "betType",
          "type": "string"
        },
        {
          "internalType": "uint256",
          "name": "betDate",
          "type": "uint256"
        },
        {
          "internalType": "bool",
          "name": "isUp",
          "type": "bool"
        },
        {
          "internalType": "int256",
          "name": "currVal",
          "type": "int256"
        }
      ],
      "stateMutability": "view",
      "type": "function",
      "constant": true
    },
    {
      "inputs": [
        {
          "internalType": "string",
          "name": "",
          "type": "string"
        }
      ],
      "name": "feedAddress",
      "outputs": [
        {
          "internalType": "address",
          "name": "",
          "type": "address"
        }
      ],
      "stateMutability": "view",
      "type": "function",
      "constant": true
    },
    {
      "inputs": [],
      "name": "owner",
      "outputs": [
        {
          "internalType": "address",
          "name": "",
          "type": "address"
        }
      ],
      "stateMutability": "view",
      "type": "function",
      "constant": true
    },
    {
      "inputs": [],
      "name": "tempVal",
      "outputs": [
        {
          "internalType": "uint256",
          "name": "",
          "type": "uint256"
        }
      ],
      "stateMutability": "view",
      "type": "function",
      "constant": true
    },
    {
      "inputs": [
        {
          "internalType": "string",
          "name": "betType",
          "type": "string"
        },
        {
          "internalType": "uint256",
          "name": "betDate",
          "type": "uint256"
        },
        {
          "internalType": "bool",
          "name": "direction",
          "type": "bool"
        }
      ],
      "name": "addBattle",
      "outputs": [],
      "stateMutability": "payable",
      "type": "function",
      "payable": true
    },
    {
      "inputs": [],
      "name": "getRound",
      "outputs": [
        {
          "internalType": "uint80",
          "name": "",
          "type": "uint80"
        }
      ],
      "stateMutability": "view",
      "type": "function",
      "constant": true
    },
    {
      "inputs": [
        {
          "internalType": "uint80",
          "name": "rnd",
          "type": "uint80"
        }
      ],
      "name": "getByDate",
      "outputs": [
        {
          "internalType": "uint256",
          "name": "",
          "type": "uint256"
        }
      ],
      "stateMutability": "view",
      "type": "function",
      "constant": true
    },
    {
      "inputs": [
        {
          "internalType": "uint256",
          "name": "battle_id",
          "type": "uint256"
        }
      ],
      "name": "getBattleInfo",
      "outputs": [
        {
          "components": [
            {
              "internalType": "address",
              "name": "creator",
              "type": "address"
            },
            {
              "internalType": "address",
              "name": "opponent",
              "type": "address"
            },
            {
              "internalType": "uint256",
              "name": "amountBet",
              "type": "uint256"
            },
            {
              "internalType": "string",
              "name": "betType",
              "type": "string"
            },
            {
              "internalType": "uint256",
              "name": "betDate",
              "type": "uint256"
            },
            {
              "internalType": "bool",
              "name": "isUp",
              "type": "bool"
            },
            {
              "internalType": "int256",
              "name": "currVal",
              "type": "int256"
            }
          ],
          "internalType": "struct BinaryOption.Battle",
          "name": "",
          "type": "tuple"
        }
      ],
      "stateMutability": "payable",
      "type": "function",
      "payable": true
    }
  ],
  "bytecode": "0x60806040523480156200001157600080fd5b506040516200002090620000f5565b604051809103906000f0801580156200003d573d6000803e3d6000fd5b50600660006101000a81548173ffffffffffffffffffffffffffffffffffffffff021916908373ffffffffffffffffffffffffffffffffffffffff160217905550738a753747a1fa494ec906ce90e9f37563a8af630e6005604051620000a3906200012a565b908152602001604051809103902060006101000a81548173ffffffffffffffffffffffffffffffffffffffff021916908373ffffffffffffffffffffffffffffffffffffffff16021790555062000175565b610631806200188883390190565b60006200011260088362000141565b91506200011f826200014c565b600882019050919050565b6000620001378262000103565b9150819050919050565b600081905092915050565b7f4574685673557364000000000000000000000000000000000000000000000000600082015250565b61170380620001856000396000f3fe6080604052600436106100915760003560e01c8063a9e23bea11610059578063a9e23bea1461017f578063bfc8b8c6146101aa578063c0a6e9d7146101c6578063db71dcdc146101f6578063e4bb7a1e1461023957610091565b806301a1b77814610096578063262a9dff146100c157806384a8479c146100ec5780638da5cb5b146101295780639f8743f714610154575b600080fd5b3480156100a257600080fd5b506100ab610276565b6040516100b8919061129e565b60405180910390f35b3480156100cd57600080fd5b506100d661027c565b6040516100e39190611201565b60405180910390f35b3480156100f857600080fd5b50610113600480360381019061010e9190610ea0565b6102a2565b604051610120919061129e565b60405180910390f35b34801561013557600080fd5b5061013e61036c565b60405161014b9190611147565b60405180910390f35b34801561016057600080fd5b50610169610392565b60405161017691906112b9565b60405180910390f35b34801561018b57600080fd5b50610194610458565b6040516101a1919061129e565b60405180910390f35b6101c460048036038101906101bf9190610de7565b61045e565b005b6101e060048036038101906101db9190610e4e565b61074b565b6040516101ed919061127c565b60405180910390f35b34801561020257600080fd5b5061021d60048036038101906102189190610e4e565b610a29565b6040516102309796959493929190611162565b60405180910390f35b34801561024557600080fd5b50610260600480360381019061025b9190610da6565b610b40565b60405161026d9190611147565b60405180910390f35b60005481565b600660009054906101000a900473ffffffffffffffffffffffffffffffffffffffff1681565b6000600660009054906101000a900473ffffffffffffffffffffffffffffffffffffffff1673ffffffffffffffffffffffffffffffffffffffff16636c7e874c738a753747a1fa494ec906ce90e9f37563a8af630e846040518363ffffffff1660e01b81526004016103159291906111d8565b60206040518083038186803b15801561032d57600080fd5b505afa158015610341573d6000803e3d6000fd5b505050506040513d601f19601f820116820180604052508101906103659190610e77565b9050919050565b600260009054906101000a900473ffffffffffffffffffffffffffffffffffffffff1681565b6000600660009054906101000a900473ffffffffffffffffffffffffffffffffffffffff1673ffffffffffffffffffffffffffffffffffffffff16638ff7b235738a753747a1fa494ec906ce90e9f37563a8af630e6040518263ffffffff1660e01b81526004016104039190611147565b60206040518083038186803b15801561041b57600080fd5b505afa15801561042f573d6000803e3d6000fd5b505050506040513d601f19601f820116820180604052508101906104539190610ec9565b905090565b60035481565b600034116104a1576040517f08c379a00000000000000000000000000000000000000000000000000000000081526004016104989061123c565b60405180910390fd5b6040518060e001604052803373ffffffffffffffffffffffffffffffffffffffff1681526020013373ffffffffffffffffffffffffffffffffffffffff16815260200134815260200184815260200183426104fc9190611362565b81526020018215158152602001600660009054906101000a900473ffffffffffffffffffffffffffffffffffffffff1673ffffffffffffffffffffffffffffffffffffffff166344a11f656005876040516105579190611130565b908152602001604051809103902060009054906101000a900473ffffffffffffffffffffffffffffffffffffffff166040518263ffffffff1660e01b81526004016105a29190611147565b60206040518083038186803b1580156105ba57600080fd5b505afa1580156105ce573d6000803e3d6000fd5b505050506040513d601f19601f820116820180604052508101906105f29190610d7d565b815250600160008054815260200190815260200160002060008201518160000160006101000a81548173ffffffffffffffffffffffffffffffffffffffff021916908373ffffffffffffffffffffffffffffffffffffffff16021790555060208201518160010160006101000a81548173ffffffffffffffffffffffffffffffffffffffff021916908373ffffffffffffffffffffffffffffffffffffffff1602179055506040820151816002015560608201518160030190805190602001906106bd929190610b89565b506080820151816004015560a08201518160050160006101000a81548160ff02191690831515021790555060c082015181600601559050506000547fa85f9845510d83562eaa9e779b6973f58826879a69d5613807f0415e1ce692c4336040516107279190611147565b60405180910390a2600080815480929190610741906114e9565b9190505550505050565b610753610c0f565b600060016000848152602001908152602001600020905060008160020154116107b1576040517f08c379a00000000000000000000000000000000000000000000000000000000081526004016107a89061125c565b60405180910390fd5b6001600084815260200190815260200160002060010160009054906101000a900473ffffffffffffffffffffffffffffffffffffffff1673ffffffffffffffffffffffffffffffffffffffff166001600085815260200190815260200160002060000160009054906101000a900473ffffffffffffffffffffffffffffffffffffffff1673ffffffffffffffffffffffffffffffffffffffff16141561088c576040517f08c379a00000000000000000000000000000000000000000000000000000000081526004016108839061121c565b60405180910390fd5b600160008481526020019081526020016000206040518060e00160405290816000820160009054906101000a900473ffffffffffffffffffffffffffffffffffffffff1673ffffffffffffffffffffffffffffffffffffffff1673ffffffffffffffffffffffffffffffffffffffff1681526020016001820160009054906101000a900473ffffffffffffffffffffffffffffffffffffffff1673ffffffffffffffffffffffffffffffffffffffff1673ffffffffffffffffffffffffffffffffffffffff1681526020016002820154815260200160038201805461097090611486565b80601f016020809104026020016040519081016040528092919081815260200182805461099c90611486565b80156109e95780601f106109be576101008083540402835291602001916109e9565b820191906000526020600020905b8154815290600101906020018083116109cc57829003601f168201915b50505050508152602001600482015481526020016005820160009054906101000a900460ff16151515158152602001600682015481525050915050919050565b60016020528060005260406000206000915090508060000160009054906101000a900473ffffffffffffffffffffffffffffffffffffffff16908060010160009054906101000a900473ffffffffffffffffffffffffffffffffffffffff1690806002015490806003018054610a9e90611486565b80601f0160208091040260200160405190810160405280929190818152602001828054610aca90611486565b8015610b175780601f10610aec57610100808354040283529160200191610b17565b820191906000526020600020905b815481529060010190602001808311610afa57829003601f168201915b5050505050908060040154908060050160009054906101000a900460ff16908060060154905087565b6005818051602081018201805184825260208301602085012081835280955050505050506000915054906101000a900473ffffffffffffffffffffffffffffffffffffffff1681565b828054610b9590611486565b90600052602060002090601f016020900481019282610bb75760008555610bfe565b82601f10610bd057805160ff1916838001178555610bfe565b82800160010185558215610bfe579182015b82811115610bfd578251825591602001919060010190610be2565b5b509050610c0b9190610c7a565b5090565b6040518060e00160405280600073ffffffffffffffffffffffffffffffffffffffff168152602001600073ffffffffffffffffffffffffffffffffffffffff168152602001600081526020016060815260200160008152602001600015158152602001600081525090565b5b80821115610c93576000816000905550600101610c7b565b5090565b6000610caa610ca5846112f9565b6112d4565b905082815260208101848484011115610cc257600080fd5b610ccd848285611444565b509392505050565b600081359050610ce481611671565b92915050565b600081519050610cf981611688565b92915050565b600082601f830112610d1057600080fd5b8135610d20848260208601610c97565b91505092915050565b600081359050610d388161169f565b92915050565b600081519050610d4d8161169f565b92915050565b600081359050610d62816116b6565b92915050565b600081519050610d77816116b6565b92915050565b600060208284031215610d8f57600080fd5b6000610d9d84828501610cea565b91505092915050565b600060208284031215610db857600080fd5b600082013567ffffffffffffffff811115610dd257600080fd5b610dde84828501610cff565b91505092915050565b600080600060608486031215610dfc57600080fd5b600084013567ffffffffffffffff811115610e1657600080fd5b610e2286828701610cff565b9350506020610e3386828701610d29565b9250506040610e4486828701610cd5565b9150509250925092565b600060208284031215610e6057600080fd5b6000610e6e84828501610d29565b91505092915050565b600060208284031215610e8957600080fd5b6000610e9784828501610d3e565b91505092915050565b600060208284031215610eb257600080fd5b6000610ec084828501610d53565b91505092915050565b600060208284031215610edb57600080fd5b6000610ee984828501610d68565b91505092915050565b610efb816113b8565b82525050565b610f0a816113b8565b82525050565b610f19816113ca565b82525050565b610f28816113ca565b82525050565b610f3781611420565b82525050565b610f46816113d6565b82525050565b610f55816113d6565b82525050565b6000610f668261132a565b610f708185611335565b9350610f80818560208601611453565b610f89816115bf565b840191505092915050565b6000610f9f8261132a565b610fa98185611346565b9350610fb9818560208601611453565b610fc2816115bf565b840191505092915050565b6000610fd88261132a565b610fe28185611357565b9350610ff2818560208601611453565b80840191505092915050565b600061100b601983611346565b9150611016826115d0565b602082019050919050565b600061102e602283611346565b9150611039826115f9565b604082019050919050565b6000611051601b83611346565b915061105c82611648565b602082019050919050565b600060e08301600083015161107f6000860182610ef2565b5060208301516110926020860182610ef2565b5060408301516110a56040860182611103565b50606083015184820360608601526110bd8282610f5b565b91505060808301516110d26080860182611103565b5060a08301516110e560a0860182610f10565b5060c08301516110f860c0860182610f3d565b508091505092915050565b61110c81611400565b82525050565b61111b81611400565b82525050565b61112a8161140a565b82525050565b600061113c8284610fcd565b915081905092915050565b600060208201905061115c6000830184610f01565b92915050565b600060e082019050611177600083018a610f01565b6111846020830189610f01565b6111916040830188611112565b81810360608301526111a38187610f94565b90506111b26080830186611112565b6111bf60a0830185610f1f565b6111cc60c0830184610f4c565b98975050505050505050565b60006040820190506111ed6000830185610f01565b6111fa6020830184611121565b9392505050565b60006020820190506112166000830184610f2e565b92915050565b6000602082019050818103600083015261123581610ffe565b9050919050565b6000602082019050818103600083015261125581611021565b9050919050565b6000602082019050818103600083015261127581611044565b9050919050565b600060208201905081810360008301526112968184611067565b905092915050565b60006020820190506112b36000830184611112565b92915050565b60006020820190506112ce6000830184611121565b92915050565b60006112de6112ef565b90506112ea82826114b8565b919050565b6000604051905090565b600067ffffffffffffffff82111561131457611313611590565b5b61131d826115bf565b9050602081019050919050565b600081519050919050565b600082825260208201905092915050565b600082825260208201905092915050565b600081905092915050565b600061136d82611400565b915061137883611400565b9250827fffffffffffffffffffffffffffffffffffffffffffffffffffffffffffffffff038211156113ad576113ac611532565b5b828201905092915050565b60006113c3826113e0565b9050919050565b60008115159050919050565b6000819050919050565b600073ffffffffffffffffffffffffffffffffffffffff82169050919050565b6000819050919050565b600069ffffffffffffffffffff82169050919050565b600061142b82611432565b9050919050565b600061143d826113e0565b9050919050565b82818337600083830152505050565b60005b83811015611471578082015181840152602081019050611456565b83811115611480576000848401525b50505050565b6000600282049050600182168061149e57607f821691505b602082108114156114b2576114b1611561565b5b50919050565b6114c1826115bf565b810181811067ffffffffffffffff821117156114e0576114df611590565b5b80604052505050565b60006114f482611400565b91507fffffffffffffffffffffffffffffffffffffffffffffffffffffffffffffffff82141561152757611526611532565b5b600182019050919050565b7f4e487b7100000000000000000000000000000000000000000000000000000000600052601160045260246000fd5b7f4e487b7100000000000000000000000000000000000000000000000000000000600052602260045260246000fd5b7f4e487b7100000000000000000000000000000000000000000000000000000000600052604160045260246000fd5b6000601f19601f8301169050919050565b7f5468697320626174746c65206469646e27742073746172742e00000000000000600082015250565b7f596f75206861766520746f20626574206f6e20706f7369746976652076616c7560008201527f6521000000000000000000000000000000000000000000000000000000000000602082015250565b7f426174746c65206e756d6265722069736e27742065786973742e0a0000000000600082015250565b61167a816113ca565b811461168557600080fd5b50565b611691816113d6565b811461169c57600080fd5b50565b6116a881611400565b81146116b357600080fd5b50565b6116bf8161140a565b81146116ca57600080fd5b5056fea264697066735822122001553063483de506bae5ac36f1df7bd28b1ef1bde43a608dd66eb56e198fc39e64736f6c63430008030033608060405234801561001057600080fd5b50610611806100206000396000f3fe608060405234801561001057600080fd5b50600436106100415760003560e01c806344a11f65146100465780636c7e874c146100765780638ff7b235146100a6575b600080fd5b610060600480360381019061005b919061034c565b6100d6565b60405161006d9190610478565b60405180910390f35b610090600480360381019061008b9190610375565b610166565b60405161009d91906104b3565b60405180910390f35b6100c060048036038101906100bb919061034c565b610253565b6040516100cd91906104ce565b60405180910390f35b6000808273ffffffffffffffffffffffffffffffffffffffff1663feaf968c6040518163ffffffff1660e01b815260040160a06040518083038186803b15801561011f57600080fd5b505afa158015610133573d6000803e3d6000fd5b505050506040513d601f19601f8201168201806040525081019061015791906103b1565b50505091505080915050919050565b6000806000806000808773ffffffffffffffffffffffffffffffffffffffff16639a6fc8f5886040518263ffffffff1660e01b81526004016101a891906104ce565b60a06040518083038186803b1580156101c057600080fd5b505afa1580156101d4573d6000803e3d6000fd5b505050506040513d601f19601f820116820180604052508101906101f891906103b1565b9450945094509450945060008211610245576040517f08c379a000000000000000000000000000000000000000000000000000000000815260040161023c90610493565b60405180910390fd5b819550505050505092915050565b6000808273ffffffffffffffffffffffffffffffffffffffff1663feaf968c6040518163ffffffff1660e01b815260040160a06040518083038186803b15801561029c57600080fd5b505afa1580156102b0573d6000803e3d6000fd5b505050506040513d601f19601f820116820180604052508101906102d491906103b1565b50505050905080915050919050565b6000813590506102f28161057f565b92915050565b60008151905061030781610596565b92915050565b60008151905061031c816105ad565b92915050565b600081359050610331816105c4565b92915050565b600081519050610346816105c4565b92915050565b60006020828403121561035e57600080fd5b600061036c848285016102e3565b91505092915050565b6000806040838503121561038857600080fd5b6000610396858286016102e3565b92505060206103a785828601610322565b9150509250929050565b600080600080600060a086880312156103c957600080fd5b60006103d788828901610337565b95505060206103e8888289016102f8565b94505060406103f98882890161030d565b935050606061040a8882890161030d565b925050608061041b88828901610337565b9150509295509295909350565b6104318161050c565b82525050565b60006104446012836104e9565b915061044f82610556565b602082019050919050565b61046381610536565b82525050565b61047281610540565b82525050565b600060208201905061048d6000830184610428565b92915050565b600060208201905081810360008301526104ac81610437565b9050919050565b60006020820190506104c8600083018461045a565b92915050565b60006020820190506104e36000830184610469565b92915050565b600082825260208201905092915050565b600061050582610516565b9050919050565b6000819050919050565b600073ffffffffffffffffffffffffffffffffffffffff82169050919050565b6000819050919050565b600069ffffffffffffffffffff82169050919050565b7f526f756e64206e6f7420636f6d706c6574650000000000000000000000000000600082015250565b610588816104fa565b811461059357600080fd5b50565b61059f8161050c565b81146105aa57600080fd5b50565b6105b681610536565b81146105c157600080fd5b50565b6105cd81610540565b81146105d857600080fd5b5056fea2646970667358221220ca4670123900f140bdc6499d9974b418238f16766f0e7cbc390af4b276679f1e64736f6c63430008030033",
  "immutableReferences": {},
  "source": "// SPDX-License-Identifier: MIT\r\npragma solidity ^0.8.3;\r\nimport \"./Aggre.sol\";\r\n\r\ncontract BinaryOption{\r\n\r\n    uint256  public battleId; // unique id for each battle\r\n    mapping(uint256 => Battle) public battleInfo; // map of the existing battles\r\n    address public owner; // the creator of the contract (we)\r\n    uint  public tempVal;\r\n    int feed;\r\n    mapping(string=>address) public feedAddress;\r\n    Aggre public age;\r\n\r\n    event MyEvent(\r\n    uint256 indexed id,\r\n    uint256 indexed amount,\r\n    int win\r\n    );\r\n\r\n    event AddEvent(\r\n    uint256 indexed id,\r\n    address address_field\r\n    );\r\n\r\n    struct Battle {\r\n        address creator;\r\n        address opponent;\r\n        uint256 amountBet;\r\n        string betType;\r\n        uint betDate;\r\n        bool isUp;\r\n        int currVal;\r\n    }\r\n\r\n    constructor()  {\r\n        age=new Aggre();\r\n        //owner = msg.sender;\r\n\r\n        // those addresses (of rinkbey test network) can be found at: https://docs.chain.link/docs/ethereum-addresses/\r\n        feedAddress[\"EthVsUsd\"]=0x8A753747A1Fa494EC906cE90E9f37563A8AF630e;\r\n        //feedAddress[\"BtcVsUsd\"]=0x6135b13325bfC4B00278B4abC5e20bbce2D6580e;\r\n        //feedAddress[\"EurVsUsd\"]=0x0c15Ab9A0DB086e062194c273CC79f41597Bbf13;\r\n    }\r\n\r\n    // a creator create a new battle\r\n    function addBattle(string memory betType,uint betDate,bool direction) public payable {\r\n        require(msg.value>0, \"You have to bet on positive value!\");\r\n        battleInfo[battleId]=Battle(msg.sender,msg.sender,msg.value,betType,block.timestamp+betDate,direction,age.getThePrice(feedAddress[betType]));\r\n        emit AddEvent(battleId,msg.sender);\r\n        battleId++;\r\n    }\r\n\r\n    /*function getAmount(uint256 battle_id) public view returns (uint){\r\n            return battleInfo[battle_id].amountBet;\r\n        }*/\r\n\r\n        function getRound() public view returns (uint80){\r\n        return age.getTheRoundId(0x8A753747A1Fa494EC906cE90E9f37563A8AF630e);\r\n        }\r\n\r\n        function getByDate(uint80 rnd) public view returns (uint){\r\n        return age.getHistoricalPrice(0x8A753747A1Fa494EC906cE90E9f37563A8AF630e,rnd);\r\n        }\r\n\r\n    function getBattleInfo(uint256 battle_id) public payable returns(Battle memory) {\r\n        Battle storage bate=battleInfo[battle_id];\r\n        require(bate.amountBet>0, \"Battle number isn't exist.\\n\");\r\n        require(battleInfo[battle_id].creator!=battleInfo[battle_id].opponent, \"This battle didn't start.\");\r\n        return battleInfo[battle_id];\r\n    }\r\n\r\n    /*\r\n\r\n    function setPrice() public {\r\n        feed= age.getThePrice(0x9326BFA02ADD2366b30bacB125260Af641031331);\r\n    }\r\n    function getPrice() public view returns (int){\r\n        return feed;\r\n    }\r\n\r\n    function setPrice() public {\r\n        roundId= age.getTheRoundId(0x9326BFA02ADD2366b30bacB125260Af641031331);\r\n    }\r\n    function getPrice() public view returns (uint80){\r\n        return roundId;\r\n    }\r\n\r\n    function getPriceHistorical(uint80 roundId) public view returns (int){\r\n\r\n        return age.getHistoricalPrice(roundId);\r\n    }\r\n\r\n    */\r\n    /*function getId() public view returns (uint256){\r\n        return battleId;\r\n    }*/\r\n\r\n    /*function getEvent() public {\r\n        emit MyEvent(battleId,battleId);\r\n    }*/\r\n\r\n    // an opponent is signed to battle number: battleid\r\n    /*function acceptBattle(uint256 battle_id) public payable{\r\n\r\n        Battle storage bate=battleInfo[battle_id];\r\n        require(bate.amountBet>0, \"Battle number isn't exist.\\n\");\r\n        //require(bate.creator!=msg.sender, \"Impossible to fight against yourself.\"); // in comment until we test with two different players\r\n        require(bate.creator==bate.opponent, \"This battle is closed, opponent already exist.\");\r\n        require(msg.value==bate.amountBet, \"Betting value isn't as specified for this battle.\");\r\n        bate.opponent=msg.sender;\r\n    }*/\r\n\r\n    // a creator cancel his battle\r\n    /*function cancelBattle(uint256 battle_id) public payable{\r\n        Battle memory bate=battleInfo[battle_id];\r\n        require(bate.amountBet>0, \"Battle number isn't exist.\");\r\n        require(bate.creator==msg.sender, \"Only the creator may cancel his own battle.\");\r\n\r\n        require(bate.creator==bate.opponent, \"There is already opponent, this battle can't be canceled.\");\r\n        payable(bate.creator).transfer(bate.amountBet); // return the amount invested\r\n        delete battleInfo[battle_id]; // battle is canceled\r\n    }*/\r\n\r\n\r\n    /*function getcurrVal(uint256 battle_id) public view returns (uint256){\r\n        require(msg.sender==battleInfo[battle_id].creator||msg.sender==battleInfo[battle_id].opponent, \"You are not part of this battle.\");\r\n        return battleInfo[battle_id].amountBet;\r\n    }*/\r\n\r\n    // the winner may draw his money\r\n    /*function withdraw(uint256 battle_id) public {\r\n        int winner; // 0=lose 1=win 2=draw\r\n        int oldPrice;\r\n        int newPrice;\r\n        Battle memory bate=battleInfo[battle_id];\r\n        //require(battleInfo[battle_id].creator!=battleInfo[battle_id].opponent, \"This battle didn't start.\"); // in case the creator try to withdraw before having opponent. He may cancel battle if he wants.\r\n        require((bate.creator==msg.sender||bate.opponent==msg.sender), \"You are not part of this battle.\"); // can be deleted if comes with getcurrval\r\n        require(block.timestamp>=bate.betDate, \"Too early to check who is the winner.\");\r\n        oldPrice=bate.currVal;\r\n        newPrice=age.getThePrice(feedAddress[bate.betType]);\r\n        // deliver the money to the winner\r\n        if(oldPrice<newPrice){\r\n\r\n            if(bate.isUp){\r\n                winner=1;\r\n                payable(bate.creator).transfer(2*bate.amountBet); // multiply by 2 since we deliver the money of both the creator and his opponent\r\n            }\r\n            else{\r\n                winner=0;\r\n                payable(bate.opponent).transfer(2*bate.amountBet);\r\n            }\r\n\r\n        }\r\n        else if(oldPrice>newPrice){\r\n\r\n            if(bate.isUp){\r\n                winner=0;\r\n                payable(bate.opponent).transfer(2*bate.amountBet);\r\n            }\r\n            else{\r\n                winner=1;\r\n                payable(bate.creator).transfer(2*bate.amountBet);\r\n            }\r\n        }\r\n        // if nothing has changed, the creator lose his money\r\n        else {\r\n            winner=2;\r\n            payable(bate.opponent).transfer(bate.amountBet);\r\n            payable(bate.creator).transfer(bate.amountBet);\r\n        }\r\n        // sign the event\r\n        emit MyEvent(battle_id,bate.amountBet*2,winner);\r\n        //delete battleInfo[battle_id]; // battle is finished\r\n    }*/\r\n\r\n    //just for testing\r\n    /*function removeBattle(uint256 battle_id) public {\r\n        require(battleInfo[battle_id].amountBet>0, \"Battle number isn't exist.\\n\");\r\n        //delete battleInfo[battle_id]; // battle is canceled\r\n    }*/\r\n\r\n\r\n\r\n}",
  "sourcePath": "/mnt/c/users/admin/ideaprojects/tau_smart_contract/src/solidity/contracts/BinaryOption.sol",
  "compiler": {
    "name": "solc",
    "version": "0.8.3+commit.8d00100c.Emscripten.clang"
  },
  "schemaVersion": "3.4.1",
  "updatedAt": "2021-07-20T18:26:56.127Z",
  "networkType": "ethereum",
  "devdoc": {
    "kind": "dev",
    "methods": {},
    "version": 1
  },
  "userdoc": {
    "kind": "user",
    "methods": {},
    "version": 1
  }
}