{
  "contractName": "BinaryOption",
  "abi": [
    {
      "inputs": [],
      "stateMutability": "nonpayable",
      "type": "constructor"
    },
    {
      "anonymous": false,
      "inputs": [
        {
          "indexed": true,
          "internalType": "uint256",
          "name": "id",
          "type": "uint256"
        },
        {
          "indexed": false,
          "internalType": "address",
          "name": "address_field",
          "type": "address"
        }
      ],
      "name": "AddEvent",
      "type": "event"
    },
    {
      "inputs": [
        {
          "internalType": "address",
          "name": "",
          "type": "address"
        },
        {
          "internalType": "uint256",
          "name": "",
          "type": "uint256"
        }
      ],
      "name": "addressToBattle",
      "outputs": [
        {
          "internalType": "uint256",
          "name": "",
          "type": "uint256"
        }
      ],
      "stateMutability": "view",
      "type": "function",
      "constant": true
    },
    {
      "inputs": [],
      "name": "battleId",
      "outputs": [
        {
          "internalType": "uint256",
          "name": "",
          "type": "uint256"
        }
      ],
      "stateMutability": "view",
      "type": "function",
      "constant": true
    },
    {
      "inputs": [
        {
          "internalType": "uint256",
          "name": "",
          "type": "uint256"
        }
      ],
      "name": "battleInfo",
      "outputs": [
        {
          "internalType": "address",
          "name": "creator",
          "type": "address"
        },
        {
          "internalType": "address",
          "name": "opponent",
          "type": "address"
        },
        {
          "internalType": "uint256",
          "name": "amountBet",
          "type": "uint256"
        },
        {
          "internalType": "string",
          "name": "betType",
          "type": "string"
        },
        {
          "internalType": "uint256",
          "name": "betDate",
          "type": "uint256"
        },
        {
          "internalType": "bool",
          "name": "isUp",
          "type": "bool"
        },
        {
          "internalType": "int256",
          "name": "currVal",
          "type": "int256"
        },
        {
          "internalType": "enum BinaryOption.Status",
          "name": "whoWin",
          "type": "uint8"
        }
      ],
      "stateMutability": "view",
      "type": "function",
      "constant": true
    },
    {
      "inputs": [
        {
          "internalType": "string",
          "name": "",
          "type": "string"
        }
      ],
      "name": "feedAddress",
      "outputs": [
        {
          "internalType": "address",
          "name": "",
          "type": "address"
        }
      ],
      "stateMutability": "view",
      "type": "function",
      "constant": true
    },
    {
      "inputs": [],
      "name": "priceFeed",
      "outputs": [
        {
          "internalType": "contract PriceFeed",
          "name": "",
          "type": "address"
        }
      ],
      "stateMutability": "view",
      "type": "function",
      "constant": true
    },
    {
      "inputs": [
        {
          "internalType": "uint256[]",
          "name": "battles",
          "type": "uint256[]"
        }
      ],
      "name": "hasFreeEntry",
      "outputs": [
        {
          "internalType": "bool",
          "name": "",
          "type": "bool"
        }
      ],
      "stateMutability": "view",
      "type": "function",
      "constant": true
    },
    {
      "inputs": [
        {
          "internalType": "address",
          "name": "target",
          "type": "address"
        },
        {
          "internalType": "uint256",
          "name": "battle_id",
          "type": "uint256"
        }
      ],
      "name": "initArray",
      "outputs": [],
      "stateMutability": "nonpayable",
      "type": "function"
    },
    {
      "inputs": [
        {
          "internalType": "string",
          "name": "betType",
          "type": "string"
        },
        {
          "internalType": "uint256",
          "name": "betDate",
          "type": "uint256"
        },
        {
          "internalType": "bool",
          "name": "direction",
          "type": "bool"
        }
      ],
      "name": "addBattle",
      "outputs": [],
      "stateMutability": "payable",
      "type": "function",
      "payable": true
    },
    {
      "inputs": [
        {
          "internalType": "address",
          "name": "a",
          "type": "address"
        }
      ],
      "name": "getaddressToBattle",
      "outputs": [
        {
          "internalType": "uint256[]",
          "name": "",
          "type": "uint256[]"
        }
      ],
      "stateMutability": "view",
      "type": "function",
      "constant": true
    },
    {
      "inputs": [
        {
          "internalType": "uint256",
          "name": "battle_id",
          "type": "uint256"
        }
      ],
      "name": "getBattleInfo",
      "outputs": [
        {
          "components": [
            {
              "internalType": "address",
              "name": "creator",
              "type": "address"
            },
            {
              "internalType": "address",
              "name": "opponent",
              "type": "address"
            },
            {
              "internalType": "uint256",
              "name": "amountBet",
              "type": "uint256"
            },
            {
              "internalType": "string",
              "name": "betType",
              "type": "string"
            },
            {
              "internalType": "uint256",
              "name": "betDate",
              "type": "uint256"
            },
            {
              "internalType": "bool",
              "name": "isUp",
              "type": "bool"
            },
            {
              "internalType": "int256",
              "name": "currVal",
              "type": "int256"
            },
            {
              "internalType": "enum BinaryOption.Status",
              "name": "whoWin",
              "type": "uint8"
            }
          ],
          "internalType": "struct BinaryOption.Battle",
          "name": "",
          "type": "tuple"
        }
      ],
      "stateMutability": "view",
      "type": "function",
      "constant": true
    },
    {
      "inputs": [],
      "name": "getAll",
      "outputs": [
        {
          "components": [
            {
              "internalType": "address",
              "name": "creator",
              "type": "address"
            },
            {
              "internalType": "address",
              "name": "opponent",
              "type": "address"
            },
            {
              "internalType": "uint256",
              "name": "amountBet",
              "type": "uint256"
            },
            {
              "internalType": "string",
              "name": "betType",
              "type": "string"
            },
            {
              "internalType": "uint256",
              "name": "betDate",
              "type": "uint256"
            },
            {
              "internalType": "bool",
              "name": "isUp",
              "type": "bool"
            },
            {
              "internalType": "int256",
              "name": "currVal",
              "type": "int256"
            },
            {
              "internalType": "enum BinaryOption.Status",
              "name": "whoWin",
              "type": "uint8"
            }
          ],
          "internalType": "struct BinaryOption.Battle[]",
          "name": "",
          "type": "tuple[]"
        }
      ],
      "stateMutability": "view",
      "type": "function",
      "constant": true
    },
    {
      "inputs": [
        {
          "internalType": "uint256",
          "name": "battle_id",
          "type": "uint256"
        }
      ],
      "name": "acceptBattle",
      "outputs": [],
      "stateMutability": "payable",
      "type": "function",
      "payable": true
    },
    {
      "inputs": [
        {
          "internalType": "uint256",
          "name": "battle_id",
          "type": "uint256"
        }
      ],
      "name": "cancelBattle",
      "outputs": [],
      "stateMutability": "nonpayable",
      "type": "function"
    },
    {
      "inputs": [
        {
          "internalType": "uint256",
          "name": "battle_id",
          "type": "uint256"
        }
      ],
      "name": "withdraw",
      "outputs": [],
      "stateMutability": "nonpayable",
      "type": "function"
    }
  ],
  "bytecode": "0x6080604052600a600555600a6006556103e86007553480156200002157600080fd5b5060405162000030906200049e565b604051809103906000f0801580156200004d573d6000803e3d6000fd5b50600460006101000a81548173ffffffffffffffffffffffffffffffffffffffff021916908373ffffffffffffffffffffffffffffffffffffffff160217905550600080156200010e57739326bfa02add2366b30bacb125260af6410313316003604051620000bc9062000622565b908152602001604051809103902060006101000a81548173ffffffffffffffffffffffffffffffffffffffff021916908373ffffffffffffffffffffffffffffffffffffffff16021790555062000497565b738a753747a1fa494ec906ce90e9f37563a8af630e600360405162000133906200067e565b908152602001604051809103902060006101000a81548173ffffffffffffffffffffffffffffffffffffffff021916908373ffffffffffffffffffffffffffffffffffffffff16021790555073ece365b379e1dd183b20fc5f022230c044d514046003604051620001a49062000695565b908152602001604051809103902060006101000a81548173ffffffffffffffffffffffffffffffffffffffff021916908373ffffffffffffffffffffffffffffffffffffffff1602179055507378f9e60608bf48a1155b4b2a5e31f32318a1d85f600360405162000215906200060b565b908152602001604051809103902060006101000a81548173ffffffffffffffffffffffffffffffffffffffff021916908373ffffffffffffffffffffffffffffffffffffffff16021790555073dca36f27cbc4e38ae16c4e9f99d39b42337f6dcf6003604051620002869062000667565b908152602001604051809103902060006101000a81548173ffffffffffffffffffffffffffffffffffffffff021916908373ffffffffffffffffffffffffffffffffffffffff160217905550732ba49aaa16e6afd2a993473cfb70fa8559b523cf6003604051620002f79062000650565b908152602001604051809103902060006101000a81548173ffffffffffffffffffffffffffffffffffffffff021916908373ffffffffffffffffffffffffffffffffffffffff1602179055507374825dbc8bf76cc4e9494d0ecb210f676efa001d60036040516200036890620006c3565b908152602001604051809103902060006101000a81548173ffffffffffffffffffffffffffffffffffffffff021916908373ffffffffffffffffffffffffffffffffffffffff160217905550730630521ac362bc7a19a4ee44b57ce72ea34ad01c6003604051620003d990620006ac565b908152602001604051809103902060006101000a81548173ffffffffffffffffffffffffffffffffffffffff021916908373ffffffffffffffffffffffffffffffffffffffff16021790555073e96c4407597cd507002df88ff6e0008ab41266ee60036040516200044a9062000639565b908152602001604051809103902060006101000a81548173ffffffffffffffffffffffffffffffffffffffff021916908373ffffffffffffffffffffffffffffffffffffffff1602179055505b5062000856565b61031c806200446a83390190565b6000620004bb600a83620006da565b9150620004c882620006e5565b600a82019050919050565b6000620004e2600883620006da565b9150620004ef826200070e565b600882019050919050565b600062000509600a83620006da565b9150620005168262000737565b600a82019050919050565b600062000530600a83620006da565b91506200053d8262000760565b600a82019050919050565b600062000557600b83620006da565b9150620005648262000789565b600b82019050919050565b60006200057e600a83620006da565b91506200058b82620007b2565b600a82019050919050565b6000620005a5600a83620006da565b9150620005b282620007db565b600a82019050919050565b6000620005cc600c83620006da565b9150620005d98262000804565b600c82019050919050565b6000620005f3600a83620006da565b915062000600826200082d565b600a82019050919050565b60006200061882620004ac565b9150819050919050565b60006200062f82620004d3565b9150819050919050565b60006200064682620004fa565b9150819050919050565b60006200065d8262000521565b9150819050919050565b6000620006748262000548565b9150819050919050565b60006200068b826200056f565b9150819050919050565b6000620006a28262000596565b9150819050919050565b6000620006b982620005bd565b9150819050919050565b6000620006d082620005e4565b9150819050919050565b600081905092915050565b7f6575725f76735f75736400000000000000000000000000000000000000000000600082015250565b7f4574685673557364000000000000000000000000000000000000000000000000600082015250565b7f736e785f76735f75736400000000000000000000000000000000000000000000600082015250565b7f6461695f76735f75736400000000000000000000000000000000000000000000600082015250565b7f757364635f76735f657468000000000000000000000000000000000000000000600082015250565b7f6574685f76735f75736400000000000000000000000000000000000000000000600082015250565b7f6274635f76735f75736400000000000000000000000000000000000000000000600082015250565b7f73646566695f76735f7573640000000000000000000000000000000000000000600082015250565b7f6461695f76735f65746800000000000000000000000000000000000000000000600082015250565b613c0480620008666000396000f3fe6080604052600436106100dd5760003560e01c8063b7f4a8971161007f578063d3f5557b11610059578063d3f5557b14610290578063db71dcdc146102cd578063e4bb7a1e14610311578063e84b5fda1461034e576100dd565b8063b7f4a897146101fa578063bfc8b8c614610237578063c0a6e9d714610253576100dd565b806353ed5143116100bb57806353ed51431461015f5780635d33c7951461018a578063741bef1a146101b357806381ec30f2146101de576100dd565b806301a1b778146100e25780632e1a7d4d1461010d5780634c4c447e14610136575b600080fd5b3480156100ee57600080fd5b506100f761038b565b604051610104919061336f565b60405180910390f35b34801561011957600080fd5b50610134600480360381019061012f9190612a4f565b610391565b005b34801561014257600080fd5b5061015d60048036038101906101589190612a4f565b610dd4565b005b34801561016b57600080fd5b506101746112fa565b6040516101819190613133565b60405180910390f35b34801561019657600080fd5b506101b160048036038101906101ac9190612901565b61164a565b005b3480156101bf57600080fd5b506101c86118bf565b6040516101d59190613192565b60405180910390f35b6101f860048036038101906101f39190612a4f565b6118e5565b005b34801561020657600080fd5b50610221600480360381019061021c919061293d565b611bf8565b60405161022e9190613177565b60405180910390f35b610251600480360381019061024c91906129e8565b611c8a565b005b34801561025f57600080fd5b5061027a60048036038101906102759190612a4f565b6120e5565b604051610287919061334d565b60405180910390f35b34801561029c57600080fd5b506102b760048036038101906102b29190612901565b612370565b6040516102c4919061336f565b60405180910390f35b3480156102d957600080fd5b506102f460048036038101906102ef9190612a4f565b6123a1565b6040516103089897969594939291906130ae565b60405180910390f35b34801561031d57600080fd5b50610338600480360381019061033391906129a7565b6124cb565b6040516103459190613093565b60405180910390f35b34801561035a57600080fd5b50610375600480360381019061037091906128d8565b612514565b6040516103829190613155565b60405180910390f35b60005481565b60008060008060016000868152602001908152602001600020905060006103e882600401546103c09190613521565b90508160010160009054906101000a900473ffffffffffffffffffffffffffffffffffffffff1673ffffffffffffffffffffffffffffffffffffffff168260000160009054906101000a900473ffffffffffffffffffffffffffffffffffffffff1673ffffffffffffffffffffffffffffffffffffffff161415610479576040517f08c379a0000000000000000000000000000000000000000000000000000000008152600401610470906132ad565b60405180910390fd5b3373ffffffffffffffffffffffffffffffffffffffff168260000160009054906101000a900473ffffffffffffffffffffffffffffffffffffffff1673ffffffffffffffffffffffffffffffffffffffff16148061052657503373ffffffffffffffffffffffffffffffffffffffff168260010160009054906101000a900473ffffffffffffffffffffffffffffffffffffffff1673ffffffffffffffffffffffffffffffffffffffff16145b610565576040517f08c379a000000000000000000000000000000000000000000000000000000000815260040161055c9061320d565b60405180910390fd5b804210156105a8576040517f08c379a000000000000000000000000000000000000000000000000000000000815260040161059f906131cd565b60405180910390fd5b6003808111156105e1577f4e487b7100000000000000000000000000000000000000000000000000000000600052602160045260246000fd5b8260070160009054906101000a900460ff16600381111561062b577f4e487b7100000000000000000000000000000000000000000000000000000000600052602160045260246000fd5b1461066b576040517f08c379a00000000000000000000000000000000000000000000000000000000081526004016106629061322d565b60405180910390fd5b81600601549350600460009054906101000a900473ffffffffffffffffffffffffffffffffffffffff1673ffffffffffffffffffffffffffffffffffffffff166344a11f656003846003016040516106c3919061307c565b908152602001604051809103902060009054906101000a900473ffffffffffffffffffffffffffffffffffffffff166040518263ffffffff1660e01b815260040161070e9190613093565b60206040518083038186803b15801561072657600080fd5b505afa15801561073a573d6000803e3d6000fd5b505050506040513d601f19601f8201168201806040525081019061075e919061297e565b925082841215610888578160050160009054906101000a900460ff161561080357600194508160000160009054906101000a900473ffffffffffffffffffffffffffffffffffffffff1673ffffffffffffffffffffffffffffffffffffffff166108fc836002015460026107d29190613552565b9081150290604051600060405180830381858888f193505050501580156107fd573d6000803e3d6000fd5b50610883565b600094508160010160009054906101000a900473ffffffffffffffffffffffffffffffffffffffff1673ffffffffffffffffffffffffffffffffffffffff166108fc836002015460026108569190613552565b9081150290604051600060405180830381858888f19350505050158015610881573d6000803e3d6000fd5b505b610a94565b828413156109b0578160050160009054906101000a900460ff161561092b57600094508160010160009054906101000a900473ffffffffffffffffffffffffffffffffffffffff1673ffffffffffffffffffffffffffffffffffffffff166108fc836002015460026108fa9190613552565b9081150290604051600060405180830381858888f19350505050158015610925573d6000803e3d6000fd5b506109ab565b600194508160000160009054906101000a900473ffffffffffffffffffffffffffffffffffffffff1673ffffffffffffffffffffffffffffffffffffffff166108fc8360020154600261097e9190613552565b9081150290604051600060405180830381858888f193505050501580156109a9573d6000803e3d6000fd5b505b610a93565b600294508160010160009054906101000a900473ffffffffffffffffffffffffffffffffffffffff1673ffffffffffffffffffffffffffffffffffffffff166108fc83600201549081150290604051600060405180830381858888f19350505050158015610a22573d6000803e3d6000fd5b508160000160009054906101000a900473ffffffffffffffffffffffffffffffffffffffff1673ffffffffffffffffffffffffffffffffffffffff166108fc83600201549081150290604051600060405180830381858888f19350505050158015610a91573d6000803e3d6000fd5b505b5b848260070160006101000a81548160ff02191690836003811115610ae1577f4e487b7100000000000000000000000000000000000000000000000000000000600052602160045260246000fd5b021790555060006001600088815260200190815260200160002060000160009054906101000a900473ffffffffffffffffffffffffffffffffffffffff16905060006001600089815260200190815260200160002060010160009054906101000a900473ffffffffffffffffffffffffffffffffffffffff16905060005b600554811015610c925788600260008573ffffffffffffffffffffffffffffffffffffffff1673ffffffffffffffffffffffffffffffffffffffff1681526020019081526020016000208281548110610be1577f4e487b7100000000000000000000000000000000000000000000000000000000600052603260045260246000fd5b90600052602060002001541415610c7f57600754600260008573ffffffffffffffffffffffffffffffffffffffff1673ffffffffffffffffffffffffffffffffffffffff1681526020019081526020016000208281548110610c6c577f4e487b7100000000000000000000000000000000000000000000000000000000600052603260045260246000fd5b9060005260206000200181905550610c92565b8080610c8a90613720565b915050610b5f565b5060005b600554811015610dc95788600260008473ffffffffffffffffffffffffffffffffffffffff1673ffffffffffffffffffffffffffffffffffffffff1681526020019081526020016000208281548110610d18577f4e487b7100000000000000000000000000000000000000000000000000000000600052603260045260246000fd5b90600052602060002001541415610db657600754600260008473ffffffffffffffffffffffffffffffffffffffff1673ffffffffffffffffffffffffffffffffffffffff1681526020019081526020016000208281548110610da3577f4e487b7100000000000000000000000000000000000000000000000000000000600052603260045260246000fd5b9060005260206000200181905550610dc9565b8080610dc190613720565b915050610c96565b505050505050505050565b600060016000838152602001908152602001600020604051806101000160405290816000820160009054906101000a900473ffffffffffffffffffffffffffffffffffffffff1673ffffffffffffffffffffffffffffffffffffffff1673ffffffffffffffffffffffffffffffffffffffff1681526020016001820160009054906101000a900473ffffffffffffffffffffffffffffffffffffffff1673ffffffffffffffffffffffffffffffffffffffff1673ffffffffffffffffffffffffffffffffffffffff16815260200160028201548152602001600382018054610ebb906136bd565b80601f0160208091040260200160405190810160405280929190818152602001828054610ee7906136bd565b8015610f345780601f10610f0957610100808354040283529160200191610f34565b820191906000526020600020905b815481529060010190602001808311610f1757829003601f168201915b50505050508152602001600482015481526020016005820160009054906101000a900460ff16151515158152602001600682015481526020016007820160009054906101000a900460ff166003811115610fb7577f4e487b7100000000000000000000000000000000000000000000000000000000600052602160045260246000fd5b6003811115610fef577f4e487b7100000000000000000000000000000000000000000000000000000000600052602160045260246000fd5b815250509050600081604001511161103c576040517f08c379a00000000000000000000000000000000000000000000000000000000081526004016110339061326d565b60405180910390fd5b806020015173ffffffffffffffffffffffffffffffffffffffff16816000015173ffffffffffffffffffffffffffffffffffffffff16146110b2576040517f08c379a00000000000000000000000000000000000000000000000000000000081526004016110a9906132cd565b60405180910390fd5b806000015173ffffffffffffffffffffffffffffffffffffffff166108fc82604001519081150290604051600060405180830381858888f19350505050158015611100573d6000803e3d6000fd5b5060008160000151905060005b6005548110156112405783600260008473ffffffffffffffffffffffffffffffffffffffff1673ffffffffffffffffffffffffffffffffffffffff168152602001908152602001600020828154811061118f577f4e487b7100000000000000000000000000000000000000000000000000000000600052603260045260246000fd5b9060005260206000200154141561122d57600754600260008473ffffffffffffffffffffffffffffffffffffffff1673ffffffffffffffffffffffffffffffffffffffff168152602001908152602001600020828154811061121a577f4e487b7100000000000000000000000000000000000000000000000000000000600052603260045260246000fd5b9060005260206000200181905550611240565b808061123890613720565b91505061110d565b5060016000848152602001908152602001600020600080820160006101000a81549073ffffffffffffffffffffffffffffffffffffffff02191690556001820160006101000a81549073ffffffffffffffffffffffffffffffffffffffff021916905560028201600090556003820160006112bb91906125ab565b60048201600090556005820160006101000a81549060ff021916905560068201600090556007820160006101000a81549060ff02191690555050505050565b60606000805490506000600654821061131e576006548261131b91906135ac565b90505b6000818361132c91906135ac565b905060008167ffffffffffffffff811115611370577f4e487b7100000000000000000000000000000000000000000000000000000000600052604160045260246000fd5b6040519080825280602002602001820160405280156113a957816020015b6113966125eb565b81526020019060019003908161138e5790505b5090506000808490505b8581101561163e5760016000828152602001908152602001600020604051806101000160405290816000820160009054906101000a900473ffffffffffffffffffffffffffffffffffffffff1673ffffffffffffffffffffffffffffffffffffffff1673ffffffffffffffffffffffffffffffffffffffff1681526020016001820160009054906101000a900473ffffffffffffffffffffffffffffffffffffffff1673ffffffffffffffffffffffffffffffffffffffff1673ffffffffffffffffffffffffffffffffffffffff168152602001600282015481526020016003820180546114a0906136bd565b80601f01602080910402602001604051908101604052809291908181526020018280546114cc906136bd565b80156115195780601f106114ee57610100808354040283529160200191611519565b820191906000526020600020905b8154815290600101906020018083116114fc57829003601f168201915b50505050508152602001600482015481526020016005820160009054906101000a900460ff16151515158152602001600682015481526020016007820160009054906101000a900460ff16600381111561159c577f4e487b7100000000000000000000000000000000000000000000000000000000600052602160045260246000fd5b60038111156115d4577f4e487b7100000000000000000000000000000000000000000000000000000000600052602160045260246000fd5b81525050838381518110611611577f4e487b7100000000000000000000000000000000000000000000000000000000600052603260045260246000fd5b602002602001018190525060018261162991906134cb565b9150808061163690613720565b9150506113b3565b50819550505050505090565b6000600260008473ffffffffffffffffffffffffffffffffffffffff1673ffffffffffffffffffffffffffffffffffffffff168152602001908152602001600020805490501161178357604051806020016040528082815250600260008473ffffffffffffffffffffffffffffffffffffffff1673ffffffffffffffffffffffffffffffffffffffff1681526020019081526020016000209060016116f0929190612696565b506000600190505b60055481101561177d57600260008473ffffffffffffffffffffffffffffffffffffffff1673ffffffffffffffffffffffffffffffffffffffff1681526020019081526020016000206007549080600181540180825580915050600190039060005260206000200160009091909190915055808061177590613720565b9150506116f8565b506118bb565b60005b6005548110156118b957600754600260008573ffffffffffffffffffffffffffffffffffffffff1673ffffffffffffffffffffffffffffffffffffffff168152602001908152602001600020828154811061180a577f4e487b7100000000000000000000000000000000000000000000000000000000600052603260045260246000fd5b906000526020600020015414156118a65781600260008573ffffffffffffffffffffffffffffffffffffffff1673ffffffffffffffffffffffffffffffffffffffff1681526020019081526020016000208281548110611893577f4e487b7100000000000000000000000000000000000000000000000000000000600052603260045260246000fd5b90600052602060002001819055506118b9565b80806118b190613720565b915050611786565b505b5050565b600460009054906101000a900473ffffffffffffffffffffffffffffffffffffffff1681565b60006001600083815260200190815260200160002090506000816002015411611943576040517f08c379a000000000000000000000000000000000000000000000000000000000815260040161193a906131ad565b60405180910390fd5b3373ffffffffffffffffffffffffffffffffffffffff168160000160009054906101000a900473ffffffffffffffffffffffffffffffffffffffff1673ffffffffffffffffffffffffffffffffffffffff1614156119d6576040517f08c379a00000000000000000000000000000000000000000000000000000000081526004016119cd9061324d565b60405180910390fd5b8060010160009054906101000a900473ffffffffffffffffffffffffffffffffffffffff1673ffffffffffffffffffffffffffffffffffffffff168160000160009054906101000a900473ffffffffffffffffffffffffffffffffffffffff1673ffffffffffffffffffffffffffffffffffffffff1614611a8c576040517f08c379a0000000000000000000000000000000000000000000000000000000008152600401611a83906131ed565b60405180910390fd5b80600201543414611ad2576040517f08c379a0000000000000000000000000000000000000000000000000000000008152600401611ac99061332d565b60405180910390fd5b611b68600260003373ffffffffffffffffffffffffffffffffffffffff1673ffffffffffffffffffffffffffffffffffffffff168152602001908152602001600020805480602002602001604051908101604052809291908181526020018280548015611b5e57602002820191906000526020600020905b815481526020019060010190808311611b4a575b5050505050611bf8565b611ba7576040517f08c379a0000000000000000000000000000000000000000000000000000000008152600401611b9e9061328d565b60405180910390fd5b338160010160006101000a81548173ffffffffffffffffffffffffffffffffffffffff021916908373ffffffffffffffffffffffffffffffffffffffff160217905550611bf4338361164a565b5050565b600080825111611c0b5760019050611c85565b60005b600554811015611c7f57600754838281518110611c54577f4e487b7100000000000000000000000000000000000000000000000000000000600052603260045260246000fd5b60200260200101511415611c6c576001915050611c85565b8080611c7790613720565b915050611c0e565b50600090505b919050565b60008054905060003411611cd3576040517f08c379a0000000000000000000000000000000000000000000000000000000008152600401611cca906132ed565b60405180910390fd5b611d69600260003373ffffffffffffffffffffffffffffffffffffffff1673ffffffffffffffffffffffffffffffffffffffff168152602001908152602001600020805480602002602001604051908101604052809291908181526020018280548015611d5f57602002820191906000526020600020905b815481526020019060010190808311611d4b575b5050505050611bf8565b611da8576040517f08c379a0000000000000000000000000000000000000000000000000000000008152600401611d9f9061328d565b60405180910390fd5b6040518061010001604052803373ffffffffffffffffffffffffffffffffffffffff1681526020013373ffffffffffffffffffffffffffffffffffffffff1681526020013481526020018581526020018481526020018315158152602001600460009054906101000a900473ffffffffffffffffffffffffffffffffffffffff1673ffffffffffffffffffffffffffffffffffffffff166344a11f65600388604051611e549190613065565b908152602001604051809103902060009054906101000a900473ffffffffffffffffffffffffffffffffffffffff166040518263ffffffff1660e01b8152600401611e9f9190613093565b60206040518083038186803b158015611eb757600080fd5b505afa158015611ecb573d6000803e3d6000fd5b505050506040513d601f19601f82011682018060405250810190611eef919061297e565b8152602001600380811115611f2d577f4e487b7100000000000000000000000000000000000000000000000000000000600052602160045260246000fd5b815250600160008054815260200190815260200160002060008201518160000160006101000a81548173ffffffffffffffffffffffffffffffffffffffff021916908373ffffffffffffffffffffffffffffffffffffffff16021790555060208201518160010160006101000a81548173ffffffffffffffffffffffffffffffffffffffff021916908373ffffffffffffffffffffffffffffffffffffffff160217905550604082015181600201556060820151816003019080519060200190611ff89291906126e3565b506080820151816004015560a08201518160050160006101000a81548160ff02191690831515021790555060c0820151816006015560e08201518160070160006101000a81548160ff0219169083600381111561207e577f4e487b7100000000000000000000000000000000000000000000000000000000600052602160045260246000fd5b0217905550905050807fa85f9845510d83562eaa9e779b6973f58826879a69d5613807f0415e1ce692c4336040516120b69190613093565b60405180910390a26120c8338261164a565b6000808154809291906120da90613720565b919050555050505050565b6120ed6125eb565b6000600160008481526020019081526020016000209050600081600201541161214b576040517f08c379a00000000000000000000000000000000000000000000000000000000081526004016121429061330d565b60405180910390fd5b60016000848152602001908152602001600020604051806101000160405290816000820160009054906101000a900473ffffffffffffffffffffffffffffffffffffffff1673ffffffffffffffffffffffffffffffffffffffff1673ffffffffffffffffffffffffffffffffffffffff1681526020016001820160009054906101000a900473ffffffffffffffffffffffffffffffffffffffff1673ffffffffffffffffffffffffffffffffffffffff1673ffffffffffffffffffffffffffffffffffffffff16815260200160028201548152602001600382018054612230906136bd565b80601f016020809104026020016040519081016040528092919081815260200182805461225c906136bd565b80156122a95780601f1061227e576101008083540402835291602001916122a9565b820191906000526020600020905b81548152906001019060200180831161228c57829003601f168201915b50505050508152602001600482015481526020016005820160009054906101000a900460ff16151515158152602001600682015481526020016007820160009054906101000a900460ff16600381111561232c577f4e487b7100000000000000000000000000000000000000000000000000000000600052602160045260246000fd5b6003811115612364577f4e487b7100000000000000000000000000000000000000000000000000000000600052602160045260246000fd5b81525050915050919050565b6002602052816000526040600020818154811061238c57600080fd5b90600052602060002001600091509150505481565b60016020528060005260406000206000915090508060000160009054906101000a900473ffffffffffffffffffffffffffffffffffffffff16908060010160009054906101000a900473ffffffffffffffffffffffffffffffffffffffff1690806002015490806003018054612416906136bd565b80601f0160208091040260200160405190810160405280929190818152602001828054612442906136bd565b801561248f5780601f106124645761010080835404028352916020019161248f565b820191906000526020600020905b81548152906001019060200180831161247257829003601f168201915b5050505050908060040154908060050160009054906101000a900460ff16908060060154908060070160009054906101000a900460ff16905088565b6003818051602081018201805184825260208301602085012081835280955050505050506000915054906101000a900473ffffffffffffffffffffffffffffffffffffffff1681565b6060600260008373ffffffffffffffffffffffffffffffffffffffff1673ffffffffffffffffffffffffffffffffffffffff16815260200190815260200160002080548060200260200160405190810160405280929190818152602001828054801561259f57602002820191906000526020600020905b81548152602001906001019080831161258b575b50505050509050919050565b5080546125b7906136bd565b6000825580601f106125c957506125e8565b601f0160209004906000526020600020908101906125e79190612769565b5b50565b604051806101000160405280600073ffffffffffffffffffffffffffffffffffffffff168152602001600073ffffffffffffffffffffffffffffffffffffffff1681526020016000815260200160608152602001600081526020016000151581526020016000815260200160006003811115612690577f4e487b7100000000000000000000000000000000000000000000000000000000600052602160045260246000fd5b81525090565b8280548282559060005260206000209081019282156126d2579160200282015b828111156126d15782518255916020019190600101906126b6565b5b5090506126df9190612769565b5090565b8280546126ef906136bd565b90600052602060002090601f0160209004810192826127115760008555612758565b82601f1061272a57805160ff1916838001178555612758565b82800160010185558215612758579182015b8281111561275757825182559160200191906001019061273c565b5b5090506127659190612769565b5090565b5b8082111561278257600081600090555060010161276a565b5090565b6000612799612794846133af565b61338a565b905080838252602082019050828560208602820111156127b857600080fd5b60005b858110156127e857816127ce88826128c3565b8452602084019350602083019250506001810190506127bb565b5050509392505050565b6000612805612800846133db565b61338a565b90508281526020810184848401111561281d57600080fd5b61282884828561367b565b509392505050565b60008135905061283f81613b72565b92915050565b600082601f83011261285657600080fd5b8135612866848260208601612786565b91505092915050565b60008135905061287e81613b89565b92915050565b60008151905061289381613ba0565b92915050565b600082601f8301126128aa57600080fd5b81356128ba8482602086016127f2565b91505092915050565b6000813590506128d281613bb7565b92915050565b6000602082840312156128ea57600080fd5b60006128f884828501612830565b91505092915050565b6000806040838503121561291457600080fd5b600061292285828601612830565b9250506020612933858286016128c3565b9150509250929050565b60006020828403121561294f57600080fd5b600082013567ffffffffffffffff81111561296957600080fd5b61297584828501612845565b91505092915050565b60006020828403121561299057600080fd5b600061299e84828501612884565b91505092915050565b6000602082840312156129b957600080fd5b600082013567ffffffffffffffff8111156129d357600080fd5b6129df84828501612899565b91505092915050565b6000806000606084860312156129fd57600080fd5b600084013567ffffffffffffffff811115612a1757600080fd5b612a2386828701612899565b9350506020612a34868287016128c3565b9250506040612a458682870161286f565b9150509250925092565b600060208284031215612a6157600080fd5b6000612a6f848285016128c3565b91505092915050565b6000612a848383612ee7565b905092915050565b6000612a988383613047565b60208301905092915050565b612aad816135e0565b82525050565b612abc816135e0565b82525050565b6000612acd82613441565b612ad7818561347c565b935083602082028501612ae98561340c565b8060005b85811015612b255784840389528151612b068582612a78565b9450612b1183613462565b925060208a01995050600181019050612aed565b50829750879550505050505092915050565b6000612b428261344c565b612b4c818561348d565b9350612b578361341c565b8060005b83811015612b88578151612b6f8882612a8c565b9750612b7a8361346f565b925050600181019050612b5b565b5085935050505092915050565b612b9e816135f2565b82525050565b612bad816135f2565b82525050565b612bbc81613645565b82525050565b612bcb81613669565b82525050565b612bda81613669565b82525050565b612be981613611565b82525050565b612bf881613611565b82525050565b6000612c0982613457565b612c13818561349e565b9350612c2381856020860161368a565b612c2c81613854565b840191505092915050565b6000612c4282613457565b612c4c81856134af565b9350612c5c81856020860161368a565b612c6581613854565b840191505092915050565b6000612c7b82613457565b612c8581856134c0565b9350612c9581856020860161368a565b80840191505092915050565b60008154612cae816136bd565b612cb881866134c0565b94506001821660008114612cd35760018114612ce457612d17565b60ff19831686528186019350612d17565b612ced8561342c565b60005b83811015612d0f57815481890152600182019150602081019050612cf0565b838801955050505b50505092915050565b6000612d2d601b836134af565b9150612d3882613865565b602082019050919050565b6000612d506025836134af565b9150612d5b8261388e565b604082019050919050565b6000612d73602e836134af565b9150612d7e826138dd565b604082019050919050565b6000612d966020836134af565b9150612da18261392c565b602082019050919050565b6000612db96011836134af565b9150612dc482613955565b602082019050919050565b6000612ddc6025836134af565b9150612de78261397e565b604082019050919050565b6000612dff6018836134af565b9150612e0a826139cd565b602082019050919050565b6000612e226010836134af565b9150612e2d826139f6565b602082019050919050565b6000612e456018836134af565b9150612e5082613a1f565b602082019050919050565b6000612e686038836134af565b9150612e7382613a48565b604082019050919050565b6000612e8b6022836134af565b9150612e9682613a97565b604082019050919050565b6000612eae6019836134af565b9150612eb982613ae6565b602082019050919050565b6000612ed16031836134af565b9150612edc82613b0f565b604082019050919050565b600061010083016000830151612f006000860182612aa4565b506020830151612f136020860182612aa4565b506040830151612f266040860182613047565b5060608301518482036060860152612f3e8282612bfe565b9150506080830151612f536080860182613047565b5060a0830151612f6660a0860182612b95565b5060c0830151612f7960c0860182612be0565b5060e0830151612f8c60e0860182612bc2565b508091505092915050565b600061010083016000830151612fb06000860182612aa4565b506020830151612fc36020860182612aa4565b506040830151612fd66040860182613047565b5060608301518482036060860152612fee8282612bfe565b91505060808301516130036080860182613047565b5060a083015161301660a0860182612b95565b5060c083015161302960c0860182612be0565b5060e083015161303c60e0860182612bc2565b508091505092915050565b6130508161363b565b82525050565b61305f8161363b565b82525050565b60006130718284612c70565b915081905092915050565b60006130888284612ca1565b915081905092915050565b60006020820190506130a86000830184612ab3565b92915050565b6000610100820190506130c4600083018b612ab3565b6130d1602083018a612ab3565b6130de6040830189613056565b81810360608301526130f08188612c37565b90506130ff6080830187613056565b61310c60a0830186612ba4565b61311960c0830185612bef565b61312660e0830184612bd1565b9998505050505050505050565b6000602082019050818103600083015261314d8184612ac2565b905092915050565b6000602082019050818103600083015261316f8184612b37565b905092915050565b600060208201905061318c6000830184612ba4565b92915050565b60006020820190506131a76000830184612bb3565b92915050565b600060208201905081810360008301526131c681612d20565b9050919050565b600060208201905081810360008301526131e681612d43565b9050919050565b6000602082019050818103600083015261320681612d66565b9050919050565b6000602082019050818103600083015261322681612d89565b9050919050565b6000602082019050818103600083015261324681612dac565b9050919050565b6000602082019050818103600083015261326681612dcf565b9050919050565b6000602082019050818103600083015261328681612df2565b9050919050565b600060208201905081810360008301526132a681612e15565b9050919050565b600060208201905081810360008301526132c681612e38565b9050919050565b600060208201905081810360008301526132e681612e5b565b9050919050565b6000602082019050818103600083015261330681612e7e565b9050919050565b6000602082019050818103600083015261332681612ea1565b9050919050565b6000602082019050818103600083015261334681612ec4565b9050919050565b600060208201905081810360008301526133678184612f97565b905092915050565b60006020820190506133846000830184613056565b92915050565b60006133946133a5565b90506133a082826136ef565b919050565b6000604051905090565b600067ffffffffffffffff8211156133ca576133c9613825565b5b602082029050602081019050919050565b600067ffffffffffffffff8211156133f6576133f5613825565b5b6133ff82613854565b9050602081019050919050565b6000819050602082019050919050565b6000819050602082019050919050565b60008190508160005260206000209050919050565b600081519050919050565b600081519050919050565b600081519050919050565b6000602082019050919050565b6000602082019050919050565b600082825260208201905092915050565b600082825260208201905092915050565b600082825260208201905092915050565b600082825260208201905092915050565b600081905092915050565b60006134d68261363b565b91506134e18361363b565b9250827fffffffffffffffffffffffffffffffffffffffffffffffffffffffffffffffff0382111561351657613515613769565b5b828201905092915050565b600061352c8261363b565b91506135378361363b565b92508261354757613546613798565b5b828204905092915050565b600061355d8261363b565b91506135688361363b565b9250817fffffffffffffffffffffffffffffffffffffffffffffffffffffffffffffffff04831182151516156135a1576135a0613769565b5b828202905092915050565b60006135b78261363b565b91506135c28361363b565b9250828210156135d5576135d4613769565b5b828203905092915050565b60006135eb8261361b565b9050919050565b60008115159050919050565b600081905061360c82613b5e565b919050565b6000819050919050565b600073ffffffffffffffffffffffffffffffffffffffff82169050919050565b6000819050919050565b600061365082613657565b9050919050565b60006136628261361b565b9050919050565b6000613674826135fe565b9050919050565b82818337600083830152505050565b60005b838110156136a857808201518184015260208101905061368d565b838111156136b7576000848401525b50505050565b600060028204905060018216806136d557607f821691505b602082108114156136e9576136e86137f6565b5b50919050565b6136f882613854565b810181811067ffffffffffffffff8211171561371757613716613825565b5b80604052505050565b600061372b8261363b565b91507fffffffffffffffffffffffffffffffffffffffffffffffffffffffffffffffff82141561375e5761375d613769565b5b600182019050919050565b7f4e487b7100000000000000000000000000000000000000000000000000000000600052601160045260246000fd5b7f4e487b7100000000000000000000000000000000000000000000000000000000600052601260045260246000fd5b7f4e487b7100000000000000000000000000000000000000000000000000000000600052602160045260246000fd5b7f4e487b7100000000000000000000000000000000000000000000000000000000600052602260045260246000fd5b7f4e487b7100000000000000000000000000000000000000000000000000000000600052604160045260246000fd5b6000601f19601f8301169050919050565b7f626174746c65206e756d6265722069736e27742065786973742e0a0000000000600082015250565b7f746f6f206561726c7920746f20636865636b2077686f2069732074686520776960008201527f6e6e65722e000000000000000000000000000000000000000000000000000000602082015250565b7f7468697320626174746c6520697320636c6f7365642c206f70706f6e656e742060008201527f616c72656164792065786973742e000000000000000000000000000000000000602082015250565b7f796f7520617265206e6f742070617274206f66207468697320626174746c652e600082015250565b7f776974686472617720616c72656164792e000000000000000000000000000000600082015250565b7f696d706f737369626c6520746f20666967687420616761696e737420796f757260008201527f73656c662e000000000000000000000000000000000000000000000000000000602082015250565b7f7468697320626174746c652069736e27742065786973742e0000000000000000600082015250565b7f746f6f206d616e7920626174746c657300000000000000000000000000000000600082015250565b7f7468697320626174746c65206469646e742073746172742e0000000000000000600082015250565b7f746865726520697320616c7265616479206f70706f6e656e742c20746869732060008201527f626174746c652063616e742062652063616e63656c65642e0000000000000000602082015250565b7f796f75206861766520746f20626574206f6e20706f7369746976652076616c7560008201527f6521000000000000000000000000000000000000000000000000000000000000602082015250565b7f7468697320626174746c652069736e27742065786973742e0a00000000000000600082015250565b7f62657474696e672076616c75652069736e27742061732073706563696669656460008201527f20666f72207468697320626174746c652e000000000000000000000000000000602082015250565b60048110613b6f57613b6e6137c7565b5b50565b613b7b816135e0565b8114613b8657600080fd5b50565b613b92816135f2565b8114613b9d57600080fd5b50565b613ba981613611565b8114613bb457600080fd5b50565b613bc08161363b565b8114613bcb57600080fd5b5056fea26469706673582212209b79862cd4b333de93a1b7049ab7c464b134932ffb605d77daddab621b2441f664736f6c63430008030033608060405234801561001057600080fd5b506102fc806100206000396000f3fe608060405234801561001057600080fd5b506004361061002b5760003560e01c806344a11f6514610030575b600080fd5b61004a60048036038101906100459190610144565b610060565b60405161005791906101f3565b60405180910390f35b6000808273ffffffffffffffffffffffffffffffffffffffff1663feaf968c6040518163ffffffff1660e01b815260040160a06040518083038186803b1580156100a957600080fd5b505afa1580156100bd573d6000803e3d6000fd5b505050506040513d601f19601f820116820180604052508101906100e1919061016d565b50505091505080915050919050565b6000813590506100ff8161026a565b92915050565b60008151905061011481610281565b92915050565b60008151905061012981610298565b92915050565b60008151905061013e816102af565b92915050565b60006020828403121561015657600080fd5b6000610164848285016100f0565b91505092915050565b600080600080600060a0868803121561018557600080fd5b60006101938882890161012f565b95505060206101a488828901610105565b94505060406101b58882890161011a565b93505060606101c68882890161011a565b92505060806101d78882890161012f565b9150509295509295909350565b6101ed81610220565b82525050565b600060208201905061020860008301846101e4565b92915050565b60006102198261022a565b9050919050565b6000819050919050565b600073ffffffffffffffffffffffffffffffffffffffff82169050919050565b6000819050919050565b600069ffffffffffffffffffff82169050919050565b6102738161020e565b811461027e57600080fd5b50565b61028a81610220565b811461029557600080fd5b50565b6102a18161024a565b81146102ac57600080fd5b50565b6102b881610254565b81146102c357600080fd5b5056fea2646970667358221220544ecb878e6d6d61dda1044b61edfa14a4b64506f96880d65411e87aad65b57864736f6c63430008030033",
  "immutableReferences": {},
  "source": "// SPDX-License-Identifier: MIT\npragma solidity ^0.8.3;\nimport \"./PriceFeed.sol\";\n\ncontract BinaryOption{\n\n    uint256 public battleId; // unique id for each battle\n    mapping(uint256 => Battle) public battleInfo; // map of id to battle\n    mapping(address => uint256[]) public addressToBattle; // map of address to relevant battle id's\n    mapping(string => address) public feedAddress; // map of addresses for the price feeds\n    PriceFeed public priceFeed;\n    uint256 maxNumOfBattles = 10; // maximum of allowed parallel battles for a user\n    uint256 historyWindow = 10; // how many battles are used for the statistics\n    uint256 battleFreeSpace = 1000; // represent a free entry\n    //address owner;\n\n    event AddEvent(\n    uint256 indexed id,\n    address address_field\n    );\n\n    enum Status {\n            Opponent,\n            Creator,\n            Draw,\n            NotOver\n        }\n\n    struct Battle {\n        address creator;\n        address opponent;\n        uint256 amountBet;\n        string betType;\n        uint betDate;\n        bool isUp;\n        int currVal;\n        Status whoWin;\n    }\n\n\n    constructor()  {\n        priceFeed = new PriceFeed();\n        bool isKovan = false; // true if kovan, otherwise rinkeby\n        //owner = msg.sender;\n        if (isKovan){\n            feedAddress[\"EthVsUsd\"] = 0x9326BFA02ADD2366b30bacB125260Af641031331;\n        }\n        else {\n        // those addresses (of rinkbey test network) can be found at: https://docs.chain.link/docs/ethereum-addresses/\n        feedAddress[\"eth_vs_usd\"] = 0x8A753747A1Fa494EC906cE90E9f37563A8AF630e;\n        feedAddress[\"btc_vs_usd\"] = 0xECe365B379E1dD183B20fc5f022230C044d51404;\n        feedAddress[\"eur_vs_usd\"] = 0x78F9e60608bF48a1155b4B2A5e31F32318a1d85F;\n        feedAddress[\"usdc_vs_eth\"] = 0xdCA36F27cbC4E38aE16C4E9f99D39b42337F6dcf;\n        feedAddress[\"dai_vs_usd\"] = 0x2bA49Aaa16E6afD2a993473cfB70Fa8559B523cF;\n        feedAddress[\"dai_vs_eth\"] = 0x74825DbC8BF76CC4e9494d0ecB210f676Efa001D;\n        feedAddress[\"sdefi_vs_usd\"] = 0x0630521aC362bc7A19a4eE44b57cE72Ea34AD01c;\n        feedAddress[\"snx_vs_usd\"] = 0xE96C4407597CD507002dF88ff6E0008AB41266Ee;\n        }\n\n    }\n\n    function hasFreeEntry(uint256[] memory battles) public view returns (bool){\n        if (!(battles.length > 0)){\n            return true;\n        }\n        for (uint i = 0; i < maxNumOfBattles; i++){\n            if (battles[i] == battleFreeSpace){\n                return true;\n            }\n        }\n        return false;\n    }\n\n    function initArray(address target, uint256 battle_id) public {\n        if (!(addressToBattle[target].length > 0)){\n           addressToBattle[target] = [battle_id];\n           for (uint i = 1; i < maxNumOfBattles; i++){\n               addressToBattle[target].push(battleFreeSpace);\n           }\n        } else {\n               for (uint i = 0; i < maxNumOfBattles; i++){\n                  if (addressToBattle[target][i] == battleFreeSpace){\n                     addressToBattle[target][i] = battle_id;\n                     break;\n                  }\n               }\n        }\n    }\n\n    // a creator create a new battle\n    function addBattle(string memory betType, uint betDate,bool direction) public payable {\n        uint256 tempId = battleId;\n        require(msg.value > 0, \"you have to bet on positive value!\");\n        // doesn't play more than maxNumOfBattles games simultaneously\n        require (hasFreeEntry(addressToBattle[msg.sender]), \"too many battles\" );\n        battleInfo[battleId] = Battle(msg.sender,msg.sender,msg.value,betType,betDate,direction,\n        priceFeed.getThePrice(feedAddress[betType]), Status.NotOver);\n        emit AddEvent(tempId, msg.sender);\n        initArray(msg.sender, tempId);\n        battleId++;\n    }\n\n    // return relevant battle id's to withdraw\n    function getaddressToBattle(address a) public view returns(uint256[] memory) {\n        return addressToBattle[a];\n    }\n\n    // return battle's info\n    function getBattleInfo(uint256 battle_id) public view returns(Battle memory) {\n        Battle storage bate = battleInfo[battle_id];\n        require(bate.amountBet > 0, \"this battle isn't exist.\\n\");\n        return battleInfo[battle_id];\n    }\n\n    // get statistics to display\n    function getAll() public view returns (Battle[] memory){\n            uint256 lastIndex = battleId;\n            uint256 firstIndex = 0;\n            if (lastIndex >= historyWindow){\n                firstIndex = lastIndex - historyWindow;\n            }\n            uint256 viewRange = lastIndex - firstIndex;\n            Battle[] memory ret = new Battle[](viewRange);\n            uint j = 0;\n            for (uint i = firstIndex; i < lastIndex; i++) {\n                ret[j] = battleInfo[i];\n                j += 1;\n            }\n            return ret;\n    }\n\n    // an opponent is signed to battle number: battle_id\n    function acceptBattle(uint256 battle_id) public payable{\n\n        Battle storage bate = battleInfo[battle_id];\n        require(bate.amountBet > 0, \"battle number isn't exist.\\n\");\n        require(bate.creator != msg.sender, \"impossible to fight against yourself.\");\n        require(bate.creator == bate.opponent, \"this battle is closed, opponent already exist.\");\n        require(msg.value == bate.amountBet, \"betting value isn't as specified for this battle.\");\n        // doesn't play more than maxNumOfBattles games simultaneously\n        require (hasFreeEntry(addressToBattle[msg.sender]), \"too many battles\" );\n        bate.opponent = msg.sender;\n        initArray(msg.sender, battle_id);\n    }\n\n\n    // a creator cancels his battle\n    function cancelBattle(uint256 battle_id) public {\n        Battle memory bate = battleInfo[battle_id];\n        require(bate.amountBet > 0, \"this battle isn't exist.\"); // avoid reentry vulnerability\n        require(bate.creator == bate.opponent, \"there is already opponent, this battle cant be canceled.\");\n        payable(bate.creator).transfer(bate.amountBet); // return the amount which was invested\n        address creator = bate.creator;\n        for (uint i = 0; i < maxNumOfBattles; i++){\n            if (addressToBattle[creator][i] == battle_id){\n                addressToBattle[creator][i] = battleFreeSpace;\n                break;\n            }\n        }\n        delete battleInfo[battle_id]; // battle is canceled\n    }\n\n    // the winner may draw his money\n    function withdraw(uint256 battle_id) public {\n        Status winner;\n        int oldPrice;\n        int newPrice;\n        Battle storage bate=battleInfo[battle_id];\n        uint betDateSecond = bate.betDate / 1000; // dividing by 1000 to convert milliseconds to seconds\n        require(bate.creator != bate.opponent, \"this battle didnt start.\"); // in case the creator try to withdraw before having opponent. He may cancel battle if he wants.\n        require((bate.creator == msg.sender || bate.opponent == msg.sender), \"you are not part of this battle.\");\n        require(block.timestamp >= betDateSecond, \"too early to check who is the winner.\");\n        require(bate.whoWin == Status.NotOver, \"withdraw already.\");\n        oldPrice = bate.currVal;\n        newPrice = priceFeed.getThePrice(feedAddress[bate.betType]);\n        // deliver the money to the winner\n        if (oldPrice < newPrice){\n\n            if (bate.isUp){\n                winner = Status.Creator;\n                payable(bate.creator).transfer(2 * bate.amountBet); // multiply by 2 since we deliver the money of both the creator and his opponent\n            }\n            else {\n                winner = Status.Opponent;\n                payable(bate.opponent).transfer(2*bate.amountBet);\n            }\n\n        }\n        else if (oldPrice > newPrice){\n\n            if (bate.isUp){\n                winner = Status.Opponent;\n                payable(bate.opponent).transfer(2 * bate.amountBet);\n            }\n            else {\n                winner = Status.Creator;\n                payable(bate.creator).transfer(2*bate.amountBet);\n            }\n        }\n\n        else {\n            winner = Status.Draw;\n            payable(bate.opponent).transfer(bate.amountBet);\n            payable(bate.creator).transfer(bate.amountBet);\n        }\n\n        bate.whoWin = winner;\n        address creator = battleInfo[battle_id].creator;\n        address opponent = battleInfo[battle_id].opponent;\n        for (uint i = 0; i < maxNumOfBattles; i ++){\n            if (addressToBattle[creator][i] == battle_id){\n                addressToBattle[creator][i] = battleFreeSpace;\n                break;\n            }\n        }\n        for (uint i = 0; i < maxNumOfBattles; i ++){\n             if (addressToBattle[opponent][i] == battle_id){\n                addressToBattle[opponent][i] = battleFreeSpace;\n                break;\n             }\n        }\n    }\n\n    /*function cleanBattles() public{\n        require(msg.sender == owner, \"only the owner may delete battles\");\n        uint256 numOfBattles = battleId;\n        for (uint i = 0; i <numOfBattles; i++){\n            // delete battle only if is finished\n            if (battleInfo[i].currVal > 0 && battleInfo[i].whoWin != Status.NotOver){\n                delete battleInfo[i];\n            }\n        }\n    }*/\n}",
  "sourcePath": "/home/eran/WebstormProjects/tau_Smart_contract/src/solidity/contracts/BinaryOption.sol",
  "compiler": {
    "name": "solc",
    "version": "0.8.3+commit.8d00100c.Emscripten.clang"
  },
  "schemaVersion": "3.3.4",
  "updatedAt": "2021-08-28T07:44:59.911Z",
  "networkType": "ethereum",
  "devdoc": {
    "kind": "dev",
    "methods": {},
    "version": 1
  },
  "userdoc": {
    "kind": "user",
    "methods": {},
    "version": 1
  }
}