{
  "contractName": "BinaryOption",
  "abi": [
    {
      "inputs": [],
      "stateMutability": "nonpayable",
      "type": "constructor"
    },
    {
      "anonymous": false,
      "inputs": [
        {
          "indexed": true,
          "internalType": "uint256",
          "name": "id",
          "type": "uint256"
        },
        {
          "indexed": true,
          "internalType": "uint256",
          "name": "amount",
          "type": "uint256"
        },
        {
          "indexed": false,
          "internalType": "int256",
          "name": "win",
          "type": "int256"
        }
      ],
      "name": "MyEvent",
      "type": "event"
    },
    {
      "inputs": [],
      "name": "age",
      "outputs": [
        {
          "internalType": "contract Aggre",
          "name": "",
          "type": "address"
        }
      ],
      "stateMutability": "view",
      "type": "function",
      "constant": true
    },
    {
      "inputs": [],
      "name": "battleId",
      "outputs": [
        {
          "internalType": "uint256",
          "name": "",
          "type": "uint256"
        }
      ],
      "stateMutability": "view",
      "type": "function",
      "constant": true
    },
    {
      "inputs": [
        {
          "internalType": "uint256",
          "name": "",
          "type": "uint256"
        }
      ],
      "name": "battleInfo",
      "outputs": [
        {
          "internalType": "address",
          "name": "creator",
          "type": "address"
        },
        {
          "internalType": "address",
          "name": "opponent",
          "type": "address"
        },
        {
          "internalType": "uint256",
          "name": "amountBet",
          "type": "uint256"
        },
        {
          "internalType": "string",
          "name": "betType",
          "type": "string"
        },
        {
          "internalType": "uint256",
          "name": "betDate",
          "type": "uint256"
        },
        {
          "internalType": "bool",
          "name": "isUp",
          "type": "bool"
        },
        {
          "internalType": "int256",
          "name": "currVal",
          "type": "int256"
        }
      ],
      "stateMutability": "view",
      "type": "function",
      "constant": true
    },
    {
      "inputs": [
        {
          "internalType": "string",
          "name": "",
          "type": "string"
        }
      ],
      "name": "feedAddress",
      "outputs": [
        {
          "internalType": "address",
          "name": "",
          "type": "address"
        }
      ],
      "stateMutability": "view",
      "type": "function",
      "constant": true
    },
    {
      "inputs": [],
      "name": "owner",
      "outputs": [
        {
          "internalType": "address",
          "name": "",
          "type": "address"
        }
      ],
      "stateMutability": "view",
      "type": "function",
      "constant": true
    },
    {
      "inputs": [],
      "name": "tempVal",
      "outputs": [
        {
          "internalType": "uint256",
          "name": "",
          "type": "uint256"
        }
      ],
      "stateMutability": "view",
      "type": "function",
      "constant": true
    },
    {
      "inputs": [
        {
          "internalType": "string",
          "name": "betType",
          "type": "string"
        },
        {
          "internalType": "uint256",
          "name": "betDate",
          "type": "uint256"
        },
        {
          "internalType": "bool",
          "name": "direction",
          "type": "bool"
        }
      ],
      "name": "addBattle",
      "outputs": [],
      "stateMutability": "payable",
      "type": "function",
      "payable": true
    },
    {
      "inputs": [
        {
          "internalType": "uint256",
          "name": "battle_id",
          "type": "uint256"
        }
      ],
      "name": "getAmount",
      "outputs": [
        {
          "internalType": "uint256",
          "name": "",
          "type": "uint256"
        }
      ],
      "stateMutability": "view",
      "type": "function",
      "constant": true
    },
    {
      "inputs": [
        {
          "internalType": "uint256",
          "name": "battle_id",
          "type": "uint256"
        }
      ],
      "name": "acceptBattle",
      "outputs": [],
      "stateMutability": "payable",
      "type": "function",
      "payable": true
    },
    {
      "inputs": [
        {
          "internalType": "uint256",
          "name": "battle_id",
          "type": "uint256"
        }
      ],
      "name": "withdraw",
      "outputs": [],
      "stateMutability": "nonpayable",
      "type": "function"
    }
  ],
  "bytecode": "0x60806040523480156200001157600080fd5b506040516200002090620000f5565b604051809103906000f0801580156200003d573d6000803e3d6000fd5b50600660006101000a81548173ffffffffffffffffffffffffffffffffffffffff021916908373ffffffffffffffffffffffffffffffffffffffff160217905550738a753747a1fa494ec906ce90e9f37563a8af630e6005604051620000a3906200012a565b908152602001604051809103902060006101000a81548173ffffffffffffffffffffffffffffffffffffffff021916908373ffffffffffffffffffffffffffffffffffffffff16021790555062000175565b61032a8062001bdd83390190565b60006200011260088362000141565b91506200011f826200014c565b600882019050919050565b6000620001378262000103565b9150819050919050565b600081905092915050565b7f4574685673557364000000000000000000000000000000000000000000000000600082015250565b611a5880620001856000396000f3fe6080604052600436106100915760003560e01c80639980ec86116100595780639980ec861461015c578063a9e23bea14610199578063bfc8b8c6146101c4578063db71dcdc146101e0578063e4bb7a1e1461022357610091565b806301a1b77814610096578063262a9dff146100c15780632e1a7d4d146100ec57806381ec30f2146101155780638da5cb5b14610131575b600080fd5b3480156100a257600080fd5b506100ab610260565b6040516100b89190611505565b60405180910390f35b3480156100cd57600080fd5b506100d6610266565b6040516100e3919061140f565b60405180910390f35b3480156100f857600080fd5b50610113600480360381019061010e91906111b7565b61028c565b005b61012f600480360381019061012a91906111b7565b61095c565b005b34801561013d57600080fd5b50610146610afd565b604051610153919061137e565b60405180910390f35b34801561016857600080fd5b50610183600480360381019061017e91906111b7565b610b23565b6040516101909190611505565b60405180910390f35b3480156101a557600080fd5b506101ae610b43565b6040516101bb9190611505565b60405180910390f35b6101de60048036038101906101d99190611150565b610b49565b005b3480156101ec57600080fd5b50610207600480360381019061020291906111b7565b610dfc565b60405161021a9796959493929190611399565b60405180910390f35b34801561022f57600080fd5b5061024a6004803603810190610245919061110f565b610f13565b604051610257919061137e565b60405180910390f35b60005481565b600660009054906101000a900473ffffffffffffffffffffffffffffffffffffffff1681565b600080600080600160008681526020019081526020016000206040518060e00160405290816000820160009054906101000a900473ffffffffffffffffffffffffffffffffffffffff1673ffffffffffffffffffffffffffffffffffffffff1673ffffffffffffffffffffffffffffffffffffffff1681526020016001820160009054906101000a900473ffffffffffffffffffffffffffffffffffffffff1673ffffffffffffffffffffffffffffffffffffffff1673ffffffffffffffffffffffffffffffffffffffff1681526020016002820154815260200160038201805461037690611705565b80601f01602080910402602001604051908101604052809291908181526020018280546103a290611705565b80156103ef5780601f106103c4576101008083540402835291602001916103ef565b820191906000526020600020905b8154815290600101906020018083116103d257829003601f168201915b50505050508152602001600482015481526020016005820160009054906101000a900460ff1615151515815260200160068201548152505090503373ffffffffffffffffffffffffffffffffffffffff16816000015173ffffffffffffffffffffffffffffffffffffffff16148061049657503373ffffffffffffffffffffffffffffffffffffffff16816020015173ffffffffffffffffffffffffffffffffffffffff16145b6104d5576040517f08c379a00000000000000000000000000000000000000000000000000000000081526004016104cc90611465565b60405180910390fd5b806080015142101561051c576040517f08c379a0000000000000000000000000000000000000000000000000000000008152600401610513906114c5565b60405180910390fd5b8060c001519250600660009054906101000a900473ffffffffffffffffffffffffffffffffffffffff1673ffffffffffffffffffffffffffffffffffffffff166344a11f65600583606001516040516105759190611367565b908152602001604051809103902060009054906101000a900473ffffffffffffffffffffffffffffffffffffffff166040518263ffffffff1660e01b81526004016105c0919061137e565b60206040518083038186803b1580156105d857600080fd5b505afa1580156105ec573d6000803e3d6000fd5b505050506040513d601f19601f8201168201806040525081019061061091906110e6565b9150818312156106ed578060a00151156106885760019350806000015173ffffffffffffffffffffffffffffffffffffffff166108fc8260400151600261065791906115f3565b9081150290604051600060405180830381858888f19350505050158015610682573d6000803e3d6000fd5b506106e8565b60009350806020015173ffffffffffffffffffffffffffffffffffffffff166108fc826040015160026106bb91906115f3565b9081150290604051600060405180830381858888f193505050501580156106e6573d6000803e3d6000fd5b505b61086c565b818313156107c8578060a00151156107635760009350806020015173ffffffffffffffffffffffffffffffffffffffff166108fc8260400151600261073291906115f3565b9081150290604051600060405180830381858888f1935050505015801561075d573d6000803e3d6000fd5b506107c3565b60019350806000015173ffffffffffffffffffffffffffffffffffffffff166108fc8260400151600261079691906115f3565b9081150290604051600060405180830381858888f193505050501580156107c1573d6000803e3d6000fd5b505b61086b565b60029350806020015173ffffffffffffffffffffffffffffffffffffffff166108fc82604001519081150290604051600060405180830381858888f1935050505015801561081a573d6000803e3d6000fd5b50806000015173ffffffffffffffffffffffffffffffffffffffff166108fc82604001519081150290604051600060405180830381858888f19350505050158015610869573d6000803e3d6000fd5b505b5b6002816040015161087d91906115f3565b857f7fffe08228477bce61f9ca2eef1f0b161d994daea4389d58ebde865513661c16866040516108ad919061142a565b60405180910390a360016000868152602001908152602001600020600080820160006101000a81549073ffffffffffffffffffffffffffffffffffffffff02191690556001820160006101000a81549073ffffffffffffffffffffffffffffffffffffffff0219169055600282016000905560038201600061092f9190610f5c565b60048201600090556005820160006101000a81549060ff0219169055600682016000905550505050505050565b600060016000838152602001908152602001600020905060008160020154116109ba576040517f08c379a00000000000000000000000000000000000000000000000000000000081526004016109b1906114a5565b60405180910390fd5b8060010160009054906101000a900473ffffffffffffffffffffffffffffffffffffffff1673ffffffffffffffffffffffffffffffffffffffff168160000160009054906101000a900473ffffffffffffffffffffffffffffffffffffffff1673ffffffffffffffffffffffffffffffffffffffff1614610a70576040517f08c379a0000000000000000000000000000000000000000000000000000000008152600401610a6790611485565b60405180910390fd5b80600201543414610ab6576040517f08c379a0000000000000000000000000000000000000000000000000000000008152600401610aad906114e5565b60405180910390fd5b338160010160006101000a81548173ffffffffffffffffffffffffffffffffffffffff021916908373ffffffffffffffffffffffffffffffffffffffff1602179055505050565b600260009054906101000a900473ffffffffffffffffffffffffffffffffffffffff1681565b600060016000838152602001908152602001600020600201549050919050565b60035481565b60003411610b8c576040517f08c379a0000000000000000000000000000000000000000000000000000000008152600401610b8390611445565b60405180910390fd5b6040518060e001604052803373ffffffffffffffffffffffffffffffffffffffff1681526020013373ffffffffffffffffffffffffffffffffffffffff1681526020013481526020018481526020018342610be7919061159d565b81526020018215158152602001600660009054906101000a900473ffffffffffffffffffffffffffffffffffffffff1673ffffffffffffffffffffffffffffffffffffffff166344a11f65600587604051610c429190611367565b908152602001604051809103902060009054906101000a900473ffffffffffffffffffffffffffffffffffffffff166040518263ffffffff1660e01b8152600401610c8d919061137e565b60206040518083038186803b158015610ca557600080fd5b505afa158015610cb9573d6000803e3d6000fd5b505050506040513d601f19601f82011682018060405250810190610cdd91906110e6565b815250600160008054815260200190815260200160002060008201518160000160006101000a81548173ffffffffffffffffffffffffffffffffffffffff021916908373ffffffffffffffffffffffffffffffffffffffff16021790555060208201518160010160006101000a81548173ffffffffffffffffffffffffffffffffffffffff021916908373ffffffffffffffffffffffffffffffffffffffff160217905550604082015181600201556060820151816003019080519060200190610da8929190610f9c565b506080820151816004015560a08201518160050160006101000a81548160ff02191690831515021790555060c08201518160060155905050600080815480929190610df290611768565b9190505550505050565b60016020528060005260406000206000915090508060000160009054906101000a900473ffffffffffffffffffffffffffffffffffffffff16908060010160009054906101000a900473ffffffffffffffffffffffffffffffffffffffff1690806002015490806003018054610e7190611705565b80601f0160208091040260200160405190810160405280929190818152602001828054610e9d90611705565b8015610eea5780601f10610ebf57610100808354040283529160200191610eea565b820191906000526020600020905b815481529060010190602001808311610ecd57829003601f168201915b5050505050908060040154908060050160009054906101000a900460ff16908060060154905087565b6005818051602081018201805184825260208301602085012081835280955050505050506000915054906101000a900473ffffffffffffffffffffffffffffffffffffffff1681565b508054610f6890611705565b6000825580601f10610f7a5750610f99565b601f016020900490600052602060002090810190610f989190611022565b5b50565b828054610fa890611705565b90600052602060002090601f016020900481019282610fca5760008555611011565b82601f10610fe357805160ff1916838001178555611011565b82800160010185558215611011579182015b82811115611010578251825591602001919060010190610ff5565b5b50905061101e9190611022565b5090565b5b8082111561103b576000816000905550600101611023565b5090565b600061105261104d84611545565b611520565b90508281526020810184848401111561106a57600080fd5b6110758482856116c3565b509392505050565b60008135905061108c816119dd565b92915050565b6000815190506110a1816119f4565b92915050565b600082601f8301126110b857600080fd5b81356110c884826020860161103f565b91505092915050565b6000813590506110e081611a0b565b92915050565b6000602082840312156110f857600080fd5b600061110684828501611092565b91505092915050565b60006020828403121561112157600080fd5b600082013567ffffffffffffffff81111561113b57600080fd5b611147848285016110a7565b91505092915050565b60008060006060848603121561116557600080fd5b600084013567ffffffffffffffff81111561117f57600080fd5b61118b868287016110a7565b935050602061119c868287016110d1565b92505060406111ad8682870161107d565b9150509250925092565b6000602082840312156111c957600080fd5b60006111d7848285016110d1565b91505092915050565b6111e98161164d565b82525050565b6111f88161165f565b82525050565b6112078161169f565b82525050565b6112168161166b565b82525050565b600061122782611576565b6112318185611581565b93506112418185602086016116d2565b61124a8161183e565b840191505092915050565b600061126082611576565b61126a8185611592565b935061127a8185602086016116d2565b80840191505092915050565b6000611293602283611581565b915061129e8261184f565b604082019050919050565b60006112b6602083611581565b91506112c18261189e565b602082019050919050565b60006112d9602e83611581565b91506112e4826118c7565b604082019050919050565b60006112fc601b83611581565b915061130782611916565b602082019050919050565b600061131f602583611581565b915061132a8261193f565b604082019050919050565b6000611342603183611581565b915061134d8261198e565b604082019050919050565b61136181611695565b82525050565b60006113738284611255565b915081905092915050565b600060208201905061139360008301846111e0565b92915050565b600060e0820190506113ae600083018a6111e0565b6113bb60208301896111e0565b6113c86040830188611358565b81810360608301526113da818761121c565b90506113e96080830186611358565b6113f660a08301856111ef565b61140360c083018461120d565b98975050505050505050565b600060208201905061142460008301846111fe565b92915050565b600060208201905061143f600083018461120d565b92915050565b6000602082019050818103600083015261145e81611286565b9050919050565b6000602082019050818103600083015261147e816112a9565b9050919050565b6000602082019050818103600083015261149e816112cc565b9050919050565b600060208201905081810360008301526114be816112ef565b9050919050565b600060208201905081810360008301526114de81611312565b9050919050565b600060208201905081810360008301526114fe81611335565b9050919050565b600060208201905061151a6000830184611358565b92915050565b600061152a61153b565b90506115368282611737565b919050565b6000604051905090565b600067ffffffffffffffff8211156115605761155f61180f565b5b6115698261183e565b9050602081019050919050565b600081519050919050565b600082825260208201905092915050565b600081905092915050565b60006115a882611695565b91506115b383611695565b9250827fffffffffffffffffffffffffffffffffffffffffffffffffffffffffffffffff038211156115e8576115e76117b1565b5b828201905092915050565b60006115fe82611695565b915061160983611695565b9250817fffffffffffffffffffffffffffffffffffffffffffffffffffffffffffffffff0483118215151615611642576116416117b1565b5b828202905092915050565b600061165882611675565b9050919050565b60008115159050919050565b6000819050919050565b600073ffffffffffffffffffffffffffffffffffffffff82169050919050565b6000819050919050565b60006116aa826116b1565b9050919050565b60006116bc82611675565b9050919050565b82818337600083830152505050565b60005b838110156116f05780820151818401526020810190506116d5565b838111156116ff576000848401525b50505050565b6000600282049050600182168061171d57607f821691505b60208210811415611731576117306117e0565b5b50919050565b6117408261183e565b810181811067ffffffffffffffff8211171561175f5761175e61180f565b5b80604052505050565b600061177382611695565b91507fffffffffffffffffffffffffffffffffffffffffffffffffffffffffffffffff8214156117a6576117a56117b1565b5b600182019050919050565b7f4e487b7100000000000000000000000000000000000000000000000000000000600052601160045260246000fd5b7f4e487b7100000000000000000000000000000000000000000000000000000000600052602260045260246000fd5b7f4e487b7100000000000000000000000000000000000000000000000000000000600052604160045260246000fd5b6000601f19601f8301169050919050565b7f596f75206861766520746f20626574206f6e20706f7369746976652076616c7560008201527f6521000000000000000000000000000000000000000000000000000000000000602082015250565b7f596f7520617265206e6f742070617274206f66207468697320626174746c652e600082015250565b7f5468697320626174746c6520697320636c6f7365642c206f70706f6e656e742060008201527f616c72656164792065786973742e000000000000000000000000000000000000602082015250565b7f426174746c65206e756d6265722069736e27742065786973742e0a0000000000600082015250565b7f546f6f206561726c7920746f20636865636b2077686f2069732074686520776960008201527f6e6e65722e000000000000000000000000000000000000000000000000000000602082015250565b7f42657474696e672076616c75652069736e27742061732073706563696669656460008201527f20666f72207468697320626174746c652e000000000000000000000000000000602082015250565b6119e68161165f565b81146119f157600080fd5b50565b6119fd8161166b565b8114611a0857600080fd5b50565b611a1481611695565b8114611a1f57600080fd5b5056fea2646970667358221220604811947e0e54dafa851022f066f0edfa8a2697368c9d7edb5031fef2862e3364736f6c63430008030033608060405234801561001057600080fd5b5061030a806100206000396000f3fe608060405234801561001057600080fd5b506004361061002b5760003560e01c806344a11f6514610030575b600080fd5b61004a60048036038101906100459190610152565b610060565b6040516100579190610201565b60405180910390f35b6000806000806000808673ffffffffffffffffffffffffffffffffffffffff1663feaf968c6040518163ffffffff1660e01b815260040160a06040518083038186803b1580156100af57600080fd5b505afa1580156100c3573d6000803e3d6000fd5b505050506040513d601f19601f820116820180604052508101906100e7919061017b565b945094509450945094508395505050505050919050565b60008135905061010d81610278565b92915050565b6000815190506101228161028f565b92915050565b600081519050610137816102a6565b92915050565b60008151905061014c816102bd565b92915050565b60006020828403121561016457600080fd5b6000610172848285016100fe565b91505092915050565b600080600080600060a0868803121561019357600080fd5b60006101a18882890161013d565b95505060206101b288828901610113565b94505060406101c388828901610128565b93505060606101d488828901610128565b92505060806101e58882890161013d565b9150509295509295909350565b6101fb8161022e565b82525050565b600060208201905061021660008301846101f2565b92915050565b600061022782610238565b9050919050565b6000819050919050565b600073ffffffffffffffffffffffffffffffffffffffff82169050919050565b6000819050919050565b600069ffffffffffffffffffff82169050919050565b6102818161021c565b811461028c57600080fd5b50565b6102988161022e565b81146102a357600080fd5b50565b6102af81610258565b81146102ba57600080fd5b50565b6102c681610262565b81146102d157600080fd5b5056fea2646970667358221220113a278fe303388eb9bd98b9f7e803b64b2347ec6e12c834a8765a55ac6ba94564736f6c63430008030033",
  "immutableReferences": {},
  "source": "// SPDX-License-Identifier: MIT\r\npragma solidity ^0.8.3;\r\nimport \"./Aggre.sol\";\r\n\r\ncontract BinaryOption{\r\n\r\n\r\n    uint256  public battleId; // unique id for each battle\r\n    mapping(uint256 => Battle) public battleInfo; // map of the existing battles\r\n    address public owner; // the creator of the contract (we)\r\n    uint  public tempVal;\r\n    int feed;\r\n    mapping(string=>address) public feedAddress;\r\n    Aggre public age;\r\n\r\n    event MyEvent(\r\n    uint256 indexed id,\r\n    uint256 indexed amount,\r\n    int win\r\n    );\r\n\r\n    struct Battle {\r\n        address creator;\r\n        address opponent;\r\n        uint256 amountBet;\r\n        string betType;\r\n        uint betDate;\r\n        bool isUp;\r\n        int currVal;\r\n    }\r\n\r\n    constructor() public {\r\n        age=new Aggre();\r\n        //owner = msg.sender;\r\n\r\n        // those addresses (of rinkbey test network) can be found at: https://docs.chain.link/docs/ethereum-addresses/\r\n        feedAddress[\"EthVsUsd\"]=0x8A753747A1Fa494EC906cE90E9f37563A8AF630e;\r\n        //feedAddress[\"BtcVsUsd\"]=0x6135b13325bfC4B00278B4abC5e20bbce2D6580e;\r\n        //feedAddress[\"EurVsUsd\"]=0x0c15Ab9A0DB086e062194c273CC79f41597Bbf13;\r\n    }\r\n\r\n    // a creator create a new battle\r\n    function addBattle(string memory betType,uint betDate,bool direction) public payable {\r\n        require(msg.value>0, \"You have to bet on positive value!\");\r\n        battleInfo[battleId]=Battle(msg.sender,msg.sender,msg.value,betType,block.timestamp+betDate,direction,age.getThePrice(feedAddress[betType]));\r\n        battleId++;\r\n    }\r\n    function getAmount(uint256 battle_id) public view returns (uint){\r\n            return battleInfo[battle_id].amountBet;\r\n        }\r\n\r\n    /*function setIndex() public payable {\r\n        tempVal= msg.value;\r\n    }*/\r\n\r\n    /*\r\n\r\n    function setPrice() public {\r\n        feed= age.getThePrice(0x9326BFA02ADD2366b30bacB125260Af641031331);\r\n    }\r\n    function getPrice() public view returns (int){\r\n        return feed;\r\n    }\r\n\r\n\r\n    function getId() public view returns (uint256){\r\n        return battleId;\r\n    }*/\r\n\r\n    /*function getEvent() public {\r\n        emit MyEvent(battleId,battleId);\r\n    }*/\r\n\r\n    /*function settempVal(uint num) public {\r\n        tempVal=num;\r\n    }*/\r\n\r\n    // we call it before the withdraw method, in the index_1.js (the reason for this is there)\r\n    /*function gettempVal() public view returns (uint) {\r\n        return tempVal;\r\n    }*/\r\n\r\n\r\n    // an opponent is signed to battle number: battleid\r\n    function acceptBattle(uint256 battle_id) public payable{\r\n\r\n        Battle storage bate=battleInfo[battle_id];\r\n        require(bate.amountBet>0, \"Battle number isn't exist.\\n\");\r\n        //require(bate.creator!=msg.sender, \"Impossible to fight against yourself.\");\r\n        require(bate.creator==bate.opponent, \"This battle is closed, opponent already exist.\");\r\n        require(msg.value==bate.amountBet, \"Betting value isn't as specified for this battle.\");\r\n        bate.opponent=msg.sender;\r\n\r\n\r\n    }\r\n\r\n    // a creator cancel his battle\r\n    /*function cancelBattle(uint256 battle_id) public payable{\r\n        Battle memory bate=battleInfo[battle_id];\r\n        require(bate.amountBet>0, \"Battle number isn't exist.\");\r\n        require(bate.creator==msg.sender, \"Only the creator may cancel his own battle.\");\r\n\r\n        require(bate.creator==bate.opponent, \"There is already opponent, this battle can't be canceled.\");\r\n        //temp=address(battleInfo[battle_id].creator);\r\n        //temp.transfer(2*battleInfo[battle_id].amountBet);\r\n        payable(bate.creator).transfer(bate.amountBet); // return the amount invested\r\n        delete battleInfo[battle_id]; // battle is canceled\r\n    }*/\r\n\r\n\r\n    /*function getcurrVal(uint256 battle_id) public view returns (uint256){\r\n        require(msg.sender==battleInfo[battle_id].creator||msg.sender==battleInfo[battle_id].opponent, \"You are not part of this battle.\");\r\n        return battleInfo[battle_id].amountBet;\r\n    }*/\r\n\r\n    // the winner may draw his money\r\n    function withdraw(uint256 battle_id) public {\r\n        int winner; // 0=lose 1=win 2=draw\r\n        int oldPrice;\r\n        int newPrice;\r\n        Battle memory bate=battleInfo[battle_id];\r\n        require((bate.creator==msg.sender||bate.opponent==msg.sender), \"You are not part of this battle.\"); // can be deleted if comes with getcurrval\r\n        //require(battleInfo[battle_id].creator!=battleInfo[battle_id].opponent, \"This battle didn't start.\"); // in case the creator try to withdraw before having opponent. He may cancel battle if he wants.\r\n        require(block.timestamp>=bate.betDate, \"Too early to check who is the winner.\");\r\n        oldPrice=bate.currVal;\r\n        newPrice=age.getThePrice(feedAddress[bate.betType]);\r\n        // deliver the money to the winner\r\n        if(oldPrice<newPrice){\r\n\r\n            if(bate.isUp){\r\n                //temp=address(battleInfo[battle_id].creator);\r\n                //temp.transfer(2*battleInfo[battle_id].amountBet);\r\n                winner=1;\r\n                payable(bate.creator).transfer(2*bate.amountBet); // multiply by 2 since we deliver the money of both the creator and his opponent\r\n            }\r\n            else{\r\n                //temp=address(battleInfo[battle_id].opponent);\r\n                //temp.transfer(2*battleInfo[battle_id].amountBet);\r\n                winner=0;\r\n                payable(bate.opponent).transfer(2*bate.amountBet);\r\n            }\r\n\r\n        }\r\n        else if(oldPrice>newPrice){\r\n\r\n            if(bate.isUp){\r\n                //temp=address(battleInfo[battle_id].opponent);\r\n                //temp.transfer(2*battleInfo[battle_id].amountBet);\r\n                winner=0;\r\n                payable(bate.opponent).transfer(2*bate.amountBet);\r\n            }\r\n            else{\r\n                //temp=address(battleInfo[battle_id].creator);\r\n                //temp.transfer(2*battleInfo[battle_id].amountBet);\r\n                winner=1;\r\n                payable(bate.creator).transfer(2*bate.amountBet);\r\n            }\r\n        }\r\n        // if nothing has changed, the creator lose his money\r\n        else {\r\n\r\n            //temp=address(battleInfo[battle_id].opponent);\r\n            //temp.transfer(2*battleInfo[battle_id].amountBet);\r\n            winner=2;\r\n            payable(bate.opponent).transfer(bate.amountBet);\r\n            payable(bate.creator).transfer(bate.amountBet);\r\n        }\r\n        // sign the event\r\n        emit MyEvent(battle_id,bate.amountBet*2,winner);\r\n        delete battleInfo[battle_id]; // battle is finished\r\n    }\r\n\r\n    //just for testing\r\n    /*function removeBattle(uint256 battle_id) public {\r\n        require(battleInfo[battle_id].amountBet>0, \"Battle number isn't exist.\\n\");\r\n        delete battleInfo[battle_id]; // battle is canceled\r\n    }*/\r\n\r\n\r\n\r\n}",
  "sourcePath": "/mnt/c/users/admin/ideaprojects/tau_smart_contract/src/solidity/contracts/BinaryOption.sol",
  "compiler": {
    "name": "solc",
    "version": "0.8.3+commit.8d00100c.Emscripten.clang"
  },
  "schemaVersion": "3.4.1",
  "updatedAt": "2021-07-03T14:07:57.115Z",
  "networkType": "ethereum",
  "devdoc": {
    "kind": "dev",
    "methods": {},
    "version": 1
  },
  "userdoc": {
    "kind": "user",
    "methods": {},
    "version": 1
  }
}