{
  "contractName": "BinaryOption",
  "abi": [
    {
      "inputs": [],
      "stateMutability": "nonpayable",
      "type": "constructor"
    },
    {
      "anonymous": false,
      "inputs": [
        {
          "indexed": true,
          "internalType": "uint256",
          "name": "id",
          "type": "uint256"
        },
        {
          "indexed": false,
          "internalType": "address",
          "name": "address_field",
          "type": "address"
        }
      ],
      "name": "AddEvent",
      "type": "event"
    },
    {
      "inputs": [],
      "name": "age",
      "outputs": [
        {
          "internalType": "contract Aggre",
          "name": "",
          "type": "address"
        }
      ],
      "stateMutability": "view",
      "type": "function"
    },
    {
      "inputs": [],
      "name": "battleId",
      "outputs": [
        {
          "internalType": "uint256",
          "name": "",
          "type": "uint256"
        }
      ],
      "stateMutability": "view",
      "type": "function"
    },
    {
      "inputs": [
        {
          "internalType": "uint256",
          "name": "",
          "type": "uint256"
        }
      ],
      "name": "battleInfo",
      "outputs": [
        {
          "internalType": "address",
          "name": "creator",
          "type": "address"
        },
        {
          "internalType": "address",
          "name": "opponent",
          "type": "address"
        },
        {
          "internalType": "uint256",
          "name": "amountBet",
          "type": "uint256"
        },
        {
          "internalType": "string",
          "name": "betType",
          "type": "string"
        },
        {
          "internalType": "uint256",
          "name": "betDate",
          "type": "uint256"
        },
        {
          "internalType": "bool",
          "name": "isUp",
          "type": "bool"
        },
        {
          "internalType": "int256",
          "name": "currVal",
          "type": "int256"
        },
        {
          "internalType": "int256",
          "name": "whoWin",
          "type": "int256"
        }
      ],
      "stateMutability": "view",
      "type": "function"
    },
    {
      "inputs": [
        {
          "internalType": "string",
          "name": "",
          "type": "string"
        }
      ],
      "name": "feedAddress",
      "outputs": [
        {
          "internalType": "address",
          "name": "",
          "type": "address"
        }
      ],
      "stateMutability": "view",
      "type": "function"
    },
    {
      "inputs": [
        {
          "internalType": "string",
          "name": "betType",
          "type": "string"
        },
        {
          "internalType": "uint256",
          "name": "betDate",
          "type": "uint256"
        },
        {
          "internalType": "bool",
          "name": "direction",
          "type": "bool"
        }
      ],
      "name": "addBattle",
      "outputs": [],
      "stateMutability": "payable",
      "type": "function"
    },
    {
      "inputs": [
        {
          "internalType": "uint256",
          "name": "battle_id",
          "type": "uint256"
        }
      ],
      "name": "getBattleInfo",
      "outputs": [
        {
          "components": [
            {
              "internalType": "address",
              "name": "creator",
              "type": "address"
            },
            {
              "internalType": "address",
              "name": "opponent",
              "type": "address"
            },
            {
              "internalType": "uint256",
              "name": "amountBet",
              "type": "uint256"
            },
            {
              "internalType": "string",
              "name": "betType",
              "type": "string"
            },
            {
              "internalType": "uint256",
              "name": "betDate",
              "type": "uint256"
            },
            {
              "internalType": "bool",
              "name": "isUp",
              "type": "bool"
            },
            {
              "internalType": "int256",
              "name": "currVal",
              "type": "int256"
            },
            {
              "internalType": "int256",
              "name": "whoWin",
              "type": "int256"
            }
          ],
          "internalType": "struct BinaryOption.Battle",
          "name": "",
          "type": "tuple"
        }
      ],
      "stateMutability": "payable",
      "type": "function"
    },
    {
      "inputs": [],
      "name": "getAll",
      "outputs": [
        {
          "components": [
            {
              "internalType": "address",
              "name": "creator",
              "type": "address"
            },
            {
              "internalType": "address",
              "name": "opponent",
              "type": "address"
            },
            {
              "internalType": "uint256",
              "name": "amountBet",
              "type": "uint256"
            },
            {
              "internalType": "string",
              "name": "betType",
              "type": "string"
            },
            {
              "internalType": "uint256",
              "name": "betDate",
              "type": "uint256"
            },
            {
              "internalType": "bool",
              "name": "isUp",
              "type": "bool"
            },
            {
              "internalType": "int256",
              "name": "currVal",
              "type": "int256"
            },
            {
              "internalType": "int256",
              "name": "whoWin",
              "type": "int256"
            }
          ],
          "internalType": "struct BinaryOption.Battle[]",
          "name": "",
          "type": "tuple[]"
        }
      ],
      "stateMutability": "view",
      "type": "function"
    },
    {
      "inputs": [
        {
          "internalType": "uint256",
          "name": "battle_id",
          "type": "uint256"
        }
      ],
      "name": "acceptBattle",
      "outputs": [],
      "stateMutability": "payable",
      "type": "function"
    },
    {
      "inputs": [
        {
          "internalType": "uint256",
          "name": "battle_id",
          "type": "uint256"
        }
      ],
      "name": "cancelBattle",
      "outputs": [],
      "stateMutability": "payable",
      "type": "function"
    },
    {
      "inputs": [
        {
          "internalType": "uint256",
          "name": "battle_id",
          "type": "uint256"
        }
      ],
      "name": "withdraw",
      "outputs": [],
      "stateMutability": "nonpayable",
      "type": "function"
    }
  ],
  "bytecode": "0x60806040523480156200001157600080fd5b5060405162000020906200048e565b604051809103906000f0801580156200003d573d6000803e3d6000fd5b50600360006101000a81548173ffffffffffffffffffffffffffffffffffffffff021916908373ffffffffffffffffffffffffffffffffffffffff16021790555060008015620000fe57739326bfa02add2366b30bacb125260af6410313316002604051620000ac9062000612565b908152602001604051809103902060006101000a81548173ffffffffffffffffffffffffffffffffffffffff021916908373ffffffffffffffffffffffffffffffffffffffff16021790555062000487565b738a753747a1fa494ec906ce90e9f37563a8af630e600260405162000123906200066e565b908152602001604051809103902060006101000a81548173ffffffffffffffffffffffffffffffffffffffff021916908373ffffffffffffffffffffffffffffffffffffffff16021790555073ece365b379e1dd183b20fc5f022230c044d514046002604051620001949062000685565b908152602001604051809103902060006101000a81548173ffffffffffffffffffffffffffffffffffffffff021916908373ffffffffffffffffffffffffffffffffffffffff1602179055507378f9e60608bf48a1155b4b2a5e31f32318a1d85f60026040516200020590620005fb565b908152602001604051809103902060006101000a81548173ffffffffffffffffffffffffffffffffffffffff021916908373ffffffffffffffffffffffffffffffffffffffff16021790555073dca36f27cbc4e38ae16c4e9f99d39b42337f6dcf6002604051620002769062000657565b908152602001604051809103902060006101000a81548173ffffffffffffffffffffffffffffffffffffffff021916908373ffffffffffffffffffffffffffffffffffffffff160217905550732ba49aaa16e6afd2a993473cfb70fa8559b523cf6002604051620002e79062000640565b908152602001604051809103902060006101000a81548173ffffffffffffffffffffffffffffffffffffffff021916908373ffffffffffffffffffffffffffffffffffffffff1602179055507374825dbc8bf76cc4e9494d0ecb210f676efa001d60026040516200035890620006b3565b908152602001604051809103902060006101000a81548173ffffffffffffffffffffffffffffffffffffffff021916908373ffffffffffffffffffffffffffffffffffffffff160217905550730630521ac362bc7a19a4ee44b57ce72ea34ad01c6002604051620003c9906200069c565b908152602001604051809103902060006101000a81548173ffffffffffffffffffffffffffffffffffffffff021916908373ffffffffffffffffffffffffffffffffffffffff16021790555073e96c4407597cd507002df88ff6e0008ab41266ee60026040516200043a9062000629565b908152602001604051809103902060006101000a81548173ffffffffffffffffffffffffffffffffffffffff021916908373ffffffffffffffffffffffffffffffffffffffff1602179055505b5062000846565b61031c8062002dfa83390190565b6000620004ab600a83620006ca565b9150620004b882620006d5565b600a82019050919050565b6000620004d2600883620006ca565b9150620004df82620006fe565b600882019050919050565b6000620004f9600a83620006ca565b9150620005068262000727565b600a82019050919050565b600062000520600a83620006ca565b91506200052d8262000750565b600a82019050919050565b600062000547600b83620006ca565b9150620005548262000779565b600b82019050919050565b60006200056e600a83620006ca565b91506200057b82620007a2565b600a82019050919050565b600062000595600a83620006ca565b9150620005a282620007cb565b600a82019050919050565b6000620005bc600c83620006ca565b9150620005c982620007f4565b600c82019050919050565b6000620005e3600a83620006ca565b9150620005f0826200081d565b600a82019050919050565b600062000608826200049c565b9150819050919050565b60006200061f82620004c3565b9150819050919050565b60006200063682620004ea565b9150819050919050565b60006200064d8262000511565b9150819050919050565b6000620006648262000538565b9150819050919050565b60006200067b826200055f565b9150819050919050565b6000620006928262000586565b9150819050919050565b6000620006a982620005ad565b9150819050919050565b6000620006c082620005d4565b9150819050919050565b600081905092915050565b7f6575725f76735f75736400000000000000000000000000000000000000000000600082015250565b7f4574685673557364000000000000000000000000000000000000000000000000600082015250565b7f736e785f76735f75736400000000000000000000000000000000000000000000600082015250565b7f6461695f76735f75736400000000000000000000000000000000000000000000600082015250565b7f757364635f76735f657468000000000000000000000000000000000000000000600082015250565b7f6574685f76735f75736400000000000000000000000000000000000000000000600082015250565b7f6274635f76735f75736400000000000000000000000000000000000000000000600082015250565b7f73646566695f76735f7573640000000000000000000000000000000000000000600082015250565b7f6461695f76735f65746800000000000000000000000000000000000000000000600082015250565b6125a480620008566000396000f3fe6080604052600436106100915760003560e01c806381ec30f21161005957806381ec30f21461015c578063bfc8b8c614610178578063c0a6e9d714610194578063db71dcdc146101c4578063e4bb7a1e1461020857610091565b806301a1b77814610096578063262a9dff146100c15780632e1a7d4d146100ec5780634c4c447e1461011557806353ed514314610131575b600080fd5b3480156100a257600080fd5b506100ab610245565b6040516100b89190611f81565b60405180910390f35b3480156100cd57600080fd5b506100d661024b565b6040516100e39190611e24565b60405180910390f35b3480156100f857600080fd5b50610113600480360381019061010e919061183e565b610271565b005b61012f600480360381019061012a919061183e565b61070c565b005b34801561013d57600080fd5b50610146610ada565b6040516101539190611e02565b60405180910390f35b6101766004803603810190610171919061183e565b610d67565b005b610192600480360381019061018d91906117d7565b610f08565b005b6101ae60048036038101906101a9919061183e565b6111fc565b6040516101bb9190611f5f565b60405180910390f35b3480156101d057600080fd5b506101eb60048036038101906101e6919061183e565b61140a565b6040516101ff989796959493929190611d7d565b60405180910390f35b34801561021457600080fd5b5061022f600480360381019061022a9190611796565b611527565b60405161023c9190611d62565b60405180910390f35b60005481565b600360009054906101000a900473ffffffffffffffffffffffffffffffffffffffff1681565b60008060008060016000868152602001908152602001600020905080600401544210156102d3576040517f08c379a00000000000000000000000000000000000000000000000000000000081526004016102ca90611eff565b60405180910390fd5b80600601549250600360009054906101000a900473ffffffffffffffffffffffffffffffffffffffff1673ffffffffffffffffffffffffffffffffffffffff166344a11f6560028360030160405161032b9190611d4b565b908152602001604051809103902060009054906101000a900473ffffffffffffffffffffffffffffffffffffffff166040518263ffffffff1660e01b81526004016103769190611d62565b60206040518083038186803b15801561038e57600080fd5b505afa1580156103a2573d6000803e3d6000fd5b505050506040513d601f19601f820116820180604052508101906103c6919061176d565b9150818312156104f0578060050160009054906101000a900460ff161561046b57600193508060000160009054906101000a900473ffffffffffffffffffffffffffffffffffffffff1673ffffffffffffffffffffffffffffffffffffffff166108fc8260020154600261043a9190612078565b9081150290604051600060405180830381858888f19350505050158015610465573d6000803e3d6000fd5b506104eb565b600093508060010160009054906101000a900473ffffffffffffffffffffffffffffffffffffffff1673ffffffffffffffffffffffffffffffffffffffff166108fc826002015460026104be9190612078565b9081150290604051600060405180830381858888f193505050501580156104e9573d6000803e3d6000fd5b505b6106fc565b81831315610618578060050160009054906101000a900460ff161561059357600093508060010160009054906101000a900473ffffffffffffffffffffffffffffffffffffffff1673ffffffffffffffffffffffffffffffffffffffff166108fc826002015460026105629190612078565b9081150290604051600060405180830381858888f1935050505015801561058d573d6000803e3d6000fd5b50610613565b600193508060000160009054906101000a900473ffffffffffffffffffffffffffffffffffffffff1673ffffffffffffffffffffffffffffffffffffffff166108fc826002015460026105e69190612078565b9081150290604051600060405180830381858888f19350505050158015610611573d6000803e3d6000fd5b505b6106fb565b600293508060010160009054906101000a900473ffffffffffffffffffffffffffffffffffffffff1673ffffffffffffffffffffffffffffffffffffffff166108fc82600201549081150290604051600060405180830381858888f1935050505015801561068a573d6000803e3d6000fd5b508060000160009054906101000a900473ffffffffffffffffffffffffffffffffffffffff1673ffffffffffffffffffffffffffffffffffffffff166108fc82600201549081150290604051600060405180830381858888f193505050501580156106f9573d6000803e3d6000fd5b505b5b8381600701819055505050505050565b600060016000838152602001908152602001600020604051806101000160405290816000820160009054906101000a900473ffffffffffffffffffffffffffffffffffffffff1673ffffffffffffffffffffffffffffffffffffffff1673ffffffffffffffffffffffffffffffffffffffff1681526020016001820160009054906101000a900473ffffffffffffffffffffffffffffffffffffffff1673ffffffffffffffffffffffffffffffffffffffff1673ffffffffffffffffffffffffffffffffffffffff168152602001600282015481526020016003820180546107f39061218a565b80601f016020809104026020016040519081016040528092919081815260200182805461081f9061218a565b801561086c5780601f106108415761010080835404028352916020019161086c565b820191906000526020600020905b81548152906001019060200180831161084f57829003601f168201915b50505050508152602001600482015481526020016005820160009054906101000a900460ff1615151515815260200160068201548152602001600782015481525050905060008160400151116108f7576040517f08c379a00000000000000000000000000000000000000000000000000000000081526004016108ee90611e9f565b60405180910390fd5b3373ffffffffffffffffffffffffffffffffffffffff16816000015173ffffffffffffffffffffffffffffffffffffffff1614610969576040517f08c379a000000000000000000000000000000000000000000000000000000000815260040161096090611f1f565b60405180910390fd5b806020015173ffffffffffffffffffffffffffffffffffffffff16816000015173ffffffffffffffffffffffffffffffffffffffff16146109df576040517f08c379a00000000000000000000000000000000000000000000000000000000081526004016109d690611e5f565b60405180910390fd5b806000015173ffffffffffffffffffffffffffffffffffffffff166108fc82604001519081150290604051600060405180830381858888f19350505050158015610a2d573d6000803e3d6000fd5b5060016000838152602001908152602001600020600080820160006101000a81549073ffffffffffffffffffffffffffffffffffffffff02191690556001820160006101000a81549073ffffffffffffffffffffffffffffffffffffffff02191690556002820160009055600382016000610aa89190611570565b60048201600090556005820160006101000a81549060ff02191690556006820160009055600782016000905550505050565b60606000805467ffffffffffffffff811115610b1f577f4e487b7100000000000000000000000000000000000000000000000000000000600052604160045260246000fd5b604051908082528060200260200182016040528015610b5857816020015b610b456115b0565b815260200190600190039081610b3d5790505b50905060005b600054811015610d5f5760016000828152602001908152602001600020604051806101000160405290816000820160009054906101000a900473ffffffffffffffffffffffffffffffffffffffff1673ffffffffffffffffffffffffffffffffffffffff1673ffffffffffffffffffffffffffffffffffffffff1681526020016001820160009054906101000a900473ffffffffffffffffffffffffffffffffffffffff1673ffffffffffffffffffffffffffffffffffffffff1673ffffffffffffffffffffffffffffffffffffffff16815260200160028201548152602001600382018054610c4d9061218a565b80601f0160208091040260200160405190810160405280929190818152602001828054610c799061218a565b8015610cc65780601f10610c9b57610100808354040283529160200191610cc6565b820191906000526020600020905b815481529060010190602001808311610ca957829003601f168201915b50505050508152602001600482015481526020016005820160009054906101000a900460ff1615151515815260200160068201548152602001600782015481525050828281518110610d41577f4e487b7100000000000000000000000000000000000000000000000000000000600052603260045260246000fd5b60200260200101819052508080610d57906121ed565b915050610b5e565b508091505090565b60006001600083815260200190815260200160002090506000816002015411610dc5576040517f08c379a0000000000000000000000000000000000000000000000000000000008152600401610dbc90611edf565b60405180910390fd5b8060010160009054906101000a900473ffffffffffffffffffffffffffffffffffffffff1673ffffffffffffffffffffffffffffffffffffffff168160000160009054906101000a900473ffffffffffffffffffffffffffffffffffffffff1673ffffffffffffffffffffffffffffffffffffffff1614610e7b576040517f08c379a0000000000000000000000000000000000000000000000000000000008152600401610e7290611ebf565b60405180910390fd5b80600201543414610ec1576040517f08c379a0000000000000000000000000000000000000000000000000000000008152600401610eb890611f3f565b60405180910390fd5b338160010160006101000a81548173ffffffffffffffffffffffffffffffffffffffff021916908373ffffffffffffffffffffffffffffffffffffffff1602179055505050565b60003411610f4b576040517f08c379a0000000000000000000000000000000000000000000000000000000008152600401610f4290611e7f565b60405180910390fd5b6040518061010001604052803373ffffffffffffffffffffffffffffffffffffffff1681526020013373ffffffffffffffffffffffffffffffffffffffff1681526020013481526020018481526020018381526020018215158152602001600360009054906101000a900473ffffffffffffffffffffffffffffffffffffffff1673ffffffffffffffffffffffffffffffffffffffff166344a11f65600287604051610ff79190611d34565b908152602001604051809103902060009054906101000a900473ffffffffffffffffffffffffffffffffffffffff166040518263ffffffff1660e01b81526004016110429190611d62565b60206040518083038186803b15801561105a57600080fd5b505afa15801561106e573d6000803e3d6000fd5b505050506040513d601f19601f82011682018060405250810190611092919061176d565b81526020016003815250600160008054815260200190815260200160002060008201518160000160006101000a81548173ffffffffffffffffffffffffffffffffffffffff021916908373ffffffffffffffffffffffffffffffffffffffff16021790555060208201518160010160006101000a81548173ffffffffffffffffffffffffffffffffffffffff021916908373ffffffffffffffffffffffffffffffffffffffff160217905550604082015181600201556060820151816003019080519060200190611164929190611623565b506080820151816004015560a08201518160050160006101000a81548160ff02191690831515021790555060c0820151816006015560e082015181600701559050506000547fa85f9845510d83562eaa9e779b6973f58826879a69d5613807f0415e1ce692c4336040516111d89190611d62565b60405180910390a26000808154809291906111f2906121ed565b9190505550505050565b6112046115b0565b60006001600084815260200190815260200160002090506000816002015411611262576040517f08c379a000000000000000000000000000000000000000000000000000000000815260040161125990611e3f565b60405180910390fd5b60016000848152602001908152602001600020604051806101000160405290816000820160009054906101000a900473ffffffffffffffffffffffffffffffffffffffff1673ffffffffffffffffffffffffffffffffffffffff1673ffffffffffffffffffffffffffffffffffffffff1681526020016001820160009054906101000a900473ffffffffffffffffffffffffffffffffffffffff1673ffffffffffffffffffffffffffffffffffffffff1673ffffffffffffffffffffffffffffffffffffffff168152602001600282015481526020016003820180546113479061218a565b80601f01602080910402602001604051908101604052809291908181526020018280546113739061218a565b80156113c05780601f10611395576101008083540402835291602001916113c0565b820191906000526020600020905b8154815290600101906020018083116113a357829003601f168201915b50505050508152602001600482015481526020016005820160009054906101000a900460ff1615151515815260200160068201548152602001600782015481525050915050919050565b60016020528060005260406000206000915090508060000160009054906101000a900473ffffffffffffffffffffffffffffffffffffffff16908060010160009054906101000a900473ffffffffffffffffffffffffffffffffffffffff169080600201549080600301805461147f9061218a565b80601f01602080910402602001604051908101604052809291908181526020018280546114ab9061218a565b80156114f85780601f106114cd576101008083540402835291602001916114f8565b820191906000526020600020905b8154815290600101906020018083116114db57829003601f168201915b5050505050908060040154908060050160009054906101000a900460ff16908060060154908060070154905088565b6002818051602081018201805184825260208301602085012081835280955050505050506000915054906101000a900473ffffffffffffffffffffffffffffffffffffffff1681565b50805461157c9061218a565b6000825580601f1061158e57506115ad565b601f0160209004906000526020600020908101906115ac91906116a9565b5b50565b604051806101000160405280600073ffffffffffffffffffffffffffffffffffffffff168152602001600073ffffffffffffffffffffffffffffffffffffffff16815260200160008152602001606081526020016000815260200160001515815260200160008152602001600081525090565b82805461162f9061218a565b90600052602060002090601f0160209004810192826116515760008555611698565b82601f1061166a57805160ff1916838001178555611698565b82800160010185558215611698579182015b8281111561169757825182559160200191906001019061167c565b5b5090506116a591906116a9565b5090565b5b808211156116c25760008160009055506001016116aa565b5090565b60006116d96116d484611fc1565b611f9c565b9050828152602081018484840111156116f157600080fd5b6116fc848285612148565b509392505050565b60008135905061171381612529565b92915050565b60008151905061172881612540565b92915050565b600082601f83011261173f57600080fd5b813561174f8482602086016116c6565b91505092915050565b60008135905061176781612557565b92915050565b60006020828403121561177f57600080fd5b600061178d84828501611719565b91505092915050565b6000602082840312156117a857600080fd5b600082013567ffffffffffffffff8111156117c257600080fd5b6117ce8482850161172e565b91505092915050565b6000806000606084860312156117ec57600080fd5b600084013567ffffffffffffffff81111561180657600080fd5b6118128682870161172e565b935050602061182386828701611758565b925050604061183486828701611704565b9150509250925092565b60006020828403121561185057600080fd5b600061185e84828501611758565b91505092915050565b60006118738383611bb6565b905092915050565b611884816120d2565b82525050565b611893816120d2565b82525050565b60006118a482612017565b6118ae818561203a565b9350836020820285016118c085611ff2565b8060005b858110156118fc57848403895281516118dd8582611867565b94506118e88361202d565b925060208a019950506001810190506118c4565b50829750879550505050505092915050565b611917816120e4565b82525050565b611926816120e4565b82525050565b61193581612124565b82525050565b611944816120f0565b82525050565b611953816120f0565b82525050565b600061196482612022565b61196e818561204b565b935061197e818560208601612157565b611987816122c3565b840191505092915050565b600061199d82612022565b6119a7818561205c565b93506119b7818560208601612157565b6119c0816122c3565b840191505092915050565b60006119d682612022565b6119e0818561206d565b93506119f0818560208601612157565b80840191505092915050565b60008154611a098161218a565b611a13818661206d565b94506001821660008114611a2e5760018114611a3f57611a72565b60ff19831686528186019350611a72565b611a4885612002565b60005b83811015611a6a57815481890152600182019150602081019050611a4b565b838801955050505b50505092915050565b6000611a8860198361205c565b9150611a93826122d4565b602082019050919050565b6000611aab60398361205c565b9150611ab6826122fd565b604082019050919050565b6000611ace60228361205c565b9150611ad98261234c565b604082019050919050565b6000611af160188361205c565b9150611afc8261239b565b602082019050919050565b6000611b14602e8361205c565b9150611b1f826123c4565b604082019050919050565b6000611b37601b8361205c565b9150611b4282612413565b602082019050919050565b6000611b5a60258361205c565b9150611b658261243c565b604082019050919050565b6000611b7d602b8361205c565b9150611b888261248b565b604082019050919050565b6000611ba060318361205c565b9150611bab826124da565b604082019050919050565b600061010083016000830151611bcf600086018261187b565b506020830151611be2602086018261187b565b506040830151611bf56040860182611d16565b5060608301518482036060860152611c0d8282611959565b9150506080830151611c226080860182611d16565b5060a0830151611c3560a086018261190e565b5060c0830151611c4860c086018261193b565b5060e0830151611c5b60e086018261193b565b508091505092915050565b600061010083016000830151611c7f600086018261187b565b506020830151611c92602086018261187b565b506040830151611ca56040860182611d16565b5060608301518482036060860152611cbd8282611959565b9150506080830151611cd26080860182611d16565b5060a0830151611ce560a086018261190e565b5060c0830151611cf860c086018261193b565b5060e0830151611d0b60e086018261193b565b508091505092915050565b611d1f8161211a565b82525050565b611d2e8161211a565b82525050565b6000611d4082846119cb565b915081905092915050565b6000611d5782846119fc565b915081905092915050565b6000602082019050611d77600083018461188a565b92915050565b600061010082019050611d93600083018b61188a565b611da0602083018a61188a565b611dad6040830189611d25565b8181036060830152611dbf8188611992565b9050611dce6080830187611d25565b611ddb60a083018661191d565b611de860c083018561194a565b611df560e083018461194a565b9998505050505050505050565b60006020820190508181036000830152611e1c8184611899565b905092915050565b6000602082019050611e39600083018461192c565b92915050565b60006020820190508181036000830152611e5881611a7b565b9050919050565b60006020820190508181036000830152611e7881611a9e565b9050919050565b60006020820190508181036000830152611e9881611ac1565b9050919050565b60006020820190508181036000830152611eb881611ae4565b9050919050565b60006020820190508181036000830152611ed881611b07565b9050919050565b60006020820190508181036000830152611ef881611b2a565b9050919050565b60006020820190508181036000830152611f1881611b4d565b9050919050565b60006020820190508181036000830152611f3881611b70565b9050919050565b60006020820190508181036000830152611f5881611b93565b9050919050565b60006020820190508181036000830152611f798184611c66565b905092915050565b6000602082019050611f966000830184611d25565b92915050565b6000611fa6611fb7565b9050611fb282826121bc565b919050565b6000604051905090565b600067ffffffffffffffff821115611fdc57611fdb612294565b5b611fe5826122c3565b9050602081019050919050565b6000819050602082019050919050565b60008190508160005260206000209050919050565b600081519050919050565b600081519050919050565b6000602082019050919050565b600082825260208201905092915050565b600082825260208201905092915050565b600082825260208201905092915050565b600081905092915050565b60006120838261211a565b915061208e8361211a565b9250817fffffffffffffffffffffffffffffffffffffffffffffffffffffffffffffffff04831182151516156120c7576120c6612236565b5b828202905092915050565b60006120dd826120fa565b9050919050565b60008115159050919050565b6000819050919050565b600073ffffffffffffffffffffffffffffffffffffffff82169050919050565b6000819050919050565b600061212f82612136565b9050919050565b6000612141826120fa565b9050919050565b82818337600083830152505050565b60005b8381101561217557808201518184015260208101905061215a565b83811115612184576000848401525b50505050565b600060028204905060018216806121a257607f821691505b602082108114156121b6576121b5612265565b5b50919050565b6121c5826122c3565b810181811067ffffffffffffffff821117156121e4576121e3612294565b5b80604052505050565b60006121f88261211a565b91507fffffffffffffffffffffffffffffffffffffffffffffffffffffffffffffffff82141561222b5761222a612236565b5b600182019050919050565b7f4e487b7100000000000000000000000000000000000000000000000000000000600052601160045260246000fd5b7f4e487b7100000000000000000000000000000000000000000000000000000000600052602260045260246000fd5b7f4e487b7100000000000000000000000000000000000000000000000000000000600052604160045260246000fd5b6000601f19601f8301169050919050565b7f5468697320626174746c652069736e27742065786973742e0a00000000000000600082015250565b7f546865726520697320616c7265616479206f70706f6e656e742c20746869732060008201527f626174746c652063616e27742062652063616e63656c65642e00000000000000602082015250565b7f596f75206861766520746f20626574206f6e20706f7369746976652076616c7560008201527f6521000000000000000000000000000000000000000000000000000000000000602082015250565b7f5468697320626174746c652069736e27742065786973742e0000000000000000600082015250565b7f5468697320626174746c6520697320636c6f7365642c206f70706f6e656e742060008201527f616c72656164792065786973742e000000000000000000000000000000000000602082015250565b7f426174746c65206e756d6265722069736e27742065786973742e0a0000000000600082015250565b7f546f6f206561726c7920746f20636865636b2077686f2069732074686520776960008201527f6e6e65722e000000000000000000000000000000000000000000000000000000602082015250565b7f4f6e6c79207468652063726561746f72206d61792063616e63656c206869732060008201527f6f776e20626174746c652e000000000000000000000000000000000000000000602082015250565b7f42657474696e672076616c75652069736e27742061732073706563696669656460008201527f20666f72207468697320626174746c652e000000000000000000000000000000602082015250565b612532816120e4565b811461253d57600080fd5b50565b612549816120f0565b811461255457600080fd5b50565b6125608161211a565b811461256b57600080fd5b5056fea264697066735822122011b31604d1a24a946e3fd15eefab2a00b3199e6131f43fd9b6a9011f35a24fe064736f6c63430008030033608060405234801561001057600080fd5b506102fc806100206000396000f3fe608060405234801561001057600080fd5b506004361061002b5760003560e01c806344a11f6514610030575b600080fd5b61004a60048036038101906100459190610144565b610060565b60405161005791906101f3565b60405180910390f35b6000808273ffffffffffffffffffffffffffffffffffffffff1663feaf968c6040518163ffffffff1660e01b815260040160a06040518083038186803b1580156100a957600080fd5b505afa1580156100bd573d6000803e3d6000fd5b505050506040513d601f19601f820116820180604052508101906100e1919061016d565b50505091505080915050919050565b6000813590506100ff8161026a565b92915050565b60008151905061011481610281565b92915050565b60008151905061012981610298565b92915050565b60008151905061013e816102af565b92915050565b60006020828403121561015657600080fd5b6000610164848285016100f0565b91505092915050565b600080600080600060a0868803121561018557600080fd5b60006101938882890161012f565b95505060206101a488828901610105565b94505060406101b58882890161011a565b93505060606101c68882890161011a565b92505060806101d78882890161012f565b9150509295509295909350565b6101ed81610220565b82525050565b600060208201905061020860008301846101e4565b92915050565b60006102198261022a565b9050919050565b6000819050919050565b600073ffffffffffffffffffffffffffffffffffffffff82169050919050565b6000819050919050565b600069ffffffffffffffffffff82169050919050565b6102738161020e565b811461027e57600080fd5b50565b61028a81610220565b811461029557600080fd5b50565b6102a18161024a565b81146102ac57600080fd5b50565b6102b881610254565b81146102c357600080fd5b5056fea2646970667358221220bba4e3cf4df883c6a084ce1140a154c180cffb1321e2f91ba08e98a85ad35b6564736f6c63430008030033",
  "immutableReferences": {},
  "source": "// SPDX-License-Identifier: MIT\npragma solidity ^0.8.3;\nimport \"./Aggre.sol\";\n\ncontract BinaryOption{\n\n    uint256  public battleId; // unique id for each battle\n    mapping(uint256 => Battle) public battleInfo; // map of the existing battles\n    mapping(string=>address) public feedAddress; // map of addresses for the price feeds\n    Aggre public age;\n\n    event AddEvent(\n    uint256 indexed id,\n    address address_field\n    );\n\n    struct Battle {\n        address creator;\n        address opponent;\n        uint256 amountBet;\n        string betType;\n        uint betDate;\n        bool isUp;\n        int currVal;\n        int whoWin; // 0 for opponent, 1 for creator, 2 for draw, 3 if not over\n    }\n\n    constructor()  {\n        age=new Aggre();\n        bool isKovan=false; // true if kovan, otherwise rinkeby\n        if(isKovan){\n        feedAddress[\"EthVsUsd\"]=0x9326BFA02ADD2366b30bacB125260Af641031331;\n        }\n        else{\n        // those addresses (of rinkbey test network) can be found at: https://docs.chain.link/docs/ethereum-addresses/\n        feedAddress[\"eth_vs_usd\"]=0x8A753747A1Fa494EC906cE90E9f37563A8AF630e;\n        feedAddress[\"btc_vs_usd\"]=0xECe365B379E1dD183B20fc5f022230C044d51404;\n        feedAddress[\"eur_vs_usd\"]=0x78F9e60608bF48a1155b4B2A5e31F32318a1d85F;\n        feedAddress[\"usdc_vs_eth\"]=0xdCA36F27cbC4E38aE16C4E9f99D39b42337F6dcf;\n        feedAddress[\"dai_vs_usd\"]=0x2bA49Aaa16E6afD2a993473cfB70Fa8559B523cF;\n        feedAddress[\"dai_vs_eth\"]=0x74825DbC8BF76CC4e9494d0ecB210f676Efa001D;\n        feedAddress[\"sdefi_vs_usd\"]=0x0630521aC362bc7A19a4eE44b57cE72Ea34AD01c;\n        feedAddress[\"snx_vs_usd\"]=0xE96C4407597CD507002dF88ff6E0008AB41266Ee;\n        }\n\n    }\n\n\n    // a creator create a new battle\n    function addBattle(string memory betType,uint betDate,bool direction) public payable {\n        require(msg.value>0, \"You have to bet on positive value!\");\n        battleInfo[battleId]=Battle(msg.sender,msg.sender,msg.value,betType,betDate,direction,age.getThePrice(feedAddress[betType]),3);\n        emit AddEvent(battleId,msg.sender);\n        battleId++;\n    }\n\n    // get information about battle number: battle_id\n    function getBattleInfo(uint256 battle_id) public payable returns(Battle memory) {\n        Battle storage bate=battleInfo[battle_id];\n        require(bate.amountBet>0, \"This battle isn't exist.\\n\");\n        return battleInfo[battle_id];\n    }\n\n    // get all the battles for statistics\n    function getAll() public view returns (Battle[] memory){\n            Battle[] memory ret = new Battle[](battleId);\n            for (uint i = 0; i < battleId; i++) {\n                ret[i] = battleInfo[i];\n            }\n            return ret;\n        }\n\n    // an opponent is signed to battle number: battle_id\n    function acceptBattle(uint256 battle_id) public payable{\n\n        Battle storage bate=battleInfo[battle_id];\n        require(bate.amountBet>0, \"Battle number isn't exist.\\n\");\n        //require(bate.creator!=msg.sender, \"Impossible to fight against yourself.\");\n        require(bate.creator==bate.opponent, \"This battle is closed, opponent already exist.\");\n        require(msg.value==bate.amountBet, \"Betting value isn't as specified for this battle.\");\n        bate.opponent=msg.sender;\n    }\n\n    // a creator cancels his battle\n    function cancelBattle(uint256 battle_id) public payable{\n        Battle memory bate=battleInfo[battle_id];\n        require(bate.amountBet>0, \"This battle isn't exist.\");\n        require(bate.creator==msg.sender, \"Only the creator may cancel his own battle.\");\n        require(bate.creator==bate.opponent, \"There is already opponent, this battle can't be canceled.\");\n        payable(bate.creator).transfer(bate.amountBet); // return the amount which was invested\n        delete battleInfo[battle_id]; // battle is canceled\n    }\n\n    // the winner may draw his money\n    function withdraw(uint256 battle_id) public {\n        int winner; // 0=lose 1=win 2=draw\n        int oldPrice;\n        int newPrice;\n        Battle storage bate=battleInfo[battle_id];\n        //require(battleInfo[battle_id].creator!=battleInfo[battle_id].opponent, \"This battle didn't start.\"); // in case the creator try to withdraw before having opponent. He may use cancel function if he wants.\n        //require((bate.creator==msg.sender||bate.opponent==msg.sender), \"You are not part of this battle.\");\n        require(block.timestamp>=bate.betDate, \"Too early to check who is the winner.\");\n        //require(bate.whoWin==3, \"Withdrawn already.\");\n        oldPrice=bate.currVal;\n        newPrice=age.getThePrice(feedAddress[bate.betType]);\n        // deliver the money to the winner\n        if(oldPrice<newPrice){\n            if(bate.isUp){\n                winner=1;\n                payable(bate.creator).transfer(2*bate.amountBet); // multiply by 2 since we deliver the money of both the creator and his opponent\n            }\n            else{\n                winner=0;\n                payable(bate.opponent).transfer(2*bate.amountBet);\n            }\n\n        }\n        else if(oldPrice>newPrice){\n            if(bate.isUp){\n                winner=0;\n                payable(bate.opponent).transfer(2*bate.amountBet);\n            }\n            else{\n                winner=1;\n                payable(bate.creator).transfer(2*bate.amountBet);\n            }\n        }\n        else {\n            winner=2;\n            payable(bate.opponent).transfer(bate.amountBet);\n            payable(bate.creator).transfer(bate.amountBet);\n        }\n        bate.whoWin=winner;\n    }\n\n}",
  "sourcePath": "/home/eran/WebstormProjects/tau_Smart_contract/src/solidity/contracts/BinaryOption.sol",
  "compiler": {
    "name": "solc",
    "version": "0.8.3+commit.8d00100c.Emscripten.clang"
  },
  "schemaVersion": "3.3.4",
  "updatedAt": "2021-07-30T20:32:56.664Z",
  "devdoc": {
    "kind": "dev",
    "methods": {},
    "version": 1
  },
  "userdoc": {
    "kind": "user",
    "methods": {},
    "version": 1
  }
}