{
  "contractName": "BinaryOption",
  "abi": [
    {
      "inputs": [],
      "stateMutability": "nonpayable",
      "type": "constructor"
    },
    {
      "anonymous": false,
      "inputs": [
        {
          "indexed": true,
          "internalType": "uint256",
          "name": "id",
          "type": "uint256"
        },
        {
          "indexed": false,
          "internalType": "address",
          "name": "address_field",
          "type": "address"
        }
      ],
      "name": "AddEvent",
      "type": "event"
    },
    {
      "inputs": [],
      "name": "age",
      "outputs": [
        {
          "internalType": "contract Aggre",
          "name": "",
          "type": "address"
        }
      ],
      "stateMutability": "view",
      "type": "function",
      "constant": true
    },
    {
      "inputs": [],
      "name": "battleId",
      "outputs": [
        {
          "internalType": "uint256",
          "name": "",
          "type": "uint256"
        }
      ],
      "stateMutability": "view",
      "type": "function",
      "constant": true
    },
    {
      "inputs": [
        {
          "internalType": "uint256",
          "name": "",
          "type": "uint256"
        }
      ],
      "name": "battleInfo",
      "outputs": [
        {
          "internalType": "address",
          "name": "creator",
          "type": "address"
        },
        {
          "internalType": "address",
          "name": "opponent",
          "type": "address"
        },
        {
          "internalType": "uint256",
          "name": "amountBet",
          "type": "uint256"
        },
        {
          "internalType": "string",
          "name": "betType",
          "type": "string"
        },
        {
          "internalType": "uint256",
          "name": "betDate",
          "type": "uint256"
        },
        {
          "internalType": "bool",
          "name": "isUp",
          "type": "bool"
        },
        {
          "internalType": "int256",
          "name": "currVal",
          "type": "int256"
        },
        {
          "internalType": "int256",
          "name": "whoWin",
          "type": "int256"
        }
      ],
      "stateMutability": "view",
      "type": "function",
      "constant": true
    },
    {
      "inputs": [
        {
          "internalType": "string",
          "name": "",
          "type": "string"
        }
      ],
      "name": "feedAddress",
      "outputs": [
        {
          "internalType": "address",
          "name": "",
          "type": "address"
        }
      ],
      "stateMutability": "view",
      "type": "function",
      "constant": true
    },
    {
      "inputs": [
        {
          "internalType": "string",
          "name": "betType",
          "type": "string"
        },
        {
          "internalType": "uint256",
          "name": "betDate",
          "type": "uint256"
        },
        {
          "internalType": "bool",
          "name": "direction",
          "type": "bool"
        }
      ],
      "name": "addBattle",
      "outputs": [],
      "stateMutability": "payable",
      "type": "function",
      "payable": true
    },
    {
      "inputs": [
        {
          "internalType": "uint256",
          "name": "battle_id",
          "type": "uint256"
        }
      ],
      "name": "getBattleInfo",
      "outputs": [
        {
          "components": [
            {
              "internalType": "address",
              "name": "creator",
              "type": "address"
            },
            {
              "internalType": "address",
              "name": "opponent",
              "type": "address"
            },
            {
              "internalType": "uint256",
              "name": "amountBet",
              "type": "uint256"
            },
            {
              "internalType": "string",
              "name": "betType",
              "type": "string"
            },
            {
              "internalType": "uint256",
              "name": "betDate",
              "type": "uint256"
            },
            {
              "internalType": "bool",
              "name": "isUp",
              "type": "bool"
            },
            {
              "internalType": "int256",
              "name": "currVal",
              "type": "int256"
            },
            {
              "internalType": "int256",
              "name": "whoWin",
              "type": "int256"
            }
          ],
          "internalType": "struct BinaryOption.Battle",
          "name": "",
          "type": "tuple"
        }
      ],
      "stateMutability": "payable",
      "type": "function",
      "payable": true
    },
    {
      "inputs": [],
      "name": "getAll",
      "outputs": [
        {
          "components": [
            {
              "internalType": "address",
              "name": "creator",
              "type": "address"
            },
            {
              "internalType": "address",
              "name": "opponent",
              "type": "address"
            },
            {
              "internalType": "uint256",
              "name": "amountBet",
              "type": "uint256"
            },
            {
              "internalType": "string",
              "name": "betType",
              "type": "string"
            },
            {
              "internalType": "uint256",
              "name": "betDate",
              "type": "uint256"
            },
            {
              "internalType": "bool",
              "name": "isUp",
              "type": "bool"
            },
            {
              "internalType": "int256",
              "name": "currVal",
              "type": "int256"
            },
            {
              "internalType": "int256",
              "name": "whoWin",
              "type": "int256"
            }
          ],
          "internalType": "struct BinaryOption.Battle[]",
          "name": "",
          "type": "tuple[]"
        }
      ],
      "stateMutability": "view",
      "type": "function",
      "constant": true
    },
    {
      "inputs": [
        {
          "internalType": "uint256",
          "name": "battle_id",
          "type": "uint256"
        }
      ],
      "name": "acceptBattle",
      "outputs": [],
      "stateMutability": "payable",
      "type": "function",
      "payable": true
    },
    {
      "inputs": [
        {
          "internalType": "uint256",
          "name": "battle_id",
          "type": "uint256"
        }
      ],
      "name": "cancelBattle",
      "outputs": [],
      "stateMutability": "payable",
      "type": "function",
      "payable": true
    },
    {
      "inputs": [
        {
          "internalType": "uint256",
          "name": "battle_id",
          "type": "uint256"
        }
      ],
      "name": "withdraw",
      "outputs": [],
      "stateMutability": "nonpayable",
      "type": "function"
    }
  ],
  "bytecode": "0x60806040523480156200001157600080fd5b5060405162000020906200048e565b604051809103906000f0801580156200003d573d6000803e3d6000fd5b50600360006101000a81548173ffffffffffffffffffffffffffffffffffffffff021916908373ffffffffffffffffffffffffffffffffffffffff16021790555060008015620000fe57739326bfa02add2366b30bacb125260af6410313316002604051620000ac9062000612565b908152602001604051809103902060006101000a81548173ffffffffffffffffffffffffffffffffffffffff021916908373ffffffffffffffffffffffffffffffffffffffff16021790555062000487565b738a753747a1fa494ec906ce90e9f37563a8af630e600260405162000123906200066e565b908152602001604051809103902060006101000a81548173ffffffffffffffffffffffffffffffffffffffff021916908373ffffffffffffffffffffffffffffffffffffffff16021790555073ece365b379e1dd183b20fc5f022230c044d514046002604051620001949062000685565b908152602001604051809103902060006101000a81548173ffffffffffffffffffffffffffffffffffffffff021916908373ffffffffffffffffffffffffffffffffffffffff1602179055507378f9e60608bf48a1155b4b2a5e31f32318a1d85f60026040516200020590620005fb565b908152602001604051809103902060006101000a81548173ffffffffffffffffffffffffffffffffffffffff021916908373ffffffffffffffffffffffffffffffffffffffff16021790555073dca36f27cbc4e38ae16c4e9f99d39b42337f6dcf6002604051620002769062000657565b908152602001604051809103902060006101000a81548173ffffffffffffffffffffffffffffffffffffffff021916908373ffffffffffffffffffffffffffffffffffffffff160217905550732ba49aaa16e6afd2a993473cfb70fa8559b523cf6002604051620002e79062000640565b908152602001604051809103902060006101000a81548173ffffffffffffffffffffffffffffffffffffffff021916908373ffffffffffffffffffffffffffffffffffffffff1602179055507374825dbc8bf76cc4e9494d0ecb210f676efa001d60026040516200035890620006b3565b908152602001604051809103902060006101000a81548173ffffffffffffffffffffffffffffffffffffffff021916908373ffffffffffffffffffffffffffffffffffffffff160217905550730630521ac362bc7a19a4ee44b57ce72ea34ad01c6002604051620003c9906200069c565b908152602001604051809103902060006101000a81548173ffffffffffffffffffffffffffffffffffffffff021916908373ffffffffffffffffffffffffffffffffffffffff16021790555073e96c4407597cd507002df88ff6e0008ab41266ee60026040516200043a9062000629565b908152602001604051809103902060006101000a81548173ffffffffffffffffffffffffffffffffffffffff021916908373ffffffffffffffffffffffffffffffffffffffff1602179055505b5062000846565b61031c80620032de83390190565b6000620004ab600a83620006ca565b9150620004b882620006d5565b600a82019050919050565b6000620004d2600883620006ca565b9150620004df82620006fe565b600882019050919050565b6000620004f9600a83620006ca565b9150620005068262000727565b600a82019050919050565b600062000520600a83620006ca565b91506200052d8262000750565b600a82019050919050565b600062000547600b83620006ca565b9150620005548262000779565b600b82019050919050565b60006200056e600a83620006ca565b91506200057b82620007a2565b600a82019050919050565b600062000595600a83620006ca565b9150620005a282620007cb565b600a82019050919050565b6000620005bc600c83620006ca565b9150620005c982620007f4565b600c82019050919050565b6000620005e3600a83620006ca565b9150620005f0826200081d565b600a82019050919050565b600062000608826200049c565b9150819050919050565b60006200061f82620004c3565b9150819050919050565b60006200063682620004ea565b9150819050919050565b60006200064d8262000511565b9150819050919050565b6000620006648262000538565b9150819050919050565b60006200067b826200055f565b9150819050919050565b6000620006928262000586565b9150819050919050565b6000620006a982620005ad565b9150819050919050565b6000620006c082620005d4565b9150819050919050565b600081905092915050565b7f6575725f76735f75736400000000000000000000000000000000000000000000600082015250565b7f4574685673557364000000000000000000000000000000000000000000000000600082015250565b7f736e785f76735f75736400000000000000000000000000000000000000000000600082015250565b7f6461695f76735f75736400000000000000000000000000000000000000000000600082015250565b7f757364635f76735f657468000000000000000000000000000000000000000000600082015250565b7f6574685f76735f75736400000000000000000000000000000000000000000000600082015250565b7f6274635f76735f75736400000000000000000000000000000000000000000000600082015250565b7f73646566695f76735f7573640000000000000000000000000000000000000000600082015250565b7f6461695f76735f65746800000000000000000000000000000000000000000000600082015250565b612a8880620008566000396000f3fe6080604052600436106100915760003560e01c806381ec30f21161005957806381ec30f21461015c578063bfc8b8c614610178578063c0a6e9d714610194578063db71dcdc146101c4578063e4bb7a1e1461020857610091565b806301a1b77814610096578063262a9dff146100c15780632e1a7d4d146100ec5780634c4c447e1461011557806353ed514314610131575b600080fd5b3480156100a257600080fd5b506100ab610245565b6040516100b8919061233b565b60405180910390f35b3480156100cd57600080fd5b506100d661024b565b6040516100e3919061215e565b60405180910390f35b3480156100f857600080fd5b50610113600480360381019061010e9190611aec565b610271565b005b61012f600480360381019061012a9190611aec565b610927565b005b34801561013d57600080fd5b50610146610cf5565b604051610153919061213c565b60405180910390f35b61017660048036038101906101719190611aec565b610f82565b005b610192600480360381019061018d9190611a85565b6111b6565b005b6101ae60048036038101906101a99190611aec565b6114aa565b6040516101bb9190612319565b60405180910390f35b3480156101d057600080fd5b506101eb60048036038101906101e69190611aec565b6116b8565b6040516101ff9897969594939291906120b7565b60405180910390f35b34801561021457600080fd5b5061022f600480360381019061022a9190611a44565b6117d5565b60405161023c919061209c565b60405180910390f35b60005481565b600360009054906101000a900473ffffffffffffffffffffffffffffffffffffffff1681565b6000806000806001600086815260200190815260200160002090506001600086815260200190815260200160002060010160009054906101000a900473ffffffffffffffffffffffffffffffffffffffff1673ffffffffffffffffffffffffffffffffffffffff166001600087815260200190815260200160002060000160009054906101000a900473ffffffffffffffffffffffffffffffffffffffff1673ffffffffffffffffffffffffffffffffffffffff161415610367576040517f08c379a000000000000000000000000000000000000000000000000000000000815260040161035e906121d9565b60405180910390fd5b3373ffffffffffffffffffffffffffffffffffffffff168160000160009054906101000a900473ffffffffffffffffffffffffffffffffffffffff1673ffffffffffffffffffffffffffffffffffffffff16148061041457503373ffffffffffffffffffffffffffffffffffffffff168160010160009054906101000a900473ffffffffffffffffffffffffffffffffffffffff1673ffffffffffffffffffffffffffffffffffffffff16145b610453576040517f08c379a000000000000000000000000000000000000000000000000000000000815260040161044a90612239565b60405180910390fd5b6103e881600401546104659190612432565b4210156104a7576040517f08c379a000000000000000000000000000000000000000000000000000000000815260040161049e906122b9565b60405180910390fd5b60038160070154146104ee576040517f08c379a00000000000000000000000000000000000000000000000000000000081526004016104e590612259565b60405180910390fd5b80600601549250600360009054906101000a900473ffffffffffffffffffffffffffffffffffffffff1673ffffffffffffffffffffffffffffffffffffffff166344a11f656002836003016040516105469190612085565b908152602001604051809103902060009054906101000a900473ffffffffffffffffffffffffffffffffffffffff166040518263ffffffff1660e01b8152600401610591919061209c565b60206040518083038186803b1580156105a957600080fd5b505afa1580156105bd573d6000803e3d6000fd5b505050506040513d601f19601f820116820180604052508101906105e19190611a1b565b91508183121561070b578060050160009054906101000a900460ff161561068657600193508060000160009054906101000a900473ffffffffffffffffffffffffffffffffffffffff1673ffffffffffffffffffffffffffffffffffffffff166108fc826002015460026106559190612463565b9081150290604051600060405180830381858888f19350505050158015610680573d6000803e3d6000fd5b50610706565b600093508060010160009054906101000a900473ffffffffffffffffffffffffffffffffffffffff1673ffffffffffffffffffffffffffffffffffffffff166108fc826002015460026106d99190612463565b9081150290604051600060405180830381858888f19350505050158015610704573d6000803e3d6000fd5b505b610917565b81831315610833578060050160009054906101000a900460ff16156107ae57600093508060010160009054906101000a900473ffffffffffffffffffffffffffffffffffffffff1673ffffffffffffffffffffffffffffffffffffffff166108fc8260020154600261077d9190612463565b9081150290604051600060405180830381858888f193505050501580156107a8573d6000803e3d6000fd5b5061082e565b600193508060000160009054906101000a900473ffffffffffffffffffffffffffffffffffffffff1673ffffffffffffffffffffffffffffffffffffffff166108fc826002015460026108019190612463565b9081150290604051600060405180830381858888f1935050505015801561082c573d6000803e3d6000fd5b505b610916565b600293508060010160009054906101000a900473ffffffffffffffffffffffffffffffffffffffff1673ffffffffffffffffffffffffffffffffffffffff166108fc82600201549081150290604051600060405180830381858888f193505050501580156108a5573d6000803e3d6000fd5b508060000160009054906101000a900473ffffffffffffffffffffffffffffffffffffffff1673ffffffffffffffffffffffffffffffffffffffff166108fc82600201549081150290604051600060405180830381858888f19350505050158015610914573d6000803e3d6000fd5b505b5b8381600701819055505050505050565b600060016000838152602001908152602001600020604051806101000160405290816000820160009054906101000a900473ffffffffffffffffffffffffffffffffffffffff1673ffffffffffffffffffffffffffffffffffffffff1673ffffffffffffffffffffffffffffffffffffffff1681526020016001820160009054906101000a900473ffffffffffffffffffffffffffffffffffffffff1673ffffffffffffffffffffffffffffffffffffffff1673ffffffffffffffffffffffffffffffffffffffff16815260200160028201548152602001600382018054610a0e90612575565b80601f0160208091040260200160405190810160405280929190818152602001828054610a3a90612575565b8015610a875780601f10610a5c57610100808354040283529160200191610a87565b820191906000526020600020905b815481529060010190602001808311610a6a57829003601f168201915b50505050508152602001600482015481526020016005820160009054906101000a900460ff161515151581526020016006820154815260200160078201548152505090506000816040015111610b12576040517f08c379a0000000000000000000000000000000000000000000000000000000008152600401610b0990612219565b60405180910390fd5b3373ffffffffffffffffffffffffffffffffffffffff16816000015173ffffffffffffffffffffffffffffffffffffffff1614610b84576040517f08c379a0000000000000000000000000000000000000000000000000000000008152600401610b7b906122d9565b60405180910390fd5b806020015173ffffffffffffffffffffffffffffffffffffffff16816000015173ffffffffffffffffffffffffffffffffffffffff1614610bfa576040517f08c379a0000000000000000000000000000000000000000000000000000000008152600401610bf1906121b9565b60405180910390fd5b806000015173ffffffffffffffffffffffffffffffffffffffff166108fc82604001519081150290604051600060405180830381858888f19350505050158015610c48573d6000803e3d6000fd5b5060016000838152602001908152602001600020600080820160006101000a81549073ffffffffffffffffffffffffffffffffffffffff02191690556001820160006101000a81549073ffffffffffffffffffffffffffffffffffffffff02191690556002820160009055600382016000610cc3919061181e565b60048201600090556005820160006101000a81549060ff02191690556006820160009055600782016000905550505050565b60606000805467ffffffffffffffff811115610d3a577f4e487b7100000000000000000000000000000000000000000000000000000000600052604160045260246000fd5b604051908082528060200260200182016040528015610d7357816020015b610d6061185e565b815260200190600190039081610d585790505b50905060005b600054811015610f7a5760016000828152602001908152602001600020604051806101000160405290816000820160009054906101000a900473ffffffffffffffffffffffffffffffffffffffff1673ffffffffffffffffffffffffffffffffffffffff1673ffffffffffffffffffffffffffffffffffffffff1681526020016001820160009054906101000a900473ffffffffffffffffffffffffffffffffffffffff1673ffffffffffffffffffffffffffffffffffffffff1673ffffffffffffffffffffffffffffffffffffffff16815260200160028201548152602001600382018054610e6890612575565b80601f0160208091040260200160405190810160405280929190818152602001828054610e9490612575565b8015610ee15780601f10610eb657610100808354040283529160200191610ee1565b820191906000526020600020905b815481529060010190602001808311610ec457829003601f168201915b50505050508152602001600482015481526020016005820160009054906101000a900460ff1615151515815260200160068201548152602001600782015481525050828281518110610f5c577f4e487b7100000000000000000000000000000000000000000000000000000000600052603260045260246000fd5b60200260200101819052508080610f72906125d8565b915050610d79565b508091505090565b60006001600083815260200190815260200160002090506000816002015411610fe0576040517f08c379a0000000000000000000000000000000000000000000000000000000008152600401610fd790612299565b60405180910390fd5b3373ffffffffffffffffffffffffffffffffffffffff168160000160009054906101000a900473ffffffffffffffffffffffffffffffffffffffff1673ffffffffffffffffffffffffffffffffffffffff161415611073576040517f08c379a000000000000000000000000000000000000000000000000000000000815260040161106a90612179565b60405180910390fd5b8060010160009054906101000a900473ffffffffffffffffffffffffffffffffffffffff1673ffffffffffffffffffffffffffffffffffffffff168160000160009054906101000a900473ffffffffffffffffffffffffffffffffffffffff1673ffffffffffffffffffffffffffffffffffffffff1614611129576040517f08c379a000000000000000000000000000000000000000000000000000000000815260040161112090612279565b60405180910390fd5b8060020154341461116f576040517f08c379a0000000000000000000000000000000000000000000000000000000008152600401611166906122f9565b60405180910390fd5b338160010160006101000a81548173ffffffffffffffffffffffffffffffffffffffff021916908373ffffffffffffffffffffffffffffffffffffffff1602179055505050565b600034116111f9576040517f08c379a00000000000000000000000000000000000000000000000000000000081526004016111f0906121f9565b60405180910390fd5b6040518061010001604052803373ffffffffffffffffffffffffffffffffffffffff1681526020013373ffffffffffffffffffffffffffffffffffffffff1681526020013481526020018481526020018381526020018215158152602001600360009054906101000a900473ffffffffffffffffffffffffffffffffffffffff1673ffffffffffffffffffffffffffffffffffffffff166344a11f656002876040516112a5919061206e565b908152602001604051809103902060009054906101000a900473ffffffffffffffffffffffffffffffffffffffff166040518263ffffffff1660e01b81526004016112f0919061209c565b60206040518083038186803b15801561130857600080fd5b505afa15801561131c573d6000803e3d6000fd5b505050506040513d601f19601f820116820180604052508101906113409190611a1b565b81526020016003815250600160008054815260200190815260200160002060008201518160000160006101000a81548173ffffffffffffffffffffffffffffffffffffffff021916908373ffffffffffffffffffffffffffffffffffffffff16021790555060208201518160010160006101000a81548173ffffffffffffffffffffffffffffffffffffffff021916908373ffffffffffffffffffffffffffffffffffffffff1602179055506040820151816002015560608201518160030190805190602001906114129291906118d1565b506080820151816004015560a08201518160050160006101000a81548160ff02191690831515021790555060c0820151816006015560e082015181600701559050506000547fa85f9845510d83562eaa9e779b6973f58826879a69d5613807f0415e1ce692c433604051611486919061209c565b60405180910390a26000808154809291906114a0906125d8565b9190505550505050565b6114b261185e565b60006001600084815260200190815260200160002090506000816002015411611510576040517f08c379a000000000000000000000000000000000000000000000000000000000815260040161150790612199565b60405180910390fd5b60016000848152602001908152602001600020604051806101000160405290816000820160009054906101000a900473ffffffffffffffffffffffffffffffffffffffff1673ffffffffffffffffffffffffffffffffffffffff1673ffffffffffffffffffffffffffffffffffffffff1681526020016001820160009054906101000a900473ffffffffffffffffffffffffffffffffffffffff1673ffffffffffffffffffffffffffffffffffffffff1673ffffffffffffffffffffffffffffffffffffffff168152602001600282015481526020016003820180546115f590612575565b80601f016020809104026020016040519081016040528092919081815260200182805461162190612575565b801561166e5780601f106116435761010080835404028352916020019161166e565b820191906000526020600020905b81548152906001019060200180831161165157829003601f168201915b50505050508152602001600482015481526020016005820160009054906101000a900460ff1615151515815260200160068201548152602001600782015481525050915050919050565b60016020528060005260406000206000915090508060000160009054906101000a900473ffffffffffffffffffffffffffffffffffffffff16908060010160009054906101000a900473ffffffffffffffffffffffffffffffffffffffff169080600201549080600301805461172d90612575565b80601f016020809104026020016040519081016040528092919081815260200182805461175990612575565b80156117a65780601f1061177b576101008083540402835291602001916117a6565b820191906000526020600020905b81548152906001019060200180831161178957829003601f168201915b5050505050908060040154908060050160009054906101000a900460ff16908060060154908060070154905088565b6002818051602081018201805184825260208301602085012081835280955050505050506000915054906101000a900473ffffffffffffffffffffffffffffffffffffffff1681565b50805461182a90612575565b6000825580601f1061183c575061185b565b601f01602090049060005260206000209081019061185a9190611957565b5b50565b604051806101000160405280600073ffffffffffffffffffffffffffffffffffffffff168152602001600073ffffffffffffffffffffffffffffffffffffffff16815260200160008152602001606081526020016000815260200160001515815260200160008152602001600081525090565b8280546118dd90612575565b90600052602060002090601f0160209004810192826118ff5760008555611946565b82601f1061191857805160ff1916838001178555611946565b82800160010185558215611946579182015b8281111561194557825182559160200191906001019061192a565b5b5090506119539190611957565b5090565b5b80821115611970576000816000905550600101611958565b5090565b60006119876119828461237b565b612356565b90508281526020810184848401111561199f57600080fd5b6119aa848285612533565b509392505050565b6000813590506119c181612a0d565b92915050565b6000815190506119d681612a24565b92915050565b600082601f8301126119ed57600080fd5b81356119fd848260208601611974565b91505092915050565b600081359050611a1581612a3b565b92915050565b600060208284031215611a2d57600080fd5b6000611a3b848285016119c7565b91505092915050565b600060208284031215611a5657600080fd5b600082013567ffffffffffffffff811115611a7057600080fd5b611a7c848285016119dc565b91505092915050565b600080600060608486031215611a9a57600080fd5b600084013567ffffffffffffffff811115611ab457600080fd5b611ac0868287016119dc565b9350506020611ad186828701611a06565b9250506040611ae2868287016119b2565b9150509250925092565b600060208284031215611afe57600080fd5b6000611b0c84828501611a06565b91505092915050565b6000611b218383611ef0565b905092915050565b611b32816124bd565b82525050565b611b41816124bd565b82525050565b6000611b52826123d1565b611b5c81856123f4565b935083602082028501611b6e856123ac565b8060005b85811015611baa5784840389528151611b8b8582611b15565b9450611b96836123e7565b925060208a01995050600181019050611b72565b50829750879550505050505092915050565b611bc5816124cf565b82525050565b611bd4816124cf565b82525050565b611be38161250f565b82525050565b611bf2816124db565b82525050565b611c01816124db565b82525050565b6000611c12826123dc565b611c1c8185612405565b9350611c2c818560208601612542565b611c35816126dd565b840191505092915050565b6000611c4b826123dc565b611c558185612416565b9350611c65818560208601612542565b611c6e816126dd565b840191505092915050565b6000611c84826123dc565b611c8e8185612427565b9350611c9e818560208601612542565b80840191505092915050565b60008154611cb781612575565b611cc18186612427565b94506001821660008114611cdc5760018114611ced57611d20565b60ff19831686528186019350611d20565b611cf6856123bc565b60005b83811015611d1857815481890152600182019150602081019050611cf9565b838801955050505b50505092915050565b6000611d36602583612416565b9150611d41826126ee565b604082019050919050565b6000611d59601983612416565b9150611d648261273d565b602082019050919050565b6000611d7c603983612416565b9150611d8782612766565b604082019050919050565b6000611d9f601983612416565b9150611daa826127b5565b602082019050919050565b6000611dc2602283612416565b9150611dcd826127de565b604082019050919050565b6000611de5601883612416565b9150611df08261282d565b602082019050919050565b6000611e08602083612416565b9150611e1382612856565b602082019050919050565b6000611e2b601183612416565b9150611e368261287f565b602082019050919050565b6000611e4e602e83612416565b9150611e59826128a8565b604082019050919050565b6000611e71601b83612416565b9150611e7c826128f7565b602082019050919050565b6000611e94602583612416565b9150611e9f82612920565b604082019050919050565b6000611eb7602b83612416565b9150611ec28261296f565b604082019050919050565b6000611eda603183612416565b9150611ee5826129be565b604082019050919050565b600061010083016000830151611f096000860182611b29565b506020830151611f1c6020860182611b29565b506040830151611f2f6040860182612050565b5060608301518482036060860152611f478282611c07565b9150506080830151611f5c6080860182612050565b5060a0830151611f6f60a0860182611bbc565b5060c0830151611f8260c0860182611be9565b5060e0830151611f9560e0860182611be9565b508091505092915050565b600061010083016000830151611fb96000860182611b29565b506020830151611fcc6020860182611b29565b506040830151611fdf6040860182612050565b5060608301518482036060860152611ff78282611c07565b915050608083015161200c6080860182612050565b5060a083015161201f60a0860182611bbc565b5060c083015161203260c0860182611be9565b5060e083015161204560e0860182611be9565b508091505092915050565b61205981612505565b82525050565b61206881612505565b82525050565b600061207a8284611c79565b915081905092915050565b60006120918284611caa565b915081905092915050565b60006020820190506120b16000830184611b38565b92915050565b6000610100820190506120cd600083018b611b38565b6120da602083018a611b38565b6120e7604083018961205f565b81810360608301526120f98188611c40565b9050612108608083018761205f565b61211560a0830186611bcb565b61212260c0830185611bf8565b61212f60e0830184611bf8565b9998505050505050505050565b600060208201905081810360008301526121568184611b47565b905092915050565b60006020820190506121736000830184611bda565b92915050565b6000602082019050818103600083015261219281611d29565b9050919050565b600060208201905081810360008301526121b281611d4c565b9050919050565b600060208201905081810360008301526121d281611d6f565b9050919050565b600060208201905081810360008301526121f281611d92565b9050919050565b6000602082019050818103600083015261221281611db5565b9050919050565b6000602082019050818103600083015261223281611dd8565b9050919050565b6000602082019050818103600083015261225281611dfb565b9050919050565b6000602082019050818103600083015261227281611e1e565b9050919050565b6000602082019050818103600083015261229281611e41565b9050919050565b600060208201905081810360008301526122b281611e64565b9050919050565b600060208201905081810360008301526122d281611e87565b9050919050565b600060208201905081810360008301526122f281611eaa565b9050919050565b6000602082019050818103600083015261231281611ecd565b9050919050565b600060208201905081810360008301526123338184611fa0565b905092915050565b6000602082019050612350600083018461205f565b92915050565b6000612360612371565b905061236c82826125a7565b919050565b6000604051905090565b600067ffffffffffffffff821115612396576123956126ae565b5b61239f826126dd565b9050602081019050919050565b6000819050602082019050919050565b60008190508160005260206000209050919050565b600081519050919050565b600081519050919050565b6000602082019050919050565b600082825260208201905092915050565b600082825260208201905092915050565b600082825260208201905092915050565b600081905092915050565b600061243d82612505565b915061244883612505565b92508261245857612457612650565b5b828204905092915050565b600061246e82612505565b915061247983612505565b9250817fffffffffffffffffffffffffffffffffffffffffffffffffffffffffffffffff04831182151516156124b2576124b1612621565b5b828202905092915050565b60006124c8826124e5565b9050919050565b60008115159050919050565b6000819050919050565b600073ffffffffffffffffffffffffffffffffffffffff82169050919050565b6000819050919050565b600061251a82612521565b9050919050565b600061252c826124e5565b9050919050565b82818337600083830152505050565b60005b83811015612560578082015181840152602081019050612545565b8381111561256f576000848401525b50505050565b6000600282049050600182168061258d57607f821691505b602082108114156125a1576125a061267f565b5b50919050565b6125b0826126dd565b810181811067ffffffffffffffff821117156125cf576125ce6126ae565b5b80604052505050565b60006125e382612505565b91507fffffffffffffffffffffffffffffffffffffffffffffffffffffffffffffffff82141561261657612615612621565b5b600182019050919050565b7f4e487b7100000000000000000000000000000000000000000000000000000000600052601160045260246000fd5b7f4e487b7100000000000000000000000000000000000000000000000000000000600052601260045260246000fd5b7f4e487b7100000000000000000000000000000000000000000000000000000000600052602260045260246000fd5b7f4e487b7100000000000000000000000000000000000000000000000000000000600052604160045260246000fd5b6000601f19601f8301169050919050565b7f496d706f737369626c6520746f20666967687420616761696e737420796f757260008201527f73656c662e000000000000000000000000000000000000000000000000000000602082015250565b7f5468697320626174746c652069736e27742065786973742e0a00000000000000600082015250565b7f546865726520697320616c7265616479206f70706f6e656e742c20746869732060008201527f626174746c652063616e27742062652063616e63656c65642e00000000000000602082015250565b7f5468697320626174746c65206469646e27742073746172742e00000000000000600082015250565b7f596f75206861766520746f20626574206f6e20706f7369746976652076616c7560008201527f6521000000000000000000000000000000000000000000000000000000000000602082015250565b7f5468697320626174746c652069736e27742065786973742e0000000000000000600082015250565b7f596f7520617265206e6f742070617274206f66207468697320626174746c652e600082015250565b7f576974686472617720616c72656164792e000000000000000000000000000000600082015250565b7f5468697320626174746c6520697320636c6f7365642c206f70706f6e656e742060008201527f616c72656164792065786973742e000000000000000000000000000000000000602082015250565b7f426174746c65206e756d6265722069736e27742065786973742e0a0000000000600082015250565b7f546f6f206561726c7920746f20636865636b2077686f2069732074686520776960008201527f6e6e65722e000000000000000000000000000000000000000000000000000000602082015250565b7f4f6e6c79207468652063726561746f72206d61792063616e63656c206869732060008201527f6f776e20626174746c652e000000000000000000000000000000000000000000602082015250565b7f42657474696e672076616c75652069736e27742061732073706563696669656460008201527f20666f72207468697320626174746c652e000000000000000000000000000000602082015250565b612a16816124cf565b8114612a2157600080fd5b50565b612a2d816124db565b8114612a3857600080fd5b50565b612a4481612505565b8114612a4f57600080fd5b5056fea264697066735822122065ec0d6143c786dc9830f1002429bb7cd812453a30281a4cfec0449f0191d4f764736f6c63430008030033608060405234801561001057600080fd5b506102fc806100206000396000f3fe608060405234801561001057600080fd5b506004361061002b5760003560e01c806344a11f6514610030575b600080fd5b61004a60048036038101906100459190610144565b610060565b60405161005791906101f3565b60405180910390f35b6000808273ffffffffffffffffffffffffffffffffffffffff1663feaf968c6040518163ffffffff1660e01b815260040160a06040518083038186803b1580156100a957600080fd5b505afa1580156100bd573d6000803e3d6000fd5b505050506040513d601f19601f820116820180604052508101906100e1919061016d565b50505091505080915050919050565b6000813590506100ff8161026a565b92915050565b60008151905061011481610281565b92915050565b60008151905061012981610298565b92915050565b60008151905061013e816102af565b92915050565b60006020828403121561015657600080fd5b6000610164848285016100f0565b91505092915050565b600080600080600060a0868803121561018557600080fd5b60006101938882890161012f565b95505060206101a488828901610105565b94505060406101b58882890161011a565b93505060606101c68882890161011a565b92505060806101d78882890161012f565b9150509295509295909350565b6101ed81610220565b82525050565b600060208201905061020860008301846101e4565b92915050565b60006102198261022a565b9050919050565b6000819050919050565b600073ffffffffffffffffffffffffffffffffffffffff82169050919050565b6000819050919050565b600069ffffffffffffffffffff82169050919050565b6102738161020e565b811461027e57600080fd5b50565b61028a81610220565b811461029557600080fd5b50565b6102a18161024a565b81146102ac57600080fd5b50565b6102b881610254565b81146102c357600080fd5b5056fea2646970667358221220443f50e8455c89ef6df17a62fdf2e90b3f4f4f59dfd6ba56148ba1a27d3727f264736f6c63430008030033",
  "immutableReferences": {},
  "source": "// SPDX-License-Identifier: MIT\r\npragma solidity ^0.8.3;\r\nimport \"./Aggre.sol\";\r\n\r\ncontract BinaryOption{\r\n\r\n    uint256  public battleId; // unique id for each battle\r\n    mapping(uint256 => Battle) public battleInfo; // map of the existing battles\r\n    mapping(string=>address) public feedAddress; // map of addresses for the price feeds\r\n    Aggre public age;\r\n\r\n    event AddEvent(\r\n    uint256 indexed id,\r\n    address address_field\r\n    );\r\n\r\n    struct Battle {\r\n        address creator;\r\n        address opponent;\r\n        uint256 amountBet;\r\n        string betType;\r\n        uint betDate;\r\n        bool isUp;\r\n        int currVal;\r\n        int whoWin; // 0 for opponent, 1 for creator, 2 for draw, 3 if not over\r\n    }\r\n\r\n\r\n    constructor()  {\r\n        age=new Aggre();\r\n        bool isKovan=false; // true if kovan, otherwise rinkeby\r\n\r\n        if(isKovan){\r\n        feedAddress[\"EthVsUsd\"]=0x9326BFA02ADD2366b30bacB125260Af641031331;\r\n        }\r\n        else{\r\n        // those addresses (of rinkbey test network) can be found at: https://docs.chain.link/docs/ethereum-addresses/\r\n        feedAddress[\"eth_vs_usd\"]=0x8A753747A1Fa494EC906cE90E9f37563A8AF630e;\r\n        feedAddress[\"btc_vs_usd\"]=0xECe365B379E1dD183B20fc5f022230C044d51404;\r\n        feedAddress[\"eur_vs_usd\"]=0x78F9e60608bF48a1155b4B2A5e31F32318a1d85F;\r\n        feedAddress[\"usdc_vs_eth\"]=0xdCA36F27cbC4E38aE16C4E9f99D39b42337F6dcf;\r\n        feedAddress[\"dai_vs_usd\"]=0x2bA49Aaa16E6afD2a993473cfB70Fa8559B523cF;\r\n        feedAddress[\"dai_vs_eth\"]=0x74825DbC8BF76CC4e9494d0ecB210f676Efa001D;\r\n        feedAddress[\"sdefi_vs_usd\"]=0x0630521aC362bc7A19a4eE44b57cE72Ea34AD01c;\r\n        feedAddress[\"snx_vs_usd\"]=0xE96C4407597CD507002dF88ff6E0008AB41266Ee;\r\n        }\r\n\r\n    }\r\n\r\n\r\n    // a creator create a new battle\r\n    function addBattle(string memory betType,uint betDate,bool direction) public payable {\r\n        require(msg.value>0, \"You have to bet on positive value!\");\r\n        battleInfo[battleId]=Battle(msg.sender,msg.sender,msg.value,betType,betDate,direction,age.getThePrice(feedAddress[betType]),3);\r\n        emit AddEvent(battleId,msg.sender);\r\n        battleId++;\r\n    }\r\n\r\n\r\n    function getBattleInfo(uint256 battle_id) public payable returns(Battle memory) {\r\n        Battle storage bate=battleInfo[battle_id];\r\n        require(bate.amountBet>0, \"This battle isn't exist.\\n\");\r\n        return battleInfo[battle_id];\r\n    }\r\n\r\n    function getAll() public view returns (Battle[] memory){\r\n            Battle[] memory ret = new Battle[](battleId);\r\n            for (uint i = 0; i < battleId; i++) {\r\n                ret[i] = battleInfo[i];\r\n            }\r\n            return ret;\r\n        }\r\n\r\n    // an opponent is signed to battle number: battle_id\r\n    function acceptBattle(uint256 battle_id) public payable{\r\n\r\n        Battle storage bate=battleInfo[battle_id];\r\n        require(bate.amountBet>0, \"Battle number isn't exist.\\n\");\r\n        require(bate.creator!=msg.sender, \"Impossible to fight against yourself.\");\r\n        require(bate.creator==bate.opponent, \"This battle is closed, opponent already exist.\");\r\n        require(msg.value==bate.amountBet, \"Betting value isn't as specified for this battle.\");\r\n        bate.opponent=msg.sender;\r\n    }\r\n\r\n    // a creator cancels his battle\r\n    function cancelBattle(uint256 battle_id) public payable{\r\n        Battle memory bate=battleInfo[battle_id];\r\n        require(bate.amountBet>0, \"This battle isn't exist.\");\r\n        require(bate.creator==msg.sender, \"Only the creator may cancel his own battle.\");\r\n\r\n        require(bate.creator==bate.opponent, \"There is already opponent, this battle can't be canceled.\");\r\n        payable(bate.creator).transfer(bate.amountBet); // return the amount which was invested\r\n        delete battleInfo[battle_id]; // battle is canceled\r\n    }\r\n\r\n    // the winner may draw his money\r\n    function withdraw(uint256 battle_id) public {\r\n        int winner; // 0=lose 1=win 2=draw\r\n        int oldPrice;\r\n        int newPrice;\r\n        Battle storage bate=battleInfo[battle_id];\r\n        require(battleInfo[battle_id].creator!=battleInfo[battle_id].opponent, \"This battle didn't start.\"); // in case the creator try to withdraw before having opponent. He may cancel battle if he wants.\r\n        require((bate.creator==msg.sender||bate.opponent==msg.sender), \"You are not part of this battle.\");\r\n        require(block.timestamp>=bate.betDate/1000, \"Too early to check who is the winner.\");\r\n        require(bate.whoWin==3, \"Withdraw already.\");\r\n        oldPrice=bate.currVal;\r\n        newPrice=age.getThePrice(feedAddress[bate.betType]);\r\n        // deliver the money to the winner\r\n        if(oldPrice<newPrice){\r\n\r\n            if(bate.isUp){\r\n                winner=1;\r\n                payable(bate.creator).transfer(2*bate.amountBet); // multiply by 2 since we deliver the money of both the creator and his opponent\r\n            }\r\n            else{\r\n                winner=0;\r\n                payable(bate.opponent).transfer(2*bate.amountBet);\r\n            }\r\n\r\n        }\r\n        else if(oldPrice>newPrice){\r\n\r\n            if(bate.isUp){\r\n                winner=0;\r\n                payable(bate.opponent).transfer(2*bate.amountBet);\r\n            }\r\n            else{\r\n                winner=1;\r\n                payable(bate.creator).transfer(2*bate.amountBet);\r\n            }\r\n        }\r\n\r\n        else {\r\n            winner=2;\r\n            payable(bate.opponent).transfer(bate.amountBet);\r\n            payable(bate.creator).transfer(bate.amountBet);\r\n        }\r\n        bate.whoWin=winner;\r\n    }\r\n\r\n}",
  "sourcePath": "C:/Users/Admin/IdeaProjects/tau_Smart_contract/src/solidity/contracts/BinaryOption.sol",
  "compiler": {
    "name": "solc",
    "version": "0.8.3+commit.8d00100c.Emscripten.clang"
  },
  "schemaVersion": "3.3.4",
  "updatedAt": "2021-07-30T21:44:23.127Z",
  "networkType": "ethereum",
  "devdoc": {
    "kind": "dev",
    "methods": {},
    "version": 1
  },
  "userdoc": {
    "kind": "user",
    "methods": {},
    "version": 1
  }
}