{
  "contractName": "BinaryOption",
  "abi": [
    {
      "inputs": [],
      "stateMutability": "nonpayable",
      "type": "constructor"
    },
    {
      "anonymous": false,
      "inputs": [
        {
          "indexed": true,
          "internalType": "uint256",
          "name": "id",
          "type": "uint256"
        },
        {
          "indexed": false,
          "internalType": "address",
          "name": "address_field",
          "type": "address"
        }
      ],
      "name": "AddEvent",
      "type": "event"
    },
    {
      "anonymous": false,
      "inputs": [
        {
          "indexed": true,
          "internalType": "uint256",
          "name": "id",
          "type": "uint256"
        },
        {
          "indexed": true,
          "internalType": "uint256",
          "name": "amount",
          "type": "uint256"
        },
        {
          "indexed": false,
          "internalType": "int256",
          "name": "win",
          "type": "int256"
        }
      ],
      "name": "MyEvent",
      "type": "event"
    },
    {
      "inputs": [],
      "name": "age",
      "outputs": [
        {
          "internalType": "contract Aggre",
          "name": "",
          "type": "address"
        }
      ],
      "stateMutability": "view",
      "type": "function",
      "constant": true
    },
    {
      "inputs": [],
      "name": "battleId",
      "outputs": [
        {
          "internalType": "uint256",
          "name": "",
          "type": "uint256"
        }
      ],
      "stateMutability": "view",
      "type": "function",
      "constant": true
    },
    {
      "inputs": [
        {
          "internalType": "uint256",
          "name": "",
          "type": "uint256"
        }
      ],
      "name": "battleInfo",
      "outputs": [
        {
          "internalType": "address",
          "name": "creator",
          "type": "address"
        },
        {
          "internalType": "address",
          "name": "opponent",
          "type": "address"
        },
        {
          "internalType": "uint256",
          "name": "amountBet",
          "type": "uint256"
        },
        {
          "internalType": "string",
          "name": "betType",
          "type": "string"
        },
        {
          "internalType": "uint256",
          "name": "betDate",
          "type": "uint256"
        },
        {
          "internalType": "bool",
          "name": "isUp",
          "type": "bool"
        },
        {
          "internalType": "int256",
          "name": "currVal",
          "type": "int256"
        }
      ],
      "stateMutability": "view",
      "type": "function",
      "constant": true
    },
    {
      "inputs": [
        {
          "internalType": "string",
          "name": "",
          "type": "string"
        }
      ],
      "name": "feedAddress",
      "outputs": [
        {
          "internalType": "address",
          "name": "",
          "type": "address"
        }
      ],
      "stateMutability": "view",
      "type": "function",
      "constant": true
    },
    {
      "inputs": [],
      "name": "owner",
      "outputs": [
        {
          "internalType": "address",
          "name": "",
          "type": "address"
        }
      ],
      "stateMutability": "view",
      "type": "function",
      "constant": true
    },
    {
      "inputs": [],
      "name": "tempVal",
      "outputs": [
        {
          "internalType": "uint256",
          "name": "",
          "type": "uint256"
        }
      ],
      "stateMutability": "view",
      "type": "function",
      "constant": true
    },
    {
      "inputs": [
        {
          "internalType": "string",
          "name": "betType",
          "type": "string"
        },
        {
          "internalType": "uint256",
          "name": "betDate",
          "type": "uint256"
        },
        {
          "internalType": "bool",
          "name": "direction",
          "type": "bool"
        }
      ],
      "name": "addBattle",
      "outputs": [],
      "stateMutability": "payable",
      "type": "function",
      "payable": true
    },
    {
      "inputs": [
        {
          "internalType": "uint256",
          "name": "battle_id",
          "type": "uint256"
        }
      ],
      "name": "withdraw",
      "outputs": [],
      "stateMutability": "nonpayable",
      "type": "function"
    }
  ],
  "bytecode": "0x60806040523480156200001157600080fd5b506040516200002090620000f5565b604051809103906000f0801580156200003d573d6000803e3d6000fd5b50600660006101000a81548173ffffffffffffffffffffffffffffffffffffffff021916908373ffffffffffffffffffffffffffffffffffffffff160217905550738a753747a1fa494ec906ce90e9f37563a8af630e6005604051620000a3906200012a565b908152602001604051809103902060006101000a81548173ffffffffffffffffffffffffffffffffffffffff021916908373ffffffffffffffffffffffffffffffffffffffff16021790555062000175565b61031c806200177783390190565b60006200011260088362000141565b91506200011f826200014c565b600882019050919050565b6000620001378262000103565b9150819050919050565b600081905092915050565b7f4574685673557364000000000000000000000000000000000000000000000000600082015250565b6115f280620001856000396000f3fe60806040526004361061007b5760003560e01c8063a9e23bea1161004e578063a9e23bea1461012a578063bfc8b8c614610155578063db71dcdc14610171578063e4bb7a1e146101b45761007b565b806301a1b77814610080578063262a9dff146100ab5780632e1a7d4d146100d65780638da5cb5b146100ff575b600080fd5b34801561008c57600080fd5b506100956101f1565b6040516100a29190611166565b60405180910390f35b3480156100b757600080fd5b506100c06101f7565b6040516100cd91906110d0565b60405180910390f35b3480156100e257600080fd5b506100fd60048036038101906100f89190610ee1565b61021d565b005b34801561010b57600080fd5b5061011461084d565b604051610121919061103f565b60405180910390f35b34801561013657600080fd5b5061013f610873565b60405161014c9190611166565b60405180910390f35b61016f600480360381019061016a9190610e7a565b610879565b005b34801561017d57600080fd5b5061019860048036038101906101939190610ee1565b610b66565b6040516101ab979695949392919061105a565b60405180910390f35b3480156101c057600080fd5b506101db60048036038101906101d69190610e39565b610c7d565b6040516101e8919061103f565b60405180910390f35b60005481565b600660009054906101000a900473ffffffffffffffffffffffffffffffffffffffff1681565b600080600080600160008681526020019081526020016000206040518060e00160405290816000820160009054906101000a900473ffffffffffffffffffffffffffffffffffffffff1673ffffffffffffffffffffffffffffffffffffffff1673ffffffffffffffffffffffffffffffffffffffff1681526020016001820160009054906101000a900473ffffffffffffffffffffffffffffffffffffffff1673ffffffffffffffffffffffffffffffffffffffff1673ffffffffffffffffffffffffffffffffffffffff1681526020016002820154815260200160038201805461030790611366565b80601f016020809104026020016040519081016040528092919081815260200182805461033390611366565b80156103805780601f1061035557610100808354040283529160200191610380565b820191906000526020600020905b81548152906001019060200180831161036357829003601f168201915b50505050508152602001600482015481526020016005820160009054906101000a900460ff1615151515815260200160068201548152505090503373ffffffffffffffffffffffffffffffffffffffff16816000015173ffffffffffffffffffffffffffffffffffffffff16148061042757503373ffffffffffffffffffffffffffffffffffffffff16816020015173ffffffffffffffffffffffffffffffffffffffff16145b610466576040517f08c379a000000000000000000000000000000000000000000000000000000000815260040161045d90611126565b60405180910390fd5b80608001514210156104ad576040517f08c379a00000000000000000000000000000000000000000000000000000000081526004016104a490611146565b60405180910390fd5b8060c001519250600660009054906101000a900473ffffffffffffffffffffffffffffffffffffffff1673ffffffffffffffffffffffffffffffffffffffff166344a11f65600583606001516040516105069190611028565b908152602001604051809103902060009054906101000a900473ffffffffffffffffffffffffffffffffffffffff166040518263ffffffff1660e01b8152600401610551919061103f565b60206040518083038186803b15801561056957600080fd5b505afa15801561057d573d6000803e3d6000fd5b505050506040513d601f19601f820116820180604052508101906105a19190610e10565b91508183121561067e578060a00151156106195760019350806000015173ffffffffffffffffffffffffffffffffffffffff166108fc826040015160026105e89190611254565b9081150290604051600060405180830381858888f19350505050158015610613573d6000803e3d6000fd5b50610679565b60009350806020015173ffffffffffffffffffffffffffffffffffffffff166108fc8260400151600261064c9190611254565b9081150290604051600060405180830381858888f19350505050158015610677573d6000803e3d6000fd5b505b6107fd565b81831315610759578060a00151156106f45760009350806020015173ffffffffffffffffffffffffffffffffffffffff166108fc826040015160026106c39190611254565b9081150290604051600060405180830381858888f193505050501580156106ee573d6000803e3d6000fd5b50610754565b60019350806000015173ffffffffffffffffffffffffffffffffffffffff166108fc826040015160026107279190611254565b9081150290604051600060405180830381858888f19350505050158015610752573d6000803e3d6000fd5b505b6107fc565b60029350806020015173ffffffffffffffffffffffffffffffffffffffff166108fc82604001519081150290604051600060405180830381858888f193505050501580156107ab573d6000803e3d6000fd5b50806000015173ffffffffffffffffffffffffffffffffffffffff166108fc82604001519081150290604051600060405180830381858888f193505050501580156107fa573d6000803e3d6000fd5b505b5b6002816040015161080e9190611254565b857f7fffe08228477bce61f9ca2eef1f0b161d994daea4389d58ebde865513661c168660405161083e91906110eb565b60405180910390a35050505050565b600260009054906101000a900473ffffffffffffffffffffffffffffffffffffffff1681565b60035481565b600034116108bc576040517f08c379a00000000000000000000000000000000000000000000000000000000081526004016108b390611106565b60405180910390fd5b6040518060e001604052803373ffffffffffffffffffffffffffffffffffffffff1681526020013373ffffffffffffffffffffffffffffffffffffffff168152602001348152602001848152602001834261091791906111fe565b81526020018215158152602001600660009054906101000a900473ffffffffffffffffffffffffffffffffffffffff1673ffffffffffffffffffffffffffffffffffffffff166344a11f656005876040516109729190611028565b908152602001604051809103902060009054906101000a900473ffffffffffffffffffffffffffffffffffffffff166040518263ffffffff1660e01b81526004016109bd919061103f565b60206040518083038186803b1580156109d557600080fd5b505afa1580156109e9573d6000803e3d6000fd5b505050506040513d601f19601f82011682018060405250810190610a0d9190610e10565b815250600160008054815260200190815260200160002060008201518160000160006101000a81548173ffffffffffffffffffffffffffffffffffffffff021916908373ffffffffffffffffffffffffffffffffffffffff16021790555060208201518160010160006101000a81548173ffffffffffffffffffffffffffffffffffffffff021916908373ffffffffffffffffffffffffffffffffffffffff160217905550604082015181600201556060820151816003019080519060200190610ad8929190610cc6565b506080820151816004015560a08201518160050160006101000a81548160ff02191690831515021790555060c082015181600601559050506000547fa85f9845510d83562eaa9e779b6973f58826879a69d5613807f0415e1ce692c433604051610b42919061103f565b60405180910390a2600080815480929190610b5c906113c9565b9190505550505050565b60016020528060005260406000206000915090508060000160009054906101000a900473ffffffffffffffffffffffffffffffffffffffff16908060010160009054906101000a900473ffffffffffffffffffffffffffffffffffffffff1690806002015490806003018054610bdb90611366565b80601f0160208091040260200160405190810160405280929190818152602001828054610c0790611366565b8015610c545780601f10610c2957610100808354040283529160200191610c54565b820191906000526020600020905b815481529060010190602001808311610c3757829003601f168201915b5050505050908060040154908060050160009054906101000a900460ff16908060060154905087565b6005818051602081018201805184825260208301602085012081835280955050505050506000915054906101000a900473ffffffffffffffffffffffffffffffffffffffff1681565b828054610cd290611366565b90600052602060002090601f016020900481019282610cf45760008555610d3b565b82601f10610d0d57805160ff1916838001178555610d3b565b82800160010185558215610d3b579182015b82811115610d3a578251825591602001919060010190610d1f565b5b509050610d489190610d4c565b5090565b5b80821115610d65576000816000905550600101610d4d565b5090565b6000610d7c610d77846111a6565b611181565b905082815260208101848484011115610d9457600080fd5b610d9f848285611324565b509392505050565b600081359050610db681611577565b92915050565b600081519050610dcb8161158e565b92915050565b600082601f830112610de257600080fd5b8135610df2848260208601610d69565b91505092915050565b600081359050610e0a816115a5565b92915050565b600060208284031215610e2257600080fd5b6000610e3084828501610dbc565b91505092915050565b600060208284031215610e4b57600080fd5b600082013567ffffffffffffffff811115610e6557600080fd5b610e7184828501610dd1565b91505092915050565b600080600060608486031215610e8f57600080fd5b600084013567ffffffffffffffff811115610ea957600080fd5b610eb586828701610dd1565b9350506020610ec686828701610dfb565b9250506040610ed786828701610da7565b9150509250925092565b600060208284031215610ef357600080fd5b6000610f0184828501610dfb565b91505092915050565b610f13816112ae565b82525050565b610f22816112c0565b82525050565b610f3181611300565b82525050565b610f40816112cc565b82525050565b6000610f51826111d7565b610f5b81856111e2565b9350610f6b818560208601611333565b610f748161149f565b840191505092915050565b6000610f8a826111d7565b610f9481856111f3565b9350610fa4818560208601611333565b80840191505092915050565b6000610fbd6022836111e2565b9150610fc8826114b0565b604082019050919050565b6000610fe06020836111e2565b9150610feb826114ff565b602082019050919050565b60006110036025836111e2565b915061100e82611528565b604082019050919050565b611022816112f6565b82525050565b60006110348284610f7f565b915081905092915050565b60006020820190506110546000830184610f0a565b92915050565b600060e08201905061106f600083018a610f0a565b61107c6020830189610f0a565b6110896040830188611019565b818103606083015261109b8187610f46565b90506110aa6080830186611019565b6110b760a0830185610f19565b6110c460c0830184610f37565b98975050505050505050565b60006020820190506110e56000830184610f28565b92915050565b60006020820190506111006000830184610f37565b92915050565b6000602082019050818103600083015261111f81610fb0565b9050919050565b6000602082019050818103600083015261113f81610fd3565b9050919050565b6000602082019050818103600083015261115f81610ff6565b9050919050565b600060208201905061117b6000830184611019565b92915050565b600061118b61119c565b90506111978282611398565b919050565b6000604051905090565b600067ffffffffffffffff8211156111c1576111c0611470565b5b6111ca8261149f565b9050602081019050919050565b600081519050919050565b600082825260208201905092915050565b600081905092915050565b6000611209826112f6565b9150611214836112f6565b9250827fffffffffffffffffffffffffffffffffffffffffffffffffffffffffffffffff0382111561124957611248611412565b5b828201905092915050565b600061125f826112f6565b915061126a836112f6565b9250817fffffffffffffffffffffffffffffffffffffffffffffffffffffffffffffffff04831182151516156112a3576112a2611412565b5b828202905092915050565b60006112b9826112d6565b9050919050565b60008115159050919050565b6000819050919050565b600073ffffffffffffffffffffffffffffffffffffffff82169050919050565b6000819050919050565b600061130b82611312565b9050919050565b600061131d826112d6565b9050919050565b82818337600083830152505050565b60005b83811015611351578082015181840152602081019050611336565b83811115611360576000848401525b50505050565b6000600282049050600182168061137e57607f821691505b6020821081141561139257611391611441565b5b50919050565b6113a18261149f565b810181811067ffffffffffffffff821117156113c0576113bf611470565b5b80604052505050565b60006113d4826112f6565b91507fffffffffffffffffffffffffffffffffffffffffffffffffffffffffffffffff82141561140757611406611412565b5b600182019050919050565b7f4e487b7100000000000000000000000000000000000000000000000000000000600052601160045260246000fd5b7f4e487b7100000000000000000000000000000000000000000000000000000000600052602260045260246000fd5b7f4e487b7100000000000000000000000000000000000000000000000000000000600052604160045260246000fd5b6000601f19601f8301169050919050565b7f596f75206861766520746f20626574206f6e20706f7369746976652076616c7560008201527f6521000000000000000000000000000000000000000000000000000000000000602082015250565b7f596f7520617265206e6f742070617274206f66207468697320626174746c652e600082015250565b7f546f6f206561726c7920746f20636865636b2077686f2069732074686520776960008201527f6e6e65722e000000000000000000000000000000000000000000000000000000602082015250565b611580816112c0565b811461158b57600080fd5b50565b611597816112cc565b81146115a257600080fd5b50565b6115ae816112f6565b81146115b957600080fd5b5056fea26469706673582212202b6943eff14ba2143c2a99fa71b1116bdc8336a9615662fb341fb96f0ab85c5164736f6c63430008030033608060405234801561001057600080fd5b506102fc806100206000396000f3fe608060405234801561001057600080fd5b506004361061002b5760003560e01c806344a11f6514610030575b600080fd5b61004a60048036038101906100459190610144565b610060565b60405161005791906101f3565b60405180910390f35b6000808273ffffffffffffffffffffffffffffffffffffffff1663feaf968c6040518163ffffffff1660e01b815260040160a06040518083038186803b1580156100a957600080fd5b505afa1580156100bd573d6000803e3d6000fd5b505050506040513d601f19601f820116820180604052508101906100e1919061016d565b50505091505080915050919050565b6000813590506100ff8161026a565b92915050565b60008151905061011481610281565b92915050565b60008151905061012981610298565b92915050565b60008151905061013e816102af565b92915050565b60006020828403121561015657600080fd5b6000610164848285016100f0565b91505092915050565b600080600080600060a0868803121561018557600080fd5b60006101938882890161012f565b95505060206101a488828901610105565b94505060406101b58882890161011a565b93505060606101c68882890161011a565b92505060806101d78882890161012f565b9150509295509295909350565b6101ed81610220565b82525050565b600060208201905061020860008301846101e4565b92915050565b60006102198261022a565b9050919050565b6000819050919050565b600073ffffffffffffffffffffffffffffffffffffffff82169050919050565b6000819050919050565b600069ffffffffffffffffffff82169050919050565b6102738161020e565b811461027e57600080fd5b50565b61028a81610220565b811461029557600080fd5b50565b6102a18161024a565b81146102ac57600080fd5b50565b6102b881610254565b81146102c357600080fd5b5056fea2646970667358221220b767ae55adcc5dbb2dd6ede2d24b02a3ab11a533e83c68a6429280a87967858c64736f6c63430008030033",
  "immutableReferences": {},
  "source": "// SPDX-License-Identifier: MIT\r\npragma solidity ^0.8.3;\r\nimport \"./Aggre.sol\";\r\n\r\ncontract BinaryOption{\r\n\r\n    uint256  public battleId; // unique id for each battle\r\n    mapping(uint256 => Battle) public battleInfo; // map of the existing battles\r\n    address public owner; // the creator of the contract (we)\r\n    uint  public tempVal;\r\n    int feed;\r\n    mapping(string=>address) public feedAddress;\r\n    Aggre public age;\r\n\r\n    event MyEvent(\r\n    uint256 indexed id,\r\n    uint256 indexed amount,\r\n    int win\r\n    );\r\n\r\n    event AddEvent(\r\n    uint256 indexed id,\r\n    address address_field\r\n    );\r\n\r\n    struct Battle {\r\n        address creator;\r\n        address opponent;\r\n        uint256 amountBet;\r\n        string betType;\r\n        uint betDate;\r\n        bool isUp;\r\n        int currVal;\r\n    }\r\n\r\n    constructor()  {\r\n        age=new Aggre();\r\n        //owner = msg.sender;\r\n\r\n        // those addresses (of rinkbey test network) can be found at: https://docs.chain.link/docs/ethereum-addresses/\r\n        feedAddress[\"EthVsUsd\"]=0x8A753747A1Fa494EC906cE90E9f37563A8AF630e;\r\n        //feedAddress[\"BtcVsUsd\"]=0x6135b13325bfC4B00278B4abC5e20bbce2D6580e;\r\n        //feedAddress[\"EurVsUsd\"]=0x0c15Ab9A0DB086e062194c273CC79f41597Bbf13;\r\n    }\r\n\r\n    // a creator create a new battle\r\n    function addBattle(string memory betType,uint betDate,bool direction) public payable {\r\n        require(msg.value>0, \"You have to bet on positive value!\");\r\n        battleInfo[battleId]=Battle(msg.sender,msg.sender,msg.value,betType,block.timestamp+betDate,direction,age.getThePrice(feedAddress[betType]));\r\n        emit AddEvent(battleId,msg.sender);\r\n        battleId++;\r\n    }\r\n\r\n    /*function getAmount(uint256 battle_id) public view returns (uint){\r\n            return battleInfo[battle_id].amountBet;\r\n        }*/\r\n\r\n        /*function getRound() public view returns (uint80){\r\n        return age.getTheRoundId(0x8A753747A1Fa494EC906cE90E9f37563A8AF630e);\r\n        }\r\n\r\n        function getByDate(uint80 rnd) public view returns (uint){\r\n        return age.getHistoricalPrice(0x8A753747A1Fa494EC906cE90E9f37563A8AF630e,rnd);\r\n        }*/\r\n\r\n    /*function getBattleInfo(uint256 battle_id) public payable returns(Battle memory) {\r\n        Battle storage bate=battleInfo[battle_id];\r\n        require(bate.amountBet>0, \"Battle number isn't exist.\\n\");\r\n        require(battleInfo[battle_id].creator!=battleInfo[battle_id].opponent, \"This battle didn't start.\");\r\n        return battleInfo[battle_id];\r\n    }*/\r\n\r\n\r\n\r\n    /*function setPrice() public {\r\n        feed= age.getThePrice(0x9326BFA02ADD2366b30bacB125260Af641031331);\r\n    }\r\n    function getPrice() public view returns (int){\r\n        return feed;\r\n    }\r\n\r\n    function getPriceHistorical(uint80 roundId) public view returns (int){\r\n\r\n        return age.getHistoricalPrice(roundId);\r\n    }*/\r\n\r\n\r\n    /*function getId() public view returns (uint256){\r\n        return battleId;\r\n    }*/\r\n\r\n    /*function getEvent() public {\r\n        emit MyEvent(battleId,battleId);\r\n    }*/\r\n\r\n    // an opponent is signed to battle number: battleid\r\n    /*function acceptBattle(uint256 battle_id) public payable{\r\n\r\n        Battle storage bate=battleInfo[battle_id];\r\n        require(bate.amountBet>0, \"Battle number isn't exist.\\n\");\r\n        //require(bate.creator!=msg.sender, \"Impossible to fight against yourself.\"); // in comment until we test with two different players\r\n        require(bate.creator==bate.opponent, \"This battle is closed, opponent already exist.\");\r\n        require(msg.value==bate.amountBet, \"Betting value isn't as specified for this battle.\");\r\n        bate.opponent=msg.sender;\r\n    }*/\r\n\r\n    // a creator cancel his battle\r\n    /*function cancelBattle(uint256 battle_id) public payable{\r\n        Battle memory bate=battleInfo[battle_id];\r\n        require(bate.amountBet>0, \"Battle number isn't exist.\");\r\n        require(bate.creator==msg.sender, \"Only the creator may cancel his own battle.\");\r\n\r\n        require(bate.creator==bate.opponent, \"There is already opponent, this battle can't be canceled.\");\r\n        payable(bate.creator).transfer(bate.amountBet); // return the amount invested\r\n        delete battleInfo[battle_id]; // battle is canceled\r\n    }*/\r\n\r\n\r\n    /*function getcurrVal(uint256 battle_id) public view returns (uint256){\r\n        require(msg.sender==battleInfo[battle_id].creator||msg.sender==battleInfo[battle_id].opponent, \"You are not part of this battle.\");\r\n        return battleInfo[battle_id].amountBet;\r\n    }*/\r\n\r\n    // the winner may draw his money\r\n    function withdraw(uint256 battle_id) public {\r\n        int winner; // 0=lose 1=win 2=draw\r\n        int oldPrice;\r\n        int newPrice;\r\n        Battle memory bate=battleInfo[battle_id];\r\n        //require(battleInfo[battle_id].creator!=battleInfo[battle_id].opponent, \"This battle didn't start.\"); // in case the creator try to withdraw before having opponent. He may cancel battle if he wants.\r\n        require((bate.creator==msg.sender||bate.opponent==msg.sender), \"You are not part of this battle.\"); // can be deleted if comes with getcurrval\r\n        require(block.timestamp>=bate.betDate, \"Too early to check who is the winner.\");\r\n        oldPrice=bate.currVal;\r\n        //newPrice=age.priceBinarySearch(feedAddress[bate.betType],bate.betDate);\r\n        newPrice=age.getThePrice(feedAddress[bate.betType]);\r\n\r\n        // deliver the money to the winner\r\n        if(oldPrice<newPrice){\r\n\r\n            if(bate.isUp){\r\n                winner=1;\r\n                payable(bate.creator).transfer(2*bate.amountBet); // multiply by 2 since we deliver the money of both the creator and his opponent\r\n            }\r\n            else{\r\n                winner=0;\r\n                payable(bate.opponent).transfer(2*bate.amountBet);\r\n            }\r\n\r\n        }\r\n        else if(oldPrice>newPrice){\r\n\r\n            if(bate.isUp){\r\n                winner=0;\r\n                payable(bate.opponent).transfer(2*bate.amountBet);\r\n            }\r\n            else{\r\n                winner=1;\r\n                payable(bate.creator).transfer(2*bate.amountBet);\r\n            }\r\n        }\r\n        // if nothing has changed, the creator lose his money\r\n        else {\r\n            winner=2;\r\n            payable(bate.opponent).transfer(bate.amountBet);\r\n            payable(bate.creator).transfer(bate.amountBet);\r\n        }\r\n        // sign the event\r\n        emit MyEvent(battle_id,bate.amountBet*2,winner);\r\n        //delete battleInfo[battle_id]; // battle is finished\r\n    }\r\n\r\n    //just for testing\r\n    /*function removeBattle(uint256 battle_id) public {\r\n        require(battleInfo[battle_id].amountBet>0, \"Battle number isn't exist.\\n\");\r\n        //delete battleInfo[battle_id]; // battle is canceled\r\n    }*/\r\n\r\n\r\n\r\n}",
  "sourcePath": "/mnt/c/users/admin/ideaprojects/tau_smart_contract/src/solidity/contracts/BinaryOption.sol",
  "compiler": {
    "name": "solc",
    "version": "0.8.3+commit.8d00100c.Emscripten.clang"
  },
  "schemaVersion": "3.4.1",
  "updatedAt": "2021-07-22T11:41:45.214Z",
  "networkType": "ethereum",
  "devdoc": {
    "kind": "dev",
    "methods": {},
    "version": 1
  },
  "userdoc": {
    "kind": "user",
    "methods": {},
    "version": 1
  }
}