{
  "contractName": "BinaryOption",
  "abi": [
    {
      "inputs": [],
      "stateMutability": "nonpayable",
      "type": "constructor"
    },
    {
      "anonymous": false,
      "inputs": [
        {
          "indexed": true,
          "internalType": "uint256",
          "name": "id",
          "type": "uint256"
        },
        {
          "indexed": true,
          "internalType": "uint256",
          "name": "amount",
          "type": "uint256"
        },
        {
          "indexed": false,
          "internalType": "int256",
          "name": "win",
          "type": "int256"
        }
      ],
      "name": "MyEvent",
      "type": "event"
    },
    {
      "inputs": [],
      "name": "age",
      "outputs": [
        {
          "internalType": "contract Aggre",
          "name": "",
          "type": "address"
        }
      ],
      "stateMutability": "view",
      "type": "function"
    },
    {
      "inputs": [],
      "name": "battleId",
      "outputs": [
        {
          "internalType": "uint256",
          "name": "",
          "type": "uint256"
        }
      ],
      "stateMutability": "view",
      "type": "function"
    },
    {
      "inputs": [
        {
          "internalType": "uint256",
          "name": "",
          "type": "uint256"
        }
      ],
      "name": "battleInfo",
      "outputs": [
        {
          "internalType": "address",
          "name": "creator",
          "type": "address"
        },
        {
          "internalType": "address",
          "name": "opponent",
          "type": "address"
        },
        {
          "internalType": "uint256",
          "name": "amountBet",
          "type": "uint256"
        },
        {
          "internalType": "string",
          "name": "betType",
          "type": "string"
        },
        {
          "internalType": "uint256",
          "name": "betDate",
          "type": "uint256"
        },
        {
          "internalType": "bool",
          "name": "isUp",
          "type": "bool"
        },
        {
          "internalType": "int256",
          "name": "currVal",
          "type": "int256"
        }
      ],
      "stateMutability": "view",
      "type": "function"
    },
    {
      "inputs": [
        {
          "internalType": "string",
          "name": "",
          "type": "string"
        }
      ],
      "name": "feedAddress",
      "outputs": [
        {
          "internalType": "address",
          "name": "",
          "type": "address"
        }
      ],
      "stateMutability": "view",
      "type": "function"
    },
    {
      "inputs": [],
      "name": "owner",
      "outputs": [
        {
          "internalType": "address",
          "name": "",
          "type": "address"
        }
      ],
      "stateMutability": "view",
      "type": "function"
    },
    {
      "inputs": [],
      "name": "tempVal",
      "outputs": [
        {
          "internalType": "uint256",
          "name": "",
          "type": "uint256"
        }
      ],
      "stateMutability": "view",
      "type": "function"
    },
    {
      "inputs": [
        {
          "internalType": "string",
          "name": "betType",
          "type": "string"
        },
        {
          "internalType": "uint256",
          "name": "betDate",
          "type": "uint256"
        },
        {
          "internalType": "bool",
          "name": "direction",
          "type": "bool"
        }
      ],
      "name": "addBattle",
      "outputs": [
        {
          "internalType": "uint256",
          "name": "",
          "type": "uint256"
        }
      ],
      "stateMutability": "payable",
      "type": "function"
    },
    {
      "inputs": [
        {
          "internalType": "uint256",
          "name": "battle_id",
          "type": "uint256"
        }
      ],
      "name": "getBattleInfo",
      "outputs": [
        {
          "components": [
            {
              "internalType": "address",
              "name": "creator",
              "type": "address"
            },
            {
              "internalType": "address",
              "name": "opponent",
              "type": "address"
            },
            {
              "internalType": "uint256",
              "name": "amountBet",
              "type": "uint256"
            },
            {
              "internalType": "string",
              "name": "betType",
              "type": "string"
            },
            {
              "internalType": "uint256",
              "name": "betDate",
              "type": "uint256"
            },
            {
              "internalType": "bool",
              "name": "isUp",
              "type": "bool"
            },
            {
              "internalType": "int256",
              "name": "currVal",
              "type": "int256"
            }
          ],
          "internalType": "struct BinaryOption.Battle",
          "name": "",
          "type": "tuple"
        }
      ],
      "stateMutability": "payable",
      "type": "function"
    },
    {
      "inputs": [
        {
          "internalType": "uint256",
          "name": "battle_id",
          "type": "uint256"
        }
      ],
      "name": "acceptBattle",
      "outputs": [],
      "stateMutability": "payable",
      "type": "function"
    },
    {
      "inputs": [
        {
          "internalType": "uint256",
          "name": "battle_id",
          "type": "uint256"
        }
      ],
      "name": "cancelBattle",
      "outputs": [],
      "stateMutability": "payable",
      "type": "function"
    },
    {
      "inputs": [
        {
          "internalType": "uint256",
          "name": "battle_id",
          "type": "uint256"
        }
      ],
      "name": "withdraw",
      "outputs": [],
      "stateMutability": "nonpayable",
      "type": "function"
    }
  ],
  "bytecode": "0x60806040523480156200001157600080fd5b506040516200002090620000f5565b604051809103906000f0801580156200003d573d6000803e3d6000fd5b50600660006101000a81548173ffffffffffffffffffffffffffffffffffffffff021916908373ffffffffffffffffffffffffffffffffffffffff160217905550738a753747a1fa494ec906ce90e9f37563a8af630e6005604051620000a3906200012a565b908152602001604051809103902060006101000a81548173ffffffffffffffffffffffffffffffffffffffff021916908373ffffffffffffffffffffffffffffffffffffffff16021790555062000175565b61031c806200259383390190565b60006200011260088362000141565b91506200011f826200014c565b600882019050919050565b6000620001378262000103565b9150819050919050565b600081905092915050565b7f4574685673557364000000000000000000000000000000000000000000000000600082015250565b61240e80620001856000396000f3fe60806040526004361061009c5760003560e01c80638da5cb5b116100645780638da5cb5b14610158578063a9e23bea14610183578063bfc8b8c6146101ae578063c0a6e9d7146101de578063db71dcdc1461020e578063e4bb7a1e146102515761009c565b806301a1b778146100a1578063262a9dff146100cc5780632e1a7d4d146100f75780634c4c447e1461012057806381ec30f21461013c575b600080fd5b3480156100ad57600080fd5b506100b661028e565b6040516100c39190611dba565b60405180910390f35b3480156100d857600080fd5b506100e1610294565b6040516100ee9190611c22565b60405180910390f35b34801561010357600080fd5b5061011e6004803603810190610119919061182d565b6102ba565b005b61013a6004803603810190610135919061182d565b6108ea565b005b6101566004803603810190610151919061182d565b610ca5565b005b34801561016457600080fd5b5061016d610e46565b60405161017a9190611b91565b60405180910390f35b34801561018f57600080fd5b50610198610e6c565b6040516101a59190611dba565b60405180910390f35b6101c860048036038101906101c391906117c6565b610e72565b6040516101d59190611dba565b60405180910390f35b6101f860048036038101906101f3919061182d565b611129565b6040516102059190611d98565b60405180910390f35b34801561021a57600080fd5b506102356004803603810190610230919061182d565b611407565b6040516102489796959493929190611bac565b60405180910390f35b34801561025d57600080fd5b5061027860048036038101906102739190611785565b61151e565b6040516102859190611b91565b60405180910390f35b60005481565b600660009054906101000a900473ffffffffffffffffffffffffffffffffffffffff1681565b600080600080600160008681526020019081526020016000206040518060e00160405290816000820160009054906101000a900473ffffffffffffffffffffffffffffffffffffffff1673ffffffffffffffffffffffffffffffffffffffff1673ffffffffffffffffffffffffffffffffffffffff1681526020016001820160009054906101000a900473ffffffffffffffffffffffffffffffffffffffff1673ffffffffffffffffffffffffffffffffffffffff1673ffffffffffffffffffffffffffffffffffffffff168152602001600282015481526020016003820180546103a490611fcb565b80601f01602080910402602001604051908101604052809291908181526020018280546103d090611fcb565b801561041d5780601f106103f25761010080835404028352916020019161041d565b820191906000526020600020905b81548152906001019060200180831161040057829003601f168201915b50505050508152602001600482015481526020016005820160009054906101000a900460ff1615151515815260200160068201548152505090503373ffffffffffffffffffffffffffffffffffffffff16816000015173ffffffffffffffffffffffffffffffffffffffff1614806104c457503373ffffffffffffffffffffffffffffffffffffffff16816020015173ffffffffffffffffffffffffffffffffffffffff16145b610503576040517f08c379a00000000000000000000000000000000000000000000000000000000081526004016104fa90611cb8565b60405180910390fd5b806080015142101561054a576040517f08c379a000000000000000000000000000000000000000000000000000000000815260040161054190611d38565b60405180910390fd5b8060c001519250600660009054906101000a900473ffffffffffffffffffffffffffffffffffffffff1673ffffffffffffffffffffffffffffffffffffffff166344a11f65600583606001516040516105a39190611b7a565b908152602001604051809103902060009054906101000a900473ffffffffffffffffffffffffffffffffffffffff166040518263ffffffff1660e01b81526004016105ee9190611b91565b60206040518083038186803b15801561060657600080fd5b505afa15801561061a573d6000803e3d6000fd5b505050506040513d601f19601f8201168201806040525081019061063e919061175c565b91508183121561071b578060a00151156106b65760019350806000015173ffffffffffffffffffffffffffffffffffffffff166108fc826040015160026106859190611eb9565b9081150290604051600060405180830381858888f193505050501580156106b0573d6000803e3d6000fd5b50610716565b60009350806020015173ffffffffffffffffffffffffffffffffffffffff166108fc826040015160026106e99190611eb9565b9081150290604051600060405180830381858888f19350505050158015610714573d6000803e3d6000fd5b505b61089a565b818313156107f6578060a00151156107915760009350806020015173ffffffffffffffffffffffffffffffffffffffff166108fc826040015160026107609190611eb9565b9081150290604051600060405180830381858888f1935050505015801561078b573d6000803e3d6000fd5b506107f1565b60019350806000015173ffffffffffffffffffffffffffffffffffffffff166108fc826040015160026107c49190611eb9565b9081150290604051600060405180830381858888f193505050501580156107ef573d6000803e3d6000fd5b505b610899565b60029350806020015173ffffffffffffffffffffffffffffffffffffffff166108fc82604001519081150290604051600060405180830381858888f19350505050158015610848573d6000803e3d6000fd5b50806000015173ffffffffffffffffffffffffffffffffffffffff166108fc82604001519081150290604051600060405180830381858888f19350505050158015610897573d6000803e3d6000fd5b505b5b600281604001516108ab9190611eb9565b857f7fffe08228477bce61f9ca2eef1f0b161d994daea4389d58ebde865513661c16866040516108db9190611c3d565b60405180910390a35050505050565b6000600160008381526020019081526020016000206040518060e00160405290816000820160009054906101000a900473ffffffffffffffffffffffffffffffffffffffff1673ffffffffffffffffffffffffffffffffffffffff1673ffffffffffffffffffffffffffffffffffffffff1681526020016001820160009054906101000a900473ffffffffffffffffffffffffffffffffffffffff1673ffffffffffffffffffffffffffffffffffffffff1673ffffffffffffffffffffffffffffffffffffffff168152602001600282015481526020016003820180546109d090611fcb565b80601f01602080910402602001604051908101604052809291908181526020018280546109fc90611fcb565b8015610a495780601f10610a1e57610100808354040283529160200191610a49565b820191906000526020600020905b815481529060010190602001808311610a2c57829003601f168201915b50505050508152602001600482015481526020016005820160009054906101000a900460ff1615151515815260200160068201548152505090506000816040015111610aca576040517f08c379a0000000000000000000000000000000000000000000000000000000008152600401610ac190611cf8565b60405180910390fd5b3373ffffffffffffffffffffffffffffffffffffffff16816000015173ffffffffffffffffffffffffffffffffffffffff1614610b3c576040517f08c379a0000000000000000000000000000000000000000000000000000000008152600401610b3390611d58565b60405180910390fd5b806020015173ffffffffffffffffffffffffffffffffffffffff16816000015173ffffffffffffffffffffffffffffffffffffffff1614610bb2576040517f08c379a0000000000000000000000000000000000000000000000000000000008152600401610ba990611c58565b60405180910390fd5b806000015173ffffffffffffffffffffffffffffffffffffffff166108fc82604001519081150290604051600060405180830381858888f19350505050158015610c00573d6000803e3d6000fd5b5060016000838152602001908152602001600020600080820160006101000a81549073ffffffffffffffffffffffffffffffffffffffff02191690556001820160006101000a81549073ffffffffffffffffffffffffffffffffffffffff02191690556002820160009055600382016000610c7b9190611567565b60048201600090556005820160006101000a81549060ff0219169055600682016000905550505050565b60006001600083815260200190815260200160002090506000816002015411610d03576040517f08c379a0000000000000000000000000000000000000000000000000000000008152600401610cfa90611d18565b60405180910390fd5b8060010160009054906101000a900473ffffffffffffffffffffffffffffffffffffffff1673ffffffffffffffffffffffffffffffffffffffff168160000160009054906101000a900473ffffffffffffffffffffffffffffffffffffffff1673ffffffffffffffffffffffffffffffffffffffff1614610db9576040517f08c379a0000000000000000000000000000000000000000000000000000000008152600401610db090611cd8565b60405180910390fd5b80600201543414610dff576040517f08c379a0000000000000000000000000000000000000000000000000000000008152600401610df690611d78565b60405180910390fd5b338160010160006101000a81548173ffffffffffffffffffffffffffffffffffffffff021916908373ffffffffffffffffffffffffffffffffffffffff1602179055505050565b600260009054906101000a900473ffffffffffffffffffffffffffffffffffffffff1681565b60035481565b6000803411610eb6576040517f08c379a0000000000000000000000000000000000000000000000000000000008152600401610ead90611c98565b60405180910390fd5b6040518060e001604052803373ffffffffffffffffffffffffffffffffffffffff1681526020013373ffffffffffffffffffffffffffffffffffffffff1681526020013481526020018581526020018442610f119190611e63565b81526020018315158152602001600660009054906101000a900473ffffffffffffffffffffffffffffffffffffffff1673ffffffffffffffffffffffffffffffffffffffff166344a11f65600588604051610f6c9190611b7a565b908152602001604051809103902060009054906101000a900473ffffffffffffffffffffffffffffffffffffffff166040518263ffffffff1660e01b8152600401610fb79190611b91565b60206040518083038186803b158015610fcf57600080fd5b505afa158015610fe3573d6000803e3d6000fd5b505050506040513d601f19601f82011682018060405250810190611007919061175c565b815250600160008054815260200190815260200160002060008201518160000160006101000a81548173ffffffffffffffffffffffffffffffffffffffff021916908373ffffffffffffffffffffffffffffffffffffffff16021790555060208201518160010160006101000a81548173ffffffffffffffffffffffffffffffffffffffff021916908373ffffffffffffffffffffffffffffffffffffffff1602179055506040820151816002015560608201518160030190805190602001906110d29291906115a7565b506080820151816004015560a08201518160050160006101000a81548160ff02191690831515021790555060c0820151816006015590505060008081548092919061111c9061202e565b9190505590509392505050565b61113161162d565b6000600160008481526020019081526020016000209050600081600201541161118f576040517f08c379a000000000000000000000000000000000000000000000000000000000815260040161118690611d18565b60405180910390fd5b6001600084815260200190815260200160002060010160009054906101000a900473ffffffffffffffffffffffffffffffffffffffff1673ffffffffffffffffffffffffffffffffffffffff166001600085815260200190815260200160002060000160009054906101000a900473ffffffffffffffffffffffffffffffffffffffff1673ffffffffffffffffffffffffffffffffffffffff16141561126a576040517f08c379a000000000000000000000000000000000000000000000000000000000815260040161126190611c78565b60405180910390fd5b600160008481526020019081526020016000206040518060e00160405290816000820160009054906101000a900473ffffffffffffffffffffffffffffffffffffffff1673ffffffffffffffffffffffffffffffffffffffff1673ffffffffffffffffffffffffffffffffffffffff1681526020016001820160009054906101000a900473ffffffffffffffffffffffffffffffffffffffff1673ffffffffffffffffffffffffffffffffffffffff1673ffffffffffffffffffffffffffffffffffffffff1681526020016002820154815260200160038201805461134e90611fcb565b80601f016020809104026020016040519081016040528092919081815260200182805461137a90611fcb565b80156113c75780601f1061139c576101008083540402835291602001916113c7565b820191906000526020600020905b8154815290600101906020018083116113aa57829003601f168201915b50505050508152602001600482015481526020016005820160009054906101000a900460ff16151515158152602001600682015481525050915050919050565b60016020528060005260406000206000915090508060000160009054906101000a900473ffffffffffffffffffffffffffffffffffffffff16908060010160009054906101000a900473ffffffffffffffffffffffffffffffffffffffff169080600201549080600301805461147c90611fcb565b80601f01602080910402602001604051908101604052809291908181526020018280546114a890611fcb565b80156114f55780601f106114ca576101008083540402835291602001916114f5565b820191906000526020600020905b8154815290600101906020018083116114d857829003601f168201915b5050505050908060040154908060050160009054906101000a900460ff16908060060154905087565b6005818051602081018201805184825260208301602085012081835280955050505050506000915054906101000a900473ffffffffffffffffffffffffffffffffffffffff1681565b50805461157390611fcb565b6000825580601f1061158557506115a4565b601f0160209004906000526020600020908101906115a39190611698565b5b50565b8280546115b390611fcb565b90600052602060002090601f0160209004810192826115d5576000855561161c565b82601f106115ee57805160ff191683800117855561161c565b8280016001018555821561161c579182015b8281111561161b578251825591602001919060010190611600565b5b5090506116299190611698565b5090565b6040518060e00160405280600073ffffffffffffffffffffffffffffffffffffffff168152602001600073ffffffffffffffffffffffffffffffffffffffff168152602001600081526020016060815260200160008152602001600015158152602001600081525090565b5b808211156116b1576000816000905550600101611699565b5090565b60006116c86116c384611dfa565b611dd5565b9050828152602081018484840111156116e057600080fd5b6116eb848285611f89565b509392505050565b60008135905061170281612393565b92915050565b600081519050611717816123aa565b92915050565b600082601f83011261172e57600080fd5b813561173e8482602086016116b5565b91505092915050565b600081359050611756816123c1565b92915050565b60006020828403121561176e57600080fd5b600061177c84828501611708565b91505092915050565b60006020828403121561179757600080fd5b600082013567ffffffffffffffff8111156117b157600080fd5b6117bd8482850161171d565b91505092915050565b6000806000606084860312156117db57600080fd5b600084013567ffffffffffffffff8111156117f557600080fd5b6118018682870161171d565b935050602061181286828701611747565b9250506040611823868287016116f3565b9150509250925092565b60006020828403121561183f57600080fd5b600061184d84828501611747565b91505092915050565b61185f81611f13565b82525050565b61186e81611f13565b82525050565b61187d81611f25565b82525050565b61188c81611f25565b82525050565b61189b81611f65565b82525050565b6118aa81611f31565b82525050565b6118b981611f31565b82525050565b60006118ca82611e2b565b6118d48185611e36565b93506118e4818560208601611f98565b6118ed81612104565b840191505092915050565b600061190382611e2b565b61190d8185611e47565b935061191d818560208601611f98565b61192681612104565b840191505092915050565b600061193c82611e2b565b6119468185611e58565b9350611956818560208601611f98565b80840191505092915050565b600061196f603983611e47565b915061197a82612115565b604082019050919050565b6000611992601983611e47565b915061199d82612164565b602082019050919050565b60006119b5602283611e47565b91506119c08261218d565b604082019050919050565b60006119d8602083611e47565b91506119e3826121dc565b602082019050919050565b60006119fb602e83611e47565b9150611a0682612205565b604082019050919050565b6000611a1e601a83611e47565b9150611a2982612254565b602082019050919050565b6000611a41601b83611e47565b9150611a4c8261227d565b602082019050919050565b6000611a64602583611e47565b9150611a6f826122a6565b604082019050919050565b6000611a87602b83611e47565b9150611a92826122f5565b604082019050919050565b6000611aaa603183611e47565b9150611ab582612344565b604082019050919050565b600060e083016000830151611ad86000860182611856565b506020830151611aeb6020860182611856565b506040830151611afe6040860182611b5c565b5060608301518482036060860152611b1682826118bf565b9150506080830151611b2b6080860182611b5c565b5060a0830151611b3e60a0860182611874565b5060c0830151611b5160c08601826118a1565b508091505092915050565b611b6581611f5b565b82525050565b611b7481611f5b565b82525050565b6000611b868284611931565b915081905092915050565b6000602082019050611ba66000830184611865565b92915050565b600060e082019050611bc1600083018a611865565b611bce6020830189611865565b611bdb6040830188611b6b565b8181036060830152611bed81876118f8565b9050611bfc6080830186611b6b565b611c0960a0830185611883565b611c1660c08301846118b0565b98975050505050505050565b6000602082019050611c376000830184611892565b92915050565b6000602082019050611c5260008301846118b0565b92915050565b60006020820190508181036000830152611c7181611962565b9050919050565b60006020820190508181036000830152611c9181611985565b9050919050565b60006020820190508181036000830152611cb1816119a8565b9050919050565b60006020820190508181036000830152611cd1816119cb565b9050919050565b60006020820190508181036000830152611cf1816119ee565b9050919050565b60006020820190508181036000830152611d1181611a11565b9050919050565b60006020820190508181036000830152611d3181611a34565b9050919050565b60006020820190508181036000830152611d5181611a57565b9050919050565b60006020820190508181036000830152611d7181611a7a565b9050919050565b60006020820190508181036000830152611d9181611a9d565b9050919050565b60006020820190508181036000830152611db28184611ac0565b905092915050565b6000602082019050611dcf6000830184611b6b565b92915050565b6000611ddf611df0565b9050611deb8282611ffd565b919050565b6000604051905090565b600067ffffffffffffffff821115611e1557611e146120d5565b5b611e1e82612104565b9050602081019050919050565b600081519050919050565b600082825260208201905092915050565b600082825260208201905092915050565b600081905092915050565b6000611e6e82611f5b565b9150611e7983611f5b565b9250827fffffffffffffffffffffffffffffffffffffffffffffffffffffffffffffffff03821115611eae57611ead612077565b5b828201905092915050565b6000611ec482611f5b565b9150611ecf83611f5b565b9250817fffffffffffffffffffffffffffffffffffffffffffffffffffffffffffffffff0483118215151615611f0857611f07612077565b5b828202905092915050565b6000611f1e82611f3b565b9050919050565b60008115159050919050565b6000819050919050565b600073ffffffffffffffffffffffffffffffffffffffff82169050919050565b6000819050919050565b6000611f7082611f77565b9050919050565b6000611f8282611f3b565b9050919050565b82818337600083830152505050565b60005b83811015611fb6578082015181840152602081019050611f9b565b83811115611fc5576000848401525b50505050565b60006002820490506001821680611fe357607f821691505b60208210811415611ff757611ff66120a6565b5b50919050565b61200682612104565b810181811067ffffffffffffffff82111715612025576120246120d5565b5b80604052505050565b600061203982611f5b565b91507fffffffffffffffffffffffffffffffffffffffffffffffffffffffffffffffff82141561206c5761206b612077565b5b600182019050919050565b7f4e487b7100000000000000000000000000000000000000000000000000000000600052601160045260246000fd5b7f4e487b7100000000000000000000000000000000000000000000000000000000600052602260045260246000fd5b7f4e487b7100000000000000000000000000000000000000000000000000000000600052604160045260246000fd5b6000601f19601f8301169050919050565b7f546865726520697320616c7265616479206f70706f6e656e742c20746869732060008201527f626174746c652063616e27742062652063616e63656c65642e00000000000000602082015250565b7f5468697320626174746c65206469646e27742073746172742e00000000000000600082015250565b7f596f75206861766520746f20626574206f6e20706f7369746976652076616c7560008201527f6521000000000000000000000000000000000000000000000000000000000000602082015250565b7f596f7520617265206e6f742070617274206f66207468697320626174746c652e600082015250565b7f5468697320626174746c6520697320636c6f7365642c206f70706f6e656e742060008201527f616c72656164792065786973742e000000000000000000000000000000000000602082015250565b7f426174746c65206e756d6265722069736e27742065786973742e000000000000600082015250565b7f426174746c65206e756d6265722069736e27742065786973742e0a0000000000600082015250565b7f546f6f206561726c7920746f20636865636b2077686f2069732074686520776960008201527f6e6e65722e000000000000000000000000000000000000000000000000000000602082015250565b7f4f6e6c79207468652063726561746f72206d61792063616e63656c206869732060008201527f6f776e20626174746c652e000000000000000000000000000000000000000000602082015250565b7f42657474696e672076616c75652069736e27742061732073706563696669656460008201527f20666f72207468697320626174746c652e000000000000000000000000000000602082015250565b61239c81611f25565b81146123a757600080fd5b50565b6123b381611f31565b81146123be57600080fd5b50565b6123ca81611f5b565b81146123d557600080fd5b5056fea2646970667358221220c0b0dcf069e04c0922bbab29d54931123e540caf7de97bf6f53e3e8fe947683664736f6c63430008030033608060405234801561001057600080fd5b506102fc806100206000396000f3fe608060405234801561001057600080fd5b506004361061002b5760003560e01c806344a11f6514610030575b600080fd5b61004a60048036038101906100459190610144565b610060565b60405161005791906101f3565b60405180910390f35b6000808273ffffffffffffffffffffffffffffffffffffffff1663feaf968c6040518163ffffffff1660e01b815260040160a06040518083038186803b1580156100a957600080fd5b505afa1580156100bd573d6000803e3d6000fd5b505050506040513d601f19601f820116820180604052508101906100e1919061016d565b50505091505080915050919050565b6000813590506100ff8161026a565b92915050565b60008151905061011481610281565b92915050565b60008151905061012981610298565b92915050565b60008151905061013e816102af565b92915050565b60006020828403121561015657600080fd5b6000610164848285016100f0565b91505092915050565b600080600080600060a0868803121561018557600080fd5b60006101938882890161012f565b95505060206101a488828901610105565b94505060406101b58882890161011a565b93505060606101c68882890161011a565b92505060806101d78882890161012f565b9150509295509295909350565b6101ed81610220565b82525050565b600060208201905061020860008301846101e4565b92915050565b60006102198261022a565b9050919050565b6000819050919050565b600073ffffffffffffffffffffffffffffffffffffffff82169050919050565b6000819050919050565b600069ffffffffffffffffffff82169050919050565b6102738161020e565b811461027e57600080fd5b50565b61028a81610220565b811461029557600080fd5b50565b6102a18161024a565b81146102ac57600080fd5b50565b6102b881610254565b81146102c357600080fd5b5056fea26469706673582212202a0a54a5eda5496a276a896b43c63245c53170adefc666f43e1644db5d5b3d3564736f6c63430008030033",
  "immutableReferences": {},
  "source": "// SPDX-License-Identifier: MIT\r\npragma solidity ^0.8.3;\r\nimport \"./Aggre.sol\";\r\n\r\ncontract BinaryOption{\r\n\r\n\r\n    uint256  public battleId; // unique id for each battle\r\n    mapping(uint256 => Battle) public battleInfo; // map of the existing battles\r\n    address public owner; // the creator of the contract (we)\r\n    uint  public tempVal;\r\n    int feed;\r\n    mapping(string=>address) public feedAddress;\r\n    Aggre public age;\r\n\r\n    event MyEvent(\r\n    uint256 indexed id,\r\n    uint256 indexed amount,\r\n    int win\r\n    );\r\n\r\n    struct Battle {\r\n        address creator;\r\n        address opponent;\r\n        uint256 amountBet;\r\n        string betType;\r\n        uint betDate;\r\n        bool isUp;\r\n        int currVal;\r\n    }\r\n\r\n    constructor()  {\r\n        age=new Aggre();\r\n        //owner = msg.sender;\r\n\r\n        // those addresses (of rinkbey test network) can be found at: https://docs.chain.link/docs/ethereum-addresses/\r\n        feedAddress[\"EthVsUsd\"]=0x8A753747A1Fa494EC906cE90E9f37563A8AF630e;\r\n        //feedAddress[\"BtcVsUsd\"]=0x6135b13325bfC4B00278B4abC5e20bbce2D6580e;\r\n        //feedAddress[\"EurVsUsd\"]=0x0c15Ab9A0DB086e062194c273CC79f41597Bbf13;\r\n    }\r\n\r\n    // a creator create a new battle\r\n    function addBattle(string memory betType,uint betDate,bool direction) public payable returns(uint256) {\r\n        require(msg.value>0, \"You have to bet on positive value!\");\r\n        battleInfo[battleId]=Battle(msg.sender,msg.sender,msg.value,betType,block.timestamp+betDate,direction,age.getThePrice(feedAddress[betType]));\r\n        return battleId++;\r\n    }\r\n    /*function getAmount(uint256 battle_id) public view returns (uint){\r\n            return battleInfo[battle_id].amountBet;\r\n        }*/\r\n\r\n    function getBattleInfo(uint256 battle_id) public payable returns(Battle memory) {\r\n        Battle storage bate=battleInfo[battle_id];\r\n        require(bate.amountBet>0, \"Battle number isn't exist.\\n\");\r\n        require(battleInfo[battle_id].creator!=battleInfo[battle_id].opponent, \"This battle didn't start.\");\r\n        return battleInfo[battle_id];\r\n    }\r\n\r\n    /*\r\n\r\n    function setPrice() public {\r\n        feed= age.getThePrice(0x9326BFA02ADD2366b30bacB125260Af641031331);\r\n    }\r\n    function getPrice() public view returns (int){\r\n        return feed;\r\n    }\r\n\r\n    */\r\n    /*function getId() public view returns (uint256){\r\n        return battleId;\r\n    }*/\r\n\r\n    /*function getEvent() public {\r\n        emit MyEvent(battleId,battleId);\r\n    }*/\r\n\r\n    /*function settempVal(uint num) public {\r\n        tempVal=num;\r\n    }*/\r\n\r\n    // we call it before the withdraw method, in the index_1.js (the reason for this is there)\r\n    /*function gettempVal() public view returns (uint) {\r\n        return tempVal;\r\n    }*/\r\n\r\n\r\n    // an opponent is signed to battle number: battleid\r\n    function acceptBattle(uint256 battle_id) public payable{\r\n\r\n        Battle storage bate=battleInfo[battle_id];\r\n        require(bate.amountBet>0, \"Battle number isn't exist.\\n\");\r\n        //require(bate.creator!=msg.sender, \"Impossible to fight against yourself.\"); // in comment until we test with two different players\r\n        require(bate.creator==bate.opponent, \"This battle is closed, opponent already exist.\");\r\n        require(msg.value==bate.amountBet, \"Betting value isn't as specified for this battle.\");\r\n        bate.opponent=msg.sender;\r\n    }\r\n\r\n    // a creator cancel his battle\r\n    function cancelBattle(uint256 battle_id) public payable{\r\n        Battle memory bate=battleInfo[battle_id];\r\n        require(bate.amountBet>0, \"Battle number isn't exist.\");\r\n        require(bate.creator==msg.sender, \"Only the creator may cancel his own battle.\");\r\n\r\n        require(bate.creator==bate.opponent, \"There is already opponent, this battle can't be canceled.\");\r\n        payable(bate.creator).transfer(bate.amountBet); // return the amount invested\r\n        delete battleInfo[battle_id]; // battle is canceled\r\n    }\r\n\r\n\r\n    /*function getcurrVal(uint256 battle_id) public view returns (uint256){\r\n        require(msg.sender==battleInfo[battle_id].creator||msg.sender==battleInfo[battle_id].opponent, \"You are not part of this battle.\");\r\n        return battleInfo[battle_id].amountBet;\r\n    }*/\r\n\r\n    // the winner may draw his money\r\n    function withdraw(uint256 battle_id) public {\r\n        int winner; // 0=lose 1=win 2=draw\r\n        int oldPrice;\r\n        int newPrice;\r\n        Battle memory bate=battleInfo[battle_id];\r\n        //require(battleInfo[battle_id].creator!=battleInfo[battle_id].opponent, \"This battle didn't start.\"); // in case the creator try to withdraw before having opponent. He may cancel battle if he wants.\r\n        require((bate.creator==msg.sender||bate.opponent==msg.sender), \"You are not part of this battle.\"); // can be deleted if comes with getcurrval\r\n        require(block.timestamp>=bate.betDate, \"Too early to check who is the winner.\");\r\n        oldPrice=bate.currVal;\r\n        newPrice=age.getThePrice(feedAddress[bate.betType]);\r\n        // deliver the money to the winner\r\n        if(oldPrice<newPrice){\r\n\r\n            if(bate.isUp){\r\n                winner=1;\r\n                payable(bate.creator).transfer(2*bate.amountBet); // multiply by 2 since we deliver the money of both the creator and his opponent\r\n            }\r\n            else{\r\n                winner=0;\r\n                payable(bate.opponent).transfer(2*bate.amountBet);\r\n            }\r\n\r\n        }\r\n        else if(oldPrice>newPrice){\r\n\r\n            if(bate.isUp){\r\n                winner=0;\r\n                payable(bate.opponent).transfer(2*bate.amountBet);\r\n            }\r\n            else{\r\n                winner=1;\r\n                payable(bate.creator).transfer(2*bate.amountBet);\r\n            }\r\n        }\r\n        // if nothing has changed, the creator lose his money\r\n        else {\r\n            winner=2;\r\n            payable(bate.opponent).transfer(bate.amountBet);\r\n            payable(bate.creator).transfer(bate.amountBet);\r\n        }\r\n        // sign the event\r\n        emit MyEvent(battle_id,bate.amountBet*2,winner);\r\n        //delete battleInfo[battle_id]; // battle is finished\r\n    }\r\n\r\n    //just for testing\r\n    /*function removeBattle(uint256 battle_id) public {\r\n        require(battleInfo[battle_id].amountBet>0, \"Battle number isn't exist.\\n\");\r\n        //delete battleInfo[battle_id]; // battle is canceled\r\n    }*/\r\n\r\n\r\n\r\n}",
  "sourcePath": "/mnt/c/users/admin/ideaprojects/tau_smart_contract/src/solidity/contracts/BinaryOption.sol",
  "compiler": {
    "name": "solc",
    "version": "0.8.3+commit.8d00100c.Emscripten.clang"
  },
  "schemaVersion": "3.4.1",
  "updatedAt": "2021-07-19T15:13:26.730Z",
  "devdoc": {
    "kind": "dev",
    "methods": {},
    "version": 1
  },
  "userdoc": {
    "kind": "user",
    "methods": {},
    "version": 1
  }
}