{
  "contractName": "BinaryOption",
  "abi": [
    {
      "inputs": [],
      "stateMutability": "nonpayable",
      "type": "constructor"
    },
    {
      "anonymous": false,
      "inputs": [
        {
          "indexed": true,
          "internalType": "uint256",
          "name": "id",
          "type": "uint256"
        },
        {
          "indexed": false,
          "internalType": "address",
          "name": "address_field",
          "type": "address"
        }
      ],
      "name": "AddEvent",
      "type": "event"
    },
    {
      "inputs": [
        {
          "internalType": "address",
          "name": "",
          "type": "address"
        },
        {
          "internalType": "uint256",
          "name": "",
          "type": "uint256"
        }
      ],
      "name": "addressToBattle",
      "outputs": [
        {
          "internalType": "uint256",
          "name": "",
          "type": "uint256"
        }
      ],
      "stateMutability": "view",
      "type": "function",
      "constant": true
    },
    {
      "inputs": [],
      "name": "b",
      "outputs": [
        {
          "internalType": "int256",
          "name": "",
          "type": "int256"
        }
      ],
      "stateMutability": "view",
      "type": "function",
      "constant": true
    },
    {
      "inputs": [],
      "name": "battleId",
      "outputs": [
        {
          "internalType": "uint256",
          "name": "",
          "type": "uint256"
        }
      ],
      "stateMutability": "view",
      "type": "function",
      "constant": true
    },
    {
      "inputs": [
        {
          "internalType": "uint256",
          "name": "",
          "type": "uint256"
        }
      ],
      "name": "battleInfo",
      "outputs": [
        {
          "internalType": "address",
          "name": "creator",
          "type": "address"
        },
        {
          "internalType": "address",
          "name": "opponent",
          "type": "address"
        },
        {
          "internalType": "uint256",
          "name": "amountBet",
          "type": "uint256"
        },
        {
          "internalType": "string",
          "name": "betType",
          "type": "string"
        },
        {
          "internalType": "uint256",
          "name": "betDate",
          "type": "uint256"
        },
        {
          "internalType": "bool",
          "name": "isUp",
          "type": "bool"
        },
        {
          "internalType": "int256",
          "name": "currVal",
          "type": "int256"
        },
        {
          "internalType": "enum BinaryOption.Status",
          "name": "whoWin",
          "type": "uint8"
        }
      ],
      "stateMutability": "view",
      "type": "function",
      "constant": true
    },
    {
      "inputs": [
        {
          "internalType": "string",
          "name": "",
          "type": "string"
        }
      ],
      "name": "feedAddress",
      "outputs": [
        {
          "internalType": "address",
          "name": "",
          "type": "address"
        }
      ],
      "stateMutability": "view",
      "type": "function",
      "constant": true
    },
    {
      "inputs": [],
      "name": "priceFeed",
      "outputs": [
        {
          "internalType": "contract PriceFeed",
          "name": "",
          "type": "address"
        }
      ],
      "stateMutability": "view",
      "type": "function",
      "constant": true
    },
    {
      "inputs": [
        {
          "internalType": "string",
          "name": "betType",
          "type": "string"
        },
        {
          "internalType": "uint256",
          "name": "betDate",
          "type": "uint256"
        },
        {
          "internalType": "bool",
          "name": "direction",
          "type": "bool"
        }
      ],
      "name": "addBattle",
      "outputs": [],
      "stateMutability": "payable",
      "type": "function",
      "payable": true
    },
    {
      "inputs": [
        {
          "internalType": "address",
          "name": "a",
          "type": "address"
        }
      ],
      "name": "getaddressToBattle",
      "outputs": [
        {
          "internalType": "uint256[]",
          "name": "",
          "type": "uint256[]"
        }
      ],
      "stateMutability": "view",
      "type": "function",
      "constant": true
    },
    {
      "inputs": [
        {
          "internalType": "uint256",
          "name": "battle_id",
          "type": "uint256"
        }
      ],
      "name": "getBattleInfo",
      "outputs": [
        {
          "components": [
            {
              "internalType": "address",
              "name": "creator",
              "type": "address"
            },
            {
              "internalType": "address",
              "name": "opponent",
              "type": "address"
            },
            {
              "internalType": "uint256",
              "name": "amountBet",
              "type": "uint256"
            },
            {
              "internalType": "string",
              "name": "betType",
              "type": "string"
            },
            {
              "internalType": "uint256",
              "name": "betDate",
              "type": "uint256"
            },
            {
              "internalType": "bool",
              "name": "isUp",
              "type": "bool"
            },
            {
              "internalType": "int256",
              "name": "currVal",
              "type": "int256"
            },
            {
              "internalType": "enum BinaryOption.Status",
              "name": "whoWin",
              "type": "uint8"
            }
          ],
          "internalType": "struct BinaryOption.Battle",
          "name": "",
          "type": "tuple"
        }
      ],
      "stateMutability": "nonpayable",
      "type": "function"
    },
    {
      "inputs": [],
      "name": "getAll",
      "outputs": [
        {
          "components": [
            {
              "internalType": "address",
              "name": "creator",
              "type": "address"
            },
            {
              "internalType": "address",
              "name": "opponent",
              "type": "address"
            },
            {
              "internalType": "uint256",
              "name": "amountBet",
              "type": "uint256"
            },
            {
              "internalType": "string",
              "name": "betType",
              "type": "string"
            },
            {
              "internalType": "uint256",
              "name": "betDate",
              "type": "uint256"
            },
            {
              "internalType": "bool",
              "name": "isUp",
              "type": "bool"
            },
            {
              "internalType": "int256",
              "name": "currVal",
              "type": "int256"
            },
            {
              "internalType": "enum BinaryOption.Status",
              "name": "whoWin",
              "type": "uint8"
            }
          ],
          "internalType": "struct BinaryOption.Battle[]",
          "name": "",
          "type": "tuple[]"
        }
      ],
      "stateMutability": "view",
      "type": "function",
      "constant": true
    },
    {
      "inputs": [
        {
          "internalType": "uint256",
          "name": "battle_id",
          "type": "uint256"
        }
      ],
      "name": "acceptBattle",
      "outputs": [],
      "stateMutability": "payable",
      "type": "function",
      "payable": true
    },
    {
      "inputs": [
        {
          "internalType": "uint256",
          "name": "battle_id",
          "type": "uint256"
        }
      ],
      "name": "cancelBattle",
      "outputs": [],
      "stateMutability": "nonpayable",
      "type": "function"
    },
    {
      "inputs": [
        {
          "internalType": "uint256",
          "name": "battle_id",
          "type": "uint256"
        }
      ],
      "name": "withdraw",
      "outputs": [],
      "stateMutability": "nonpayable",
      "type": "function"
    }
  ],
  "bytecode": "0x608060405260026005553480156200001657600080fd5b50604051620000259062000493565b604051809103906000f08015801562000042573d6000803e3d6000fd5b50600460006101000a81548173ffffffffffffffffffffffffffffffffffffffff021916908373ffffffffffffffffffffffffffffffffffffffff160217905550600080156200010357739326bfa02add2366b30bacb125260af6410313316003604051620000b19062000617565b908152602001604051809103902060006101000a81548173ffffffffffffffffffffffffffffffffffffffff021916908373ffffffffffffffffffffffffffffffffffffffff1602179055506200048c565b738a753747a1fa494ec906ce90e9f37563a8af630e6003604051620001289062000673565b908152602001604051809103902060006101000a81548173ffffffffffffffffffffffffffffffffffffffff021916908373ffffffffffffffffffffffffffffffffffffffff16021790555073ece365b379e1dd183b20fc5f022230c044d51404600360405162000199906200068a565b908152602001604051809103902060006101000a81548173ffffffffffffffffffffffffffffffffffffffff021916908373ffffffffffffffffffffffffffffffffffffffff1602179055507378f9e60608bf48a1155b4b2a5e31f32318a1d85f60036040516200020a9062000600565b908152602001604051809103902060006101000a81548173ffffffffffffffffffffffffffffffffffffffff021916908373ffffffffffffffffffffffffffffffffffffffff16021790555073dca36f27cbc4e38ae16c4e9f99d39b42337f6dcf60036040516200027b906200065c565b908152602001604051809103902060006101000a81548173ffffffffffffffffffffffffffffffffffffffff021916908373ffffffffffffffffffffffffffffffffffffffff160217905550732ba49aaa16e6afd2a993473cfb70fa8559b523cf6003604051620002ec9062000645565b908152602001604051809103902060006101000a81548173ffffffffffffffffffffffffffffffffffffffff021916908373ffffffffffffffffffffffffffffffffffffffff1602179055507374825dbc8bf76cc4e9494d0ecb210f676efa001d60036040516200035d90620006b8565b908152602001604051809103902060006101000a81548173ffffffffffffffffffffffffffffffffffffffff021916908373ffffffffffffffffffffffffffffffffffffffff160217905550730630521ac362bc7a19a4ee44b57ce72ea34ad01c6003604051620003ce90620006a1565b908152602001604051809103902060006101000a81548173ffffffffffffffffffffffffffffffffffffffff021916908373ffffffffffffffffffffffffffffffffffffffff16021790555073e96c4407597cd507002df88ff6e0008ab41266ee60036040516200043f906200062e565b908152602001604051809103902060006101000a81548173ffffffffffffffffffffffffffffffffffffffff021916908373ffffffffffffffffffffffffffffffffffffffff1602179055505b506200084b565b61031c806200475b83390190565b6000620004b0600a83620006cf565b9150620004bd82620006da565b600a82019050919050565b6000620004d7600883620006cf565b9150620004e48262000703565b600882019050919050565b6000620004fe600a83620006cf565b91506200050b826200072c565b600a82019050919050565b600062000525600a83620006cf565b9150620005328262000755565b600a82019050919050565b60006200054c600b83620006cf565b915062000559826200077e565b600b82019050919050565b600062000573600a83620006cf565b91506200058082620007a7565b600a82019050919050565b60006200059a600a83620006cf565b9150620005a782620007d0565b600a82019050919050565b6000620005c1600c83620006cf565b9150620005ce82620007f9565b600c82019050919050565b6000620005e8600a83620006cf565b9150620005f58262000822565b600a82019050919050565b60006200060d82620004a1565b9150819050919050565b60006200062482620004c8565b9150819050919050565b60006200063b82620004ef565b9150819050919050565b6000620006528262000516565b9150819050919050565b600062000669826200053d565b9150819050919050565b6000620006808262000564565b9150819050919050565b600062000697826200058b565b9150819050919050565b6000620006ae82620005b2565b9150819050919050565b6000620006c582620005d9565b9150819050919050565b600081905092915050565b7f6575725f76735f75736400000000000000000000000000000000000000000000600082015250565b7f4574685673557364000000000000000000000000000000000000000000000000600082015250565b7f736e785f76735f75736400000000000000000000000000000000000000000000600082015250565b7f6461695f76735f75736400000000000000000000000000000000000000000000600082015250565b7f757364635f76735f657468000000000000000000000000000000000000000000600082015250565b7f6574685f76735f75736400000000000000000000000000000000000000000000600082015250565b7f6274635f76735f75736400000000000000000000000000000000000000000000600082015250565b7f73646566695f76735f7573640000000000000000000000000000000000000000600082015250565b7f6461695f76735f65746800000000000000000000000000000000000000000000600082015250565b613f00806200085b6000396000f3fe6080604052600436106100c25760003560e01c806381ec30f21161007f578063d3f5557b11610059578063d3f5557b1461023a578063db71dcdc14610277578063e4bb7a1e146102bb578063e84b5fda146102f8576100c2565b806381ec30f2146101c5578063bfc8b8c6146101e1578063c0a6e9d7146101fd576100c2565b806301a1b778146100c75780632e1a7d4d146100f25780634c4c447e1461011b5780634df7e3d01461014457806353ed51431461016f578063741bef1a1461019a575b600080fd5b3480156100d357600080fd5b506100dc610335565b6040516100e99190613721565b60405180910390f35b3480156100fe57600080fd5b5061011960048036038101906101149190612e01565b61033b565b005b34801561012757600080fd5b50610142600480360381019061013d9190612e01565b610d9e565b005b34801561015057600080fd5b506101596112c2565b6040516101669190613544565b60405180910390f35b34801561017b57600080fd5b506101846112c8565b60405161019191906134e5565b60405180910390f35b3480156101a657600080fd5b506101af6115d2565b6040516101bc9190613529565b60405180910390f35b6101df60048036038101906101da9190612e01565b6115f8565b005b6101fb60048036038101906101f69190612d9a565b611ca7565b005b34801561020957600080fd5b50610224600480360381019061021f9190612e01565b61248d565b60405161023191906136ff565b60405180910390f35b34801561024657600080fd5b50610261600480360381019061025c9190612cf4565b612718565b60405161026e9190613721565b60405180910390f35b34801561028357600080fd5b5061029e60048036038101906102999190612e01565b612749565b6040516102b2989796959493929190613460565b60405180910390f35b3480156102c757600080fd5b506102e260048036038101906102dd9190612d59565b612873565b6040516102ef9190613445565b60405180910390f35b34801561030457600080fd5b5061031f600480360381019061031a9190612ccb565b6128bc565b60405161032c9190613507565b60405180910390f35b60005481565b60008060008060016000868152602001908152602001600020905060006103e8826004015461036a9190613851565b90506001600087815260200190815260200160002060010160009054906101000a900473ffffffffffffffffffffffffffffffffffffffff1673ffffffffffffffffffffffffffffffffffffffff166001600088815260200190815260200160002060000160009054906101000a900473ffffffffffffffffffffffffffffffffffffffff1673ffffffffffffffffffffffffffffffffffffffff161415610447576040517f08c379a000000000000000000000000000000000000000000000000000000000815260040161043e906135df565b60405180910390fd5b3373ffffffffffffffffffffffffffffffffffffffff168260000160009054906101000a900473ffffffffffffffffffffffffffffffffffffffff1673ffffffffffffffffffffffffffffffffffffffff1614806104f457503373ffffffffffffffffffffffffffffffffffffffff168260010160009054906101000a900473ffffffffffffffffffffffffffffffffffffffff1673ffffffffffffffffffffffffffffffffffffffff16145b610533576040517f08c379a000000000000000000000000000000000000000000000000000000000815260040161052a9061363f565b60405180910390fd5b80421015610576576040517f08c379a000000000000000000000000000000000000000000000000000000000815260040161056d906136bf565b60405180910390fd5b6003808111156105af577f4e487b7100000000000000000000000000000000000000000000000000000000600052602160045260246000fd5b8260070160009054906101000a900460ff1660038111156105f9577f4e487b7100000000000000000000000000000000000000000000000000000000600052602160045260246000fd5b14610639576040517f08c379a00000000000000000000000000000000000000000000000000000000081526004016106309061365f565b60405180910390fd5b81600601549350600460009054906101000a900473ffffffffffffffffffffffffffffffffffffffff1673ffffffffffffffffffffffffffffffffffffffff166344a11f65600384600301604051610691919061342e565b908152602001604051809103902060009054906101000a900473ffffffffffffffffffffffffffffffffffffffff166040518263ffffffff1660e01b81526004016106dc9190613445565b60206040518083038186803b1580156106f457600080fd5b505afa158015610708573d6000803e3d6000fd5b505050506040513d601f19601f8201168201806040525081019061072c9190612d30565b925082841215610856578160050160009054906101000a900460ff16156107d157600194508160000160009054906101000a900473ffffffffffffffffffffffffffffffffffffffff1673ffffffffffffffffffffffffffffffffffffffff166108fc836002015460026107a09190613882565b9081150290604051600060405180830381858888f193505050501580156107cb573d6000803e3d6000fd5b50610851565b600094508160010160009054906101000a900473ffffffffffffffffffffffffffffffffffffffff1673ffffffffffffffffffffffffffffffffffffffff166108fc836002015460026108249190613882565b9081150290604051600060405180830381858888f1935050505015801561084f573d6000803e3d6000fd5b505b610a62565b8284131561097e578160050160009054906101000a900460ff16156108f957600094508160010160009054906101000a900473ffffffffffffffffffffffffffffffffffffffff1673ffffffffffffffffffffffffffffffffffffffff166108fc836002015460026108c89190613882565b9081150290604051600060405180830381858888f193505050501580156108f3573d6000803e3d6000fd5b50610979565b600194508160000160009054906101000a900473ffffffffffffffffffffffffffffffffffffffff1673ffffffffffffffffffffffffffffffffffffffff166108fc8360020154600261094c9190613882565b9081150290604051600060405180830381858888f19350505050158015610977573d6000803e3d6000fd5b505b610a61565b600294508160010160009054906101000a900473ffffffffffffffffffffffffffffffffffffffff1673ffffffffffffffffffffffffffffffffffffffff166108fc83600201549081150290604051600060405180830381858888f193505050501580156109f0573d6000803e3d6000fd5b508160000160009054906101000a900473ffffffffffffffffffffffffffffffffffffffff1673ffffffffffffffffffffffffffffffffffffffff166108fc83600201549081150290604051600060405180830381858888f19350505050158015610a5f573d6000803e3d6000fd5b505b5b848260070160006101000a81548160ff02191690836003811115610aaf577f4e487b7100000000000000000000000000000000000000000000000000000000600052602160045260246000fd5b021790555060006001600088815260200190815260200160002060000160009054906101000a900473ffffffffffffffffffffffffffffffffffffffff16905060006001600089815260200190815260200160002060010160009054906101000a900473ffffffffffffffffffffffffffffffffffffffff16905060005b6003811015610c5e5788600260008573ffffffffffffffffffffffffffffffffffffffff1673ffffffffffffffffffffffffffffffffffffffff1681526020019081526020016000208281548110610bae577f4e487b7100000000000000000000000000000000000000000000000000000000600052603260045260246000fd5b90600052602060002001541415610c4b576064600260008573ffffffffffffffffffffffffffffffffffffffff1673ffffffffffffffffffffffffffffffffffffffff1681526020019081526020016000208281548110610c38577f4e487b7100000000000000000000000000000000000000000000000000000000600052603260045260246000fd5b9060005260206000200181905550610c5e565b8080610c5690613a1c565b915050610b2d565b5060005b6003811015610d935788600260008473ffffffffffffffffffffffffffffffffffffffff1673ffffffffffffffffffffffffffffffffffffffff1681526020019081526020016000208281548110610ce3577f4e487b7100000000000000000000000000000000000000000000000000000000600052603260045260246000fd5b90600052602060002001541415610d80576064600260008473ffffffffffffffffffffffffffffffffffffffff1673ffffffffffffffffffffffffffffffffffffffff1681526020019081526020016000208281548110610d6d577f4e487b7100000000000000000000000000000000000000000000000000000000600052603260045260246000fd5b9060005260206000200181905550610d93565b8080610d8b90613a1c565b915050610c62565b505050505050505050565b600060016000838152602001908152602001600020604051806101000160405290816000820160009054906101000a900473ffffffffffffffffffffffffffffffffffffffff1673ffffffffffffffffffffffffffffffffffffffff1673ffffffffffffffffffffffffffffffffffffffff1681526020016001820160009054906101000a900473ffffffffffffffffffffffffffffffffffffffff1673ffffffffffffffffffffffffffffffffffffffff1673ffffffffffffffffffffffffffffffffffffffff16815260200160028201548152602001600382018054610e85906139b9565b80601f0160208091040260200160405190810160405280929190818152602001828054610eb1906139b9565b8015610efe5780601f10610ed357610100808354040283529160200191610efe565b820191906000526020600020905b815481529060010190602001808311610ee157829003601f168201915b50505050508152602001600482015481526020016005820160009054906101000a900460ff16151515158152602001600682015481526020016007820160009054906101000a900460ff166003811115610f81577f4e487b7100000000000000000000000000000000000000000000000000000000600052602160045260246000fd5b6003811115610fb9577f4e487b7100000000000000000000000000000000000000000000000000000000600052602160045260246000fd5b8152505090506000816040015111611006576040517f08c379a0000000000000000000000000000000000000000000000000000000008152600401610ffd9061361f565b60405180910390fd5b806020015173ffffffffffffffffffffffffffffffffffffffff16816000015173ffffffffffffffffffffffffffffffffffffffff161461107c576040517f08c379a0000000000000000000000000000000000000000000000000000000008152600401611073906135bf565b60405180910390fd5b806000015173ffffffffffffffffffffffffffffffffffffffff166108fc82604001519081150290604051600060405180830381858888f193505050501580156110ca573d6000803e3d6000fd5b5060008160000151905060005b60038110156112085783600260008473ffffffffffffffffffffffffffffffffffffffff1673ffffffffffffffffffffffffffffffffffffffff1681526020019081526020016000208281548110611158577f4e487b7100000000000000000000000000000000000000000000000000000000600052603260045260246000fd5b906000526020600020015414156111f5576064600260008473ffffffffffffffffffffffffffffffffffffffff1673ffffffffffffffffffffffffffffffffffffffff16815260200190815260200160002082815481106111e2577f4e487b7100000000000000000000000000000000000000000000000000000000600052603260045260246000fd5b9060005260206000200181905550611208565b808061120090613a1c565b9150506110d7565b5060016000848152602001908152602001600020600080820160006101000a81549073ffffffffffffffffffffffffffffffffffffffff02191690556001820160006101000a81549073ffffffffffffffffffffffffffffffffffffffff021916905560028201600090556003820160006112839190612a34565b60048201600090556005820160006101000a81549060ff021916905560068201600090556007820160006101000a81549060ff02191690555050505050565b60055481565b60606000805467ffffffffffffffff81111561130d577f4e487b7100000000000000000000000000000000000000000000000000000000600052604160045260246000fd5b60405190808252806020026020018201604052801561134657816020015b611333612a74565b81526020019060019003908161132b5790505b50905060005b6000548110156115ca5760016000828152602001908152602001600020604051806101000160405290816000820160009054906101000a900473ffffffffffffffffffffffffffffffffffffffff1673ffffffffffffffffffffffffffffffffffffffff1673ffffffffffffffffffffffffffffffffffffffff1681526020016001820160009054906101000a900473ffffffffffffffffffffffffffffffffffffffff1673ffffffffffffffffffffffffffffffffffffffff1673ffffffffffffffffffffffffffffffffffffffff1681526020016002820154815260200160038201805461143b906139b9565b80601f0160208091040260200160405190810160405280929190818152602001828054611467906139b9565b80156114b45780601f10611489576101008083540402835291602001916114b4565b820191906000526020600020905b81548152906001019060200180831161149757829003601f168201915b50505050508152602001600482015481526020016005820160009054906101000a900460ff16151515158152602001600682015481526020016007820160009054906101000a900460ff166003811115611537577f4e487b7100000000000000000000000000000000000000000000000000000000600052602160045260246000fd5b600381111561156f577f4e487b7100000000000000000000000000000000000000000000000000000000600052602160045260246000fd5b815250508282815181106115ac577f4e487b7100000000000000000000000000000000000000000000000000000000600052603260045260246000fd5b602002602001018190525080806115c290613a1c565b91505061134c565b508091505090565b600460009054906101000a900473ffffffffffffffffffffffffffffffffffffffff1681565b60006001600083815260200190815260200160002090506000816002015411611656576040517f08c379a000000000000000000000000000000000000000000000000000000000815260040161164d9061369f565b60405180910390fd5b3373ffffffffffffffffffffffffffffffffffffffff168160000160009054906101000a900473ffffffffffffffffffffffffffffffffffffffff1673ffffffffffffffffffffffffffffffffffffffff1614156116e9576040517f08c379a00000000000000000000000000000000000000000000000000000000081526004016116e09061355f565b60405180910390fd5b8060010160009054906101000a900473ffffffffffffffffffffffffffffffffffffffff1673ffffffffffffffffffffffffffffffffffffffff168160000160009054906101000a900473ffffffffffffffffffffffffffffffffffffffff1673ffffffffffffffffffffffffffffffffffffffff161461179f576040517f08c379a00000000000000000000000000000000000000000000000000000000081526004016117969061367f565b60405180910390fd5b806002015434146117e5576040517f08c379a00000000000000000000000000000000000000000000000000000000081526004016117dc906136df565b60405180910390fd5b6000600260003373ffffffffffffffffffffffffffffffffffffffff1673ffffffffffffffffffffffffffffffffffffffff16815260200190815260200160002080549050111580611a2157506000600260003373ffffffffffffffffffffffffffffffffffffffff1673ffffffffffffffffffffffffffffffffffffffff16815260200190815260200160002080549050118015611a2057506064600260003373ffffffffffffffffffffffffffffffffffffffff1673ffffffffffffffffffffffffffffffffffffffff1681526020019081526020016000206000815481106118f9577f4e487b7100000000000000000000000000000000000000000000000000000000600052603260045260246000fd5b9060005260206000200154148061199257506064600260003373ffffffffffffffffffffffffffffffffffffffff1673ffffffffffffffffffffffffffffffffffffffff168152602001908152602001600020600181548110611985577f4e487b7100000000000000000000000000000000000000000000000000000000600052603260045260246000fd5b9060005260206000200154145b80611a1f57506064600260003373ffffffffffffffffffffffffffffffffffffffff1673ffffffffffffffffffffffffffffffffffffffff168152602001908152602001600020600281548110611a12577f4e487b7100000000000000000000000000000000000000000000000000000000600052603260045260246000fd5b9060005260206000200154145b5b5b611a60576040517f08c379a0000000000000000000000000000000000000000000000000000000008152600401611a579061359f565b60405180910390fd5b338160010160006101000a81548173ffffffffffffffffffffffffffffffffffffffff021916908373ffffffffffffffffffffffffffffffffffffffff1602179055506000600260003373ffffffffffffffffffffffffffffffffffffffff1673ffffffffffffffffffffffffffffffffffffffff1681526020019081526020016000208054905011611b655760006005819055506040518060600160405280838152602001606481526020016064815250600260003373ffffffffffffffffffffffffffffffffffffffff1673ffffffffffffffffffffffffffffffffffffffff168152602001908152602001600020906003611b5f929190612b1f565b50611ca3565b600160058190555060005b6003811015611ca1576064600260003373ffffffffffffffffffffffffffffffffffffffff1673ffffffffffffffffffffffffffffffffffffffff1681526020019081526020016000208281548110611bf2577f4e487b7100000000000000000000000000000000000000000000000000000000600052603260045260246000fd5b90600052602060002001541415611c8e5782600260003373ffffffffffffffffffffffffffffffffffffffff1673ffffffffffffffffffffffffffffffffffffffff1681526020019081526020016000208281548110611c7b577f4e487b7100000000000000000000000000000000000000000000000000000000600052603260045260246000fd5b9060005260206000200181905550611ca1565b8080611c9990613a1c565b915050611b70565b505b5050565b60003411611cea576040517f08c379a0000000000000000000000000000000000000000000000000000000008152600401611ce1906135ff565b60405180910390fd5b6000600260003373ffffffffffffffffffffffffffffffffffffffff1673ffffffffffffffffffffffffffffffffffffffff16815260200190815260200160002080549050111580611f2657506000600260003373ffffffffffffffffffffffffffffffffffffffff1673ffffffffffffffffffffffffffffffffffffffff16815260200190815260200160002080549050118015611f2557506064600260003373ffffffffffffffffffffffffffffffffffffffff1673ffffffffffffffffffffffffffffffffffffffff168152602001908152602001600020600081548110611dfe577f4e487b7100000000000000000000000000000000000000000000000000000000600052603260045260246000fd5b90600052602060002001541480611e9757506064600260003373ffffffffffffffffffffffffffffffffffffffff1673ffffffffffffffffffffffffffffffffffffffff168152602001908152602001600020600181548110611e8a577f4e487b7100000000000000000000000000000000000000000000000000000000600052603260045260246000fd5b9060005260206000200154145b80611f2457506064600260003373ffffffffffffffffffffffffffffffffffffffff1673ffffffffffffffffffffffffffffffffffffffff168152602001908152602001600020600281548110611f17577f4e487b7100000000000000000000000000000000000000000000000000000000600052603260045260246000fd5b9060005260206000200154145b5b5b611f65576040517f08c379a0000000000000000000000000000000000000000000000000000000008152600401611f5c9061359f565b60405180910390fd5b6040518061010001604052803373ffffffffffffffffffffffffffffffffffffffff1681526020013373ffffffffffffffffffffffffffffffffffffffff1681526020013481526020018481526020018381526020018215158152602001600460009054906101000a900473ffffffffffffffffffffffffffffffffffffffff1673ffffffffffffffffffffffffffffffffffffffff166344a11f656003876040516120119190613417565b908152602001604051809103902060009054906101000a900473ffffffffffffffffffffffffffffffffffffffff166040518263ffffffff1660e01b815260040161205c9190613445565b60206040518083038186803b15801561207457600080fd5b505afa158015612088573d6000803e3d6000fd5b505050506040513d601f19601f820116820180604052508101906120ac9190612d30565b81526020016003808111156120ea577f4e487b7100000000000000000000000000000000000000000000000000000000600052602160045260246000fd5b815250600160008054815260200190815260200160002060008201518160000160006101000a81548173ffffffffffffffffffffffffffffffffffffffff021916908373ffffffffffffffffffffffffffffffffffffffff16021790555060208201518160010160006101000a81548173ffffffffffffffffffffffffffffffffffffffff021916908373ffffffffffffffffffffffffffffffffffffffff1602179055506040820151816002015560608201518160030190805190602001906121b5929190612b6c565b506080820151816004015560a08201518160050160006101000a81548160ff02191690831515021790555060c0820151816006015560e08201518160070160006101000a81548160ff0219169083600381111561223b577f4e487b7100000000000000000000000000000000000000000000000000000000600052602160045260246000fd5b02179055509050506000547fa85f9845510d83562eaa9e779b6973f58826879a69d5613807f0415e1ce692c4336040516122759190613445565b60405180910390a26000600260003373ffffffffffffffffffffffffffffffffffffffff1673ffffffffffffffffffffffffffffffffffffffff16815260200190815260200160002080549050116123395760405180606001604052806000548152602001606481526020016064815250600260003373ffffffffffffffffffffffffffffffffffffffff1673ffffffffffffffffffffffffffffffffffffffff168152602001908152602001600020906003612333929190612b1f565b50612471565b60005b600381101561246f576064600260003373ffffffffffffffffffffffffffffffffffffffff1673ffffffffffffffffffffffffffffffffffffffff16815260200190815260200160002082815481106123be577f4e487b7100000000000000000000000000000000000000000000000000000000600052603260045260246000fd5b9060005260206000200154141561245c57600054600260003373ffffffffffffffffffffffffffffffffffffffff1673ffffffffffffffffffffffffffffffffffffffff1681526020019081526020016000208281548110612449577f4e487b7100000000000000000000000000000000000000000000000000000000600052603260045260246000fd5b906000526020600020018190555061246f565b808061246790613a1c565b91505061233c565b505b60008081548092919061248390613a1c565b9190505550505050565b612495612a74565b600060016000848152602001908152602001600020905060008160020154116124f3576040517f08c379a00000000000000000000000000000000000000000000000000000000081526004016124ea9061357f565b60405180910390fd5b60016000848152602001908152602001600020604051806101000160405290816000820160009054906101000a900473ffffffffffffffffffffffffffffffffffffffff1673ffffffffffffffffffffffffffffffffffffffff1673ffffffffffffffffffffffffffffffffffffffff1681526020016001820160009054906101000a900473ffffffffffffffffffffffffffffffffffffffff1673ffffffffffffffffffffffffffffffffffffffff1673ffffffffffffffffffffffffffffffffffffffff168152602001600282015481526020016003820180546125d8906139b9565b80601f0160208091040260200160405190810160405280929190818152602001828054612604906139b9565b80156126515780601f1061262657610100808354040283529160200191612651565b820191906000526020600020905b81548152906001019060200180831161263457829003601f168201915b50505050508152602001600482015481526020016005820160009054906101000a900460ff16151515158152602001600682015481526020016007820160009054906101000a900460ff1660038111156126d4577f4e487b7100000000000000000000000000000000000000000000000000000000600052602160045260246000fd5b600381111561270c577f4e487b7100000000000000000000000000000000000000000000000000000000600052602160045260246000fd5b81525050915050919050565b6002602052816000526040600020818154811061273457600080fd5b90600052602060002001600091509150505481565b60016020528060005260406000206000915090508060000160009054906101000a900473ffffffffffffffffffffffffffffffffffffffff16908060010160009054906101000a900473ffffffffffffffffffffffffffffffffffffffff16908060020154908060030180546127be906139b9565b80601f01602080910402602001604051908101604052809291908181526020018280546127ea906139b9565b80156128375780601f1061280c57610100808354040283529160200191612837565b820191906000526020600020905b81548152906001019060200180831161281a57829003601f168201915b5050505050908060040154908060050160009054906101000a900460ff16908060060154908060070160009054906101000a900460ff16905088565b6003818051602081018201805184825260208301602085012081835280955050505050506000915054906101000a900473ffffffffffffffffffffffffffffffffffffffff1681565b60606000600260008473ffffffffffffffffffffffffffffffffffffffff1673ffffffffffffffffffffffffffffffffffffffff16815260200190815260200160002080549050111561299e57600260008373ffffffffffffffffffffffffffffffffffffffff1673ffffffffffffffffffffffffffffffffffffffff16815260200190815260200160002080548060200260200160405190810160405280929190818152602001828054801561299257602002820191906000526020600020905b81548152602001906001019080831161297e575b50505050509050612a2f565b600260008373ffffffffffffffffffffffffffffffffffffffff1673ffffffffffffffffffffffffffffffffffffffff168152602001908152602001600020805480602002602001604051908101604052809291908181526020018280548015612a2757602002820191906000526020600020905b815481526020019060010190808311612a13575b505050505090505b919050565b508054612a40906139b9565b6000825580601f10612a525750612a71565b601f016020900490600052602060002090810190612a709190612bf2565b5b50565b604051806101000160405280600073ffffffffffffffffffffffffffffffffffffffff168152602001600073ffffffffffffffffffffffffffffffffffffffff1681526020016000815260200160608152602001600081526020016000151581526020016000815260200160006003811115612b19577f4e487b7100000000000000000000000000000000000000000000000000000000600052602160045260246000fd5b81525090565b828054828255906000526020600020908101928215612b5b579160200282015b82811115612b5a578251825591602001919060010190612b3f565b5b509050612b689190612bf2565b5090565b828054612b78906139b9565b90600052602060002090601f016020900481019282612b9a5760008555612be1565b82601f10612bb357805160ff1916838001178555612be1565b82800160010185558215612be1579182015b82811115612be0578251825591602001919060010190612bc5565b5b509050612bee9190612bf2565b5090565b5b80821115612c0b576000816000905550600101612bf3565b5090565b6000612c22612c1d84613761565b61373c565b905082815260208101848484011115612c3a57600080fd5b612c45848285613977565b509392505050565b600081359050612c5c81613e6e565b92915050565b600081359050612c7181613e85565b92915050565b600081519050612c8681613e9c565b92915050565b600082601f830112612c9d57600080fd5b8135612cad848260208601612c0f565b91505092915050565b600081359050612cc581613eb3565b92915050565b600060208284031215612cdd57600080fd5b6000612ceb84828501612c4d565b91505092915050565b60008060408385031215612d0757600080fd5b6000612d1585828601612c4d565b9250506020612d2685828601612cb6565b9150509250929050565b600060208284031215612d4257600080fd5b6000612d5084828501612c77565b91505092915050565b600060208284031215612d6b57600080fd5b600082013567ffffffffffffffff811115612d8557600080fd5b612d9184828501612c8c565b91505092915050565b600080600060608486031215612daf57600080fd5b600084013567ffffffffffffffff811115612dc957600080fd5b612dd586828701612c8c565b9350506020612de686828701612cb6565b9250506040612df786828701612c62565b9150509250925092565b600060208284031215612e1357600080fd5b6000612e2184828501612cb6565b91505092915050565b6000612e368383613299565b905092915050565b6000612e4a83836133f9565b60208301905092915050565b612e5f816138dc565b82525050565b612e6e816138dc565b82525050565b6000612e7f826137c7565b612e898185613802565b935083602082028501612e9b85613792565b8060005b85811015612ed75784840389528151612eb88582612e2a565b9450612ec3836137e8565b925060208a01995050600181019050612e9f565b50829750879550505050505092915050565b6000612ef4826137d2565b612efe8185613813565b9350612f09836137a2565b8060005b83811015612f3a578151612f218882612e3e565b9750612f2c836137f5565b925050600181019050612f0d565b5085935050505092915050565b612f50816138ee565b82525050565b612f5f816138ee565b82525050565b612f6e81613941565b82525050565b612f7d81613965565b82525050565b612f8c81613965565b82525050565b612f9b8161390d565b82525050565b612faa8161390d565b82525050565b6000612fbb826137dd565b612fc58185613824565b9350612fd5818560208601613986565b612fde81613b50565b840191505092915050565b6000612ff4826137dd565b612ffe8185613835565b935061300e818560208601613986565b61301781613b50565b840191505092915050565b600061302d826137dd565b6130378185613846565b9350613047818560208601613986565b80840191505092915050565b60008154613060816139b9565b61306a8186613846565b945060018216600081146130855760018114613096576130c9565b60ff198316865281860193506130c9565b61309f856137b2565b60005b838110156130c1578154818901526001820191506020810190506130a2565b838801955050505b50505092915050565b60006130df602583613835565b91506130ea82613b61565b604082019050919050565b6000613102601983613835565b915061310d82613bb0565b602082019050919050565b6000613125601083613835565b915061313082613bd9565b602082019050919050565b6000613148603983613835565b915061315382613c02565b604082019050919050565b600061316b601983613835565b915061317682613c51565b602082019050919050565b600061318e602283613835565b915061319982613c7a565b604082019050919050565b60006131b1601883613835565b91506131bc82613cc9565b602082019050919050565b60006131d4602083613835565b91506131df82613cf2565b602082019050919050565b60006131f7601183613835565b915061320282613d1b565b602082019050919050565b600061321a602e83613835565b915061322582613d44565b604082019050919050565b600061323d601b83613835565b915061324882613d93565b602082019050919050565b6000613260602583613835565b915061326b82613dbc565b604082019050919050565b6000613283603183613835565b915061328e82613e0b565b604082019050919050565b6000610100830160008301516132b26000860182612e56565b5060208301516132c56020860182612e56565b5060408301516132d860408601826133f9565b50606083015184820360608601526132f08282612fb0565b915050608083015161330560808601826133f9565b5060a083015161331860a0860182612f47565b5060c083015161332b60c0860182612f92565b5060e083015161333e60e0860182612f74565b508091505092915050565b6000610100830160008301516133626000860182612e56565b5060208301516133756020860182612e56565b50604083015161338860408601826133f9565b50606083015184820360608601526133a08282612fb0565b91505060808301516133b560808601826133f9565b5060a08301516133c860a0860182612f47565b5060c08301516133db60c0860182612f92565b5060e08301516133ee60e0860182612f74565b508091505092915050565b61340281613937565b82525050565b61341181613937565b82525050565b60006134238284613022565b915081905092915050565b600061343a8284613053565b915081905092915050565b600060208201905061345a6000830184612e65565b92915050565b600061010082019050613476600083018b612e65565b613483602083018a612e65565b6134906040830189613408565b81810360608301526134a28188612fe9565b90506134b16080830187613408565b6134be60a0830186612f56565b6134cb60c0830185612fa1565b6134d860e0830184612f83565b9998505050505050505050565b600060208201905081810360008301526134ff8184612e74565b905092915050565b600060208201905081810360008301526135218184612ee9565b905092915050565b600060208201905061353e6000830184612f65565b92915050565b60006020820190506135596000830184612fa1565b92915050565b60006020820190508181036000830152613578816130d2565b9050919050565b60006020820190508181036000830152613598816130f5565b9050919050565b600060208201905081810360008301526135b881613118565b9050919050565b600060208201905081810360008301526135d88161313b565b9050919050565b600060208201905081810360008301526135f88161315e565b9050919050565b6000602082019050818103600083015261361881613181565b9050919050565b60006020820190508181036000830152613638816131a4565b9050919050565b60006020820190508181036000830152613658816131c7565b9050919050565b60006020820190508181036000830152613678816131ea565b9050919050565b600060208201905081810360008301526136988161320d565b9050919050565b600060208201905081810360008301526136b881613230565b9050919050565b600060208201905081810360008301526136d881613253565b9050919050565b600060208201905081810360008301526136f881613276565b9050919050565b600060208201905081810360008301526137198184613349565b905092915050565b60006020820190506137366000830184613408565b92915050565b6000613746613757565b905061375282826139eb565b919050565b6000604051905090565b600067ffffffffffffffff82111561377c5761377b613b21565b5b61378582613b50565b9050602081019050919050565b6000819050602082019050919050565b6000819050602082019050919050565b60008190508160005260206000209050919050565b600081519050919050565b600081519050919050565b600081519050919050565b6000602082019050919050565b6000602082019050919050565b600082825260208201905092915050565b600082825260208201905092915050565b600082825260208201905092915050565b600082825260208201905092915050565b600081905092915050565b600061385c82613937565b915061386783613937565b92508261387757613876613a94565b5b828204905092915050565b600061388d82613937565b915061389883613937565b9250817fffffffffffffffffffffffffffffffffffffffffffffffffffffffffffffffff04831182151516156138d1576138d0613a65565b5b828202905092915050565b60006138e782613917565b9050919050565b60008115159050919050565b600081905061390882613e5a565b919050565b6000819050919050565b600073ffffffffffffffffffffffffffffffffffffffff82169050919050565b6000819050919050565b600061394c82613953565b9050919050565b600061395e82613917565b9050919050565b6000613970826138fa565b9050919050565b82818337600083830152505050565b60005b838110156139a4578082015181840152602081019050613989565b838111156139b3576000848401525b50505050565b600060028204905060018216806139d157607f821691505b602082108114156139e5576139e4613af2565b5b50919050565b6139f482613b50565b810181811067ffffffffffffffff82111715613a1357613a12613b21565b5b80604052505050565b6000613a2782613937565b91507fffffffffffffffffffffffffffffffffffffffffffffffffffffffffffffffff821415613a5a57613a59613a65565b5b600182019050919050565b7f4e487b7100000000000000000000000000000000000000000000000000000000600052601160045260246000fd5b7f4e487b7100000000000000000000000000000000000000000000000000000000600052601260045260246000fd5b7f4e487b7100000000000000000000000000000000000000000000000000000000600052602160045260246000fd5b7f4e487b7100000000000000000000000000000000000000000000000000000000600052602260045260246000fd5b7f4e487b7100000000000000000000000000000000000000000000000000000000600052604160045260246000fd5b6000601f19601f8301169050919050565b7f496d706f737369626c6520746f20666967687420616761696e737420796f757260008201527f73656c662e000000000000000000000000000000000000000000000000000000602082015250565b7f5468697320626174746c652069736e27742065786973742e0a00000000000000600082015250565b7f546f6f206d616e7920626174746c657300000000000000000000000000000000600082015250565b7f546865726520697320616c7265616479206f70706f6e656e742c20746869732060008201527f626174746c652063616e27742062652063616e63656c65642e00000000000000602082015250565b7f5468697320626174746c65206469646e27742073746172742e00000000000000600082015250565b7f596f75206861766520746f20626574206f6e20706f7369746976652076616c7560008201527f6521000000000000000000000000000000000000000000000000000000000000602082015250565b7f5468697320626174746c652069736e27742065786973742e0000000000000000600082015250565b7f596f7520617265206e6f742070617274206f66207468697320626174746c652e600082015250565b7f576974686472617720616c72656164792e000000000000000000000000000000600082015250565b7f5468697320626174746c6520697320636c6f7365642c206f70706f6e656e742060008201527f616c72656164792065786973742e000000000000000000000000000000000000602082015250565b7f426174746c65206e756d6265722069736e27742065786973742e0a0000000000600082015250565b7f546f6f206561726c7920746f20636865636b2077686f2069732074686520776960008201527f6e6e65722e000000000000000000000000000000000000000000000000000000602082015250565b7f42657474696e672076616c75652069736e27742061732073706563696669656460008201527f20666f72207468697320626174746c652e000000000000000000000000000000602082015250565b60048110613e6b57613e6a613ac3565b5b50565b613e77816138dc565b8114613e8257600080fd5b50565b613e8e816138ee565b8114613e9957600080fd5b50565b613ea58161390d565b8114613eb057600080fd5b50565b613ebc81613937565b8114613ec757600080fd5b5056fea26469706673582212203d56030b85373d7c6fc7d0e1cdf778b5646820b88ee690c0b08970ad0ca85af164736f6c63430008030033608060405234801561001057600080fd5b506102fc806100206000396000f3fe608060405234801561001057600080fd5b506004361061002b5760003560e01c806344a11f6514610030575b600080fd5b61004a60048036038101906100459190610144565b610060565b60405161005791906101f3565b60405180910390f35b6000808273ffffffffffffffffffffffffffffffffffffffff1663feaf968c6040518163ffffffff1660e01b815260040160a06040518083038186803b1580156100a957600080fd5b505afa1580156100bd573d6000803e3d6000fd5b505050506040513d601f19601f820116820180604052508101906100e1919061016d565b50505091505080915050919050565b6000813590506100ff8161026a565b92915050565b60008151905061011481610281565b92915050565b60008151905061012981610298565b92915050565b60008151905061013e816102af565b92915050565b60006020828403121561015657600080fd5b6000610164848285016100f0565b91505092915050565b600080600080600060a0868803121561018557600080fd5b60006101938882890161012f565b95505060206101a488828901610105565b94505060406101b58882890161011a565b93505060606101c68882890161011a565b92505060806101d78882890161012f565b9150509295509295909350565b6101ed81610220565b82525050565b600060208201905061020860008301846101e4565b92915050565b60006102198261022a565b9050919050565b6000819050919050565b600073ffffffffffffffffffffffffffffffffffffffff82169050919050565b6000819050919050565b600069ffffffffffffffffffff82169050919050565b6102738161020e565b811461027e57600080fd5b50565b61028a81610220565b811461029557600080fd5b50565b6102a18161024a565b81146102ac57600080fd5b50565b6102b881610254565b81146102c357600080fd5b5056fea264697066735822122067f529d65b74f0da7ea76c2dc1c15817e84e269b54410f629a0a377abd43a16d64736f6c63430008030033",
  "immutableReferences": {},
  "source": "// SPDX-License-Identifier: MIT\r\npragma solidity ^0.8.3;\r\nimport \"./PriceFeed.sol\";\r\n\r\ncontract BinaryOption{\r\n\r\n    uint256 public battleId; // unique id for each battle\r\n    mapping(uint256 => Battle) public battleInfo; // map of the existing battles\r\n    mapping(address => uint256[]) public addressToBattle; // map of relevant battles\r\n    mapping(string => address) public feedAddress; // map of addresses for the price feeds\r\n    PriceFeed public priceFeed;\r\n    int public b = 2;\r\n    event AddEvent(\r\n    uint256 indexed id,\r\n    address address_field//\r\n    );\r\n\r\n    enum Status {\r\n            Opponent,\r\n            Creator,\r\n            Draw,\r\n            NotOver\r\n        }\r\n\r\n    struct Battle {\r\n        address creator;\r\n        address opponent;\r\n        uint256 amountBet;\r\n        string betType;\r\n        uint betDate;\r\n        bool isUp;\r\n        int currVal;\r\n        Status whoWin; // 0 for opponent, 1 for creator, 2 for draw, 3 if not over\r\n    }\r\n\r\n\r\n    constructor()  {\r\n        priceFeed = new PriceFeed();\r\n        bool isKovan = false; // true if kovan, otherwise rinkeby\r\n\r\n        if (isKovan){\r\n        feedAddress[\"EthVsUsd\"] = 0x9326BFA02ADD2366b30bacB125260Af641031331;\r\n        }\r\n        else {\r\n        // those addresses (of rinkbey test network) can be found at: https://docs.chain.link/docs/ethereum-addresses/\r\n        feedAddress[\"eth_vs_usd\"] = 0x8A753747A1Fa494EC906cE90E9f37563A8AF630e;\r\n        feedAddress[\"btc_vs_usd\"] = 0xECe365B379E1dD183B20fc5f022230C044d51404;\r\n        feedAddress[\"eur_vs_usd\"] = 0x78F9e60608bF48a1155b4B2A5e31F32318a1d85F;\r\n        feedAddress[\"usdc_vs_eth\"] = 0xdCA36F27cbC4E38aE16C4E9f99D39b42337F6dcf;\r\n        feedAddress[\"dai_vs_usd\"] = 0x2bA49Aaa16E6afD2a993473cfB70Fa8559B523cF;\r\n        feedAddress[\"dai_vs_eth\"] = 0x74825DbC8BF76CC4e9494d0ecB210f676Efa001D;\r\n        feedAddress[\"sdefi_vs_usd\"] = 0x0630521aC362bc7A19a4eE44b57cE72Ea34AD01c;\r\n        feedAddress[\"snx_vs_usd\"] = 0xE96C4407597CD507002dF88ff6E0008AB41266Ee;\r\n        }\r\n\r\n    }\r\n       /*function getB() public view returns (int){\r\n          return b;\r\n       }\r\n\r\n       function getList(address a) public view returns (uint256[] memory){\r\n          return addressToBattle[a];\r\n       }*/\r\n\r\n\r\n    // a creator create a new battle\r\n    function addBattle(string memory betType,uint betDate,bool direction) public payable {\r\n        require(msg.value > 0, \"You have to bet on positive value!\");\r\n        // doesn't play more than 3 games simultaneously\r\n        require(!(addressToBattle[msg.sender].length > 0) || (addressToBattle[msg.sender].length > 0\r\n        && (addressToBattle[msg.sender][0]==100 || addressToBattle[msg.sender][1]==100 || addressToBattle[msg.sender][2]==100)), \"Too many battles\" );\r\n        battleInfo[battleId] = Battle(msg.sender,msg.sender,msg.value,betType,betDate,direction,\r\n        priceFeed.getThePrice(feedAddress[betType]), Status.NotOver);\r\n        emit AddEvent(battleId, msg.sender);\r\n        if (!(addressToBattle[msg.sender].length > 0)){\r\n        //b = 1;\r\n        addressToBattle[msg.sender] = [battleId, 100, 100]; // 100 signs empty entry. -1 doesn't work\r\n        } else {\r\n            //b = 0;\r\n            for(uint i = 0; i < 3; i++){\r\n                if (addressToBattle[msg.sender][i] == 100){\r\n                    addressToBattle[msg.sender][i] = battleId;\r\n                    break;\r\n                }\r\n            }\r\n        }\r\n        battleId++;\r\n    }\r\n\r\n    function getaddressToBattle(address a) public view returns(uint256[] memory) {\r\n\r\n            if (addressToBattle[a].length > 0){\r\n                return addressToBattle[a];\r\n            } else {\r\n                return addressToBattle[a]; // need to change!!!!!!!!!!!!!!!!!!!!!!!! I have no idea what to return\r\n            }\r\n        }\r\n\r\n    function getBattleInfo(uint256 battle_id) public returns(Battle memory) {\r\n        Battle storage bate = battleInfo[battle_id];\r\n        require(bate.amountBet > 0, \"This battle isn't exist.\\n\");\r\n        return battleInfo[battle_id];\r\n    }\r\n\r\n    function getAll() public view returns (Battle[] memory){\r\n            Battle[] memory ret = new Battle[](battleId);\r\n            for (uint i = 0; i < battleId; i++) {\r\n                ret[i] = battleInfo[i];\r\n            }\r\n            return ret;\r\n    }\r\n\r\n    // an opponent is signed to battle number: battle_id\r\n    function acceptBattle(uint256 battle_id) public payable{\r\n\r\n        Battle storage bate = battleInfo[battle_id];\r\n        require(bate.amountBet > 0, \"Battle number isn't exist.\\n\");\r\n        require(bate.creator != msg.sender, \"Impossible to fight against yourself.\");\r\n        require(bate.creator == bate.opponent, \"This battle is closed, opponent already exist.\");\r\n        require(msg.value == bate.amountBet, \"Betting value isn't as specified for this battle.\");\r\n        // doesn't play more than 3 games simultaneously\r\n        require(!(addressToBattle[msg.sender].length > 0) || (addressToBattle[msg.sender].length > 0\r\n        && (addressToBattle[msg.sender][0]==100 || addressToBattle[msg.sender][1]==100 || addressToBattle[msg.sender][2]==100)), \"Too many battles\" );\r\n        bate.opponent = msg.sender;\r\n        if (!(addressToBattle[msg.sender].length > 0)){\r\n            b = 0;\r\n            addressToBattle[msg.sender] = [battle_id, 100, 100];\r\n        } else {\r\n            b = 1;\r\n            for(uint i = 0; i < 3; i++){\r\n                if (addressToBattle[msg.sender][i] == 100){\r\n                    addressToBattle[msg.sender][i] = battle_id;\r\n                    break;\r\n                }\r\n            }\r\n        }\r\n    }\r\n\r\n\r\n    // a creator cancels his battle\r\n    function cancelBattle(uint256 battle_id) public {\r\n        Battle memory bate = battleInfo[battle_id];\r\n        require(bate.amountBet > 0, \"This battle isn't exist.\");\r\n        //require(bate.creator == msg.sender, \"Only the creator may cancel his own battle.\");\r\n        require(bate.creator == bate.opponent, \"There is already opponent, this battle can't be canceled.\");\r\n        payable(bate.creator).transfer(bate.amountBet); // return the amount which was invested\r\n        address creator = bate.creator;\r\n        for (uint i = 0; i < 3; i++){\r\n            if(addressToBattle[creator][i] == battle_id){\r\n                addressToBattle[creator][i] = 100;\r\n                break;\r\n            }\r\n        }\r\n        delete battleInfo[battle_id]; // battle is canceled\r\n    }\r\n\r\n    // the winner may draw his money\r\n    function withdraw(uint256 battle_id) public {\r\n        Status winner; // 0 = lose 1 = win 2 = draw\r\n        int oldPrice;\r\n        int newPrice;\r\n        Battle storage bate=battleInfo[battle_id];\r\n        uint betDateSecond = bate.betDate / 1000; // divide by 1000 to convert milliseconds to seconds\r\n        require(battleInfo[battle_id].creator != battleInfo[battle_id].opponent, \"This battle didn't start.\"); // in case the creator try to withdraw before having opponent. He may cancel battle if he wants.\r\n        require((bate.creator == msg.sender || bate.opponent == msg.sender), \"You are not part of this battle.\");\r\n        require(block.timestamp >= betDateSecond, \"Too early to check who is the winner.\");\r\n        require(bate.whoWin == Status.NotOver, \"Withdraw already.\");\r\n        oldPrice = bate.currVal;\r\n        newPrice = priceFeed.getThePrice(feedAddress[bate.betType]);\r\n        // deliver the money to the winner\r\n        if(oldPrice < newPrice){\r\n\r\n            if (bate.isUp){\r\n                winner = Status.Creator;\r\n                payable(bate.creator).transfer(2 * bate.amountBet); // multiply by 2 since we deliver the money of both the creator and his opponent\r\n            }\r\n            else{\r\n                winner = Status.Opponent;\r\n                payable(bate.opponent).transfer(2*bate.amountBet);\r\n            }\r\n\r\n        }\r\n        else if (oldPrice > newPrice){\r\n\r\n            if (bate.isUp){\r\n                winner = Status.Opponent;\r\n                payable(bate.opponent).transfer(2 * bate.amountBet);\r\n            }\r\n            else {\r\n                winner = Status.Creator;\r\n                payable(bate.creator).transfer(2*bate.amountBet);\r\n            }\r\n        }\r\n\r\n        else {\r\n            winner = Status.Draw;\r\n            payable(bate.opponent).transfer(bate.amountBet);\r\n            payable(bate.creator).transfer(bate.amountBet);\r\n        }\r\n\r\n        bate.whoWin = winner;\r\n        address creator = battleInfo[battle_id].creator;\r\n        address opponent = battleInfo[battle_id].opponent;\r\n        for (uint i = 0; i < 3; i ++){\r\n            if(addressToBattle[creator][i] == battle_id){\r\n                addressToBattle[creator][i] = 100;\r\n                break;\r\n            }\r\n        }\r\n        for (uint i = 0; i < 3; i ++){\r\n             if(addressToBattle[opponent][i] == battle_id){\r\n                addressToBattle[opponent][i] = 100;\r\n                break;\r\n             }\r\n        }\r\n    }\r\n}",
  "sourcePath": "C:/Users/Admin/IdeaProjects/tau_Smart_contract/src/solidity/contracts/BinaryOption.sol",
  "compiler": {
    "name": "solc",
    "version": "0.8.3+commit.8d00100c.Emscripten.clang"
  },
  "schemaVersion": "3.3.4",
  "updatedAt": "2021-08-26T13:28:44.179Z",
  "networkType": "ethereum",
  "devdoc": {
    "kind": "dev",
    "methods": {},
    "version": 1
  },
  "userdoc": {
    "kind": "user",
    "methods": {},
    "version": 1
  }
}