{
  "contractName": "BinaryOption",
  "abi": [
    {
      "inputs": [],
      "stateMutability": "nonpayable",
      "type": "constructor"
    },
    {
      "anonymous": false,
      "inputs": [
        {
          "indexed": true,
          "internalType": "uint256",
          "name": "id",
          "type": "uint256"
        },
        {
          "indexed": true,
          "internalType": "uint256",
          "name": "amount",
          "type": "uint256"
        },
        {
          "indexed": false,
          "internalType": "int256",
          "name": "win",
          "type": "int256"
        }
      ],
      "name": "MyEvent",
      "type": "event"
    },
    {
      "inputs": [],
      "name": "age",
      "outputs": [
        {
          "internalType": "contract Aggre",
          "name": "",
          "type": "address"
        }
      ],
      "stateMutability": "view",
      "type": "function"
    },
    {
      "inputs": [],
      "name": "battleId",
      "outputs": [
        {
          "internalType": "uint256",
          "name": "",
          "type": "uint256"
        }
      ],
      "stateMutability": "view",
      "type": "function"
    },
    {
      "inputs": [
        {
          "internalType": "uint256",
          "name": "",
          "type": "uint256"
        }
      ],
      "name": "battleInfo",
      "outputs": [
        {
          "internalType": "address",
          "name": "creator",
          "type": "address"
        },
        {
          "internalType": "address",
          "name": "opponent",
          "type": "address"
        },
        {
          "internalType": "uint256",
          "name": "amountBet",
          "type": "uint256"
        },
        {
          "internalType": "string",
          "name": "betType",
          "type": "string"
        },
        {
          "internalType": "uint256",
          "name": "betDate",
          "type": "uint256"
        },
        {
          "internalType": "bool",
          "name": "isUp",
          "type": "bool"
        },
        {
          "internalType": "int256",
          "name": "currVal",
          "type": "int256"
        }
      ],
      "stateMutability": "view",
      "type": "function"
    },
    {
      "inputs": [
        {
          "internalType": "string",
          "name": "",
          "type": "string"
        }
      ],
      "name": "feedAddress",
      "outputs": [
        {
          "internalType": "address",
          "name": "",
          "type": "address"
        }
      ],
      "stateMutability": "view",
      "type": "function"
    },
    {
      "inputs": [],
      "name": "owner",
      "outputs": [
        {
          "internalType": "address",
          "name": "",
          "type": "address"
        }
      ],
      "stateMutability": "view",
      "type": "function"
    },
    {
      "inputs": [],
      "name": "tempVal",
      "outputs": [
        {
          "internalType": "uint256",
          "name": "",
          "type": "uint256"
        }
      ],
      "stateMutability": "view",
      "type": "function"
    },
    {
      "inputs": [
        {
          "internalType": "string",
          "name": "betType",
          "type": "string"
        },
        {
          "internalType": "uint256",
          "name": "betDate",
          "type": "uint256"
        },
        {
          "internalType": "bool",
          "name": "direction",
          "type": "bool"
        }
      ],
      "name": "addBattle",
      "outputs": [
        {
          "internalType": "uint256",
          "name": "",
          "type": "uint256"
        }
      ],
      "stateMutability": "payable",
      "type": "function"
    },
    {
      "inputs": [
        {
          "internalType": "uint256",
          "name": "battle_id",
          "type": "uint256"
        }
      ],
      "name": "getBattleInfo",
      "outputs": [
        {
          "components": [
            {
              "internalType": "address",
              "name": "creator",
              "type": "address"
            },
            {
              "internalType": "address",
              "name": "opponent",
              "type": "address"
            },
            {
              "internalType": "uint256",
              "name": "amountBet",
              "type": "uint256"
            },
            {
              "internalType": "string",
              "name": "betType",
              "type": "string"
            },
            {
              "internalType": "uint256",
              "name": "betDate",
              "type": "uint256"
            },
            {
              "internalType": "bool",
              "name": "isUp",
              "type": "bool"
            },
            {
              "internalType": "int256",
              "name": "currVal",
              "type": "int256"
            }
          ],
          "internalType": "struct BinaryOption.Battle",
          "name": "",
          "type": "tuple"
        }
      ],
      "stateMutability": "payable",
      "type": "function"
    }
  ],
  "bytecode": "0x60806040523480156200001157600080fd5b506040516200002090620000f5565b604051809103906000f0801580156200003d573d6000803e3d6000fd5b50600660006101000a81548173ffffffffffffffffffffffffffffffffffffffff021916908373ffffffffffffffffffffffffffffffffffffffff160217905550738a753747a1fa494ec906ce90e9f37563a8af630e6005604051620000a3906200012a565b908152602001604051809103902060006101000a81548173ffffffffffffffffffffffffffffffffffffffff021916908373ffffffffffffffffffffffffffffffffffffffff16021790555062000175565b610607806200151e83390190565b60006200011260088362000141565b91506200011f826200014c565b600882019050919050565b6000620001378262000103565b9150819050919050565b600081905092915050565b7f4574685673557364000000000000000000000000000000000000000000000000600082015250565b61139980620001856000396000f3fe60806040526004361061007b5760003560e01c8063bfc8b8c61161004e578063bfc8b8c61461012c578063c0a6e9d71461015c578063db71dcdc1461018c578063e4bb7a1e146101cf5761007b565b806301a1b77814610080578063262a9dff146100ab5780638da5cb5b146100d6578063a9e23bea14610101575b600080fd5b34801561008c57600080fd5b5061009561020c565b6040516100a29190610f7c565b60405180910390f35b3480156100b757600080fd5b506100c0610212565b6040516100cd9190610edf565b60405180910390f35b3480156100e257600080fd5b506100eb610238565b6040516100f89190610e4e565b60405180910390f35b34801561010d57600080fd5b5061011661025e565b6040516101239190610f7c565b60405180910390f35b61014660048036038101906101419190610b78565b610264565b6040516101539190610f7c565b60405180910390f35b61017660048036038101906101719190610bdf565b61051b565b6040516101839190610f5a565b60405180910390f35b34801561019857600080fd5b506101b360048036038101906101ae9190610bdf565b6107f9565b6040516101c69796959493929190610e69565b60405180910390f35b3480156101db57600080fd5b506101f660048036038101906101f19190610b37565b610910565b6040516102039190610e4e565b60405180910390f35b60005481565b600660009054906101000a900473ffffffffffffffffffffffffffffffffffffffff1681565b600260009054906101000a900473ffffffffffffffffffffffffffffffffffffffff1681565b60035481565b60008034116102a8576040517f08c379a000000000000000000000000000000000000000000000000000000000815260040161029f90610f1a565b60405180910390fd5b6040518060e001604052803373ffffffffffffffffffffffffffffffffffffffff1681526020013373ffffffffffffffffffffffffffffffffffffffff16815260200134815260200185815260200184426103039190611025565b81526020018315158152602001600660009054906101000a900473ffffffffffffffffffffffffffffffffffffffff1673ffffffffffffffffffffffffffffffffffffffff166344a11f6560058860405161035e9190610e37565b908152602001604051809103902060009054906101000a900473ffffffffffffffffffffffffffffffffffffffff166040518263ffffffff1660e01b81526004016103a99190610e4e565b60206040518083038186803b1580156103c157600080fd5b505afa1580156103d5573d6000803e3d6000fd5b505050506040513d601f19601f820116820180604052508101906103f99190610b0e565b815250600160008054815260200190815260200160002060008201518160000160006101000a81548173ffffffffffffffffffffffffffffffffffffffff021916908373ffffffffffffffffffffffffffffffffffffffff16021790555060208201518160010160006101000a81548173ffffffffffffffffffffffffffffffffffffffff021916908373ffffffffffffffffffffffffffffffffffffffff1602179055506040820151816002015560608201518160030190805190602001906104c4929190610959565b506080820151816004015560a08201518160050160006101000a81548160ff02191690831515021790555060c0820151816006015590505060008081548092919061050e90611196565b9190505590509392505050565b6105236109df565b60006001600084815260200190815260200160002090506000816002015411610581576040517f08c379a000000000000000000000000000000000000000000000000000000000815260040161057890610f3a565b60405180910390fd5b6001600084815260200190815260200160002060010160009054906101000a900473ffffffffffffffffffffffffffffffffffffffff1673ffffffffffffffffffffffffffffffffffffffff166001600085815260200190815260200160002060000160009054906101000a900473ffffffffffffffffffffffffffffffffffffffff1673ffffffffffffffffffffffffffffffffffffffff16141561065c576040517f08c379a000000000000000000000000000000000000000000000000000000000815260040161065390610efa565b60405180910390fd5b600160008481526020019081526020016000206040518060e00160405290816000820160009054906101000a900473ffffffffffffffffffffffffffffffffffffffff1673ffffffffffffffffffffffffffffffffffffffff1673ffffffffffffffffffffffffffffffffffffffff1681526020016001820160009054906101000a900473ffffffffffffffffffffffffffffffffffffffff1673ffffffffffffffffffffffffffffffffffffffff1673ffffffffffffffffffffffffffffffffffffffff1681526020016002820154815260200160038201805461074090611133565b80601f016020809104026020016040519081016040528092919081815260200182805461076c90611133565b80156107b95780601f1061078e576101008083540402835291602001916107b9565b820191906000526020600020905b81548152906001019060200180831161079c57829003601f168201915b50505050508152602001600482015481526020016005820160009054906101000a900460ff16151515158152602001600682015481525050915050919050565b60016020528060005260406000206000915090508060000160009054906101000a900473ffffffffffffffffffffffffffffffffffffffff16908060010160009054906101000a900473ffffffffffffffffffffffffffffffffffffffff169080600201549080600301805461086e90611133565b80601f016020809104026020016040519081016040528092919081815260200182805461089a90611133565b80156108e75780601f106108bc576101008083540402835291602001916108e7565b820191906000526020600020905b8154815290600101906020018083116108ca57829003601f168201915b5050505050908060040154908060050160009054906101000a900460ff16908060060154905087565b6005818051602081018201805184825260208301602085012081835280955050505050506000915054906101000a900473ffffffffffffffffffffffffffffffffffffffff1681565b82805461096590611133565b90600052602060002090601f01602090048101928261098757600085556109ce565b82601f106109a057805160ff19168380011785556109ce565b828001600101855582156109ce579182015b828111156109cd5782518255916020019190600101906109b2565b5b5090506109db9190610a4a565b5090565b6040518060e00160405280600073ffffffffffffffffffffffffffffffffffffffff168152602001600073ffffffffffffffffffffffffffffffffffffffff168152602001600081526020016060815260200160008152602001600015158152602001600081525090565b5b80821115610a63576000816000905550600101610a4b565b5090565b6000610a7a610a7584610fbc565b610f97565b905082815260208101848484011115610a9257600080fd5b610a9d8482856110f1565b509392505050565b600081359050610ab48161131e565b92915050565b600081519050610ac981611335565b92915050565b600082601f830112610ae057600080fd5b8135610af0848260208601610a67565b91505092915050565b600081359050610b088161134c565b92915050565b600060208284031215610b2057600080fd5b6000610b2e84828501610aba565b91505092915050565b600060208284031215610b4957600080fd5b600082013567ffffffffffffffff811115610b6357600080fd5b610b6f84828501610acf565b91505092915050565b600080600060608486031215610b8d57600080fd5b600084013567ffffffffffffffff811115610ba757600080fd5b610bb386828701610acf565b9350506020610bc486828701610af9565b9250506040610bd586828701610aa5565b9150509250925092565b600060208284031215610bf157600080fd5b6000610bff84828501610af9565b91505092915050565b610c118161107b565b82525050565b610c208161107b565b82525050565b610c2f8161108d565b82525050565b610c3e8161108d565b82525050565b610c4d816110cd565b82525050565b610c5c81611099565b82525050565b610c6b81611099565b82525050565b6000610c7c82610fed565b610c868185610ff8565b9350610c96818560208601611100565b610c9f8161126c565b840191505092915050565b6000610cb582610fed565b610cbf8185611009565b9350610ccf818560208601611100565b610cd88161126c565b840191505092915050565b6000610cee82610fed565b610cf8818561101a565b9350610d08818560208601611100565b80840191505092915050565b6000610d21601983611009565b9150610d2c8261127d565b602082019050919050565b6000610d44602283611009565b9150610d4f826112a6565b604082019050919050565b6000610d67601b83611009565b9150610d72826112f5565b602082019050919050565b600060e083016000830151610d956000860182610c08565b506020830151610da86020860182610c08565b506040830151610dbb6040860182610e19565b5060608301518482036060860152610dd38282610c71565b9150506080830151610de86080860182610e19565b5060a0830151610dfb60a0860182610c26565b5060c0830151610e0e60c0860182610c53565b508091505092915050565b610e22816110c3565b82525050565b610e31816110c3565b82525050565b6000610e438284610ce3565b915081905092915050565b6000602082019050610e636000830184610c17565b92915050565b600060e082019050610e7e600083018a610c17565b610e8b6020830189610c17565b610e986040830188610e28565b8181036060830152610eaa8187610caa565b9050610eb96080830186610e28565b610ec660a0830185610c35565b610ed360c0830184610c62565b98975050505050505050565b6000602082019050610ef46000830184610c44565b92915050565b60006020820190508181036000830152610f1381610d14565b9050919050565b60006020820190508181036000830152610f3381610d37565b9050919050565b60006020820190508181036000830152610f5381610d5a565b9050919050565b60006020820190508181036000830152610f748184610d7d565b905092915050565b6000602082019050610f916000830184610e28565b92915050565b6000610fa1610fb2565b9050610fad8282611165565b919050565b6000604051905090565b600067ffffffffffffffff821115610fd757610fd661123d565b5b610fe08261126c565b9050602081019050919050565b600081519050919050565b600082825260208201905092915050565b600082825260208201905092915050565b600081905092915050565b6000611030826110c3565b915061103b836110c3565b9250827fffffffffffffffffffffffffffffffffffffffffffffffffffffffffffffffff038211156110705761106f6111df565b5b828201905092915050565b6000611086826110a3565b9050919050565b60008115159050919050565b6000819050919050565b600073ffffffffffffffffffffffffffffffffffffffff82169050919050565b6000819050919050565b60006110d8826110df565b9050919050565b60006110ea826110a3565b9050919050565b82818337600083830152505050565b60005b8381101561111e578082015181840152602081019050611103565b8381111561112d576000848401525b50505050565b6000600282049050600182168061114b57607f821691505b6020821081141561115f5761115e61120e565b5b50919050565b61116e8261126c565b810181811067ffffffffffffffff8211171561118d5761118c61123d565b5b80604052505050565b60006111a1826110c3565b91507fffffffffffffffffffffffffffffffffffffffffffffffffffffffffffffffff8214156111d4576111d36111df565b5b600182019050919050565b7f4e487b7100000000000000000000000000000000000000000000000000000000600052601160045260246000fd5b7f4e487b7100000000000000000000000000000000000000000000000000000000600052602260045260246000fd5b7f4e487b7100000000000000000000000000000000000000000000000000000000600052604160045260246000fd5b6000601f19601f8301169050919050565b7f5468697320626174746c65206469646e27742073746172742e00000000000000600082015250565b7f596f75206861766520746f20626574206f6e20706f7369746976652076616c7560008201527f6521000000000000000000000000000000000000000000000000000000000000602082015250565b7f426174746c65206e756d6265722069736e27742065786973742e0a0000000000600082015250565b6113278161108d565b811461133257600080fd5b50565b61133e81611099565b811461134957600080fd5b50565b611355816110c3565b811461136057600080fd5b5056fea2646970667358221220443d54b5e81ba1666eb66fc680b0ba8e4a78d58e1774d0709fcec79bea4a8d2c64736f6c63430008030033608060405234801561001057600080fd5b506105e7806100206000396000f3fe608060405234801561001057600080fd5b50600436106100415760003560e01c806344a11f65146100465780636c7e874c146100765780638ff7b235146100a6575b600080fd5b610060600480360381019061005b919061034c565b6100d6565b60405161006d9190610469565b60405180910390f35b610090600480360381019061008b9190610375565b610166565b60405161009d9190610469565b60405180910390f35b6100c060048036038101906100bb919061034c565b610253565b6040516100cd91906104a4565b60405180910390f35b6000808273ffffffffffffffffffffffffffffffffffffffff1663feaf968c6040518163ffffffff1660e01b815260040160a06040518083038186803b15801561011f57600080fd5b505afa158015610133573d6000803e3d6000fd5b505050506040513d601f19601f8201168201806040525081019061015791906103b1565b50505091505080915050919050565b6000806000806000808773ffffffffffffffffffffffffffffffffffffffff16639a6fc8f5886040518263ffffffff1660e01b81526004016101a891906104a4565b60a06040518083038186803b1580156101c057600080fd5b505afa1580156101d4573d6000803e3d6000fd5b505050506040513d601f19601f820116820180604052508101906101f891906103b1565b9450945094509450945060008211610245576040517f08c379a000000000000000000000000000000000000000000000000000000000815260040161023c90610484565b60405180910390fd5b839550505050505092915050565b6000808273ffffffffffffffffffffffffffffffffffffffff1663feaf968c6040518163ffffffff1660e01b815260040160a06040518083038186803b15801561029c57600080fd5b505afa1580156102b0573d6000803e3d6000fd5b505050506040513d601f19601f820116820180604052508101906102d491906103b1565b50505050905080915050919050565b6000813590506102f281610555565b92915050565b6000815190506103078161056c565b92915050565b60008151905061031c81610583565b92915050565b6000813590506103318161059a565b92915050565b6000815190506103468161059a565b92915050565b60006020828403121561035e57600080fd5b600061036c848285016102e3565b91505092915050565b6000806040838503121561038857600080fd5b6000610396858286016102e3565b92505060206103a785828601610322565b9150509250929050565b600080600080600060a086880312156103c957600080fd5b60006103d788828901610337565b95505060206103e8888289016102f8565b94505060406103f98882890161030d565b935050606061040a8882890161030d565b925050608061041b88828901610337565b9150509295509295909350565b610431816104e2565b82525050565b60006104446012836104bf565b915061044f8261052c565b602082019050919050565b61046381610516565b82525050565b600060208201905061047e6000830184610428565b92915050565b6000602082019050818103600083015261049d81610437565b9050919050565b60006020820190506104b9600083018461045a565b92915050565b600082825260208201905092915050565b60006104db826104ec565b9050919050565b6000819050919050565b600073ffffffffffffffffffffffffffffffffffffffff82169050919050565b6000819050919050565b600069ffffffffffffffffffff82169050919050565b7f526f756e64206e6f7420636f6d706c6574650000000000000000000000000000600082015250565b61055e816104d0565b811461056957600080fd5b50565b610575816104e2565b811461058057600080fd5b50565b61058c8161050c565b811461059757600080fd5b50565b6105a381610516565b81146105ae57600080fd5b5056fea264697066735822122093c49aca98f88589dcd231c709060200f260a4f3f4cd2b17528d57bc692a970d64736f6c63430008030033",
  "immutableReferences": {},
  "source": "// SPDX-License-Identifier: MIT\r\npragma solidity ^0.8.3;\r\nimport \"./Aggre.sol\";\r\n\r\ncontract BinaryOption{\r\n\r\n\r\n    uint256  public battleId; // unique id for each battle\r\n    mapping(uint256 => Battle) public battleInfo; // map of the existing battles\r\n    address public owner; // the creator of the contract (we)\r\n    uint  public tempVal;\r\n    int feed;\r\n    mapping(string=>address) public feedAddress;\r\n    Aggre public age;\r\n\r\n    event MyEvent(\r\n    uint256 indexed id,\r\n    uint256 indexed amount,\r\n    int win\r\n    );\r\n\r\n    struct Battle {\r\n        address creator;\r\n        address opponent;\r\n        uint256 amountBet;\r\n        string betType;\r\n        uint betDate;\r\n        bool isUp;\r\n        int currVal;\r\n    }\r\n\r\n    constructor()  {\r\n        age=new Aggre();\r\n        //owner = msg.sender;\r\n\r\n        // those addresses (of rinkbey test network) can be found at: https://docs.chain.link/docs/ethereum-addresses/\r\n        feedAddress[\"EthVsUsd\"]=0x8A753747A1Fa494EC906cE90E9f37563A8AF630e;\r\n        //feedAddress[\"BtcVsUsd\"]=0x6135b13325bfC4B00278B4abC5e20bbce2D6580e;\r\n        //feedAddress[\"EurVsUsd\"]=0x0c15Ab9A0DB086e062194c273CC79f41597Bbf13;\r\n    }\r\n\r\n    // a creator create a new battle\r\n    function addBattle(string memory betType,uint betDate,bool direction) public payable returns(uint256) {\r\n        require(msg.value>0, \"You have to bet on positive value!\");\r\n        battleInfo[battleId]=Battle(msg.sender,msg.sender,msg.value,betType,block.timestamp+betDate,direction,age.getThePrice(feedAddress[betType]));\r\n        return battleId++;\r\n    }\r\n    /*function getAmount(uint256 battle_id) public view returns (uint){\r\n            return battleInfo[battle_id].amountBet;\r\n        }*/\r\n\r\n    function getBattleInfo(uint256 battle_id) public payable returns(Battle memory) {\r\n        Battle storage bate=battleInfo[battle_id];\r\n        require(bate.amountBet>0, \"Battle number isn't exist.\\n\");\r\n        require(battleInfo[battle_id].creator!=battleInfo[battle_id].opponent, \"This battle didn't start.\");\r\n        return battleInfo[battle_id];\r\n    }\r\n\r\n    /*\r\n\r\n    function setPrice() public {\r\n        feed= age.getThePrice(0x9326BFA02ADD2366b30bacB125260Af641031331);\r\n    }\r\n    function getPrice() public view returns (int){\r\n        return feed;\r\n    }\r\n\r\n    function setPrice() public {\r\n        roundId= age.getTheRoundId(0x9326BFA02ADD2366b30bacB125260Af641031331);\r\n    }\r\n    function getPrice() public view returns (uint80){\r\n        return roundId;\r\n    }\r\n\r\n    function getPriceHistorical(uint80 roundId) public view returns (int){\r\n\r\n        return age.getHistoricalPrice(roundId);\r\n    }\r\n\r\n    */\r\n    /*function getId() public view returns (uint256){\r\n        return battleId;\r\n    }*/\r\n\r\n    /*function getEvent() public {\r\n        emit MyEvent(battleId,battleId);\r\n    }*/\r\n\r\n    /*function settempVal(uint num) public {\r\n        tempVal=num;\r\n    }*/\r\n\r\n    // we call it before the withdraw method, in the index_1.js (the reason for this is there)\r\n    /*function gettempVal() public view returns (uint) {\r\n        return tempVal;\r\n    }*/\r\n\r\n\r\n    // an opponent is signed to battle number: battleid\r\n    /*function acceptBattle(uint256 battle_id) public payable{\r\n\r\n        Battle storage bate=battleInfo[battle_id];\r\n        require(bate.amountBet>0, \"Battle number isn't exist.\\n\");\r\n        //require(bate.creator!=msg.sender, \"Impossible to fight against yourself.\"); // in comment until we test with two different players\r\n        require(bate.creator==bate.opponent, \"This battle is closed, opponent already exist.\");\r\n        require(msg.value==bate.amountBet, \"Betting value isn't as specified for this battle.\");\r\n        bate.opponent=msg.sender;\r\n    }*/\r\n\r\n    // a creator cancel his battle\r\n    /*function cancelBattle(uint256 battle_id) public payable{\r\n        Battle memory bate=battleInfo[battle_id];\r\n        require(bate.amountBet>0, \"Battle number isn't exist.\");\r\n        require(bate.creator==msg.sender, \"Only the creator may cancel his own battle.\");\r\n\r\n        require(bate.creator==bate.opponent, \"There is already opponent, this battle can't be canceled.\");\r\n        payable(bate.creator).transfer(bate.amountBet); // return the amount invested\r\n        delete battleInfo[battle_id]; // battle is canceled\r\n    }*/\r\n\r\n\r\n    /*function getcurrVal(uint256 battle_id) public view returns (uint256){\r\n        require(msg.sender==battleInfo[battle_id].creator||msg.sender==battleInfo[battle_id].opponent, \"You are not part of this battle.\");\r\n        return battleInfo[battle_id].amountBet;\r\n    }*/\r\n\r\n    // the winner may draw his money\r\n    /*function withdraw(uint256 battle_id) public {\r\n        int winner; // 0=lose 1=win 2=draw\r\n        int oldPrice;\r\n        int newPrice;\r\n        Battle memory bate=battleInfo[battle_id];\r\n        //require(battleInfo[battle_id].creator!=battleInfo[battle_id].opponent, \"This battle didn't start.\"); // in case the creator try to withdraw before having opponent. He may cancel battle if he wants.\r\n        require((bate.creator==msg.sender||bate.opponent==msg.sender), \"You are not part of this battle.\"); // can be deleted if comes with getcurrval\r\n        require(block.timestamp>=bate.betDate, \"Too early to check who is the winner.\");\r\n        oldPrice=bate.currVal;\r\n        newPrice=age.getThePrice(feedAddress[bate.betType]);\r\n        // deliver the money to the winner\r\n        if(oldPrice<newPrice){\r\n\r\n            if(bate.isUp){\r\n                winner=1;\r\n                payable(bate.creator).transfer(2*bate.amountBet); // multiply by 2 since we deliver the money of both the creator and his opponent\r\n            }\r\n            else{\r\n                winner=0;\r\n                payable(bate.opponent).transfer(2*bate.amountBet);\r\n            }\r\n\r\n        }\r\n        else if(oldPrice>newPrice){\r\n\r\n            if(bate.isUp){\r\n                winner=0;\r\n                payable(bate.opponent).transfer(2*bate.amountBet);\r\n            }\r\n            else{\r\n                winner=1;\r\n                payable(bate.creator).transfer(2*bate.amountBet);\r\n            }\r\n        }\r\n        // if nothing has changed, the creator lose his money\r\n        else {\r\n            winner=2;\r\n            payable(bate.opponent).transfer(bate.amountBet);\r\n            payable(bate.creator).transfer(bate.amountBet);\r\n        }\r\n        // sign the event\r\n        emit MyEvent(battle_id,bate.amountBet*2,winner);\r\n        //delete battleInfo[battle_id]; // battle is finished\r\n    }*/\r\n\r\n    //just for testing\r\n    /*function removeBattle(uint256 battle_id) public {\r\n        require(battleInfo[battle_id].amountBet>0, \"Battle number isn't exist.\\n\");\r\n        //delete battleInfo[battle_id]; // battle is canceled\r\n    }*/\r\n\r\n\r\n\r\n}",
  "sourcePath": "/mnt/c/users/admin/ideaprojects/tau_smart_contract/src/solidity/contracts/BinaryOption.sol",
  "compiler": {
    "name": "solc",
    "version": "0.8.3+commit.8d00100c.Emscripten.clang"
  },
  "schemaVersion": "3.4.1",
  "updatedAt": "2021-07-19T20:29:27.186Z",
  "devdoc": {
    "kind": "dev",
    "methods": {},
    "version": 1
  },
  "userdoc": {
    "kind": "user",
    "methods": {},
    "version": 1
  }
}