{
  "contractName": "Aggre",
  "abi": [
    {
      "inputs": [],
      "stateMutability": "nonpayable",
      "type": "constructor"
    },
    {
      "inputs": [
        {
          "internalType": "address",
          "name": "a",
          "type": "address"
        }
      ],
      "name": "getThePrice",
      "outputs": [
        {
          "internalType": "int256",
          "name": "",
          "type": "int256"
        }
      ],
      "stateMutability": "view",
      "type": "function",
      "constant": true
    }
  ],
  "bytecode": "0x608060405234801561001057600080fd5b5061015c806100206000396000f3fe608060405234801561001057600080fd5b506004361061002b5760003560e01c806344a11f6514610030575b600080fd5b61004a60048036038101906100459190610080565b610060565b60405161005791906100b8565b60405180910390f35b600060029050919050565b60008135905061007a8161010f565b92915050565b60006020828403121561009257600080fd5b60006100a08482850161006b565b91505092915050565b6100b2816100e5565b82525050565b60006020820190506100cd60008301846100a9565b92915050565b60006100de826100ef565b9050919050565b6000819050919050565b600073ffffffffffffffffffffffffffffffffffffffff82169050919050565b610118816100d3565b811461012357600080fd5b5056fea26469706673582212208ea6b88bc162a36828406701dadb47c4a8047f29b64d28aec168c8457c57ce1164736f6c63430008030033",
  "immutableReferences": {},
  "source": "// SPDX-License-Identifier: MIT\r\npragma solidity ^0.8.3;\r\n\r\n// TODO: implement the code from: https://docs.chain.link/docs/get-the-latest-price/. Works on Remix only.\r\nimport \"@chainlink/contracts/src/v0.8/interfaces/AggregatorV3Interface.sol\";\r\n\r\n\r\ncontract Aggre{\r\n\r\n    //AggregatorV3Interface internal priceFeed;\r\n\r\n    /**\r\n     * Network: Kovan\r\n     * Aggregator: ETH/USD\r\n     * Address: 0x9326BFA02ADD2366b30bacB125260Af641031331\r\n     */\r\n    constructor() public {\r\n        //priceFeed = AggregatorV3Interface(0x9326BFA02ADD2366b30bacB125260Af641031331);\r\n    }\r\n\r\n    /**\r\n     * Returns the latest price\r\n     */\r\n    function getThePrice(address a) public view returns (int) {\r\n        return 2;\r\n    }\r\n\r\n}",
  "sourcePath": "/mnt/c/users/lenovo/ideaprojects/tau_smart_contract/contracts/Aggre.sol",
  "compiler": {
    "name": "solc",
    "version": "0.8.3+commit.8d00100c.Emscripten.clang"
  },
  "schemaVersion": "3.3.4",
  "updatedAt": "2021-05-06T07:05:32.005Z",
  "networkType": "ethereum",
  "devdoc": {
    "kind": "dev",
    "methods": {},
    "version": 1
  },
  "userdoc": {
    "kind": "user",
    "methods": {
      "constructor": {
        "notice": "Network: Kovan Aggregator: ETH/USD Address: 0x9326BFA02ADD2366b30bacB125260Af641031331"
      },
      "getThePrice(address)": {
        "notice": "Returns the latest price"
      }
    },
    "version": 1
  }
}