{
  "contractName": "Aggre",
  "abi": [
    {
      "inputs": [],
      "stateMutability": "nonpayable",
      "type": "constructor"
    },
    {
      "inputs": [],
      "name": "getThePrice",
      "outputs": [
        {
          "internalType": "int256",
          "name": "",
          "type": "int256"
        }
      ],
      "stateMutability": "view",
      "type": "function"
    }
  ],
  "bytecode": "0x608060405234801561001057600080fd5b5060b68061001f6000396000f3fe6080604052348015600f57600080fd5b506004361060285760003560e01c80638c3c9a5514602d575b600080fd5b60336047565b604051603e9190605d565b60405180910390f35b60006002905090565b6057816076565b82525050565b6000602082019050607060008301846050565b92915050565b600081905091905056fea26469706673582212202553c43c127a9bea38c9f915c3c3c213d7bfd016a32ce2a687c53e70b44d2c5464736f6c63430008030033",
  "immutableReferences": {},
  "source": "pragma solidity ^0.8.3;\n\n//import \"github.com/smartcontractkit/chainlink/evm-contracts/src/v0.6/interfaces/AggregatorV3Interface.sol\";\n\n\ncontract Aggre{\n\n\n    \n\n    /**\n     * Network: Kovan\n     * Aggregator: ETH/USD\n     * Address: 0x9326BFA02ADD2366b30bacB125260Af641031331\n     */\n    constructor() public {\n        \n        \n    }\n\n    /**\n     * Returns the latest price\n     */\n    \n\t\n\tfunction getThePrice() public view returns (int) {\n        \n        return 2;\n    }\n    \n    // a creator create a new battle\n    \n\n}",
  "sourcePath": "/home/eran/WebstormProjects/tau_Smart_contract/contracts/Aggre.sol",
  "compiler": {
    "name": "solc",
    "version": "0.8.3+commit.8d00100c.Emscripten.clang"
  },
  "schemaVersion": "3.3.4",
  "updatedAt": "2021-04-26T18:27:33.371Z",
  "devdoc": {
    "kind": "dev",
    "methods": {},
    "version": 1
  },
  "userdoc": {
    "kind": "user",
    "methods": {
      "constructor": {
        "notice": "Network: Kovan Aggregator: ETH/USD Address: 0x9326BFA02ADD2366b30bacB125260Af641031331"
      },
      "getThePrice()": {
        "notice": "Returns the latest price"
      }
    },
    "version": 1
  }
}