{
  "contractName": "BinaryOption",
  "abi": [
    {
      "inputs": [],
      "stateMutability": "nonpayable",
      "type": "constructor"
    },
    {
      "inputs": [],
      "name": "age",
      "outputs": [
        {
          "internalType": "contract Aggre",
          "name": "",
          "type": "address"
        }
      ],
      "stateMutability": "view",
      "type": "function",
      "constant": true
    },
    {
      "inputs": [],
      "name": "battleId",
      "outputs": [
        {
          "internalType": "uint256",
          "name": "",
          "type": "uint256"
        }
      ],
      "stateMutability": "view",
      "type": "function",
      "constant": true
    },
    {
      "inputs": [
        {
          "internalType": "uint256",
          "name": "",
          "type": "uint256"
        }
      ],
      "name": "battleInfo",
      "outputs": [
        {
          "internalType": "address",
          "name": "creator",
          "type": "address"
        },
        {
          "internalType": "address",
          "name": "opponent",
          "type": "address"
        },
        {
          "internalType": "uint256",
          "name": "amountBet",
          "type": "uint256"
        },
        {
          "internalType": "string",
          "name": "betType",
          "type": "string"
        },
        {
          "internalType": "uint256",
          "name": "betDate",
          "type": "uint256"
        },
        {
          "internalType": "bool",
          "name": "isUp",
          "type": "bool"
        },
        {
          "internalType": "int256",
          "name": "currVal",
          "type": "int256"
        }
      ],
      "stateMutability": "view",
      "type": "function",
      "constant": true
    },
    {
      "inputs": [
        {
          "internalType": "string",
          "name": "",
          "type": "string"
        }
      ],
      "name": "feedAddress",
      "outputs": [
        {
          "internalType": "address",
          "name": "",
          "type": "address"
        }
      ],
      "stateMutability": "view",
      "type": "function",
      "constant": true
    },
    {
      "inputs": [],
      "name": "owner",
      "outputs": [
        {
          "internalType": "address",
          "name": "",
          "type": "address"
        }
      ],
      "stateMutability": "view",
      "type": "function",
      "constant": true
    },
    {
      "inputs": [],
      "name": "tempVal",
      "outputs": [
        {
          "internalType": "uint256",
          "name": "",
          "type": "uint256"
        }
      ],
      "stateMutability": "view",
      "type": "function",
      "constant": true
    },
    {
      "inputs": [
        {
          "internalType": "string",
          "name": "betType",
          "type": "string"
        },
        {
          "internalType": "uint256",
          "name": "betDate",
          "type": "uint256"
        },
        {
          "internalType": "bool",
          "name": "direction",
          "type": "bool"
        }
      ],
      "name": "addBattle",
      "outputs": [],
      "stateMutability": "payable",
      "type": "function",
      "payable": true
    },
    {
      "inputs": [],
      "name": "setIndex",
      "outputs": [],
      "stateMutability": "payable",
      "type": "function",
      "payable": true
    },
    {
      "inputs": [
        {
          "internalType": "uint256",
          "name": "battle_id",
          "type": "uint256"
        }
      ],
      "name": "getIndex",
      "outputs": [
        {
          "internalType": "uint256",
          "name": "",
          "type": "uint256"
        }
      ],
      "stateMutability": "view",
      "type": "function",
      "constant": true
    },
    {
      "inputs": [],
      "name": "getPrice",
      "outputs": [
        {
          "internalType": "int256",
          "name": "",
          "type": "int256"
        }
      ],
      "stateMutability": "view",
      "type": "function",
      "constant": true
    },
    {
      "inputs": [],
      "name": "getId",
      "outputs": [
        {
          "internalType": "uint256",
          "name": "",
          "type": "uint256"
        }
      ],
      "stateMutability": "view",
      "type": "function",
      "constant": true
    },
    {
      "inputs": [
        {
          "internalType": "uint256",
          "name": "num",
          "type": "uint256"
        }
      ],
      "name": "settempVal",
      "outputs": [],
      "stateMutability": "nonpayable",
      "type": "function"
    },
    {
      "inputs": [],
      "name": "gettempVal",
      "outputs": [
        {
          "internalType": "uint256",
          "name": "",
          "type": "uint256"
        }
      ],
      "stateMutability": "view",
      "type": "function",
      "constant": true
    },
    {
      "inputs": [
        {
          "internalType": "uint256",
          "name": "battle_id",
          "type": "uint256"
        }
      ],
      "name": "acceptBattle",
      "outputs": [],
      "stateMutability": "payable",
      "type": "function",
      "payable": true
    },
    {
      "inputs": [
        {
          "internalType": "uint256",
          "name": "battle_id",
          "type": "uint256"
        }
      ],
      "name": "cancelBattle",
      "outputs": [],
      "stateMutability": "payable",
      "type": "function",
      "payable": true
    },
    {
      "inputs": [
        {
          "internalType": "uint256",
          "name": "battle_id",
          "type": "uint256"
        }
      ],
      "name": "getcurrVal",
      "outputs": [
        {
          "internalType": "uint256",
          "name": "",
          "type": "uint256"
        }
      ],
      "stateMutability": "view",
      "type": "function",
      "constant": true
    },
    {
      "inputs": [
        {
          "internalType": "uint256",
          "name": "battle_id",
          "type": "uint256"
        }
      ],
      "name": "withdraw",
      "outputs": [],
      "stateMutability": "nonpayable",
      "type": "function"
    },
    {
      "inputs": [
        {
          "internalType": "uint256",
          "name": "battle_id",
          "type": "uint256"
        }
      ],
      "name": "removeBattle",
      "outputs": [],
      "stateMutability": "nonpayable",
      "type": "function"
    }
  ],
  "bytecode": "0x60806040523480156200001157600080fd5b50604051620000209062000218565b604051809103906000f0801580156200003d573d6000803e3d6000fd5b50600560006101000a81548173ffffffffffffffffffffffffffffffffffffffff021916908373ffffffffffffffffffffffffffffffffffffffff16021790555033600260006101000a81548173ffffffffffffffffffffffffffffffffffffffff021916908373ffffffffffffffffffffffffffffffffffffffff160217905550739326bfa02add2366b30bacb125260af6410313316004604051620000e490620002c9565b908152602001604051809103902060006101000a81548173ffffffffffffffffffffffffffffffffffffffff021916908373ffffffffffffffffffffffffffffffffffffffff160217905550736135b13325bfc4b00278b4abc5e20bbce2d6580e60046040516200015590620002b2565b908152602001604051809103902060006101000a81548173ffffffffffffffffffffffffffffffffffffffff021916908373ffffffffffffffffffffffffffffffffffffffff160217905550730c15ab9a0db086e062194c273cc79f41597bbf136004604051620001c6906200029b565b908152602001604051809103902060006101000a81548173ffffffffffffffffffffffffffffffffffffffff021916908373ffffffffffffffffffffffffffffffffffffffff16021790555062000366565b61039e806200278683390190565b600062000235600883620002e0565b91506200024282620002eb565b600882019050919050565b60006200025c600883620002e0565b9150620002698262000314565b600882019050919050565b600062000283600883620002e0565b915062000290826200033d565b600882019050919050565b6000620002a88262000226565b9150819050919050565b6000620002bf826200024d565b9150819050919050565b6000620002d68262000274565b9150819050919050565b600081905092915050565b7f4575725673557364000000000000000000000000000000000000000000000000600082015250565b7f4274635673557364000000000000000000000000000000000000000000000000600082015250565b7f4574685673557364000000000000000000000000000000000000000000000000600082015250565b61241080620003766000396000f3fe6080604052600436106101095760003560e01c80638e7cb6e111610095578063a9e23bea11610064578063a9e23bea1461033d578063b49bbaa214610368578063bfc8b8c614610372578063db71dcdc1461038e578063e4bb7a1e146103d157610109565b80638e7cb6e11461028357806395323b50146102c057806398d5fdca146102e9578063a8cabe981461031457610109565b80634b755702116100dc5780634b755702146101ca5780634c4c447e146101f55780635d1ca6311461021157806381ec30f21461023c5780638da5cb5b1461025857610109565b806301a1b7781461010e578063262a9dff146101395780632e1a7d4d14610164578063460e4cc31461018d575b600080fd5b34801561011a57600080fd5b5061012361040e565b6040516101309190611df3565b60405180910390f35b34801561014557600080fd5b5061014e610414565b60405161015b9190611c9d565b60405180910390f35b34801561017057600080fd5b5061018b600480360381019061018691906119dc565b61043a565b005b34801561019957600080fd5b506101b460048036038101906101af91906119dc565b610a22565b6040516101c19190611df3565b60405180910390f35b3480156101d657600080fd5b506101df610b52565b6040516101ec9190611df3565b60405180910390f35b61020f600480360381019061020a91906119dc565b610b5c565b005b34801561021d57600080fd5b50610226610f17565b6040516102339190611df3565b60405180910390f35b610256600480360381019061025191906119dc565b610f20565b005b34801561026457600080fd5b5061026d61115c565b60405161027a9190611c0c565b60405180910390f35b34801561028f57600080fd5b506102aa60048036038101906102a591906119dc565b611182565b6040516102b79190611df3565b60405180910390f35b3480156102cc57600080fd5b506102e760048036038101906102e291906119dc565b6111a2565b005b3480156102f557600080fd5b506102fe61129e565b60405161030b9190611cb8565b60405180910390f35b34801561032057600080fd5b5061033b600480360381019061033691906119dc565b611364565b005b34801561034957600080fd5b5061035261136e565b60405161035f9190611df3565b60405180910390f35b610370611374565b005b61038c60048036038101906103879190611975565b61137d565b005b34801561039a57600080fd5b506103b560048036038101906103b091906119dc565b611621565b6040516103c89796959493929190611c27565b60405180910390f35b3480156103dd57600080fd5b506103f860048036038101906103f39190611934565b611738565b6040516104059190611c0c565b60405180910390f35b60005481565b600560009054906101000a900473ffffffffffffffffffffffffffffffffffffffff1681565b60076003819055506000806000600160008581526020019081526020016000206040518060e00160405290816000820160009054906101000a900473ffffffffffffffffffffffffffffffffffffffff1673ffffffffffffffffffffffffffffffffffffffff1673ffffffffffffffffffffffffffffffffffffffff1681526020016001820160009054906101000a900473ffffffffffffffffffffffffffffffffffffffff1673ffffffffffffffffffffffffffffffffffffffff1673ffffffffffffffffffffffffffffffffffffffff1681526020016002820154815260200160038201805461052b90611ff3565b80601f016020809104026020016040519081016040528092919081815260200182805461055790611ff3565b80156105a45780601f10610579576101008083540402835291602001916105a4565b820191906000526020600020905b81548152906001019060200180831161058757829003601f168201915b50505050508152602001600482015481526020016005820160009054906101000a900460ff1615151515815260200160068201548152505090506000816040015111610625576040517f08c379a000000000000000000000000000000000000000000000000000000000815260040161061c90611db3565b60405180910390fd5b806080015142101561066c576040517f08c379a000000000000000000000000000000000000000000000000000000000815260040161066390611d13565b60405180910390fd5b8060c001519250600560009054906101000a900473ffffffffffffffffffffffffffffffffffffffff1673ffffffffffffffffffffffffffffffffffffffff166344a11f65600483606001516040516106c59190611bf5565b908152602001604051809103902060009054906101000a900473ffffffffffffffffffffffffffffffffffffffff166040518263ffffffff1660e01b81526004016107109190611c0c565b60206040518083038186803b15801561072857600080fd5b505afa15801561073c573d6000803e3d6000fd5b505050506040513d601f19601f82011682018060405250810190610760919061190b565b91508183121561083d5760056003819055508060a00151156107dc57806000015173ffffffffffffffffffffffffffffffffffffffff166108fc826040015160026107ab9190611ee1565b9081150290604051600060405180830381858888f193505050501580156107d6573d6000803e3d6000fd5b50610838565b806020015173ffffffffffffffffffffffffffffffffffffffff166108fc8260400151600261080b9190611ee1565b9081150290604051600060405180830381858888f19350505050158015610836573d6000803e3d6000fd5b505b61097c565b818313156109185760046003819055508060a00151156108b757806020015173ffffffffffffffffffffffffffffffffffffffff166108fc826040015160026108869190611ee1565b9081150290604051600060405180830381858888f193505050501580156108b1573d6000803e3d6000fd5b50610913565b806000015173ffffffffffffffffffffffffffffffffffffffff166108fc826040015160026108e69190611ee1565b9081150290604051600060405180830381858888f19350505050158015610911573d6000803e3d6000fd5b505b61097b565b60038081905550806020015173ffffffffffffffffffffffffffffffffffffffff166108fc8260400151600261094e9190611ee1565b9081150290604051600060405180830381858888f19350505050158015610979573d6000803e3d6000fd5b505b5b60016000858152602001908152602001600020600080820160006101000a81549073ffffffffffffffffffffffffffffffffffffffff02191690556001820160006101000a81549073ffffffffffffffffffffffffffffffffffffffff021916905560028201600090556003820160006109f69190611781565b60048201600090556005820160006101000a81549060ff02191690556006820160009055505050505050565b60006001600083815260200190815260200160002060000160009054906101000a900473ffffffffffffffffffffffffffffffffffffffff1673ffffffffffffffffffffffffffffffffffffffff163373ffffffffffffffffffffffffffffffffffffffff161480610af557506001600083815260200190815260200160002060010160009054906101000a900473ffffffffffffffffffffffffffffffffffffffff1673ffffffffffffffffffffffffffffffffffffffff163373ffffffffffffffffffffffffffffffffffffffff16145b610b34576040517f08c379a0000000000000000000000000000000000000000000000000000000008152600401610b2b90611d33565b60405180910390fd5b60016000838152602001908152602001600020600201549050919050565b6000600354905090565b6000600160008381526020019081526020016000206040518060e00160405290816000820160009054906101000a900473ffffffffffffffffffffffffffffffffffffffff1673ffffffffffffffffffffffffffffffffffffffff1673ffffffffffffffffffffffffffffffffffffffff1681526020016001820160009054906101000a900473ffffffffffffffffffffffffffffffffffffffff1673ffffffffffffffffffffffffffffffffffffffff1673ffffffffffffffffffffffffffffffffffffffff16815260200160028201548152602001600382018054610c4290611ff3565b80601f0160208091040260200160405190810160405280929190818152602001828054610c6e90611ff3565b8015610cbb5780601f10610c9057610100808354040283529160200191610cbb565b820191906000526020600020905b815481529060010190602001808311610c9e57829003601f168201915b50505050508152602001600482015481526020016005820160009054906101000a900460ff1615151515815260200160068201548152505090503373ffffffffffffffffffffffffffffffffffffffff16816000015173ffffffffffffffffffffffffffffffffffffffff1614610d67576040517f08c379a0000000000000000000000000000000000000000000000000000000008152600401610d5e90611d93565b60405180910390fd5b6000816040015111610dae576040517f08c379a0000000000000000000000000000000000000000000000000000000008152600401610da590611db3565b60405180910390fd5b806020015173ffffffffffffffffffffffffffffffffffffffff16816000015173ffffffffffffffffffffffffffffffffffffffff1614610e24576040517f08c379a0000000000000000000000000000000000000000000000000000000008152600401610e1b90611cf3565b60405180910390fd5b806000015173ffffffffffffffffffffffffffffffffffffffff166108fc82604001519081150290604051600060405180830381858888f19350505050158015610e72573d6000803e3d6000fd5b5060016000838152602001908152602001600020600080820160006101000a81549073ffffffffffffffffffffffffffffffffffffffff02191690556001820160006101000a81549073ffffffffffffffffffffffffffffffffffffffff02191690556002820160009055600382016000610eed9190611781565b60048201600090556005820160006101000a81549060ff0219169055600682016000905550505050565b60008054905090565b60006001600083815260200190815260200160002090506000816002015411610f7e576040517f08c379a0000000000000000000000000000000000000000000000000000000008152600401610f7590611db3565b60405180910390fd5b3373ffffffffffffffffffffffffffffffffffffffff168160000160009054906101000a900473ffffffffffffffffffffffffffffffffffffffff1673ffffffffffffffffffffffffffffffffffffffff161415611011576040517f08c379a000000000000000000000000000000000000000000000000000000000815260040161100890611cd3565b60405180910390fd5b8060010160009054906101000a900473ffffffffffffffffffffffffffffffffffffffff1673ffffffffffffffffffffffffffffffffffffffff168160000160009054906101000a900473ffffffffffffffffffffffffffffffffffffffff1673ffffffffffffffffffffffffffffffffffffffff16146110c7576040517f08c379a00000000000000000000000000000000000000000000000000000000081526004016110be90611d73565b60405180910390fd5b8060020154341461110d576040517f08c379a000000000000000000000000000000000000000000000000000000000815260040161110490611dd3565b60405180910390fd5b338160010160006101000a81548173ffffffffffffffffffffffffffffffffffffffff021916908373ffffffffffffffffffffffffffffffffffffffff16021790555060096003819055505050565b600260009054906101000a900473ffffffffffffffffffffffffffffffffffffffff1681565b600060016000838152602001908152602001600020600401549050919050565b60006001600083815260200190815260200160002060020154116111fb576040517f08c379a00000000000000000000000000000000000000000000000000000000081526004016111f290611db3565b60405180910390fd5b60016000828152602001908152602001600020600080820160006101000a81549073ffffffffffffffffffffffffffffffffffffffff02191690556001820160006101000a81549073ffffffffffffffffffffffffffffffffffffffff021916905560028201600090556003820160006112759190611781565b60048201600090556005820160006101000a81549060ff02191690556006820160009055505050565b6000600560009054906101000a900473ffffffffffffffffffffffffffffffffffffffff1673ffffffffffffffffffffffffffffffffffffffff166344a11f65739326bfa02add2366b30bacb125260af6410313316040518263ffffffff1660e01b815260040161130f9190611c0c565b60206040518083038186803b15801561132757600080fd5b505afa15801561133b573d6000803e3d6000fd5b505050506040513d601f19601f8201168201806040525081019061135f919061190b565b905090565b8060038190555050565b60035481565b34600381905550565b600034116113c0576040517f08c379a00000000000000000000000000000000000000000000000000000000081526004016113b790611d53565b60405180910390fd5b6040518060e001604052803373ffffffffffffffffffffffffffffffffffffffff1681526020013373ffffffffffffffffffffffffffffffffffffffff168152602001348152602001848152602001834261141b9190611e8b565b81526020018215158152602001600560009054906101000a900473ffffffffffffffffffffffffffffffffffffffff1673ffffffffffffffffffffffffffffffffffffffff166344a11f656004876040516114769190611bf5565b908152602001604051809103902060009054906101000a900473ffffffffffffffffffffffffffffffffffffffff166040518263ffffffff1660e01b81526004016114c19190611c0c565b60206040518083038186803b1580156114d957600080fd5b505afa1580156114ed573d6000803e3d6000fd5b505050506040513d601f19601f82011682018060405250810190611511919061190b565b815250600160008054815260200190815260200160002060008201518160000160006101000a81548173ffffffffffffffffffffffffffffffffffffffff021916908373ffffffffffffffffffffffffffffffffffffffff16021790555060208201518160010160006101000a81548173ffffffffffffffffffffffffffffffffffffffff021916908373ffffffffffffffffffffffffffffffffffffffff1602179055506040820151816002015560608201518160030190805190602001906115dc9291906117c1565b506080820151816004015560a08201518160050160006101000a81548160ff02191690831515021790555060c082015181600601559050506008600381905550505050565b60016020528060005260406000206000915090508060000160009054906101000a900473ffffffffffffffffffffffffffffffffffffffff16908060010160009054906101000a900473ffffffffffffffffffffffffffffffffffffffff169080600201549080600301805461169690611ff3565b80601f01602080910402602001604051908101604052809291908181526020018280546116c290611ff3565b801561170f5780601f106116e45761010080835404028352916020019161170f565b820191906000526020600020905b8154815290600101906020018083116116f257829003601f168201915b5050505050908060040154908060050160009054906101000a900460ff16908060060154905087565b6004818051602081018201805184825260208301602085012081835280955050505050506000915054906101000a900473ffffffffffffffffffffffffffffffffffffffff1681565b50805461178d90611ff3565b6000825580601f1061179f57506117be565b601f0160209004906000526020600020908101906117bd9190611847565b5b50565b8280546117cd90611ff3565b90600052602060002090601f0160209004810192826117ef5760008555611836565b82601f1061180857805160ff1916838001178555611836565b82800160010185558215611836579182015b8281111561183557825182559160200191906001019061181a565b5b5090506118439190611847565b5090565b5b80821115611860576000816000905550600101611848565b5090565b600061187761187284611e33565b611e0e565b90508281526020810184848401111561188f57600080fd5b61189a848285611fb1565b509392505050565b6000813590506118b181612395565b92915050565b6000815190506118c6816123ac565b92915050565b600082601f8301126118dd57600080fd5b81356118ed848260208601611864565b91505092915050565b600081359050611905816123c3565b92915050565b60006020828403121561191d57600080fd5b600061192b848285016118b7565b91505092915050565b60006020828403121561194657600080fd5b600082013567ffffffffffffffff81111561196057600080fd5b61196c848285016118cc565b91505092915050565b60008060006060848603121561198a57600080fd5b600084013567ffffffffffffffff8111156119a457600080fd5b6119b0868287016118cc565b93505060206119c1868287016118f6565b92505060406119d2868287016118a2565b9150509250925092565b6000602082840312156119ee57600080fd5b60006119fc848285016118f6565b91505092915050565b611a0e81611f3b565b82525050565b611a1d81611f4d565b82525050565b611a2c81611f8d565b82525050565b611a3b81611f59565b82525050565b6000611a4c82611e64565b611a568185611e6f565b9350611a66818560208601611fc0565b611a6f816120e3565b840191505092915050565b6000611a8582611e64565b611a8f8185611e80565b9350611a9f818560208601611fc0565b80840191505092915050565b6000611ab8602683611e6f565b9150611ac3826120f4565b604082019050919050565b6000611adb603a83611e6f565b9150611ae682612143565b604082019050919050565b6000611afe602683611e6f565b9150611b0982612192565b604082019050919050565b6000611b21602183611e6f565b9150611b2c826121e1565b604082019050919050565b6000611b44602383611e6f565b9150611b4f82612230565b604082019050919050565b6000611b67602f83611e6f565b9150611b728261227f565b604082019050919050565b6000611b8a602c83611e6f565b9150611b95826122ce565b604082019050919050565b6000611bad601b83611e6f565b9150611bb88261231d565b602082019050919050565b6000611bd0603283611e6f565b9150611bdb82612346565b604082019050919050565b611bef81611f83565b82525050565b6000611c018284611a7a565b915081905092915050565b6000602082019050611c216000830184611a05565b92915050565b600060e082019050611c3c600083018a611a05565b611c496020830189611a05565b611c566040830188611be6565b8181036060830152611c688187611a41565b9050611c776080830186611be6565b611c8460a0830185611a14565b611c9160c0830184611a32565b98975050505050505050565b6000602082019050611cb26000830184611a23565b92915050565b6000602082019050611ccd6000830184611a32565b92915050565b60006020820190508181036000830152611cec81611aab565b9050919050565b60006020820190508181036000830152611d0c81611ace565b9050919050565b60006020820190508181036000830152611d2c81611af1565b9050919050565b60006020820190508181036000830152611d4c81611b14565b9050919050565b60006020820190508181036000830152611d6c81611b37565b9050919050565b60006020820190508181036000830152611d8c81611b5a565b9050919050565b60006020820190508181036000830152611dac81611b7d565b9050919050565b60006020820190508181036000830152611dcc81611ba0565b9050919050565b60006020820190508181036000830152611dec81611bc3565b9050919050565b6000602082019050611e086000830184611be6565b92915050565b6000611e18611e29565b9050611e248282612025565b919050565b6000604051905090565b600067ffffffffffffffff821115611e4e57611e4d6120b4565b5b611e57826120e3565b9050602081019050919050565b600081519050919050565b600082825260208201905092915050565b600081905092915050565b6000611e9682611f83565b9150611ea183611f83565b9250827fffffffffffffffffffffffffffffffffffffffffffffffffffffffffffffffff03821115611ed657611ed5612056565b5b828201905092915050565b6000611eec82611f83565b9150611ef783611f83565b9250817fffffffffffffffffffffffffffffffffffffffffffffffffffffffffffffffff0483118215151615611f3057611f2f612056565b5b828202905092915050565b6000611f4682611f63565b9050919050565b60008115159050919050565b6000819050919050565b600073ffffffffffffffffffffffffffffffffffffffff82169050919050565b6000819050919050565b6000611f9882611f9f565b9050919050565b6000611faa82611f63565b9050919050565b82818337600083830152505050565b60005b83811015611fde578082015181840152602081019050611fc3565b83811115611fed576000848401525b50505050565b6000600282049050600182168061200b57607f821691505b6020821081141561201f5761201e612085565b5b50919050565b61202e826120e3565b810181811067ffffffffffffffff8211171561204d5761204c6120b4565b5b80604052505050565b7f4e487b7100000000000000000000000000000000000000000000000000000000600052601160045260246000fd5b7f4e487b7100000000000000000000000000000000000000000000000000000000600052602260045260246000fd5b7f4e487b7100000000000000000000000000000000000000000000000000000000600052604160045260246000fd5b6000601f19601f8301169050919050565b7f496d706f737369626c6520746f20666967687420616761696e737420796f757260008201527f73656c662e0a0000000000000000000000000000000000000000000000000000602082015250565b7f546865726520697320616c7265616479206f70706f6e656e742c20746869732060008201527f626174746c652063616e27742062652063616e63656c65642e0a000000000000602082015250565b7f546f6f206561726c7920746f20636865636b2077686f2069732074686520776960008201527f6e6e65722e0a0000000000000000000000000000000000000000000000000000602082015250565b7f596f7520617265206e6f742070617274206f66207468697320626174746c652e60008201527f0a00000000000000000000000000000000000000000000000000000000000000602082015250565b7f596f75206861766520746f20626574206f6e20706f7369746976652076616c7560008201527f65210a0000000000000000000000000000000000000000000000000000000000602082015250565b7f5468697320626174746c6520697320636c6f7365642c206f70706f6e656e742060008201527f616c72656164792065786973742e0a0000000000000000000000000000000000602082015250565b7f4f6e6c79207468652063726561746f72206d61792063616e63656c206869732060008201527f6f776e20626174746c652e0a0000000000000000000000000000000000000000602082015250565b7f426174746c65206e756d6265722069736e27742065786973742e0a0000000000600082015250565b7f42657474696e672076616c75652069736e27742061732073706563696669656460008201527f20666f72207468697320626174746c652e0a0000000000000000000000000000602082015250565b61239e81611f4d565b81146123a957600080fd5b50565b6123b581611f59565b81146123c057600080fd5b50565b6123cc81611f83565b81146123d757600080fd5b5056fea2646970667358221220169997491b121278e34ae1626505caa737a7dc0398fcdfa1b778d27d3f98d70864736f6c63430008030033608060405234801561001057600080fd5b50739326bfa02add2366b30bacb125260af6410313316000806101000a81548173ffffffffffffffffffffffffffffffffffffffff021916908373ffffffffffffffffffffffffffffffffffffffff16021790555061032a806100746000396000f3fe608060405234801561001057600080fd5b506004361061002b5760003560e01c806344a11f6514610030575b600080fd5b61004a60048036038101906100459190610172565b610060565b6040516100579190610221565b60405180910390f35b60008060008060008060008054906101000a900473ffffffffffffffffffffffffffffffffffffffff1673ffffffffffffffffffffffffffffffffffffffff1663feaf968c6040518163ffffffff1660e01b815260040160a06040518083038186803b1580156100cf57600080fd5b505afa1580156100e3573d6000803e3d6000fd5b505050506040513d601f19601f82011682018060405250810190610107919061019b565b945094509450945094508395505050505050919050565b60008135905061012d81610298565b92915050565b600081519050610142816102af565b92915050565b600081519050610157816102c6565b92915050565b60008151905061016c816102dd565b92915050565b60006020828403121561018457600080fd5b60006101928482850161011e565b91505092915050565b600080600080600060a086880312156101b357600080fd5b60006101c18882890161015d565b95505060206101d288828901610133565b94505060406101e388828901610148565b93505060606101f488828901610148565b92505060806102058882890161015d565b9150509295509295909350565b61021b8161024e565b82525050565b60006020820190506102366000830184610212565b92915050565b600061024782610258565b9050919050565b6000819050919050565b600073ffffffffffffffffffffffffffffffffffffffff82169050919050565b6000819050919050565b600069ffffffffffffffffffff82169050919050565b6102a18161023c565b81146102ac57600080fd5b50565b6102b88161024e565b81146102c357600080fd5b50565b6102cf81610278565b81146102da57600080fd5b50565b6102e681610282565b81146102f157600080fd5b5056fea2646970667358221220f6f4bfebf99b4a2411b9e2e605a1942ab76b6e43aeb31421f870b5c341376b7264736f6c63430008030033",
  "immutableReferences": {},
  "source": "// SPDX-License-Identifier: MIT\r\npragma solidity ^0.8.3;\r\nimport \"./Aggre.sol\";\r\n\r\ncontract BinaryOption{\r\n\r\n\r\n    uint256  public battleId; // unique id for each battle\r\n    mapping(uint256 => Battle) public battleInfo; // map of the existing battles\r\n    address public owner; // the creator of the contract (we)\r\n    uint  public tempVal;\r\n\r\n    mapping(string=>address) public feedAddress;\r\n    Aggre public age;\r\n\r\n    struct Battle {\r\n        address creator;\r\n        address opponent;\r\n        uint256 amountBet;\r\n        string betType;\r\n        uint betDate;\r\n        bool isUp;\r\n        int currVal;\r\n    }\r\n\r\n    constructor() public {\r\n        age=new Aggre();\r\n        owner = msg.sender;\r\n\r\n        // those addresses (of Kovan test network) can be found at: https://docs.chain.link/docs/ethereum-addresses/\r\n        feedAddress[\"EthVsUsd\"]=0x9326BFA02ADD2366b30bacB125260Af641031331;\r\n        feedAddress[\"BtcVsUsd\"]=0x6135b13325bfC4B00278B4abC5e20bbce2D6580e;\r\n        feedAddress[\"EurVsUsd\"]=0x0c15Ab9A0DB086e062194c273CC79f41597Bbf13;\r\n    }\r\n\r\n    // a creator create a new battle\r\n    function addBattle(string memory betType,uint betDate,bool direction) public payable {\r\n        require(msg.value>0, \"You have to bet on positive value!\\n\");\r\n        battleInfo[battleId]=Battle(msg.sender,msg.sender,msg.value,betType,block.timestamp+betDate,direction,age.getThePrice(feedAddress[betType]));\r\n        tempVal=8;\r\n    }\r\n\r\n    function setIndex() public payable {\r\n        tempVal= msg.value;\r\n    }\r\n\r\n    function getIndex(uint256 battle_id) public view returns (uint){\r\n        return battleInfo[battle_id].betDate;\r\n    }\r\n\r\n    function getPrice() public view returns (int){\r\n        return age.getThePrice(0x9326BFA02ADD2366b30bacB125260Af641031331);\r\n    }\r\n\r\n\r\n    function getId() public view returns (uint256){\r\n        return battleId;\r\n    }\r\n\r\n    function settempVal(uint num) public {\r\n        tempVal=num;\r\n    }\r\n\r\n    // we call it before the withdraw method, in the index_1.js (the reason for this is there)\r\n    function gettempVal() public view returns (uint) {\r\n        return tempVal;\r\n    }\r\n\r\n\r\n    // an opponent is signed to battle number: battleid\r\n    function acceptBattle(uint256 battle_id) public payable{\r\n        Battle storage bate=battleInfo[battle_id];\r\n        require(bate.amountBet>0, \"Battle number isn't exist.\\n\");\r\n        require(bate.creator!=msg.sender, \"Impossible to fight against yourself.\\n\");\r\n        require(bate.creator==bate.opponent, \"This battle is closed, opponent already exist.\\n\");\r\n        require(msg.value==bate.amountBet, \"Betting value isn't as specified for this battle.\\n\");\r\n        bate.opponent=msg.sender;\r\n        tempVal=9;\r\n\r\n    }\r\n\r\n    // a creator cancel his battle\r\n    function cancelBattle(uint256 battle_id) public payable{\r\n        Battle memory bate=battleInfo[battle_id];\r\n        require(bate.creator==msg.sender, \"Only the creator may cancel his own battle.\\n\");\r\n        require(bate.amountBet>0, \"Battle number isn't exist.\\n\"); // needed?\r\n\r\n        require(bate.creator==bate.opponent, \"There is already opponent, this battle can't be canceled.\\n\");\r\n        //temp=address(battleInfo[battle_id].creator);\r\n        //temp.transfer(2*battleInfo[battle_id].amountBet);\r\n        payable(bate.creator).transfer(bate.amountBet); // return the amount invested\r\n        delete battleInfo[battle_id]; // battle is canceled\r\n    }\r\n\r\n\r\n    function getcurrVal(uint256 battle_id) public view returns (uint256){\r\n        require(msg.sender==battleInfo[battle_id].creator||msg.sender==battleInfo[battle_id].opponent, \"You are not part of this battle.\\n\");\r\n        return battleInfo[battle_id].amountBet;\r\n    }\r\n\r\n    // the winner may draw his money\r\n    function withdraw(uint256 battle_id) public {\r\n        tempVal=7;\r\n        int oldPrice;\r\n        int newPrice;\r\n        Battle memory bate=battleInfo[battle_id];\r\n        //require((bate.creator==msg.sender||bate.opponent==msg.sender), \"You are not part of this battle.\\n\"); // can be deleted if comes with getcurrval\r\n        require(bate.amountBet>0, \"Battle number isn't exist.\\n\"); // needed?\r\n        require(block.timestamp>=bate.betDate, \"Too early to check who is the winner.\\n\");\r\n        oldPrice=bate.currVal;\r\n        newPrice=age.getThePrice(feedAddress[bate.betType]);\r\n        // deliver the money to the winner\r\n        if(oldPrice<newPrice){\r\n            tempVal=5;\r\n            if(bate.isUp){\r\n                //temp=address(battleInfo[battle_id].creator);\r\n                //temp.transfer(2*battleInfo[battle_id].amountBet);\r\n                payable(bate.creator).transfer(2*bate.amountBet); // multiply by 2 since we deliever the money of both the creator and his opponent\r\n            }\r\n            else{\r\n                //temp=address(battleInfo[battle_id].opponent);\r\n                //temp.transfer(2*battleInfo[battle_id].amountBet);\r\n                payable(bate.opponent).transfer(2*bate.amountBet);\r\n            }\r\n\r\n        }\r\n        else if(oldPrice>newPrice){\r\n            tempVal=4;\r\n            if(bate.isUp){\r\n                //temp=address(battleInfo[battle_id].opponent);\r\n                //temp.transfer(2*battleInfo[battle_id].amountBet);\r\n                payable(bate.opponent).transfer(2*bate.amountBet);\r\n            }\r\n            else{\r\n                //temp=address(battleInfo[battle_id].creator);\r\n                //temp.transfer(2*battleInfo[battle_id].amountBet);\r\n                payable(bate.creator).transfer(2*bate.amountBet);\r\n            }\r\n        }\r\n        // if nothing has changed, the creator lose his money\r\n        else {\r\n            tempVal=3;\r\n            //temp=address(battleInfo[battle_id].opponent);\r\n            //temp.transfer(2*battleInfo[battle_id].amountBet);\r\n            payable(bate.opponent).transfer(2*bate.amountBet);\r\n        }\r\n        delete battleInfo[battle_id]; // battle is finished\r\n    }\r\n\r\n    //just for testing\r\n    function removeBattle(uint256 battle_id) public {\r\n        require(battleInfo[battle_id].amountBet>0, \"Battle number isn't exist.\\n\");\r\n        delete battleInfo[battle_id]; // battle is canceled\r\n    }\r\n\r\n\r\n\r\n}",
  "sourcePath": "/mnt/c/users/lenovo/ideaprojects/tau_smart_contract/contracts/BinaryOption.sol",
  "compiler": {
    "name": "solc",
    "version": "0.8.3+commit.8d00100c.Emscripten.clang"
  },
  "schemaVersion": "3.3.4",
  "updatedAt": "2021-05-01T07:36:50.855Z",
  "networkType": "ethereum",
  "devdoc": {
    "kind": "dev",
    "methods": {},
    "version": 1
  },
  "userdoc": {
    "kind": "user",
    "methods": {},
    "version": 1
  }
}