{
  "contractName": "BinaryOption",
  "abi": [
    {
      "inputs": [],
      "stateMutability": "nonpayable",
      "type": "constructor"
    },
    {
      "anonymous": false,
      "inputs": [
        {
          "indexed": true,
          "internalType": "uint256",
          "name": "id",
          "type": "uint256"
        },
        {
          "indexed": true,
          "internalType": "uint256",
          "name": "amount",
          "type": "uint256"
        }
      ],
      "name": "MyEvent",
      "type": "event"
    },
    {
      "inputs": [],
      "name": "age",
      "outputs": [
        {
          "internalType": "contract Aggre",
          "name": "",
          "type": "address"
        }
      ],
      "stateMutability": "view",
      "type": "function",
      "constant": true
    },
    {
      "inputs": [],
      "name": "battleId",
      "outputs": [
        {
          "internalType": "uint256",
          "name": "",
          "type": "uint256"
        }
      ],
      "stateMutability": "view",
      "type": "function",
      "constant": true
    },
    {
      "inputs": [
        {
          "internalType": "uint256",
          "name": "",
          "type": "uint256"
        }
      ],
      "name": "battleInfo",
      "outputs": [
        {
          "internalType": "address",
          "name": "creator",
          "type": "address"
        },
        {
          "internalType": "address",
          "name": "opponent",
          "type": "address"
        },
        {
          "internalType": "uint256",
          "name": "amountBet",
          "type": "uint256"
        },
        {
          "internalType": "string",
          "name": "betType",
          "type": "string"
        },
        {
          "internalType": "uint256",
          "name": "betDate",
          "type": "uint256"
        },
        {
          "internalType": "bool",
          "name": "isUp",
          "type": "bool"
        },
        {
          "internalType": "int256",
          "name": "currVal",
          "type": "int256"
        }
      ],
      "stateMutability": "view",
      "type": "function",
      "constant": true
    },
    {
      "inputs": [
        {
          "internalType": "string",
          "name": "",
          "type": "string"
        }
      ],
      "name": "feedAddress",
      "outputs": [
        {
          "internalType": "address",
          "name": "",
          "type": "address"
        }
      ],
      "stateMutability": "view",
      "type": "function",
      "constant": true
    },
    {
      "inputs": [],
      "name": "owner",
      "outputs": [
        {
          "internalType": "address",
          "name": "",
          "type": "address"
        }
      ],
      "stateMutability": "view",
      "type": "function",
      "constant": true
    },
    {
      "inputs": [],
      "name": "tempVal",
      "outputs": [
        {
          "internalType": "uint256",
          "name": "",
          "type": "uint256"
        }
      ],
      "stateMutability": "view",
      "type": "function",
      "constant": true
    },
    {
      "inputs": [
        {
          "internalType": "string",
          "name": "betType",
          "type": "string"
        },
        {
          "internalType": "uint256",
          "name": "betDate",
          "type": "uint256"
        },
        {
          "internalType": "bool",
          "name": "direction",
          "type": "bool"
        }
      ],
      "name": "addBattle",
      "outputs": [],
      "stateMutability": "payable",
      "type": "function",
      "payable": true
    },
    {
      "inputs": [],
      "name": "setIndex",
      "outputs": [],
      "stateMutability": "payable",
      "type": "function",
      "payable": true
    },
    {
      "inputs": [
        {
          "internalType": "uint256",
          "name": "battle_id",
          "type": "uint256"
        }
      ],
      "name": "getIndex",
      "outputs": [
        {
          "internalType": "uint256",
          "name": "",
          "type": "uint256"
        }
      ],
      "stateMutability": "view",
      "type": "function",
      "constant": true
    },
    {
      "inputs": [],
      "name": "getPrice",
      "outputs": [
        {
          "internalType": "int256",
          "name": "",
          "type": "int256"
        }
      ],
      "stateMutability": "view",
      "type": "function",
      "constant": true
    },
    {
      "inputs": [],
      "name": "getId",
      "outputs": [
        {
          "internalType": "uint256",
          "name": "",
          "type": "uint256"
        }
      ],
      "stateMutability": "view",
      "type": "function",
      "constant": true
    },
    {
      "inputs": [
        {
          "internalType": "uint256",
          "name": "num",
          "type": "uint256"
        }
      ],
      "name": "settempVal",
      "outputs": [],
      "stateMutability": "nonpayable",
      "type": "function"
    },
    {
      "inputs": [],
      "name": "gettempVal",
      "outputs": [
        {
          "internalType": "uint256",
          "name": "",
          "type": "uint256"
        }
      ],
      "stateMutability": "view",
      "type": "function",
      "constant": true
    },
    {
      "inputs": [
        {
          "internalType": "uint256",
          "name": "battle_id",
          "type": "uint256"
        }
      ],
      "name": "acceptBattle",
      "outputs": [],
      "stateMutability": "payable",
      "type": "function",
      "payable": true
    },
    {
      "inputs": [
        {
          "internalType": "uint256",
          "name": "battle_id",
          "type": "uint256"
        }
      ],
      "name": "cancelBattle",
      "outputs": [],
      "stateMutability": "payable",
      "type": "function",
      "payable": true
    },
    {
      "inputs": [
        {
          "internalType": "uint256",
          "name": "battle_id",
          "type": "uint256"
        }
      ],
      "name": "getcurrVal",
      "outputs": [
        {
          "internalType": "uint256",
          "name": "",
          "type": "uint256"
        }
      ],
      "stateMutability": "view",
      "type": "function",
      "constant": true
    },
    {
      "inputs": [
        {
          "internalType": "uint256",
          "name": "battle_id",
          "type": "uint256"
        }
      ],
      "name": "withdraw",
      "outputs": [],
      "stateMutability": "nonpayable",
      "type": "function"
    },
    {
      "inputs": [
        {
          "internalType": "uint256",
          "name": "battle_id",
          "type": "uint256"
        }
      ],
      "name": "removeBattle",
      "outputs": [],
      "stateMutability": "nonpayable",
      "type": "function"
    }
  ],
  "bytecode": "0x60806040523480156200001157600080fd5b50604051620000209062000218565b604051809103906000f0801580156200003d573d6000803e3d6000fd5b50600560006101000a81548173ffffffffffffffffffffffffffffffffffffffff021916908373ffffffffffffffffffffffffffffffffffffffff16021790555033600260006101000a81548173ffffffffffffffffffffffffffffffffffffffff021916908373ffffffffffffffffffffffffffffffffffffffff160217905550739326bfa02add2366b30bacb125260af6410313316004604051620000e490620002c9565b908152602001604051809103902060006101000a81548173ffffffffffffffffffffffffffffffffffffffff021916908373ffffffffffffffffffffffffffffffffffffffff160217905550736135b13325bfc4b00278b4abc5e20bbce2d6580e60046040516200015590620002b2565b908152602001604051809103902060006101000a81548173ffffffffffffffffffffffffffffffffffffffff021916908373ffffffffffffffffffffffffffffffffffffffff160217905550730c15ab9a0db086e062194c273cc79f41597bbf136004604051620001c6906200029b565b908152602001604051809103902060006101000a81548173ffffffffffffffffffffffffffffffffffffffff021916908373ffffffffffffffffffffffffffffffffffffffff16021790555062000366565b61017c806200281083390190565b600062000235600883620002e0565b91506200024282620002eb565b600882019050919050565b60006200025c600883620002e0565b9150620002698262000314565b600882019050919050565b600062000283600883620002e0565b915062000290826200033d565b600882019050919050565b6000620002a88262000226565b9150819050919050565b6000620002bf826200024d565b9150819050919050565b6000620002d68262000274565b9150819050919050565b600081905092915050565b7f4575725673557364000000000000000000000000000000000000000000000000600082015250565b7f4274635673557364000000000000000000000000000000000000000000000000600082015250565b7f4574685673557364000000000000000000000000000000000000000000000000600082015250565b61249a80620003766000396000f3fe6080604052600436106101095760003560e01c80638e7cb6e111610095578063a9e23bea11610064578063a9e23bea1461033d578063b49bbaa214610368578063bfc8b8c614610372578063db71dcdc1461038e578063e4bb7a1e146103d157610109565b80638e7cb6e11461028357806395323b50146102c057806398d5fdca146102e9578063a8cabe981461031457610109565b80634b755702116100dc5780634b755702146101ca5780634c4c447e146101f55780635d1ca6311461021157806381ec30f21461023c5780638da5cb5b1461025857610109565b806301a1b7781461010e578063262a9dff146101395780632e1a7d4d14610164578063460e4cc31461018d575b600080fd5b34801561011a57600080fd5b5061012361040e565b6040516101309190611e34565b60405180910390f35b34801561014557600080fd5b5061014e610414565b60405161015b9190611cde565b60405180910390f35b34801561017057600080fd5b5061018b60048036038101906101869190611a1d565b61043a565b005b34801561019957600080fd5b506101b460048036038101906101af9190611a1d565b610a54565b6040516101c19190611e34565b60405180910390f35b3480156101d657600080fd5b506101df610b84565b6040516101ec9190611e34565b60405180910390f35b61020f600480360381019061020a9190611a1d565b610b8e565b005b34801561021d57600080fd5b50610226610f49565b6040516102339190611e34565b60405180910390f35b61025660048036038101906102519190611a1d565b610f52565b005b34801561026457600080fd5b5061026d61118e565b60405161027a9190611c4d565b60405180910390f35b34801561028f57600080fd5b506102aa60048036038101906102a59190611a1d565b6111b4565b6040516102b79190611e34565b60405180910390f35b3480156102cc57600080fd5b506102e760048036038101906102e29190611a1d565b6111d4565b005b3480156102f557600080fd5b506102fe6112d0565b60405161030b9190611cf9565b60405180910390f35b34801561032057600080fd5b5061033b60048036038101906103369190611a1d565b611396565b005b34801561034957600080fd5b506103526113a0565b60405161035f9190611e34565b60405180910390f35b6103706113a6565b005b61038c600480360381019061038791906119b6565b6113af565b005b34801561039a57600080fd5b506103b560048036038101906103b09190611a1d565b611662565b6040516103c89796959493929190611c68565b60405180910390f35b3480156103dd57600080fd5b506103f860048036038101906103f39190611975565b611779565b6040516104059190611c4d565b60405180910390f35b60005481565b600560009054906101000a900473ffffffffffffffffffffffffffffffffffffffff1681565b60076003819055506000806000600160008581526020019081526020016000206040518060e00160405290816000820160009054906101000a900473ffffffffffffffffffffffffffffffffffffffff1673ffffffffffffffffffffffffffffffffffffffff1673ffffffffffffffffffffffffffffffffffffffff1681526020016001820160009054906101000a900473ffffffffffffffffffffffffffffffffffffffff1673ffffffffffffffffffffffffffffffffffffffff1673ffffffffffffffffffffffffffffffffffffffff1681526020016002820154815260200160038201805461052b90612034565b80601f016020809104026020016040519081016040528092919081815260200182805461055790612034565b80156105a45780601f10610579576101008083540402835291602001916105a4565b820191906000526020600020905b81548152906001019060200180831161058757829003601f168201915b50505050508152602001600482015481526020016005820160009054906101000a900460ff1615151515815260200160068201548152505090506000816040015111610625576040517f08c379a000000000000000000000000000000000000000000000000000000000815260040161061c90611df4565b60405180910390fd5b806080015142101561066c576040517f08c379a000000000000000000000000000000000000000000000000000000000815260040161066390611d54565b60405180910390fd5b8060c001519250600560009054906101000a900473ffffffffffffffffffffffffffffffffffffffff1673ffffffffffffffffffffffffffffffffffffffff166344a11f65600483606001516040516106c59190611c36565b908152602001604051809103902060009054906101000a900473ffffffffffffffffffffffffffffffffffffffff166040518263ffffffff1660e01b81526004016107109190611c4d565b60206040518083038186803b15801561072857600080fd5b505afa15801561073c573d6000803e3d6000fd5b505050506040513d601f19601f82011682018060405250810190610760919061194c565b91508183121561083d5760056003819055508060a00151156107dc57806000015173ffffffffffffffffffffffffffffffffffffffff166108fc826040015160026107ab9190611f22565b9081150290604051600060405180830381858888f193505050501580156107d6573d6000803e3d6000fd5b50610838565b806020015173ffffffffffffffffffffffffffffffffffffffff166108fc8260400151600261080b9190611f22565b9081150290604051600060405180830381858888f19350505050158015610836573d6000803e3d6000fd5b505b61097c565b818313156109185760046003819055508060a00151156108b757806020015173ffffffffffffffffffffffffffffffffffffffff166108fc826040015160026108869190611f22565b9081150290604051600060405180830381858888f193505050501580156108b1573d6000803e3d6000fd5b50610913565b806000015173ffffffffffffffffffffffffffffffffffffffff166108fc826040015160026108e69190611f22565b9081150290604051600060405180830381858888f19350505050158015610911573d6000803e3d6000fd5b505b61097b565b60038081905550806020015173ffffffffffffffffffffffffffffffffffffffff166108fc8260400151600261094e9190611f22565b9081150290604051600060405180830381858888f19350505050158015610979573d6000803e3d6000fd5b505b5b8060400151847f06208c2a7c81ce0338f4e7c431f49476c450bad6ce52ef2b4e186db4a1fbcaf460405160405180910390a360016000858152602001908152602001600020600080820160006101000a81549073ffffffffffffffffffffffffffffffffffffffff02191690556001820160006101000a81549073ffffffffffffffffffffffffffffffffffffffff02191690556002820160009055600382016000610a2891906117c2565b60048201600090556005820160006101000a81549060ff02191690556006820160009055505050505050565b60006001600083815260200190815260200160002060000160009054906101000a900473ffffffffffffffffffffffffffffffffffffffff1673ffffffffffffffffffffffffffffffffffffffff163373ffffffffffffffffffffffffffffffffffffffff161480610b2757506001600083815260200190815260200160002060010160009054906101000a900473ffffffffffffffffffffffffffffffffffffffff1673ffffffffffffffffffffffffffffffffffffffff163373ffffffffffffffffffffffffffffffffffffffff16145b610b66576040517f08c379a0000000000000000000000000000000000000000000000000000000008152600401610b5d90611d74565b60405180910390fd5b60016000838152602001908152602001600020600201549050919050565b6000600354905090565b6000600160008381526020019081526020016000206040518060e00160405290816000820160009054906101000a900473ffffffffffffffffffffffffffffffffffffffff1673ffffffffffffffffffffffffffffffffffffffff1673ffffffffffffffffffffffffffffffffffffffff1681526020016001820160009054906101000a900473ffffffffffffffffffffffffffffffffffffffff1673ffffffffffffffffffffffffffffffffffffffff1673ffffffffffffffffffffffffffffffffffffffff16815260200160028201548152602001600382018054610c7490612034565b80601f0160208091040260200160405190810160405280929190818152602001828054610ca090612034565b8015610ced5780601f10610cc257610100808354040283529160200191610ced565b820191906000526020600020905b815481529060010190602001808311610cd057829003601f168201915b50505050508152602001600482015481526020016005820160009054906101000a900460ff1615151515815260200160068201548152505090503373ffffffffffffffffffffffffffffffffffffffff16816000015173ffffffffffffffffffffffffffffffffffffffff1614610d99576040517f08c379a0000000000000000000000000000000000000000000000000000000008152600401610d9090611dd4565b60405180910390fd5b6000816040015111610de0576040517f08c379a0000000000000000000000000000000000000000000000000000000008152600401610dd790611df4565b60405180910390fd5b806020015173ffffffffffffffffffffffffffffffffffffffff16816000015173ffffffffffffffffffffffffffffffffffffffff1614610e56576040517f08c379a0000000000000000000000000000000000000000000000000000000008152600401610e4d90611d34565b60405180910390fd5b806000015173ffffffffffffffffffffffffffffffffffffffff166108fc82604001519081150290604051600060405180830381858888f19350505050158015610ea4573d6000803e3d6000fd5b5060016000838152602001908152602001600020600080820160006101000a81549073ffffffffffffffffffffffffffffffffffffffff02191690556001820160006101000a81549073ffffffffffffffffffffffffffffffffffffffff02191690556002820160009055600382016000610f1f91906117c2565b60048201600090556005820160006101000a81549060ff0219169055600682016000905550505050565b60008054905090565b60006001600083815260200190815260200160002090506000816002015411610fb0576040517f08c379a0000000000000000000000000000000000000000000000000000000008152600401610fa790611df4565b60405180910390fd5b3373ffffffffffffffffffffffffffffffffffffffff168160000160009054906101000a900473ffffffffffffffffffffffffffffffffffffffff1673ffffffffffffffffffffffffffffffffffffffff161415611043576040517f08c379a000000000000000000000000000000000000000000000000000000000815260040161103a90611d14565b60405180910390fd5b8060010160009054906101000a900473ffffffffffffffffffffffffffffffffffffffff1673ffffffffffffffffffffffffffffffffffffffff168160000160009054906101000a900473ffffffffffffffffffffffffffffffffffffffff1673ffffffffffffffffffffffffffffffffffffffff16146110f9576040517f08c379a00000000000000000000000000000000000000000000000000000000081526004016110f090611db4565b60405180910390fd5b8060020154341461113f576040517f08c379a000000000000000000000000000000000000000000000000000000000815260040161113690611e14565b60405180910390fd5b338160010160006101000a81548173ffffffffffffffffffffffffffffffffffffffff021916908373ffffffffffffffffffffffffffffffffffffffff16021790555060096003819055505050565b600260009054906101000a900473ffffffffffffffffffffffffffffffffffffffff1681565b600060016000838152602001908152602001600020600401549050919050565b600060016000838152602001908152602001600020600201541161122d576040517f08c379a000000000000000000000000000000000000000000000000000000000815260040161122490611df4565b60405180910390fd5b60016000828152602001908152602001600020600080820160006101000a81549073ffffffffffffffffffffffffffffffffffffffff02191690556001820160006101000a81549073ffffffffffffffffffffffffffffffffffffffff021916905560028201600090556003820160006112a791906117c2565b60048201600090556005820160006101000a81549060ff02191690556006820160009055505050565b6000600560009054906101000a900473ffffffffffffffffffffffffffffffffffffffff1673ffffffffffffffffffffffffffffffffffffffff166344a11f65739326bfa02add2366b30bacb125260af6410313316040518263ffffffff1660e01b81526004016113419190611c4d565b60206040518083038186803b15801561135957600080fd5b505afa15801561136d573d6000803e3d6000fd5b505050506040513d601f19601f82011682018060405250810190611391919061194c565b905090565b8060038190555050565b60035481565b34600381905550565b600034116113f2576040517f08c379a00000000000000000000000000000000000000000000000000000000081526004016113e990611d94565b60405180910390fd5b6040518060e001604052803373ffffffffffffffffffffffffffffffffffffffff1681526020013373ffffffffffffffffffffffffffffffffffffffff168152602001348152602001848152602001834261144d9190611ecc565b81526020018215158152602001600560009054906101000a900473ffffffffffffffffffffffffffffffffffffffff1673ffffffffffffffffffffffffffffffffffffffff166344a11f656004876040516114a89190611c36565b908152602001604051809103902060009054906101000a900473ffffffffffffffffffffffffffffffffffffffff166040518263ffffffff1660e01b81526004016114f39190611c4d565b60206040518083038186803b15801561150b57600080fd5b505afa15801561151f573d6000803e3d6000fd5b505050506040513d601f19601f82011682018060405250810190611543919061194c565b815250600160008054815260200190815260200160002060008201518160000160006101000a81548173ffffffffffffffffffffffffffffffffffffffff021916908373ffffffffffffffffffffffffffffffffffffffff16021790555060208201518160010160006101000a81548173ffffffffffffffffffffffffffffffffffffffff021916908373ffffffffffffffffffffffffffffffffffffffff16021790555060408201518160020155606082015181600301908051906020019061160e929190611802565b506080820151816004015560a08201518160050160006101000a81548160ff02191690831515021790555060c0820151816006015590505060008081548092919061165890612097565b9190505550505050565b60016020528060005260406000206000915090508060000160009054906101000a900473ffffffffffffffffffffffffffffffffffffffff16908060010160009054906101000a900473ffffffffffffffffffffffffffffffffffffffff16908060020154908060030180546116d790612034565b80601f016020809104026020016040519081016040528092919081815260200182805461170390612034565b80156117505780601f1061172557610100808354040283529160200191611750565b820191906000526020600020905b81548152906001019060200180831161173357829003601f168201915b5050505050908060040154908060050160009054906101000a900460ff16908060060154905087565b6004818051602081018201805184825260208301602085012081835280955050505050506000915054906101000a900473ffffffffffffffffffffffffffffffffffffffff1681565b5080546117ce90612034565b6000825580601f106117e057506117ff565b601f0160209004906000526020600020908101906117fe9190611888565b5b50565b82805461180e90612034565b90600052602060002090601f0160209004810192826118305760008555611877565b82601f1061184957805160ff1916838001178555611877565b82800160010185558215611877579182015b8281111561187657825182559160200191906001019061185b565b5b5090506118849190611888565b5090565b5b808211156118a1576000816000905550600101611889565b5090565b60006118b86118b384611e74565b611e4f565b9050828152602081018484840111156118d057600080fd5b6118db848285611ff2565b509392505050565b6000813590506118f28161241f565b92915050565b60008151905061190781612436565b92915050565b600082601f83011261191e57600080fd5b813561192e8482602086016118a5565b91505092915050565b6000813590506119468161244d565b92915050565b60006020828403121561195e57600080fd5b600061196c848285016118f8565b91505092915050565b60006020828403121561198757600080fd5b600082013567ffffffffffffffff8111156119a157600080fd5b6119ad8482850161190d565b91505092915050565b6000806000606084860312156119cb57600080fd5b600084013567ffffffffffffffff8111156119e557600080fd5b6119f18682870161190d565b9350506020611a0286828701611937565b9250506040611a13868287016118e3565b9150509250925092565b600060208284031215611a2f57600080fd5b6000611a3d84828501611937565b91505092915050565b611a4f81611f7c565b82525050565b611a5e81611f8e565b82525050565b611a6d81611fce565b82525050565b611a7c81611f9a565b82525050565b6000611a8d82611ea5565b611a978185611eb0565b9350611aa7818560208601612001565b611ab08161216d565b840191505092915050565b6000611ac682611ea5565b611ad08185611ec1565b9350611ae0818560208601612001565b80840191505092915050565b6000611af9602683611eb0565b9150611b048261217e565b604082019050919050565b6000611b1c603a83611eb0565b9150611b27826121cd565b604082019050919050565b6000611b3f602683611eb0565b9150611b4a8261221c565b604082019050919050565b6000611b62602183611eb0565b9150611b6d8261226b565b604082019050919050565b6000611b85602383611eb0565b9150611b90826122ba565b604082019050919050565b6000611ba8602f83611eb0565b9150611bb382612309565b604082019050919050565b6000611bcb602c83611eb0565b9150611bd682612358565b604082019050919050565b6000611bee601b83611eb0565b9150611bf9826123a7565b602082019050919050565b6000611c11603283611eb0565b9150611c1c826123d0565b604082019050919050565b611c3081611fc4565b82525050565b6000611c428284611abb565b915081905092915050565b6000602082019050611c626000830184611a46565b92915050565b600060e082019050611c7d600083018a611a46565b611c8a6020830189611a46565b611c976040830188611c27565b8181036060830152611ca98187611a82565b9050611cb86080830186611c27565b611cc560a0830185611a55565b611cd260c0830184611a73565b98975050505050505050565b6000602082019050611cf36000830184611a64565b92915050565b6000602082019050611d0e6000830184611a73565b92915050565b60006020820190508181036000830152611d2d81611aec565b9050919050565b60006020820190508181036000830152611d4d81611b0f565b9050919050565b60006020820190508181036000830152611d6d81611b32565b9050919050565b60006020820190508181036000830152611d8d81611b55565b9050919050565b60006020820190508181036000830152611dad81611b78565b9050919050565b60006020820190508181036000830152611dcd81611b9b565b9050919050565b60006020820190508181036000830152611ded81611bbe565b9050919050565b60006020820190508181036000830152611e0d81611be1565b9050919050565b60006020820190508181036000830152611e2d81611c04565b9050919050565b6000602082019050611e496000830184611c27565b92915050565b6000611e59611e6a565b9050611e658282612066565b919050565b6000604051905090565b600067ffffffffffffffff821115611e8f57611e8e61213e565b5b611e988261216d565b9050602081019050919050565b600081519050919050565b600082825260208201905092915050565b600081905092915050565b6000611ed782611fc4565b9150611ee283611fc4565b9250827fffffffffffffffffffffffffffffffffffffffffffffffffffffffffffffffff03821115611f1757611f166120e0565b5b828201905092915050565b6000611f2d82611fc4565b9150611f3883611fc4565b9250817fffffffffffffffffffffffffffffffffffffffffffffffffffffffffffffffff0483118215151615611f7157611f706120e0565b5b828202905092915050565b6000611f8782611fa4565b9050919050565b60008115159050919050565b6000819050919050565b600073ffffffffffffffffffffffffffffffffffffffff82169050919050565b6000819050919050565b6000611fd982611fe0565b9050919050565b6000611feb82611fa4565b9050919050565b82818337600083830152505050565b60005b8381101561201f578082015181840152602081019050612004565b8381111561202e576000848401525b50505050565b6000600282049050600182168061204c57607f821691505b602082108114156120605761205f61210f565b5b50919050565b61206f8261216d565b810181811067ffffffffffffffff8211171561208e5761208d61213e565b5b80604052505050565b60006120a282611fc4565b91507fffffffffffffffffffffffffffffffffffffffffffffffffffffffffffffffff8214156120d5576120d46120e0565b5b600182019050919050565b7f4e487b7100000000000000000000000000000000000000000000000000000000600052601160045260246000fd5b7f4e487b7100000000000000000000000000000000000000000000000000000000600052602260045260246000fd5b7f4e487b7100000000000000000000000000000000000000000000000000000000600052604160045260246000fd5b6000601f19601f8301169050919050565b7f496d706f737369626c6520746f20666967687420616761696e737420796f757260008201527f73656c662e0a0000000000000000000000000000000000000000000000000000602082015250565b7f546865726520697320616c7265616479206f70706f6e656e742c20746869732060008201527f626174746c652063616e27742062652063616e63656c65642e0a000000000000602082015250565b7f546f6f206561726c7920746f20636865636b2077686f2069732074686520776960008201527f6e6e65722e0a0000000000000000000000000000000000000000000000000000602082015250565b7f596f7520617265206e6f742070617274206f66207468697320626174746c652e60008201527f0a00000000000000000000000000000000000000000000000000000000000000602082015250565b7f596f75206861766520746f20626574206f6e20706f7369746976652076616c7560008201527f65210a0000000000000000000000000000000000000000000000000000000000602082015250565b7f5468697320626174746c6520697320636c6f7365642c206f70706f6e656e742060008201527f616c72656164792065786973742e0a0000000000000000000000000000000000602082015250565b7f4f6e6c79207468652063726561746f72206d61792063616e63656c206869732060008201527f6f776e20626174746c652e0a0000000000000000000000000000000000000000602082015250565b7f426174746c65206e756d6265722069736e27742065786973742e0a0000000000600082015250565b7f42657474696e672076616c75652069736e27742061732073706563696669656460008201527f20666f72207468697320626174746c652e0a0000000000000000000000000000602082015250565b61242881611f8e565b811461243357600080fd5b50565b61243f81611f9a565b811461244a57600080fd5b50565b61245681611fc4565b811461246157600080fd5b5056fea26469706673582212208ec7c543c13a957a82bc92390837aa2083de880c84711d661c412fab212cee1164736f6c63430008030033608060405234801561001057600080fd5b5061015c806100206000396000f3fe608060405234801561001057600080fd5b506004361061002b5760003560e01c806344a11f6514610030575b600080fd5b61004a60048036038101906100459190610080565b610060565b60405161005791906100b8565b60405180910390f35b600060029050919050565b60008135905061007a8161010f565b92915050565b60006020828403121561009257600080fd5b60006100a08482850161006b565b91505092915050565b6100b2816100e5565b82525050565b60006020820190506100cd60008301846100a9565b92915050565b60006100de826100ef565b9050919050565b6000819050919050565b600073ffffffffffffffffffffffffffffffffffffffff82169050919050565b610118816100d3565b811461012357600080fd5b5056fea264697066735822122065a2c602d867685e3b1157e238ad21e4cb1c4eb3be148fcebf27e8f37b9dceff64736f6c63430008030033",
  "immutableReferences": {},
  "source": "// SPDX-License-Identifier: MIT\npragma solidity ^0.8.3;\nimport \"./Aggre.sol\";\n\ncontract BinaryOption{\n\n\n    uint256  public battleId; // unique id for each battle\n    mapping(uint256 => Battle) public battleInfo; // map of the existing battles\n    address public owner; // the creator of the contract (we)\n    uint  public tempVal;\n\n    mapping(string=>address) public feedAddress;\n    Aggre public age;\n\n    event MyEvent(\n    uint256 indexed id,\n    uint256 indexed amount\n    );\n\n    struct Battle {\n        address creator;\n        address opponent;\n        uint256 amountBet;\n        string betType;\n        uint betDate;\n        bool isUp;\n        int currVal;\n    }\n\n    constructor() public {\n        age=new Aggre();\n        owner = msg.sender;\n\n        // those addresses (of Kovan test network) can be found at: https://docs.chain.link/docs/ethereum-addresses/\n        feedAddress[\"EthVsUsd\"]=0x9326BFA02ADD2366b30bacB125260Af641031331;\n        feedAddress[\"BtcVsUsd\"]=0x6135b13325bfC4B00278B4abC5e20bbce2D6580e;\n        feedAddress[\"EurVsUsd\"]=0x0c15Ab9A0DB086e062194c273CC79f41597Bbf13;\n    }\n\n    // a creator create a new battle\n    function addBattle(string memory betType,uint betDate,bool direction) public payable {\n        require(msg.value>0, \"You have to bet on positive value!\\n\");\n        battleInfo[battleId]=Battle(msg.sender,msg.sender,msg.value,betType,block.timestamp+betDate,direction,age.getThePrice(feedAddress[betType]));\n        battleId++;\n    }\n\n    function setIndex() public payable {\n        tempVal= msg.value;\n    }\n\n    function getIndex(uint256 battle_id) public view returns (uint){\n        return battleInfo[battle_id].betDate;\n    }\n\n    function getPrice() public view returns (int){\n        return age.getThePrice(0x9326BFA02ADD2366b30bacB125260Af641031331);\n    }\n\n\n    function getId() public view returns (uint256){\n        return battleId;\n    }\n\n    /*function getEvent() public {\n        emit MyEvent(battleId,battleId);\n    }*/\n\n    function settempVal(uint num) public {\n        tempVal=num;\n    }\n\n    // we call it before the withdraw method, in the index_1.js (the reason for this is there)\n    function gettempVal() public view returns (uint) {\n        return tempVal;\n    }\n\n\n    // an opponent is signed to battle number: battleid\n    function acceptBattle(uint256 battle_id) public payable{\n        Battle storage bate=battleInfo[battle_id];\n        require(bate.amountBet>0, \"Battle number isn't exist.\\n\");\n        require(bate.creator!=msg.sender, \"Impossible to fight against yourself.\\n\");\n        require(bate.creator==bate.opponent, \"This battle is closed, opponent already exist.\\n\");\n        require(msg.value==bate.amountBet, \"Betting value isn't as specified for this battle.\\n\");\n        bate.opponent=msg.sender;\n        tempVal=9;\n\n    }\n\n    // a creator cancel his battle\n    function cancelBattle(uint256 battle_id) public payable{\n        Battle memory bate=battleInfo[battle_id];\n        require(bate.creator==msg.sender, \"Only the creator may cancel his own battle.\\n\");\n        require(bate.amountBet>0, \"Battle number isn't exist.\\n\"); // needed?\n\n        require(bate.creator==bate.opponent, \"There is already opponent, this battle can't be canceled.\\n\");\n        //temp=address(battleInfo[battle_id].creator);\n        //temp.transfer(2*battleInfo[battle_id].amountBet);\n        payable(bate.creator).transfer(bate.amountBet); // return the amount invested\n        delete battleInfo[battle_id]; // battle is canceled\n    }\n\n\n    function getcurrVal(uint256 battle_id) public view returns (uint256){\n        require(msg.sender==battleInfo[battle_id].creator||msg.sender==battleInfo[battle_id].opponent, \"You are not part of this battle.\\n\");\n        return battleInfo[battle_id].amountBet;\n    }\n\n    // the winner may draw his money\n    function withdraw(uint256 battle_id) public {\n        tempVal=7;\n        int oldPrice;\n        int newPrice;\n        Battle memory bate=battleInfo[battle_id];\n        //require((bate.creator==msg.sender||bate.opponent==msg.sender), \"You are not part of this battle.\\n\"); // can be deleted if comes with getcurrval\n        require(bate.amountBet>0, \"Battle number isn't exist.\\n\"); // needed?\n        require(block.timestamp>=bate.betDate, \"Too early to check who is the winner.\\n\");\n        oldPrice=bate.currVal;\n        newPrice=age.getThePrice(feedAddress[bate.betType]);\n        // deliver the money to the winner\n        if(oldPrice<newPrice){\n            tempVal=5;\n            if(bate.isUp){\n                //temp=address(battleInfo[battle_id].creator);\n                //temp.transfer(2*battleInfo[battle_id].amountBet);\n                payable(bate.creator).transfer(2*bate.amountBet); // multiply by 2 since we deliever the money of both the creator and his opponent\n            }\n            else{\n                //temp=address(battleInfo[battle_id].opponent);\n                //temp.transfer(2*battleInfo[battle_id].amountBet);\n                payable(bate.opponent).transfer(2*bate.amountBet);\n            }\n\n        }\n        else if(oldPrice>newPrice){\n            tempVal=4;\n            if(bate.isUp){\n                //temp=address(battleInfo[battle_id].opponent);\n                //temp.transfer(2*battleInfo[battle_id].amountBet);\n                payable(bate.opponent).transfer(2*bate.amountBet);\n            }\n            else{\n                //temp=address(battleInfo[battle_id].creator);\n                //temp.transfer(2*battleInfo[battle_id].amountBet);\n                payable(bate.creator).transfer(2*bate.amountBet);\n            }\n        }\n        // if nothing has changed, the creator lose his money\n        else {\n            tempVal=3;\n            //temp=address(battleInfo[battle_id].opponent);\n            //temp.transfer(2*battleInfo[battle_id].amountBet);\n            payable(bate.opponent).transfer(2*bate.amountBet);\n        }\n        // sign the event\n        emit MyEvent(battle_id,bate.amountBet);\n        delete battleInfo[battle_id]; // battle is finished\n    }\n\n    //just for testing\n    function removeBattle(uint256 battle_id) public {\n        require(battleInfo[battle_id].amountBet>0, \"Battle number isn't exist.\\n\");\n        delete battleInfo[battle_id]; // battle is canceled\n    }\n\n\n\n}",
  "sourcePath": "/home/eran/WebstormProjects/tau_Smart_contract/contracts/BinaryOption.sol",
  "compiler": {
    "name": "solc",
    "version": "0.8.3+commit.8d00100c.Emscripten.clang"
  },
  "schemaVersion": "3.3.4",
  "updatedAt": "2021-05-08T12:34:59.982Z",
  "networkType": "ethereum",
  "devdoc": {
    "kind": "dev",
    "methods": {},
    "version": 1
  },
  "userdoc": {
    "kind": "user",
    "methods": {},
    "version": 1
  }
}