{
  "contractName": "BinaryOption",
  "abi": [
    {
      "inputs": [],
      "stateMutability": "nonpayable",
      "type": "constructor"
    },
    {
      "inputs": [],
      "name": "age",
      "outputs": [
        {
          "internalType": "contract Aggre",
          "name": "",
          "type": "address"
        }
      ],
      "stateMutability": "view",
      "type": "function"
    },
    {
      "inputs": [],
      "name": "battleId",
      "outputs": [
        {
          "internalType": "uint256",
          "name": "",
          "type": "uint256"
        }
      ],
      "stateMutability": "view",
      "type": "function"
    },
    {
      "inputs": [
        {
          "internalType": "uint256",
          "name": "",
          "type": "uint256"
        }
      ],
      "name": "battleInfo",
      "outputs": [
        {
          "internalType": "address",
          "name": "creator",
          "type": "address"
        },
        {
          "internalType": "address",
          "name": "opponent",
          "type": "address"
        },
        {
          "internalType": "uint256",
          "name": "amountBet",
          "type": "uint256"
        },
        {
          "internalType": "string",
          "name": "betType",
          "type": "string"
        },
        {
          "internalType": "uint256",
          "name": "betDate",
          "type": "uint256"
        },
        {
          "internalType": "bool",
          "name": "isUp",
          "type": "bool"
        },
        {
          "internalType": "int256",
          "name": "currVal",
          "type": "int256"
        }
      ],
      "stateMutability": "view",
      "type": "function"
    },
    {
      "inputs": [],
      "name": "owner",
      "outputs": [
        {
          "internalType": "address",
          "name": "",
          "type": "address"
        }
      ],
      "stateMutability": "view",
      "type": "function"
    },
    {
      "inputs": [
        {
          "internalType": "string",
          "name": "",
          "type": "string"
        }
      ],
      "name": "queries",
      "outputs": [
        {
          "internalType": "string",
          "name": "jobId",
          "type": "string"
        },
        {
          "internalType": "string",
          "name": "json",
          "type": "string"
        },
        {
          "internalType": "string",
          "name": "path",
          "type": "string"
        }
      ],
      "stateMutability": "view",
      "type": "function"
    },
    {
      "inputs": [],
      "name": "tempVal",
      "outputs": [
        {
          "internalType": "uint256",
          "name": "",
          "type": "uint256"
        }
      ],
      "stateMutability": "view",
      "type": "function"
    },
    {
      "inputs": [
        {
          "internalType": "string",
          "name": "betType",
          "type": "string"
        },
        {
          "internalType": "uint256",
          "name": "betDate",
          "type": "uint256"
        },
        {
          "internalType": "bool",
          "name": "direction",
          "type": "bool"
        }
      ],
      "name": "addBattle",
      "outputs": [],
      "stateMutability": "payable",
      "type": "function"
    },
    {
      "inputs": [],
      "name": "setIndex",
      "outputs": [],
      "stateMutability": "payable",
      "type": "function"
    },
    {
      "inputs": [
        {
          "internalType": "uint256",
          "name": "battle_id",
          "type": "uint256"
        }
      ],
      "name": "getIndex",
      "outputs": [
        {
          "internalType": "uint256",
          "name": "",
          "type": "uint256"
        }
      ],
      "stateMutability": "view",
      "type": "function"
    },
    {
      "inputs": [
        {
          "internalType": "uint256",
          "name": "battle_id",
          "type": "uint256"
        }
      ],
      "name": "getcurrVal",
      "outputs": [
        {
          "internalType": "int256",
          "name": "",
          "type": "int256"
        }
      ],
      "stateMutability": "view",
      "type": "function"
    },
    {
      "inputs": [],
      "name": "getId",
      "outputs": [
        {
          "internalType": "uint256",
          "name": "",
          "type": "uint256"
        }
      ],
      "stateMutability": "view",
      "type": "function"
    },
    {
      "inputs": [
        {
          "internalType": "uint256",
          "name": "num",
          "type": "uint256"
        }
      ],
      "name": "settempVal",
      "outputs": [],
      "stateMutability": "nonpayable",
      "type": "function"
    },
    {
      "inputs": [
        {
          "internalType": "uint256",
          "name": "num",
          "type": "uint256"
        }
      ],
      "name": "gettempVal",
      "outputs": [
        {
          "internalType": "uint256",
          "name": "",
          "type": "uint256"
        }
      ],
      "stateMutability": "view",
      "type": "function"
    },
    {
      "inputs": [
        {
          "internalType": "uint256",
          "name": "battle_id",
          "type": "uint256"
        }
      ],
      "name": "acceptBattle",
      "outputs": [],
      "stateMutability": "payable",
      "type": "function"
    },
    {
      "inputs": [
        {
          "internalType": "uint256",
          "name": "battle_id",
          "type": "uint256"
        }
      ],
      "name": "cancelBattle",
      "outputs": [],
      "stateMutability": "payable",
      "type": "function"
    },
    {
      "inputs": [
        {
          "internalType": "uint256",
          "name": "battle_id",
          "type": "uint256"
        }
      ],
      "name": "withdraw",
      "outputs": [],
      "stateMutability": "nonpayable",
      "type": "function"
    },
    {
      "inputs": [
        {
          "internalType": "uint256",
          "name": "battle_id",
          "type": "uint256"
        }
      ],
      "name": "removeBattle",
      "outputs": [],
      "stateMutability": "nonpayable",
      "type": "function"
    }
  ],
  "bytecode": "0x60806040523480156200001157600080fd5b506040516200002090620001e1565b604051809103906000f0801580156200003d573d6000803e3d6000fd5b50600560006101000a81548173ffffffffffffffffffffffffffffffffffffffff021916908373ffffffffffffffffffffffffffffffffffffffff16021790555033600360006101000a81548173ffffffffffffffffffffffffffffffffffffffff021916908373ffffffffffffffffffffffffffffffffffffffff16021790555060405180606001604052806040518060400160405280602081526020017f346562663965306336306436343631636238613839346330663030656536623081525081526020016040518060600160405280603f815260200162002873603f913981526020016040518060400160405280600381526020017f555344000000000000000000000000000000000000000000000000000000000081525081525060026040516200016d90620002c5565b9081526020016040518091039020600082015181600001908051906020019062000199929190620001ee565b506020820151816001019080519060200190620001b8929190620001ee565b506040820151816002019080519060200190620001d7929190620001ee565b5090505062000375565b60d5806200279e83390190565b828054620001fc90620002e7565b90600052602060002090601f0160209004810192826200022057600085556200026c565b82601f106200023b57805160ff19168380011785556200026c565b828001600101855582156200026c579182015b828111156200026b5782518255916020019190600101906200024e565b5b5090506200027b91906200027f565b5090565b5b808211156200029a57600081600090555060010162000280565b5090565b6000620002ad600683620002dc565b9150620002ba826200034c565b600682019050919050565b6000620002d2826200029e565b9150819050919050565b600081905092915050565b600060028204905060018216806200030057607f821691505b602082108114156200031757620003166200031d565b5b50919050565b7f4e487b7100000000000000000000000000000000000000000000000000000000600052602260045260246000fd5b7f446f6c6c61720000000000000000000000000000000000000000000000000000600082015250565b61241980620003856000396000f3fe6080604052600436106100fe5760003560e01c80638e7cb6e111610095578063b49bbaa211610064578063b49bbaa214610307578063bfc8b8c614610311578063db71dcdc1461032d578063f582904214610370578063fb7cacc9146103ad576100fe565b80638e7cb6e11461024d57806395323b501461028a578063a8cabe98146102b3578063a9e23bea146102dc576100fe565b80634c4c447e116100d15780634c4c447e146101bf5780635d1ca631146101db57806381ec30f2146102065780638da5cb5b14610222576100fe565b806301a1b77814610103578063262a9dff1461012e5780632e1a7d4d14610159578063460e4cc314610182575b600080fd5b34801561010f57600080fd5b506101186103ec565b6040516101259190611dbe565b60405180910390f35b34801561013a57600080fd5b506101436103f2565b6040516101509190611c1c565b60405180910390f35b34801561016557600080fd5b50610180600480360381019061017b91906119a3565b610418565b005b34801561018e57600080fd5b506101a960048036038101906101a491906119a3565b610a5f565b6040516101b69190611c37565b60405180910390f35b6101d960048036038101906101d491906119a3565b610a7f565b005b3480156101e757600080fd5b506101f0610e3a565b6040516101fd9190611dbe565b60405180910390f35b610220600480360381019061021b91906119a3565b610e43565b005b34801561022e57600080fd5b5061023761107f565b6040516102449190611b8b565b60405180910390f35b34801561025957600080fd5b50610274600480360381019061026f91906119a3565b6110a5565b6040516102819190611dbe565b60405180910390f35b34801561029657600080fd5b506102b160048036038101906102ac91906119a3565b6110c5565b005b3480156102bf57600080fd5b506102da60048036038101906102d591906119a3565b6111c1565b005b3480156102e857600080fd5b506102f16111cb565b6040516102fe9190611dbe565b60405180910390f35b61030f6111d1565b005b61032b6004803603810190610326919061193c565b6111da565b005b34801561033957600080fd5b50610354600480360381019061034f91906119a3565b61144d565b6040516103679796959493929190611ba6565b60405180910390f35b34801561037c57600080fd5b50610397600480360381019061039291906119a3565b611564565b6040516103a49190611dbe565b60405180910390f35b3480156103b957600080fd5b506103d460048036038101906103cf91906118fb565b611570565b6040516103e393929190611c52565b60405180910390f35b60005481565b600560009054906101000a900473ffffffffffffffffffffffffffffffffffffffff1681565b60076004819055506000806000600160008581526020019081526020016000206040518060e00160405290816000820160009054906101000a900473ffffffffffffffffffffffffffffffffffffffff1673ffffffffffffffffffffffffffffffffffffffff1673ffffffffffffffffffffffffffffffffffffffff1681526020016001820160009054906101000a900473ffffffffffffffffffffffffffffffffffffffff1673ffffffffffffffffffffffffffffffffffffffff1673ffffffffffffffffffffffffffffffffffffffff1681526020016002820154815260200160038201805461050990611fb3565b80601f016020809104026020016040519081016040528092919081815260200182805461053590611fb3565b80156105825780601f1061055757610100808354040283529160200191610582565b820191906000526020600020905b81548152906001019060200180831161056557829003601f168201915b50505050508152602001600482015481526020016005820160009054906101000a900460ff1615151515815260200160068201548152505090506000816040015111610603576040517f08c379a00000000000000000000000000000000000000000000000000000000081526004016105fa90611d7e565b60405180910390fd5b806080015142101561064a576040517f08c379a000000000000000000000000000000000000000000000000000000000815260040161064190611cde565b60405180910390fd5b3373ffffffffffffffffffffffffffffffffffffffff16816000015173ffffffffffffffffffffffffffffffffffffffff1614806106b757503373ffffffffffffffffffffffffffffffffffffffff16816020015173ffffffffffffffffffffffffffffffffffffffff16145b6106f6576040517f08c379a00000000000000000000000000000000000000000000000000000000081526004016106ed90611cfe565b60405180910390fd5b8060c001519250600560009054906101000a900473ffffffffffffffffffffffffffffffffffffffff1673ffffffffffffffffffffffffffffffffffffffff16638c3c9a556040518163ffffffff1660e01b815260040160206040518083038186803b15801561076557600080fd5b505afa158015610779573d6000803e3d6000fd5b505050506040513d601f19601f8201168201806040525081019061079d91906118d2565b91508183121561087a5760056004819055508060a001511561081957806000015173ffffffffffffffffffffffffffffffffffffffff166108fc826040015160026107e89190611ea1565b9081150290604051600060405180830381858888f19350505050158015610813573d6000803e3d6000fd5b50610875565b806020015173ffffffffffffffffffffffffffffffffffffffff166108fc826040015160026108489190611ea1565b9081150290604051600060405180830381858888f19350505050158015610873573d6000803e3d6000fd5b505b6109b9565b8183131561095457600480819055508060a00151156108f357806020015173ffffffffffffffffffffffffffffffffffffffff166108fc826040015160026108c29190611ea1565b9081150290604051600060405180830381858888f193505050501580156108ed573d6000803e3d6000fd5b5061094f565b806000015173ffffffffffffffffffffffffffffffffffffffff166108fc826040015160026109229190611ea1565b9081150290604051600060405180830381858888f1935050505015801561094d573d6000803e3d6000fd5b505b6109b8565b6003600481905550806020015173ffffffffffffffffffffffffffffffffffffffff166108fc8260400151600261098b9190611ea1565b9081150290604051600060405180830381858888f193505050501580156109b6573d6000803e3d6000fd5b505b5b60016000858152602001908152602001600020600080820160006101000a81549073ffffffffffffffffffffffffffffffffffffffff02191690556001820160006101000a81549073ffffffffffffffffffffffffffffffffffffffff02191690556002820160009055600382016000610a339190611748565b60048201600090556005820160006101000a81549060ff02191690556006820160009055505050505050565b600060016000838152602001908152602001600020600601549050919050565b6000600160008381526020019081526020016000206040518060e00160405290816000820160009054906101000a900473ffffffffffffffffffffffffffffffffffffffff1673ffffffffffffffffffffffffffffffffffffffff1673ffffffffffffffffffffffffffffffffffffffff1681526020016001820160009054906101000a900473ffffffffffffffffffffffffffffffffffffffff1673ffffffffffffffffffffffffffffffffffffffff1673ffffffffffffffffffffffffffffffffffffffff16815260200160028201548152602001600382018054610b6590611fb3565b80601f0160208091040260200160405190810160405280929190818152602001828054610b9190611fb3565b8015610bde5780601f10610bb357610100808354040283529160200191610bde565b820191906000526020600020905b815481529060010190602001808311610bc157829003601f168201915b50505050508152602001600482015481526020016005820160009054906101000a900460ff1615151515815260200160068201548152505090506000816040015111610c5f576040517f08c379a0000000000000000000000000000000000000000000000000000000008152600401610c5690611d7e565b60405180910390fd5b3373ffffffffffffffffffffffffffffffffffffffff16816000015173ffffffffffffffffffffffffffffffffffffffff1614610cd1576040517f08c379a0000000000000000000000000000000000000000000000000000000008152600401610cc890611d5e565b60405180910390fd5b806020015173ffffffffffffffffffffffffffffffffffffffff16816000015173ffffffffffffffffffffffffffffffffffffffff1614610d47576040517f08c379a0000000000000000000000000000000000000000000000000000000008152600401610d3e90611cbe565b60405180910390fd5b806000015173ffffffffffffffffffffffffffffffffffffffff166108fc82604001519081150290604051600060405180830381858888f19350505050158015610d95573d6000803e3d6000fd5b5060016000838152602001908152602001600020600080820160006101000a81549073ffffffffffffffffffffffffffffffffffffffff02191690556001820160006101000a81549073ffffffffffffffffffffffffffffffffffffffff02191690556002820160009055600382016000610e109190611748565b60048201600090556005820160006101000a81549060ff0219169055600682016000905550505050565b60008054905090565b60006001600083815260200190815260200160002090506000816002015411610ea1576040517f08c379a0000000000000000000000000000000000000000000000000000000008152600401610e9890611d7e565b60405180910390fd5b3373ffffffffffffffffffffffffffffffffffffffff168160000160009054906101000a900473ffffffffffffffffffffffffffffffffffffffff1673ffffffffffffffffffffffffffffffffffffffff161415610f34576040517f08c379a0000000000000000000000000000000000000000000000000000000008152600401610f2b90611c9e565b60405180910390fd5b8060010160009054906101000a900473ffffffffffffffffffffffffffffffffffffffff1673ffffffffffffffffffffffffffffffffffffffff168160000160009054906101000a900473ffffffffffffffffffffffffffffffffffffffff1673ffffffffffffffffffffffffffffffffffffffff1614610fea576040517f08c379a0000000000000000000000000000000000000000000000000000000008152600401610fe190611d3e565b60405180910390fd5b80600201543414611030576040517f08c379a000000000000000000000000000000000000000000000000000000000815260040161102790611d9e565b60405180910390fd5b338160010160006101000a81548173ffffffffffffffffffffffffffffffffffffffff021916908373ffffffffffffffffffffffffffffffffffffffff16021790555060096004819055505050565b600360009054906101000a900473ffffffffffffffffffffffffffffffffffffffff1681565b600060016000838152602001908152602001600020600401549050919050565b600060016000838152602001908152602001600020600201541161111e576040517f08c379a000000000000000000000000000000000000000000000000000000000815260040161111590611d7e565b60405180910390fd5b60016000828152602001908152602001600020600080820160006101000a81549073ffffffffffffffffffffffffffffffffffffffff02191690556001820160006101000a81549073ffffffffffffffffffffffffffffffffffffffff021916905560028201600090556003820160006111989190611748565b60048201600090556005820160006101000a81549060ff02191690556006820160009055505050565b8060048190555050565b60045481565b34600481905550565b6000341161121d576040517f08c379a000000000000000000000000000000000000000000000000000000000815260040161121490611d1e565b60405180910390fd5b6040518060e001604052803373ffffffffffffffffffffffffffffffffffffffff1681526020013373ffffffffffffffffffffffffffffffffffffffff16815260200134815260200184815260200183426112789190611e4b565b81526020018215158152602001600560009054906101000a900473ffffffffffffffffffffffffffffffffffffffff1673ffffffffffffffffffffffffffffffffffffffff16638c3c9a556040518163ffffffff1660e01b815260040160206040518083038186803b1580156112ed57600080fd5b505afa158015611301573d6000803e3d6000fd5b505050506040513d601f19601f8201168201806040525081019061132591906118d2565b815250600160008054815260200190815260200160002060008201518160000160006101000a81548173ffffffffffffffffffffffffffffffffffffffff021916908373ffffffffffffffffffffffffffffffffffffffff16021790555060208201518160010160006101000a81548173ffffffffffffffffffffffffffffffffffffffff021916908373ffffffffffffffffffffffffffffffffffffffff1602179055506040820151816002015560608201518160030190805190602001906113f0929190611788565b506080820151816004015560a08201518160050160006101000a81548160ff02191690831515021790555060c0820151816006015590505060005460048190555060008081548092919061144390612016565b9190505550505050565b60016020528060005260406000206000915090508060000160009054906101000a900473ffffffffffffffffffffffffffffffffffffffff16908060010160009054906101000a900473ffffffffffffffffffffffffffffffffffffffff16908060020154908060030180546114c290611fb3565b80601f01602080910402602001604051908101604052809291908181526020018280546114ee90611fb3565b801561153b5780601f106115105761010080835404028352916020019161153b565b820191906000526020600020905b81548152906001019060200180831161151e57829003601f168201915b5050505050908060040154908060050160009054906101000a900460ff16908060060154905087565b60006004549050919050565b6002818051602081018201805184825260208301602085012081835280955050505050506000915090508060000180546115a990611fb3565b80601f01602080910402602001604051908101604052809291908181526020018280546115d590611fb3565b80156116225780601f106115f757610100808354040283529160200191611622565b820191906000526020600020905b81548152906001019060200180831161160557829003601f168201915b50505050509080600101805461163790611fb3565b80601f016020809104026020016040519081016040528092919081815260200182805461166390611fb3565b80156116b05780601f10611685576101008083540402835291602001916116b0565b820191906000526020600020905b81548152906001019060200180831161169357829003601f168201915b5050505050908060020180546116c590611fb3565b80601f01602080910402602001604051908101604052809291908181526020018280546116f190611fb3565b801561173e5780601f106117135761010080835404028352916020019161173e565b820191906000526020600020905b81548152906001019060200180831161172157829003601f168201915b5050505050905083565b50805461175490611fb3565b6000825580601f106117665750611785565b601f016020900490600052602060002090810190611784919061180e565b5b50565b82805461179490611fb3565b90600052602060002090601f0160209004810192826117b657600085556117fd565b82601f106117cf57805160ff19168380011785556117fd565b828001600101855582156117fd579182015b828111156117fc5782518255916020019190600101906117e1565b5b50905061180a919061180e565b5090565b5b8082111561182757600081600090555060010161180f565b5090565b600061183e61183984611dfe565b611dd9565b90508281526020810184848401111561185657600080fd5b611861848285611f71565b509392505050565b6000813590506118788161239e565b92915050565b60008151905061188d816123b5565b92915050565b600082601f8301126118a457600080fd5b81356118b484826020860161182b565b91505092915050565b6000813590506118cc816123cc565b92915050565b6000602082840312156118e457600080fd5b60006118f28482850161187e565b91505092915050565b60006020828403121561190d57600080fd5b600082013567ffffffffffffffff81111561192757600080fd5b61193384828501611893565b91505092915050565b60008060006060848603121561195157600080fd5b600084013567ffffffffffffffff81111561196b57600080fd5b61197786828701611893565b9350506020611988868287016118bd565b925050604061199986828701611869565b9150509250925092565b6000602082840312156119b557600080fd5b60006119c3848285016118bd565b91505092915050565b6119d581611efb565b82525050565b6119e481611f0d565b82525050565b6119f381611f4d565b82525050565b611a0281611f19565b82525050565b6000611a1382611e2f565b611a1d8185611e3a565b9350611a2d818560208601611f80565b611a36816120ec565b840191505092915050565b6000611a4e602683611e3a565b9150611a59826120fd565b604082019050919050565b6000611a71603a83611e3a565b9150611a7c8261214c565b604082019050919050565b6000611a94602683611e3a565b9150611a9f8261219b565b604082019050919050565b6000611ab7602183611e3a565b9150611ac2826121ea565b604082019050919050565b6000611ada602383611e3a565b9150611ae582612239565b604082019050919050565b6000611afd602f83611e3a565b9150611b0882612288565b604082019050919050565b6000611b20602c83611e3a565b9150611b2b826122d7565b604082019050919050565b6000611b43601b83611e3a565b9150611b4e82612326565b602082019050919050565b6000611b66603283611e3a565b9150611b718261234f565b604082019050919050565b611b8581611f43565b82525050565b6000602082019050611ba060008301846119cc565b92915050565b600060e082019050611bbb600083018a6119cc565b611bc860208301896119cc565b611bd56040830188611b7c565b8181036060830152611be78187611a08565b9050611bf66080830186611b7c565b611c0360a08301856119db565b611c1060c08301846119f9565b98975050505050505050565b6000602082019050611c3160008301846119ea565b92915050565b6000602082019050611c4c60008301846119f9565b92915050565b60006060820190508181036000830152611c6c8186611a08565b90508181036020830152611c808185611a08565b90508181036040830152611c948184611a08565b9050949350505050565b60006020820190508181036000830152611cb781611a41565b9050919050565b60006020820190508181036000830152611cd781611a64565b9050919050565b60006020820190508181036000830152611cf781611a87565b9050919050565b60006020820190508181036000830152611d1781611aaa565b9050919050565b60006020820190508181036000830152611d3781611acd565b9050919050565b60006020820190508181036000830152611d5781611af0565b9050919050565b60006020820190508181036000830152611d7781611b13565b9050919050565b60006020820190508181036000830152611d9781611b36565b9050919050565b60006020820190508181036000830152611db781611b59565b9050919050565b6000602082019050611dd36000830184611b7c565b92915050565b6000611de3611df4565b9050611def8282611fe5565b919050565b6000604051905090565b600067ffffffffffffffff821115611e1957611e186120bd565b5b611e22826120ec565b9050602081019050919050565b600081519050919050565b600082825260208201905092915050565b6000611e5682611f43565b9150611e6183611f43565b9250827fffffffffffffffffffffffffffffffffffffffffffffffffffffffffffffffff03821115611e9657611e9561205f565b5b828201905092915050565b6000611eac82611f43565b9150611eb783611f43565b9250817fffffffffffffffffffffffffffffffffffffffffffffffffffffffffffffffff0483118215151615611ef057611eef61205f565b5b828202905092915050565b6000611f0682611f23565b9050919050565b60008115159050919050565b6000819050919050565b600073ffffffffffffffffffffffffffffffffffffffff82169050919050565b6000819050919050565b6000611f5882611f5f565b9050919050565b6000611f6a82611f23565b9050919050565b82818337600083830152505050565b60005b83811015611f9e578082015181840152602081019050611f83565b83811115611fad576000848401525b50505050565b60006002820490506001821680611fcb57607f821691505b60208210811415611fdf57611fde61208e565b5b50919050565b611fee826120ec565b810181811067ffffffffffffffff8211171561200d5761200c6120bd565b5b80604052505050565b600061202182611f43565b91507fffffffffffffffffffffffffffffffffffffffffffffffffffffffffffffffff8214156120545761205361205f565b5b600182019050919050565b7f4e487b7100000000000000000000000000000000000000000000000000000000600052601160045260246000fd5b7f4e487b7100000000000000000000000000000000000000000000000000000000600052602260045260246000fd5b7f4e487b7100000000000000000000000000000000000000000000000000000000600052604160045260246000fd5b6000601f19601f8301169050919050565b7f496d706f737369626c6520746f20666967687420616761696e737420796f757260008201527f73656c662e0a0000000000000000000000000000000000000000000000000000602082015250565b7f546865726520697320616c7265616479206f70706f6e656e742c20746869732060008201527f626174746c652063616e27742062652063616e63656c65642e0a000000000000602082015250565b7f546f6f206561726c7920746f20636865636b2077686f2069732074686520776960008201527f6e6e65722e0a0000000000000000000000000000000000000000000000000000602082015250565b7f596f7520617265206e6f742070617274206f66207468697320626174746c652e60008201527f0a00000000000000000000000000000000000000000000000000000000000000602082015250565b7f596f75206861766520746f20626574206f6e20706f7369746976652076616c7560008201527f65210a0000000000000000000000000000000000000000000000000000000000602082015250565b7f5468697320626174746c6520697320636c6f7365642c206f70706f6e656e742060008201527f616c72656164792065786973742e0a0000000000000000000000000000000000602082015250565b7f4f6e6c79207468652063726561746f72206d61792063616e63656c206869732060008201527f6f776e20626174746c652e0a0000000000000000000000000000000000000000602082015250565b7f426174746c65206e756d6265722069736e27742065786973742e0a0000000000600082015250565b7f42657474696e672076616c75652069736e27742061732073706563696669656460008201527f20666f72207468697320626174746c652e0a0000000000000000000000000000602082015250565b6123a781611f0d565b81146123b257600080fd5b50565b6123be81611f19565b81146123c957600080fd5b50565b6123d581611f43565b81146123e057600080fd5b5056fea2646970667358221220f590e36527fbde73e579c6ebbf597028a3e6d08f47f938ef1d2edab8d2d9c90464736f6c63430008030033608060405234801561001057600080fd5b5060b68061001f6000396000f3fe6080604052348015600f57600080fd5b506004361060285760003560e01c80638c3c9a5514602d575b600080fd5b60336047565b604051603e9190605d565b60405180910390f35b60006002905090565b6057816076565b82525050565b6000602082019050607060008301846050565b92915050565b600081905091905056fea26469706673582212202553c43c127a9bea38c9f915c3c3c213d7bfd016a32ce2a687c53e70b44d2c5464736f6c6343000803003368747470733a2f2f6d696e2d6170692e63727970746f636f6d706172652e636f6d2f646174612f70726963653f6673796d3d455448267473796d733d555344",
  "immutableReferences": {},
  "source": "pragma solidity ^0.8.3;\nimport \"./Aggre.sol\";\n\ncontract BinaryOption{\n\n\nuint256  public battleId; // unique id for each battle\n    mapping(uint256 => Battle) public battleInfo; // map of the existing battles\n    //mapping(bytes32=>uint256) public requests;\n    mapping(string=>Query) public queries;\n    address public owner; // the creator of the contract (we)\n    uint  public tempVal;\n    Aggre public age;\n    \n    struct Battle {\n        address creator;\n        address opponent;\n        uint256 amountBet;\n        string betType;\n        uint betDate;\n        bool isUp;\n        int currVal;\n    }\n\n    struct Query{\n        string jobId;\n        string json;\n        string path;\n    }\n\n    /**\n     * Network: Kovan\n     * Aggregator: ETH/USD\n     * Address: 0x9326BFA02ADD2366b30bacB125260Af641031331\n     */\n    constructor() public {\n        age=new Aggre();\n        owner = msg.sender;\n        // the jobId here correspond to the Rinkbey testnet\n        queries[\"Dollar\"]=Query(\"4ebf9e0c60d6461cb8a894c0f00ee6b0\",\"https://min-api.cryptocompare.com/data/price?fsym=ETH&tsyms=USD\",\"USD\");\n    }\n\n    /**\n     * Returns the latest price\n     */\n    \n    \n    // a creator create a new battle\n    function addBattle(string memory betType,uint betDate,bool direction) public payable {\n        require(msg.value>0, \"You have to bet on positive value!\\n\");\n        battleInfo[battleId]=Battle(msg.sender,msg.sender,msg.value,betType,block.timestamp+betDate,direction,age.getThePrice());\n\t\t// here there is a problem of mutual exclution\n\t\ttempVal=battleId;\n        battleId++; // to be sent to the creator so he will pass it to optionaly opponents, so they will know to which battle to send their money\n    }\n\t\n\tfunction setIndex() public payable {\n        tempVal= msg.value;\n    }\n\n    function getIndex(uint256 battle_id) public view returns (uint){\n        return battleInfo[battle_id].betDate;\n    }\n    function getcurrVal(uint256 battle_id) public view returns (int){\n        return battleInfo[battle_id].currVal;\n    }\n\n    function getId() public view returns (uint256){\n        return battleId;\n    }\n\t\n\tfunction settempVal(uint num) public {\n        tempVal=num;\n    }\n\t\n\tfunction gettempVal(uint num) public view returns (uint) {\n        return tempVal;\n    }\n\n\n    // an opponent is signed to battle number: battleid\n    function acceptBattle(uint256 battle_id) public payable{\n        Battle storage bate=battleInfo[battle_id];\n        require(bate.amountBet>0, \"Battle number isn't exist.\\n\");\n        require(bate.creator!=msg.sender, \"Impossible to fight against yourself.\\n\");\n        require(bate.creator==bate.opponent, \"This battle is closed, opponent already exist.\\n\");\n        require(msg.value==bate.amountBet, \"Betting value isn't as specified for this battle.\\n\");\n        bate.opponent=msg.sender;\n\t\ttempVal=9;\n        \n    }\n\n    // a creator cancel his battle\n    function cancelBattle(uint256 battle_id) public payable{\n        Battle memory bate=battleInfo[battle_id];\n        require(bate.amountBet>0, \"Battle number isn't exist.\\n\");\n        require(bate.creator==msg.sender, \"Only the creator may cancel his own battle.\\n\");\n\n        require(bate.creator==bate.opponent, \"There is already opponent, this battle can't be canceled.\\n\");\n        //temp=address(battleInfo[battle_id].creator);\n        //temp.transfer(2*battleInfo[battle_id].amountBet);\n        payable(bate.creator).transfer(bate.amountBet); // return the amount invested\n        delete battleInfo[battle_id]; // battle is canceled\n    }\n\n    // the winner may draw his money\n    function withdraw(uint256 battle_id) public {\n\t\ttempVal=7;\n        int oldPrice;\n        int newPrice;\n        Battle memory bate=battleInfo[battle_id];\n        require(bate.amountBet>0, \"Battle number isn't exist.\\n\");\n        require(block.timestamp>=bate.betDate, \"Too early to check who is the winner.\\n\");\n\t\trequire((bate.creator==msg.sender||bate.opponent==msg.sender), \"You are not part of this battle.\\n\");\n        oldPrice=bate.currVal;\n        newPrice=age.getThePrice();\n        // deliver the money to the winner\n        if(oldPrice<newPrice){\n\t\ttempVal=5;\n            if(bate.isUp){\n                //temp=address(battleInfo[battle_id].creator);\n                //temp.transfer(2*battleInfo[battle_id].amountBet);\n                payable(bate.creator).transfer(2*bate.amountBet); // multiply by 2 since we deliever the money of both the creator and his opponent\n            }\n            else{\n                //temp=address(battleInfo[battle_id].opponent);\n                //temp.transfer(2*battleInfo[battle_id].amountBet);\n                payable(bate.opponent).transfer(2*bate.amountBet);\n            }\n\n        }\n        else if(oldPrice>newPrice){\n\t\ttempVal=4;\n            if(bate.isUp){\n                //temp=address(battleInfo[battle_id].opponent);\n                //temp.transfer(2*battleInfo[battle_id].amountBet);\n                payable(bate.opponent).transfer(2*bate.amountBet);\n            }\n            else{\n                //temp=address(battleInfo[battle_id].creator);\n                //temp.transfer(2*battleInfo[battle_id].amountBet);\n                payable(bate.creator).transfer(2*bate.amountBet);\n            }\n        }\n        // if nothing has changed, the creator lose his money\n        else {\n\t\ttempVal=3;\n            //temp=address(battleInfo[battle_id].opponent);\n            //temp.transfer(2*battleInfo[battle_id].amountBet);\n            payable(bate.opponent).transfer(2*bate.amountBet);\n        }\n        delete battleInfo[battle_id]; // battle is finished\n    }\n\n    //just for testing\n    function removeBattle(uint256 battle_id) public {\n        require(battleInfo[battle_id].amountBet>0, \"Battle number isn't exist.\\n\");\n        delete battleInfo[battle_id]; // battle is canceled\n    }\n\n\n    function stringToBytes32(string memory source) private pure returns (bytes32 result) {\n        bytes memory tempEmptyStringTest = bytes(source);\n        if (tempEmptyStringTest.length == 0) {\n            return 0x0;\n        }\n        assembly { // solhint-disable-line no-inline-assembly\n            result := mload(add(source, 32))\n        }\n    }\n}",
  "sourcePath": "/home/eran/WebstormProjects/tau_Smart_contract/contracts/BinaryOption.sol",
  "compiler": {
    "name": "solc",
    "version": "0.8.3+commit.8d00100c.Emscripten.clang"
  },
  "schemaVersion": "3.3.4",
  "updatedAt": "2021-04-26T18:27:33.378Z",
  "devdoc": {
    "kind": "dev",
    "methods": {},
    "version": 1
  },
  "userdoc": {
    "kind": "user",
    "methods": {
      "addBattle(string,uint256,bool)": {
        "notice": "Returns the latest price"
      },
      "constructor": {
        "notice": "Network: Kovan Aggregator: ETH/USD Address: 0x9326BFA02ADD2366b30bacB125260Af641031331"
      }
    },
    "version": 1
  }
}