{
  "contractName": "BinaryOption",
  "abi": [
    {
      "inputs": [],
      "stateMutability": "nonpayable",
      "type": "constructor"
    },
    {
      "inputs": [],
      "name": "age",
      "outputs": [
        {
          "internalType": "contract Aggre",
          "name": "",
          "type": "address"
        }
      ],
      "stateMutability": "view",
      "type": "function",
      "constant": true
    },
    {
      "inputs": [],
      "name": "battleId",
      "outputs": [
        {
          "internalType": "uint256",
          "name": "",
          "type": "uint256"
        }
      ],
      "stateMutability": "view",
      "type": "function",
      "constant": true
    },
    {
      "inputs": [
        {
          "internalType": "uint256",
          "name": "",
          "type": "uint256"
        }
      ],
      "name": "battleInfo",
      "outputs": [
        {
          "internalType": "address",
          "name": "creator",
          "type": "address"
        },
        {
          "internalType": "address",
          "name": "opponent",
          "type": "address"
        },
        {
          "internalType": "uint256",
          "name": "amountBet",
          "type": "uint256"
        },
        {
          "internalType": "string",
          "name": "betType",
          "type": "string"
        },
        {
          "internalType": "uint256",
          "name": "betDate",
          "type": "uint256"
        },
        {
          "internalType": "bool",
          "name": "isUp",
          "type": "bool"
        },
        {
          "internalType": "int256",
          "name": "currVal",
          "type": "int256"
        }
      ],
      "stateMutability": "view",
      "type": "function",
      "constant": true
    },
    {
      "inputs": [
        {
          "internalType": "string",
          "name": "",
          "type": "string"
        }
      ],
      "name": "feedAddress",
      "outputs": [
        {
          "internalType": "address",
          "name": "",
          "type": "address"
        }
      ],
      "stateMutability": "view",
      "type": "function",
      "constant": true
    },
    {
      "inputs": [],
      "name": "owner",
      "outputs": [
        {
          "internalType": "address",
          "name": "",
          "type": "address"
        }
      ],
      "stateMutability": "view",
      "type": "function",
      "constant": true
    },
    {
      "inputs": [],
      "name": "tempVal",
      "outputs": [
        {
          "internalType": "uint256",
          "name": "",
          "type": "uint256"
        }
      ],
      "stateMutability": "view",
      "type": "function",
      "constant": true
    },
    {
      "inputs": [
        {
          "internalType": "string",
          "name": "betType",
          "type": "string"
        },
        {
          "internalType": "uint256",
          "name": "betDate",
          "type": "uint256"
        },
        {
          "internalType": "bool",
          "name": "direction",
          "type": "bool"
        }
      ],
      "name": "addBattle",
      "outputs": [],
      "stateMutability": "payable",
      "type": "function",
      "payable": true
    },
    {
      "inputs": [],
      "name": "setIndex",
      "outputs": [],
      "stateMutability": "payable",
      "type": "function",
      "payable": true
    },
    {
      "inputs": [
        {
          "internalType": "uint256",
          "name": "battle_id",
          "type": "uint256"
        }
      ],
      "name": "getIndex",
      "outputs": [
        {
          "internalType": "uint256",
          "name": "",
          "type": "uint256"
        }
      ],
      "stateMutability": "view",
      "type": "function",
      "constant": true
    },
    {
      "inputs": [
        {
          "internalType": "address",
          "name": "a",
          "type": "address"
        }
      ],
      "name": "getPrice",
      "outputs": [
        {
          "internalType": "int256",
          "name": "",
          "type": "int256"
        }
      ],
      "stateMutability": "view",
      "type": "function",
      "constant": true
    },
    {
      "inputs": [],
      "name": "getId",
      "outputs": [
        {
          "internalType": "uint256",
          "name": "",
          "type": "uint256"
        }
      ],
      "stateMutability": "view",
      "type": "function",
      "constant": true
    },
    {
      "inputs": [
        {
          "internalType": "uint256",
          "name": "num",
          "type": "uint256"
        }
      ],
      "name": "settempVal",
      "outputs": [],
      "stateMutability": "nonpayable",
      "type": "function"
    },
    {
      "inputs": [],
      "name": "gettempVal",
      "outputs": [
        {
          "internalType": "uint256",
          "name": "",
          "type": "uint256"
        }
      ],
      "stateMutability": "view",
      "type": "function",
      "constant": true
    },
    {
      "inputs": [
        {
          "internalType": "uint256",
          "name": "battle_id",
          "type": "uint256"
        }
      ],
      "name": "acceptBattle",
      "outputs": [],
      "stateMutability": "payable",
      "type": "function",
      "payable": true
    },
    {
      "inputs": [
        {
          "internalType": "uint256",
          "name": "battle_id",
          "type": "uint256"
        }
      ],
      "name": "cancelBattle",
      "outputs": [],
      "stateMutability": "payable",
      "type": "function",
      "payable": true
    },
    {
      "inputs": [
        {
          "internalType": "uint256",
          "name": "battle_id",
          "type": "uint256"
        }
      ],
      "name": "getcurrVal",
      "outputs": [
        {
          "internalType": "uint256",
          "name": "",
          "type": "uint256"
        }
      ],
      "stateMutability": "view",
      "type": "function",
      "constant": true
    },
    {
      "inputs": [
        {
          "internalType": "uint256",
          "name": "battle_id",
          "type": "uint256"
        }
      ],
      "name": "withdraw",
      "outputs": [],
      "stateMutability": "nonpayable",
      "type": "function"
    },
    {
      "inputs": [
        {
          "internalType": "uint256",
          "name": "battle_id",
          "type": "uint256"
        }
      ],
      "name": "removeBattle",
      "outputs": [],
      "stateMutability": "nonpayable",
      "type": "function"
    }
  ],
  "bytecode": "0x60806040523480156200001157600080fd5b50604051620000209062000218565b604051809103906000f0801580156200003d573d6000803e3d6000fd5b50600560006101000a81548173ffffffffffffffffffffffffffffffffffffffff021916908373ffffffffffffffffffffffffffffffffffffffff16021790555033600260006101000a81548173ffffffffffffffffffffffffffffffffffffffff021916908373ffffffffffffffffffffffffffffffffffffffff160217905550739326bfa02add2366b30bacb125260af6410313316004604051620000e490620002c9565b908152602001604051809103902060006101000a81548173ffffffffffffffffffffffffffffffffffffffff021916908373ffffffffffffffffffffffffffffffffffffffff160217905550736135b13325bfc4b00278b4abc5e20bbce2d6580e60046040516200015590620002b2565b908152602001604051809103902060006101000a81548173ffffffffffffffffffffffffffffffffffffffff021916908373ffffffffffffffffffffffffffffffffffffffff160217905550730c15ab9a0db086e062194c273cc79f41597bbf136004604051620001c6906200029b565b908152602001604051809103902060006101000a81548173ffffffffffffffffffffffffffffffffffffffff021916908373ffffffffffffffffffffffffffffffffffffffff16021790555062000366565b61017c80620027db83390190565b600062000235600883620002e0565b91506200024282620002eb565b600882019050919050565b60006200025c600883620002e0565b9150620002698262000314565b600882019050919050565b600062000283600883620002e0565b915062000290826200033d565b600882019050919050565b6000620002a88262000226565b9150819050919050565b6000620002bf826200024d565b9150819050919050565b6000620002d68262000274565b9150819050919050565b600081905092915050565b7f4575725673557364000000000000000000000000000000000000000000000000600082015250565b7f4274635673557364000000000000000000000000000000000000000000000000600082015250565b7f4574685673557364000000000000000000000000000000000000000000000000600082015250565b61246580620003766000396000f3fe6080604052600436106101095760003560e01c80638da5cb5b11610095578063a9e23bea11610064578063a9e23bea1461034f578063b49bbaa21461037a578063bfc8b8c614610384578063db71dcdc146103a0578063e4bb7a1e146103e357610109565b80638da5cb5b146102955780638e7cb6e1146102c057806395323b50146102fd578063a8cabe981461032657610109565b8063460e4cc3116100dc578063460e4cc3146101ca5780634b755702146102075780634c4c447e146102325780635d1ca6311461024e57806381ec30f21461027957610109565b806301a1b7781461010e578063262a9dff146101395780632e1a7d4d1461016457806341976e091461018d575b600080fd5b34801561011a57600080fd5b50610123610420565b6040516101309190611e31565b60405180910390f35b34801561014557600080fd5b5061014e610426565b60405161015b9190611cdb565b60405180910390f35b34801561017057600080fd5b5061018b60048036038101906101869190611a1a565b61044c565b005b34801561019957600080fd5b506101b460048036038101906101af9190611920565b610a34565b6040516101c19190611cf6565b60405180910390f35b3480156101d657600080fd5b506101f160048036038101906101ec9190611a1a565b610ae8565b6040516101fe9190611e31565b60405180910390f35b34801561021357600080fd5b5061021c610c18565b6040516102299190611e31565b60405180910390f35b61024c60048036038101906102479190611a1a565b610c22565b005b34801561025a57600080fd5b50610263610fdd565b6040516102709190611e31565b60405180910390f35b610293600480360381019061028e9190611a1a565b610fe6565b005b3480156102a157600080fd5b506102aa611222565b6040516102b79190611c4a565b60405180910390f35b3480156102cc57600080fd5b506102e760048036038101906102e29190611a1a565b611248565b6040516102f49190611e31565b60405180910390f35b34801561030957600080fd5b50610324600480360381019061031f9190611a1a565b611268565b005b34801561033257600080fd5b5061034d60048036038101906103489190611a1a565b611364565b005b34801561035b57600080fd5b5061036461136e565b6040516103719190611e31565b60405180910390f35b610382611374565b005b61039e600480360381019061039991906119b3565b61137d565b005b3480156103ac57600080fd5b506103c760048036038101906103c29190611a1a565b611621565b6040516103da9796959493929190611c65565b60405180910390f35b3480156103ef57600080fd5b5061040a60048036038101906104059190611972565b611738565b6040516104179190611c4a565b60405180910390f35b60005481565b600560009054906101000a900473ffffffffffffffffffffffffffffffffffffffff1681565b60076003819055506000806000600160008581526020019081526020016000206040518060e00160405290816000820160009054906101000a900473ffffffffffffffffffffffffffffffffffffffff1673ffffffffffffffffffffffffffffffffffffffff1673ffffffffffffffffffffffffffffffffffffffff1681526020016001820160009054906101000a900473ffffffffffffffffffffffffffffffffffffffff1673ffffffffffffffffffffffffffffffffffffffff1673ffffffffffffffffffffffffffffffffffffffff1681526020016002820154815260200160038201805461053d90612031565b80601f016020809104026020016040519081016040528092919081815260200182805461056990612031565b80156105b65780601f1061058b576101008083540402835291602001916105b6565b820191906000526020600020905b81548152906001019060200180831161059957829003601f168201915b50505050508152602001600482015481526020016005820160009054906101000a900460ff1615151515815260200160068201548152505090506000816040015111610637576040517f08c379a000000000000000000000000000000000000000000000000000000000815260040161062e90611df1565b60405180910390fd5b806080015142101561067e576040517f08c379a000000000000000000000000000000000000000000000000000000000815260040161067590611d51565b60405180910390fd5b8060c001519250600560009054906101000a900473ffffffffffffffffffffffffffffffffffffffff1673ffffffffffffffffffffffffffffffffffffffff166344a11f65600483606001516040516106d79190611c33565b908152602001604051809103902060009054906101000a900473ffffffffffffffffffffffffffffffffffffffff166040518263ffffffff1660e01b81526004016107229190611c4a565b60206040518083038186803b15801561073a57600080fd5b505afa15801561074e573d6000803e3d6000fd5b505050506040513d601f19601f820116820180604052508101906107729190611949565b91508183121561084f5760056003819055508060a00151156107ee57806000015173ffffffffffffffffffffffffffffffffffffffff166108fc826040015160026107bd9190611f1f565b9081150290604051600060405180830381858888f193505050501580156107e8573d6000803e3d6000fd5b5061084a565b806020015173ffffffffffffffffffffffffffffffffffffffff166108fc8260400151600261081d9190611f1f565b9081150290604051600060405180830381858888f19350505050158015610848573d6000803e3d6000fd5b505b61098e565b8183131561092a5760046003819055508060a00151156108c957806020015173ffffffffffffffffffffffffffffffffffffffff166108fc826040015160026108989190611f1f565b9081150290604051600060405180830381858888f193505050501580156108c3573d6000803e3d6000fd5b50610925565b806000015173ffffffffffffffffffffffffffffffffffffffff166108fc826040015160026108f89190611f1f565b9081150290604051600060405180830381858888f19350505050158015610923573d6000803e3d6000fd5b505b61098d565b60038081905550806020015173ffffffffffffffffffffffffffffffffffffffff166108fc826040015160026109609190611f1f565b9081150290604051600060405180830381858888f1935050505015801561098b573d6000803e3d6000fd5b505b5b60016000858152602001908152602001600020600080820160006101000a81549073ffffffffffffffffffffffffffffffffffffffff02191690556001820160006101000a81549073ffffffffffffffffffffffffffffffffffffffff02191690556002820160009055600382016000610a089190611781565b60048201600090556005820160006101000a81549060ff02191690556006820160009055505050505050565b6000600560009054906101000a900473ffffffffffffffffffffffffffffffffffffffff1673ffffffffffffffffffffffffffffffffffffffff166344a11f65836040518263ffffffff1660e01b8152600401610a919190611c4a565b60206040518083038186803b158015610aa957600080fd5b505afa158015610abd573d6000803e3d6000fd5b505050506040513d601f19601f82011682018060405250810190610ae19190611949565b9050919050565b60006001600083815260200190815260200160002060000160009054906101000a900473ffffffffffffffffffffffffffffffffffffffff1673ffffffffffffffffffffffffffffffffffffffff163373ffffffffffffffffffffffffffffffffffffffff161480610bbb57506001600083815260200190815260200160002060010160009054906101000a900473ffffffffffffffffffffffffffffffffffffffff1673ffffffffffffffffffffffffffffffffffffffff163373ffffffffffffffffffffffffffffffffffffffff16145b610bfa576040517f08c379a0000000000000000000000000000000000000000000000000000000008152600401610bf190611d71565b60405180910390fd5b60016000838152602001908152602001600020600201549050919050565b6000600354905090565b6000600160008381526020019081526020016000206040518060e00160405290816000820160009054906101000a900473ffffffffffffffffffffffffffffffffffffffff1673ffffffffffffffffffffffffffffffffffffffff1673ffffffffffffffffffffffffffffffffffffffff1681526020016001820160009054906101000a900473ffffffffffffffffffffffffffffffffffffffff1673ffffffffffffffffffffffffffffffffffffffff1673ffffffffffffffffffffffffffffffffffffffff16815260200160028201548152602001600382018054610d0890612031565b80601f0160208091040260200160405190810160405280929190818152602001828054610d3490612031565b8015610d815780601f10610d5657610100808354040283529160200191610d81565b820191906000526020600020905b815481529060010190602001808311610d6457829003601f168201915b50505050508152602001600482015481526020016005820160009054906101000a900460ff1615151515815260200160068201548152505090503373ffffffffffffffffffffffffffffffffffffffff16816000015173ffffffffffffffffffffffffffffffffffffffff1614610e2d576040517f08c379a0000000000000000000000000000000000000000000000000000000008152600401610e2490611dd1565b60405180910390fd5b6000816040015111610e74576040517f08c379a0000000000000000000000000000000000000000000000000000000008152600401610e6b90611df1565b60405180910390fd5b806020015173ffffffffffffffffffffffffffffffffffffffff16816000015173ffffffffffffffffffffffffffffffffffffffff1614610eea576040517f08c379a0000000000000000000000000000000000000000000000000000000008152600401610ee190611d31565b60405180910390fd5b806000015173ffffffffffffffffffffffffffffffffffffffff166108fc82604001519081150290604051600060405180830381858888f19350505050158015610f38573d6000803e3d6000fd5b5060016000838152602001908152602001600020600080820160006101000a81549073ffffffffffffffffffffffffffffffffffffffff02191690556001820160006101000a81549073ffffffffffffffffffffffffffffffffffffffff02191690556002820160009055600382016000610fb39190611781565b60048201600090556005820160006101000a81549060ff0219169055600682016000905550505050565b60008054905090565b60006001600083815260200190815260200160002090506000816002015411611044576040517f08c379a000000000000000000000000000000000000000000000000000000000815260040161103b90611df1565b60405180910390fd5b3373ffffffffffffffffffffffffffffffffffffffff168160000160009054906101000a900473ffffffffffffffffffffffffffffffffffffffff1673ffffffffffffffffffffffffffffffffffffffff1614156110d7576040517f08c379a00000000000000000000000000000000000000000000000000000000081526004016110ce90611d11565b60405180910390fd5b8060010160009054906101000a900473ffffffffffffffffffffffffffffffffffffffff1673ffffffffffffffffffffffffffffffffffffffff168160000160009054906101000a900473ffffffffffffffffffffffffffffffffffffffff1673ffffffffffffffffffffffffffffffffffffffff161461118d576040517f08c379a000000000000000000000000000000000000000000000000000000000815260040161118490611db1565b60405180910390fd5b806002015434146111d3576040517f08c379a00000000000000000000000000000000000000000000000000000000081526004016111ca90611e11565b60405180910390fd5b338160010160006101000a81548173ffffffffffffffffffffffffffffffffffffffff021916908373ffffffffffffffffffffffffffffffffffffffff16021790555060096003819055505050565b600260009054906101000a900473ffffffffffffffffffffffffffffffffffffffff1681565b600060016000838152602001908152602001600020600401549050919050565b60006001600083815260200190815260200160002060020154116112c1576040517f08c379a00000000000000000000000000000000000000000000000000000000081526004016112b890611df1565b60405180910390fd5b60016000828152602001908152602001600020600080820160006101000a81549073ffffffffffffffffffffffffffffffffffffffff02191690556001820160006101000a81549073ffffffffffffffffffffffffffffffffffffffff0219169055600282016000905560038201600061133b9190611781565b60048201600090556005820160006101000a81549060ff02191690556006820160009055505050565b8060038190555050565b60035481565b34600381905550565b600034116113c0576040517f08c379a00000000000000000000000000000000000000000000000000000000081526004016113b790611d91565b60405180910390fd5b6040518060e001604052803373ffffffffffffffffffffffffffffffffffffffff1681526020013373ffffffffffffffffffffffffffffffffffffffff168152602001348152602001848152602001834261141b9190611ec9565b81526020018215158152602001600560009054906101000a900473ffffffffffffffffffffffffffffffffffffffff1673ffffffffffffffffffffffffffffffffffffffff166344a11f656004876040516114769190611c33565b908152602001604051809103902060009054906101000a900473ffffffffffffffffffffffffffffffffffffffff166040518263ffffffff1660e01b81526004016114c19190611c4a565b60206040518083038186803b1580156114d957600080fd5b505afa1580156114ed573d6000803e3d6000fd5b505050506040513d601f19601f820116820180604052508101906115119190611949565b815250600160008054815260200190815260200160002060008201518160000160006101000a81548173ffffffffffffffffffffffffffffffffffffffff021916908373ffffffffffffffffffffffffffffffffffffffff16021790555060208201518160010160006101000a81548173ffffffffffffffffffffffffffffffffffffffff021916908373ffffffffffffffffffffffffffffffffffffffff1602179055506040820151816002015560608201518160030190805190602001906115dc9291906117c1565b506080820151816004015560a08201518160050160006101000a81548160ff02191690831515021790555060c082015181600601559050506008600381905550505050565b60016020528060005260406000206000915090508060000160009054906101000a900473ffffffffffffffffffffffffffffffffffffffff16908060010160009054906101000a900473ffffffffffffffffffffffffffffffffffffffff169080600201549080600301805461169690612031565b80601f01602080910402602001604051908101604052809291908181526020018280546116c290612031565b801561170f5780601f106116e45761010080835404028352916020019161170f565b820191906000526020600020905b8154815290600101906020018083116116f257829003601f168201915b5050505050908060040154908060050160009054906101000a900460ff16908060060154905087565b6004818051602081018201805184825260208301602085012081835280955050505050506000915054906101000a900473ffffffffffffffffffffffffffffffffffffffff1681565b50805461178d90612031565b6000825580601f1061179f57506117be565b601f0160209004906000526020600020908101906117bd9190611847565b5b50565b8280546117cd90612031565b90600052602060002090601f0160209004810192826117ef5760008555611836565b82601f1061180857805160ff1916838001178555611836565b82800160010185558215611836579182015b8281111561183557825182559160200191906001019061181a565b5b5090506118439190611847565b5090565b5b80821115611860576000816000905550600101611848565b5090565b600061187761187284611e71565b611e4c565b90508281526020810184848401111561188f57600080fd5b61189a848285611fef565b509392505050565b6000813590506118b1816123d3565b92915050565b6000813590506118c6816123ea565b92915050565b6000815190506118db81612401565b92915050565b600082601f8301126118f257600080fd5b8135611902848260208601611864565b91505092915050565b60008135905061191a81612418565b92915050565b60006020828403121561193257600080fd5b6000611940848285016118a2565b91505092915050565b60006020828403121561195b57600080fd5b6000611969848285016118cc565b91505092915050565b60006020828403121561198457600080fd5b600082013567ffffffffffffffff81111561199e57600080fd5b6119aa848285016118e1565b91505092915050565b6000806000606084860312156119c857600080fd5b600084013567ffffffffffffffff8111156119e257600080fd5b6119ee868287016118e1565b93505060206119ff8682870161190b565b9250506040611a10868287016118b7565b9150509250925092565b600060208284031215611a2c57600080fd5b6000611a3a8482850161190b565b91505092915050565b611a4c81611f79565b82525050565b611a5b81611f8b565b82525050565b611a6a81611fcb565b82525050565b611a7981611f97565b82525050565b6000611a8a82611ea2565b611a948185611ead565b9350611aa4818560208601611ffe565b611aad81612121565b840191505092915050565b6000611ac382611ea2565b611acd8185611ebe565b9350611add818560208601611ffe565b80840191505092915050565b6000611af6602683611ead565b9150611b0182612132565b604082019050919050565b6000611b19603a83611ead565b9150611b2482612181565b604082019050919050565b6000611b3c602683611ead565b9150611b47826121d0565b604082019050919050565b6000611b5f602183611ead565b9150611b6a8261221f565b604082019050919050565b6000611b82602383611ead565b9150611b8d8261226e565b604082019050919050565b6000611ba5602f83611ead565b9150611bb0826122bd565b604082019050919050565b6000611bc8602c83611ead565b9150611bd38261230c565b604082019050919050565b6000611beb601b83611ead565b9150611bf68261235b565b602082019050919050565b6000611c0e603283611ead565b9150611c1982612384565b604082019050919050565b611c2d81611fc1565b82525050565b6000611c3f8284611ab8565b915081905092915050565b6000602082019050611c5f6000830184611a43565b92915050565b600060e082019050611c7a600083018a611a43565b611c876020830189611a43565b611c946040830188611c24565b8181036060830152611ca68187611a7f565b9050611cb56080830186611c24565b611cc260a0830185611a52565b611ccf60c0830184611a70565b98975050505050505050565b6000602082019050611cf06000830184611a61565b92915050565b6000602082019050611d0b6000830184611a70565b92915050565b60006020820190508181036000830152611d2a81611ae9565b9050919050565b60006020820190508181036000830152611d4a81611b0c565b9050919050565b60006020820190508181036000830152611d6a81611b2f565b9050919050565b60006020820190508181036000830152611d8a81611b52565b9050919050565b60006020820190508181036000830152611daa81611b75565b9050919050565b60006020820190508181036000830152611dca81611b98565b9050919050565b60006020820190508181036000830152611dea81611bbb565b9050919050565b60006020820190508181036000830152611e0a81611bde565b9050919050565b60006020820190508181036000830152611e2a81611c01565b9050919050565b6000602082019050611e466000830184611c24565b92915050565b6000611e56611e67565b9050611e628282612063565b919050565b6000604051905090565b600067ffffffffffffffff821115611e8c57611e8b6120f2565b5b611e9582612121565b9050602081019050919050565b600081519050919050565b600082825260208201905092915050565b600081905092915050565b6000611ed482611fc1565b9150611edf83611fc1565b9250827fffffffffffffffffffffffffffffffffffffffffffffffffffffffffffffffff03821115611f1457611f13612094565b5b828201905092915050565b6000611f2a82611fc1565b9150611f3583611fc1565b9250817fffffffffffffffffffffffffffffffffffffffffffffffffffffffffffffffff0483118215151615611f6e57611f6d612094565b5b828202905092915050565b6000611f8482611fa1565b9050919050565b60008115159050919050565b6000819050919050565b600073ffffffffffffffffffffffffffffffffffffffff82169050919050565b6000819050919050565b6000611fd682611fdd565b9050919050565b6000611fe882611fa1565b9050919050565b82818337600083830152505050565b60005b8381101561201c578082015181840152602081019050612001565b8381111561202b576000848401525b50505050565b6000600282049050600182168061204957607f821691505b6020821081141561205d5761205c6120c3565b5b50919050565b61206c82612121565b810181811067ffffffffffffffff8211171561208b5761208a6120f2565b5b80604052505050565b7f4e487b7100000000000000000000000000000000000000000000000000000000600052601160045260246000fd5b7f4e487b7100000000000000000000000000000000000000000000000000000000600052602260045260246000fd5b7f4e487b7100000000000000000000000000000000000000000000000000000000600052604160045260246000fd5b6000601f19601f8301169050919050565b7f496d706f737369626c6520746f20666967687420616761696e737420796f757260008201527f73656c662e0a0000000000000000000000000000000000000000000000000000602082015250565b7f546865726520697320616c7265616479206f70706f6e656e742c20746869732060008201527f626174746c652063616e27742062652063616e63656c65642e0a000000000000602082015250565b7f546f6f206561726c7920746f20636865636b2077686f2069732074686520776960008201527f6e6e65722e0a0000000000000000000000000000000000000000000000000000602082015250565b7f596f7520617265206e6f742070617274206f66207468697320626174746c652e60008201527f0a00000000000000000000000000000000000000000000000000000000000000602082015250565b7f596f75206861766520746f20626574206f6e20706f7369746976652076616c7560008201527f65210a0000000000000000000000000000000000000000000000000000000000602082015250565b7f5468697320626174746c6520697320636c6f7365642c206f70706f6e656e742060008201527f616c72656164792065786973742e0a0000000000000000000000000000000000602082015250565b7f4f6e6c79207468652063726561746f72206d61792063616e63656c206869732060008201527f6f776e20626174746c652e0a0000000000000000000000000000000000000000602082015250565b7f426174746c65206e756d6265722069736e27742065786973742e0a0000000000600082015250565b7f42657474696e672076616c75652069736e27742061732073706563696669656460008201527f20666f72207468697320626174746c652e0a0000000000000000000000000000602082015250565b6123dc81611f79565b81146123e757600080fd5b50565b6123f381611f8b565b81146123fe57600080fd5b50565b61240a81611f97565b811461241557600080fd5b50565b61242181611fc1565b811461242c57600080fd5b5056fea2646970667358221220816f7752fca8e2a15d4322daab16af3cbcbbda700f132d59aa1e7a62ce411bf464736f6c63430008030033608060405234801561001057600080fd5b5061015c806100206000396000f3fe608060405234801561001057600080fd5b506004361061002b5760003560e01c806344a11f6514610030575b600080fd5b61004a60048036038101906100459190610080565b610060565b60405161005791906100b8565b60405180910390f35b600060029050919050565b60008135905061007a8161010f565b92915050565b60006020828403121561009257600080fd5b60006100a08482850161006b565b91505092915050565b6100b2816100e5565b82525050565b60006020820190506100cd60008301846100a9565b92915050565b60006100de826100ef565b9050919050565b6000819050919050565b600073ffffffffffffffffffffffffffffffffffffffff82169050919050565b610118816100d3565b811461012357600080fd5b5056fea26469706673582212203da04c40ad1d31d9bc8f09b60f0b431f410b3ef1fa9a5eaea2c27205f9f5fdde64736f6c63430008030033",
  "immutableReferences": {},
  "source": "// SPDX-License-Identifier: MIT\r\npragma solidity ^0.8.3;\r\nimport \"./Aggre.sol\";\r\n\r\ncontract BinaryOption{\r\n\r\n\r\n    uint256  public battleId; // unique id for each battle\r\n    mapping(uint256 => Battle) public battleInfo; // map of the existing battles\r\n    address public owner; // the creator of the contract (we)\r\n    uint  public tempVal;\r\n\r\n    mapping(string=>address) public feedAddress;\r\n    Aggre public age;\r\n\r\n    struct Battle {\r\n        address creator;\r\n        address opponent;\r\n        uint256 amountBet;\r\n        string betType;\r\n        uint betDate;\r\n        bool isUp;\r\n        int currVal;\r\n    }\r\n\r\n    constructor() public {\r\n        age=new Aggre();\r\n        owner = msg.sender;\r\n\r\n        feedAddress[\"EthVsUsd\"]=0x9326BFA02ADD2366b30bacB125260Af641031331;\r\n        feedAddress[\"BtcVsUsd\"]=0x6135b13325bfC4B00278B4abC5e20bbce2D6580e;\r\n        feedAddress[\"EurVsUsd\"]=0x0c15Ab9A0DB086e062194c273CC79f41597Bbf13;\r\n    }\r\n\r\n    // a creator create a new battle\r\n    function addBattle(string memory betType,uint betDate,bool direction) public payable {\r\n        require(msg.value>0, \"You have to bet on positive value!\\n\");\r\n        battleInfo[battleId]=Battle(msg.sender,msg.sender,msg.value,betType,block.timestamp+betDate,direction,age.getThePrice(feedAddress[betType]));\r\n        tempVal=8;\r\n    }\r\n\r\n    function setIndex() public payable {\r\n        tempVal= msg.value;\r\n    }\r\n\r\n    function getIndex(uint256 battle_id) public view returns (uint){\r\n        return battleInfo[battle_id].betDate;\r\n    }\r\n\r\n    function getPrice(address a) public view returns (int){\r\n        return age.getThePrice(a);\r\n    }\r\n\r\n\r\n    function getId() public view returns (uint256){\r\n        return battleId;\r\n    }\r\n\r\n    function settempVal(uint num) public {\r\n        tempVal=num;\r\n    }\r\n\r\n    function gettempVal() public view returns (uint) {\r\n        return tempVal;\r\n    }\r\n\r\n\r\n    // an opponent is signed to battle number: battleid\r\n    function acceptBattle(uint256 battle_id) public payable{\r\n        Battle storage bate=battleInfo[battle_id];\r\n        require(bate.amountBet>0, \"Battle number isn't exist.\\n\");\r\n        require(bate.creator!=msg.sender, \"Impossible to fight against yourself.\\n\");\r\n        require(bate.creator==bate.opponent, \"This battle is closed, opponent already exist.\\n\");\r\n        require(msg.value==bate.amountBet, \"Betting value isn't as specified for this battle.\\n\");\r\n        bate.opponent=msg.sender;\r\n        tempVal=9;\r\n\r\n    }\r\n\r\n    // a creator cancel his battle\r\n    function cancelBattle(uint256 battle_id) public payable{\r\n        Battle memory bate=battleInfo[battle_id];\r\n        require(bate.creator==msg.sender, \"Only the creator may cancel his own battle.\\n\");\r\n        require(bate.amountBet>0, \"Battle number isn't exist.\\n\"); // needed?\r\n\r\n        require(bate.creator==bate.opponent, \"There is already opponent, this battle can't be canceled.\\n\");\r\n        //temp=address(battleInfo[battle_id].creator);\r\n        //temp.transfer(2*battleInfo[battle_id].amountBet);\r\n        payable(bate.creator).transfer(bate.amountBet); // return the amount invested\r\n        delete battleInfo[battle_id]; // battle is canceled\r\n    }\r\n\r\n\r\n    function getcurrVal(uint256 battle_id) public view returns (uint256){\r\n        require(msg.sender==battleInfo[battle_id].creator||msg.sender==battleInfo[battle_id].opponent, \"You are not part of this battle.\\n\");\r\n        return battleInfo[battle_id].amountBet;\r\n    }\r\n\r\n    // the winner may draw his money\r\n    function withdraw(uint256 battle_id) public {\r\n        tempVal=7;\r\n        int oldPrice;\r\n        int newPrice;\r\n        Battle memory bate=battleInfo[battle_id];\r\n        //require((bate.creator==msg.sender||bate.opponent==msg.sender), \"You are not part of this battle.\\n\"); // can be deleted if comes with getcurrval\r\n        require(bate.amountBet>0, \"Battle number isn't exist.\\n\"); // needed?\r\n        require(block.timestamp>=bate.betDate, \"Too early to check who is the winner.\\n\");\r\n        oldPrice=bate.currVal;\r\n        newPrice=age.getThePrice(feedAddress[bate.betType]);\r\n        // deliver the money to the winner\r\n        if(oldPrice<newPrice){\r\n            tempVal=5;\r\n            if(bate.isUp){\r\n                //temp=address(battleInfo[battle_id].creator);\r\n                //temp.transfer(2*battleInfo[battle_id].amountBet);\r\n                payable(bate.creator).transfer(2*bate.amountBet); // multiply by 2 since we deliever the money of both the creator and his opponent\r\n            }\r\n            else{\r\n                //temp=address(battleInfo[battle_id].opponent);\r\n                //temp.transfer(2*battleInfo[battle_id].amountBet);\r\n                payable(bate.opponent).transfer(2*bate.amountBet);\r\n            }\r\n\r\n        }\r\n        else if(oldPrice>newPrice){\r\n            tempVal=4;\r\n            if(bate.isUp){\r\n                //temp=address(battleInfo[battle_id].opponent);\r\n                //temp.transfer(2*battleInfo[battle_id].amountBet);\r\n                payable(bate.opponent).transfer(2*bate.amountBet);\r\n            }\r\n            else{\r\n                //temp=address(battleInfo[battle_id].creator);\r\n                //temp.transfer(2*battleInfo[battle_id].amountBet);\r\n                payable(bate.creator).transfer(2*bate.amountBet);\r\n            }\r\n        }\r\n        // if nothing has changed, the creator lose his money\r\n        else {\r\n            tempVal=3;\r\n            //temp=address(battleInfo[battle_id].opponent);\r\n            //temp.transfer(2*battleInfo[battle_id].amountBet);\r\n            payable(bate.opponent).transfer(2*bate.amountBet);\r\n        }\r\n        delete battleInfo[battle_id]; // battle is finished\r\n    }\r\n\r\n    //just for testing\r\n    function removeBattle(uint256 battle_id) public {\r\n        require(battleInfo[battle_id].amountBet>0, \"Battle number isn't exist.\\n\");\r\n        delete battleInfo[battle_id]; // battle is canceled\r\n    }\r\n\r\n\r\n\r\n}",
  "sourcePath": "/mnt/c/users/lenovo/ideaprojects/tau_smart_contract/contracts/BinaryOption.sol",
  "compiler": {
    "name": "solc",
    "version": "0.8.3+commit.8d00100c.Emscripten.clang"
  },
  "schemaVersion": "3.3.4",
  "updatedAt": "2021-04-29T04:41:11.883Z",
  "networkType": "ethereum",
  "devdoc": {
    "kind": "dev",
    "methods": {},
    "version": 1
  },
  "userdoc": {
    "kind": "user",
    "methods": {},
    "version": 1
  }
}